{
  "_format": "hh-sol-artifact-1",
  "contractName": "DecimalMath",
  "sourceName": "contracts/DecimalMath.sol",
  "abi": [
    {
      "inputs": [],
      "name": "DECIMAL_PRECISION",
      "outputs": [
        {
          "internalType": "uint256",
          "name": "",
          "type": "uint256"
        }
      ],
      "stateMutability": "view",
      "type": "function"
    }
  ],
  "bytecode": "0x608080604052346018576077908161001e823930815050f35b600080fdfe6080806040526004361015601257600080fd5b60003560e01c63a20baee614602657600080fd5b6000366003190112603c5780620f424060209252f35b600080fdfea26469706673582212200ad0e6d81738b4b68b475f2efd45343475e43d91c69ce80a4876dde1251a64a164736f6c63430008140033",
  "linkReferences": {},
  "deployedLinkReferences": {}
}