{
  "_format": "hh-sol-artifact-1",
  "contractName": "PositionStorage",
  "sourceName": "contracts/PositionStorage.sol",
  "abi": [
    {
      "inputs": [],
      "stateMutability": "nonpayable",
      "type": "constructor"
    },
    {
      "inputs": [
        {
          "internalType": "address",
          "name": "owner",
          "type": "address"
        },
        {
          "internalType": "uint256",
          "name": "inBalance",
          "type": "uint256"
        },
        {
          "internalType": "uint256",
          "name": "shares",
          "type": "uint256"
        },
        {
          "components": [
            {
              "internalType": "uint256",
              "name": "value",
              "type": "uint256"
            }
          ],
          "internalType": "struct Decimal",
          "name": "index",
          "type": "tuple"
        }
      ],
      "name": "createPosition",
      "outputs": [],
      "stateMutability": "nonpayable",
      "type": "function"
    },
    {
      "inputs": [
        {
          "internalType": "address",
          "name": "_owner",
          "type": "address"
        }
      ],
      "name": "getPosition",
      "outputs": [
        {
          "components": [
            {
              "internalType": "uint256",
              "name": "inBalance",
              "type": "uint256"
            },
            {
              "internalType": "uint256",
              "name": "shares",
              "type": "uint256"
            },
            {
              "components": [
                {
                  "internalType": "uint256",
                  "name": "value",
                  "type": "uint256"
                }
              ],
              "internalType": "struct Decimal",
              "name": "index",
              "type": "tuple"
            },
            {
              "internalType": "uint256",
              "name": "lastUpdateTime",
              "type": "uint256"
            },
            {
              "components": [
                {
                  "internalType": "uint256",
                  "name": "value",
                  "type": "uint256"
                }
              ],
              "internalType": "struct Decimal",
              "name": "pendingReward",
              "type": "tuple"
            },
            {
              "internalType": "uint256",
              "name": "spentIn",
              "type": "uint256"
            },
            {
              "internalType": "uint256",
              "name": "purchased",
              "type": "uint256"
            },
            {
              "internalType": "uint256",
              "name": "exitDate",
              "type": "uint256"
            }
          ],
          "internalType": "struct PositionTypes.Position",
          "name": "",
          "type": "tuple"
        }
      ],
      "stateMutability": "view",
      "type": "function"
    },
    {
      "inputs": [
        {
          "internalType": "address",
          "name": "owner",
          "type": "address"
        },
        {
          "internalType": "uint256",
          "name": "exitDate",
          "type": "uint256"
        }
      ],
      "name": "setExitDate",
      "outputs": [],
      "stateMutability": "nonpayable",
      "type": "function"
    },
    {
      "inputs": [],
      "name": "streamContractAddress",
      "outputs": [
        {
          "internalType": "address",
          "name": "",
          "type": "address"
        }
      ],
      "stateMutability": "view",
      "type": "function"
    },
    {
      "inputs": [
        {
          "internalType": "address",
          "name": "owner",
          "type": "address"
        },
        {
          "components": [
            {
              "internalType": "uint256",
              "name": "inBalance",
              "type": "uint256"
            },
            {
              "internalType": "uint256",
              "name": "shares",
              "type": "uint256"
            },
            {
              "components": [
                {
                  "internalType": "uint256",
                  "name": "value",
                  "type": "uint256"
                }
              ],
              "internalType": "struct Decimal",
              "name": "index",
              "type": "tuple"
            },
            {
              "internalType": "uint256",
              "name": "lastUpdateTime",
              "type": "uint256"
            },
            {
              "components": [
                {
                  "internalType": "uint256",
                  "name": "value",
                  "type": "uint256"
                }
              ],
              "internalType": "struct Decimal",
              "name": "pendingReward",
              "type": "tuple"
            },
            {
              "internalType": "uint256",
              "name": "spentIn",
              "type": "uint256"
            },
            {
              "internalType": "uint256",
              "name": "purchased",
              "type": "uint256"
            },
            {
              "internalType": "uint256",
              "name": "exitDate",
              "type": "uint256"
            }
          ],
          "internalType": "struct PositionTypes.Position",
          "name": "position",
          "type": "tuple"
        }
      ],
      "name": "updatePosition",
      "outputs": [],
      "stateMutability": "nonpayable",
      "type": "function"
    }
  ],
  "bytecode": "0x60a080604052346100375733608052610557908161003d82396080518181816080015281816101690152818161020e01526102dc0152f35b600080fdfe604060808152600436101561001357600080fd5b60009060e08235811c90816316c197391461030b5781635cb0175c146102c7578163a3de7d17146101d6578163c1ac1026146100bf575063fb33ce811461005957600080fd5b346100bb57806003193601126100bb5761007161042f565b6001600160a01b03906100a7337f00000000000000000000000000000000000000000000000000000000000000008416146104bd565b168252816020526007602435918320015580f35b5080fd5b919050346101d2576101203660031901126101d2576100dc61042f565b6101003660231901126101ce576100f161044a565b9260243584526020840192604435845261010a366104a1565b93818601948552606086016084358152602060a3193601126101ca57600795610131610481565b9260a43584526080890193845260a089019460c435865260c08a019660e43588528a019761010435895260018060a01b0390610190827f00000000000000000000000000000000000000000000000000000000000000001633146104bd565b168b528a6020528a209851895551600189015551516002880155516003870155515160048601555160058501555160068401555191015580f35b8780fd5b8380fd5b8280fd5b9050346101d25760803660031901126101d2576007906101f461042f565b906101fe366104a1565b936001600160a01b0390610235337f00000000000000000000000000000000000000000000000000000000000000008416146104bd565b8661023e610481565b52610247610481565b9087825261025361044a565b966024358852602088016044358152828901918252606089019242845260808a0194855260a08a01958b875260c08b01978c89528b01988c8a52168b528a6020528a209851895551600189015551516002880155516003870155515160048601555160058501555160068401555191015580f35b5050346100bb57816003193601126100bb57517f00000000000000000000000000000000000000000000000000000000000000006001600160a01b03168152602090f35b9050346101d25760203660031901126101d257816101009361032b61042f565b818461033561044a565b828152826020820152610346610481565b8381528682015282606082015261035b610481565b838152608082015260a0810183905260c0810183905201526001600160a01b031681526020819052209161038d61044a565b9280548452600181015491602085019283526103a7610481565b90600283015482528086019182526003830154606087019081526103c9610481565b91600485015483526080880192835260058501549360a08901948552600760068701549660c08b01978852015496888a01978852825199518a525160208a0152515190880152516060870152515160808601525160a08501525160c08401525190820152f35b600435906001600160a01b038216820361044557565b600080fd5b60405190610100820182811067ffffffffffffffff82111761046b57604052565b634e487b7160e01b600052604160045260246000fd5b604051906020820182811067ffffffffffffffff82111761046b57604052565b6020906063190112610445576104b5610481565b906064358252565b156104c457565b60405162461bcd60e51b815260206004820152602f60248201527f506f736974696f6e2063616e206f6e6c7920626520736574206279207468652060448201526e1cdd1c99585b4818dbdb9d1c9858dd608a1b6064820152608490fdfea264697066735822122080d010f406cb7459200122a9dd9702352c31e0ccdb7cc6473685a5f1bac89d7864736f6c63430008140033",
  "linkReferences": {},
  "deployedLinkReferences": {}
}