{
  "_format": "hh-sol-artifact-1",
  "contractName": "StreamMathLibMock",
  "sourceName": "contracts/StreamMathLibMock.sol",
  "abi": [
    {
      "inputs": [
        {
          "internalType": "uint256",
          "name": "currentTimestamp",
          "type": "uint256"
        },
        {
          "internalType": "uint256",
          "name": "streamStartTime",
          "type": "uint256"
        },
        {
          "internalType": "uint256",
          "name": "streamEndTime",
          "type": "uint256"
        },
        {
          "internalType": "uint256",
          "name": "lastUpdated",
          "type": "uint256"
        }
      ],
      "name": "calculateDiff",
      "outputs": [
        {
          "components": [
            {
              "internalType": "uint256",
              "name": "value",
              "type": "uint256"
            }
          ],
          "internalType": "struct Decimal",
          "name": "",
          "type": "tuple"
        }
      ],
      "stateMutability": "pure",
      "type": "function"
    },
    {
      "inputs": [
        {
          "internalType": "uint256",
          "name": "spentInAmount",
          "type": "uint256"
        },
        {
          "components": [
            {
              "internalType": "uint256",
              "name": "value",
              "type": "uint256"
            }
          ],
          "internalType": "struct Decimal",
          "name": "ExitFeeRatio",
          "type": "tuple"
        }
      ],
      "name": "calculateExitFee",
      "outputs": [
        {
          "internalType": "uint256",
          "name": "feeAmount",
          "type": "uint256"
        },
        {
          "internalType": "uint256",
          "name": "remainingAmount",
          "type": "uint256"
        }
      ],
      "stateMutability": "pure",
      "type": "function"
    },
    {
      "inputs": [
        {
          "internalType": "enum IStreamTypes.Status",
          "name": "currentStatus",
          "type": "uint8"
        },
        {
          "internalType": "uint256",
          "name": "currentTime",
          "type": "uint256"
        },
        {
          "internalType": "uint256",
          "name": "bootstrappingStartTime",
          "type": "uint256"
        },
        {
          "internalType": "uint256",
          "name": "streamStartTime",
          "type": "uint256"
        },
        {
          "internalType": "uint256",
          "name": "streamEndTime",
          "type": "uint256"
        }
      ],
      "name": "calculateStreamStatus",
      "outputs": [
        {
          "internalType": "enum IStreamTypes.Status",
          "name": "",
          "type": "uint8"
        }
      ],
      "stateMutability": "pure",
      "type": "function"
    },
    {
      "inputs": [
        {
          "components": [
            {
              "internalType": "uint256",
              "name": "outRemaining",
              "type": "uint256"
            },
            {
              "components": [
                {
                  "internalType": "uint256",
                  "name": "value",
                  "type": "uint256"
                }
              ],
              "internalType": "struct Decimal",
              "name": "distIndex",
              "type": "tuple"
            },
            {
              "internalType": "uint256",
              "name": "spentIn",
              "type": "uint256"
            },
            {
              "internalType": "uint256",
              "name": "shares",
              "type": "uint256"
            },
            {
              "components": [
                {
                  "internalType": "uint256",
                  "name": "value",
                  "type": "uint256"
                }
              ],
              "internalType": "struct Decimal",
              "name": "currentStreamedPrice",
              "type": "tuple"
            },
            {
              "internalType": "uint256",
              "name": "threshold",
              "type": "uint256"
            },
            {
              "internalType": "uint256",
              "name": "inSupply",
              "type": "uint256"
            },
            {
              "internalType": "uint256",
              "name": "outSupply",
              "type": "uint256"
            },
            {
              "internalType": "uint256",
              "name": "lastUpdated",
              "type": "uint256"
            }
          ],
          "internalType": "struct IStreamTypes.StreamState",
          "name": "state",
          "type": "tuple"
        },
        {
          "components": [
            {
              "internalType": "uint256",
              "name": "value",
              "type": "uint256"
            }
          ],
          "internalType": "struct Decimal",
          "name": "diff",
          "type": "tuple"
        }
      ],
      "name": "calculateUpdatedState",
      "outputs": [
        {
          "components": [
            {
              "internalType": "uint256",
              "name": "outRemaining",
              "type": "uint256"
            },
            {
              "components": [
                {
                  "internalType": "uint256",
                  "name": "value",
                  "type": "uint256"
                }
              ],
              "internalType": "struct Decimal",
              "name": "distIndex",
              "type": "tuple"
            },
            {
              "internalType": "uint256",
              "name": "spentIn",
              "type": "uint256"
            },
            {
              "internalType": "uint256",
              "name": "shares",
              "type": "uint256"
            },
            {
              "components": [
                {
                  "internalType": "uint256",
                  "name": "value",
                  "type": "uint256"
                }
              ],
              "internalType": "struct Decimal",
              "name": "currentStreamedPrice",
              "type": "tuple"
            },
            {
              "internalType": "uint256",
              "name": "threshold",
              "type": "uint256"
            },
            {
              "internalType": "uint256",
              "name": "inSupply",
              "type": "uint256"
            },
            {
              "internalType": "uint256",
              "name": "outSupply",
              "type": "uint256"
            },
            {
              "internalType": "uint256",
              "name": "lastUpdated",
              "type": "uint256"
            }
          ],
          "internalType": "struct IStreamTypes.StreamState",
          "name": "",
          "type": "tuple"
        }
      ],
      "stateMutability": "pure",
      "type": "function"
    },
    {
      "inputs": [
        {
          "internalType": "uint256",
          "name": "amountIn",
          "type": "uint256"
        },
        {
          "internalType": "bool",
          "name": "roundUp",
          "type": "bool"
        },
        {
          "internalType": "uint256",
          "name": "inSupply",
          "type": "uint256"
        },
        {
          "internalType": "uint256",
          "name": "totalShares",
          "type": "uint256"
        }
      ],
      "name": "computeSharesAmount",
      "outputs": [
        {
          "internalType": "uint256",
          "name": "",
          "type": "uint256"
        }
      ],
      "stateMutability": "pure",
      "type": "function"
    },
    {
      "inputs": [
        {
          "components": [
            {
              "internalType": "uint256",
              "name": "inBalance",
              "type": "uint256"
            },
            {
              "internalType": "uint256",
              "name": "shares",
              "type": "uint256"
            },
            {
              "components": [
                {
                  "internalType": "uint256",
                  "name": "value",
                  "type": "uint256"
                }
              ],
              "internalType": "struct Decimal",
              "name": "index",
              "type": "tuple"
            },
            {
              "internalType": "uint256",
              "name": "lastUpdateTime",
              "type": "uint256"
            },
            {
              "components": [
                {
                  "internalType": "uint256",
                  "name": "value",
                  "type": "uint256"
                }
              ],
              "internalType": "struct Decimal",
              "name": "pendingReward",
              "type": "tuple"
            },
            {
              "internalType": "uint256",
              "name": "spentIn",
              "type": "uint256"
            },
            {
              "internalType": "uint256",
              "name": "purchased",
              "type": "uint256"
            },
            {
              "internalType": "uint256",
              "name": "exitDate",
              "type": "uint256"
            }
          ],
          "internalType": "struct PositionTypes.Position",
          "name": "position",
          "type": "tuple"
        },
        {
          "components": [
            {
              "internalType": "uint256",
              "name": "value",
              "type": "uint256"
            }
          ],
          "internalType": "struct Decimal",
          "name": "distIndex",
          "type": "tuple"
        },
        {
          "internalType": "uint256",
          "name": "shares",
          "type": "uint256"
        },
        {
          "internalType": "uint256",
          "name": "inSupply",
          "type": "uint256"
        },
        {
          "internalType": "uint256",
          "name": "nowTime",
          "type": "uint256"
        }
      ],
      "name": "syncPosition",
      "outputs": [
        {
          "components": [
            {
              "internalType": "uint256",
              "name": "inBalance",
              "type": "uint256"
            },
            {
              "internalType": "uint256",
              "name": "shares",
              "type": "uint256"
            },
            {
              "components": [
                {
                  "internalType": "uint256",
                  "name": "value",
                  "type": "uint256"
                }
              ],
              "internalType": "struct Decimal",
              "name": "index",
              "type": "tuple"
            },
            {
              "internalType": "uint256",
              "name": "lastUpdateTime",
              "type": "uint256"
            },
            {
              "components": [
                {
                  "internalType": "uint256",
                  "name": "value",
                  "type": "uint256"
                }
              ],
              "internalType": "struct Decimal",
              "name": "pendingReward",
              "type": "tuple"
            },
            {
              "internalType": "uint256",
              "name": "spentIn",
              "type": "uint256"
            },
            {
              "internalType": "uint256",
              "name": "purchased",
              "type": "uint256"
            },
            {
              "internalType": "uint256",
              "name": "exitDate",
              "type": "uint256"
            }
          ],
          "internalType": "struct PositionTypes.Position",
          "name": "",
          "type": "tuple"
        }
      ],
      "stateMutability": "pure",
      "type": "function"
    }
  ],
  "bytecode": "0x608080604052346100165761092b908161001c8239f35b600080fdfe60406080815260048036101561001457600080fd5b60e09160008035841c63165ebde681146104e1578063318a1857146104a45780638562dfa714610446578063c6e4949214610231578063c7e39f09146101f05763eaf5066e1461006357600080fd5b346101e95736600319019361014085126101ec576101208095126101ec5761008961057e565b933584526100963661059f565b92602085019384528085019060443582526060860160643581526100b9366105c0565b6080880190815260a088019160a435835260c089019360c4358552868a019560e4358752610100998a8c0199610104358b526020610123193601126101e957508b61010261055e565b6101243581526101106107c8565b506101196107c8565b5085511515806101df575b610162575b505082519b518c52515160208c015251908a0152516060890152515160808801525160a08701525160c086015251908401525190820152f35b620f424061018a8161017d8461017887516106b9565b610829565b5104926101788c516106b9565b510461019781865161081c565b85526101a4818b516105dc565b8a52816101b2575b50610129565b826101c1836101d595516105dc565b90526101ce875183610707565b8452610707565b85528b38806101ac565b5080511515610124565b80fd5b5080fd5b50913461022d57608036600319011261022d576102259060209361021261055e565b52606435906044359060243590356105ff565b905190518152f35b8280fd5b508390346101e95736600319019361018085126101ec576101008095126101ec5761025a610527565b9035815260208101906024358252602060431936011261022d5761027c61055e565b60443581528582019081526060820195606435875261029a366105c0565b906080840191825260a084019260a435845260c085019460c43586528881019660e435885260206101031936011261044257908992916102d861055e565b9161010435835261012435906102ec6108a8565b506102f56108a8565b5051915193519c5196519751985199519a610359610311610527565b9e8f9485526020850196875288850197818952606086019a8b52608086019b8c5260a086019c8d5260c086019d8e5285019d8e528261034e61055e565b5285519051906105dc565b61036161055e565b908152826103a8575b505050508252610164358452825199518a525160208a0152515190880152516060870152515160808601525160a08501525160c08401525190820152f35b6104359261042e926103da6103c4610426946101788b516106b9565b8d5190836103d061055e565b525190519061081c565b906103e361055e565b9182526103ee61055e565b52518d61040f6103fc61055e565b92620f424090818106855204825161081c565b90528b526104218751610144356106a6565b6106e7565b8093516105dc565b895161081c565b88528b528a8d808061036a565b8880fd5b5090346101ec5760a03660031901126101ec578235600781101561022d5761047d9060843590606435906044359060243590610739565b905191600782101561049157602083838152f35b634e487b7160e01b815260218452602490fd5b50913461022d57608036600319011261022d576024359283151584036101e957506020926104da9160643591604435913561084f565b9051908152f35b508290346101e957826003193601126101e957503561051b620f42406105126105093661059f565b610178856106b9565b510480926105dc565b82519182526020820152f35b60405190610100820182811067ffffffffffffffff82111761054857604052565b634e487b7160e01b600052604160045260246000fd5b604051906020820182811067ffffffffffffffff82111761054857604052565b60405190610120820182811067ffffffffffffffff82111761054857604052565b60209060231901126105bb576105b361055e565b906024358252565b600080fd5b60209060831901126105bb576105d461055e565b906084358252565b919082039182116105e957565b634e487b7160e01b600052601160045260246000fd5b92909192600061060d61055e565b52828110801561069c575b61068e5782610641938310610686575b508184821161067e575b61063b916105dc565b926105dc565b80158015610676575b61065a5761065791610707565b90565b5050600061066661055e565b5261066f61055e565b6000815290565b50811561064a565b849150610632565b915038610628565b50505050600061066661055e565b5083821015610618565b818102929181159184041417156105e957565b60006106c361055e565b52620f4240908181029181830414901517156105e9576106e161055e565b90815290565b81156106f1570490565b634e487b7160e01b600052601260045260246000fd5b90600061071261055e565b52620f4240918281029281840414901517156105e957610731916106e7565b6106e161055e565b929190926007811015806107a557600682149081156107bb575b8115610795575b5061078d575082101561076f57505050600090565b81101561077d575050600190565b101561078857600290565b600390565b935050505090565b90506107a557600581143861075a565b634e487b7160e01b600052602160045260246000fd5b5050600481146000610753565b6107d061057e565b9060008083526107de61055e565b81815260208401528060408401528060608401526107fa61055e565b81815260808401528060a08401528060c08401528060e0840152610100830152565b919082018092116105e957565b620f42409161084691600061083c61055e565b52519051906106a6565b046106e161055e565b909192801580156108a0575b6108995790610869916106a6565b901561088f57816108799161081c565b6000198101919082116105e957610657916106e7565b90610657916106e7565b5091505090565b50811561085b565b6108b0610527565b9060008083528060208401526108c461055e565b81815260408401528060608401526108da61055e565b81815260808401528060a08401528060c084015260e083015256fea2646970667358221220e24f5bf02494035a7d783691afd579d33f1c9b1861831fda4abbd16d4ee532ff64736f6c63430008140033",
  "linkReferences": {},
  "deployedLinkReferences": {}
}