{
  "_format": "hh-sol-artifact-1",
  "contractName": "Vesting",
  "sourceName": "contracts/Vesting.sol",
  "abi": [
    {
      "anonymous": false,
      "inputs": [
        {
          "indexed": true,
          "internalType": "address",
          "name": "beneficiary",
          "type": "address"
        },
        {
          "indexed": true,
          "internalType": "address",
          "name": "token",
          "type": "address"
        },
        {
          "indexed": false,
          "internalType": "uint256",
          "name": "totalAmount",
          "type": "uint256"
        },
        {
          "indexed": false,
          "internalType": "uint256",
          "name": "cliffTime",
          "type": "uint256"
        },
        {
          "indexed": false,
          "internalType": "uint256",
          "name": "endTime",
          "type": "uint256"
        }
      ],
      "name": "FundsStaked",
      "type": "event"
    },
    {
      "anonymous": false,
      "inputs": [
        {
          "indexed": true,
          "internalType": "address",
          "name": "beneficiary",
          "type": "address"
        },
        {
          "indexed": true,
          "internalType": "address",
          "name": "token",
          "type": "address"
        },
        {
          "indexed": false,
          "internalType": "uint256",
          "name": "scheduleIndex",
          "type": "uint256"
        },
        {
          "indexed": false,
          "internalType": "uint256",
          "name": "amount",
          "type": "uint256"
        }
      ],
      "name": "FundsWithdrawn",
      "type": "event"
    },
    {
      "inputs": [],
      "name": "getBlockTime",
      "outputs": [
        {
          "internalType": "uint256",
          "name": "",
          "type": "uint256"
        }
      ],
      "stateMutability": "view",
      "type": "function"
    },
    {
      "inputs": [
        {
          "internalType": "address",
          "name": "beneficiary",
          "type": "address"
        },
        {
          "internalType": "address",
          "name": "tokenAddress",
          "type": "address"
        }
      ],
      "name": "getStakesForBeneficiary",
      "outputs": [
        {
          "components": [
            {
              "internalType": "uint256",
              "name": "cliffTime",
              "type": "uint256"
            },
            {
              "internalType": "uint256",
              "name": "endTime",
              "type": "uint256"
            },
            {
              "internalType": "uint256",
              "name": "totalAmount",
              "type": "uint256"
            },
            {
              "internalType": "uint256",
              "name": "releasedAmount",
              "type": "uint256"
            }
          ],
          "internalType": "struct Vesting.VestingSchedule[]",
          "name": "",
          "type": "tuple[]"
        }
      ],
      "stateMutability": "view",
      "type": "function"
    },
    {
      "inputs": [
        {
          "internalType": "address",
          "name": "beneficiary",
          "type": "address"
        },
        {
          "internalType": "address",
          "name": "tokenAddress",
          "type": "address"
        },
        {
          "internalType": "uint256",
          "name": "cliffTime",
          "type": "uint256"
        },
        {
          "internalType": "uint256",
          "name": "endTime",
          "type": "uint256"
        },
        {
          "internalType": "uint256",
          "name": "totalAmount",
          "type": "uint256"
        }
      ],
      "name": "stakeFunds",
      "outputs": [],
      "stateMutability": "nonpayable",
      "type": "function"
    },
    {
      "inputs": [
        {
          "internalType": "address",
          "name": "tokenAddress",
          "type": "address"
        },
        {
          "internalType": "uint256",
          "name": "scheduleIndex",
          "type": "uint256"
        }
      ],
      "name": "withdrawFunds",
      "outputs": [],
      "stateMutability": "nonpayable",
      "type": "function"
    }
  ],
  "bytecode": "0x608080604052346100165761085e908161001c8239f35b600080fdfe60806040908082526004918236101561001757600080fd5b600091823560e01c90816325394c941461053a575080633d572640146102c857806387ceff09146102ae5763c10753291461005157600080fd5b346102aa57806003193601126102aa5761006961066c565b33835260208381528284206001600160a01b039092168085529181528284208054602494853594929392909185101561026f576100a6858561074d565b509283544210610222576100b9846107a2565b9283156101d657600385019384548181018091116101c4578555815163a9059cbb60e01b815233818d0152808a0182905283816044818e895af19081156101ba5791610134600297969594927f080a49aa43b33f2f3fe14496cbedde2305f0cc484e98afb78e943cf9881adc8a948e9161018d575b50610709565b8151938a85528401523392a3549101541461014d578380f35b906101579161074d565b93909361017d575050600382828094558260018201558260028201550155803880808380f35b634e487b7160e01b835282905281fd5b6101ad9150863d88116101b3575b6101a581836106cf565b8101906106f1565b3861012e565b503d61019b565b83513d8d823e3d90fd5b634e487b7160e01b8b5260118c52898bfd5b5162461bcd60e51b8152808a01919091526021818801527f4e6f2066756e647320617661696c61626c6520666f72207769746864726177616044820152601b60fa1b6064820152608490fd5b8860238860849386519362461bcd60e51b85528401528201527f46756e647320617265207374696c6c20696e2074686520636c696666207065726044820152621a5bd960ea1b6064820152fd5b815162461bcd60e51b815280890184905260168188015275092dcecc2d8d2c840e6c6d0cac8ead8ca40d2dcc8caf60531b6044820152606490fd5b5080fd5b50346102aa57816003193601126102aa5760209051428152f35b5082346105365760a0366003190112610536576102e361066c565b916102ec610687565b6084359160643591604435904282106104f357818411156104a65784156104545782516323b872dd60e01b81523387820152306024820152604481018690526001600160a01b03918216976020929183816064818e8e5af190811561044a579061035c918c9161042d5750610709565b1695868952888252838920888a528252838920845161037a8161069d565b8481528381018781528682019189835260608101938d85528054906801000000000000000082101561041a57906103b69160018201815561074d565b95909561040857505184555160018401555160028301555160039091015582519485528401528201527f1db04dfee373564c736f0f9c7f12ba28e6378cccea075c4c1754ecb4fd5c5ee090606090a380f35b634e487b7160e01b8e528d905260248dfd5b634e487b7160e01b8f526041875260248ffd5b6104449150853d87116101b3576101a581836106cf565b8c61012e565b86513d8d823e3d90fd5b825162461bcd60e51b8152602081880152602660248201527f546f74616c20616d6f756e74206d7573742062652067726561746572207468616044820152656e207a65726f60d01b6064820152608490fd5b825162461bcd60e51b8152602081880152602160248201527f456e642074696d65206d75737420626520616674657220636c6966662074696d6044820152606560f81b6064820152608490fd5b825162461bcd60e51b8152602081880181905260248201527f436c6966662074696d65206d75737420626520696e20746865206675747572656044820152606490fd5b8280fd5b838584923461053657836003193601126105365761055661066c565b61055e610687565b6001600160a01b039182168552602085815286862091909216855281528484208054909367ffffffffffffffff8211610659576105a483836005989695981b01846106cf565b8183528583018095855286852085915b848310610613575050505050845193808501918186525180925285850193925b8281106105e15785850386f35b8351805186528083015186840152878101518887015260609081015190860152608090940193928101926001016105d4565b83896001928c9b98999b516106278161069d565b8554815284860154838201528d60028701549082015260038601546060820152815201920192019190979594976105b4565b634e487b7160e01b865260419052602485fd5b600435906001600160a01b038216820361068257565b600080fd5b602435906001600160a01b038216820361068257565b6080810190811067ffffffffffffffff8211176106b957604052565b634e487b7160e01b600052604160045260246000fd5b90601f8019910116810190811067ffffffffffffffff8211176106b957604052565b90816020910312610682575180151581036106825790565b1561071057565b60405162461bcd60e51b8152602060048201526015602482015274151bdad95b881d1c985b9cd9995c8819985a5b1959605a1b6044820152606490fd5b80548210156107695760005260206000209060021b0190600090565b634e487b7160e01b600052603260045260246000fd5b9190820391821161078c57565b634e487b7160e01b600052601160045260246000fd5b80546107ae814261077f565b9060018301546107be828261077f565b83106107de5750505080600360026107db9301549101549061077f565b90565b906107e89161077f565b60028301548115610812570481810291818304149015171561078c5760036107db9201549061077f565b634e487b7160e01b600052601260045260246000fdfea2646970667358221220d5ee8334524625c022059bd9cfd9ec66157966e6c6ed6e2339e3a693deb4af5264736f6c63430008140033",
  "linkReferences": {},
  "deployedLinkReferences": {}
}