{
  "address": "0x8EF813d2017cd7eb7A815154c8A15de8A82e0ea2",
  "abi": [
    {
      "inputs": [
        {
          "internalType": "address",
          "name": "_uniswapV2Factory",
          "type": "address"
        },
        {
          "internalType": "address",
          "name": "_uniswapV2Router",
          "type": "address"
        }
      ],
      "stateMutability": "nonpayable",
      "type": "constructor"
    },
    {
      "inputs": [],
      "name": "DifferentTokensRequired",
      "type": "error"
    },
    {
      "inputs": [],
      "name": "InsufficientBalance",
      "type": "error"
    },
    {
      "inputs": [],
      "name": "InvalidAddress",
      "type": "error"
    },
    {
      "inputs": [],
      "name": "InvalidAmount",
      "type": "error"
    },
    {
      "inputs": [],
      "name": "PoolCreationFailed",
      "type": "error"
    },
    {
      "anonymous": false,
      "inputs": [
        {
          "indexed": true,
          "internalType": "address",
          "name": "previousOwner",
          "type": "address"
        },
        {
          "indexed": true,
          "internalType": "address",
          "name": "newOwner",
          "type": "address"
        }
      ],
      "name": "OwnershipTransferred",
      "type": "event"
    },
    {
      "anonymous": false,
      "inputs": [
        {
          "indexed": true,
          "internalType": "address",
          "name": "stream",
          "type": "address"
        },
        {
          "indexed": true,
          "internalType": "address",
          "name": "pool",
          "type": "address"
        },
        {
          "indexed": true,
          "internalType": "address",
          "name": "poolWrapper",
          "type": "address"
        },
        {
          "indexed": false,
          "internalType": "address",
          "name": "token0",
          "type": "address"
        },
        {
          "indexed": false,
          "internalType": "address",
          "name": "token1",
          "type": "address"
        },
        {
          "indexed": false,
          "internalType": "uint256",
          "name": "token0Amount",
          "type": "uint256"
        },
        {
          "indexed": false,
          "internalType": "uint256",
          "name": "token1Amount",
          "type": "uint256"
        }
      ],
      "name": "PoolCreated",
      "type": "event"
    },
    {
      "inputs": [],
      "name": "UNISWAP_V2_FACTORY",
      "outputs": [
        {
          "internalType": "address",
          "name": "",
          "type": "address"
        }
      ],
      "stateMutability": "view",
      "type": "function"
    },
    {
      "inputs": [],
      "name": "UNISWAP_V2_ROUTER",
      "outputs": [
        {
          "internalType": "address",
          "name": "",
          "type": "address"
        }
      ],
      "stateMutability": "view",
      "type": "function"
    },
    {
      "inputs": [
        {
          "components": [
            {
              "internalType": "address",
              "name": "token0",
              "type": "address"
            },
            {
              "internalType": "address",
              "name": "token1",
              "type": "address"
            },
            {
              "internalType": "uint256",
              "name": "amount0",
              "type": "uint256"
            },
            {
              "internalType": "uint256",
              "name": "amount1",
              "type": "uint256"
            }
          ],
          "internalType": "struct PoolWrapperTypes.CreatePoolMsg",
          "name": "createPoolMsg",
          "type": "tuple"
        }
      ],
      "name": "createPool",
      "outputs": [
        {
          "components": [
            {
              "internalType": "address",
              "name": "poolAddress",
              "type": "address"
            },
            {
              "internalType": "address",
              "name": "token0",
              "type": "address"
            },
            {
              "internalType": "address",
              "name": "token1",
              "type": "address"
            }
          ],
          "internalType": "struct PoolWrapperTypes.CreatedPoolInfo",
          "name": "",
          "type": "tuple"
        }
      ],
      "stateMutability": "nonpayable",
      "type": "function"
    },
    {
      "inputs": [
        {
          "internalType": "address",
          "name": "stream",
          "type": "address"
        }
      ],
      "name": "getPoolInfo",
      "outputs": [
        {
          "components": [
            {
              "internalType": "address",
              "name": "poolAddress",
              "type": "address"
            },
            {
              "internalType": "address",
              "name": "token0",
              "type": "address"
            },
            {
              "internalType": "address",
              "name": "token1",
              "type": "address"
            }
          ],
          "internalType": "struct PoolWrapperTypes.CreatedPoolInfo",
          "name": "",
          "type": "tuple"
        }
      ],
      "stateMutability": "view",
      "type": "function"
    },
    {
      "inputs": [],
      "name": "owner",
      "outputs": [
        {
          "internalType": "address",
          "name": "",
          "type": "address"
        }
      ],
      "stateMutability": "view",
      "type": "function"
    },
    {
      "inputs": [],
      "name": "renounceOwnership",
      "outputs": [],
      "stateMutability": "nonpayable",
      "type": "function"
    },
    {
      "inputs": [
        {
          "internalType": "address",
          "name": "",
          "type": "address"
        }
      ],
      "name": "streamPools",
      "outputs": [
        {
          "internalType": "address",
          "name": "poolAddress",
          "type": "address"
        },
        {
          "internalType": "address",
          "name": "token0",
          "type": "address"
        },
        {
          "internalType": "address",
          "name": "token1",
          "type": "address"
        }
      ],
      "stateMutability": "view",
      "type": "function"
    },
    {
      "inputs": [
        {
          "internalType": "address",
          "name": "newOwner",
          "type": "address"
        }
      ],
      "name": "transferOwnership",
      "outputs": [],
      "stateMutability": "nonpayable",
      "type": "function"
    }
  ],
  "transactionHash": "0x9bc28e39e8049a85f9ba6d0fe2ad2895ba796484dafc7ad59ea8aa2ae6072408",
  "args": [
    "0x7E0987E5b3a30e3f2828572Bb659A548460a3003",
    "0xC532a74256D3Db42D0Bf7a0400fEFDbad7694008"
  ],
  "numDeployments": 1,
  "solcInputHash": "f877331f615334fb5951804fa5553efb",
  "bytecode": "0x60c03461010457601f610bd638819003918201601f19168301916001600160401b0383118484101761010957808492604094855283398101031261010457610052602061004b8361011f565b920161011f565b60008054336001600160a01b03198216811783556040519394936001600160a01b039390928416907f8be0079c531659141344cd1fd0a4f28419497f9722a3daafe3b4186f6b6457e09080a3818316156100f557508216156100e35760805260a052604051610aa29081610134823960805181818161022d0152610791015260a05181818161031c01526107490152f35b60405163e6c4247b60e01b8152600490fd5b63e6c4247b60e01b8152600490fd5b600080fd5b634e487b7160e01b600052604160045260246000fd5b51906001600160a01b03821682036101045756fe60406080815260048036101561001457600080fd5b600091823560e01c806306bfa9381461089f57806312b4682214610842578063715018a6146107e85780638da5cb5b146107c057806399d8fae31461077c578063a82ed9ec14610734578063b8985b40146101445763f2fde38b1461007857600080fd5b34610140576020366003190112610140576001600160a01b0382358181169391929084900361013c576100a9610a14565b83156100ea57505082546001600160a01b0319811683178455167f8be0079c531659141344cd1fd0a4f28419497f9722a3daafe3b4186f6b6457e08380a380f35b906020608492519162461bcd60e51b8352820152602660248201527f4f776e61626c653a206e6577206f776e657220697320746865207a65726f206160448201526564647265737360d01b6064820152fd5b8480fd5b8280fd5b5082346107315760803660031901126107315761015f61098d565b506001600160a01b0390816101726109ac565b161561072257816101816109c7565b16156107225761018f6109ac565b82806101996109c7565b1691161461071357604435938415610705576064359081156106f757836101be6109ac565b1691855192836370a0823160e01b91828252308583015281602460209788935afa9081156106685790899187916106c2575b50106106b25783866102006109c7565b16916024895180948193825230888301525afa908115610639579082918691610681575b501061067257847f000000000000000000000000000000000000000000000000000000000000000016610294846102596109ac565b6102616109c7565b8a5163e6a4390560e01b81526001600160a01b039283168882019081529290911660208301529283918291604090910190565b0381855afa90811561066857869161064b575b50808716610643575096836102fe986102be6109ac565b906102c76109c7565b8a516364e329cb60e11b81526001600160a01b039384168882019081529390911660208401529a8b9283918a918391604090910190565b03925af197881561063957859861060a575b50858816156105fa575b7f00000000000000000000000000000000000000000000000000000000000000009083876103466109ac565b8a5163095ea7b360e01b8082526001600160a01b03871694820194855260208501869052939092899284928390036040019183918d91165af180156105f0576105d3575b5085886103956109c7565b8b519384526001600160a01b038616888501908152602081018890528492908390036040019183918c91165af180156105c95761059c575b506103d66109ac565b926103df6109c7565b9161012c42019283421161058957899461010494606097948b94888f958196519c8d9b8c9a62e8e33760e81b8c5216908a0152166024880152604487015260648601528360848601528360a48601528360c486015260e4850152165af191821561057f5783918493610545575b506104556109ac565b61045d6109c7565b9086888181519b61046d8d610939565b1697888c5282868d019416845282828d01951685523381526001865220818b5116926bffffffffffffffffffffffff60a01b9384835416178255826001830191511684825416179055600201925116908254161790556104cb6109ac565b946104d46109c7565b8188519716875216908501528484015260608301523091339060807fbc6f53152e9aa8c4c80947b978ba84ae6d4f83b9762aa13cddad1d22cf26d17391a45181516001600160a01b0390811682526020808401518216908301526040928301511691810191909152606090f35b0390f35b915091506060813d606011610577575b816105626060938361096b565b8101031261014057818151910151918761044c565b3d9150610555565b85513d85823e3d90fd5b634e487b7160e01b895260118752602489fd5b6105bb90863d88116105c2575b6105b3818361096b565b8101906109fc565b50896103cd565b503d6105a9565b89513d89823e3d90fd5b6105e990873d89116105c2576105b3818361096b565b508a61038a565b8a513d8a823e3d90fd5b86516337200b1d60e21b81528390fd5b61062b919850843d8611610632575b610623818361096b565b8101906109dd565b9688610310565b503d610619565b87513d87823e3d90fd5b90509661031a565b6106629150853d871161063257610623818361096b565b896102a7565b88513d88823e3d90fd5b508451631e9acf1760e31b8152fd5b809250858092503d83116106ab575b61069a818361096b565b8101031261013c5781905189610224565b503d610690565b8651631e9acf1760e31b81528390fd5b809250868092503d83116106f0575b6106db818361096b565b810103126106ec578890518a6101f0565b8580fd5b503d6106d1565b845163162908e360e11b8152fd5b835163162908e360e11b8152fd5b5050516351734ced60e01b8152fd5b50505163e6c4247b60e01b8152fd5b80fd5b838234610778578160031936011261077857517f00000000000000000000000000000000000000000000000000000000000000006001600160a01b03168152602090f35b5080fd5b838234610778578160031936011261077857517f00000000000000000000000000000000000000000000000000000000000000006001600160a01b03168152602090f35b838234610778578160031936011261077857905490516001600160a01b039091168152602090f35b8334610731578060031936011261073157610801610a14565b80546001600160a01b03198116825581906001600160a01b03167f8be0079c531659141344cd1fd0a4f28419497f9722a3daafe3b4186f6b6457e08280a380f35b509034610140576020366003190112610140576001600160a01b039190358281169081900361089b5783829160609552600160205220908282541692600281600185015416930154169181519384526020840152820152f35b8380fd5b509034610140576020366003190112610140576001600160a01b039190358281169081900361089b576105419382916108d661098d565b5081526001602052209160028251936108ee85610939565b828154168552826001820154166020860152015416818301525191829182919091604060608201938160018060a01b0391828151168552826020820151166020860152015116910152565b6060810190811067ffffffffffffffff82111761095557604052565b634e487b7160e01b600052604160045260246000fd5b90601f8019910116810190811067ffffffffffffffff82111761095557604052565b6040519061099a82610939565b60006040838281528260208201520152565b6004356001600160a01b03811681036109c25790565b600080fd5b6024356001600160a01b03811681036109c25790565b908160209103126109c257516001600160a01b03811681036109c25790565b908160209103126109c2575180151581036109c25790565b6000546001600160a01b03163303610a2857565b606460405162461bcd60e51b815260206004820152602060248201527f4f776e61626c653a2063616c6c6572206973206e6f7420746865206f776e65726044820152fdfea26469706673582212209f142e85781f1149112ee47706cc13ab4ba96b944006cdd715b0f9c10c9899a964736f6c63430008180033",
  "devdoc": {
    "kind": "dev",
    "methods": {
      "createPool((address,address,uint256,uint256))": {
        "params": {
          "createPoolMsg": "The parameters for pool creation and liquidity addition Callable by anyone"
        }
      },
      "getPoolInfo(address)": {
        "params": {
          "stream": "The stream address"
        }
      },
      "owner()": {
        "details": "Returns the address of the current owner."
      },
      "renounceOwnership()": {
        "details": "Leaves the contract without owner. It will not be possible to call `onlyOwner` functions. Can only be called by the current owner. NOTE: Renouncing ownership will leave the contract without an owner, thereby disabling any functionality that is only available to the owner."
      },
      "transferOwnership(address)": {
        "details": "Transfers ownership of the contract to a new account (`newOwner`). Can only be called by the current owner."
      }
    },
    "version": 1
  },
  "userdoc": {
    "kind": "user",
    "methods": {
      "createPool((address,address,uint256,uint256))": {
        "notice": "Creates a pool and adds liquidity"
      },
      "getPoolInfo(address)": {
        "notice": "Gets pool info for a stream"
      }
    },
    "version": 1
  },
  "storageLayout": {
    "storage": [
      {
        "astId": 7,
        "contract": "src/PoolWrapper.sol:PoolWrapper",
        "label": "_owner",
        "offset": 0,
        "slot": "0",
        "type": "t_address"
      },
      {
        "astId": 2000,
        "contract": "src/PoolWrapper.sol:PoolWrapper",
        "label": "streamPools",
        "offset": 0,
        "slot": "1",
        "type": "t_mapping(t_address,t_struct(CreatedPoolInfo)8010_storage)"
      }
    ],
    "types": {
      "t_address": {
        "encoding": "inplace",
        "label": "address",
        "numberOfBytes": "20"
      },
      "t_mapping(t_address,t_struct(CreatedPoolInfo)8010_storage)": {
        "encoding": "mapping",
        "key": "t_address",
        "label": "mapping(address => struct PoolWrapperTypes.CreatedPoolInfo)",
        "numberOfBytes": "32",
        "value": "t_struct(CreatedPoolInfo)8010_storage"
      },
      "t_struct(CreatedPoolInfo)8010_storage": {
        "encoding": "inplace",
        "label": "struct PoolWrapperTypes.CreatedPoolInfo",
        "members": [
          {
            "astId": 8005,
            "contract": "src/PoolWrapper.sol:PoolWrapper",
            "label": "poolAddress",
            "offset": 0,
            "slot": "0",
            "type": "t_address"
          },
          {
            "astId": 8007,
            "contract": "src/PoolWrapper.sol:PoolWrapper",
            "label": "token0",
            "offset": 0,
            "slot": "1",
            "type": "t_address"
          },
          {
            "astId": 8009,
            "contract": "src/PoolWrapper.sol:PoolWrapper",
            "label": "token1",
            "offset": 0,
            "slot": "2",
            "type": "t_address"
          }
        ],
        "numberOfBytes": "96"
      }
    }
  }
}