{
  "address": "0x1d0F5a71F1Ed972e312C1C72460d13ed81dF9E5c",
  "abi": [
    {
      "inputs": [
        {
          "internalType": "address",
          "name": "_streamFactoryAddress",
          "type": "address"
        }
      ],
      "stateMutability": "nonpayable",
      "type": "constructor"
    },
    {
      "inputs": [],
      "name": "InsufficientOutAmount",
      "type": "error"
    },
    {
      "inputs": [
        {
          "internalType": "uint256",
          "name": "requiredTokenAmount",
          "type": "uint256"
        },
        {
          "internalType": "uint256",
          "name": "tokenBalance",
          "type": "uint256"
        }
      ],
      "name": "InsufficientTokenPayment",
      "type": "error"
    },
    {
      "inputs": [],
      "name": "InvalidAmount",
      "type": "error"
    },
    {
      "inputs": [],
      "name": "InvalidExitCondition",
      "type": "error"
    },
    {
      "inputs": [],
      "name": "InvalidImplementationAddress",
      "type": "error"
    },
    {
      "inputs": [],
      "name": "InvalidInSupplyToken",
      "type": "error"
    },
    {
      "inputs": [],
      "name": "InvalidOutSupplyToken",
      "type": "error"
    },
    {
      "inputs": [
        {
          "internalType": "address",
          "name": "user",
          "type": "address"
        },
        {
          "internalType": "uint256",
          "name": "shares",
          "type": "uint256"
        },
        {
          "internalType": "uint256",
          "name": "exitDate",
          "type": "uint256"
        },
        {
          "internalType": "string",
          "name": "reason",
          "type": "string"
        }
      ],
      "name": "InvalidPosition",
      "type": "error"
    },
    {
      "inputs": [],
      "name": "InvalidStreamFactoryAddress",
      "type": "error"
    },
    {
      "inputs": [],
      "name": "InvalidVestingCliffDuration",
      "type": "error"
    },
    {
      "inputs": [],
      "name": "InvalidVestingDuration",
      "type": "error"
    },
    {
      "inputs": [],
      "name": "InvalidWithdrawAmount",
      "type": "error"
    },
    {
      "inputs": [],
      "name": "OperationNotAllowed",
      "type": "error"
    },
    {
      "inputs": [],
      "name": "PaymentFailed",
      "type": "error"
    },
    {
      "inputs": [],
      "name": "StreamFactoryAddressAlreadySet",
      "type": "error"
    },
    {
      "inputs": [],
      "name": "Unauthorized",
      "type": "error"
    },
    {
      "inputs": [
        {
          "internalType": "uint256",
          "name": "cap",
          "type": "uint256"
        }
      ],
      "name": "WithdrawAmountExceedsBalance",
      "type": "error"
    },
    {
      "anonymous": false,
      "inputs": [
        {
          "indexed": true,
          "internalType": "address",
          "name": "factory",
          "type": "address"
        },
        {
          "indexed": false,
          "internalType": "address[]",
          "name": "tokensAdded",
          "type": "address[]"
        },
        {
          "indexed": false,
          "internalType": "address[]",
          "name": "tokensRemoved",
          "type": "address[]"
        }
      ],
      "name": "AcceptedTokensUpdated",
      "type": "event"
    },
    {
      "anonymous": false,
      "inputs": [
        {
          "indexed": true,
          "internalType": "address",
          "name": "streamAddress",
          "type": "address"
        },
        {
          "indexed": true,
          "internalType": "address",
          "name": "subscriber",
          "type": "address"
        },
        {
          "indexed": false,
          "internalType": "uint256",
          "name": "refundedAmount",
          "type": "uint256"
        },
        {
          "indexed": false,
          "internalType": "uint256",
          "name": "exitTimestamp",
          "type": "uint256"
        }
      ],
      "name": "ExitRefunded",
      "type": "event"
    },
    {
      "anonymous": false,
      "inputs": [
        {
          "indexed": true,
          "internalType": "address",
          "name": "streamAddress",
          "type": "address"
        },
        {
          "indexed": true,
          "internalType": "address",
          "name": "subscriber",
          "type": "address"
        },
        {
          "indexed": false,
          "internalType": "uint256",
          "name": "purchased",
          "type": "uint256"
        },
        {
          "indexed": false,
          "internalType": "uint256",
          "name": "spentIn",
          "type": "uint256"
        },
        {
          "indexed": false,
          "internalType": "uint256",
          "name": "exitTimestamp",
          "type": "uint256"
        }
      ],
      "name": "ExitStreamed",
      "type": "event"
    },
    {
      "anonymous": false,
      "inputs": [
        {
          "indexed": true,
          "internalType": "address",
          "name": "factory",
          "type": "address"
        },
        {
          "indexed": false,
          "internalType": "address",
          "name": "streamImplementationAddress",
          "type": "address"
        },
        {
          "indexed": false,
          "internalType": "address",
          "name": "poolWrapperAddress",
          "type": "address"
        },
        {
          "indexed": false,
          "internalType": "address",
          "name": "feeCollector",
          "type": "address"
        },
        {
          "indexed": false,
          "internalType": "address",
          "name": "protocolAdmin",
          "type": "address"
        },
        {
          "indexed": false,
          "internalType": "address",
          "name": "streamCreationFeeToken",
          "type": "address"
        },
        {
          "indexed": false,
          "internalType": "uint256",
          "name": "streamCreationFee",
          "type": "uint256"
        },
        {
          "indexed": false,
          "internalType": "uint256",
          "name": "exitFeeRatio",
          "type": "uint256"
        },
        {
          "indexed": false,
          "internalType": "uint256",
          "name": "minWaitingDuration",
          "type": "uint256"
        },
        {
          "indexed": false,
          "internalType": "uint256",
          "name": "minBootstrappingDuration",
          "type": "uint256"
        },
        {
          "indexed": false,
          "internalType": "uint256",
          "name": "minStreamDuration",
          "type": "uint256"
        },
        {
          "indexed": false,
          "internalType": "string",
          "name": "tosVersion",
          "type": "string"
        },
        {
          "indexed": false,
          "internalType": "address",
          "name": "vestingAddress",
          "type": "address"
        }
      ],
      "name": "FactoryInitialized",
      "type": "event"
    },
    {
      "anonymous": false,
      "inputs": [
        {
          "indexed": true,
          "internalType": "address",
          "name": "factory",
          "type": "address"
        },
        {
          "indexed": false,
          "internalType": "address",
          "name": "newFeeCollector",
          "type": "address"
        }
      ],
      "name": "FeeCollectorUpdated",
      "type": "event"
    },
    {
      "anonymous": false,
      "inputs": [
        {
          "indexed": true,
          "internalType": "address",
          "name": "streamAddress",
          "type": "address"
        },
        {
          "indexed": true,
          "internalType": "address",
          "name": "creator",
          "type": "address"
        },
        {
          "indexed": false,
          "internalType": "uint256",
          "name": "refundedOutAmount",
          "type": "uint256"
        }
      ],
      "name": "FinalizedRefunded",
      "type": "event"
    },
    {
      "anonymous": false,
      "inputs": [
        {
          "indexed": true,
          "internalType": "address",
          "name": "streamAddress",
          "type": "address"
        },
        {
          "indexed": true,
          "internalType": "address",
          "name": "creator",
          "type": "address"
        },
        {
          "indexed": false,
          "internalType": "uint256",
          "name": "creatorRevenue",
          "type": "uint256"
        },
        {
          "indexed": false,
          "internalType": "uint256",
          "name": "exitFeeAmount",
          "type": "uint256"
        },
        {
          "indexed": false,
          "internalType": "uint256",
          "name": "refundedOutAmount",
          "type": "uint256"
        }
      ],
      "name": "FinalizedStreamed",
      "type": "event"
    },
    {
      "anonymous": false,
      "inputs": [
        {
          "indexed": true,
          "internalType": "address",
          "name": "factory",
          "type": "address"
        },
        {
          "indexed": false,
          "internalType": "bool",
          "name": "frozen",
          "type": "bool"
        }
      ],
      "name": "FrozenStateUpdated",
      "type": "event"
    },
    {
      "anonymous": false,
      "inputs": [
        {
          "indexed": true,
          "internalType": "address",
          "name": "factory",
          "type": "address"
        },
        {
          "indexed": false,
          "internalType": "uint256",
          "name": "streamCreationFee",
          "type": "uint256"
        },
        {
          "indexed": false,
          "internalType": "uint256",
          "name": "exitFeeRatio",
          "type": "uint256"
        },
        {
          "indexed": false,
          "internalType": "uint256",
          "name": "minWaitingDuration",
          "type": "uint256"
        },
        {
          "indexed": false,
          "internalType": "uint256",
          "name": "minBootstrappingDuration",
          "type": "uint256"
        },
        {
          "indexed": false,
          "internalType": "uint256",
          "name": "minStreamDuration",
          "type": "uint256"
        },
        {
          "indexed": false,
          "internalType": "string",
          "name": "tosVersion",
          "type": "string"
        }
      ],
      "name": "ParamsUpdated",
      "type": "event"
    },
    {
      "anonymous": false,
      "inputs": [
        {
          "indexed": true,
          "internalType": "address",
          "name": "factoryAddress",
          "type": "address"
        },
        {
          "indexed": false,
          "internalType": "address",
          "name": "poolWrapper",
          "type": "address"
        }
      ],
      "name": "PoolWrapperUpdated",
      "type": "event"
    },
    {
      "anonymous": false,
      "inputs": [
        {
          "indexed": true,
          "internalType": "address",
          "name": "streamAddress",
          "type": "address"
        },
        {
          "indexed": true,
          "internalType": "address",
          "name": "subscriber",
          "type": "address"
        },
        {
          "indexed": false,
          "internalType": "uint256",
          "name": "positionInBalance",
          "type": "uint256"
        },
        {
          "indexed": false,
          "internalType": "uint256",
          "name": "positionShares",
          "type": "uint256"
        },
        {
          "indexed": false,
          "internalType": "uint256",
          "name": "positionLastUpdateTime",
          "type": "uint256"
        },
        {
          "indexed": false,
          "internalType": "uint256",
          "name": "positionSpentIn",
          "type": "uint256"
        },
        {
          "indexed": false,
          "internalType": "uint256",
          "name": "positionPurchased",
          "type": "uint256"
        },
        {
          "indexed": false,
          "internalType": "uint256",
          "name": "positionIndex",
          "type": "uint256"
        }
      ],
      "name": "PositionSynced",
      "type": "event"
    },
    {
      "anonymous": false,
      "inputs": [
        {
          "indexed": true,
          "internalType": "address",
          "name": "factory",
          "type": "address"
        },
        {
          "indexed": false,
          "internalType": "address",
          "name": "newProtocolAdmin",
          "type": "address"
        }
      ],
      "name": "ProtocolAdminUpdated",
      "type": "event"
    },
    {
      "anonymous": false,
      "inputs": [
        {
          "indexed": true,
          "internalType": "address",
          "name": "streamAddress",
          "type": "address"
        },
        {
          "indexed": false,
          "internalType": "address",
          "name": "creator",
          "type": "address"
        },
        {
          "indexed": false,
          "internalType": "uint256",
          "name": "outSupply",
          "type": "uint256"
        },
        {
          "indexed": false,
          "internalType": "uint8",
          "name": "status",
          "type": "uint8"
        }
      ],
      "name": "StreamCancelled",
      "type": "event"
    },
    {
      "anonymous": false,
      "inputs": [
        {
          "indexed": true,
          "internalType": "address",
          "name": "streamFactoryAddress",
          "type": "address"
        },
        {
          "indexed": false,
          "internalType": "address",
          "name": "streamOutToken",
          "type": "address"
        },
        {
          "indexed": false,
          "internalType": "address",
          "name": "streamInToken",
          "type": "address"
        },
        {
          "indexed": false,
          "internalType": "address",
          "name": "streamAddress",
          "type": "address"
        },
        {
          "indexed": false,
          "internalType": "address",
          "name": "positionStorageAddress",
          "type": "address"
        },
        {
          "indexed": false,
          "internalType": "uint256",
          "name": "streamOutAmount",
          "type": "uint256"
        },
        {
          "indexed": false,
          "internalType": "uint256",
          "name": "bootstrappingStartTime",
          "type": "uint256"
        },
        {
          "indexed": false,
          "internalType": "uint256",
          "name": "streamStartTime",
          "type": "uint256"
        },
        {
          "indexed": false,
          "internalType": "uint256",
          "name": "streamEndTime",
          "type": "uint256"
        },
        {
          "indexed": false,
          "internalType": "uint256",
          "name": "threshold",
          "type": "uint256"
        },
        {
          "indexed": false,
          "internalType": "string",
          "name": "metadataIpfsHash",
          "type": "string"
        },
        {
          "indexed": false,
          "internalType": "string",
          "name": "tosVersion",
          "type": "string"
        },
        {
          "indexed": false,
          "internalType": "uint16",
          "name": "streamId",
          "type": "uint16"
        }
      ],
      "name": "StreamCreated",
      "type": "event"
    },
    {
      "anonymous": false,
      "inputs": [
        {
          "indexed": true,
          "internalType": "address",
          "name": "streamAddress",
          "type": "address"
        },
        {
          "indexed": false,
          "internalType": "uint256",
          "name": "lastUpdated",
          "type": "uint256"
        },
        {
          "indexed": false,
          "internalType": "uint256",
          "name": "distIndex",
          "type": "uint256"
        },
        {
          "indexed": false,
          "internalType": "uint256",
          "name": "outRemaining",
          "type": "uint256"
        },
        {
          "indexed": false,
          "internalType": "uint256",
          "name": "inSupply",
          "type": "uint256"
        },
        {
          "indexed": false,
          "internalType": "uint256",
          "name": "spentIn",
          "type": "uint256"
        },
        {
          "indexed": false,
          "internalType": "uint256",
          "name": "currentStreamedPrice",
          "type": "uint256"
        }
      ],
      "name": "StreamStateUpdated",
      "type": "event"
    },
    {
      "anonymous": false,
      "inputs": [
        {
          "indexed": true,
          "internalType": "address",
          "name": "streamAddress",
          "type": "address"
        },
        {
          "indexed": false,
          "internalType": "uint8",
          "name": "mainStatus",
          "type": "uint8"
        },
        {
          "indexed": false,
          "internalType": "uint256",
          "name": "lastUpdated",
          "type": "uint256"
        }
      ],
      "name": "StreamSynced",
      "type": "event"
    },
    {
      "anonymous": false,
      "inputs": [
        {
          "indexed": true,
          "internalType": "address",
          "name": "streamAddress",
          "type": "address"
        },
        {
          "indexed": false,
          "internalType": "uint256",
          "name": "lastUpdated",
          "type": "uint256"
        },
        {
          "indexed": false,
          "internalType": "uint8",
          "name": "newStatus",
          "type": "uint8"
        },
        {
          "indexed": false,
          "internalType": "uint256",
          "name": "distIndex",
          "type": "uint256"
        },
        {
          "indexed": false,
          "internalType": "uint256",
          "name": "outRemaining",
          "type": "uint256"
        },
        {
          "indexed": false,
          "internalType": "uint256",
          "name": "inSupply",
          "type": "uint256"
        },
        {
          "indexed": false,
          "internalType": "uint256",
          "name": "spentIn",
          "type": "uint256"
        },
        {
          "indexed": false,
          "internalType": "uint256",
          "name": "currentStreamedPrice",
          "type": "uint256"
        }
      ],
      "name": "StreamSynced",
      "type": "event"
    },
    {
      "anonymous": false,
      "inputs": [
        {
          "indexed": true,
          "internalType": "address",
          "name": "streamAddress",
          "type": "address"
        },
        {
          "indexed": true,
          "internalType": "address",
          "name": "subscriber",
          "type": "address"
        },
        {
          "indexed": false,
          "internalType": "uint256",
          "name": "positionInBalance",
          "type": "uint256"
        },
        {
          "indexed": false,
          "internalType": "uint256",
          "name": "positionShares",
          "type": "uint256"
        },
        {
          "indexed": false,
          "internalType": "uint256",
          "name": "positionLastUpdateTime",
          "type": "uint256"
        },
        {
          "indexed": false,
          "internalType": "uint256",
          "name": "positionSpentIn",
          "type": "uint256"
        },
        {
          "indexed": false,
          "internalType": "uint256",
          "name": "positionPurchased",
          "type": "uint256"
        },
        {
          "indexed": false,
          "internalType": "uint256",
          "name": "positionIndex",
          "type": "uint256"
        },
        {
          "indexed": false,
          "internalType": "uint256",
          "name": "streamInSupply",
          "type": "uint256"
        },
        {
          "indexed": false,
          "internalType": "uint256",
          "name": "streamShares",
          "type": "uint256"
        }
      ],
      "name": "Subscribed",
      "type": "event"
    },
    {
      "anonymous": false,
      "inputs": [
        {
          "indexed": true,
          "internalType": "address",
          "name": "factoryAddress",
          "type": "address"
        },
        {
          "indexed": false,
          "internalType": "address",
          "name": "vestingContract",
          "type": "address"
        }
      ],
      "name": "VestingContractDeployed",
      "type": "event"
    },
    {
      "anonymous": false,
      "inputs": [
        {
          "indexed": true,
          "internalType": "address",
          "name": "streamAddress",
          "type": "address"
        },
        {
          "indexed": true,
          "internalType": "address",
          "name": "subscriber",
          "type": "address"
        },
        {
          "indexed": false,
          "internalType": "uint256",
          "name": "positionInBalance",
          "type": "uint256"
        },
        {
          "indexed": false,
          "internalType": "uint256",
          "name": "positionShares",
          "type": "uint256"
        },
        {
          "indexed": false,
          "internalType": "uint256",
          "name": "positionLastUpdateTime",
          "type": "uint256"
        },
        {
          "indexed": false,
          "internalType": "uint256",
          "name": "positionSpentIn",
          "type": "uint256"
        },
        {
          "indexed": false,
          "internalType": "uint256",
          "name": "positionPurchased",
          "type": "uint256"
        },
        {
          "indexed": false,
          "internalType": "uint256",
          "name": "positionIndex",
          "type": "uint256"
        },
        {
          "indexed": false,
          "internalType": "uint256",
          "name": "streamInSupply",
          "type": "uint256"
        },
        {
          "indexed": false,
          "internalType": "uint256",
          "name": "streamShares",
          "type": "uint256"
        }
      ],
      "name": "Withdrawn",
      "type": "event"
    },
    {
      "inputs": [],
      "name": "cancelStream",
      "outputs": [],
      "stateMutability": "nonpayable",
      "type": "function"
    },
    {
      "inputs": [],
      "name": "cancelWithAdmin",
      "outputs": [],
      "stateMutability": "nonpayable",
      "type": "function"
    },
    {
      "inputs": [],
      "name": "creator",
      "outputs": [
        {
          "internalType": "address",
          "name": "",
          "type": "address"
        }
      ],
      "stateMutability": "view",
      "type": "function"
    },
    {
      "inputs": [],
      "name": "exitStream",
      "outputs": [],
      "stateMutability": "nonpayable",
      "type": "function"
    },
    {
      "inputs": [],
      "name": "finalizeStream",
      "outputs": [],
      "stateMutability": "nonpayable",
      "type": "function"
    },
    {
      "inputs": [
        {
          "internalType": "address",
          "name": "user",
          "type": "address"
        }
      ],
      "name": "getPosition",
      "outputs": [
        {
          "components": [
            {
              "internalType": "uint256",
              "name": "inBalance",
              "type": "uint256"
            },
            {
              "internalType": "uint256",
              "name": "shares",
              "type": "uint256"
            },
            {
              "components": [
                {
                  "internalType": "uint256",
                  "name": "value",
                  "type": "uint256"
                }
              ],
              "internalType": "struct Decimal",
              "name": "index",
              "type": "tuple"
            },
            {
              "internalType": "uint256",
              "name": "lastUpdateTime",
              "type": "uint256"
            },
            {
              "components": [
                {
                  "internalType": "uint256",
                  "name": "value",
                  "type": "uint256"
                }
              ],
              "internalType": "struct Decimal",
              "name": "pendingReward",
              "type": "tuple"
            },
            {
              "internalType": "uint256",
              "name": "spentIn",
              "type": "uint256"
            },
            {
              "internalType": "uint256",
              "name": "purchased",
              "type": "uint256"
            },
            {
              "internalType": "uint256",
              "name": "exitDate",
              "type": "uint256"
            }
          ],
          "internalType": "struct PositionTypes.Position",
          "name": "",
          "type": "tuple"
        }
      ],
      "stateMutability": "view",
      "type": "function"
    },
    {
      "inputs": [],
      "name": "getStreamState",
      "outputs": [
        {
          "components": [
            {
              "internalType": "uint256",
              "name": "outRemaining",
              "type": "uint256"
            },
            {
              "components": [
                {
                  "internalType": "uint256",
                  "name": "value",
                  "type": "uint256"
                }
              ],
              "internalType": "struct Decimal",
              "name": "distIndex",
              "type": "tuple"
            },
            {
              "internalType": "uint256",
              "name": "spentIn",
              "type": "uint256"
            },
            {
              "internalType": "uint256",
              "name": "shares",
              "type": "uint256"
            },
            {
              "components": [
                {
                  "internalType": "uint256",
                  "name": "value",
                  "type": "uint256"
                }
              ],
              "internalType": "struct Decimal",
              "name": "currentStreamedPrice",
              "type": "tuple"
            },
            {
              "internalType": "uint256",
              "name": "threshold",
              "type": "uint256"
            },
            {
              "internalType": "uint256",
              "name": "inSupply",
              "type": "uint256"
            },
            {
              "internalType": "uint256",
              "name": "outSupply",
              "type": "uint256"
            },
            {
              "internalType": "uint256",
              "name": "lastUpdated",
              "type": "uint256"
            }
          ],
          "internalType": "struct StreamTypes.StreamState",
          "name": "",
          "type": "tuple"
        }
      ],
      "stateMutability": "view",
      "type": "function"
    },
    {
      "inputs": [],
      "name": "getStreamStatus",
      "outputs": [
        {
          "internalType": "enum StreamTypes.Status",
          "name": "",
          "type": "uint8"
        }
      ],
      "stateMutability": "view",
      "type": "function"
    },
    {
      "inputs": [
        {
          "components": [
            {
              "internalType": "uint256",
              "name": "streamOutAmount",
              "type": "uint256"
            },
            {
              "internalType": "address",
              "name": "outSupplyToken",
              "type": "address"
            },
            {
              "internalType": "uint256",
              "name": "bootstrappingStartTime",
              "type": "uint256"
            },
            {
              "internalType": "uint256",
              "name": "streamStartTime",
              "type": "uint256"
            },
            {
              "internalType": "uint256",
              "name": "streamEndTime",
              "type": "uint256"
            },
            {
              "internalType": "uint256",
              "name": "threshold",
              "type": "uint256"
            },
            {
              "components": [
                {
                  "internalType": "string",
                  "name": "ipfsHash",
                  "type": "string"
                }
              ],
              "internalType": "struct StreamTypes.StreamMetadata",
              "name": "metadata",
              "type": "tuple"
            },
            {
              "internalType": "address",
              "name": "inSupplyToken",
              "type": "address"
            },
            {
              "internalType": "address",
              "name": "creator",
              "type": "address"
            },
            {
              "components": [
                {
                  "internalType": "bool",
                  "name": "isVestingEnabled",
                  "type": "bool"
                },
                {
                  "internalType": "uint32",
                  "name": "vestingDuration",
                  "type": "uint32"
                },
                {
                  "internalType": "uint32",
                  "name": "cliffDuration",
                  "type": "uint32"
                }
              ],
              "internalType": "struct StreamTypes.VestingInfo",
              "name": "creatorVesting",
              "type": "tuple"
            },
            {
              "components": [
                {
                  "internalType": "bool",
                  "name": "isVestingEnabled",
                  "type": "bool"
                },
                {
                  "internalType": "uint32",
                  "name": "vestingDuration",
                  "type": "uint32"
                },
                {
                  "internalType": "uint32",
                  "name": "cliffDuration",
                  "type": "uint32"
                }
              ],
              "internalType": "struct StreamTypes.VestingInfo",
              "name": "beneficiaryVesting",
              "type": "tuple"
            },
            {
              "components": [
                {
                  "internalType": "uint256",
                  "name": "poolOutSupplyAmount",
                  "type": "uint256"
                }
              ],
              "internalType": "struct StreamTypes.PoolInfo",
              "name": "poolInfo",
              "type": "tuple"
            },
            {
              "internalType": "bytes32",
              "name": "salt",
              "type": "bytes32"
            },
            {
              "internalType": "string",
              "name": "tosVersion",
              "type": "string"
            }
          ],
          "internalType": "struct StreamTypes.createStreamMessage",
          "name": "createStreamMessage",
          "type": "tuple"
        },
        {
          "internalType": "address",
          "name": "_positionStorageAddress",
          "type": "address"
        }
      ],
      "name": "initialize",
      "outputs": [],
      "stateMutability": "nonpayable",
      "type": "function"
    },
    {
      "inputs": [],
      "name": "positionStorageAddress",
      "outputs": [
        {
          "internalType": "address",
          "name": "",
          "type": "address"
        }
      ],
      "stateMutability": "view",
      "type": "function"
    },
    {
      "inputs": [],
      "name": "postStreamActions",
      "outputs": [
        {
          "components": [
            {
              "internalType": "uint256",
              "name": "poolOutSupplyAmount",
              "type": "uint256"
            }
          ],
          "internalType": "struct StreamTypes.PoolInfo",
          "name": "poolInfo",
          "type": "tuple"
        },
        {
          "components": [
            {
              "internalType": "bool",
              "name": "isVestingEnabled",
              "type": "bool"
            },
            {
              "internalType": "uint32",
              "name": "vestingDuration",
              "type": "uint32"
            },
            {
              "internalType": "uint32",
              "name": "cliffDuration",
              "type": "uint32"
            }
          ],
          "internalType": "struct StreamTypes.VestingInfo",
          "name": "creatorVesting",
          "type": "tuple"
        },
        {
          "components": [
            {
              "internalType": "bool",
              "name": "isVestingEnabled",
              "type": "bool"
            },
            {
              "internalType": "uint32",
              "name": "vestingDuration",
              "type": "uint32"
            },
            {
              "internalType": "uint32",
              "name": "cliffDuration",
              "type": "uint32"
            }
          ],
          "internalType": "struct StreamTypes.VestingInfo",
          "name": "beneficiaryVesting",
          "type": "tuple"
        }
      ],
      "stateMutability": "view",
      "type": "function"
    },
    {
      "inputs": [],
      "name": "streamMetadata",
      "outputs": [
        {
          "internalType": "string",
          "name": "ipfsHash",
          "type": "string"
        }
      ],
      "stateMutability": "view",
      "type": "function"
    },
    {
      "inputs": [],
      "name": "streamState",
      "outputs": [
        {
          "internalType": "uint256",
          "name": "outRemaining",
          "type": "uint256"
        },
        {
          "components": [
            {
              "internalType": "uint256",
              "name": "value",
              "type": "uint256"
            }
          ],
          "internalType": "struct Decimal",
          "name": "distIndex",
          "type": "tuple"
        },
        {
          "internalType": "uint256",
          "name": "spentIn",
          "type": "uint256"
        },
        {
          "internalType": "uint256",
          "name": "shares",
          "type": "uint256"
        },
        {
          "components": [
            {
              "internalType": "uint256",
              "name": "value",
              "type": "uint256"
            }
          ],
          "internalType": "struct Decimal",
          "name": "currentStreamedPrice",
          "type": "tuple"
        },
        {
          "internalType": "uint256",
          "name": "threshold",
          "type": "uint256"
        },
        {
          "internalType": "uint256",
          "name": "inSupply",
          "type": "uint256"
        },
        {
          "internalType": "uint256",
          "name": "outSupply",
          "type": "uint256"
        },
        {
          "internalType": "uint256",
          "name": "lastUpdated",
          "type": "uint256"
        }
      ],
      "stateMutability": "view",
      "type": "function"
    },
    {
      "inputs": [],
      "name": "streamStatus",
      "outputs": [
        {
          "internalType": "enum StreamTypes.Status",
          "name": "",
          "type": "uint8"
        }
      ],
      "stateMutability": "view",
      "type": "function"
    },
    {
      "inputs": [],
      "name": "streamTimes",
      "outputs": [
        {
          "internalType": "uint256",
          "name": "bootstrappingStartTime",
          "type": "uint256"
        },
        {
          "internalType": "uint256",
          "name": "streamStartTime",
          "type": "uint256"
        },
        {
          "internalType": "uint256",
          "name": "streamEndTime",
          "type": "uint256"
        }
      ],
      "stateMutability": "view",
      "type": "function"
    },
    {
      "inputs": [],
      "name": "streamTokens",
      "outputs": [
        {
          "internalType": "address",
          "name": "inSupplyToken",
          "type": "address"
        },
        {
          "internalType": "address",
          "name": "outSupplyToken",
          "type": "address"
        }
      ],
      "stateMutability": "view",
      "type": "function"
    },
    {
      "inputs": [
        {
          "internalType": "uint256",
          "name": "amountIn",
          "type": "uint256"
        }
      ],
      "name": "subscribe",
      "outputs": [],
      "stateMutability": "payable",
      "type": "function"
    },
    {
      "inputs": [
        {
          "internalType": "address",
          "name": "user",
          "type": "address"
        }
      ],
      "name": "syncPositionExternal",
      "outputs": [],
      "stateMutability": "nonpayable",
      "type": "function"
    },
    {
      "inputs": [],
      "name": "syncStreamExternal",
      "outputs": [],
      "stateMutability": "nonpayable",
      "type": "function"
    },
    {
      "inputs": [
        {
          "internalType": "uint256",
          "name": "cap",
          "type": "uint256"
        }
      ],
      "name": "withdraw",
      "outputs": [],
      "stateMutability": "nonpayable",
      "type": "function"
    }
  ],
  "transactionHash": "0xe203ddf32aef463112bea58b57a1e9751438c6bea649adb96846807883903d2b",
  "args": [
    "0xdDACdace6f2aEFbD277Bf54E30DF0eeA3216b268"
  ],
  "numDeployments": 1,
  "solcInputHash": "6587d92f5ffbcae7e2f551bb58430f5e",
  "bytecode": "0x60a03461008157601f62002e1738819003918201601f19168301916001600160401b038311848410176100865780849260209460405283398101031261008157516001600160a01b038116810361008157608052604051612d7a90816200009d82396080518181816102cd01528181610867015281816117d901526121d30152f35b600080fd5b634e487b7160e01b600052604160045260246000fdfe608080604052600436101561001357600080fd5b600090813560e01c90816302d05d3f146118e757508063039054741461108f5780630bcc8eba146117ab5780630e5634df146116b05780630f574ba71461151357806316c19739146114e15780632ae4e931146114685780632e1a7d4d1461128f57806334793e05146111b35780636b330b79146110eb5780638a03764f146110b9578063af5c3ac41461108f578063bdf4a94714610fd0578063c0ae398c14610f4e578063cbf0641514610eaa578063d08452c214610e77578063e427d08c14610e4e578063e9a9e14414610d84578063f69e8fba146108345763f920fc09146100fd57600080fd5b346108295760031990604036830112610829576001600160401b036004351161082957610240826004353603011261082957604051916101c083018381106001600160401b0382111761066a57604052600435600401358352610164602460043501611a64565b602084015260043560448101356040850152606481013560608501526084810135608085015260a481013560a085015260c401356001600160401b038111610830576020906004350191823603011261082557604051906101c48261196e565b60048101356001600160401b03811161082c576101e691369101600401611b15565b815260c08301526101fb60e460043501611a64565b60e083015261020f61010460043501611a64565b6101008301526102253661012460043501611b6d565b61012083015261023b3661018460043501611b6d565b610140830152602060043536036101e31901126108295760405161025e8161196e565b6101e460043501358152610160830152610204600435013561018083015261022460043501356001600160401b038111610825576102a3906004369181350101611b15565b6101a08301526024356001600160a01b0381168103610820576001549060ff8260a01c1661080f577f00000000000000000000000000000000000000000000000000000000000000006001600160a01b0316330361080f5760208401516103149033906001600160a01b03166126e7565b156107fd5761034361032e85516101608701515190611bb9565b602086015130906001600160a01b03166127d0565b156107eb57610120840151805161075c575b5061014084015180516106a9575b506101608401515180610680575b506001600160a01b039081166001600160a01b0319928316176001556101008401518354911691161781556040516000906103ab8161196e565b526040516103b88161196e565b6000815282519060006040516103cd8161196e565b526040516103da8161196e565b6000815260a0850151918551936040516103f3816119b7565b8181528260208201528660408201528660608201528360808201528460a08201528660c08201528560e082015261010042910152600255516003558360045583600555516006556007558160085560095542600a5560018060a01b0360e08301511660018060a01b0360208401511690604051604081018181106001600160401b0382111761066a57839160209160405283815201526bffffffffffffffffffffffff60a01b600b541617600b556bffffffffffffffffffffffff60a01b600c541617600c5560c0820151519182516001600160401b038111610656576104db600d54611934565b601f81116105f3575b506020601f821160011461057257839482939492610567575b50508160011b916000199060031b1c191617600d555b60ff19600e5416600e556040810151906080606082015191015191826040805161053c81611989565b838152602081018590520152600f556010556011556001805460ff60a01b1916600160a01b17905580f35b0151905038806104fd565b600d84527fd7b6990105719101dabeb77144f2a3385c8033acd3af97e9423a695e81ad1eb590601f198316855b8181106105db575095836001959697106105c2575b505050811b01600d55610513565b015160001960f88460031b161c191690553880806105b4565b9192602060018192868b01518155019401920161059f565b600d84527fd7b6990105719101dabeb77144f2a3385c8033acd3af97e9423a695e81ad1eb5601f830160051c8101916020841061064c575b601f0160051c01905b81811061064157506104e4565b848155600101610634565b909150819061062b565b634e487b7160e01b83526041600452602483fd5b634e487b7160e01b600052604160045260246000fd5b845110610697576101608401515160125538610371565b60405163162908e360e11b8152600490fd5b6020015163ffffffff161561074a5763ffffffff6040610140860151015116156107385761014084015163ffffffff60208160408401511692015116111561073857610140840151805115159060145460ff68ffffffff0000000000604064ffffffff00602086015160081b1694015160281b1693169068ffffffffffffffffff191617171760145538610363565b604051632676310d60e11b8152600490fd5b604051632b39f6cb60e01b8152600490fd5b6020015163ffffffff161561074a5763ffffffff6040610120860151015116156107385761012084015163ffffffff60208160408401511692015116111561073857610120840151805115159060135460ff68ffffffff0000000000604064ffffffff00602086015160081b1694015160281b1693169068ffffffffffffffffff191617171760135538610355565b6040516357084d7360e11b8152600490fd5b6040516372146d6160e11b8152600490fd5b6040516282b42960e81b8152600490fd5b600080fd5b5080fd5b80fd5b8380fd5b8280fd5b503461082957806003193601126108295761084d612417565b604051635e615a6b60e01b80825291906001600160a01b037f00000000000000000000000000000000000000000000000000000000000000008116918381600481865afa908115610d79578491610d5f575b506108b860ff600e54166108b16125e9565b42916126cc565b926108e66040516108c8816119ef565b6001815260209586368184013760036108e083611bf5565b52611dfb565b6108f66108f161242b565b611c89565b9361090a8560a06040820151910151111590565b15610cff579061094383928560c061094e9601511698610959604086015160408a015190620f424095869161093e846129de565b612b9c565b510497888092611e5b565b9b89600b5416612899565b6012549283610aeb575b505050505060ff60135416600014610ac85760135461099a63ffffffff61098f818460281c1642611bb9565b9260081c1642611bb9565b9184875416908561012081600b541692015116916109b98a8484612899565b823b15610ac45760405162f55c9960e61b81526001600160a01b039182166004820152911660248201526044810192909252606482019290925260848101879052908590829060a490829084905af18015610ab957610a9e575b5090610a7d91610a8294955b7f16d1e1ee4b51bbfbf5d46884cac3a98f673074103d40dfae8a99e5b51457b7d2600593865180610a85575b5088541692865190610a756040519283923096846040919493926060820195825260208201520152565b0390a3611bdc565b612627565b80f35b610a989082600c5416838c541690612899565b38610a4b565b90610a8294610ab0610a7d94936119a4565b94509091610a13565b6040513d87823e3d90fd5b8880fd5b5090610a7d9185610ae6610a82969784600b5416858a541690612899565b610a1f565b610af984959b9293946129de565b610b046009546129de565b908b604051610b128161196e565b52519082820291808304841490151715610ceb57610b39610b5a9392610b51925190612a14565b60405190610b468261196e565b815261093e856129de565b51048092611e5b565b9987600b5416908a89600c54169460046040518094819382525afa908115610ce0578991610140918d91610cbe575b5001511693604051608081018181106001600160401b03821117610caa57604090815283825282820186815281830186815260608085018b815293516302e2616d60e61b815294518e16600486015291518d16602485015251604484015290516064830152816084818f8a5af18015610c9f57610c23575b5050839291610c199594610c1492612899565b612899565b3880808080610963565b6060813d8211610c97575b81610c3b60609383611a0a565b81010312610c935794610c1492819594926040610c8381610c199b9a815194610c6386611989565b610c6c82611f49565b8652610c79818301611f49565b9086015201611f49565b9101529250949581939450610c01565b8b80fd5b3d9150610c2e565b6040513d8e823e3d90fd5b634e487b7160e01b8d52604160045260248dfd5b610cda91503d808f833e610cd28183611a0a565b810190611f7b565b38610b89565b6040513d8d823e3d90fd5b634e487b7160e01b8c52601160045260248cfd5b915050610a82939450610a7d916004917f3f3e233ce59fa3e5f0b479b323538988fd213fa8f3007a95ff330489bf5d40a682600c541692610d4b818a54169460e0890195865191612899565b8854169251916040519283523092a3611bdc565b610d7391503d8086833e610cd28183611a0a565b3861089f565b6040513d86823e3d90fd5b5034610829578060031936011261082957610d9d612417565b610dd3610db160ff600e54166108b16125e9565b60405190610dbe826119ef565b6001825260203681840137836108e083611bf5565b600c5481546009546001600160a01b0392610df2928416908416612899565b600e8054600660ff199091168117909155825460095460408051949092166001600160a01b03168452602084015282015230907febb55ea32d517c9ec85f61357977ac73b84e65ebeaedb528ed791d7e25e30a2b90606090a280f35b50346108295780600319360112610829576001546040516001600160a01b039091168152602090f35b5034610829578060031936011261082957600b54600c54604080516001600160a01b039384168152919092166020820152f35b5034610829578060031936011261082957610a82610ec7336124ff565b610ed13382611e68565b610f48610efa610ee26108f161242b565b926020840151606085015160c0860151914293612c5b565b91610a7d610f1760ff600e54164290610f116125e9565b906126cc565b610f3d610f2d8460a06040820151910151111590565b86610f36611ac5565b91846120ae565b4260e0860152611bdc565b33612670565b5034610829578060031936011261082957610120600254604051610f718161196e565b6003548152600454600554604051610f888161196e565b6006548152600754906008549260095494600a54966040519889525160208901526040880152606087015251608086015260a085015260c084015260e0830152610100820152f35b503461082957806003193601126108295760e0604051610fef8161196e565b601254815261108d60405161100381611989565b60135460ff81161515825263ffffffff90818160081c16602084015260281c166040820152611064611033611ac5565b916040519451855260208501906040908051151583528163ffffffff91826020820151166020860152015116910152565b805115156080840152602081015163ffffffff90811660a08501526040909101511660c0830152565bf35b50346108295780600319360112610829576110b560ff600e54166040519182918261190b565b0390f35b5034610829578060031936011261082957600f5460105460115460408051938452602084019290925290820152606090f35b503461082957602036600319011261082957611105611a4e565b61110e816124ff565b6111188282611e68565b611134611129610ee26108f161242b565b91610a7d8385612670565b805160208083015160608085015160a08087015160c0808901516040998a0151518a51998a5297890196909652978701929092529185015260808401919091528201526001600160a01b039092169130917f776f4c645ad4c2525f2c0862f3c0e3841c03f4fc680c1ceb4ab41b9eadccc4d19190819081015b0390a380f35b50346108295780600319360112610829576111cc61242b565b6111f86111e06111da6125e9565b92611c89565b916111ea83612627565b60ff600e54169042916126cc565b61120181611bdc565b61010082015191600782101561127b57602081015151815160c08301519160ff60806040860151950151519560405197885216602087015260408601526060850152608084015260a083015260c08201527f9a6ce334816e7b4b0cea88e41f3c652ec2e8064e2663e98f6d94d5ed90bc569060e03092a280f35b634e487b7160e01b84526021600452602484fd5b50346108295760208060031936011261082557600435906112af82611e54565b6112b8336124ff565b6112c23382611e68565b61130d6112d06111ea6125e9565b6113086040516112df81611989565b600281526040368783013760026112f582611bf5565b52600161130182611c18565b5282611dfb565b611bdc565b6113186108f161242b565b928284015190611338606086019283519460c08801954292875192612c5b565b948551821161144f577fca17ddd98e8725ab2aa1c70d19c5d777d10bd61a64e2525cf7ead7fe7f1ec2079392916113bd6113d09288518314600014611436576113b1888a0151985b8a019861138e818b51611e5b565b8a5261139b858c51611e5b565b8b526113a8858951611e5b565b88528651611e5b565b8552610a7d8933612670565b600b5433906001600160a01b0316612899565b6111ad855194519560608101519260a082015194604060c0840151930151519051915192604051968796339b309b8994919260e0969399989794919961010087019a8752602087015260408601526060850152608084015260a083015260c08201520152565b6113b161144987518a8c01519086612c15565b98611380565b6040516318928cbf60e31b815260048101839052602490fd5b503461082957806003193601126108295761012061148461242b565b604051908051825260208101515160208301526040810151604083015260608101516060830152608081015151608083015260a081015160a083015260c081015160c083015260e081015160e08301526101008091015190820152f35b503461082957602036600319011261082957610100611506611501611a4e565b6124ff565b61108d6040518092611a78565b5060203660031901126108295760043561152c81611e54565b61157261154060ff600e54166108b16125e9565b61130860405161154f81611989565b600281526040366020830137600161156682611bf5565b52600261130182611c18565b61157d6108f161242b565b611586336124ff565b906020810151916115a7606083019384519260c08501934292855192612c5b565b926115c08560018060a01b03600b54163090339061292f565b1561169e5761163a7fac20383bc611fb24ecfa942ed37ae8648074130276759a168535c23c5cf026c3936116216115fb85518551908a612be8565b97611607818951611bb9565b8852602088016116188a8251611bb9565b90528551611bb9565b845261162e878451611bb9565b8352610a7d8633612670565b6111ad84519460608101519260a082015194604060c0840151930151519051915192604051968796339b309b8994919260e0969399989794919961010087019a8752602087015260408601526060850152608084015260a083015260c08201520152565b6040516307a4ced160e51b8152600490fd5b50346108295780600319360112610829576040518190600d54926116d384611934565b8083526020809581850193600191828116908160001461178b5750600114611732575b50505050611708826040940383611a0a565b6117248351948593818552519283809286015285850190611a2b565b601f01601f19168101030190f35b92919550600d83527fd7b6990105719101dabeb77144f2a3385c8033acd3af97e9423a695e81ad1eb55b82841061177857505050820190920191611708846040846116f6565b805486850188015292860192810161175c565b60ff1916865250505090151560051b8301019250611708846040846116f6565b5034610829578060031936011261082957604051635e615a6b60e01b81526001600160a01b039082816004817f000000000000000000000000000000000000000000000000000000000000000086165afa9081156118dc57829160e09185916118c2575b50015116330361080f5761182a60ff600e54166108b16125e9565b60405190608082018281106001600160401b038211176118ae576040526003825260603660208401378361185d83611bf5565b52600161186983611c18565b5281516002101561189a57906118859160026060830152611dfb565b610df281600c54168284541660095491612899565b634e487b7160e01b84526032600452602484fd5b634e487b7160e01b85526041600452602485fd5b6118d691503d8087833e610cd28183611a0a565b3861180f565b6040513d85823e3d90fd5b90503461082557816003193601126108255790546001600160a01b03168152602090f35b91906020830192600782101561191e5752565b634e487b7160e01b600052602160045260246000fd5b90600182811c92168015611964575b602083101461194e57565b634e487b7160e01b600052602260045260246000fd5b91607f1691611943565b602081019081106001600160401b0382111761066a57604052565b606081019081106001600160401b0382111761066a57604052565b6001600160401b03811161066a57604052565b61012081019081106001600160401b0382111761066a57604052565b61010081019081106001600160401b0382111761066a57604052565b604081019081106001600160401b0382111761066a57604052565b90601f801991011681019081106001600160401b0382111761066a57604052565b60005b838110611a3e5750506000910152565b8181015183820152602001611a2e565b600435906001600160a01b038216820361082057565b35906001600160a01b038216820361082057565b60e080918051845260208101516020850152604081015151604085015260608101516060850152608081015151608085015260a081015160a085015260c081015160c08501520151910152565b60405190611ad282611989565b81604060145460ff81161515835263ffffffff90818160081c16602085015260281c16910152565b6001600160401b03811161066a57601f01601f191660200190565b81601f8201121561082057803590611b2c82611afa565b92611b3a6040519485611a0a565b8284526020838301011161082057816000926020809301838601378301015290565b359063ffffffff8216820361082057565b919082606091031261082057604051611b8581611989565b80928035908115158203610820576040611bb49181938552611ba960208201611b5c565b602086015201611b5c565b910152565b91908201809211611bc657565b634e487b7160e01b600052601160045260246000fd5b600781101561191e5760ff8019600e5416911617600e55565b805115611c025760200190565b634e487b7160e01b600052603260045260246000fd5b805160011015611c025760400190565b60405190611c35826119b7565b81610100600091828152604051611c4b8161196e565b8381526020820152826040820152826060820152604051611c6b8161196e565b83815260808201528260a08201528260c08201528260e08201520152565b611c91611c28565b50611c9a6125e9565b611cb7604060208301519201519161010084019283519142612a34565b805115611df457611cc6611c28565b5060608301908151151580611dea575b611d56575b50504290526020810151517ff7f050a5e163dbe15fb695b5b2e83ef129fc3565263dc8fc74049d3739e62fde825160c084015190611d50604086015160808701515190604051948594309842879260a094919796959260c0850198855260208501526040840152606083015260808201520152565b0390a290565b620f42409081611d6a8261093e88516129de565b510491611d7f60c087019261093e84516129de565b51049060408601611d91838251611bb9565b9052611d9e828251611e5b565b905281611dac575b50611cdb565b611dc7611ddd93611dbe848851611e5b565b87525183612ae8565b611dd660208701918251612bcb565b9052612ae8565b6080830152388080611da6565b5080511515611cd6565b5042905290565b91909160005b8351811015611e425760208160051b8501015160078082101561191e5783101561191e578214611e3c576000198114611bc657600101611e01565b50509050565b604051637a851da960e11b8152600490fd5b1561069757565b91908203918211611bc657565b602081019081518015611ee7575060e001519081611e8557505050565b51604051631175404360e11b81526001600160a01b0390931660048401526024830152604482015260806064820152601b60848201527f506f736974696f6e2068617320616c726561647920657869746564000000000060a482015260c49150fd5b60e09190910151604051631175404360e11b81526001600160a01b038516600482015260248101929092526044820152608060648201526016608482015275506f736974696f6e20686173206e6f2073686172657360501b60a482015260c490fd5b51906001600160a01b038216820361082057565b919082602091031261082057604051611f758161196e565b91518252565b60209182828203126108205781516001600160401b0392838211610820570191610180938484840312610820576040519485018581108382111761066a5760405283518552611fcb818501611f49565b81860152611fdc8360408601611f5d565b6040860152606084015160608601526080840151608086015260a084015160a086015261200b60c08501611f49565b60c086015261201c60e08501611f49565b60e0860152610100918285015190811161082057840183601f820112156108205780519061204982611afa565b946120576040519687611a0a565b82865283838301011161082057826120729386019101611a2b565b830152610120612083818301611f49565b90830152610140612095818301611f49565b908301526120a7610160809201611f49565b9082015290565b91929060078310158061191e5760038414928380612410575b8015612402575b61219457508061191e5760068414938415612185575b508315612165575b5050506121055760405163eee2192360e01b8152600490fd5b8060a0612116925191015190611bb9565b600b5461212f90829033906001600160a01b0316612899565b60405190815242602082015233907f974d269dfe471aa7c09788034bef284519056ae9769575104f22c0456456dd0960403092a3565b9091925061191e578161217c575b503880806120ec565b90501538612173565b600414935060009050386120e4565b93505050508151806123e4575b508051156123c25760c082015160408051635e615a6b60e01b8152919290916000916001600160a01b039183816004817f000000000000000000000000000000000000000000000000000000000000000087165afa9081156123b857839161012091869161239e575b500151169061223461222d63ffffffff6020818986015116940151169242611bb9565b9142611bb9565b600c54865163095ea7b360e01b81526001600160a01b03851660048201526024810189905291949190602090829060449082908a9087165af1908115612394578691612366575b501561235557600c5416823b1561235157855162f55c9960e61b81523360048201526001600160a01b03919091166024820152604481019190915260648101929092526084820194909452928190849060a490829084905af1918215612347575050612338575b505b60a060c08201519101517f42c690944bb098e84e7a84f157acef3324928623259330b1ba03ec0495407bb460405180612333339530954291846040919493926060820195825260208201520152565b0390a3565b612341906119a4565b386122e2565b51903d90823e3d90fd5b8480fd5b85516307a4ced160e51b8152600490fd5b612387915060203d811161238d575b61237f8183611a0a565b810190612881565b3861227b565b503d612375565b87513d88823e3d90fd5b6123b291503d8088833e610cd28183611a0a565b3861220a565b85513d86823e3d90fd5b50600c5460c08201516123df9133906001600160a01b0316612899565b6122e4565b600b546123fc919033906001600160a01b0316612899565b386121a1565b5060009150600585146120ce565b50826120c7565b6000546001600160a01b0316330361080f57565b612433611c28565b50604051612440816119b7565b60025481526040516124518161196e565b60035481526020820152600454604082015260055460608201526040516124778161196e565b6006548152608082015260075460a082015260085460c082015260095460e0820152600a5461010082015290565b604051906124b2826119d3565b8160e06000918281528260208201526040516124cd8161196e565b83815260408201528260608201526040516124e78161196e565b83815260808201528260a08201528260c08201520152565b6125076124a5565b506001546040516316c1973960e01b81526001600160a01b0392831660048201529161010091829184916024918391165afa9182156125dd5760009261254c57505090565b9091823d84116125d6575b6125618184611a0a565b82019282840312610829575060e0906125b360405193612580856119d3565b825185526020830151602086015261259b8160408501611f5d565b60408601526060830151606086015260808301611f5d565b608084015260a081015160a084015260c081015160c0840152015160e082015290565b503d612557565b6040513d6000823e3d90fd5b6000604080516125f881611989565b828152826020820152015260405161260f81611989565b600f5481526010546020820152601154604082015290565b80516002556020810151516003556040810151600455606081015160055560808101515160065560a081015160075560c081015160085560e08101516009556101000151600a55565b6001546001600160a01b03908116803b156108205760009283610124926126b260405197889687956360d6081360e11b87521660048601526024850190611a78565b5af180156125dd576126c15750565b6126ca906119a4565b565b906126e4928151906040602084015193015193612b23565b90565b6001600160a01b039081169190821561275a57602460209260405194859384926370a0823160e01b84521660048301525afa908161272f575b5061272a57600090565b600190565b602090813d8111612753575b6127458183611a0a565b810103126108205738612720565b503d61273b565b505050600090565b600060443d106126e457604051600319913d83016004833e81516001600160401b03918282113d6024840111176127bf578184019485519384116127c7573d850101602084870101116127bf57506126e492910160200190611a0a565b949350505050565b50949350505050565b6040516370a0823160e01b81526001600160a01b0392831660048201529160209183916024918391165afa6000918161284e575b50612849575050600060033d1161283b575b6308c379a01461282557600090565b61282d612762565b61283657600090565b600090565b600481803e5160e01c612816565b101590565b90916020823d8211612879575b8161286860209383611a0a565b810103126108295750519038612804565b3d915061285b565b90816020910312610820575180151581036108205790565b918015801561291e575b6129195760405163a9059cbb60e01b81526001600160a01b0390921660048301526024820152906020908290816000816044810103926001600160a01b03165af19081156125dd576000916128fb575b501561169e57565b612913915060203d811161238d5761237f8183611a0a565b386128f3565b505050565b506001600160a01b038216156128a3565b929091811580156129ba575b6129b1576040516323b872dd60e01b81526001600160a01b039384166004820152908316602482015260448101919091529160209183916064918391600091165af160009181612991575b506126e45750600090565b6129aa91925060203d811161238d5761237f8183611a0a565b9038612986565b50505050600190565b506001600160a01b0381161561293b565b81810292918115918404141715611bc657565b60006040516129ec8161196e565b52620f424090818102918183041490151715611bc65760405190612a0f8261196e565b815290565b8115612a1e570490565b634e487b7160e01b600052601260045260246000fd5b929091926000604051612a468161196e565b528281108015612ade575b612acc5782612a7a938310612ac4575b5081848211612abc575b612a7491611e5b565b92611e5b565b80158015612ab4575b612a90576126e491612ae8565b50506000604051612aa08161196e565b52604051612aad8161196e565b6000815290565b508115612a83565b849150612a6b565b915038612a61565b505050506000604051612aa08161196e565b5083821015612a51565b906000604051612af78161196e565b52620f424091828102928184041490151715611bc657612b1691612a14565b60405190612a0f8261196e565b9291909260078110158061191e5760068214908115612b8f575b8115612b7f575b50612b775750821015612b5957505050600090565b811015612b67575050600190565b1015612b7257600290565b600390565b935050505090565b905061191e576005811438612b44565b5050600481146000612b3d565b620f424091612bbd916000604051612bb38161196e565b52519051906129cb565b0460405190612a0f8261196e565b90612b16916000604051612bde8161196e565b5251905190611bb9565b9180158015612c0d575b612c08576126e492612c03916129cb565b612a14565b505090565b508215612bf2565b909180158015612c53575b612c4d57612c32612c379284926129cb565b611bb9565b600019810191908211611bc6576126e491612a14565b50905090565b508115612c20565b9392919091612c686124a5565b506040850191612c8c83516000604051612c818161196e565b528551905190611e5b565b60405190612c998261196e565b8152602087019283519384612cb7575b505050505052606082015290565b612cca612c039361093e612d1c976129de565b612cda60808b0191825190612bcb565b6000604051612ce88161196e565b52519060405191612cf88361196e565b612d128c60c0620f42409182850687520192048251611bb9565b90525251906129cb565b612d27818651611e5b565b612d3660a08701918251611bb9565b905284523880808080612ca956fea2646970667358221220f3fe31008c300a1ea2949a7727e2dbdb57a042ad06c17c2216d60a66e88cc31964736f6c63430008140033",
  "devdoc": {
    "kind": "dev",
    "methods": {
      "getStreamState()": {
        "details": "Get the current stream state",
        "returns": {
          "_0": "The current stream state"
        }
      },
      "getStreamStatus()": {
        "details": "Get the current stream status",
        "returns": {
          "_0": "The current stream status"
        }
      }
    },
    "version": 1
  },
  "userdoc": {
    "kind": "user",
    "methods": {},
    "version": 1
  },
  "storageLayout": {
    "storage": [
      {
        "astId": 107,
        "contract": "contracts/Stream.sol:Stream",
        "label": "creator",
        "offset": 0,
        "slot": "0",
        "type": "t_address"
      },
      {
        "astId": 111,
        "contract": "contracts/Stream.sol:Stream",
        "label": "positionStorageAddress",
        "offset": 0,
        "slot": "1",
        "type": "t_address"
      },
      {
        "astId": 113,
        "contract": "contracts/Stream.sol:Stream",
        "label": "initialized",
        "offset": 20,
        "slot": "1",
        "type": "t_bool"
      },
      {
        "astId": 116,
        "contract": "contracts/Stream.sol:Stream",
        "label": "streamState",
        "offset": 0,
        "slot": "2",
        "type": "t_struct(StreamState)5706_storage"
      },
      {
        "astId": 119,
        "contract": "contracts/Stream.sol:Stream",
        "label": "streamTokens",
        "offset": 0,
        "slot": "11",
        "type": "t_struct(StreamTokens)5711_storage"
      },
      {
        "astId": 122,
        "contract": "contracts/Stream.sol:Stream",
        "label": "streamMetadata",
        "offset": 0,
        "slot": "13",
        "type": "t_struct(StreamMetadata)5685_storage"
      },
      {
        "astId": 125,
        "contract": "contracts/Stream.sol:Stream",
        "label": "streamStatus",
        "offset": 0,
        "slot": "14",
        "type": "t_enum(Status)5642"
      },
      {
        "astId": 128,
        "contract": "contracts/Stream.sol:Stream",
        "label": "streamTimes",
        "offset": 0,
        "slot": "15",
        "type": "t_struct(StreamTimes)5682_storage"
      },
      {
        "astId": 131,
        "contract": "contracts/Stream.sol:Stream",
        "label": "postStreamActions",
        "offset": 0,
        "slot": "18",
        "type": "t_struct(PostStreamActions)5731_storage"
      }
    ],
    "types": {
      "t_address": {
        "encoding": "inplace",
        "label": "address",
        "numberOfBytes": "20"
      },
      "t_bool": {
        "encoding": "inplace",
        "label": "bool",
        "numberOfBytes": "1"
      },
      "t_enum(Status)5642": {
        "encoding": "inplace",
        "label": "enum StreamTypes.Status",
        "numberOfBytes": "1"
      },
      "t_string_storage": {
        "encoding": "bytes",
        "label": "string",
        "numberOfBytes": "32"
      },
      "t_struct(Decimal)4553_storage": {
        "encoding": "inplace",
        "label": "struct Decimal",
        "members": [
          {
            "astId": 4552,
            "contract": "contracts/Stream.sol:Stream",
            "label": "value",
            "offset": 0,
            "slot": "0",
            "type": "t_uint256"
          }
        ],
        "numberOfBytes": "32"
      },
      "t_struct(PoolInfo)5721_storage": {
        "encoding": "inplace",
        "label": "struct StreamTypes.PoolInfo",
        "members": [
          {
            "astId": 5720,
            "contract": "contracts/Stream.sol:Stream",
            "label": "poolOutSupplyAmount",
            "offset": 0,
            "slot": "0",
            "type": "t_uint256"
          }
        ],
        "numberOfBytes": "32"
      },
      "t_struct(PostStreamActions)5731_storage": {
        "encoding": "inplace",
        "label": "struct StreamTypes.PostStreamActions",
        "members": [
          {
            "astId": 5724,
            "contract": "contracts/Stream.sol:Stream",
            "label": "poolInfo",
            "offset": 0,
            "slot": "0",
            "type": "t_struct(PoolInfo)5721_storage"
          },
          {
            "astId": 5727,
            "contract": "contracts/Stream.sol:Stream",
            "label": "creatorVesting",
            "offset": 0,
            "slot": "1",
            "type": "t_struct(VestingInfo)5718_storage"
          },
          {
            "astId": 5730,
            "contract": "contracts/Stream.sol:Stream",
            "label": "beneficiaryVesting",
            "offset": 0,
            "slot": "2",
            "type": "t_struct(VestingInfo)5718_storage"
          }
        ],
        "numberOfBytes": "96"
      },
      "t_struct(StreamMetadata)5685_storage": {
        "encoding": "inplace",
        "label": "struct StreamTypes.StreamMetadata",
        "members": [
          {
            "astId": 5684,
            "contract": "contracts/Stream.sol:Stream",
            "label": "ipfsHash",
            "offset": 0,
            "slot": "0",
            "type": "t_string_storage"
          }
        ],
        "numberOfBytes": "32"
      },
      "t_struct(StreamState)5706_storage": {
        "encoding": "inplace",
        "label": "struct StreamTypes.StreamState",
        "members": [
          {
            "astId": 5687,
            "contract": "contracts/Stream.sol:Stream",
            "label": "outRemaining",
            "offset": 0,
            "slot": "0",
            "type": "t_uint256"
          },
          {
            "astId": 5690,
            "contract": "contracts/Stream.sol:Stream",
            "label": "distIndex",
            "offset": 0,
            "slot": "1",
            "type": "t_struct(Decimal)4553_storage"
          },
          {
            "astId": 5692,
            "contract": "contracts/Stream.sol:Stream",
            "label": "spentIn",
            "offset": 0,
            "slot": "2",
            "type": "t_uint256"
          },
          {
            "astId": 5694,
            "contract": "contracts/Stream.sol:Stream",
            "label": "shares",
            "offset": 0,
            "slot": "3",
            "type": "t_uint256"
          },
          {
            "astId": 5697,
            "contract": "contracts/Stream.sol:Stream",
            "label": "currentStreamedPrice",
            "offset": 0,
            "slot": "4",
            "type": "t_struct(Decimal)4553_storage"
          },
          {
            "astId": 5699,
            "contract": "contracts/Stream.sol:Stream",
            "label": "threshold",
            "offset": 0,
            "slot": "5",
            "type": "t_uint256"
          },
          {
            "astId": 5701,
            "contract": "contracts/Stream.sol:Stream",
            "label": "inSupply",
            "offset": 0,
            "slot": "6",
            "type": "t_uint256"
          },
          {
            "astId": 5703,
            "contract": "contracts/Stream.sol:Stream",
            "label": "outSupply",
            "offset": 0,
            "slot": "7",
            "type": "t_uint256"
          },
          {
            "astId": 5705,
            "contract": "contracts/Stream.sol:Stream",
            "label": "lastUpdated",
            "offset": 0,
            "slot": "8",
            "type": "t_uint256"
          }
        ],
        "numberOfBytes": "288"
      },
      "t_struct(StreamTimes)5682_storage": {
        "encoding": "inplace",
        "label": "struct StreamTypes.StreamTimes",
        "members": [
          {
            "astId": 5677,
            "contract": "contracts/Stream.sol:Stream",
            "label": "bootstrappingStartTime",
            "offset": 0,
            "slot": "0",
            "type": "t_uint256"
          },
          {
            "astId": 5679,
            "contract": "contracts/Stream.sol:Stream",
            "label": "streamStartTime",
            "offset": 0,
            "slot": "1",
            "type": "t_uint256"
          },
          {
            "astId": 5681,
            "contract": "contracts/Stream.sol:Stream",
            "label": "streamEndTime",
            "offset": 0,
            "slot": "2",
            "type": "t_uint256"
          }
        ],
        "numberOfBytes": "96"
      },
      "t_struct(StreamTokens)5711_storage": {
        "encoding": "inplace",
        "label": "struct StreamTypes.StreamTokens",
        "members": [
          {
            "astId": 5708,
            "contract": "contracts/Stream.sol:Stream",
            "label": "inSupplyToken",
            "offset": 0,
            "slot": "0",
            "type": "t_address"
          },
          {
            "astId": 5710,
            "contract": "contracts/Stream.sol:Stream",
            "label": "outSupplyToken",
            "offset": 0,
            "slot": "1",
            "type": "t_address"
          }
        ],
        "numberOfBytes": "64"
      },
      "t_struct(VestingInfo)5718_storage": {
        "encoding": "inplace",
        "label": "struct StreamTypes.VestingInfo",
        "members": [
          {
            "astId": 5713,
            "contract": "contracts/Stream.sol:Stream",
            "label": "isVestingEnabled",
            "offset": 0,
            "slot": "0",
            "type": "t_bool"
          },
          {
            "astId": 5715,
            "contract": "contracts/Stream.sol:Stream",
            "label": "vestingDuration",
            "offset": 1,
            "slot": "0",
            "type": "t_uint32"
          },
          {
            "astId": 5717,
            "contract": "contracts/Stream.sol:Stream",
            "label": "cliffDuration",
            "offset": 5,
            "slot": "0",
            "type": "t_uint32"
          }
        ],
        "numberOfBytes": "32"
      },
      "t_uint256": {
        "encoding": "inplace",
        "label": "uint256",
        "numberOfBytes": "32"
      },
      "t_uint32": {
        "encoding": "inplace",
        "label": "uint32",
        "numberOfBytes": "4"
      }
    }
  }
}