{
  "address": "0x91478af7925dDce7cB9E75985D42cE8Fe5f62d63",
  "abi": [
    {
      "inputs": [
        {
          "internalType": "address",
          "name": "protocolAdmin",
          "type": "address"
        }
      ],
      "stateMutability": "nonpayable",
      "type": "constructor"
    },
    {
      "inputs": [],
      "name": "AlreadyInitialized",
      "type": "error"
    },
    {
      "inputs": [],
      "name": "BootstrappingDurationTooShort",
      "type": "error"
    },
    {
      "inputs": [],
      "name": "ContractFrozen",
      "type": "error"
    },
    {
      "inputs": [
        {
          "internalType": "uint256",
          "name": "expected",
          "type": "uint256"
        },
        {
          "internalType": "uint256",
          "name": "actual",
          "type": "uint256"
        }
      ],
      "name": "IncorrectNativeAmount",
      "type": "error"
    },
    {
      "inputs": [],
      "name": "InvalidAcceptedInSupplyTokens",
      "type": "error"
    },
    {
      "inputs": [],
      "name": "InvalidBootstrappingStartTime",
      "type": "error"
    },
    {
      "inputs": [],
      "name": "InvalidBootstrappingTime",
      "type": "error"
    },
    {
      "inputs": [],
      "name": "InvalidCreator",
      "type": "error"
    },
    {
      "inputs": [],
      "name": "InvalidExitFeeRatio",
      "type": "error"
    },
    {
      "inputs": [],
      "name": "InvalidFeeCollector",
      "type": "error"
    },
    {
      "inputs": [],
      "name": "InvalidImplementationAddress",
      "type": "error"
    },
    {
      "inputs": [
        {
          "internalType": "address",
          "name": "from",
          "type": "address"
        }
      ],
      "name": "InvalidNativePayer",
      "type": "error"
    },
    {
      "inputs": [],
      "name": "InvalidOutSupplyToken",
      "type": "error"
    },
    {
      "inputs": [],
      "name": "InvalidPoolWrapper",
      "type": "error"
    },
    {
      "inputs": [],
      "name": "InvalidProtocolAdmin",
      "type": "error"
    },
    {
      "inputs": [],
      "name": "InvalidStreamCreationFeeToken",
      "type": "error"
    },
    {
      "inputs": [],
      "name": "InvalidStreamEndTime",
      "type": "error"
    },
    {
      "inputs": [],
      "name": "InvalidStreamImplementationAddress",
      "type": "error"
    },
    {
      "inputs": [],
      "name": "InvalidStreamStartTime",
      "type": "error"
    },
    {
      "inputs": [],
      "name": "InvalidToSVersion",
      "type": "error"
    },
    {
      "inputs": [],
      "name": "InvalidTokenDecimals",
      "type": "error"
    },
    {
      "inputs": [],
      "name": "InvalidTokenName",
      "type": "error"
    },
    {
      "inputs": [],
      "name": "InvalidTokenSupply",
      "type": "error"
    },
    {
      "inputs": [],
      "name": "InvalidTokenSymbol",
      "type": "error"
    },
    {
      "inputs": [],
      "name": "InvalidTokenTotalSupply",
      "type": "error"
    },
    {
      "inputs": [],
      "name": "InvalidVestingDuration",
      "type": "error"
    },
    {
      "inputs": [],
      "name": "NativeTokenTransferFailed",
      "type": "error"
    },
    {
      "inputs": [],
      "name": "NotAdmin",
      "type": "error"
    },
    {
      "inputs": [],
      "name": "SameInputAndOutputToken",
      "type": "error"
    },
    {
      "inputs": [],
      "name": "StreamAddressPredictionFailed",
      "type": "error"
    },
    {
      "inputs": [],
      "name": "StreamDurationTooShort",
      "type": "error"
    },
    {
      "inputs": [],
      "name": "StreamEndMustBeAfterStart",
      "type": "error"
    },
    {
      "inputs": [],
      "name": "StreamInputTokenNotAccepted",
      "type": "error"
    },
    {
      "inputs": [],
      "name": "StreamStartMustBeAfterBootstrapping",
      "type": "error"
    },
    {
      "inputs": [],
      "name": "TokenTransferFailed",
      "type": "error"
    },
    {
      "inputs": [],
      "name": "WaitingDurationTooShort",
      "type": "error"
    },
    {
      "inputs": [],
      "name": "ZeroOutSupplyNotAllowed",
      "type": "error"
    },
    {
      "anonymous": false,
      "inputs": [
        {
          "indexed": true,
          "internalType": "address",
          "name": "factory",
          "type": "address"
        },
        {
          "indexed": false,
          "internalType": "address[]",
          "name": "tokensAdded",
          "type": "address[]"
        },
        {
          "indexed": false,
          "internalType": "address[]",
          "name": "tokensRemoved",
          "type": "address[]"
        }
      ],
      "name": "AcceptedTokensUpdated",
      "type": "event"
    },
    {
      "anonymous": false,
      "inputs": [
        {
          "indexed": true,
          "internalType": "address",
          "name": "factory",
          "type": "address"
        },
        {
          "indexed": false,
          "internalType": "address",
          "name": "streamImplementationAddress",
          "type": "address"
        },
        {
          "indexed": false,
          "internalType": "address",
          "name": "poolWrapperAddress",
          "type": "address"
        },
        {
          "indexed": false,
          "internalType": "address",
          "name": "feeCollector",
          "type": "address"
        },
        {
          "indexed": false,
          "internalType": "address",
          "name": "protocolAdmin",
          "type": "address"
        },
        {
          "indexed": false,
          "internalType": "address",
          "name": "streamCreationFeeToken",
          "type": "address"
        },
        {
          "indexed": false,
          "internalType": "address[]",
          "name": "acceptedInSupplyTokens",
          "type": "address[]"
        },
        {
          "indexed": false,
          "internalType": "uint256",
          "name": "streamCreationFee",
          "type": "uint256"
        },
        {
          "indexed": false,
          "internalType": "uint256",
          "name": "exitFeeRatio",
          "type": "uint256"
        },
        {
          "indexed": false,
          "internalType": "uint256",
          "name": "minWaitingDuration",
          "type": "uint256"
        },
        {
          "indexed": false,
          "internalType": "uint256",
          "name": "minBootstrappingDuration",
          "type": "uint256"
        },
        {
          "indexed": false,
          "internalType": "uint256",
          "name": "minStreamDuration",
          "type": "uint256"
        },
        {
          "indexed": false,
          "internalType": "string",
          "name": "tosVersion",
          "type": "string"
        },
        {
          "indexed": false,
          "internalType": "address",
          "name": "vestingAddress",
          "type": "address"
        }
      ],
      "name": "FactoryInitialized",
      "type": "event"
    },
    {
      "anonymous": false,
      "inputs": [
        {
          "indexed": true,
          "internalType": "address",
          "name": "factory",
          "type": "address"
        },
        {
          "indexed": false,
          "internalType": "address",
          "name": "newFeeCollector",
          "type": "address"
        }
      ],
      "name": "FeeCollectorUpdated",
      "type": "event"
    },
    {
      "anonymous": false,
      "inputs": [
        {
          "indexed": true,
          "internalType": "address",
          "name": "factory",
          "type": "address"
        },
        {
          "indexed": false,
          "internalType": "bool",
          "name": "frozen",
          "type": "bool"
        }
      ],
      "name": "FrozenStateUpdated",
      "type": "event"
    },
    {
      "anonymous": false,
      "inputs": [
        {
          "indexed": true,
          "internalType": "address",
          "name": "factory",
          "type": "address"
        },
        {
          "indexed": false,
          "internalType": "uint256",
          "name": "streamCreationFee",
          "type": "uint256"
        },
        {
          "indexed": false,
          "internalType": "uint256",
          "name": "exitFeeRatio",
          "type": "uint256"
        },
        {
          "indexed": false,
          "internalType": "uint256",
          "name": "minWaitingDuration",
          "type": "uint256"
        },
        {
          "indexed": false,
          "internalType": "uint256",
          "name": "minBootstrappingDuration",
          "type": "uint256"
        },
        {
          "indexed": false,
          "internalType": "uint256",
          "name": "minStreamDuration",
          "type": "uint256"
        },
        {
          "indexed": false,
          "internalType": "string",
          "name": "tosVersion",
          "type": "string"
        }
      ],
      "name": "ParamsUpdated",
      "type": "event"
    },
    {
      "anonymous": false,
      "inputs": [
        {
          "indexed": true,
          "internalType": "address",
          "name": "factoryAddress",
          "type": "address"
        },
        {
          "indexed": false,
          "internalType": "address",
          "name": "poolWrapper",
          "type": "address"
        }
      ],
      "name": "PoolWrapperUpdated",
      "type": "event"
    },
    {
      "anonymous": false,
      "inputs": [
        {
          "indexed": true,
          "internalType": "address",
          "name": "factory",
          "type": "address"
        },
        {
          "indexed": false,
          "internalType": "address",
          "name": "newProtocolAdmin",
          "type": "address"
        }
      ],
      "name": "ProtocolAdminUpdated",
      "type": "event"
    },
    {
      "anonymous": false,
      "inputs": [
        {
          "indexed": true,
          "internalType": "address",
          "name": "streamFactoryAddress",
          "type": "address"
        },
        {
          "indexed": false,
          "internalType": "address",
          "name": "streamOutToken",
          "type": "address"
        },
        {
          "indexed": false,
          "internalType": "address",
          "name": "streamInToken",
          "type": "address"
        },
        {
          "indexed": false,
          "internalType": "address",
          "name": "streamAddress",
          "type": "address"
        },
        {
          "indexed": false,
          "internalType": "address",
          "name": "creator",
          "type": "address"
        },
        {
          "indexed": false,
          "internalType": "address",
          "name": "positionStorageAddress",
          "type": "address"
        },
        {
          "indexed": false,
          "internalType": "uint256",
          "name": "streamOutAmount",
          "type": "uint256"
        },
        {
          "indexed": false,
          "internalType": "uint256",
          "name": "bootstrappingStartTime",
          "type": "uint256"
        },
        {
          "indexed": false,
          "internalType": "uint256",
          "name": "streamStartTime",
          "type": "uint256"
        },
        {
          "indexed": false,
          "internalType": "uint256",
          "name": "streamEndTime",
          "type": "uint256"
        },
        {
          "indexed": false,
          "internalType": "uint256",
          "name": "threshold",
          "type": "uint256"
        },
        {
          "indexed": false,
          "internalType": "string",
          "name": "metadataIpfsHash",
          "type": "string"
        },
        {
          "indexed": false,
          "internalType": "string",
          "name": "tosVersion",
          "type": "string"
        },
        {
          "indexed": false,
          "internalType": "uint16",
          "name": "streamId",
          "type": "uint16"
        }
      ],
      "name": "StreamCreated",
      "type": "event"
    },
    {
      "anonymous": false,
      "inputs": [
        {
          "indexed": true,
          "internalType": "address",
          "name": "token",
          "type": "address"
        },
        {
          "indexed": false,
          "internalType": "string",
          "name": "name",
          "type": "string"
        },
        {
          "indexed": false,
          "internalType": "string",
          "name": "symbol",
          "type": "string"
        },
        {
          "indexed": false,
          "internalType": "uint8",
          "name": "decimals",
          "type": "uint8"
        },
        {
          "indexed": false,
          "internalType": "uint256",
          "name": "totalSupply",
          "type": "uint256"
        }
      ],
      "name": "TokenCreated",
      "type": "event"
    },
    {
      "anonymous": false,
      "inputs": [
        {
          "indexed": true,
          "internalType": "address",
          "name": "factoryAddress",
          "type": "address"
        },
        {
          "indexed": false,
          "internalType": "address",
          "name": "vestingContract",
          "type": "address"
        }
      ],
      "name": "VestingContractDeployed",
      "type": "event"
    },
    {
      "inputs": [
        {
          "internalType": "address",
          "name": "",
          "type": "address"
        }
      ],
      "name": "acceptedInSupplyTokens",
      "outputs": [
        {
          "internalType": "bool",
          "name": "",
          "type": "bool"
        }
      ],
      "stateMutability": "view",
      "type": "function"
    },
    {
      "inputs": [
        {
          "components": [
            {
              "internalType": "address",
              "name": "creator",
              "type": "address"
            },
            {
              "internalType": "address",
              "name": "inSupplyToken",
              "type": "address"
            },
            {
              "internalType": "address",
              "name": "outSupplyToken",
              "type": "address"
            },
            {
              "internalType": "uint256",
              "name": "streamOutAmount",
              "type": "uint256"
            },
            {
              "internalType": "uint256",
              "name": "threshold",
              "type": "uint256"
            },
            {
              "internalType": "uint256",
              "name": "bootstrappingStartTime",
              "type": "uint256"
            },
            {
              "internalType": "uint256",
              "name": "streamStartTime",
              "type": "uint256"
            },
            {
              "internalType": "uint256",
              "name": "streamEndTime",
              "type": "uint256"
            },
            {
              "components": [
                {
                  "internalType": "string",
                  "name": "ipfsHash",
                  "type": "string"
                }
              ],
              "internalType": "struct StreamTypes.StreamMetadata",
              "name": "metadata",
              "type": "tuple"
            },
            {
              "components": [
                {
                  "internalType": "bool",
                  "name": "isVestingEnabled",
                  "type": "bool"
                },
                {
                  "internalType": "uint64",
                  "name": "vestingDuration",
                  "type": "uint64"
                }
              ],
              "internalType": "struct StreamTypes.VestingInfo",
              "name": "creatorVesting",
              "type": "tuple"
            },
            {
              "components": [
                {
                  "internalType": "bool",
                  "name": "isVestingEnabled",
                  "type": "bool"
                },
                {
                  "internalType": "uint64",
                  "name": "vestingDuration",
                  "type": "uint64"
                }
              ],
              "internalType": "struct StreamTypes.VestingInfo",
              "name": "beneficiaryVesting",
              "type": "tuple"
            },
            {
              "components": [
                {
                  "internalType": "uint256",
                  "name": "poolOutSupplyAmount",
                  "type": "uint256"
                }
              ],
              "internalType": "struct StreamTypes.PoolInfo",
              "name": "poolInfo",
              "type": "tuple"
            },
            {
              "internalType": "string",
              "name": "tosVersion",
              "type": "string"
            }
          ],
          "internalType": "struct StreamTypes.CreateStreamMessage",
          "name": "createStreamMessage",
          "type": "tuple"
        }
      ],
      "name": "createStream",
      "outputs": [],
      "stateMutability": "payable",
      "type": "function"
    },
    {
      "inputs": [
        {
          "components": [
            {
              "internalType": "address",
              "name": "creator",
              "type": "address"
            },
            {
              "internalType": "address",
              "name": "inSupplyToken",
              "type": "address"
            },
            {
              "internalType": "address",
              "name": "outSupplyToken",
              "type": "address"
            },
            {
              "internalType": "uint256",
              "name": "streamOutAmount",
              "type": "uint256"
            },
            {
              "internalType": "uint256",
              "name": "threshold",
              "type": "uint256"
            },
            {
              "internalType": "uint256",
              "name": "bootstrappingStartTime",
              "type": "uint256"
            },
            {
              "internalType": "uint256",
              "name": "streamStartTime",
              "type": "uint256"
            },
            {
              "internalType": "uint256",
              "name": "streamEndTime",
              "type": "uint256"
            },
            {
              "components": [
                {
                  "internalType": "string",
                  "name": "ipfsHash",
                  "type": "string"
                }
              ],
              "internalType": "struct StreamTypes.StreamMetadata",
              "name": "metadata",
              "type": "tuple"
            },
            {
              "components": [
                {
                  "internalType": "bool",
                  "name": "isVestingEnabled",
                  "type": "bool"
                },
                {
                  "internalType": "uint64",
                  "name": "vestingDuration",
                  "type": "uint64"
                }
              ],
              "internalType": "struct StreamTypes.VestingInfo",
              "name": "creatorVesting",
              "type": "tuple"
            },
            {
              "components": [
                {
                  "internalType": "bool",
                  "name": "isVestingEnabled",
                  "type": "bool"
                },
                {
                  "internalType": "uint64",
                  "name": "vestingDuration",
                  "type": "uint64"
                }
              ],
              "internalType": "struct StreamTypes.VestingInfo",
              "name": "beneficiaryVesting",
              "type": "tuple"
            },
            {
              "components": [
                {
                  "internalType": "uint256",
                  "name": "poolOutSupplyAmount",
                  "type": "uint256"
                }
              ],
              "internalType": "struct StreamTypes.PoolInfo",
              "name": "poolInfo",
              "type": "tuple"
            },
            {
              "internalType": "string",
              "name": "tosVersion",
              "type": "string"
            }
          ],
          "internalType": "struct StreamTypes.CreateStreamMessage",
          "name": "createStreamMessage",
          "type": "tuple"
        },
        {
          "components": [
            {
              "internalType": "string",
              "name": "name",
              "type": "string"
            },
            {
              "internalType": "string",
              "name": "symbol",
              "type": "string"
            },
            {
              "internalType": "uint8",
              "name": "decimals",
              "type": "uint8"
            },
            {
              "internalType": "uint256",
              "name": "totalSupply",
              "type": "uint256"
            }
          ],
          "internalType": "struct StreamTypes.TokenCreationInfo",
          "name": "tokenCreationInfo",
          "type": "tuple"
        }
      ],
      "name": "createStreamWithTokenCreation",
      "outputs": [],
      "stateMutability": "payable",
      "type": "function"
    },
    {
      "inputs": [],
      "name": "currentStreamId",
      "outputs": [
        {
          "internalType": "uint16",
          "name": "",
          "type": "uint16"
        }
      ],
      "stateMutability": "view",
      "type": "function"
    },
    {
      "inputs": [],
      "name": "frozen",
      "outputs": [
        {
          "internalType": "bool",
          "name": "",
          "type": "bool"
        }
      ],
      "stateMutability": "view",
      "type": "function"
    },
    {
      "inputs": [],
      "name": "getAcceptedInSupplyTokens",
      "outputs": [
        {
          "internalType": "address[]",
          "name": "",
          "type": "address[]"
        }
      ],
      "stateMutability": "view",
      "type": "function"
    },
    {
      "inputs": [],
      "name": "getParams",
      "outputs": [
        {
          "components": [
            {
              "internalType": "uint256",
              "name": "streamCreationFee",
              "type": "uint256"
            },
            {
              "internalType": "address",
              "name": "streamCreationFeeToken",
              "type": "address"
            },
            {
              "components": [
                {
                  "internalType": "uint256",
                  "name": "value",
                  "type": "uint256"
                }
              ],
              "internalType": "struct Decimal",
              "name": "exitFeeRatio",
              "type": "tuple"
            },
            {
              "internalType": "uint256",
              "name": "minWaitingDuration",
              "type": "uint256"
            },
            {
              "internalType": "uint256",
              "name": "minBootstrappingDuration",
              "type": "uint256"
            },
            {
              "internalType": "uint256",
              "name": "minStreamDuration",
              "type": "uint256"
            },
            {
              "internalType": "address",
              "name": "feeCollector",
              "type": "address"
            },
            {
              "internalType": "address",
              "name": "protocolAdmin",
              "type": "address"
            },
            {
              "internalType": "string",
              "name": "tosVersion",
              "type": "string"
            },
            {
              "internalType": "address",
              "name": "vestingFactoryAddress",
              "type": "address"
            },
            {
              "internalType": "address",
              "name": "poolWrapperAddress",
              "type": "address"
            },
            {
              "internalType": "address",
              "name": "streamImplementationAddress",
              "type": "address"
            },
            {
              "internalType": "address",
              "name": "tokenFactoryAddress",
              "type": "address"
            }
          ],
          "internalType": "struct StreamFactoryTypes.Params",
          "name": "",
          "type": "tuple"
        }
      ],
      "stateMutability": "view",
      "type": "function"
    },
    {
      "inputs": [
        {
          "internalType": "uint16",
          "name": "streamId",
          "type": "uint16"
        }
      ],
      "name": "getStream",
      "outputs": [
        {
          "internalType": "address",
          "name": "",
          "type": "address"
        }
      ],
      "stateMutability": "view",
      "type": "function"
    },
    {
      "inputs": [],
      "name": "getStreams",
      "outputs": [
        {
          "internalType": "address[]",
          "name": "",
          "type": "address[]"
        }
      ],
      "stateMutability": "view",
      "type": "function"
    },
    {
      "inputs": [
        {
          "components": [
            {
              "internalType": "uint256",
              "name": "streamCreationFee",
              "type": "uint256"
            },
            {
              "internalType": "address",
              "name": "streamCreationFeeToken",
              "type": "address"
            },
            {
              "components": [
                {
                  "internalType": "uint256",
                  "name": "value",
                  "type": "uint256"
                }
              ],
              "internalType": "struct Decimal",
              "name": "exitFeeRatio",
              "type": "tuple"
            },
            {
              "internalType": "uint256",
              "name": "minWaitingDuration",
              "type": "uint256"
            },
            {
              "internalType": "uint256",
              "name": "minBootstrappingDuration",
              "type": "uint256"
            },
            {
              "internalType": "uint256",
              "name": "minStreamDuration",
              "type": "uint256"
            },
            {
              "internalType": "address",
              "name": "feeCollector",
              "type": "address"
            },
            {
              "internalType": "address",
              "name": "protocolAdmin",
              "type": "address"
            },
            {
              "internalType": "string",
              "name": "tosVersion",
              "type": "string"
            },
            {
              "internalType": "address",
              "name": "poolWrapperAddress",
              "type": "address"
            },
            {
              "internalType": "address",
              "name": "streamImplementationAddress",
              "type": "address"
            },
            {
              "internalType": "address[]",
              "name": "acceptedInSupplyTokens",
              "type": "address[]"
            },
            {
              "internalType": "address",
              "name": "tokenFactoryAddress",
              "type": "address"
            }
          ],
          "internalType": "struct StreamFactoryTypes.InitializeStreamMessage",
          "name": "initializeStreamMessage",
          "type": "tuple"
        }
      ],
      "name": "initialize",
      "outputs": [],
      "stateMutability": "nonpayable",
      "type": "function"
    },
    {
      "inputs": [],
      "name": "initialized",
      "outputs": [
        {
          "internalType": "bool",
          "name": "",
          "type": "bool"
        }
      ],
      "stateMutability": "view",
      "type": "function"
    },
    {
      "inputs": [
        {
          "internalType": "address",
          "name": "token",
          "type": "address"
        }
      ],
      "name": "isAcceptedInSupplyToken",
      "outputs": [
        {
          "internalType": "bool",
          "name": "",
          "type": "bool"
        }
      ],
      "stateMutability": "view",
      "type": "function"
    },
    {
      "inputs": [
        {
          "internalType": "address",
          "name": "streamAddress",
          "type": "address"
        }
      ],
      "name": "isStream",
      "outputs": [
        {
          "internalType": "bool",
          "name": "",
          "type": "bool"
        }
      ],
      "stateMutability": "view",
      "type": "function"
    },
    {
      "inputs": [],
      "name": "params",
      "outputs": [
        {
          "internalType": "uint256",
          "name": "streamCreationFee",
          "type": "uint256"
        },
        {
          "internalType": "address",
          "name": "streamCreationFeeToken",
          "type": "address"
        },
        {
          "components": [
            {
              "internalType": "uint256",
              "name": "value",
              "type": "uint256"
            }
          ],
          "internalType": "struct Decimal",
          "name": "exitFeeRatio",
          "type": "tuple"
        },
        {
          "internalType": "uint256",
          "name": "minWaitingDuration",
          "type": "uint256"
        },
        {
          "internalType": "uint256",
          "name": "minBootstrappingDuration",
          "type": "uint256"
        },
        {
          "internalType": "uint256",
          "name": "minStreamDuration",
          "type": "uint256"
        },
        {
          "internalType": "address",
          "name": "feeCollector",
          "type": "address"
        },
        {
          "internalType": "address",
          "name": "protocolAdmin",
          "type": "address"
        },
        {
          "internalType": "string",
          "name": "tosVersion",
          "type": "string"
        },
        {
          "internalType": "address",
          "name": "vestingFactoryAddress",
          "type": "address"
        },
        {
          "internalType": "address",
          "name": "poolWrapperAddress",
          "type": "address"
        },
        {
          "internalType": "address",
          "name": "streamImplementationAddress",
          "type": "address"
        },
        {
          "internalType": "address",
          "name": "tokenFactoryAddress",
          "type": "address"
        }
      ],
      "stateMutability": "view",
      "type": "function"
    },
    {
      "inputs": [
        {
          "internalType": "bool",
          "name": "isFrozen",
          "type": "bool"
        }
      ],
      "name": "setFrozen",
      "outputs": [],
      "stateMutability": "nonpayable",
      "type": "function"
    },
    {
      "inputs": [
        {
          "internalType": "uint16",
          "name": "",
          "type": "uint16"
        }
      ],
      "name": "streamAddresses",
      "outputs": [
        {
          "internalType": "address",
          "name": "",
          "type": "address"
        }
      ],
      "stateMutability": "view",
      "type": "function"
    },
    {
      "inputs": [
        {
          "internalType": "address[]",
          "name": "tokensToAdd",
          "type": "address[]"
        },
        {
          "internalType": "address[]",
          "name": "tokensToRemove",
          "type": "address[]"
        }
      ],
      "name": "updateAcceptedTokens",
      "outputs": [],
      "stateMutability": "nonpayable",
      "type": "function"
    },
    {
      "inputs": [
        {
          "components": [
            {
              "internalType": "uint256",
              "name": "value",
              "type": "uint256"
            }
          ],
          "internalType": "struct Decimal",
          "name": "exitFeeRatio",
          "type": "tuple"
        }
      ],
      "name": "updateExitFeeRatio",
      "outputs": [],
      "stateMutability": "nonpayable",
      "type": "function"
    },
    {
      "inputs": [
        {
          "internalType": "address",
          "name": "feeCollector",
          "type": "address"
        }
      ],
      "name": "updateFeeCollector",
      "outputs": [],
      "stateMutability": "nonpayable",
      "type": "function"
    },
    {
      "inputs": [
        {
          "internalType": "uint256",
          "name": "minBootstrappingDuration",
          "type": "uint256"
        }
      ],
      "name": "updateMinBootstrappingDuration",
      "outputs": [],
      "stateMutability": "nonpayable",
      "type": "function"
    },
    {
      "inputs": [
        {
          "internalType": "uint256",
          "name": "minStreamDuration",
          "type": "uint256"
        }
      ],
      "name": "updateMinStreamDuration",
      "outputs": [],
      "stateMutability": "nonpayable",
      "type": "function"
    },
    {
      "inputs": [
        {
          "internalType": "uint256",
          "name": "minWaitingDuration",
          "type": "uint256"
        }
      ],
      "name": "updateMinWaitingDuration",
      "outputs": [],
      "stateMutability": "nonpayable",
      "type": "function"
    },
    {
      "inputs": [
        {
          "internalType": "address",
          "name": "poolWrapper",
          "type": "address"
        }
      ],
      "name": "updatePoolWrapper",
      "outputs": [],
      "stateMutability": "nonpayable",
      "type": "function"
    },
    {
      "inputs": [
        {
          "internalType": "address",
          "name": "protocolAdmin",
          "type": "address"
        }
      ],
      "name": "updateProtocolAdmin",
      "outputs": [],
      "stateMutability": "nonpayable",
      "type": "function"
    },
    {
      "inputs": [
        {
          "internalType": "uint256",
          "name": "streamCreationFee",
          "type": "uint256"
        }
      ],
      "name": "updateStreamCreationFee",
      "outputs": [],
      "stateMutability": "nonpayable",
      "type": "function"
    },
    {
      "inputs": [
        {
          "internalType": "address",
          "name": "streamCreationFeeToken",
          "type": "address"
        }
      ],
      "name": "updateStreamCreationFeeToken",
      "outputs": [],
      "stateMutability": "nonpayable",
      "type": "function"
    },
    {
      "inputs": [
        {
          "internalType": "address",
          "name": "implementation",
          "type": "address"
        }
      ],
      "name": "updateStreamImplementation",
      "outputs": [],
      "stateMutability": "nonpayable",
      "type": "function"
    },
    {
      "inputs": [
        {
          "internalType": "string",
          "name": "tosVersion",
          "type": "string"
        }
      ],
      "name": "updateTosVersion",
      "outputs": [],
      "stateMutability": "nonpayable",
      "type": "function"
    }
  ],
  "transactionHash": "0x5054bd96242cdff10ffbcabe55860cfd7949913b49b1b856b6188fd5c36e0a98",
  "args": [
    "0xB4eE189569597EFDB3bB48DB5ede8394d1D48e7b"
  ],
  "numDeployments": 1,
  "solcInputHash": "ee5fcd2bc1136049bd4cf6e7941e5e78",
  "bytecode": "0x6080346200009357601f620040c238819003918201601f19168301916001600160401b0383118484101762000098578084926020946040528339810103126200009357516001600160a01b03811690819003620000935780156200008157600980546001600160a01b0319169190911790556040516140139081620000af8239f35b604051632bf75bc360e21b8152600490fd5b600080fd5b634e487b7160e01b600052604160045260246000fdfe60808060405260043610156200001457600080fd5b60003560e01c908163054f7d9c14620019de5750806314d98de514620019ba578063158ef93e14620019925780631c2a28f7146200188e57806333907d1e14620018d15780635a91b3b2146200188e5780635e615a6b146200165c5780636514b2da14620015c8578063774ef43b14620005ae5780637c526bb314620014885780637e932d3214620014175780637f2e72ed14620013b7578063826562331462000d3857806384e201e214620009f45780638bd999fd146200099557806394558e29146200091a578063ae383c0c14620008bb578063bfb792241462000888578063c1d3be8b14620007fa578063cff0ab96146200071a578063d04fed631462000680578063d2c35ce814620005f1578063e899f3d714620005ae578063e8aa8e5e146200054f578063f21e2006146200035c578063f3425b1014620002b1578063fd05bcc214620002165763fd7917f7146200017057600080fd5b346200021157602036600319011262000211576200018d62001a00565b6009546001600160a01b03919082163303620001ff57168015620001ed57806001600160601b0360a01b600c541617600c556040519081527f0e68834ff868f2c0042bd32422f7e8ce1ebbc6341974bb698c0f89a7a29f1f6a60203092a2005b60405163405b556360e11b8152600490fd5b604051637bfa4b9f60e01b8152600490fd5b600080fd5b34620002115760203660031901126200021157604051620002378162001b07565b60043581526009546001600160a01b03163303620001ff5762000259620020dd565b81519051106200029f57518060045560008051602062003fbe83398151915260025491600554906200029a6006546007549060405194859430988662001efa565b0390a2005b604051632aa4e67b60e01b8152600490fd5b602036600319011262000211576004356001600160401b0381116200021157620002e090369060040162001c54565b6040810180519091906001600160a01b03908116156200034a576200034892816200031e62000342936003541682600854166002549133906200213a565b620003356060850151610160860151519062002041565b915116309033906200213a565b620022a0565b005b6040516372146d6160e11b8152600490fd5b34620002115760208060031936011262000211576001600160401b039060043582811162000211576200039490369060040162001b9e565b6009549091906001600160a01b03163303620001ff5781519283116200053957620003c1600a5462001d90565b601f8111620004e1575b508092601f81116001146200045a578060008051602062003fbe83398151915293946000916200044e575b508160011b916000199060031b1c191617600a555b60025490600454600554600654916007549360405195865285015260408401526060830152608082015260c060a0820152806200029a309460c083019062001a90565b905084015185620003f6565b601f19811693600a60005260008051602062003f9e8339815191529460005b818110620004c9575094829160019360008051602062003fbe833981519152969710620004af575b5050811b01600a556200040b565b86015160001960f88460031b161c191690558580620004a1565b85830151875560019096019591840191840162000479565b600a60005260008051602062003f9e833981519152601f850160051c8101918386106200052e575b601f0160051c01905b818110620005215750620003cb565b6000815560010162000512565b909150819062000509565b634e487b7160e01b600052604160045260246000fd5b34620002115760203660031901126200021157600954600435906001600160a01b03163303620001ff578060055560008051602062003fbe833981519152600254916004546200029a6006546007549060405194859430988662001efa565b3462000211576020366003190112620002115760043561ffff81168091036200021157600052600f602052602060018060a01b0360406000205416604051908152f35b346200021157602036600319011262000211576200060e62001a00565b6009546001600160a01b03919082163303620001ff571680156200066e57806001600160601b0360a01b60085416176008556040519081527f5d16ad41baeb009cd23eb8f6c7cde5c2e0cd5acf4a33926ab488875c37c37f3860203092a2005b60405163bb0bac9960e01b8152600490fd5b3462000211576000366003190112620002115761ffff6001816001541690620006a98262001e78565b916000825b620006d0575b60405160208082528190620006cc9082018762001a2c565b0390f35b8481168281101562000713576000818152600f6020526040902054849392879285926001600160a01b03169062000708908962001ee5565b5201169091620006ae565b50620006b4565b34620002115760003660031901126200021157604060025460018060a01b039081600354168351926200074d8462001b07565b6004548452600554620007dd600654946007549084600854168560095416908a519362000787856200077f8162001dcd565b038662001b3f565b87600b54169988600c54169789600d541699600e54169a8e519e8f9e8f926101a099845260208401525191015260608d015260808c015260a08b015260c08a015260e08901528061010089015287019062001a90565b936101208601526101408501526101608401526101808301520390f35b346200021157602036600319011262000211576200081762001a00565b600954906001600160a01b03908183163303620001ff571690811562000876576001600160a01b031916811760095560405190815230907f96c81c3f4599d5ad4b4ce465555174670819d69aa61f97cf8fdf4b80c1fbb32590602090a2005b604051632bf75bc360e21b8152600490fd5b346200021157602036600319011262000211576020620008b1620008ab62001a00565b62002073565b6040519015158152f35b34620002115760203660031901126200021157600954600435906001600160a01b03163303620001ff578060075560008051602062003fbe833981519152600254916004546200029a6005549260065460405194859430988662001efa565b346200021157602036600319011262000211576200093762001a00565b6009546001600160a01b03919082163303620001ff57166001600160601b0360a01b600354161760035560025460008051602062003fbe833981519152600454600554906200029a6006546007549060405194859430988662001efa565b34620002115760203660031901126200021157600954600435906001600160a01b03163303620001ff578060025560008051602062003fbe833981519152600454600554906200029a6006546007549060405194859430988662001efa565b60031960403682011262000211576001600160401b03600435818111620002115762000a2590369060040162001c54565b9060243581811162000211576080848236030112620002115760405191608083018381108282111762000539576040528160040135818111620002115762000a74906004369185010162001b9e565b83526024820135908111620002115762000a95906004369184010162001b9e565b93602080840195865260448301359160ff83168303620002115760408501928352606460608601940135845262000ad86060870151610160880151519062002041565b908185511062000d2657908286899289600160a01b600190039586600354168760085416600254903362000b0c936200213a565b84838b519062000b1c9162002065565b6040519462000b2b8662001b23565b60028652604036848801376040519162000b458362001b23565b600283528a84840196366040908937511662000b618862001eb0565b5262000b6d8362001eb0565b523062000b7a8762001ed4565b5262000b868262001ed4565b5288600e54169460405198899763370377c160e21b8952600489016060905251606489016080905260e4890162000bbd9162001a90565b90518882036063190160848a015262000bd7919062001a90565b8c5160ff1660a48901528d5160c48901528488820301602489015262000bfd9162001a2c565b92868403016044870152519182815201919060005b81811062000d0c57505050600083809203925af190811562000d005760009162000cb5575b509262000ca162000348989360ff7f0b0bcdebd2813328a89a9ed5971e5863201ed78fc4e0e2b271cceddb9ce90510979462000c939716988960408c015251955193511693519260405196879660808852608088019062001a90565b918683039087015262001a90565b91604084015260608301520390a2620022a0565b9050828181969399943d831162000cf8575b62000cd3818362001b3f565b81010312620002115751928784168403620002115791969093919262000ca162000c37565b503d62000cc7565b6040513d6000823e3d90fd5b825184528996889650938401939092019160010162000c12565b604051634f1f06eb60e11b8152600490fd5b34620002115760031960203682011262000211576001600160401b036004351162000211576101a09060043536030112620002115760405162000d7b8162001aea565b60043560040135815262000d9460246004350162001a17565b602082015262000daa3660446004350162001b61565b6040820152600435606481013560608301526084810135608083015260a481013560a083015262000dde9060c40162001a17565b60c082015262000df360e46004350162001a17565b60e082015261010460043501356001600160401b038111620002115762000e2290600436918135010162001b9e565b61010082015262000e396101246004350162001a17565b61012082015262000e506101446004350162001a17565b61014082015261016460043501356001600160401b038111620002115736602382600435010112156200021157600481813501013562000e908162001beb565b9162000ea0604051938462001b3f565b81835260208301903660248460051b83600435010101116200021157906024826004350101915b60248460051b8260043501010183106200139857858561016082015262000ef46101846004350162001a17565b6101808201526009546001600160a01b03163303620001ff5760ff60105460081c166200138757604081015162000f2a620020dd565b90519051106200029f57610160810151511562001375576101408101516001600160a01b03161562001363576101208101516001600160a01b031615620001ed5760405180610ed08101106001600160401b03610ed0830111176200053957610ed062002b03823980610ed0810103906000f0801562000d00576040516001600160a01b038216815230907f739fe22b8edefd6ce1fe32460f9cd54bf8e66fc7447f4c8a8131ce078a1988af90602090a2815160025560018060a01b036020830151166001600160601b0360a01b60035416176003556040820151516004556060820151600555608082015160065560a082015160075560018060a01b0360c0830151166001600160601b0360a01b60085416176008556101008201519182516001600160401b038111620005395762001066600a5462001d90565b601f8111620012f2575b506020601f82116001146200127857819293946000926200126c575b50508160011b916000199060031b1c191617600a555b600b80546001600160a01b038481166001600160a01b031992831617909255610120830151600c8054918416918316919091179055610140830151600d8054918416918316919091179055610180830151600e805491909316911617905560005b61016082015180518210156200114d57600191906001600160a01b03906200112d90839062001ee5565b5116600052600060205260406000208260ff198254161790550162001103565b837ff5cd483996d35d97699fe885e0a7415610889f44d528c84777658c768c104470846200124360018060a01b03610140830151169160018060a01b036101208201511660018060a01b0360c0830151169160018060a01b0360e0820151169260018060a01b036020830151169361016083015194620012178451966040860151519260608701519460808801519661010060a08a01519901519960206040519e8f908152015260408d015260608c015260808b01526101a060a08b01526101a08a019062001a2c565b9560c089015260e088015261010087015261012086015261014085015283820361016085015262001a90565b6001600160a01b03909316610180820152309281900390a26010805461ff001916610100179055005b0151905084806200108c565b600a60005260008051602062003f9e8339815191529060005b601f1984168110620012d95750600193949583601f19811610620012bf575b505050811b01600a55620010a2565b015160001960f88460031b161c19169055848080620012b0565b9091602060018192858a01518155019301910162001291565b600a600052601f820160051c60008051602062003f9e83398151915201602083106200134c575b601f820160051c60008051602062003f9e8339815191520181106200133f575062001070565b6000815560010162001319565b5060008051602062003f9e83398151915262001319565b60405163c9c95bf560e01b8152600490fd5b60405163042ea06160e41b8152600490fd5b60405162dc149f60e41b8152600490fd5b602080602493620013a98662001a17565b815201930192915062000ec7565b34620002115760203660031901126200021157600954600435906001600160a01b03163303620001ff578060065560008051602062003fbe833981519152600254916004546200029a600554926007549060405194859430988662001efa565b3462000211576020366003190112620002115760043580151580910362000211576009546001600160a01b03163303620001ff5760ff196010541660ff8216176010556040519081527fc08a1a38ceb2f9f45e15007131834153026896150e4400ab4000fd1b131fb1db60203092a2005b346200021157604036600319011262000211576001600160401b036004358181116200021157620014be90369060040162001ab7565b916024359081116200021157620014da90369060040162001ab7565b6009549193916001600160a01b039081163303620001ff5760005b83811062001594575060005b8281106200155c57857f640a0a596c3bc7f91bc26965ed05efb8d3017a25c7b1822ba2ca3e33b2743cd586866200029a876200154b60405194859460408652604086019162001ff9565b908382036020850152309662001ff9565b80826200157762001571600194878b62001fd3565b62001fe4565b166000526000602052604060002060ff1981541690550162001501565b8082620015a962001571600194888a62001fd3565b16600052600060205260406000208260ff1982541617905501620014f5565b34620002115760203660031901126200021157620015e562001a00565b6009546001600160a01b03919082163303620001ff571680156200164a576001600160601b0360a01b600d541617600d5560025460008051602062003fbe833981519152600454600554906200029a6006546007549060405194859430988662001efa565b60405163325c055b60e21b8152600490fd5b346200021157600036600319011262000211576000610180604051620016828162001aea565b828152826020820152604051620016998162001b07565b83815260408201528260608201528260808201528260a08201528260c08201528260e082015260606101008201528261012082015282610140820152826101608201520152604051620016ec8162001aea565b60025481526003546001600160a01b03166020820152604051620017108162001b07565b60045481526040828101919091526005546060830152600654608083015260075460a08301526008546001600160a01b0390811660c08401526009541660e0830152516200176b81620017638162001dcd565b038262001b3f565b61010082015260018060a01b03600b541661012082015260018060a01b03600c541661014082015260018060a01b03600d541661016082015260018060a01b03600e54166101808201526040518091602082528051602083015260018060a01b036020820151166040830152604081015151606083015260608101516080830152608081015160a083015260a081015160c083015260018060a01b0360c08201511660e083015260018060a01b0360e082015116610100830152610100810151620018466101a091826101208601526101c085019062001a90565b6101208301516001600160a01b039081166101408681019190915284015181166101608087019190915284015181166101808087019190915290930151909216908301520390f35b346200021157602036600319011262000211576001600160a01b03620018b362001a00565b166000526000602052602060ff604060002054166040519015158152f35b3462000211576000366003190112620002115761ffff6001816001541690620018fa8262001e78565b916000825b6200191c5760405160208082528190620006cc9082018762001a2c565b84811682811015620007135783809392828893600052600f60209080825260018060a01b039081604060002054166000526000835260ff604060002054166200196e575b5050505001169091620018ff565b6200198792846000525260406000205416918962001ee5565b528880808062001960565b34620002115760003660031901126200021157602060ff60105460081c166040519015158152f35b34620002115760003660031901126200021157602061ffff60015416604051908152f35b3462000211576000366003190112620002115760209060ff6010541615158152f35b600435906001600160a01b03821682036200021157565b35906001600160a01b03821682036200021157565b90815180825260208080930193019160005b82811062001a4d575050505090565b83516001600160a01b03168552938101939281019260010162001a3e565b60005b83811062001a7f5750506000910152565b818101518382015260200162001a6e565b9060209162001aab8151809281855285808601910162001a6b565b601f01601f1916010190565b9181601f8401121562000211578235916001600160401b03831162000211576020808501948460051b0101116200021157565b6101a081019081106001600160401b038211176200053957604052565b602081019081106001600160401b038211176200053957604052565b606081019081106001600160401b038211176200053957604052565b90601f801991011681019081106001600160401b038211176200053957604052565b9190826020910312620002115760405162001b7c8162001b07565b91358252565b6001600160401b0381116200053957601f01601f191660200190565b81601f82011215620002115780359062001bb88262001b82565b9262001bc8604051948562001b3f565b828452602083830101116200021157816000926020809301838601378301015290565b6001600160401b038111620005395760051b60200190565b91908260409103126200021157604080516001600160401b03918101828111828210176200053957604052809380359081151582036200021157602091835201359182168203620002115760200152565b91906101e08382031262000211576040519062001c718262001aea565b819362001c7e8162001a17565b835262001c8e6020820162001a17565b602084015262001ca16040820162001a17565b6040840152606081013560608401526080810135608084015260a081013560a084015260c081013560c084015260e081013560e08401526101009182820135926001600160401b0393848111620002115783019060208284031262000211576040519162001d0f8362001b07565b803590868211620002115762001d289185910162001b9e565b825285015261012062001d3e8282850162001c03565b9085015261016062001d538282850162001c03565b61014086015262001d69826101a0850162001b61565b908501526101c082013592831162000211576101809262001d8b920162001b9e565b910152565b90600182811c9216801562001dc2575b602083101462001dac57565b634e487b7160e01b600052602260045260246000fd5b91607f169162001da0565b600a546000929162001ddf8262001d90565b8082529160209060019081811690811562001e52575060011462001e04575b50505050565b92939450600a60005260008051602062003f9e833981519152926000935b85851062001e3e57505050602092500101903880808062001dfe565b805485850184015293820193810162001e22565b92505050602093945060ff929192191683830152151560051b0101903880808062001dfe565b9062001e848262001beb565b62001e93604051918262001b3f565b828152809262001ea6601f199162001beb565b0190602036910137565b80511562001ebe5760200190565b634e487b7160e01b600052603260045260246000fd5b80516001101562001ebe5760400190565b805182101562001ebe5760209160051b010190565b9492909391938552602093602086015260408501526060840152608083015260c060a0830152600091600a549062001f328262001d90565b918260c083015260e060019160018116908160001462001faf575060011462001f5e575b505050505090565b600a60009081529496955091929160008051602062003f9e8339815191525b83861062001f9b575050505060e09293500101388080808062001f56565b805485870183015294870194820162001f7d565b93955050505060e0935060ff191683830152151560051b0101388080808062001f56565b919081101562001ebe5760051b0190565b356001600160a01b0381168103620002115790565b91908082526020809201929160005b82811062002017575050505090565b909192938280600192838060a01b03620020318962001a17565b1681520195019392910162002008565b919082018092116200204f57565b634e487b7160e01b600052601160045260246000fd5b919082039182116200204f57565b6001805460009261ffff92918316825b62002093575b5050505050600090565b83851681811015620020d6576000908152600f60205260409020546001600160a01b03838116911614620020ce579382018316938262002083565b505091505090565b5062002089565b6000604051620020ed8162001b07565b52604051620020fc8162001b07565b620f4240815290565b3d1562002135573d90620021198262001b82565b9162002129604051938462001b3f565b82523d6000602084013e565b606090565b929092811562001dfe576001600160a01b03908116938415620021f6578116308103620021aa57506040519263a9059cbb60e01b602085015216602483015260448201526044815260808101918183106001600160401b038411176200053957620021a89260405262002947565b565b92604051936323b872dd60e01b6020860152602485015216604483015260648201526064815260a08101918183106001600160401b038411176200053957620021a89260405262002947565b8193929450163381146000146200226a57508234036200224b57163081146200224757600080809381935af16200222c62002105565b50156200223557565b604051630c08bcb960e21b8152600490fd5b5050565b604051635693fffb60e01b815260048101849052346024820152604490fd5b3081036200228857506000809381938293165af16200222c62002105565b6024906040519063463de9db60e01b82526004820152fd5b60ff60105416620028f857606081015115620028e65780516001600160a01b031615620028d45760018060a01b03602082015116600052600060205260ff6040600020541615620028c257602081015160408201516001600160a01b03908116911614620028b057620023186101208201516200290a565b620023286101408201516200290a565b60a081015160c082015160e08301518242116200289e578183116200288c578082116200287a57816200235b9162002065565b60075411620028685781620023709162002065565b6006541162002856576200238690429062002065565b600554116200284457610180810151604051620023c360208281620023b5818301968781519384920162001a6b565b810103808452018262001b3f565b519020604051600a54816000620023da8362001d90565b9260018116908115620028245750600114620027d3575b62002406925003601f19810183528262001b3f565b6020815191012003620027c1576e5af43d82803e903d91602b57fd5bf3600d54763d602d80600a3d3981f3363d3d373d3d3d363d7300000062ffffff8260881c16176000526effffffffffffffffffffffffffffff199060781b161760205260018060a01b03603760096000f0169081156200278357604051806105cb8101106001600160401b036105cb8301111762000539576105cb620039d382396105cb8101838152819003602001906000f091821562000d00576001549261ffff808516146200204f5761ffff6001818616011661ffff1985161760015561ffff8416600052600f6020526040600020826001600160601b0360a01b82541617905562002538620025206060850151610160860151519062002041565b6040850151849030906001600160a01b03166200213a565b813b15620002115760408051630170627160e31b81526004810182905284516001600160a01b0390811660448301526020808701518216606484015292860151166084820152606085015160a4820152608085015160c482015260a085015160e482015260c085015161010482015260e08501516101248201526101008501516101e06101448301525161022482019290925290600090829081906200265590620025e99061024484019062001a90565b61012089015180511515610164850152602001516001600160401b0316610184840152610140890151805115156101a4850152602001516001600160401b03166101c4840152610160890151516101e48401526101808901518382036043190161020485015262001a90565b6001600160a01b0386166024830152038183875af1801562000d005762002763575b50620027536200274461ffff927f1d8516ec56b1281623aae1185f9b8f9f8a54fdd2ca3b48a4206a9228d500bf769560018060a01b036040820151169560018060a01b036020830151169260018060a01b0383511690606084015160a08501519160c08601519360e0870151956101006080890151980151519860206040519e8f908152015260408d015260608c015260018060a01b031660808b015260a08a015260c089015260e08801526101008701526101208601526101a06101408601526101a085019062001a90565b83810361016085015262001dcd565b93166101808201528030930390a2565b926001600160401b03841162000539576040939093526200275362002677565b60405162461bcd60e51b8152602060048201526016602482015275115490cc4c4d8dce8818dc99585d194819985a5b195960521b6044820152606490fd5b604051635d0b6cc760e01b8152600490fd5b5050600a6000528160008051602062003f9e8339815191526000905b8382106200280957505060206200240692820101620023f1565b602091925080600191548385880101520191018391620027ef565b602092506200240694915060ff19168284015280151502820101620023f1565b604051635bdfbd0360e11b8152600490fd5b6040516372904fb160e01b8152600490fd5b6040516318861b4960e01b8152600490fd5b6040516349f8456b60e11b8152600490fd5b604051633060050d60e21b8152600490fd5b6040516341f01d5760e01b8152600490fd5b604051638b1202a160e01b8152600490fd5b60405163cc3ca47b60e01b8152600490fd5b6040516332db94d160e21b8152600490fd5b604051634d5bb2d560e11b8152600490fd5b604051634051e96160e01b8152600490fd5b80511515908162002930575b506200291e57565b604051632b39f6cb60e01b8152600490fd5b6001600160401b0391506020015116153862002916565b60018060a01b03169060405160408101908082106001600160401b038311176200053957620029bd916040526020938482527f5361666545524332303a206c6f772d6c6576656c2063616c6c206661696c6564858301526000808587829751910182855af1620029b662002105565b9162002a5f565b80519182159184831562002a31575b505050905015620029da5750565b6084906040519062461bcd60e51b82526004820152602a60248201527f5361666545524332303a204552433230206f7065726174696f6e20646964206e6044820152691bdd081cdd58d8d9595960b21b6064820152fd5b91938180945001031262002a5b5782015190811515820362002a58575080388084620029cc565b80fd5b5080fd5b9192901562002ac4575081511562002a75575090565b3b1562002a7f5790565b60405162461bcd60e51b815260206004820152601d60248201527f416464726573733a2063616c6c20746f206e6f6e2d636f6e74726163740000006044820152606490fd5b82519091501562002ad85750805190602001fd5b60405162461bcd60e51b81526020600482015290819062002afe90602483019062001a90565b0390fdfe6080806040523461001657610eb4908161001c8239f35b600080fdfe6080604081815260048036101561001557600080fd5b600091823560e01c63c4b2da591461002c57600080fd5b346103345760a0366003190112610334576001600160a01b0393823585811691908290036103385760249485359567ffffffffffffffff95868816809803610334576044359187831680930361033057606435938a851680950361028c576084359587156103225750891561031257428a106103125783156103025784156102f25785156102e2578751610a6e8082019c91908b8e11828f10176102cf578c9d82919d9a9b9c9d61041183398b815260209e8f820152878d820152036060019083f080156102c55716998951908c82016323b872dd60e01b815233858401528c60448401528860648401526064835260a0830192808410838511176102a55760e0810184811084821117610293578d528e84527f5361666545524332303a206c6f772d6c6576656c2063616c6c206661696c656460c0820152518491829190828b5af1903d156102b7573d8181116102a5578c5191601f8201601f19908116603f011683019081118382101761029357918f92916101b89594928f5281528581933d92013e5b8861033c565b8051918215918d8315610268575b5050509050156102135750508551938452878401528285015260608201528391907f515cf92d69f6cb24204f2d033637fc556ff95bd7c99a08bbd4d56500cab426db90608090a351908152f35b875162461bcd60e51b81529182018a9052602a908201527f5361666545524332303a204552433230206f7065726174696f6e20646964206e6044820152691bdd081cdd58d8d9595960b21b6064820152608490fd5b91938180945001031261028f578b015190811515820361028c57508038808d6101c6565b80fd5b5080fd5b634e487b7160e01b8652604188528686fd5b634e487b7160e01b8552604187528585fd5b50906101b8916060906101b2565b8a513d84823e3d90fd5b5050634e487b7160e01b82525060418352fd5b875163162908e360e11b81528390fd5b875163c1ab6dc160e01b81528390fd5b8751637616640160e01b81528390fd5b8751632ca4094f60e21b81528390fd5b631559b7d760e21b81528390fd5b8380fd5b8280fd5b8480fd5b9192901561039e5750815115610350575090565b3b156103595790565b60405162461bcd60e51b815260206004820152601d60248201527f416464726573733a2063616c6c20746f206e6f6e2d636f6e74726163740000006044820152606490fd5b8251909150156103b15750805190602001fd5b6040519062461bcd60e51b82528160208060048301528251908160248401526000935b8285106103f7575050604492506000838284010152601f80199101168101030190fd5b84810182015186860160440152938101938593506103d456fe60e0601f610a6e38819003918201601f19168301916001600160401b03831184841017610118578084926060946040528339810103126101135780516001600160a01b038116919082810361011357610066604061005f6020850161012e565b930161012e565b92156100bb5760805260a05260c05260405161092b9081610143823960805181818161021c0152818161035c0152610411015260a0518181816101090152610738015260c051818181610579015261076d0152f35b60405162461bcd60e51b815260206004820152602a60248201527f56657374696e6757616c6c65743a2062656e6566696369617279206973207a65604482015269726f206164647265737360b01b6064820152608490fd5b600080fd5b634e487b7160e01b600052604160045260246000fd5b51906001600160401b03821682036101135756fe60406080815260049081361015610020575b5050361561001e57600080fd5b005b600091823560e01c9081630a17b06b1461059d5781630fb5a6b414610558578163191655871461038b57816338af3eed14610347578163810ec23b1461030857816386d1a69f146101a55750806396132521146101895780639852595c14610152578063a3f8eace1461012d578063be9a6555146100e95763fbccedae0361001157346100e557816003193601126100e5576100de6020926100d9479154916100d48367ffffffffffffffff4216926105f0565b610729565b6106e4565b9051908152f35b5080fd5b50346100e557816003193601126100e5576020905167ffffffffffffffff7f0000000000000000000000000000000000000000000000000000000000000000168152f35b50346100e55760203660031901126100e5576020906100de61014d6105d5565b6106f1565b50346100e55760203660031901126100e55760209181906001600160a01b036101796105d5565b1681526001845220549051908152f35b50346100e557816003193601126100e557602091549051908152f35b9190503461030457826003193601126103045782546101e06101d9826100d94267ffffffffffffffff166100d483476105f0565b80926105f0565b84557fda9d4e5f101b8b9b1c5b76d0c5a9f7923571acfc02376aa076b75a8c080c956b60208351838152a18047106102c15783908190819081907f00000000000000000000000000000000000000000000000000000000000000006001600160a01b03165af161024e6107e1565b5015610258578280f35b906020608492519162461bcd60e51b8352820152603a60248201527f416464726573733a20756e61626c6520746f2073656e642076616c75652c207260448201527f6563697069656e74206d617920686176652072657665727465640000000000006064820152fd5b815162461bcd60e51b8152602081850152601d60248201527f416464726573733a20696e73756666696369656e742062616c616e63650000006044820152606490fd5b8280fd5b5050346100e557806003193601126100e5576103226105d5565b6024359267ffffffffffffffff8416840361034457506020926100de9161064b565b80fd5b5050346100e557816003193601126100e557517f00000000000000000000000000000000000000000000000000000000000000006001600160a01b03168152602090f35b919050346103045760209081600319360112610554576103a96105d5565b6103b2816106f1565b9060018060a01b0380911690818752600185528387206103d38482546105f0565b9055817fc0e523490dd523c33b1878c9eb14ff46991e3f5b2cd33710918618f2a39cba1b868651868152a28351928584019163a9059cbb60e01b83527f0000000000000000000000000000000000000000000000000000000000000000166024850152604484015260448352608083019267ffffffffffffffff818510818611176105415760c08201908111858210176105415785528584527f5361666545524332303a206c6f772d6c6576656c2063616c6c206661696c656460a0820152516104af9392918891829182855af16104a96107e1565b91610821565b805183811591821561051d575b50509050156104c9578380f35b5162461bcd60e51b815291820152602a60248201527f5361666545524332303a204552433230206f7065726174696f6e20646964206e6044820152691bdd081cdd58d8d9595960b21b606482015260849150fd5b838092935001031261053d57820151801515810361053d578083386104bc565b8480fd5b634e487b7160e01b895260418852602489fd5b8380fd5b5050346100e557816003193601126100e5576020905167ffffffffffffffff7f0000000000000000000000000000000000000000000000000000000000000000168152f35b905034610304576020366003190112610304573567ffffffffffffffff81168103610304576100de906100d4602094479054906105f0565b600435906001600160a01b03821682036105eb57565b600080fd5b919082018092116105fd57565b634e487b7160e01b600052601160045260246000fd5b90601f8019910116810190811067ffffffffffffffff82111761063557604052565b634e487b7160e01b600052604160045260246000fd5b6040516370a0823160e01b81523060048201526001600160a01b03919091169190602081602481865afa9081156106d8576000916106a4575b506100d4906106a1936000526001602052604060002054906105f0565b90565b90506020813d6020116106d0575b816106bf60209383610613565b810103126105eb57516106a1610684565b3d91506106b2565b6040513d6000823e3d90fd5b919082039182116105fd57565b6106a19061070967ffffffffffffffff42168261064b565b6001600160a01b03909116600090815260016020526040902054906106e4565b67ffffffffffffffff918216917f00000000000000000000000000000000000000000000000000000000000000008116908184101561076b5750505050600090565b7f0000000000000000000000000000000000000000000000000000000000000000169261079884836105f0565b8111156107a6575050905090565b906107b0916106e4565b908181029181830414901517156105fd5781156107cb570490565b634e487b7160e01b600052601260045260246000fd5b3d1561081c573d9067ffffffffffffffff82116106355760405191610810601f8201601f191660200184610613565b82523d6000602084013e565b606090565b919290156108835750815115610835575090565b3b1561083e5790565b60405162461bcd60e51b815260206004820152601d60248201527f416464726573733a2063616c6c20746f206e6f6e2d636f6e74726163740000006044820152606490fd5b8251909150156108965750805190602001fd5b6040519062461bcd60e51b82528160208060048301528251908160248401526000935b8285106108dc575050604492506000838284010152601f80199101168101030190fd5b84810182015186860160440152938101938593506108b956fea2646970667358221220f6235be43f7faaf5ef42395a12abc7ae732a090157a3385a315158d316c1bd6064736f6c63430008180033a2646970667358221220b5fa9168d47ec92b437bc6882b20dd0185841b3e3ae16ed623710a66d315987264736f6c6343000818003360a03461009557601f6105cb38819003918201601f19168301916001600160401b0383118484101761009a5780849260209460405283398101031261009557516001600160a01b03811680820361009557156100835760805260405161051a90816100b18239608051818181607e0152818160e1015281816101b701526102660152f35b604051635a3f066960e01b8152600490fd5b600080fd5b634e487b7160e01b600052604160045260246000fdfe6040608081526004908136101561001557600080fd5b60009160e08335811c90816316c1973914610333578163a3de7d1714610233578163c1ac10261461011457508063e82bb126146100cc5763fb33ce811461005b57600080fd5b346100c857816003193601126100c857610073610456565b6001600160a01b03917f0000000000000000000000000000000000000000000000000000000000000000831633036100ba5750168252816020526007602435918320015580f35b8351631a27eac360e11b8152fd5b8280fd5b505034610110578160031936011261011057517f00000000000000000000000000000000000000000000000000000000000000006001600160a01b03168152602090f35b5080fd5b848385346100c8576101203660031901126100c857610131610456565b9361010036602319011261022f57610147610471565b92602435845260208401906044358252610160366104c8565b848601908152606086016084358152602060a31936011261022b576101836104a8565b9160a43583526080880192835260a088019460c435865260c089019660e435885289019761010435895260018060a01b03807f000000000000000000000000000000000000000000000000000000000000000016330361021b5760079a9b9c168c528b6020528b2099518a555160018a0155515160028901555160038801555151908601555160058501555160068401555191015580f35b8151631a27eac360e11b81528790fd5b8780fd5b8380fd5b84848492346100c85760803660031901126100c857610250610456565b9061025a366104c8565b926001600160a01b03907f000000000000000000000000000000000000000000000000000000000000000082163303610324579585966007959661029c6104a8565b526102a56104a8565b908882526102b1610471565b976024358952602089016044358152828a0191825260608a019242845260808b0194855260a08b01968c885260c08c01988d8a528c01998d8b52168c528b6020528b2099518a555160018a0155515160028901555160038801555151908601555160058501555160068401555191015580f35b51631a27eac360e11b81528690fd5b9190503461022f57602036600319011261022f578261010094610354610456565b818561035e610471565b82815282602082015261036f6104a8565b838152868201528260608201526103846104a8565b838152608082015260a0810183905260c0810183905201526001600160a01b031681526020819052206103b5610471565b9381548552600182015492602086019384526103cf6104a8565b9160028401548352808701928352600384015490606088019182526103f26104a8565b9285015483526080880192835260058501549360a08901948552600760068701549660c08b01978852015496888a01978852825199518a525160208a0152515190880152516060870152515160808601525160a08501525160c08401525190820152f35b600435906001600160a01b038216820361046c57565b600080fd5b60405190610100820182811067ffffffffffffffff82111761049257604052565b634e487b7160e01b600052604160045260246000fd5b604051906020820182811067ffffffffffffffff82111761049257604052565b602090606319011261046c576104dc6104a8565b90606435825256fea2646970667358221220f9197761eae1a8839a6606c94eed8300af1b83793252e9badea713839d2d9ea864736f6c63430008180033c65a7bb8d6351c1cf70c95a316cc6a92839c986682d98bc35f958f4883f9d2a80411b059ef29e41429d7aa233c3c43e82806856b23c24bfb1f9e4c6efa5689a1a26469706673582212202cd4c85aed4424e153ea4cd002a04760052cbe099d205d4c8d1a13d13f45079d64736f6c63430008180033",
  "devdoc": {
    "details": "Factory contract for creating and managing token streams",
    "kind": "dev",
    "methods": {
      "constructor": {
        "details": "Constructor to set the protocol admin",
        "params": {
          "protocolAdmin": "Address of the protocol admin"
        }
      },
      "createStream((address,address,address,uint256,uint256,uint256,uint256,uint256,(string),(bool,uint64),(bool,uint64),(uint256),string))": {
        "details": "Creates a new stream with the provided configuration",
        "params": {
          "createStreamMessage": "Stream creation parameters"
        }
      },
      "getAcceptedInSupplyTokens()": {
        "details": "Get all accepted input supply tokens",
        "returns": {
          "_0": "Array of accepted token addresses"
        }
      },
      "getParams()": {
        "details": "Get factory parameters",
        "returns": {
          "_0": "Factory parameters"
        }
      },
      "getStream(uint16)": {
        "details": "Get stream address by ID",
        "params": {
          "streamId": "Stream ID"
        },
        "returns": {
          "_0": "Stream address"
        }
      },
      "getStreams()": {
        "details": "Get all stream addresses",
        "returns": {
          "_0": "Array of stream addresses"
        }
      },
      "initialize((uint256,address,(uint256),uint256,uint256,uint256,address,address,string,address,address,address[],address))": {
        "details": "Initializes the factory with the provided configuration",
        "params": {
          "initializeStreamMessage": "Factory initialization parameters"
        }
      },
      "isAcceptedInSupplyToken(address)": {
        "details": "Check if a token is accepted as input supply token",
        "params": {
          "token": "Token address to check"
        },
        "returns": {
          "_0": "True if the token is accepted"
        }
      },
      "isStream(address)": {
        "details": "Check if an address is a stream created by this factory",
        "params": {
          "streamAddress": "Address to check"
        },
        "returns": {
          "_0": "True if the address is a stream"
        }
      },
      "setFrozen(bool)": {
        "details": "Sets the frozen state of the factory",
        "params": {
          "isFrozen": "Whether the factory should be frozen"
        }
      },
      "updateAcceptedTokens(address[],address[])": {
        "details": "Updates the list of accepted input supply tokens",
        "params": {
          "tokensToAdd": "Array of token addresses to add",
          "tokensToRemove": "Array of token addresses to remove"
        }
      },
      "updateExitFeeRatio((uint256))": {
        "details": "Updates the exit fee ratio",
        "params": {
          "exitFeeRatio": "New exit fee ratio"
        }
      },
      "updateFeeCollector(address)": {
        "details": "Updates the fee collector address",
        "params": {
          "feeCollector": "New fee collector address"
        }
      },
      "updateMinBootstrappingDuration(uint256)": {
        "details": "Updates the minimum bootstrapping duration",
        "params": {
          "minBootstrappingDuration": "New minimum bootstrapping duration"
        }
      },
      "updateMinStreamDuration(uint256)": {
        "details": "Updates the minimum stream duration",
        "params": {
          "minStreamDuration": "New minimum stream duration"
        }
      },
      "updateMinWaitingDuration(uint256)": {
        "details": "Updates the minimum waiting duration",
        "params": {
          "minWaitingDuration": "New minimum waiting duration"
        }
      },
      "updatePoolWrapper(address)": {
        "details": "Updates the pool wrapper address",
        "params": {
          "poolWrapper": "New pool wrapper address"
        }
      },
      "updateProtocolAdmin(address)": {
        "details": "Updates the protocol admin address",
        "params": {
          "protocolAdmin": "New protocol admin address"
        }
      },
      "updateStreamCreationFee(uint256)": {
        "details": "Updates the stream creation fee",
        "params": {
          "streamCreationFee": "New creation fee amount"
        }
      },
      "updateStreamCreationFeeToken(address)": {
        "details": "Updates the stream creation fee token",
        "params": {
          "streamCreationFeeToken": "New fee token address"
        }
      },
      "updateStreamImplementation(address)": {
        "details": "Updates the stream implementation address",
        "params": {
          "implementation": "New stream implementation address"
        }
      },
      "updateTosVersion(string)": {
        "details": "Updates the TOS version",
        "params": {
          "tosVersion": "New TOS version"
        }
      }
    },
    "title": "StreamFactory",
    "version": 1
  },
  "userdoc": {
    "kind": "user",
    "methods": {
      "acceptedInSupplyTokens(address)": {
        "notice": "Mapping of accepted input supply tokens"
      },
      "createStream((address,address,address,uint256,uint256,uint256,uint256,uint256,(string),(bool,uint64),(bool,uint64),(uint256),string))": {
        "notice": "Anyone can create a stream if they provide the required tokens and fees"
      },
      "currentStreamId()": {
        "notice": "Current stream ID counter"
      },
      "frozen()": {
        "notice": "Flag to freeze stream creation"
      },
      "initialize((uint256,address,(uint256),uint256,uint256,uint256,address,address,string,address,address,address[],address))": {
        "notice": "This function can only be called once by the admin"
      },
      "initialized()": {
        "notice": "Flag to ensure initialization happens only once"
      },
      "params()": {
        "notice": "Factory parameters"
      },
      "streamAddresses(uint16)": {
        "notice": "Mapping of stream ID to stream address"
      }
    },
    "notice": "Handles stream creation, parameter management, and accepted token management",
    "version": 1
  },
  "storageLayout": {
    "storage": [
      {
        "astId": 3580,
        "contract": "src/StreamFactory.sol:StreamFactory",
        "label": "acceptedInSupplyTokens",
        "offset": 0,
        "slot": "0",
        "type": "t_mapping(t_address,t_bool)"
      },
      {
        "astId": 3583,
        "contract": "src/StreamFactory.sol:StreamFactory",
        "label": "currentStreamId",
        "offset": 0,
        "slot": "1",
        "type": "t_uint16"
      },
      {
        "astId": 3587,
        "contract": "src/StreamFactory.sol:StreamFactory",
        "label": "params",
        "offset": 0,
        "slot": "2",
        "type": "t_struct(Params)6973_storage"
      },
      {
        "astId": 3592,
        "contract": "src/StreamFactory.sol:StreamFactory",
        "label": "streamAddresses",
        "offset": 0,
        "slot": "15",
        "type": "t_mapping(t_uint16,t_address)"
      },
      {
        "astId": 3595,
        "contract": "src/StreamFactory.sol:StreamFactory",
        "label": "frozen",
        "offset": 0,
        "slot": "16",
        "type": "t_bool"
      },
      {
        "astId": 3598,
        "contract": "src/StreamFactory.sol:StreamFactory",
        "label": "initialized",
        "offset": 1,
        "slot": "16",
        "type": "t_bool"
      }
    ],
    "types": {
      "t_address": {
        "encoding": "inplace",
        "label": "address",
        "numberOfBytes": "20"
      },
      "t_bool": {
        "encoding": "inplace",
        "label": "bool",
        "numberOfBytes": "1"
      },
      "t_mapping(t_address,t_bool)": {
        "encoding": "mapping",
        "key": "t_address",
        "label": "mapping(address => bool)",
        "numberOfBytes": "32",
        "value": "t_bool"
      },
      "t_mapping(t_uint16,t_address)": {
        "encoding": "mapping",
        "key": "t_uint16",
        "label": "mapping(uint16 => address)",
        "numberOfBytes": "32",
        "value": "t_address"
      },
      "t_string_storage": {
        "encoding": "bytes",
        "label": "string",
        "numberOfBytes": "32"
      },
      "t_struct(Decimal)5962_storage": {
        "encoding": "inplace",
        "label": "struct Decimal",
        "members": [
          {
            "astId": 5961,
            "contract": "src/StreamFactory.sol:StreamFactory",
            "label": "value",
            "offset": 0,
            "slot": "0",
            "type": "t_uint256"
          }
        ],
        "numberOfBytes": "32"
      },
      "t_struct(Params)6973_storage": {
        "encoding": "inplace",
        "label": "struct StreamFactoryTypes.Params",
        "members": [
          {
            "astId": 6947,
            "contract": "src/StreamFactory.sol:StreamFactory",
            "label": "streamCreationFee",
            "offset": 0,
            "slot": "0",
            "type": "t_uint256"
          },
          {
            "astId": 6949,
            "contract": "src/StreamFactory.sol:StreamFactory",
            "label": "streamCreationFeeToken",
            "offset": 0,
            "slot": "1",
            "type": "t_address"
          },
          {
            "astId": 6952,
            "contract": "src/StreamFactory.sol:StreamFactory",
            "label": "exitFeeRatio",
            "offset": 0,
            "slot": "2",
            "type": "t_struct(Decimal)5962_storage"
          },
          {
            "astId": 6954,
            "contract": "src/StreamFactory.sol:StreamFactory",
            "label": "minWaitingDuration",
            "offset": 0,
            "slot": "3",
            "type": "t_uint256"
          },
          {
            "astId": 6956,
            "contract": "src/StreamFactory.sol:StreamFactory",
            "label": "minBootstrappingDuration",
            "offset": 0,
            "slot": "4",
            "type": "t_uint256"
          },
          {
            "astId": 6958,
            "contract": "src/StreamFactory.sol:StreamFactory",
            "label": "minStreamDuration",
            "offset": 0,
            "slot": "5",
            "type": "t_uint256"
          },
          {
            "astId": 6960,
            "contract": "src/StreamFactory.sol:StreamFactory",
            "label": "feeCollector",
            "offset": 0,
            "slot": "6",
            "type": "t_address"
          },
          {
            "astId": 6962,
            "contract": "src/StreamFactory.sol:StreamFactory",
            "label": "protocolAdmin",
            "offset": 0,
            "slot": "7",
            "type": "t_address"
          },
          {
            "astId": 6964,
            "contract": "src/StreamFactory.sol:StreamFactory",
            "label": "tosVersion",
            "offset": 0,
            "slot": "8",
            "type": "t_string_storage"
          },
          {
            "astId": 6966,
            "contract": "src/StreamFactory.sol:StreamFactory",
            "label": "vestingFactoryAddress",
            "offset": 0,
            "slot": "9",
            "type": "t_address"
          },
          {
            "astId": 6968,
            "contract": "src/StreamFactory.sol:StreamFactory",
            "label": "poolWrapperAddress",
            "offset": 0,
            "slot": "10",
            "type": "t_address"
          },
          {
            "astId": 6970,
            "contract": "src/StreamFactory.sol:StreamFactory",
            "label": "streamImplementationAddress",
            "offset": 0,
            "slot": "11",
            "type": "t_address"
          },
          {
            "astId": 6972,
            "contract": "src/StreamFactory.sol:StreamFactory",
            "label": "tokenFactoryAddress",
            "offset": 0,
            "slot": "12",
            "type": "t_address"
          }
        ],
        "numberOfBytes": "416"
      },
      "t_uint16": {
        "encoding": "inplace",
        "label": "uint16",
        "numberOfBytes": "2"
      },
      "t_uint256": {
        "encoding": "inplace",
        "label": "uint256",
        "numberOfBytes": "32"
      }
    }
  }
}