{
  "address": "0x132e4E7CC46d0e3607DE161e02453a27C9333874",
  "abi": [
    {
      "inputs": [
        {
          "internalType": "uint256",
          "name": "_streamCreationFee",
          "type": "uint256"
        },
        {
          "internalType": "address",
          "name": "_streamCreationFeeToken",
          "type": "address"
        },
        {
          "components": [
            {
              "internalType": "uint256",
              "name": "value",
              "type": "uint256"
            }
          ],
          "internalType": "struct Decimal",
          "name": "_exitFeeRatio",
          "type": "tuple"
        },
        {
          "internalType": "uint256",
          "name": "_minWaitingDuration",
          "type": "uint256"
        },
        {
          "internalType": "uint256",
          "name": "_minBootstrappingDuration",
          "type": "uint256"
        },
        {
          "internalType": "uint256",
          "name": "_minStreamDuration",
          "type": "uint256"
        },
        {
          "internalType": "address[]",
          "name": "_acceptedInSupplyTokens",
          "type": "address[]"
        },
        {
          "internalType": "address",
          "name": "_feeCollector",
          "type": "address"
        },
        {
          "internalType": "address",
          "name": "_protocolAdmin",
          "type": "address"
        },
        {
          "internalType": "string",
          "name": "_tosVersion",
          "type": "string"
        }
      ],
      "stateMutability": "nonpayable",
      "type": "constructor"
    },
    {
      "inputs": [],
      "name": "BootstrappingDurationTooShort",
      "type": "error"
    },
    {
      "inputs": [],
      "name": "ContractFrozen",
      "type": "error"
    },
    {
      "inputs": [],
      "name": "FeeTransferFailed",
      "type": "error"
    },
    {
      "inputs": [],
      "name": "InsufficientNativeToken",
      "type": "error"
    },
    {
      "inputs": [],
      "name": "InsufficientOutAmount",
      "type": "error"
    },
    {
      "inputs": [
        {
          "internalType": "uint256",
          "name": "requiredTokenAmount",
          "type": "uint256"
        },
        {
          "internalType": "uint256",
          "name": "tokenBalance",
          "type": "uint256"
        }
      ],
      "name": "InsufficientTokenPayment",
      "type": "error"
    },
    {
      "inputs": [],
      "name": "InvalidBootstrappingStartTime",
      "type": "error"
    },
    {
      "inputs": [],
      "name": "InvalidBootstrappingTime",
      "type": "error"
    },
    {
      "inputs": [],
      "name": "InvalidExitCondition",
      "type": "error"
    },
    {
      "inputs": [],
      "name": "InvalidExitFeeRatio",
      "type": "error"
    },
    {
      "inputs": [],
      "name": "InvalidFeeCollector",
      "type": "error"
    },
    {
      "inputs": [],
      "name": "InvalidInSupplyToken",
      "type": "error"
    },
    {
      "inputs": [],
      "name": "InvalidOutSupplyToken",
      "type": "error"
    },
    {
      "inputs": [],
      "name": "InvalidPosition",
      "type": "error"
    },
    {
      "inputs": [],
      "name": "InvalidProtocolAdmin",
      "type": "error"
    },
    {
      "inputs": [],
      "name": "InvalidStreamEndTime",
      "type": "error"
    },
    {
      "inputs": [],
      "name": "InvalidStreamStartTime",
      "type": "error"
    },
    {
      "inputs": [],
      "name": "InvalidToSVersion",
      "type": "error"
    },
    {
      "inputs": [],
      "name": "InvalidVestingCliffDuration",
      "type": "error"
    },
    {
      "inputs": [],
      "name": "InvalidVestingDuration",
      "type": "error"
    },
    {
      "inputs": [],
      "name": "InvalidWithdrawAmount",
      "type": "error"
    },
    {
      "inputs": [],
      "name": "NotAdmin",
      "type": "error"
    },
    {
      "inputs": [],
      "name": "OperationNotAllowed",
      "type": "error"
    },
    {
      "inputs": [],
      "name": "PaymentFailed",
      "type": "error"
    },
    {
      "inputs": [],
      "name": "StreamAddressPredictionFailed",
      "type": "error"
    },
    {
      "inputs": [],
      "name": "StreamDurationTooShort",
      "type": "error"
    },
    {
      "inputs": [],
      "name": "StreamEndMustBeAfterStart",
      "type": "error"
    },
    {
      "inputs": [],
      "name": "StreamInputTokenNotAccepted",
      "type": "error"
    },
    {
      "inputs": [],
      "name": "StreamStartMustBeAfterBootstrapping",
      "type": "error"
    },
    {
      "inputs": [],
      "name": "TokenTransferFailed",
      "type": "error"
    },
    {
      "inputs": [],
      "name": "Unauthorized",
      "type": "error"
    },
    {
      "inputs": [],
      "name": "WaitingDurationTooShort",
      "type": "error"
    },
    {
      "inputs": [
        {
          "internalType": "uint256",
          "name": "cap",
          "type": "uint256"
        }
      ],
      "name": "WithdrawAmountExceedsBalance",
      "type": "error"
    },
    {
      "inputs": [],
      "name": "ZeroOutSupplyNotAllowed",
      "type": "error"
    },
    {
      "anonymous": false,
      "inputs": [
        {
          "indexed": true,
          "internalType": "address",
          "name": "factory",
          "type": "address"
        },
        {
          "indexed": false,
          "internalType": "address[]",
          "name": "tokensAdded",
          "type": "address[]"
        },
        {
          "indexed": false,
          "internalType": "address[]",
          "name": "tokensRemoved",
          "type": "address[]"
        }
      ],
      "name": "AcceptedTokensUpdated",
      "type": "event"
    },
    {
      "anonymous": false,
      "inputs": [
        {
          "indexed": true,
          "internalType": "address",
          "name": "streamAddress",
          "type": "address"
        },
        {
          "indexed": true,
          "internalType": "address",
          "name": "subscriber",
          "type": "address"
        },
        {
          "indexed": false,
          "internalType": "uint256",
          "name": "purchased",
          "type": "uint256"
        },
        {
          "indexed": false,
          "internalType": "uint256",
          "name": "spentIn",
          "type": "uint256"
        },
        {
          "indexed": false,
          "internalType": "uint256",
          "name": "exitTimestamp",
          "type": "uint256"
        }
      ],
      "name": "Exited",
      "type": "event"
    },
    {
      "anonymous": false,
      "inputs": [
        {
          "indexed": true,
          "internalType": "address",
          "name": "factory",
          "type": "address"
        },
        {
          "indexed": false,
          "internalType": "address",
          "name": "newFeeCollector",
          "type": "address"
        }
      ],
      "name": "FeeCollectorUpdated",
      "type": "event"
    },
    {
      "anonymous": false,
      "inputs": [
        {
          "indexed": true,
          "internalType": "address",
          "name": "factory",
          "type": "address"
        },
        {
          "indexed": false,
          "internalType": "bool",
          "name": "frozen",
          "type": "bool"
        }
      ],
      "name": "FrozenStateUpdated",
      "type": "event"
    },
    {
      "anonymous": false,
      "inputs": [
        {
          "indexed": true,
          "internalType": "address",
          "name": "factory",
          "type": "address"
        },
        {
          "indexed": false,
          "internalType": "uint256",
          "name": "streamCreationFee",
          "type": "uint256"
        },
        {
          "indexed": false,
          "internalType": "uint256",
          "name": "exitFeeRatio",
          "type": "uint256"
        },
        {
          "indexed": false,
          "internalType": "uint256",
          "name": "minWaitingDuration",
          "type": "uint256"
        },
        {
          "indexed": false,
          "internalType": "uint256",
          "name": "minBootstrappingDuration",
          "type": "uint256"
        },
        {
          "indexed": false,
          "internalType": "uint256",
          "name": "minStreamDuration",
          "type": "uint256"
        },
        {
          "indexed": false,
          "internalType": "string",
          "name": "tosVersion",
          "type": "string"
        }
      ],
      "name": "ParamsUpdated",
      "type": "event"
    },
    {
      "anonymous": false,
      "inputs": [
        {
          "indexed": true,
          "internalType": "address",
          "name": "factory",
          "type": "address"
        },
        {
          "indexed": false,
          "internalType": "address",
          "name": "newProtocolAdmin",
          "type": "address"
        }
      ],
      "name": "ProtocolAdminUpdated",
      "type": "event"
    },
    {
      "anonymous": false,
      "inputs": [
        {
          "indexed": true,
          "internalType": "address",
          "name": "streamAddress",
          "type": "address"
        },
        {
          "indexed": false,
          "internalType": "address",
          "name": "creator",
          "type": "address"
        },
        {
          "indexed": false,
          "internalType": "uint256",
          "name": "outSupply",
          "type": "uint256"
        },
        {
          "indexed": false,
          "internalType": "enum IStreamTypes.Status",
          "name": "status",
          "type": "uint8"
        }
      ],
      "name": "StreamCancelled",
      "type": "event"
    },
    {
      "anonymous": false,
      "inputs": [
        {
          "indexed": true,
          "internalType": "address",
          "name": "streamOutToken",
          "type": "address"
        },
        {
          "indexed": true,
          "internalType": "address",
          "name": "streamInToken",
          "type": "address"
        },
        {
          "indexed": true,
          "internalType": "address",
          "name": "streamFactoryAddress",
          "type": "address"
        },
        {
          "indexed": false,
          "internalType": "uint256",
          "name": "streamOutAmount",
          "type": "uint256"
        },
        {
          "indexed": false,
          "internalType": "uint256",
          "name": "bootstrappingStartTime",
          "type": "uint256"
        },
        {
          "indexed": false,
          "internalType": "uint256",
          "name": "streamStartTime",
          "type": "uint256"
        },
        {
          "indexed": false,
          "internalType": "uint256",
          "name": "streamEndTime",
          "type": "uint256"
        },
        {
          "indexed": false,
          "internalType": "uint256",
          "name": "threshold",
          "type": "uint256"
        },
        {
          "indexed": false,
          "internalType": "string",
          "name": "streamName",
          "type": "string"
        },
        {
          "indexed": false,
          "internalType": "string",
          "name": "tosVersion",
          "type": "string"
        },
        {
          "indexed": false,
          "internalType": "address",
          "name": "streamAddress",
          "type": "address"
        },
        {
          "indexed": false,
          "internalType": "uint16",
          "name": "streamId",
          "type": "uint16"
        }
      ],
      "name": "StreamCreated",
      "type": "event"
    },
    {
      "anonymous": false,
      "inputs": [
        {
          "indexed": true,
          "internalType": "address",
          "name": "streamAddress",
          "type": "address"
        },
        {
          "indexed": true,
          "internalType": "address",
          "name": "creator",
          "type": "address"
        },
        {
          "indexed": false,
          "internalType": "uint256",
          "name": "creatorRevenue",
          "type": "uint256"
        },
        {
          "indexed": false,
          "internalType": "uint256",
          "name": "exitFeeAmount",
          "type": "uint256"
        },
        {
          "indexed": false,
          "internalType": "enum IStreamTypes.Status",
          "name": "status",
          "type": "uint8"
        }
      ],
      "name": "StreamFinalized",
      "type": "event"
    },
    {
      "anonymous": false,
      "inputs": [
        {
          "indexed": true,
          "internalType": "address",
          "name": "streamAddress",
          "type": "address"
        },
        {
          "indexed": false,
          "internalType": "enum IStreamTypes.Status",
          "name": "mainStatus",
          "type": "uint8"
        },
        {
          "indexed": false,
          "internalType": "uint256",
          "name": "lastUpdated",
          "type": "uint256"
        }
      ],
      "name": "StreamSynced",
      "type": "event"
    },
    {
      "anonymous": false,
      "inputs": [
        {
          "indexed": true,
          "internalType": "address",
          "name": "streamAddress",
          "type": "address"
        },
        {
          "indexed": false,
          "internalType": "uint256",
          "name": "lastUpdated",
          "type": "uint256"
        },
        {
          "indexed": false,
          "internalType": "uint8",
          "name": "newStatus",
          "type": "uint8"
        },
        {
          "components": [
            {
              "internalType": "uint256",
              "name": "value",
              "type": "uint256"
            }
          ],
          "indexed": false,
          "internalType": "struct Decimal",
          "name": "distIndex",
          "type": "tuple"
        },
        {
          "indexed": false,
          "internalType": "uint256",
          "name": "outRemaining",
          "type": "uint256"
        },
        {
          "indexed": false,
          "internalType": "uint256",
          "name": "inSupply",
          "type": "uint256"
        },
        {
          "indexed": false,
          "internalType": "uint256",
          "name": "spentIn",
          "type": "uint256"
        },
        {
          "components": [
            {
              "internalType": "uint256",
              "name": "value",
              "type": "uint256"
            }
          ],
          "indexed": false,
          "internalType": "struct Decimal",
          "name": "currentStreamedPrice",
          "type": "tuple"
        }
      ],
      "name": "StreamSynced",
      "type": "event"
    },
    {
      "anonymous": false,
      "inputs": [
        {
          "indexed": true,
          "internalType": "address",
          "name": "streamAddress",
          "type": "address"
        },
        {
          "indexed": true,
          "internalType": "address",
          "name": "subscriber",
          "type": "address"
        },
        {
          "indexed": false,
          "internalType": "uint256",
          "name": "amountIn",
          "type": "uint256"
        },
        {
          "indexed": false,
          "internalType": "uint256",
          "name": "newShares",
          "type": "uint256"
        },
        {
          "indexed": false,
          "internalType": "uint256",
          "name": "totalSharesAfter",
          "type": "uint256"
        },
        {
          "indexed": false,
          "internalType": "uint256",
          "name": "totalInSupplyAfter",
          "type": "uint256"
        }
      ],
      "name": "Subscribed",
      "type": "event"
    },
    {
      "anonymous": false,
      "inputs": [
        {
          "indexed": true,
          "internalType": "address",
          "name": "factoryAddress",
          "type": "address"
        },
        {
          "indexed": false,
          "internalType": "address",
          "name": "vestingContract",
          "type": "address"
        }
      ],
      "name": "VestingContractDeployed",
      "type": "event"
    },
    {
      "anonymous": false,
      "inputs": [
        {
          "indexed": true,
          "internalType": "address",
          "name": "streamAddress",
          "type": "address"
        },
        {
          "indexed": true,
          "internalType": "address",
          "name": "subscriber",
          "type": "address"
        },
        {
          "indexed": false,
          "internalType": "uint256",
          "name": "remainingInBalance",
          "type": "uint256"
        },
        {
          "indexed": false,
          "internalType": "uint256",
          "name": "remainingShares",
          "type": "uint256"
        },
        {
          "indexed": false,
          "internalType": "uint256",
          "name": "totalInSupply",
          "type": "uint256"
        },
        {
          "indexed": false,
          "internalType": "uint256",
          "name": "totalShares",
          "type": "uint256"
        }
      ],
      "name": "Withdrawn",
      "type": "event"
    },
    {
      "inputs": [],
      "name": "NATIVE_TOKEN",
      "outputs": [
        {
          "internalType": "address",
          "name": "",
          "type": "address"
        }
      ],
      "stateMutability": "view",
      "type": "function"
    },
    {
      "inputs": [
        {
          "internalType": "address",
          "name": "",
          "type": "address"
        }
      ],
      "name": "acceptedInSupplyTokens",
      "outputs": [
        {
          "internalType": "bool",
          "name": "",
          "type": "bool"
        }
      ],
      "stateMutability": "view",
      "type": "function"
    },
    {
      "inputs": [
        {
          "internalType": "uint256",
          "name": "_streamOutAmount",
          "type": "uint256"
        },
        {
          "internalType": "address",
          "name": "_outSupplyToken",
          "type": "address"
        },
        {
          "internalType": "uint256",
          "name": "_bootstrappingStartTime",
          "type": "uint256"
        },
        {
          "internalType": "uint256",
          "name": "_streamStartTime",
          "type": "uint256"
        },
        {
          "internalType": "uint256",
          "name": "_streamEndTime",
          "type": "uint256"
        },
        {
          "internalType": "uint256",
          "name": "_threshold",
          "type": "uint256"
        },
        {
          "internalType": "string",
          "name": "_name",
          "type": "string"
        },
        {
          "internalType": "address",
          "name": "_inSupplyToken",
          "type": "address"
        },
        {
          "internalType": "string",
          "name": "_tosVersion",
          "type": "string"
        },
        {
          "internalType": "bytes32",
          "name": "_salt",
          "type": "bytes32"
        },
        {
          "components": [
            {
              "internalType": "bool",
              "name": "isVestingEnabled",
              "type": "bool"
            },
            {
              "internalType": "uint16",
              "name": "vestingDuration",
              "type": "uint16"
            },
            {
              "internalType": "uint16",
              "name": "cliffDuration",
              "type": "uint16"
            }
          ],
          "internalType": "struct IStreamTypes.VestingInfo",
          "name": "_creatorVestingInfo",
          "type": "tuple"
        },
        {
          "components": [
            {
              "internalType": "bool",
              "name": "isVestingEnabled",
              "type": "bool"
            },
            {
              "internalType": "uint16",
              "name": "vestingDuration",
              "type": "uint16"
            },
            {
              "internalType": "uint16",
              "name": "cliffDuration",
              "type": "uint16"
            }
          ],
          "internalType": "struct IStreamTypes.VestingInfo",
          "name": "_beneficiaryVestingInfo",
          "type": "tuple"
        }
      ],
      "name": "createStream",
      "outputs": [],
      "stateMutability": "payable",
      "type": "function"
    },
    {
      "inputs": [],
      "name": "currentStreamId",
      "outputs": [
        {
          "internalType": "uint16",
          "name": "",
          "type": "uint16"
        }
      ],
      "stateMutability": "view",
      "type": "function"
    },
    {
      "inputs": [],
      "name": "frozen",
      "outputs": [
        {
          "internalType": "bool",
          "name": "",
          "type": "bool"
        }
      ],
      "stateMutability": "view",
      "type": "function"
    },
    {
      "inputs": [],
      "name": "getAcceptedInSupplyTokens",
      "outputs": [
        {
          "internalType": "address[]",
          "name": "",
          "type": "address[]"
        }
      ],
      "stateMutability": "view",
      "type": "function"
    },
    {
      "inputs": [],
      "name": "getParams",
      "outputs": [
        {
          "components": [
            {
              "internalType": "uint256",
              "name": "streamCreationFee",
              "type": "uint256"
            },
            {
              "internalType": "address",
              "name": "streamCreationFeeToken",
              "type": "address"
            },
            {
              "components": [
                {
                  "internalType": "uint256",
                  "name": "value",
                  "type": "uint256"
                }
              ],
              "internalType": "struct Decimal",
              "name": "exitFeeRatio",
              "type": "tuple"
            },
            {
              "internalType": "uint256",
              "name": "minWaitingDuration",
              "type": "uint256"
            },
            {
              "internalType": "uint256",
              "name": "minBootstrappingDuration",
              "type": "uint256"
            },
            {
              "internalType": "uint256",
              "name": "minStreamDuration",
              "type": "uint256"
            },
            {
              "internalType": "address",
              "name": "feeCollector",
              "type": "address"
            },
            {
              "internalType": "address",
              "name": "protocolAdmin",
              "type": "address"
            },
            {
              "internalType": "string",
              "name": "tosVersion",
              "type": "string"
            },
            {
              "internalType": "address",
              "name": "vestingAddress",
              "type": "address"
            }
          ],
          "internalType": "struct StreamFactory.Params",
          "name": "",
          "type": "tuple"
        }
      ],
      "stateMutability": "view",
      "type": "function"
    },
    {
      "inputs": [
        {
          "internalType": "uint16",
          "name": "_streamId",
          "type": "uint16"
        }
      ],
      "name": "getStream",
      "outputs": [
        {
          "internalType": "address",
          "name": "",
          "type": "address"
        }
      ],
      "stateMutability": "view",
      "type": "function"
    },
    {
      "inputs": [],
      "name": "getStreams",
      "outputs": [
        {
          "internalType": "address[]",
          "name": "",
          "type": "address[]"
        }
      ],
      "stateMutability": "view",
      "type": "function"
    },
    {
      "inputs": [
        {
          "internalType": "address",
          "name": "token",
          "type": "address"
        }
      ],
      "name": "isAcceptedInSupplyToken",
      "outputs": [
        {
          "internalType": "bool",
          "name": "",
          "type": "bool"
        }
      ],
      "stateMutability": "view",
      "type": "function"
    },
    {
      "inputs": [
        {
          "internalType": "address",
          "name": "_streamAddress",
          "type": "address"
        }
      ],
      "name": "isStream",
      "outputs": [
        {
          "internalType": "bool",
          "name": "",
          "type": "bool"
        }
      ],
      "stateMutability": "view",
      "type": "function"
    },
    {
      "inputs": [],
      "name": "params",
      "outputs": [
        {
          "internalType": "uint256",
          "name": "streamCreationFee",
          "type": "uint256"
        },
        {
          "internalType": "address",
          "name": "streamCreationFeeToken",
          "type": "address"
        },
        {
          "components": [
            {
              "internalType": "uint256",
              "name": "value",
              "type": "uint256"
            }
          ],
          "internalType": "struct Decimal",
          "name": "exitFeeRatio",
          "type": "tuple"
        },
        {
          "internalType": "uint256",
          "name": "minWaitingDuration",
          "type": "uint256"
        },
        {
          "internalType": "uint256",
          "name": "minBootstrappingDuration",
          "type": "uint256"
        },
        {
          "internalType": "uint256",
          "name": "minStreamDuration",
          "type": "uint256"
        },
        {
          "internalType": "address",
          "name": "feeCollector",
          "type": "address"
        },
        {
          "internalType": "address",
          "name": "protocolAdmin",
          "type": "address"
        },
        {
          "internalType": "string",
          "name": "tosVersion",
          "type": "string"
        },
        {
          "internalType": "address",
          "name": "vestingAddress",
          "type": "address"
        }
      ],
      "stateMutability": "view",
      "type": "function"
    },
    {
      "inputs": [
        {
          "internalType": "address",
          "name": "creator",
          "type": "address"
        },
        {
          "internalType": "bytes32",
          "name": "_salt",
          "type": "bytes32"
        },
        {
          "internalType": "bytes32",
          "name": "bytecodeHash",
          "type": "bytes32"
        }
      ],
      "name": "predictAddress",
      "outputs": [
        {
          "internalType": "address",
          "name": "",
          "type": "address"
        }
      ],
      "stateMutability": "pure",
      "type": "function"
    },
    {
      "inputs": [
        {
          "internalType": "bool",
          "name": "_frozen",
          "type": "bool"
        }
      ],
      "name": "setFrozen",
      "outputs": [],
      "stateMutability": "nonpayable",
      "type": "function"
    },
    {
      "inputs": [
        {
          "internalType": "uint16",
          "name": "",
          "type": "uint16"
        }
      ],
      "name": "streamAddresses",
      "outputs": [
        {
          "internalType": "address",
          "name": "",
          "type": "address"
        }
      ],
      "stateMutability": "view",
      "type": "function"
    },
    {
      "inputs": [
        {
          "internalType": "address[]",
          "name": "tokens_to_add",
          "type": "address[]"
        },
        {
          "internalType": "address[]",
          "name": "tokens_to_remove",
          "type": "address[]"
        }
      ],
      "name": "updateAcceptedTokens",
      "outputs": [],
      "stateMutability": "nonpayable",
      "type": "function"
    },
    {
      "inputs": [
        {
          "internalType": "address",
          "name": "_feeCollector",
          "type": "address"
        }
      ],
      "name": "updateFeeCollector",
      "outputs": [],
      "stateMutability": "nonpayable",
      "type": "function"
    },
    {
      "inputs": [
        {
          "internalType": "uint256",
          "name": "_streamCreationFee",
          "type": "uint256"
        },
        {
          "components": [
            {
              "internalType": "uint256",
              "name": "value",
              "type": "uint256"
            }
          ],
          "internalType": "struct Decimal",
          "name": "_exitFeeRatio",
          "type": "tuple"
        },
        {
          "internalType": "uint256",
          "name": "_minWaitingDuration",
          "type": "uint256"
        },
        {
          "internalType": "uint256",
          "name": "_minBootstrappingDuration",
          "type": "uint256"
        },
        {
          "internalType": "uint256",
          "name": "_minStreamDuration",
          "type": "uint256"
        },
        {
          "internalType": "string",
          "name": "_tosVersion",
          "type": "string"
        }
      ],
      "name": "updateParams",
      "outputs": [],
      "stateMutability": "nonpayable",
      "type": "function"
    },
    {
      "inputs": [
        {
          "internalType": "address",
          "name": "_protocolAdmin",
          "type": "address"
        }
      ],
      "name": "updateProtocolAdmin",
      "outputs": [],
      "stateMutability": "nonpayable",
      "type": "function"
    }
  ],
  "transactionHash": "0xe57cdd760e025efb38dd515d46015427978f77b636df42bd2742805140a13673",
  "args": [
    1,
    "0x0000000000000000000000000000000000000000",
    {
      "value": 100000
    },
    1,
    1,
    1,
    [
      "0xA535094F2A638209453BE70Fa533d6a4e878BA7f"
    ],
    "0xB4eE189569597EFDB3bB48DB5ede8394d1D48e7b",
    "0xB4eE189569597EFDB3bB48DB5ede8394d1D48e7b",
    "1.0.0"
  ],
  "numDeployments": 1,
  "solcInputHash": "93eac45bc8008cfba4a279b821e75bdf",
  "bytecode": "0x608060405234620005845762005401803803806200001d81620005c9565b92833981818101039061014082126200058457825191602062000042818601620005ef565b91603f190112620005845762000057620005a9565b604085015181526060850151608086015160a087015160c08801519295929493916001600160401b0386116200058457838901601f878b01011215620005845788860151956001600160401b03871162000513578660051b6020620000be818301620005c9565b988952880190868c01838d018201602001116200058457908160208d93858281870101955b0101018310620005895750505050620000ff60e08a01620005ef565b926200010f6101008b01620005ef565b6101208b01519a9095906001600160401b038c116200058457818101601f8d83010112156200058457808c01519b6001600160401b038d1162000513578c9262000163601f8501601f1916602001620005c9565b9d8e528201602084838501010111620005845760005b8d8482106200056b5760009401602001939093525050506001600160a01b0384161562000559576001600160a01b0385161562000547576000620001bc620005a9565b52620f424080620001cc620005a9565b52815111620005355760405161087a8082016001600160401b038111838210176200051357829162004b67833903906000f098891562000529576040516001600160a01b038b16815230907f739fe22b8edefd6ce1fe32460f9cd54bf8e66fc7447f4c8a8131ce078a1988af90602090a26040516101408101906001600160401b03821181831017620005135760409182528281526001600160a01b0398891660208201819052918101849052606081018b90526080810185905260a0810186905295881660c0870181905296881660e0870181905261010087018d90529a909716610120909501948552600255600380546001600160a01b031990811690971790555160049081556005979097556006556007556008805484169092179091556009805483169095179094558451936001600160401b038511620004fe57600a54946001958681811c91168015620004f3575b6020821014620004de57601f811162000482575b506020601f82116001146200040a5781908798600092620003fe575b5050600019600383901b1c191690861b17600a555b60018060a01b0390511690600b541617600b556000935b6200039b575b825461ffff191683556040516145629081620006058239f35b8051841015620003f85760018060a01b0360208560051b8301015116600052600060205260406000208360ff198254161790556000198414620003e35782809401936200037c565b601182634e487b7160e01b6000525260246000fd5b62000382565b01519050388062000350565b600a6000908152600080516020620053e18339815191529890601f198416905b8181106200046b575091889991848a95941062000451575b505050811b01600a5562000365565b015160001960f88460031b161c1916905538808062000442565b838301518b5599890199602093840193016200042a565b600a600052600080516020620053e1833981519152601f830160051c81019160208410620004d3575b601f0160051c019087905b828110620004c657505062000334565b60008155018790620004b6565b9091508190620004ab565b602286634e487b7160e01b6000525260246000fd5b90607f169062000320565b604184634e487b7160e01b6000525260246000fd5b634e487b7160e01b600052604160045260246000fd5b6040513d6000823e3d90fd5b604051632aa4e67b60e01b8152600490fd5b604051632bf75bc360e21b8152600490fd5b60405163bb0bac9960e01b8152600490fd5b9060209182828181878901010151920101520162000179565b600080fd5b60208080936200059986620005ef565b8152019301929181858f620000e3565b60405190602082016001600160401b038111838210176200051357604052565b6040519190601f01601f191682016001600160401b038111838210176200051357604052565b51906001600160a01b0382168203620005845756fe60808060405260043610156200001457600080fd5b60003560e01c908163054f7d9c14620012765750806314d98de514620012525780631c2a28f714620010f457806331f7d964146200123457806333907d1e146200117a57806342d6b34b14620011375780635a91b3b214620010f45780635e615a6b1462000f4d578063667aa35214620007f7578063774ef43b14620001045780637c526bb314620006a85780637e932d321462000637578063a0f3a6a814620003e9578063bfb7922414620003b6578063c1d3be8b1462000328578063cff0ab96146200027b578063d04fed6314620001eb578063d2c35ce8146200014a5763e899f3d7146200010457600080fd5b3462000145576020366003190112620001455761ffff6200012462001413565b16600052600c602052602060018060a01b0360406000205416604051908152f35b600080fd5b346200014557602036600319011262000145576200016762001298565b6009546001600160a01b03919082163303620001d957168015620001c757806001600160601b0360a01b60085416176008556040519081527f5d16ad41baeb009cd23eb8f6c7cde5c2e0cd5acf4a33926ab488875c37c37f3860203092a2005b60405163bb0bac9960e01b8152600490fd5b604051637bfa4b9f60e01b8152600490fd5b3462000145576000366003190112620001455761ffff6001818154166200021281620016f5565b926000835b62000231575b604051806200022d8782620012af565b0390f35b81811683811015620002745790816200026d92600052600c6020526200026660018060a01b036040600020541691886200172d565b52620016c9565b8362000217565b506200021d565b346200014557600036600319011262000145576002546003546040516001600160a01b0391821692916200031d90620002b4836200135e565b6004548352600554600654600754836008541691846009541693620002d862001495565b95600b5416976040519a8b9a8b5260208b01525160408a01526060890152608088015260a087015260c086015260e0850152610140806101008601528401906200131a565b906101208301520390f35b346200014557602036600319011262000145576200034562001298565b600954906001600160a01b03908183163303620001d95716908115620003a4576001600160a01b031916811760095560405190815230907f96c81c3f4599d5ad4b4ce465555174670819d69aa61f97cf8fdf4b80c1fbb32590602090a2005b604051632bf75bc360e21b8152600490fd5b346200014557602036600319011262000145576020620003df620003d962001298565b62001742565b6040519015158152f35b34620001455760c036600319011262000145576020600435366023190182136200014557604051906200041c826200135e565b60243582526044356064356084359160a435956001600160401b0396878111620001455762000450903690600401620013b8565b6009549096906001600160a01b03163303620001d9578560025580516004558260055583600655846007558651978811620006215762000492600a5462001458565b601f8111620005c9575b5081601f8911600114620005315797807f0411b059ef29e41429d7aa233c3c43e82806856b23c24bfb1f9e4c6efa5689a1989960009162000525575b508160011b916000199060031b1c191617600a555b519060405195865285015260408401526060830152608082015260c060a08201528062000520309460c08301906200131a565b0390a2005b90508901518a620004d8565b601f19891690600a6000526000805160206200450d8339815191529160005b818110620005b15750918a917f0411b059ef29e41429d7aa233c3c43e82806856b23c24bfb1f9e4c6efa5689a19a9b6001941062000597575b5050811b01600a55620004ed565b8b015160001960f88460031b161c191690558a8062000589565b91928560018192868e01518155019401920162000550565b600a6000526000805160206200450d833981519152601f8a0160051c810191848b1062000616575b601f0160051c01905b8181106200060957506200049c565b60008155600101620005fa565b9091508190620005f1565b634e487b7160e01b600052604160045260246000fd5b3462000145576020366003190112620001455760043580151580910362000145576009546001600160a01b03163303620001d95760ff19600d541660ff821617600d556040519081527fc08a1a38ceb2f9f45e15007131834153026896150e4400ab4000fd1b131fb1db60203092a2005b346200014557604036600319011262000145576001600160401b036004358181116200014557620006de90369060040162001425565b916024359081116200014557620006fa90369060040162001425565b6009549193916001600160a01b039081163303620001d95760005b838110620007bb575060005b8281106200077c57857f640a0a596c3bc7f91bc26965ed05efb8d3017a25c7b1822ba2ca3e33b2743cd5868662000520876200076b604051948594604086526040860191620015b0565b9083820360208501523096620015b0565b80826200079962000793620007b594878b62001574565b6200159b565b166000526000602052604060002060ff1981541690556200154e565b62000721565b8082620007d262000793620007f194888a62001574565b1660005260006020526040600020600160ff198254161790556200154e565b62000715565b61020036600319011262000145576024356001600160a01b0381169003620001455760c4356001600160401b03811162000145576200083b903690600401620013b8565b60e4356001600160a01b03811690036200014557610104356001600160401b038111620001455762000872903690600401620013b8565b60603661014319011262000145576040516200088e816200137a565b610144358015158103620001455781526101643561ffff81168103620001455760208201526101843561ffff81168103620001455760408201526060366101a3190112620001455760405190620008e5826200137a565b6101a4358015158103620001455782526101c43561ffff81168103620001455760208301526101e43561ffff811681036200014557604083015260ff600d541662000f3b576004351562000f295760e4356001600160a01b031660009081526020819052604090205460ff161562000f1757604435421162000f05576064356044351162000ef3576084356064351162000ee157620009896064356084356200180f565b6007541162000ecf57620009a26044356064356200180f565b6006541162000ebd57620009b9426044356200180f565b6005541162000eab576040516020810190620009f06020828751620009e28187858c01620012f5565b810103808452018262001396565b519020604051600a5481600062000a078362001458565b926001811690811562000e8b575060011462000e3a575b62000a33925003601f19810183528262001396565b602081519101200362000e28576002548062000d28575b5062000b0460405162000a636020612cef018262001396565b612cef8152612cef6200181e602083013960405162000ab28162000aa387873360e4358d60a43560843560643560443560243560043560208d016200161a565b03601f19810183528262001396565b62000af6602060405180938262000ad38184019788815193849201620012f5565b820162000ae982518093868085019101620012f5565b0103808452018262001396565b5190206101243530620017b2565b6040516323b872dd60e01b8152336004808301919091526001600160a01b03831660248301523560448201529092906020818060648101038160006024356001600160a01b03165af190811562000cd45760009162000cf2575b501562000ce0576040519081612cef8101106001600160401b03612cef84011117620006215762000bba8291612cef6200181e843961012435943360e4358a60a435608435606435604435602435600435612cef8d016200161a565b03906000f5801562000cd4576001600160a01b039081169116810362000cc25761ffff9162000cb3918360015416600052600c6020526040600020816001600160601b0360a01b8254161790556001549462000c618587169362000c5260405193600435855260443560208601526064356040860152608435606086015260a43560808601526101208060a08701528501906200131a565b9083820360c08501526200131a565b9160e08201528261010082015230917fd82fd25f2c186bf678ec89d69b74509fb3d3043ede4957173642a7e407e2321960018060a01b0360e43516928060018060a01b0360243516930390a4620016c9565b61ffff19909216911617600155005b604051636d80044f60e01b8152600490fd5b6040513d6000823e3d90fd5b60405163022e258160e11b8152600490fd5b62000d19915060203d60201162000d20575b62000d10818362001396565b81019062001600565b8662000b5e565b503d62000d04565b6003546001600160a01b03168062000d9e575080341062000d8c576008546000918291829182916001600160a01b031682821562000d82575bf11562000d70575b8462000a4a565b604051634033e4e360e01b8152600490fd5b506108fc62000d61565b6040516332201f6960e11b8152600490fd5b6008546040516323b872dd60e01b81523360048201526001600160a01b0390911660248201526044810192909252602090829060649082906000905af190811562000cd45760009162000e04575b5062000d695760405163022e258160e11b8152600490fd5b62000e21915060203d60201162000d205762000d10818362001396565b8562000dec565b604051635d0b6cc760e01b8152600490fd5b5050600a600052816000805160206200450d8339815191526000905b83821062000e70575050602062000a339282010162000a1e565b60209192508060019154838588010152019101839162000e56565b6020925062000a3394915060ff1916828401528015150282010162000a1e565b604051635bdfbd0360e11b8152600490fd5b6040516372904fb160e01b8152600490fd5b6040516318861b4960e01b8152600490fd5b6040516349f8456b60e11b8152600490fd5b604051633060050d60e21b8152600490fd5b6040516341f01d5760e01b8152600490fd5b60405163cc3ca47b60e01b8152600490fd5b604051634d5bb2d560e11b8152600490fd5b604051634051e96160e01b8152600490fd5b34620001455760003660031901126200014557600061012060405162000f738162001341565b82815282602082015260405162000f8a816200135e565b83815260408201528260608201528260808201528260a08201528260c08201528260e08201526060610100820152015260405162000fc88162001341565b60025481526003546001600160a01b0316602082015260405162000fec816200135e565b600454815260408201526005546060820152600654608082015260075460a08201526008546001600160a01b0390811660c08301526009541660e08201526200103462001495565b61010082015260018060a01b03600b54166101208201526040518091602082528051602083015260018060a01b036020820151166040830152604081015151606083015260608101516080830152608081015160a083015260a081015160c083015260018060a01b0360c08201511660e083015260018060a01b0360e082015116610100830152610100810151620010dc61014091826101208601526101608501906200131a565b610120909201516001600160a01b0316908301520390f35b346200014557602036600319011262000145576001600160a01b036200111962001298565b166000526000602052602060ff604060002054166040519015158152f35b346200014557606036600319011262000145576020620011686200115a62001298565b6044359060243590620017b2565b6040516001600160a01b039091168152f35b3462000145576000366003190112620001455761ffff600181815416620011a181620016f5565b926000835b620011bb57604051806200022d8782620012af565b81811683811015620002745790816200120992600052600c60209080825260018060a01b039081604060002054166000526000835260ff6040600020541662001210575b50505050620016c9565b83620011a6565b620012299284600052526040600020541691886200172d565b5286808080620011ff565b34620001455760003660031901126200014557602060405160008152f35b34620001455760003660031901126200014557602061ffff60015416604051908152f35b3462000145576000366003190112620001455760209060ff600d541615158152f35b600435906001600160a01b03821682036200014557565b6020908160408183019282815285518094520193019160005b828110620012d7575050505090565b83516001600160a01b031685529381019392810192600101620012c8565b60005b838110620013095750506000910152565b8181015183820152602001620012f8565b906020916200133581518092818552858086019101620012f5565b601f01601f1916010190565b61014081019081106001600160401b038211176200062157604052565b602081019081106001600160401b038211176200062157604052565b606081019081106001600160401b038211176200062157604052565b90601f801991011681019081106001600160401b038211176200062157604052565b81601f8201121562000145578035906001600160401b038211620006215760405192620013f0601f8401601f19166020018562001396565b828452602083830101116200014557816000926020809301838601378301015290565b6004359061ffff821682036200014557565b9181601f8401121562000145578235916001600160401b03831162000145576020808501948460051b0101116200014557565b90600182811c921680156200148a575b60208310146200147457565b634e487b7160e01b600052602260045260246000fd5b91607f169162001468565b60405190600082600a5491620014ab8362001458565b808352926001908181169081156200152a5750600114620014d8575b50620014d69250038362001396565b565b600a600090815291506000805160206200450d8339815191525b8483106200150e5750620014d6935050810160200138620014c7565b81935090816020925483858a01015201910190918592620014f2565b905060209250620014d694915060ff191682840152151560051b82010138620014c7565b60001981146200155e5760010190565b634e487b7160e01b600052601160045260246000fd5b9190811015620015855760051b0190565b634e487b7160e01b600052603260045260246000fd5b356001600160a01b0381168103620001455790565b9190808252602080920192916000805b838210620015d057505050505090565b9091929394853560018060a01b038116809103620015fc578152830194830193929160010190620015c0565b8280fd5b908160209103126200014557518015158103620001455790565b96620016a596620014d69b966101809a9e9d9b95966200166d948b5260018060a01b03978880971660208d015260408c015260608b015260808a015260a08901526101e08060c08a01528801906200131a565b9a1660e08601521661010084015280511515610120840152602081015161ffff90811661014085015260409091015116610160830152565b01906040908051151583528161ffff91826020820151166020860152015116910152565b61ffff8091169081146200155e5760010190565b6001600160401b038111620006215760051b60200190565b906200170182620016dd565b62001710604051918262001396565b828152809262001723601f1991620016dd565b0190602036910137565b8051821015620015855760209160051b010190565b600061ffff916001838194825416915b62001762575b5050505050600090565b8084169382851015620017ab578594600052600c60205260018060a01b03806040600020541690851614620017a3576200179c90620016c9565b9362001752565b505050505090565b5062001758565b909160405192602084019260ff60f81b84526001600160601b03199060601b1660218501526035840152605583015260558252608082018281106001600160401b038211176200062157604052905190206001600160a01b031690565b919082039182116200155e5756fe60808060405234620006b15762002cef8038038091620000208285620006ee565b83398101906101e081830312620006b157805190620000426020820162000712565b60408201519060608301519260808101519460a082015160c083015160018060401b038111620006b15783019780601f8a011215620006b15788516001600160401b038111620004f85760405199620000a6601f8301601f19166020018c620006ee565b818b528260208383010111620006b15760005b8281106200069c57505060206000918b010152620000da60e0850162000712565b936200010a620000ee610100830162000712565b926101806200010282610120860162000737565b930162000737565b906200011733886200078b565b156200068a576040516370a0823160e01b81523060048201526020816024816001600160a01b038c165afa80156200050e5786916000916200064c575b50106200063a576200016733876200078b565b1562000628578051620005b3575b5080516200051a575b50600080546001600160a01b0319166001600160a01b03929092169190911790556040516001600160401b03610594820190811190821117620004f8576105946200275b823980610594810103906000f080156200050e57601680546001600160a01b03929092166001600160a01b03199283168117909155600180549092161790556040516000906200021281620006b6565b526040516200022181620006b6565b6000815260006040516200023581620006b6565b52604051906200024582620006b6565b600082526040516001600160401b03610120820190811190821117620004f857610120810160405284815281602082015260006040820152600060608201528260808201528360a0820152600060c08201528460e082015261010042910152836003555160045560006005556000600655516007556008556000600955600a5542600b556040519081604081011060018060401b03604084011117620004f857604082810181526001600160a01b03918216808452939091166020909201829052600c80546001600160a01b03199081169094179055600d80549093169091179091555184906200033681620006b6565b5283516001600160401b038111620004f857600e54600181811c91168015620004ed575b6020821014620004d757601f81116200046d575b50602094601f82116001146200040057948192939495600092620003f4575b50508160011b916000199060031b1c191617600e555b60ff19600f5416600f558260408051620003bd81620006d2565b838152602081018590520152601055601155601255601580546001600160a01b03191633179055604051611f4b9081620008108239f35b0151905038806200038d565b601f19821695600e60005260206000209160005b88811062000454575083600195969798106200043a575b505050811b01600e55620003a3565b015160001960f88460031b161c191690553880806200042b565b9192602060018192868501518155019401920162000414565b600e6000527fbb7b4a454dc3493923482f07822329ed19e8244eff582cc204f8554c3620c3fd601f830160051c81019160208410620004cc575b601f0160051c01905b818110620004bf57506200036e565b60008155600101620004b0565b9091508190620004a7565b634e487b7160e01b600052602260045260246000fd5b90607f16906200035a565b634e487b7160e01b600052604160045260246000fd5b6040513d6000823e3d90fd5b61ffff60208201511615620005a15761ffff604082015116156200058f5761ffff60408201511661ffff60208301511611156200058f57805115159060145460ff64ffff000000604062ffff00602086015160081b1694015160181b1693169064ffffffffff1916171717601455386200017e565b604051632676310d60e11b8152600490fd5b604051632b39f6cb60e01b8152600490fd5b61ffff60208201511615620005a15761ffff604082015116156200058f5761ffff60408201511661ffff60208301511611156200058f57805115159060135460ff64ffff000000604062ffff00602086015160081b1694015160181b1693169064ffffffffff19161717176013553862000175565b604051632181b39760e01b8152600490fd5b6040516357084d7360e11b8152600490fd5b91506020823d60201162000681575b816200066a60209383620006ee565b810103126200067e57508590513862000154565b80fd5b3d91506200065b565b6040516372146d6160e11b8152600490fd5b60208183018101518d830182015201620000b9565b600080fd5b602081019081106001600160401b03821117620004f857604052565b606081019081106001600160401b03821117620004f857604052565b601f909101601f19168101906001600160401b03821190821017620004f857604052565b51906001600160a01b0382168203620006b157565b519061ffff82168203620006b157565b9190826060910312620006b1576040516200075281620006d2565b80928051908115158203620006b15760406200078691819385526200077a6020820162000727565b60208601520162000727565b910152565b6001600160a01b03908116919082156200080757602460209260405194859384926370a0823160e01b84521660048301525afa9081620007d6575b50620007d157600090565b600190565b602090813d8111620007ff575b620007ef8183620006ee565b81010312620006b15738620007c6565b503d620007e3565b50505060009056fe608060408181526004918236101561001657600080fd5b60009260e0918435831c90816302d05d3f1461104d57508063039054741461067557806306fdde0314610f8e57806309b17d2514610f4c5780630bcc8eba14610e0e5780630e5634df14610d0f5780630f574ba714610a1c5780632ae4e931146109a45780632e1a7d4d146107de57806334793e05146106fc5780638a03764f146106c95780638cd474151461069f578063af5c3ac414610675578063afa9a26f1461062f578063c0ae398c146105b0578063c45a015514610586578063cbf064151461044d578063d08452c214610419578063e427d08c146103eb578063e9a9e144146103145763f69e8fba1461010d57600080fd5b34610310578360031936011261031057610125611abc565b61017d60ff600f541661016d61014561013c611925565b92834291611aa4565b86519061015182611130565b60018252602036818401376003610167836111bd565b526112af565b504290610178611773565b611274565b916101918360a06040820151910151111590565b156102e657506015548351635e615a6b60e01b8152916001600160a01b039186918491829085165afa9182156102dc576102609261021b9187916102ba575b50858360c08301511691015190610203620f42406101fa89890151946101f586611407565b611d1d565b510480936111f0565b91806102a4575b505082600c5416838854169061131d565b50600590835180610289575b50505b610233816119ac565b61023c83611963565b8454838501519351855194855260208501526001600160a01b031693830190611071565b7fa3a0e7ffdae6dc539d2da62b494aeb0cd57c75b7d2171eaa8abb70c430930c7360603092a380f35b8161029c92600d5416908854169061131d565b503880610227565b6102b29185600c541661131d565b50388061020a565b6102d691503d8089833e6102ce818361114c565b81019061146f565b386101d0565b84513d87823e3d90fd5b600d54855491840151610260939261030a926001600160a01b03918216911661131d565b5061022a565b8380fd5b509050346103e757826003193601126103e75761032f611abc565b61036b61034a60ff600f5416610343611925565b4291611aa4565b83519061035682611130565b600182526020368184013785610167836111bd565b156103d95750600660018060a01b0361038f81600d541682865416600a549161131d565b508160ff19600f541617600f5583541691600a54815193845260208401528201527febb55ea32d517c9ec85f61357977ac73b84e65ebeaedb528ed791d7e25e30a2b60603092a280f35b9051637a851da960e11b8152fd5b8280fd5b5050503461041557816003193601126104155760015490516001600160a01b039091168152602090f35b5080fd5b83853461044a578060031936011261044a5750600c54600d5482516001600160a01b03928316815291166020820152f35b80fd5b509190913461031057836003193601126103105761046a33611847565b90610474826113cc565b1561057857506105219061051c6104ac61049461048f611773565b611a58565b926020840151606085015160c0860151914293611dbf565b946104c660ff600f541642906104c0611925565b90611aa4565b906105126104dd8560a06040820151910151111590565b888851916104ea836110e3565b60145460ff81161515845261ffff90818160081c16602086015260181c168a84015285611585565b42908701526119ac565b611963565b61052b82336119c5565b60c082015160a09092015190519182526020820152426040820152339030907f299c12b8f38cbdaee7f1de7372c792c211524fb70ed38dbec091baa5c58f796d9080606081015b0390a380f35b825163673f032f60e11b8152fd5b5050503461041557816003193601126104155760155490516001600160a01b039091168152602090f35b509091346103105783600319360112610310576101209350600354928151926105d8846110c7565b54835260055460065483516105ec816110c7565b60075481526008549160095493600a5496600b549881519a8b525160208b0152890152606088015251608087015260a086015260c0850152830152610100820152f35b50505034610415578160031936011261041557601454905160ff82161515815261ffff600883901c8116602083015260189290921c9091166040820152606090f35b0390f35b5050503461041557816003193601126104155760209061069d60ff600f541691518092611071565bf35b5050503461041557816003193601126104155760165490516001600160a01b039091168152602090f35b83853461044a578060031936011261044a5750601054601154601254925191825260208201526040810191909152606090f35b50929190346103e757826003193601126103e757610718611773565b61074661072f610726611925565b92834291611274565b9161073983611963565b429060ff600f5416611aa4565b90610750826119ac565b6101008101519360078310156107cb577f335a3e7f39aaebd3c219ca4ebda42ee6bb0cbd2b660d4d71a0dac6f7c03d71099495965060208201519082519060c08401519260ff6080838701519601519683519a8b521660208a015251908801526060870152608086015260a08501525160c08401523092a280f35b634e487b7160e01b865260218752602486fd5b848285346103e7576020908160031936011261031057823580156109945761080533611847565b9361080f856113cc565b15610578578451821161097f5750907ffabb9e7afa4ef595f60e1ae9041b2b311b4acb27aeaed4b11b6f2abf689af10a916105726108a861084e611925565b61089e61086260ff600f5416834291611aa4565b6108988751610870816110e3565b6002815288368c8301376002610885826111bd565b526001610891826111e0565b52826112af565b506119ac565b4290610178611773565b9461092781870151936109146108cf60608a019687519b60c08c019c8d9242935192611dbf565b9889518314600014610956578b858b01528b8a525b6109086108f2848d516111f0565b808d526109028951809287611d79565b906111f0565b875261051c8a336119c5565b600c5433906001600160a01b031661131d565b508551950151955191519251948552602085019590955260408401526060830152339230929081906080820190565b848a0161096b8c610902835180925188611d79565b9052610978838b516111f0565b8a526108e4565b91516318928cbf60e31b815291820152602490fd5b8151630db73cdf60e41b81528490fd5b5050346103e757826003193601126103e75761012092506109c3611773565b90825192825184526020830151516020850152808301519084015260608201516060840152608082015151608084015260a082015160a084015260c082015160c084015280820151908301526101008091015190820152f35b509091602080600319360112610d0b57823592610a72610a4360ff600f5416610343611925565b6108988551610a51816110e3565b600281528636878301376001610a66826111bd565b526002610891826111e0565b600c5483516370a0823160e01b815233838201526001600160a01b03909116908381602481855afa908115610d01578891610cd0575b50858110610cb4575082879160648651809481936323b872dd60e01b835233888401523060248401528a60448401525af1908115610caa578791610c7d575b5015610c6f5750610af733611847565b90610b0361048f611773565b918181015115600014610bf95750906105727f1913e17d5784005a914657f9e879fcc261644776365f1d84aeb45afcb6da4864939287610b4d60c085015160608601519089611d4c565b9782850151828751610b5e816110c7565b52865190610b6b826110c7565b8382528a885195610b7b87611094565b8b87528601528785015242606085015260808401528160a08401528160c0840152820152915b610bd160c0820191610bb48884516113e7565b835261051c6060820195610bc98b88516113e7565b8752336119c5565b5191519251948552602085019590955260408401526060830152339230929081906080820190565b945061057282610c4d60c07f1913e17d5784005a914657f9e879fcc261644776365f1d84aeb45afcb6da4864969501805198610c3c606085019a8b51908b611d4c565b998685015190519042935192611dbf565b92610c598785516113e7565b84528301610c688882516113e7565b9052610ba1565b82516307a4ced160e51b8152fd5b610c9d9150833d8511610ca3575b610c95818361114c565b810190611300565b38610ae7565b503d610c8b565b84513d89823e3d90fd5b82604491878751926381ddee1b60e01b84528301526024820152fd5b90508381813d8311610cfa575b610ce7818361114c565b81010312610cf6575138610aa8565b8780fd5b503d610cdd565b85513d8a823e3d90fd5b8480fd5b848285346103e757826003193601126103e75780519183600e549060019082821c928281168015610e04575b6020958686108214610df15750848852908115610dcf5750600114610d76575b6106718686610d6c828b038361114c565b5191829182611191565b929550600e83527fbb7b4a454dc3493923482f07822329ed19e8244eff582cc204f8554c3620c3fd5b828410610dbc575050508261067194610d6c928201019486610d5b565b8054868501880152928601928101610d9f565b60ff191687860152505050151560051b8301019250610d6c8261067186610d5b565b634e487b7160e01b845260229052602483fd5b93607f1693610d3b565b50346103105783600319360112610310576015548351635e615a6b60e01b81526001600160a01b03939091869083908590829088165afa8015610f425784928791610f28575b500151163303610f1b57610e6f60ff600f5416610343611925565b8351906080820182811067ffffffffffffffff821117610f0857855260038252606036602084013785610ea1836111bd565b526001610ead836111e0565b52815160021015610ef55790610ec991600260608301526112af565b15610ee757508061038f600692600d541682865416600a549161131d565b8251637a851da960e11b8152fd5b634e487b7160e01b865260328352602486fd5b634e487b7160e01b875260418452602487fd5b82516282b42960e81b8152fd5b610f3c91503d8089833e6102ce818361114c565b38610e54565b85513d88823e3d90fd5b50505034610415578160031936011261041557601354905160ff82161515815261ffff600883901c8116602083015260189290921c9091166040820152606090f35b848285346103e757826003193601126103e757805191836002549060019082821c928281168015611043575b6020958686108214610df15750848852908115610dcf5750600114610fea576106718686610d6c828b038361114c565b929550600283527f405787fa12a823e0f2b7631cc41b3ba8828b3321ca811111fa75cd3aa3bb5ace5b828410611030575050508261067194610d6c928201019486610d5b565b8054868501880152928601928101611013565b93607f1693610fba565b85903461041557816003193601126104155790546001600160a01b03168152602090f35b90600782101561107e5752565b634e487b7160e01b600052602160045260246000fd5b610100810190811067ffffffffffffffff8211176110b157604052565b634e487b7160e01b600052604160045260246000fd5b6020810190811067ffffffffffffffff8211176110b157604052565b6060810190811067ffffffffffffffff8211176110b157604052565b610120810190811067ffffffffffffffff8211176110b157604052565b67ffffffffffffffff81116110b157604052565b6040810190811067ffffffffffffffff8211176110b157604052565b90601f8019910116810190811067ffffffffffffffff8211176110b157604052565b60005b8381106111815750506000910152565b8181015183820152602001611171565b604091602082526111b1815180928160208601526020868601910161116e565b601f01601f1916010190565b8051156111ca5760200190565b634e487b7160e01b600052603260045260246000fd5b8051600110156111ca5760400190565b919082039182116111fd57565b634e487b7160e01b600052601160045260246000fd5b60405190611220826110ff565b81610100600091828152604051611236816110c7565b8381526020820152826040820152826060820152604051611256816110c7565b83815260808201528260a08201528260c08201528260e08201520152565b9161129991611281611213565b50604060208201519101519061010085015192611ae1565b80516112a3575090565b6112ac91611c69565b90565b91909160005b83518110156112f85760208160051b8501015160078082101561107e5783101561107e5782146112f05760001981146111fd576001016112b5565b506001925050565b506000925050565b90816020910312611318575180151581036113185790565b600080fd5b919091811580156113bb575b6113b35760446020926000604051958694859363a9059cbb60e01b855260018060a01b0380931660048601526024850152165af19081156113a757600091611389575b501561137757600190565b6040516307a4ced160e51b8152600490fd5b6113a1915060203d8111610ca357610c95818361114c565b3861136c565b6040513d6000823e3d90fd5b505050600190565b506001600160a01b03831615611329565b6020810151151590816113dd575090565b60e0915001511590565b919082018092116111fd57565b818102929181159184041417156111fd57565b6000604051611415816110c7565b52620f4240908181029181830414901517156111fd5760405190611438826110c7565b815290565b51906001600160a01b038216820361131857565b919082602091031261131857604051611469816110c7565b91518252565b602091828282031261131857815167ffffffffffffffff9283821161131857019161014093848484031261131857604051948501858110838211176110b157604052835185526114c081850161143d565b818601526114d18360408601611451565b6040860152606084015160608601526080840151608086015260a084015160a086015261150060c0850161143d565b60c086015261151160e0850161143d565b60e0860152610100918285015181811161131857850184601f820112156113185780519182116110b15760405194611552601f8401601f191685018761114c565b828652838383010111611318578261156d938601910161116e565b83015261157e61012080920161143d565b9082015290565b91929060078310158061107e576003841492838061176c575b801561175e575b61162257508061107e5760068414938415611613575b5083156115f3575b5050506115dc5760405163eee2192360e01b8152600490fd5b6109148160a06115f09351910151906113e7565b50565b9091925061107e578161160a575b503880806115c3565b90501538611601565b600414935060009050386115bb565b94935050505080518061173f575b50815161163b575050565b60c0015160018060a01b03918260155416916040518093635e615a6b60e01b825281600460009687935afa90811561173457859161012091869161171a575b500151166116a261169b61ffff6020816040880151169601511694426113e7565b93426113e7565b946116b2838383600d541661131d565b50600d541691813b15610d0b57918460a492819594604051988996879562f55c9960e61b875233600488015260248701526044860152606485015260848401525af190811561170e57506117035750565b61170c9061111c565b565b604051903d90823e3d90fd5b61172e91503d8088833e6102ce818361114c565b3861167a565b6040513d86823e3d90fd5b600c54611757919033906001600160a01b031661131d565b5038611630565b5060009150600585146115a5565b508261159e565b61177b611213565b50604051611788816110ff565b6003548152604051611799816110c7565b60045481526020820152600554604082015260065460608201526040516117bf816110c7565b6007548152608082015260085460a082015260095460c0820152600a5460e0820152600b5461010082015290565b604051906117fa82611094565b8160e0600091828152826020820152604051611815816110c7565b838152604082015282606082015260405161182f816110c7565b83815260808201528260a08201528260c08201520152565b61184f6117ed565b506016546040516316c1973960e01b81526001600160a01b0392831660048201529161010091829184916024918391165afa9182156113a75760009261189457505090565b9091823d841161191e575b6118a9818461114c565b8201928284031261044a575060e0906118fb604051936118c885611094565b82518552602083015160208601526118e38160408501611451565b60408601526060830151606086015260808301611451565b608084015260a081015160a084015260c081015160c0840152015160e082015290565b503d61189f565b600060408051611934816110e3565b828152826020820152015260405161194b816110e3565b60105481526011546020820152601254604082015290565b80516003556020810151516004556040810151600555606081015160065560808101515160075560a081015160085560c081015160095560e0810151600a556101000151600b55565b600781101561107e5760ff8019600f5416911617600f55565b6016546001600160a01b03908116803b1561131857600092836101249260e060405197889687956360d6081360e11b8752166004860152805160248601526020810151604486015260408101515160648601526060810151608486015260808101515160a486015260a081015160c486015260c081015160e486015201516101048401525af180156113a7576117035750565b611a60611213565b50611a69611925565b611a86604060208301519201519161010092838501519142611ae1565b8051611a9157505090565b611a9b9192611c69565b90429082015290565b906112ac928151906040602084015193015193611bf0565b6000546001600160a01b03163303611ad057565b6040516282b42960e81b8152600490fd5b929091926000604051611af3816110c7565b528281108015611b8b575b611b795782611b27938310611b71575b5081848211611b69575b611b21916111f0565b926111f0565b80158015611b61575b611b3d576112ac91611bb5565b50506000604051611b4d816110c7565b52604051611b5a816110c7565b6000815290565b508115611b30565b849150611b18565b915038611b0e565b505050506000604051611b4d816110c7565b5083821015611afe565b8115611b9f570490565b634e487b7160e01b600052601260045260246000fd5b906000604051611bc4816110c7565b52620f4240918281029281840414901517156111fd57611be391611b95565b60405190611438826110c7565b9291909260078110158061107e5760068214908115611c5c575b8115611c4c575b50611c445750821015611c2657505050600090565b811015611c34575050600190565b1015611c3f57600290565b600390565b935050505090565b905061107e576005811438611c11565b5050600481146000611c0a565b90611c72611213565b5060608201908151151580611d13575b611c8b57505090565b620f42409081611c9f826101f58751611407565b510491611cb460c08601926101f58451611407565b51049060408501611cc68382516113e7565b9052611cd38282516111f0565b905281611ce1575b50505090565b611cfc611d0693611cf38487516111f0565b86525183611bb5565b6020850152611bb5565b6080820152388080611cdb565b5080511515611c82565b620f424091611d3e916000604051611d34816110c7565b52519051906113f4565b0460405190611438826110c7565b9180158015611d71575b611d6c576112ac92611d67916113f4565b611b95565b505090565b508215611d56565b909180158015611db7575b611db157611d96611d9b9284926113f4565b6113e7565b6000198101919082116111fd576112ac91611b95565b50905090565b508115611d84565b939291611dca6117ed565b50845190602086015195604091828201519760608301519660808401519160a085015195611e5260e060c08801519701519c82519d8e9a611e0a8c611094565b8b5260208b0194855260e0848c019b838d52606081019e8f526080810198895260a081019b8c5260c081019a8b52015260008351611e47816110c7565b528a519051906111f0565b93815194611e5f866110c7565b855285611e74575b5050505050505050525290565b611eee96611ee4611ea9611e8f611d67986101f58851611407565b84519060008751611e9f816110c7565b52519051906113e7565b845190611eb5826110c7565b815260008551611ec4816110c7565b5251935193611ed2856110c7565b620f42409081810686520482516113e7565b90525251906113f4565b90611f04611efd8389516111f0565b82516113e7565b905285523880808080808080611e6756fea264697066735822122045545372c3587f6aa295cf1d9f57af42edb1b9f6eb9081af67f4635d09af9bee64736f6c6343000814003360a080604052346100375733608052610557908161003d82396080518181816080015281816101690152818161020e01526102dc0152f35b600080fdfe604060808152600436101561001357600080fd5b60009060e08235811c90816316c197391461030b5781635cb0175c146102c7578163a3de7d17146101d6578163c1ac1026146100bf575063fb33ce811461005957600080fd5b346100bb57806003193601126100bb5761007161042f565b6001600160a01b03906100a7337f00000000000000000000000000000000000000000000000000000000000000008416146104bd565b168252816020526007602435918320015580f35b5080fd5b919050346101d2576101203660031901126101d2576100dc61042f565b6101003660231901126101ce576100f161044a565b9260243584526020840192604435845261010a366104a1565b93818601948552606086016084358152602060a3193601126101ca57600795610131610481565b9260a43584526080890193845260a089019460c435865260c08a019660e43588528a019761010435895260018060a01b0390610190827f00000000000000000000000000000000000000000000000000000000000000001633146104bd565b168b528a6020528a209851895551600189015551516002880155516003870155515160048601555160058501555160068401555191015580f35b8780fd5b8380fd5b8280fd5b9050346101d25760803660031901126101d2576007906101f461042f565b906101fe366104a1565b936001600160a01b0390610235337f00000000000000000000000000000000000000000000000000000000000000008416146104bd565b8661023e610481565b52610247610481565b9087825261025361044a565b966024358852602088016044358152828901918252606089019242845260808a0194855260a08a01958b875260c08b01978c89528b01988c8a52168b528a6020528a209851895551600189015551516002880155516003870155515160048601555160058501555160068401555191015580f35b5050346100bb57816003193601126100bb57517f00000000000000000000000000000000000000000000000000000000000000006001600160a01b03168152602090f35b9050346101d25760203660031901126101d257816101009361032b61042f565b818461033561044a565b828152826020820152610346610481565b8381528682015282606082015261035b610481565b838152608082015260a0810183905260c0810183905201526001600160a01b031681526020819052209161038d61044a565b9280548452600181015491602085019283526103a7610481565b90600283015482528086019182526003830154606087019081526103c9610481565b91600485015483526080880192835260058501549360a08901948552600760068701549660c08b01978852015496888a01978852825199518a525160208a0152515190880152516060870152515160808601525160a08501525160c08401525190820152f35b600435906001600160a01b038216820361044557565b600080fd5b60405190610100820182811067ffffffffffffffff82111761046b57604052565b634e487b7160e01b600052604160045260246000fd5b604051906020820182811067ffffffffffffffff82111761046b57604052565b6020906063190112610445576104b5610481565b906064358252565b156104c457565b60405162461bcd60e51b815260206004820152602f60248201527f506f736974696f6e2063616e206f6e6c7920626520736574206279207468652060448201526e1cdd1c99585b4818dbdb9d1c9858dd608a1b6064820152608490fdfea264697066735822122080d010f406cb7459200122a9dd9702352c31e0ccdb7cc6473685a5f1bac89d7864736f6c63430008140033c65a7bb8d6351c1cf70c95a316cc6a92839c986682d98bc35f958f4883f9d2a8a2646970667358221220892cbbb82a2315bd6af5b98626152f8a17c8b7aea6519a57b0bf8a56643df8cd64736f6c63430008140033608080604052346100165761085e908161001c8239f35b600080fdfe60806040908082526004918236101561001757600080fd5b600091823560e01c90816325394c941461053a575080633d572640146102c857806387ceff09146102ae5763c10753291461005157600080fd5b346102aa57806003193601126102aa5761006961066c565b33835260208381528284206001600160a01b039092168085529181528284208054602494853594929392909185101561026f576100a6858561074d565b509283544210610222576100b9846107a2565b9283156101d657600385019384548181018091116101c4578555815163a9059cbb60e01b815233818d0152808a0182905283816044818e895af19081156101ba5791610134600297969594927f080a49aa43b33f2f3fe14496cbedde2305f0cc484e98afb78e943cf9881adc8a948e9161018d575b50610709565b8151938a85528401523392a3549101541461014d578380f35b906101579161074d565b93909361017d575050600382828094558260018201558260028201550155803880808380f35b634e487b7160e01b835282905281fd5b6101ad9150863d88116101b3575b6101a581836106cf565b8101906106f1565b3861012e565b503d61019b565b83513d8d823e3d90fd5b634e487b7160e01b8b5260118c52898bfd5b5162461bcd60e51b8152808a01919091526021818801527f4e6f2066756e647320617661696c61626c6520666f72207769746864726177616044820152601b60fa1b6064820152608490fd5b8860238860849386519362461bcd60e51b85528401528201527f46756e647320617265207374696c6c20696e2074686520636c696666207065726044820152621a5bd960ea1b6064820152fd5b815162461bcd60e51b815280890184905260168188015275092dcecc2d8d2c840e6c6d0cac8ead8ca40d2dcc8caf60531b6044820152606490fd5b5080fd5b50346102aa57816003193601126102aa5760209051428152f35b5082346105365760a0366003190112610536576102e361066c565b916102ec610687565b6084359160643591604435904282106104f357818411156104a65784156104545782516323b872dd60e01b81523387820152306024820152604481018690526001600160a01b03918216976020929183816064818e8e5af190811561044a579061035c918c9161042d5750610709565b1695868952888252838920888a528252838920845161037a8161069d565b8481528381018781528682019189835260608101938d85528054906801000000000000000082101561041a57906103b69160018201815561074d565b95909561040857505184555160018401555160028301555160039091015582519485528401528201527f1db04dfee373564c736f0f9c7f12ba28e6378cccea075c4c1754ecb4fd5c5ee090606090a380f35b634e487b7160e01b8e528d905260248dfd5b634e487b7160e01b8f526041875260248ffd5b6104449150853d87116101b3576101a581836106cf565b8c61012e565b86513d8d823e3d90fd5b825162461bcd60e51b8152602081880152602660248201527f546f74616c20616d6f756e74206d7573742062652067726561746572207468616044820152656e207a65726f60d01b6064820152608490fd5b825162461bcd60e51b8152602081880152602160248201527f456e642074696d65206d75737420626520616674657220636c6966662074696d6044820152606560f81b6064820152608490fd5b825162461bcd60e51b8152602081880181905260248201527f436c6966662074696d65206d75737420626520696e20746865206675747572656044820152606490fd5b8280fd5b838584923461053657836003193601126105365761055661066c565b61055e610687565b6001600160a01b039182168552602085815286862091909216855281528484208054909367ffffffffffffffff8211610659576105a483836005989695981b01846106cf565b8183528583018095855286852085915b848310610613575050505050845193808501918186525180925285850193925b8281106105e15785850386f35b8351805186528083015186840152878101518887015260609081015190860152608090940193928101926001016105d4565b83896001928c9b98999b516106278161069d565b8554815284860154838201528d60028701549082015260038601546060820152815201920192019190979594976105b4565b634e487b7160e01b865260419052602485fd5b600435906001600160a01b038216820361068257565b600080fd5b602435906001600160a01b038216820361068257565b6080810190811067ffffffffffffffff8211176106b957604052565b634e487b7160e01b600052604160045260246000fd5b90601f8019910116810190811067ffffffffffffffff8211176106b957604052565b90816020910312610682575180151581036106825790565b1561071057565b60405162461bcd60e51b8152602060048201526015602482015274151bdad95b881d1c985b9cd9995c8819985a5b1959605a1b6044820152606490fd5b80548210156107695760005260206000209060021b0190600090565b634e487b7160e01b600052603260045260246000fd5b9190820391821161078c57565b634e487b7160e01b600052601160045260246000fd5b80546107ae814261077f565b9060018301546107be828261077f565b83106107de5750505080600360026107db9301549101549061077f565b90565b906107e89161077f565b60028301548115610812570481810291818304149015171561078c5760036107db9201549061077f565b634e487b7160e01b600052601260045260246000fdfea2646970667358221220d5ee8334524625c022059bd9cfd9ec66157966e6c6ed6e2339e3a693deb4af5264736f6c63430008140033c65a7bb8d6351c1cf70c95a316cc6a92839c986682d98bc35f958f4883f9d2a8",
  "devdoc": {
    "kind": "dev",
    "methods": {},
    "version": 1
  },
  "userdoc": {
    "kind": "user",
    "methods": {},
    "version": 1
  },
  "storageLayout": {
    "storage": [
      {
        "astId": 2890,
        "contract": "contracts/StreamFactory.sol:StreamFactory",
        "label": "acceptedInSupplyTokens",
        "offset": 0,
        "slot": "0",
        "type": "t_mapping(t_address,t_bool)"
      },
      {
        "astId": 2898,
        "contract": "contracts/StreamFactory.sol:StreamFactory",
        "label": "currentStreamId",
        "offset": 0,
        "slot": "1",
        "type": "t_uint16"
      },
      {
        "astId": 2901,
        "contract": "contracts/StreamFactory.sol:StreamFactory",
        "label": "params",
        "offset": 0,
        "slot": "2",
        "type": "t_struct(Params)2886_storage"
      },
      {
        "astId": 2905,
        "contract": "contracts/StreamFactory.sol:StreamFactory",
        "label": "streamAddresses",
        "offset": 0,
        "slot": "12",
        "type": "t_mapping(t_uint16,t_address)"
      },
      {
        "astId": 2907,
        "contract": "contracts/StreamFactory.sol:StreamFactory",
        "label": "frozen",
        "offset": 0,
        "slot": "13",
        "type": "t_bool"
      }
    ],
    "types": {
      "t_address": {
        "encoding": "inplace",
        "label": "address",
        "numberOfBytes": "20"
      },
      "t_bool": {
        "encoding": "inplace",
        "label": "bool",
        "numberOfBytes": "1"
      },
      "t_mapping(t_address,t_bool)": {
        "encoding": "mapping",
        "key": "t_address",
        "label": "mapping(address => bool)",
        "numberOfBytes": "32",
        "value": "t_bool"
      },
      "t_mapping(t_uint16,t_address)": {
        "encoding": "mapping",
        "key": "t_uint16",
        "label": "mapping(uint16 => address)",
        "numberOfBytes": "32",
        "value": "t_address"
      },
      "t_string_storage": {
        "encoding": "bytes",
        "label": "string",
        "numberOfBytes": "32"
      },
      "t_struct(Decimal)5_storage": {
        "encoding": "inplace",
        "label": "struct Decimal",
        "members": [
          {
            "astId": 4,
            "contract": "contracts/StreamFactory.sol:StreamFactory",
            "label": "value",
            "offset": 0,
            "slot": "0",
            "type": "t_uint256"
          }
        ],
        "numberOfBytes": "32"
      },
      "t_struct(Params)2886_storage": {
        "encoding": "inplace",
        "label": "struct StreamFactory.Params",
        "members": [
          {
            "astId": 2866,
            "contract": "contracts/StreamFactory.sol:StreamFactory",
            "label": "streamCreationFee",
            "offset": 0,
            "slot": "0",
            "type": "t_uint256"
          },
          {
            "astId": 2868,
            "contract": "contracts/StreamFactory.sol:StreamFactory",
            "label": "streamCreationFeeToken",
            "offset": 0,
            "slot": "1",
            "type": "t_address"
          },
          {
            "astId": 2871,
            "contract": "contracts/StreamFactory.sol:StreamFactory",
            "label": "exitFeeRatio",
            "offset": 0,
            "slot": "2",
            "type": "t_struct(Decimal)5_storage"
          },
          {
            "astId": 2873,
            "contract": "contracts/StreamFactory.sol:StreamFactory",
            "label": "minWaitingDuration",
            "offset": 0,
            "slot": "3",
            "type": "t_uint256"
          },
          {
            "astId": 2875,
            "contract": "contracts/StreamFactory.sol:StreamFactory",
            "label": "minBootstrappingDuration",
            "offset": 0,
            "slot": "4",
            "type": "t_uint256"
          },
          {
            "astId": 2877,
            "contract": "contracts/StreamFactory.sol:StreamFactory",
            "label": "minStreamDuration",
            "offset": 0,
            "slot": "5",
            "type": "t_uint256"
          },
          {
            "astId": 2879,
            "contract": "contracts/StreamFactory.sol:StreamFactory",
            "label": "feeCollector",
            "offset": 0,
            "slot": "6",
            "type": "t_address"
          },
          {
            "astId": 2881,
            "contract": "contracts/StreamFactory.sol:StreamFactory",
            "label": "protocolAdmin",
            "offset": 0,
            "slot": "7",
            "type": "t_address"
          },
          {
            "astId": 2883,
            "contract": "contracts/StreamFactory.sol:StreamFactory",
            "label": "tosVersion",
            "offset": 0,
            "slot": "8",
            "type": "t_string_storage"
          },
          {
            "astId": 2885,
            "contract": "contracts/StreamFactory.sol:StreamFactory",
            "label": "vestingAddress",
            "offset": 0,
            "slot": "9",
            "type": "t_address"
          }
        ],
        "numberOfBytes": "320"
      },
      "t_uint16": {
        "encoding": "inplace",
        "label": "uint16",
        "numberOfBytes": "2"
      },
      "t_uint256": {
        "encoding": "inplace",
        "label": "uint256",
        "numberOfBytes": "32"
      }
    }
  }
}