{
  "address": "0x8618c7EDa6E0848171DB1b5b81e4865e46b1118D",
  "abi": [
    {
      "inputs": [
        {
          "internalType": "uint256",
          "name": "expected",
          "type": "uint256"
        },
        {
          "internalType": "uint256",
          "name": "actual",
          "type": "uint256"
        }
      ],
      "name": "IncorrectNativeAmount",
      "type": "error"
    },
    {
      "inputs": [],
      "name": "InsufficientOutAmount",
      "type": "error"
    },
    {
      "inputs": [
        {
          "internalType": "uint256",
          "name": "requiredTokenAmount",
          "type": "uint256"
        },
        {
          "internalType": "uint256",
          "name": "tokenBalance",
          "type": "uint256"
        }
      ],
      "name": "InsufficientTokenPayment",
      "type": "error"
    },
    {
      "inputs": [],
      "name": "InvalidAmount",
      "type": "error"
    },
    {
      "inputs": [],
      "name": "InvalidDexType",
      "type": "error"
    },
    {
      "inputs": [],
      "name": "InvalidExitCondition",
      "type": "error"
    },
    {
      "inputs": [],
      "name": "InvalidImplementationAddress",
      "type": "error"
    },
    {
      "inputs": [],
      "name": "InvalidInSupplyToken",
      "type": "error"
    },
    {
      "inputs": [],
      "name": "InvalidInputToken",
      "type": "error"
    },
    {
      "inputs": [
        {
          "internalType": "address",
          "name": "from",
          "type": "address"
        }
      ],
      "name": "InvalidNativePayer",
      "type": "error"
    },
    {
      "inputs": [],
      "name": "InvalidOutSupplyToken",
      "type": "error"
    },
    {
      "inputs": [],
      "name": "InvalidPoolOutSupplyAmount",
      "type": "error"
    },
    {
      "inputs": [],
      "name": "InvalidPoolType",
      "type": "error"
    },
    {
      "inputs": [
        {
          "internalType": "address",
          "name": "user",
          "type": "address"
        },
        {
          "internalType": "uint256",
          "name": "shares",
          "type": "uint256"
        },
        {
          "internalType": "uint256",
          "name": "exitDate",
          "type": "uint256"
        },
        {
          "internalType": "string",
          "name": "reason",
          "type": "string"
        }
      ],
      "name": "InvalidPosition",
      "type": "error"
    },
    {
      "inputs": [],
      "name": "InvalidPositionStorageAddress",
      "type": "error"
    },
    {
      "inputs": [],
      "name": "InvalidStreamFactoryAddress",
      "type": "error"
    },
    {
      "inputs": [],
      "name": "InvalidVestingCliffDuration",
      "type": "error"
    },
    {
      "inputs": [],
      "name": "InvalidVestingDuration",
      "type": "error"
    },
    {
      "inputs": [],
      "name": "InvalidWithdrawAmount",
      "type": "error"
    },
    {
      "inputs": [],
      "name": "NativeTokenTransferFailed",
      "type": "error"
    },
    {
      "inputs": [],
      "name": "OperationNotAllowed",
      "type": "error"
    },
    {
      "inputs": [],
      "name": "PaymentFailed",
      "type": "error"
    },
    {
      "inputs": [],
      "name": "SameInputAndOutputToken",
      "type": "error"
    },
    {
      "inputs": [],
      "name": "StreamFactoryAddressAlreadySet",
      "type": "error"
    },
    {
      "inputs": [],
      "name": "Unauthorized",
      "type": "error"
    },
    {
      "inputs": [
        {
          "internalType": "uint256",
          "name": "cap",
          "type": "uint256"
        }
      ],
      "name": "WithdrawAmountExceedsBalance",
      "type": "error"
    },
    {
      "anonymous": false,
      "inputs": [
        {
          "indexed": false,
          "internalType": "address",
          "name": "previousAdmin",
          "type": "address"
        },
        {
          "indexed": false,
          "internalType": "address",
          "name": "newAdmin",
          "type": "address"
        }
      ],
      "name": "AdminChanged",
      "type": "event"
    },
    {
      "anonymous": false,
      "inputs": [
        {
          "indexed": true,
          "internalType": "address",
          "name": "beacon",
          "type": "address"
        }
      ],
      "name": "BeaconUpgraded",
      "type": "event"
    },
    {
      "anonymous": false,
      "inputs": [
        {
          "indexed": true,
          "internalType": "address",
          "name": "beneficiary",
          "type": "address"
        },
        {
          "indexed": false,
          "internalType": "address",
          "name": "vestingAddress",
          "type": "address"
        },
        {
          "indexed": false,
          "internalType": "uint64",
          "name": "vestingDuration",
          "type": "uint64"
        },
        {
          "indexed": false,
          "internalType": "address",
          "name": "token",
          "type": "address"
        },
        {
          "indexed": false,
          "internalType": "uint256",
          "name": "amount",
          "type": "uint256"
        }
      ],
      "name": "BeneficiaryVestingCreated",
      "type": "event"
    },
    {
      "anonymous": false,
      "inputs": [
        {
          "indexed": true,
          "internalType": "address",
          "name": "creator",
          "type": "address"
        },
        {
          "indexed": false,
          "internalType": "address",
          "name": "vestingAddress",
          "type": "address"
        },
        {
          "indexed": false,
          "internalType": "uint256",
          "name": "vestingDuration",
          "type": "uint256"
        },
        {
          "indexed": false,
          "internalType": "address",
          "name": "token",
          "type": "address"
        },
        {
          "indexed": false,
          "internalType": "uint256",
          "name": "amount",
          "type": "uint256"
        }
      ],
      "name": "CreatorVestingCreated",
      "type": "event"
    },
    {
      "anonymous": false,
      "inputs": [
        {
          "indexed": true,
          "internalType": "address",
          "name": "streamAddress",
          "type": "address"
        },
        {
          "indexed": true,
          "internalType": "address",
          "name": "subscriber",
          "type": "address"
        },
        {
          "indexed": false,
          "internalType": "uint256",
          "name": "inBalance",
          "type": "uint256"
        },
        {
          "indexed": false,
          "internalType": "uint256",
          "name": "spentIn",
          "type": "uint256"
        },
        {
          "indexed": false,
          "internalType": "uint256",
          "name": "exitTimestamp",
          "type": "uint256"
        }
      ],
      "name": "ExitRefunded",
      "type": "event"
    },
    {
      "anonymous": false,
      "inputs": [
        {
          "indexed": true,
          "internalType": "address",
          "name": "streamAddress",
          "type": "address"
        },
        {
          "indexed": true,
          "internalType": "address",
          "name": "subscriber",
          "type": "address"
        },
        {
          "indexed": false,
          "internalType": "uint256",
          "name": "purchased",
          "type": "uint256"
        },
        {
          "indexed": false,
          "internalType": "uint256",
          "name": "spentIn",
          "type": "uint256"
        },
        {
          "indexed": false,
          "internalType": "uint256",
          "name": "index",
          "type": "uint256"
        },
        {
          "indexed": false,
          "internalType": "uint256",
          "name": "inBalance",
          "type": "uint256"
        },
        {
          "indexed": false,
          "internalType": "uint256",
          "name": "exitTimestamp",
          "type": "uint256"
        }
      ],
      "name": "ExitStreamed",
      "type": "event"
    },
    {
      "anonymous": false,
      "inputs": [
        {
          "indexed": true,
          "internalType": "address",
          "name": "streamAddress",
          "type": "address"
        },
        {
          "indexed": true,
          "internalType": "address",
          "name": "creator",
          "type": "address"
        },
        {
          "indexed": false,
          "internalType": "uint256",
          "name": "refundedOutAmount",
          "type": "uint256"
        }
      ],
      "name": "FinalizedRefunded",
      "type": "event"
    },
    {
      "anonymous": false,
      "inputs": [
        {
          "indexed": true,
          "internalType": "address",
          "name": "streamAddress",
          "type": "address"
        },
        {
          "indexed": true,
          "internalType": "address",
          "name": "creator",
          "type": "address"
        },
        {
          "indexed": false,
          "internalType": "uint256",
          "name": "creatorRevenue",
          "type": "uint256"
        },
        {
          "indexed": false,
          "internalType": "uint256",
          "name": "exitFeeAmount",
          "type": "uint256"
        },
        {
          "indexed": false,
          "internalType": "uint256",
          "name": "refundedOutAmount",
          "type": "uint256"
        }
      ],
      "name": "FinalizedStreamed",
      "type": "event"
    },
    {
      "anonymous": false,
      "inputs": [
        {
          "indexed": true,
          "internalType": "address",
          "name": "streamAddress",
          "type": "address"
        },
        {
          "indexed": true,
          "internalType": "address",
          "name": "poolAddress",
          "type": "address"
        },
        {
          "indexed": false,
          "internalType": "address",
          "name": "token0",
          "type": "address"
        },
        {
          "indexed": false,
          "internalType": "address",
          "name": "token1",
          "type": "address"
        },
        {
          "indexed": false,
          "internalType": "uint256",
          "name": "amount0",
          "type": "uint256"
        },
        {
          "indexed": false,
          "internalType": "uint256",
          "name": "amount1",
          "type": "uint256"
        },
        {
          "indexed": false,
          "internalType": "uint256",
          "name": "refundedAmount0",
          "type": "uint256"
        },
        {
          "indexed": false,
          "internalType": "uint256",
          "name": "refundedAmount1",
          "type": "uint256"
        },
        {
          "indexed": true,
          "internalType": "address",
          "name": "creator",
          "type": "address"
        }
      ],
      "name": "PoolCreated",
      "type": "event"
    },
    {
      "anonymous": false,
      "inputs": [
        {
          "indexed": true,
          "internalType": "address",
          "name": "streamAddress",
          "type": "address"
        },
        {
          "indexed": true,
          "internalType": "address",
          "name": "subscriber",
          "type": "address"
        },
        {
          "indexed": false,
          "internalType": "uint256",
          "name": "positionInBalance",
          "type": "uint256"
        },
        {
          "indexed": false,
          "internalType": "uint256",
          "name": "positionShares",
          "type": "uint256"
        },
        {
          "indexed": false,
          "internalType": "uint256",
          "name": "positionLastUpdateTime",
          "type": "uint256"
        },
        {
          "indexed": false,
          "internalType": "uint256",
          "name": "positionSpentIn",
          "type": "uint256"
        },
        {
          "indexed": false,
          "internalType": "uint256",
          "name": "positionPurchased",
          "type": "uint256"
        },
        {
          "indexed": false,
          "internalType": "uint256",
          "name": "positionIndex",
          "type": "uint256"
        }
      ],
      "name": "PositionSynced",
      "type": "event"
    },
    {
      "anonymous": false,
      "inputs": [
        {
          "indexed": true,
          "internalType": "address",
          "name": "streamAddress",
          "type": "address"
        },
        {
          "indexed": false,
          "internalType": "address",
          "name": "creator",
          "type": "address"
        },
        {
          "indexed": false,
          "internalType": "uint256",
          "name": "outSupply",
          "type": "uint256"
        },
        {
          "indexed": false,
          "internalType": "uint8",
          "name": "status",
          "type": "uint8"
        }
      ],
      "name": "StreamCancelled",
      "type": "event"
    },
    {
      "anonymous": false,
      "inputs": [
        {
          "indexed": true,
          "internalType": "address",
          "name": "streamAddress",
          "type": "address"
        },
        {
          "indexed": false,
          "internalType": "string",
          "name": "metadataIpfsHash",
          "type": "string"
        }
      ],
      "name": "StreamMetadataUpdated",
      "type": "event"
    },
    {
      "anonymous": false,
      "inputs": [
        {
          "indexed": true,
          "internalType": "address",
          "name": "streamAddress",
          "type": "address"
        },
        {
          "indexed": false,
          "internalType": "uint256",
          "name": "lastUpdated",
          "type": "uint256"
        },
        {
          "indexed": false,
          "internalType": "uint256",
          "name": "distIndex",
          "type": "uint256"
        },
        {
          "indexed": false,
          "internalType": "uint256",
          "name": "outRemaining",
          "type": "uint256"
        },
        {
          "indexed": false,
          "internalType": "uint256",
          "name": "inSupply",
          "type": "uint256"
        },
        {
          "indexed": false,
          "internalType": "uint256",
          "name": "spentIn",
          "type": "uint256"
        },
        {
          "indexed": false,
          "internalType": "uint256",
          "name": "currentStreamedPrice",
          "type": "uint256"
        }
      ],
      "name": "StreamStateUpdated",
      "type": "event"
    },
    {
      "anonymous": false,
      "inputs": [
        {
          "indexed": true,
          "internalType": "address",
          "name": "streamAddress",
          "type": "address"
        },
        {
          "indexed": false,
          "internalType": "uint256",
          "name": "lastUpdated",
          "type": "uint256"
        },
        {
          "indexed": false,
          "internalType": "uint8",
          "name": "newStatus",
          "type": "uint8"
        },
        {
          "indexed": false,
          "internalType": "uint256",
          "name": "distIndex",
          "type": "uint256"
        },
        {
          "indexed": false,
          "internalType": "uint256",
          "name": "outRemaining",
          "type": "uint256"
        },
        {
          "indexed": false,
          "internalType": "uint256",
          "name": "inSupply",
          "type": "uint256"
        },
        {
          "indexed": false,
          "internalType": "uint256",
          "name": "spentIn",
          "type": "uint256"
        },
        {
          "indexed": false,
          "internalType": "uint256",
          "name": "currentStreamedPrice",
          "type": "uint256"
        }
      ],
      "name": "StreamSynced",
      "type": "event"
    },
    {
      "anonymous": false,
      "inputs": [
        {
          "indexed": true,
          "internalType": "address",
          "name": "streamAddress",
          "type": "address"
        },
        {
          "indexed": true,
          "internalType": "address",
          "name": "subscriber",
          "type": "address"
        },
        {
          "indexed": false,
          "internalType": "uint256",
          "name": "positionInBalance",
          "type": "uint256"
        },
        {
          "indexed": false,
          "internalType": "uint256",
          "name": "positionShares",
          "type": "uint256"
        },
        {
          "indexed": false,
          "internalType": "uint256",
          "name": "positionLastUpdateTime",
          "type": "uint256"
        },
        {
          "indexed": false,
          "internalType": "uint256",
          "name": "positionSpentIn",
          "type": "uint256"
        },
        {
          "indexed": false,
          "internalType": "uint256",
          "name": "positionPurchased",
          "type": "uint256"
        },
        {
          "indexed": false,
          "internalType": "uint256",
          "name": "positionIndex",
          "type": "uint256"
        },
        {
          "indexed": false,
          "internalType": "uint256",
          "name": "streamInSupply",
          "type": "uint256"
        },
        {
          "indexed": false,
          "internalType": "uint256",
          "name": "streamShares",
          "type": "uint256"
        }
      ],
      "name": "Subscribed",
      "type": "event"
    },
    {
      "anonymous": false,
      "inputs": [
        {
          "indexed": true,
          "internalType": "address",
          "name": "implementation",
          "type": "address"
        }
      ],
      "name": "Upgraded",
      "type": "event"
    },
    {
      "anonymous": false,
      "inputs": [
        {
          "indexed": true,
          "internalType": "address",
          "name": "streamAddress",
          "type": "address"
        },
        {
          "indexed": true,
          "internalType": "address",
          "name": "subscriber",
          "type": "address"
        },
        {
          "indexed": false,
          "internalType": "uint256",
          "name": "positionInBalance",
          "type": "uint256"
        },
        {
          "indexed": false,
          "internalType": "uint256",
          "name": "positionShares",
          "type": "uint256"
        },
        {
          "indexed": false,
          "internalType": "uint256",
          "name": "positionLastUpdateTime",
          "type": "uint256"
        },
        {
          "indexed": false,
          "internalType": "uint256",
          "name": "positionSpentIn",
          "type": "uint256"
        },
        {
          "indexed": false,
          "internalType": "uint256",
          "name": "positionPurchased",
          "type": "uint256"
        },
        {
          "indexed": false,
          "internalType": "uint256",
          "name": "positionIndex",
          "type": "uint256"
        },
        {
          "indexed": false,
          "internalType": "uint256",
          "name": "streamInSupply",
          "type": "uint256"
        },
        {
          "indexed": false,
          "internalType": "uint256",
          "name": "streamShares",
          "type": "uint256"
        }
      ],
      "name": "Withdrawn",
      "type": "event"
    },
    {
      "inputs": [],
      "name": "PERMIT2",
      "outputs": [
        {
          "internalType": "address",
          "name": "",
          "type": "address"
        }
      ],
      "stateMutability": "view",
      "type": "function"
    },
    {
      "inputs": [],
      "name": "STREAM_FACTORY_ADDRESS",
      "outputs": [
        {
          "internalType": "address",
          "name": "",
          "type": "address"
        }
      ],
      "stateMutability": "view",
      "type": "function"
    },
    {
      "inputs": [],
      "name": "VARIANT",
      "outputs": [
        {
          "internalType": "string",
          "name": "",
          "type": "string"
        }
      ],
      "stateMutability": "view",
      "type": "function"
    },
    {
      "inputs": [],
      "name": "VERSION",
      "outputs": [
        {
          "internalType": "string",
          "name": "",
          "type": "string"
        }
      ],
      "stateMutability": "view",
      "type": "function"
    },
    {
      "inputs": [],
      "name": "cancelStream",
      "outputs": [],
      "stateMutability": "nonpayable",
      "type": "function"
    },
    {
      "inputs": [],
      "name": "cancelWithAdmin",
      "outputs": [],
      "stateMutability": "nonpayable",
      "type": "function"
    },
    {
      "inputs": [],
      "name": "creator",
      "outputs": [
        {
          "internalType": "address",
          "name": "",
          "type": "address"
        }
      ],
      "stateMutability": "view",
      "type": "function"
    },
    {
      "inputs": [],
      "name": "exitStream",
      "outputs": [],
      "stateMutability": "nonpayable",
      "type": "function"
    },
    {
      "inputs": [],
      "name": "factoryParamsSnapshot",
      "outputs": [
        {
          "internalType": "uint256",
          "name": "streamCreationFee",
          "type": "uint256"
        },
        {
          "internalType": "address",
          "name": "streamCreationFeeToken",
          "type": "address"
        },
        {
          "components": [
            {
              "internalType": "uint256",
              "name": "value",
              "type": "uint256"
            }
          ],
          "internalType": "struct Decimal",
          "name": "exitFeeRatio",
          "type": "tuple"
        },
        {
          "components": [
            {
              "internalType": "uint256",
              "name": "value",
              "type": "uint256"
            }
          ],
          "internalType": "struct Decimal",
          "name": "subscriptionFeeRatio",
          "type": "tuple"
        },
        {
          "internalType": "uint256",
          "name": "minWaitingDuration",
          "type": "uint256"
        },
        {
          "internalType": "uint256",
          "name": "minBootstrappingDuration",
          "type": "uint256"
        },
        {
          "internalType": "uint256",
          "name": "minStreamDuration",
          "type": "uint256"
        },
        {
          "internalType": "address",
          "name": "feeCollector",
          "type": "address"
        },
        {
          "internalType": "address",
          "name": "protocolAdmin",
          "type": "address"
        },
        {
          "internalType": "string",
          "name": "tosVersion",
          "type": "string"
        },
        {
          "internalType": "address",
          "name": "vestingFactoryAddress",
          "type": "address"
        },
        {
          "internalType": "address",
          "name": "poolRouterAddress",
          "type": "address"
        },
        {
          "internalType": "address",
          "name": "tokenFactoryAddress",
          "type": "address"
        }
      ],
      "stateMutability": "view",
      "type": "function"
    },
    {
      "inputs": [],
      "name": "finalizeStream",
      "outputs": [],
      "stateMutability": "nonpayable",
      "type": "function"
    },
    {
      "inputs": [
        {
          "internalType": "address",
          "name": "user",
          "type": "address"
        }
      ],
      "name": "getPosition",
      "outputs": [
        {
          "components": [
            {
              "internalType": "uint256",
              "name": "inBalance",
              "type": "uint256"
            },
            {
              "internalType": "uint256",
              "name": "shares",
              "type": "uint256"
            },
            {
              "components": [
                {
                  "internalType": "uint256",
                  "name": "value",
                  "type": "uint256"
                }
              ],
              "internalType": "struct Decimal",
              "name": "index",
              "type": "tuple"
            },
            {
              "internalType": "uint256",
              "name": "lastUpdateTime",
              "type": "uint256"
            },
            {
              "components": [
                {
                  "internalType": "uint256",
                  "name": "value",
                  "type": "uint256"
                }
              ],
              "internalType": "struct Decimal",
              "name": "pendingReward",
              "type": "tuple"
            },
            {
              "internalType": "uint256",
              "name": "spentIn",
              "type": "uint256"
            },
            {
              "internalType": "uint256",
              "name": "purchased",
              "type": "uint256"
            },
            {
              "internalType": "uint256",
              "name": "exitDate",
              "type": "uint256"
            }
          ],
          "internalType": "struct PositionTypes.Position",
          "name": "",
          "type": "tuple"
        }
      ],
      "stateMutability": "view",
      "type": "function"
    },
    {
      "inputs": [],
      "name": "getPostStreamActions",
      "outputs": [
        {
          "components": [
            {
              "components": [
                {
                  "internalType": "uint256",
                  "name": "poolOutSupplyAmount",
                  "type": "uint256"
                },
                {
                  "internalType": "enum StreamTypes.DexType",
                  "name": "dexType",
                  "type": "uint8"
                },
                {
                  "internalType": "bytes",
                  "name": "extra",
                  "type": "bytes"
                }
              ],
              "internalType": "struct StreamTypes.PoolInfo",
              "name": "poolInfo",
              "type": "tuple"
            },
            {
              "components": [
                {
                  "internalType": "bool",
                  "name": "isVestingEnabled",
                  "type": "bool"
                },
                {
                  "internalType": "uint64",
                  "name": "vestingDuration",
                  "type": "uint64"
                }
              ],
              "internalType": "struct StreamTypes.VestingInfo",
              "name": "creatorVesting",
              "type": "tuple"
            },
            {
              "components": [
                {
                  "internalType": "bool",
                  "name": "isVestingEnabled",
                  "type": "bool"
                },
                {
                  "internalType": "uint64",
                  "name": "vestingDuration",
                  "type": "uint64"
                }
              ],
              "internalType": "struct StreamTypes.VestingInfo",
              "name": "beneficiaryVesting",
              "type": "tuple"
            }
          ],
          "internalType": "struct StreamTypes.PostStreamActions",
          "name": "",
          "type": "tuple"
        }
      ],
      "stateMutability": "view",
      "type": "function"
    },
    {
      "inputs": [],
      "name": "getStreamMetadata",
      "outputs": [
        {
          "components": [
            {
              "internalType": "string",
              "name": "ipfsHash",
              "type": "string"
            }
          ],
          "internalType": "struct StreamTypes.StreamMetadata",
          "name": "",
          "type": "tuple"
        }
      ],
      "stateMutability": "view",
      "type": "function"
    },
    {
      "inputs": [],
      "name": "getStreamState",
      "outputs": [
        {
          "components": [
            {
              "internalType": "uint256",
              "name": "outRemaining",
              "type": "uint256"
            },
            {
              "components": [
                {
                  "internalType": "uint256",
                  "name": "value",
                  "type": "uint256"
                }
              ],
              "internalType": "struct Decimal",
              "name": "distIndex",
              "type": "tuple"
            },
            {
              "internalType": "uint256",
              "name": "spentIn",
              "type": "uint256"
            },
            {
              "internalType": "uint256",
              "name": "shares",
              "type": "uint256"
            },
            {
              "components": [
                {
                  "internalType": "uint256",
                  "name": "value",
                  "type": "uint256"
                }
              ],
              "internalType": "struct Decimal",
              "name": "currentStreamedPrice",
              "type": "tuple"
            },
            {
              "internalType": "uint256",
              "name": "threshold",
              "type": "uint256"
            },
            {
              "internalType": "uint256",
              "name": "inSupply",
              "type": "uint256"
            },
            {
              "internalType": "uint256",
              "name": "outSupply",
              "type": "uint256"
            },
            {
              "internalType": "uint256",
              "name": "lastUpdated",
              "type": "uint256"
            }
          ],
          "internalType": "struct StreamTypes.StreamState",
          "name": "",
          "type": "tuple"
        }
      ],
      "stateMutability": "view",
      "type": "function"
    },
    {
      "inputs": [],
      "name": "getStreamStatus",
      "outputs": [
        {
          "internalType": "enum StreamTypes.Status",
          "name": "",
          "type": "uint8"
        }
      ],
      "stateMutability": "view",
      "type": "function"
    },
    {
      "inputs": [],
      "name": "implementation",
      "outputs": [
        {
          "internalType": "string",
          "name": "",
          "type": "string"
        }
      ],
      "stateMutability": "pure",
      "type": "function"
    },
    {
      "inputs": [
        {
          "components": [
            {
              "internalType": "address",
              "name": "creator",
              "type": "address"
            },
            {
              "internalType": "address",
              "name": "inSupplyToken",
              "type": "address"
            },
            {
              "internalType": "address",
              "name": "outSupplyToken",
              "type": "address"
            },
            {
              "internalType": "uint256",
              "name": "streamOutAmount",
              "type": "uint256"
            },
            {
              "internalType": "uint256",
              "name": "threshold",
              "type": "uint256"
            },
            {
              "internalType": "uint256",
              "name": "bootstrappingStartTime",
              "type": "uint256"
            },
            {
              "internalType": "uint256",
              "name": "streamStartTime",
              "type": "uint256"
            },
            {
              "internalType": "uint256",
              "name": "streamEndTime",
              "type": "uint256"
            },
            {
              "components": [
                {
                  "internalType": "string",
                  "name": "ipfsHash",
                  "type": "string"
                }
              ],
              "internalType": "struct StreamTypes.StreamMetadata",
              "name": "metadata",
              "type": "tuple"
            },
            {
              "components": [
                {
                  "internalType": "bool",
                  "name": "isVestingEnabled",
                  "type": "bool"
                },
                {
                  "internalType": "uint64",
                  "name": "vestingDuration",
                  "type": "uint64"
                }
              ],
              "internalType": "struct StreamTypes.VestingInfo",
              "name": "creatorVesting",
              "type": "tuple"
            },
            {
              "components": [
                {
                  "internalType": "bool",
                  "name": "isVestingEnabled",
                  "type": "bool"
                },
                {
                  "internalType": "uint64",
                  "name": "vestingDuration",
                  "type": "uint64"
                }
              ],
              "internalType": "struct StreamTypes.VestingInfo",
              "name": "beneficiaryVesting",
              "type": "tuple"
            },
            {
              "components": [
                {
                  "internalType": "uint256",
                  "name": "poolOutSupplyAmount",
                  "type": "uint256"
                },
                {
                  "internalType": "enum StreamTypes.DexType",
                  "name": "dexType",
                  "type": "uint8"
                },
                {
                  "internalType": "bytes",
                  "name": "extra",
                  "type": "bytes"
                }
              ],
              "internalType": "struct StreamTypes.PoolInfo",
              "name": "poolInfo",
              "type": "tuple"
            },
            {
              "internalType": "string",
              "name": "tosVersion",
              "type": "string"
            },
            {
              "internalType": "bytes32",
              "name": "whitelistRoot",
              "type": "bytes32"
            }
          ],
          "internalType": "struct StreamTypes.CreateStreamMessage",
          "name": "createStreamMessage",
          "type": "tuple"
        },
        {
          "internalType": "address",
          "name": "storageAddress",
          "type": "address"
        },
        {
          "internalType": "uint8",
          "name": "inTokenDecimals",
          "type": "uint8"
        },
        {
          "internalType": "uint8",
          "name": "outTokenDecimals",
          "type": "uint8"
        }
      ],
      "name": "initialize",
      "outputs": [],
      "stateMutability": "nonpayable",
      "type": "function"
    },
    {
      "inputs": [],
      "name": "positionStorageAddress",
      "outputs": [
        {
          "internalType": "address",
          "name": "",
          "type": "address"
        }
      ],
      "stateMutability": "view",
      "type": "function"
    },
    {
      "inputs": [],
      "name": "proxiableUUID",
      "outputs": [
        {
          "internalType": "bytes32",
          "name": "",
          "type": "bytes32"
        }
      ],
      "stateMutability": "view",
      "type": "function"
    },
    {
      "inputs": [],
      "name": "streamMetadata",
      "outputs": [
        {
          "internalType": "string",
          "name": "ipfsHash",
          "type": "string"
        }
      ],
      "stateMutability": "view",
      "type": "function"
    },
    {
      "inputs": [],
      "name": "streamState",
      "outputs": [
        {
          "internalType": "uint256",
          "name": "outRemaining",
          "type": "uint256"
        },
        {
          "components": [
            {
              "internalType": "uint256",
              "name": "value",
              "type": "uint256"
            }
          ],
          "internalType": "struct Decimal",
          "name": "distIndex",
          "type": "tuple"
        },
        {
          "internalType": "uint256",
          "name": "spentIn",
          "type": "uint256"
        },
        {
          "internalType": "uint256",
          "name": "shares",
          "type": "uint256"
        },
        {
          "components": [
            {
              "internalType": "uint256",
              "name": "value",
              "type": "uint256"
            }
          ],
          "internalType": "struct Decimal",
          "name": "currentStreamedPrice",
          "type": "tuple"
        },
        {
          "internalType": "uint256",
          "name": "threshold",
          "type": "uint256"
        },
        {
          "internalType": "uint256",
          "name": "inSupply",
          "type": "uint256"
        },
        {
          "internalType": "uint256",
          "name": "outSupply",
          "type": "uint256"
        },
        {
          "internalType": "uint256",
          "name": "lastUpdated",
          "type": "uint256"
        }
      ],
      "stateMutability": "view",
      "type": "function"
    },
    {
      "inputs": [],
      "name": "streamStatus",
      "outputs": [
        {
          "internalType": "enum StreamTypes.Status",
          "name": "",
          "type": "uint8"
        }
      ],
      "stateMutability": "view",
      "type": "function"
    },
    {
      "inputs": [],
      "name": "streamTimes",
      "outputs": [
        {
          "internalType": "uint256",
          "name": "bootstrappingStartTime",
          "type": "uint256"
        },
        {
          "internalType": "uint256",
          "name": "streamStartTime",
          "type": "uint256"
        },
        {
          "internalType": "uint256",
          "name": "streamEndTime",
          "type": "uint256"
        }
      ],
      "stateMutability": "view",
      "type": "function"
    },
    {
      "inputs": [],
      "name": "streamTokens",
      "outputs": [
        {
          "components": [
            {
              "internalType": "address",
              "name": "tokenAddress",
              "type": "address"
            },
            {
              "internalType": "uint8",
              "name": "decimals",
              "type": "uint8"
            }
          ],
          "internalType": "struct StreamTypes.Token",
          "name": "inToken",
          "type": "tuple"
        },
        {
          "components": [
            {
              "internalType": "address",
              "name": "tokenAddress",
              "type": "address"
            },
            {
              "internalType": "uint8",
              "name": "decimals",
              "type": "uint8"
            }
          ],
          "internalType": "struct StreamTypes.Token",
          "name": "outToken",
          "type": "tuple"
        }
      ],
      "stateMutability": "view",
      "type": "function"
    },
    {
      "inputs": [
        {
          "internalType": "uint256",
          "name": "amountIn",
          "type": "uint256"
        },
        {
          "internalType": "bytes32[]",
          "name": "merkleProof",
          "type": "bytes32[]"
        }
      ],
      "name": "subscribe",
      "outputs": [],
      "stateMutability": "nonpayable",
      "type": "function"
    },
    {
      "inputs": [
        {
          "internalType": "uint256",
          "name": "amountIn",
          "type": "uint256"
        },
        {
          "internalType": "bytes32[]",
          "name": "merkleProof",
          "type": "bytes32[]"
        }
      ],
      "name": "subscribeWithNativeToken",
      "outputs": [],
      "stateMutability": "payable",
      "type": "function"
    },
    {
      "inputs": [
        {
          "internalType": "uint256",
          "name": "amountIn",
          "type": "uint256"
        },
        {
          "internalType": "address",
          "name": "owner",
          "type": "address"
        },
        {
          "components": [
            {
              "components": [
                {
                  "internalType": "address",
                  "name": "token",
                  "type": "address"
                },
                {
                  "internalType": "uint160",
                  "name": "amount",
                  "type": "uint160"
                },
                {
                  "internalType": "uint48",
                  "name": "expiration",
                  "type": "uint48"
                },
                {
                  "internalType": "uint48",
                  "name": "nonce",
                  "type": "uint48"
                }
              ],
              "internalType": "struct IPermit2.PermitDetails",
              "name": "details",
              "type": "tuple"
            },
            {
              "internalType": "address",
              "name": "spender",
              "type": "address"
            },
            {
              "internalType": "uint256",
              "name": "sigDeadline",
              "type": "uint256"
            }
          ],
          "internalType": "struct IPermit2.PermitSingle",
          "name": "permitSingle",
          "type": "tuple"
        },
        {
          "internalType": "bytes",
          "name": "signature",
          "type": "bytes"
        },
        {
          "internalType": "bytes32[]",
          "name": "merkleProof",
          "type": "bytes32[]"
        }
      ],
      "name": "subscribeWithPermit",
      "outputs": [],
      "stateMutability": "nonpayable",
      "type": "function"
    },
    {
      "inputs": [
        {
          "internalType": "address",
          "name": "user",
          "type": "address"
        }
      ],
      "name": "syncPositionExternal",
      "outputs": [],
      "stateMutability": "nonpayable",
      "type": "function"
    },
    {
      "inputs": [],
      "name": "syncStreamExternal",
      "outputs": [],
      "stateMutability": "nonpayable",
      "type": "function"
    },
    {
      "inputs": [
        {
          "internalType": "string",
          "name": "metadataIpfsHash",
          "type": "string"
        }
      ],
      "name": "updateStreamMetadata",
      "outputs": [],
      "stateMutability": "nonpayable",
      "type": "function"
    },
    {
      "inputs": [
        {
          "internalType": "address",
          "name": "newImplementation",
          "type": "address"
        }
      ],
      "name": "upgradeTo",
      "outputs": [],
      "stateMutability": "nonpayable",
      "type": "function"
    },
    {
      "inputs": [
        {
          "internalType": "address",
          "name": "newImplementation",
          "type": "address"
        },
        {
          "internalType": "bytes",
          "name": "data",
          "type": "bytes"
        }
      ],
      "name": "upgradeToAndCall",
      "outputs": [],
      "stateMutability": "payable",
      "type": "function"
    },
    {
      "inputs": [],
      "name": "whitelistRoot",
      "outputs": [
        {
          "internalType": "bytes32",
          "name": "",
          "type": "bytes32"
        }
      ],
      "stateMutability": "view",
      "type": "function"
    },
    {
      "inputs": [
        {
          "internalType": "uint256",
          "name": "cap",
          "type": "uint256"
        }
      ],
      "name": "withdraw",
      "outputs": [],
      "stateMutability": "nonpayable",
      "type": "function"
    }
  ],
  "transactionHash": "0x661c5897458e0747ef564b27555206bf66322c199b06ff8862c7712ef82f4e7c",
  "args": [],
  "numDeployments": 1,
  "solcInputHash": "2d04b4029a7364ce708cea03ab3b32df",
  "bytecode": "0x60a080604052346100315730608052613c6a9081610037823960805181818161167a015281816117690152611a060152f35b600080fdfe608080604052600436101561001357600080fd5b600090813560e01c90816302d05d3f146125df5750806303905474146114265780630bcc8eba146124f35780630e5634df146124d757806316c19739146124a55780631f2288691461247957806321194bd7146122b957806326418953146122735780632ae4e931146121fa5780632cefeb1914611f0a5780632e1a7d4d14611d3a578063315e170514611c6f57806334793e0514611ba75780633659cfe6146119e1578063386bfc98146119c35780634f1ef2861461172b57806352d1902d146116675780635c60da1b1461160857806360d388d8146115df5780636afdd850146115b55780636b330b79146114d25780638a03764f146114a0578063aa5703ad1461144c578063af5c3ac414611426578063c0ae398c146113a4578063c603500a14611357578063cbf06415146110c8578063d08452c21461102c578063d25493b314610e91578063e427d08c14610e68578063e9a9e14414610db7578063ea9d9707146103c0578063f69e8fba146101cd5763ffa1ad741461019757600080fd5b346101ca57806003193601126101ca576101c66101b26129b5565b6040519182916020835260208301906127fa565b0390f35b80fd5b50346101ca57806003193601126101ca5780546001600160a01b0390811633036103af57600f5461020a6101ff612de4565b429060ff8416612e22565b600781101561039b576003036103895761022a610225612b99565b61339c565b91604083015160a084015181101584519360e08601519160001461032e57505091816102cd6102ae95947f16d1e1ee4b51bbfbf5d46884cac3a98f673074103d40dfae8a99e5b51457b7d294601b54166102c1620f42406102a360405161029081612679565b601654815261029e8661376b565b6138ce565b510498898094612c13565b97600560ff19600f541617600f55613722565b83600c54163090612f1c565b6102e28482600c541683895416903090612f1c565b81610314575b8554169361030e6040519283923096846040919493926060820195825260208201520152565b0390a380f35b6103298282600d541683895416903090612f1c565b6102e8565b60ff1916600417600f55610386949093506103499150613722565b8084541690816040518481527f3f3e233ce59fa3e5f0b479b323538988fd213fa8f3007a95ff330489bf5d40a660203092a33090600d5416612f1c565b80f35b604051637a851da960e11b8152600490fd5b634e487b7160e01b84526021600452602484fd5b6040516282b42960e81b8152600490fd5b50346101ca5760803660031901126101ca576001600160401b03600435116101ca57610200600435360360031901126101ca576040516101c081018181106001600160401b03821117610d6f5760405261041e60043560040161284b565b815261042e60246004350161284b565b602082015261044160446004350161284b565b6040820152600435606481013560608301526084810135608083015260a481013560a083015260c481013560c083015260e481013560e08301526001600160401b036101049091013511610daf5760206004356101048101350136036003190112610daf576040516104b281612679565b6001600160401b036004803561010481013501013511610db3576104e636600480356101048101350180820135010161292a565b81526101008201526104fe3661012460043501612971565b6101208201526105143661016460043501612971565b6101408201526001600160401b036101a4600435013511610daf5760606004356101a48101350136036003190112610daf5760405161055281612694565b600480356101a48101350190810135825260036024909101351015610db3576004356101a481013501602481013560208301526001600160401b0360449091013511610db3576105b336600480356101a4810135016044810135010161292a565b60408201526101608201526001600160401b036101c4600435013511610daf576105e836600480356101c4810135010161292a565b6101808201526101e460043501356101a0820152610604612835565b6044359060ff82168203610daa5760ff6064351660643503610daa5760025460ff8160a01c166103af576001600160a01b03821615610d9857600180546001600160a01b0319808216339081179093559092166001600160a01b0390931692909217600255604051635e615a6b60e01b815291859183916004918391908516175afa908115610d8d578491610bcd575b5080516014556020810151601580546001600160a01b039283166001600160a01b031991821617909155604083015151601655606083015151601755608083015160185560a083015160195560c0830151601a5560e0830151601b8054918416918316919091179055610100830151601c80549190931691161790556101208101518051906001600160401b038211610bb9578190610734601d5461262c565b601f8111610b47575b50602090601f8311600114610ad1578792610ac6575b50508160011b916000199060031b1c191617601d555b610140810151601e80546001600160a01b03199081166001600160a01b0393841617909155610160830151601f80548316918416919091179055610180909201516020805484169183169190911790558351855490921691161783556040516000906107d481612679565b526040516107e181612679565b6000815260608301519060006040516107f981612679565b5260405161080681612679565b60008152608085015191606086015193604051610822816126af565b8181528260208201528860408201528860608201528360808201528460a08201528860c08201528560e0820152610100429101526003555160045585600555856006555160075560085583600955600a5542600b5560018060a01b036020830151169060405191610892836126cb565b825260ff16602082019081526040838101519051906001600160a01b03166108b9826126cb565b8152602081019260ff6064351684528160206040516108d7816126cb565b838152015260018060a01b0390511690600c549160ff60a01b80945160a01b16906affffffffffffffffffffff60a81b8094161717600c5560018060a01b0390511691600d54935160a01b1692161717600d55610100810151518051906001600160401b038211610ab25761094d600e5461262c565b601f8111610a61575b50602090601f83116001146109ec576101a09392918591836109e1575b50508160011b916000199060031b1c191617600e555b60ff19600f5416600f5560a081015160c082015160e08301519182604080516109b181612694565b83815260208101859052015260105560115560125501516013556002805460ff60a01b1916600160a01b17905580f35b015190503880610973565b600e8552600080516020613bd58339815191529190601f198416865b818110610a4957509160019391856101a097969410610a30575b505050811b01600e55610989565b015160001960f88460031b161c19169055388080610a22565b92936020600181928786015181550195019301610a08565b600e8552600080516020613bd5833981519152601f840160051c81019160208510610aa8575b601f0160051c01905b818110610a9d5750610956565b858155600101610a90565b9091508190610a87565b634e487b7160e01b84526041600452602484fd5b015190503880610753565b9250601d8752600080516020613bf58339815191529087935b601f1984168510610b2c576001945083601f19811610610b13575b505050811b01601d55610769565b015160001960f88460031b161c19169055388080610b05565b81810151835560209485019460019093019290910190610aea565b909150601d8752601f830160051c600080516020613bf58339815191520160208410610ba4575b908392915b601f820160051c600080516020613bf5833981519152018110610b96575061073d565b888155849350600101610b73565b50600080516020613bf5833981519152610b6e565b634e487b7160e01b86526041600452602486fd5b3d91508185823e610bde8282612702565b6020818381010312610d89578051916001600160401b038311610d85576101a08383018284010312610d855760405192836101a08101106001600160401b036101a086011117610d6f576101a0840160405282810180518552610c4390602001612db7565b6020850152610c59828401604083860101612a30565b6040850152610c6f828401606083860101612a30565b60608501528281016080818101519086015260a0808201519086015260c08082015190860152610ca19060e001612db7565b60e0850152610cb561010082850101612db7565b61010085015261012081840101516001600160401b038111610d6b578184010192828101601f85011215610d6b57835192610cef8461290f565b90610cfd6040519283612702565b848252820160208587010111610d6757610d2461018094610d5b96602080850191016127d7565b610120860152610d3961014083830101612db7565b610140860152610d4e61016083830101612db7565b6101608601520101612db7565b61018082015238610694565b8880fd5b8780fd5b634e487b7160e01b600052604160045260246000fd5b8580fd5b8480fd5b6040513d86823e3d90fd5b60405163d2d441ff60e01b8152600490fd5b600080fd5b5080fd5b8280fd5b50346101ca57806003193601126101ca5780546001600160a01b0390811633036103af57600f54610de96101ff612de4565b600781101561039b5761038957610386916006600a549260ff191617600f5580845416906040517febb55ea32d517c9ec85f61357977ac73b84e65ebeaedb528ed791d7e25e30a2b309180610e5a8787836040906006929493606082019560018060a01b0316825260208201520152565b0390a23090600d5416612f1c565b50346101ca57806003193601126101ca576002546040516001600160a01b039091168152602090f35b50346101ca57806003193601126101ca57601454601554604051906001600160a01b03908116610ec083612679565b601654835260405191610ed283612679565b601754835260185494601954601a5483601b54169084601c5416926040519960008b601d54610f008161262c565b809252600190600181169081600014610ff15750600114610fa3575b5050918b959391610f3660409d610f8c9997950388612702565b88601e54169a89601f541699602054169a8e519e8f9e8f926101a09a84526020840152519101525160608d015260808c015260a08b015260c08a015260e0890152610100880152806101208801528601906127fa565b926101408501526101608401526101808301520390f35b601d60009081529250600080516020613bf58339815191525b828410610fd4575050508b0160200181610f36610f1c565b818f91602092838783989697985492010152019101929190610fbc565b60409f99979593610f8c9b99979550610f3693508a925060209160ff191682840152151560051b820101939597995050819395979d50610f1c565b50346101ca57806003193601126101ca57608060405161104b816126cb565b6110c6600c5460ff60018060a01b0391828116855260a01c16602084015260ff60405191611078836126cb565b600d54908116835260a01c1660208083019190915260405184516001600160a01b031681529381015160ff169084015280516001600160a01b031660408401526020015160ff166060830152565bf35b50346101ca57806003193601126101ca576110e233612a4e565b60e08101518061133157506111136110fb610225612b99565b916020830151606084015160c085015191429361356c565b61112c60ff600f54164290611126612de4565b90612e22565b9181519160c0810180519460a08301908151944260e086015261114e82612dcb565b61115781613722565b61116185336136c8565b60a060408201519101511190600781101591826112db5760058214918215611311575b836112fd57600481149384156112ef575b84156112b6575b505050600014611229575050506040015151604051918483526020830152604082015281606082015242608082015233907f1d86502e4a4586da05506402e9e717090c0ce0ac1a71ad60b9312ae8ab044abf60a03092a3600d546001600160a01b039261120e91339030908616612f1c565b8061121857505080f35b6103869133903090600c5416612f1c565b90939194955060001461038957611244869161038696612daa565b935284825282815261125681336136c8565b5190517f387c4a97ea999c71f2b33e24b2c4406f4a5100fc4e8deceb0bb6f4c5e5bbbe106040518061129e339530954291846040919493926060820195825260208201520152565b0390a3600c54339030906001600160a01b0316612f1c565b90919293506112db5760031490816112d3575b509038808061119c565b9050386112c9565b634e487b7160e01b8a52602160045260248afd5b506006811493506000611195565b634e487b7160e01b8b52602160045260248bfd5b600093508392506003811480611329575b9250611184565b508115611322565b6020820151611353604051928392631175404360e11b84523360048501612d59565b0390fd5b50346101ca57611366366128dc565b600c546001600160a01b03169290919083156113925761138d816103869530903390612f1c565b613004565b604051632df9739b60e01b8152600490fd5b50346101ca57806003193601126101ca576101206003546040516113c781612679565b60045481526005546006546040516113de81612679565b60075481526008549060095492600a5494600b54966040519889525160208901526040880152606087015251608086015260a085015260c084015260e0830152610100820152f35b50346101ca57806003193601126101ca576101c660ff600f541660405191829182612603565b50346101ca57806003193601126101ca57606060405161146b81612679565b526101c660405161147b81612679565b611483612723565b8152604051918291602083525160208084015260408301906127fa565b50346101ca57806003193601126101ca5760105460115460125460408051938452602084019290925290820152606090f35b50346101ca5760203660031901126101ca576114ec61281f565b6114f581612a4e565b6114ff82826132fc565b611538611528611510610225612b99565b926020840151606085015160c086015191429361356c565b9161153383856136c8565b613722565b805160208083015160608085015160a08087015160c0808901516040998a0151518a51998a5297890196909652978701929092529185015260808401919091528201526001600160a01b039092169130917f776f4c645ad4c2525f2c0862f3c0e3841c03f4fc680c1ceb4ab41b9eadccc4d191908190810161030e565b50346101ca57806003193601126101ca5760206040516e22d473030f116ddee9f6b43ac78ba38152f35b50346101ca57806003193601126101ca576001546040516001600160a01b039091168152602090f35b50346101ca57806003193601126101ca576101c66116246129b5565b6101b2602d60405180936c29ba3932b0b6a130b9b4b1903b60991b602083015261165781518092602086860191016127d7565b810103600d810184520182612702565b50346101ca57806003193601126101ca577f00000000000000000000000000000000000000000000000000000000000000006001600160a01b031630036116c0576020604051600080516020613c158339815191528152f35b60405162461bcd60e51b815260206004820152603860248201527f555550535570677261646561626c653a206d757374206e6f742062652063616c60448201527f6c6564207468726f7567682064656c656761746563616c6c00000000000000006064820152608490fd5b5060403660031901126101ca5761174061281f565b6024356001600160401b038111610db35761175f90369060040161292a565b6001600160a01b037f0000000000000000000000000000000000000000000000000000000000000000811692919061179930851415612c97565b6117b6600080516020613c15833981519152948286541614612cf8565b80601c541633036103af577f4910fdfa16fed3260ed0e7147f7cc6da11a60208b5b9406d12a635614ffd91435460ff16156117f75750506103869150613927565b82919216604051936352d1902d60e01b85526020948581600481865afa60009181611994575b5061187e5760405162461bcd60e51b815260048101879052602e60248201527f45524331393637557067726164653a206e657720696d706c656d656e7461746960448201526d6f6e206973206e6f74205555505360901b6064820152608490fd5b9493940361193d5761188f82613927565b7fbc7cd75a20ee27fd9adebab32041f755214dbc6bffa90cc0225b39da2e5c2d3b600080a2825115801590611935575b6118ca575b50505080f35b60008061192c94604051946118de86612694565b602786527f416464726573733a206c6f772d6c6576656c2064656c65676174652063616c6c81870152660819985a5b195960ca1b604087015281519101845af4611926612e3d565b91613b3b565b503880806118c4565b5060016118bf565b60405162461bcd60e51b815260048101849052602960248201527f45524331393637557067726164653a20756e737570706f727465642070726f786044820152681a58589b195555525160ba1b6064820152608490fd5b9091508681813d83116119bc575b6119ac8183612702565b81010312610daa5751903861181d565b503d6119a2565b50346101ca57806003193601126101ca576020601354604051908152f35b50346101ca57602080600319360112610daf576119fc61281f565b6001600160a01b037f00000000000000000000000000000000000000000000000000000000000000008116611a3330821415612c97565b611a50600080516020613c15833981519152918383541614612cf8565b81601c541633036103af5760405191611a6883612679565b8583527f4910fdfa16fed3260ed0e7147f7cc6da11a60208b5b9406d12a635614ffd91435460ff1615611aa2575050506103869150613927565b83929316906040516352d1902d60e01b81528581600481865afa60009181611b78575b50611b265760405162461bcd60e51b815260048101879052602e60248201527f45524331393637557067726164653a206e657720696d706c656d656e7461746960448201526d6f6e206973206e6f74205555505360901b6064820152608490fd5b9493940361193d57611b3782613927565b7fbc7cd75a20ee27fd9adebab32041f755214dbc6bffa90cc0225b39da2e5c2d3b600080a2825115801590611b70576118ca5750505080f35b5060006118bf565b9091508681813d8311611ba0575b611b908183612702565b81010312610daa57519038611ac5565b503d611b86565b50346101ca57806003193601126101ca57611bc0612b99565b611bec611bd4611bce612de4565b9261339c565b91611bde83613722565b60ff600f5416904291612e22565b611bf581612dcb565b61010082015191600782101561039b57602081015151815160c08301519160ff60806040860151950151519560405197885216602087015260408601526060850152608084015260a083015260c08201527f9a6ce334816e7b4b0cea88e41f3c652ec2e8064e2663e98f6d94d5ed90bc569060e03092a280f35b50346101ca57806003193601126101ca57611c88612c36565b50611c91612c36565b604051906020825280519260a06020840152835160c08401526020840151906003821015611d2657506040611ce08185966101c69460e0880152015160606101008701526101208601906127fa565b92611d076020820151838701906001600160401b0360208092805115158552015116910152565b0151805115156080850152602001516001600160401b031660a0840152565b634e487b7160e01b81526021600452602490fd5b50346101ca5760203660031901126101ca5760043590611d5933612a4e565b91611d6433846132fc565b611d6f611bde612de4565b906007821015611ef657600282141580611eeb575b61038957611d93610225612b99565b916020830151611db3606085019182519760c087019842928a519261356c565b9280611ee557508251935b83518511611ecc57957fca17ddd98e8725ab2aa1c70d19c5d777d10bd61a64e2525cf7ead7fe7f1ec20791611e4f8798610386985086518814600014611eb557611e456020880151965b611e3e60208a0198611e1b818b51612c13565b8a52611e288c8c51612c13565b8b52611e358c8951612c13565b88528651612c13565b8552612dcb565b61153387336136c8565b61129e855194519560608101519260a082015194604060c0840151930151519051915192604051968796339b309b8994919260e0969399989794919961010087019a8752602087015260408601526060850152608084015260a083015260c08201520152565b611e45611ec685518551908b61365a565b96611e08565b6040516318928cbf60e31b815260048101869052602490fd5b93611dbe565b506001821415611d84565b634e487b7160e01b83526021600452602483fd5b50346101ca576101403660031901126101ca57611f25612835565b60c0366043190112610daf576001600160401b03806101043511610db35736602361010435011215610db35780610104356004013511610db357366024610104356004013561010435010111610db35761012435908111610db357611f8e9036906004016128ac565b600c54919290916001600160a01b0316801561139257604435906001600160a01b0382168203610d85576001600160a01b038216036121e8576064356001600160a01b0381168103610d85576001600160a01b036004358116908216106121e85760c435906001600160a01b03821682036121e457306001600160a01b038316036121e8574260e435106121e8576e22d473030f116ddee9f6b43ac78ba33b156121e4576040516302b67b5760e41b81526001600160a01b03858116600483015293841660248201529216604483015260843565ffffffffffff811681036121e45765ffffffffffff16606483015260a43565ffffffffffff811681036121e45765ffffffffffff1660848301526001600160a01b031660a482015260e4803560c4830152610100908201526101048035600481013591830182905260240161012483013784610124610104356004013583010152848161012481601f19601f610104356004013501168101030181836e22d473030f116ddee9f6b43ac78ba35af180156121d9576121c6575b50600c548491906001600160a01b03166e22d473030f116ddee9f6b43ac78ba33b15610db357604051631b63c28b60e11b81526001600160a01b0392831660048083019190915230602483015235909216604483015260648201528181608481836e22d473030f116ddee9f6b43ac78ba35af180156121bb576121a7575b505061038691600435613004565b6121b090612666565b610db3578238612199565b6040513d84823e3d90fd5b6121d290949194612666565b923861211b565b6040513d87823e3d90fd5b8680fd5b60405163162908e360e11b8152600490fd5b50346101ca57806003193601126101ca57610120612216612b99565b604051908051825260208101515160208301526040810151604083015260608101516060830152608081015151608083015260a081015160a083015260c081015160c083015260e081015160e08301526101008091015190820152f35b50346101ca57806003193601126101ca576101c6604051612293816126cb565b6005815264426173696360d81b60208201526040519182916020835260208301906127fa565b50346101ca57602080600319360112610daf576001600160401b03600435818111612475576122ec90369060040161292a565b83549091906001600160a01b031633036103af578151908111610ab257612314600e5461262c565b601f8111612425575b5082601f8211600114612392579181612381927ffa52982561798522f5e44b012104c1a4b09148533ab665caa1c1f28539f9a053948791612387575b508160011b916000199060031b1c191617600e555b60405191829185835230958301906127fa565b0390a280f35b905082015138612359565b600e8552600080516020613bd583398151915290601f198316865b8682821061240f575050927ffa52982561798522f5e44b012104c1a4b09148533ab665caa1c1f28539f9a05394926001928261238196106123f6575b5050811b01600e5561236e565b84015160001960f88460031b161c1916905538806123e9565b60018495829395890151815501940192016123ad565b600e8552600080516020613bd5833981519152601f830160051c81019185841061246b575b601f0160051c01905b818110612460575061231d565b858155600101612453565b909150819061244a565b8380fd5b50612483366128dc565b600c549091906001600160a01b0316611392578261138d610386943033612e6d565b50346101ca5760203660031901126101ca576101006124ca6124c561281f565b612a4e565b6110c6604051809261285f565b50346101ca57806003193601126101ca576101c66101b2612723565b50346101ca57806003193601126101ca57601c546001600160a01b0390811633036103af57600f546125266101ff612de4565b600781101590816125cb5780151591826125bd575b826125ab575b505061038957610386916006600a549260ff191617600f5580845416906040517febb55ea32d517c9ec85f61357977ac73b84e65ebeaedb528ed791d7e25e30a2b309180610e5a8787836040906006929493606082019560018060a01b0316825260208201520152565b90915061039b57600214153880612541565b50600181141591508461253b565b634e487b7160e01b85526021600452602485fd5b905034610daf5781600319360112610daf5790546001600160a01b03168152602090f35b9190602083019260078210156126165752565b634e487b7160e01b600052602160045260246000fd5b90600182811c9216801561265c575b602083101461264657565b634e487b7160e01b600052602260045260246000fd5b91607f169161263b565b6001600160401b038111610d6f57604052565b602081019081106001600160401b03821117610d6f57604052565b606081019081106001600160401b03821117610d6f57604052565b61012081019081106001600160401b03821117610d6f57604052565b604081019081106001600160401b03821117610d6f57604052565b61010081019081106001600160401b03821117610d6f57604052565b90601f801991011681019081106001600160401b03821117610d6f57604052565b60405190600082600e54916127378361262c565b808352926020906001908181169081156127b35750600114612764575b505061276292500383612702565b565b915092600e600052600080516020613bd5833981519152936000925b82841061279b57506127629450505081016020013880612754565b85548885018301529485019487945092810192612780565b9150506020925061276294915060ff191682840152151560051b8201013880612754565b60005b8381106127ea5750506000910152565b81810151838201526020016127da565b90602091612813815180928185528580860191016127d7565b601f01601f1916010190565b600435906001600160a01b0382168203610daa57565b602435906001600160a01b0382168203610daa57565b35906001600160a01b0382168203610daa57565b60e080918051845260208101516020850152604081015151604085015260608101516060850152608081015151608085015260a081015160a085015260c081015160c08501520151910152565b9181601f84011215610daa578235916001600160401b038311610daa576020808501948460051b010111610daa57565b906040600319830112610daa5760043591602435906001600160401b038211610daa5761290b916004016128ac565b9091565b6001600160401b038111610d6f57601f01601f191660200190565b81601f82011215610daa578035906129418261290f565b9261294f6040519485612702565b82845260208383010111610daa57816000926020809301838601378301015290565b9190826040910312610daa57604051612989816126cb565b80928035908115158203610daa5760209183520135906001600160401b0382168203610daa5760200152565b604051906129c2826126cb565b60058252640312e302e360dc1b6020830152565b604051906129e3826126e6565b8160e06000918281528260208201526040516129fe81612679565b8381526040820152826060820152604051612a1881612679565b83815260808201528260a08201528260c08201520152565b9190826020910312610daa57604051612a4881612679565b91518252565b612a566129d6565b506002546040516316c1973960e01b81526001600160a01b0392831660048201529161010091829184916024918391165afa918215612b2c57600092612a9b57505090565b908092503d8311612b25575b612ab18183612702565b81019181830312610daa5760e090612b0260405193612acf856126e6565b8251855260208301516020860152612aea8160408501612a30565b60408601526060830151606086015260808301612a30565b608084015260a081015160a084015260c081015160c0840152015160e082015290565b503d612aa7565b6040513d6000823e3d90fd5b60405190612b45826126af565b81610100600091828152604051612b5b81612679565b8381526020820152826040820152826060820152604051612b7b81612679565b83815260808201528260a08201528260c08201528260e08201520152565b612ba1612b38565b50604051612bae816126af565b6003548152604051612bbf81612679565b6004548152602082015260055460408201526006546060820152604051612be581612679565b6007548152608082015260085460a082015260095460c0820152600a5460e0820152600b5461010082015290565b91908203918211612c2057565b634e487b7160e01b600052601160045260246000fd5b6040908151612c4481612694565b8092805191612c5283612694565b60009283815283602082015260608382015281528151612c71816126cb565b8381528360208201526020820152815192612c8b846126cb565b80845260208401520152565b15612c9e57565b60405162461bcd60e51b815260206004820152602c60248201527f46756e6374696f6e206d7573742062652063616c6c6564207468726f7567682060448201526b19195b1959d85d1958d85b1b60a21b6064820152608490fd5b15612cff57565b60405162461bcd60e51b815260206004820152602c60248201527f46756e6374696f6e206d7573742062652063616c6c6564207468726f7567682060448201526b6163746976652070726f787960a01b6064820152608490fd5b9160c0939160018060a01b031683526020830152604082015260806060820152601b60808201527f506f736974696f6e2068617320616c726561647920657869746564000000000060a08201520190565b91908201809211612c2057565b51906001600160a01b0382168203610daa57565b60078110156126165760ff8019600f5416911617600f55565b600060408051612df381612694565b8281528260208201520152604051612e0a81612694565b60105481526011546020820152601254604082015290565b90612e3a9281519060406020840151930151936137a1565b90565b3d15612e68573d90612e4e8261290f565b91612e5c6040519384612702565b82523d6000602084013e565b606090565b908215612f17576001600160a01b03918216338103612ee45750823403612ec55716308114612ec157600080809381935af1612ea7612e3d565b5015612eaf57565b604051630c08bcb960e21b8152600490fd5b5050565b604051635693fffb60e01b815260048101849052346024820152604490fd5b308103612eff57506000809381938293165af1612ea7612e3d565b6024906040519063463de9db60e01b82526004820152fd5b505050565b9290928115612ffe576001600160a01b03908116938415612fcd578116308103612f8457506040519263a9059cbb60e01b602085015216602483015260448201526044815260808101918183106001600160401b03841117610d6f57612762926040526139b7565b92604051936323b872dd60e01b6020860152602485015216604483015260648201526064815260a08101918183106001600160401b03841117610d6f57612762926040526139b7565b819392945016338114600014612ee45750823403612ec55716308114612ec157600080809381935af1612ea7612e3d565b50505050565b9182156121e85761302360ff600f541661301c612de4565b4291612e22565b916007831015612616576001916001841415806132f1575b6103895761304a610225612b99565b9161305433612a4e565b9360135492831515806132e5575b6131ff575b505050508360175480613178575b5050908161310f60207fac20383bc611fb24ecfa942ed37ae8648074130276759a168535c23c5cf026c3940151916131056130c0606083019485519660c0850197429289519261356c565b966130f86130d287518751908c6136a0565b996130de818b51612daa565b8a5260208a016130ef8c8251612daa565b90528751612daa565b8652611e3e898651612daa565b61153386336136c8565b61317384519460608101519260a082015194604060c0840151930151519051915192604051968796339b309b8994919260e0969399989794919961010087019a8752602087015260408601526060850152608084015260a083015260c08201520152565b0390a3565b7fac20383bc611fb24ecfa942ed37ae8648074130276759a168535c23c5cf026c393929550620f42406131c06131c992604051906131b582612679565b815261029e8561376b565b51048092612c13565b90806131da575b5093909138613075565b600c54601b546131f992916001600160a01b0391821691309116612f1c565b386131d0565b60409060405190602091828101903360601b825260148152613220816126cb565b5190206001600160401b038211610d6f576005958260051b6040519361324886830186612702565b845284840190820191368311610daa57879695949392915b8282106132d357505050956000955b613288575b505050505050036103af5738808080613067565b81518610156132ce578596838697831b8401015190868660008484106000146132c157505050600052835284846000205b97019561326f565b93845291865291206132b9565b613274565b81358152889750908501908501613260565b50602086015115613062565b50600284141561303b565b90602082019182518015613339575060e00151918261331a57505050565b51604051631175404360e11b8152928392611353929060048501612d59565b60e09190910151604051631175404360e11b81526001600160a01b03909316600484015260248301919091526044820152608060648201526016608482015275506f736974696f6e20686173206e6f2073686172657360501b60a482015260c490fd5b6133a4612b38565b506133ad612de4565b6133ca60406020830151920151916101008401928351914261381a565b80511561353257600c5460ff600d5460a01c166133e5612b38565b5060608501908151151580613528575b613477575b505050504290526020810151517ff7f050a5e163dbe15fb695b5b2e83ef129fc3565263dc8fc74049d3739e62fde825160c084015190613471604086015160808701515190604051948594309842879260a094919796959260c0850198855260208501526040840152606083015260808201520152565b0390a290565b620f4240928361348b8661029e8a5161376b565b5104936134a060c089019661029e885161376b565b510494604088016134b2878251612daa565b90526134bf868251612c13565b9052836134cd575b506133fa565b6135199460ff61350d926134f2613513966134e9898d51612c13565b8c525188613aa6565b61350160208c019182516138fd565b905260a01c1690613ae5565b92613ae5565b90613aa6565b608083015238808080806134c7565b50835115156133f5565b5042905290565b81810292918115918404141715612c2057565b8115613556570490565b634e487b7160e01b600052601260045260246000fd5b93929190916135796129d6565b50604085019161359d8351600060405161359281612679565b528551905190612c13565b604051906135aa82612679565b8152602087019283519388856135ca575b50505050505052606082015290565b6135dd61362c9461029e6136319861376b565b6135ed60808301918251906138fd565b60006040516135fb81612679565b5251613622620f424060c06040519561361387612679565b82850687520192048251612daa565b9052525190613539565b61354c565b61363c818651612c13565b61364b60a08701918251612daa565b905284523880808080886135bb565b909180158015613698575b6136925761367761367c928492613539565b612daa565b600019810191908211612c2057612e3a9161354c565b50905090565b508115613665565b91801580156136c0575b6136bb57612e3a9261362c91613539565b505090565b5082156136aa565b6002546001600160a01b03908116803b15610daa57600092836101249261370a60405197889687956360d6081360e11b8752166004860152602485019061285f565b5af18015612b2c576137195750565b61276290612666565b80516003556020810151516004556040810151600555606081015160065560808101515160075560a081015160085560c081015160095560e0810151600a556101000151600b55565b600060405161377981612679565b52620f424090818102918183041490151715612c20576040519061379c82612679565b815290565b92919092600781101580612616576006821490811561380d575b81156137fd575b506137f557508210156137d757505050600090565b8110156137e5575050600190565b10156137f057600290565b600390565b935050505090565b90506126165760058114386137c2565b50506004811460006137bb565b92909192600060405161382c81612679565b5282811080156138c4575b6138b257826138609383106138aa575b50818482116138a2575b61385a91612c13565b92612c13565b8015801561389a575b61387657612e3a91613aa6565b5050600060405161388681612679565b5260405161389381612679565b6000815290565b508115613869565b849150613851565b915038613847565b50505050600060405161388681612679565b5083821015613837565b620f4240916138ef9160006040516138e581612679565b5251905190613539565b046040519061379c82612679565b9061391a91600060405161391081612679565b5251905190612daa565b6040519061379c82612679565b803b1561395c57600080516020613c1583398151915280546001600160a01b0319166001600160a01b03909216919091179055565b60405162461bcd60e51b815260206004820152602d60248201527f455243313936373a206e657720696d706c656d656e746174696f6e206973206e60448201526c1bdd08184818dbdb9d1c9858dd609a1b6064820152608490fd5b60018060a01b031690613a106040516139cf816126cb565b6020938482527f5361666545524332303a206c6f772d6c6576656c2063616c6c206661696c6564858301526000808587829751910182855af1611926612e3d565b805191821591848315613a82575b505050905015613a2b5750565b6084906040519062461bcd60e51b82526004820152602a60248201527f5361666545524332303a204552433230206f7065726174696f6e20646964206e6044820152691bdd081cdd58d8d9595960b21b6064820152fd5b919381809450010312610daf578201519081151582036101ca575080388084613a1e565b906000604051613ab581612679565b52620f424091828102928184041490151715612c205761391a9161354c565b60ff16604d8111612c2057600a0a90565b9060ff1660128114613b37576012811015613b18576012039060ff8211612c2057613b12612e3a92613ad4565b90613539565b601119019060ff8211612c2057613b31612e3a92613ad4565b9061354c565b5090565b91929015613b9d5750815115613b4f575090565b3b15613b585790565b60405162461bcd60e51b815260206004820152601d60248201527f416464726573733a2063616c6c20746f206e6f6e2d636f6e74726163740000006044820152606490fd5b825190915015613bb05750805190602001fd5b60405162461bcd60e51b8152602060048201529081906113539060248301906127fa56febb7b4a454dc3493923482f07822329ed19e8244eff582cc204f8554c3620c3fd6d4407e7be21f808e6509aa9fa9143369579dd7d760fe20a2c09680fc146134f360894a13ba1a3210667c828492db98dca3e2076cc3735a920a3ca505d382bbca2646970667358221220a6f7bb17aec6457156320eed8b9205bf54f36a1a130b9b894f6d8291ffcfb0af64736f6c63430008180033",
  "devdoc": {
    "events": {
      "AdminChanged(address,address)": {
        "details": "Emitted when the admin account has changed."
      },
      "BeaconUpgraded(address)": {
        "details": "Emitted when the beacon is changed."
      },
      "Upgraded(address)": {
        "details": "Emitted when the implementation is upgraded."
      }
    },
    "kind": "dev",
    "methods": {
      "cancelStream()": {
        "details": "Allows the creator to cancel the stream during the Waiting phase"
      },
      "cancelWithAdmin()": {
        "details": "Allows the protocol admin to cancel the stream"
      },
      "exitStream()": {
        "details": "Allows users to exit the stream and receive their tokens based on stream outcome"
      },
      "finalizeStream()": {
        "details": "Allows the creator to finalize the stream after it has ended"
      },
      "implementation()": {
        "details": "Returns the implementation name for identification",
        "returns": {
          "_0": "Implementation name and version"
        }
      },
      "initialize((address,address,address,uint256,uint256,uint256,uint256,uint256,(string),(bool,uint64),(bool,uint64),(uint256,uint8,bytes),string,bytes32),address,uint8,uint8)": {
        "details": "Initializes the stream with the provided configuration",
        "params": {
          "createStreamMessage": "Stream creation parameters",
          "storageAddress": "Address of the position storage contract"
        }
      },
      "proxiableUUID()": {
        "details": "Implementation of the ERC1822 {proxiableUUID} function. This returns the storage slot used by the implementation. It is used to validate the implementation's compatibility when performing an upgrade. IMPORTANT: A proxy pointing at a proxiable contract should not be considered proxiable itself, because this risks bricking a proxy that upgrades to it, by delegating to itself until out of gas. Thus it is critical that this function revert if invoked through a proxy. This is guaranteed by the `notDelegated` modifier."
      },
      "subscribe(uint256,bytes32[])": {
        "details": "Allows users to subscribe to the stream by providing input tokens",
        "params": {
          "amountIn": "Amount of input tokens to subscribe with"
        }
      },
      "subscribeWithNativeToken(uint256,bytes32[])": {
        "details": "Allows users to subscribe with native tokens",
        "params": {
          "amountIn": "Amount of native tokens to subscribe with"
        }
      },
      "subscribeWithPermit(uint256,address,((address,uint160,uint48,uint48),address,uint256),bytes,bytes32[])": {
        "details": "Allows users to subscribe using Uniswap Permit2 for ERC20 approvals",
        "params": {
          "amountIn": "Amount of input tokens to subscribe with",
          "owner": "Owner of tokens and signer",
          "permitSingle": "Permit2 Single permit data",
          "signature": "EIP-712 signature"
        }
      },
      "syncPositionExternal(address)": {
        "details": "External function to sync a specific user's position",
        "params": {
          "user": "Address of the user whose position should be synced"
        }
      },
      "syncStreamExternal()": {
        "details": "External function to sync the stream state and status"
      },
      "updateStreamMetadata(string)": {
        "details": "Allows the creator to update the stream metadata"
      },
      "upgradeTo(address)": {
        "custom:oz-upgrades-unsafe-allow-reachable": "delegatecall",
        "details": "Upgrade the implementation of the proxy to `newImplementation`. Calls {_authorizeUpgrade}. Emits an {Upgraded} event."
      },
      "upgradeToAndCall(address,bytes)": {
        "custom:oz-upgrades-unsafe-allow-reachable": "delegatecall",
        "details": "Upgrade the implementation of the proxy to `newImplementation`, and subsequently execute the function call encoded in `data`. Calls {_authorizeUpgrade}. Emits an {Upgraded} event."
      },
      "withdraw(uint256)": {
        "details": "Allows users to withdraw their input tokens from the stream",
        "params": {
          "cap": "Amount of input tokens to withdraw"
        }
      }
    },
    "version": 1
  },
  "userdoc": {
    "kind": "user",
    "methods": {
      "PERMIT2()": {
        "notice": "Address of the Permit2 contract"
      },
      "STREAM_FACTORY_ADDRESS()": {
        "notice": "Address of the stream factory that deployed this stream"
      },
      "VARIANT()": {
        "notice": "Contract variant identifier"
      },
      "VERSION()": {
        "notice": "Contract version for tracking upgrades"
      },
      "creator()": {
        "notice": "Address of the stream creator"
      },
      "factoryParamsSnapshot()": {
        "notice": "Snapshot of factory parameters at stream creation time"
      },
      "initialize((address,address,address,uint256,uint256,uint256,uint256,uint256,(string),(bool,uint64),(bool,uint64),(uint256,uint8,bytes),string,bytes32),address,uint8,uint8)": {
        "notice": "This function can only be called once and must be invoked by the factory"
      },
      "positionStorageAddress()": {
        "notice": "Address of the position storage contract"
      },
      "streamMetadata()": {
        "notice": "Metadata associated with the stream"
      },
      "streamState()": {
        "notice": "Current state of the stream (distribution index, remaining tokens, etc.)"
      },
      "streamStatus()": {
        "notice": "Current status of the stream (Waiting, Bootstrapping, Active, etc.)"
      },
      "streamTimes()": {
        "notice": "Timing information for the stream phases"
      },
      "streamTokens()": {
        "notice": "Token addresses for input and output tokens"
      },
      "whitelistRoot()": {
        "notice": "Optional Merkle whitelist root; zero means no whitelist (public stream)"
      }
    },
    "version": 1
  },
  "storageLayout": {
    "storage": [
      {
        "astId": 10193,
        "contract": "src/StreamBasic.sol:StreamBasic",
        "label": "creator",
        "offset": 0,
        "slot": "0",
        "type": "t_address"
      },
      {
        "astId": 10196,
        "contract": "src/StreamBasic.sol:StreamBasic",
        "label": "STREAM_FACTORY_ADDRESS",
        "offset": 0,
        "slot": "1",
        "type": "t_address"
      },
      {
        "astId": 10199,
        "contract": "src/StreamBasic.sol:StreamBasic",
        "label": "positionStorageAddress",
        "offset": 0,
        "slot": "2",
        "type": "t_address"
      },
      {
        "astId": 10202,
        "contract": "src/StreamBasic.sol:StreamBasic",
        "label": "initialized",
        "offset": 20,
        "slot": "2",
        "type": "t_bool"
      },
      {
        "astId": 10206,
        "contract": "src/StreamBasic.sol:StreamBasic",
        "label": "streamState",
        "offset": 0,
        "slot": "3",
        "type": "t_struct(StreamState)17115_storage"
      },
      {
        "astId": 10210,
        "contract": "src/StreamBasic.sol:StreamBasic",
        "label": "streamTokens",
        "offset": 0,
        "slot": "12",
        "type": "t_struct(StreamTokens)17127_storage"
      },
      {
        "astId": 10214,
        "contract": "src/StreamBasic.sol:StreamBasic",
        "label": "streamMetadata",
        "offset": 0,
        "slot": "14",
        "type": "t_struct(StreamMetadata)17094_storage"
      },
      {
        "astId": 10218,
        "contract": "src/StreamBasic.sol:StreamBasic",
        "label": "streamStatus",
        "offset": 0,
        "slot": "15",
        "type": "t_enum(Status)17047"
      },
      {
        "astId": 10222,
        "contract": "src/StreamBasic.sol:StreamBasic",
        "label": "streamTimes",
        "offset": 0,
        "slot": "16",
        "type": "t_struct(StreamTimes)17091_storage"
      },
      {
        "astId": 10225,
        "contract": "src/StreamBasic.sol:StreamBasic",
        "label": "whitelistRoot",
        "offset": 0,
        "slot": "19",
        "type": "t_bytes32"
      },
      {
        "astId": 10229,
        "contract": "src/StreamBasic.sol:StreamBasic",
        "label": "factoryParamsSnapshot",
        "offset": 0,
        "slot": "20",
        "type": "t_struct(Params)16998_storage"
      },
      {
        "astId": 10238,
        "contract": "src/StreamBasic.sol:StreamBasic",
        "label": "__gap",
        "offset": 0,
        "slot": "33",
        "type": "t_array(t_uint256)39_storage"
      }
    ],
    "types": {
      "t_address": {
        "encoding": "inplace",
        "label": "address",
        "numberOfBytes": "20"
      },
      "t_array(t_uint256)39_storage": {
        "base": "t_uint256",
        "encoding": "inplace",
        "label": "uint256[39]",
        "numberOfBytes": "1248"
      },
      "t_bool": {
        "encoding": "inplace",
        "label": "bool",
        "numberOfBytes": "1"
      },
      "t_bytes32": {
        "encoding": "inplace",
        "label": "bytes32",
        "numberOfBytes": "32"
      },
      "t_enum(Status)17047": {
        "encoding": "inplace",
        "label": "enum StreamTypes.Status",
        "numberOfBytes": "1"
      },
      "t_string_storage": {
        "encoding": "bytes",
        "label": "string",
        "numberOfBytes": "32"
      },
      "t_struct(Decimal)15873_storage": {
        "encoding": "inplace",
        "label": "struct Decimal",
        "members": [
          {
            "astId": 15872,
            "contract": "src/StreamBasic.sol:StreamBasic",
            "label": "value",
            "offset": 0,
            "slot": "0",
            "type": "t_uint256"
          }
        ],
        "numberOfBytes": "32"
      },
      "t_struct(Params)16998_storage": {
        "encoding": "inplace",
        "label": "struct StreamFactoryTypes.Params",
        "members": [
          {
            "astId": 16971,
            "contract": "src/StreamBasic.sol:StreamBasic",
            "label": "streamCreationFee",
            "offset": 0,
            "slot": "0",
            "type": "t_uint256"
          },
          {
            "astId": 16973,
            "contract": "src/StreamBasic.sol:StreamBasic",
            "label": "streamCreationFeeToken",
            "offset": 0,
            "slot": "1",
            "type": "t_address"
          },
          {
            "astId": 16976,
            "contract": "src/StreamBasic.sol:StreamBasic",
            "label": "exitFeeRatio",
            "offset": 0,
            "slot": "2",
            "type": "t_struct(Decimal)15873_storage"
          },
          {
            "astId": 16979,
            "contract": "src/StreamBasic.sol:StreamBasic",
            "label": "subscriptionFeeRatio",
            "offset": 0,
            "slot": "3",
            "type": "t_struct(Decimal)15873_storage"
          },
          {
            "astId": 16981,
            "contract": "src/StreamBasic.sol:StreamBasic",
            "label": "minWaitingDuration",
            "offset": 0,
            "slot": "4",
            "type": "t_uint256"
          },
          {
            "astId": 16983,
            "contract": "src/StreamBasic.sol:StreamBasic",
            "label": "minBootstrappingDuration",
            "offset": 0,
            "slot": "5",
            "type": "t_uint256"
          },
          {
            "astId": 16985,
            "contract": "src/StreamBasic.sol:StreamBasic",
            "label": "minStreamDuration",
            "offset": 0,
            "slot": "6",
            "type": "t_uint256"
          },
          {
            "astId": 16987,
            "contract": "src/StreamBasic.sol:StreamBasic",
            "label": "feeCollector",
            "offset": 0,
            "slot": "7",
            "type": "t_address"
          },
          {
            "astId": 16989,
            "contract": "src/StreamBasic.sol:StreamBasic",
            "label": "protocolAdmin",
            "offset": 0,
            "slot": "8",
            "type": "t_address"
          },
          {
            "astId": 16991,
            "contract": "src/StreamBasic.sol:StreamBasic",
            "label": "tosVersion",
            "offset": 0,
            "slot": "9",
            "type": "t_string_storage"
          },
          {
            "astId": 16993,
            "contract": "src/StreamBasic.sol:StreamBasic",
            "label": "vestingFactoryAddress",
            "offset": 0,
            "slot": "10",
            "type": "t_address"
          },
          {
            "astId": 16995,
            "contract": "src/StreamBasic.sol:StreamBasic",
            "label": "poolRouterAddress",
            "offset": 0,
            "slot": "11",
            "type": "t_address"
          },
          {
            "astId": 16997,
            "contract": "src/StreamBasic.sol:StreamBasic",
            "label": "tokenFactoryAddress",
            "offset": 0,
            "slot": "12",
            "type": "t_address"
          }
        ],
        "numberOfBytes": "416"
      },
      "t_struct(StreamMetadata)17094_storage": {
        "encoding": "inplace",
        "label": "struct StreamTypes.StreamMetadata",
        "members": [
          {
            "astId": 17093,
            "contract": "src/StreamBasic.sol:StreamBasic",
            "label": "ipfsHash",
            "offset": 0,
            "slot": "0",
            "type": "t_string_storage"
          }
        ],
        "numberOfBytes": "32"
      },
      "t_struct(StreamState)17115_storage": {
        "encoding": "inplace",
        "label": "struct StreamTypes.StreamState",
        "members": [
          {
            "astId": 17096,
            "contract": "src/StreamBasic.sol:StreamBasic",
            "label": "outRemaining",
            "offset": 0,
            "slot": "0",
            "type": "t_uint256"
          },
          {
            "astId": 17099,
            "contract": "src/StreamBasic.sol:StreamBasic",
            "label": "distIndex",
            "offset": 0,
            "slot": "1",
            "type": "t_struct(Decimal)15873_storage"
          },
          {
            "astId": 17101,
            "contract": "src/StreamBasic.sol:StreamBasic",
            "label": "spentIn",
            "offset": 0,
            "slot": "2",
            "type": "t_uint256"
          },
          {
            "astId": 17103,
            "contract": "src/StreamBasic.sol:StreamBasic",
            "label": "shares",
            "offset": 0,
            "slot": "3",
            "type": "t_uint256"
          },
          {
            "astId": 17106,
            "contract": "src/StreamBasic.sol:StreamBasic",
            "label": "currentStreamedPrice",
            "offset": 0,
            "slot": "4",
            "type": "t_struct(Decimal)15873_storage"
          },
          {
            "astId": 17108,
            "contract": "src/StreamBasic.sol:StreamBasic",
            "label": "threshold",
            "offset": 0,
            "slot": "5",
            "type": "t_uint256"
          },
          {
            "astId": 17110,
            "contract": "src/StreamBasic.sol:StreamBasic",
            "label": "inSupply",
            "offset": 0,
            "slot": "6",
            "type": "t_uint256"
          },
          {
            "astId": 17112,
            "contract": "src/StreamBasic.sol:StreamBasic",
            "label": "outSupply",
            "offset": 0,
            "slot": "7",
            "type": "t_uint256"
          },
          {
            "astId": 17114,
            "contract": "src/StreamBasic.sol:StreamBasic",
            "label": "lastUpdated",
            "offset": 0,
            "slot": "8",
            "type": "t_uint256"
          }
        ],
        "numberOfBytes": "288"
      },
      "t_struct(StreamTimes)17091_storage": {
        "encoding": "inplace",
        "label": "struct StreamTypes.StreamTimes",
        "members": [
          {
            "astId": 17086,
            "contract": "src/StreamBasic.sol:StreamBasic",
            "label": "bootstrappingStartTime",
            "offset": 0,
            "slot": "0",
            "type": "t_uint256"
          },
          {
            "astId": 17088,
            "contract": "src/StreamBasic.sol:StreamBasic",
            "label": "streamStartTime",
            "offset": 0,
            "slot": "1",
            "type": "t_uint256"
          },
          {
            "astId": 17090,
            "contract": "src/StreamBasic.sol:StreamBasic",
            "label": "streamEndTime",
            "offset": 0,
            "slot": "2",
            "type": "t_uint256"
          }
        ],
        "numberOfBytes": "96"
      },
      "t_struct(StreamTokens)17127_storage": {
        "encoding": "inplace",
        "label": "struct StreamTypes.StreamTokens",
        "members": [
          {
            "astId": 17123,
            "contract": "src/StreamBasic.sol:StreamBasic",
            "label": "inToken",
            "offset": 0,
            "slot": "0",
            "type": "t_struct(Token)17120_storage"
          },
          {
            "astId": 17126,
            "contract": "src/StreamBasic.sol:StreamBasic",
            "label": "outToken",
            "offset": 0,
            "slot": "1",
            "type": "t_struct(Token)17120_storage"
          }
        ],
        "numberOfBytes": "64"
      },
      "t_struct(Token)17120_storage": {
        "encoding": "inplace",
        "label": "struct StreamTypes.Token",
        "members": [
          {
            "astId": 17117,
            "contract": "src/StreamBasic.sol:StreamBasic",
            "label": "tokenAddress",
            "offset": 0,
            "slot": "0",
            "type": "t_address"
          },
          {
            "astId": 17119,
            "contract": "src/StreamBasic.sol:StreamBasic",
            "label": "decimals",
            "offset": 20,
            "slot": "0",
            "type": "t_uint8"
          }
        ],
        "numberOfBytes": "32"
      },
      "t_uint256": {
        "encoding": "inplace",
        "label": "uint256",
        "numberOfBytes": "32"
      },
      "t_uint8": {
        "encoding": "inplace",
        "label": "uint8",
        "numberOfBytes": "1"
      }
    }
  }
}