{
  "address": "0xF570b71bfB341045b82C931ef53B9f5692337874",
  "abi": [
    {
      "inputs": [
        {
          "components": [
            {
              "internalType": "string",
              "name": "name",
              "type": "string"
            },
            {
              "internalType": "string",
              "name": "symbol",
              "type": "string"
            },
            {
              "internalType": "uint8",
              "name": "decimals",
              "type": "uint8"
            },
            {
              "internalType": "uint256",
              "name": "totalSupply",
              "type": "uint256"
            }
          ],
          "internalType": "struct StreamTypes.TokenCreationInfo",
          "name": "tokenInfo",
          "type": "tuple"
        },
        {
          "internalType": "address[]",
          "name": "recipients",
          "type": "address[]"
        },
        {
          "internalType": "uint256[]",
          "name": "amounts",
          "type": "uint256[]"
        }
      ],
      "name": "createToken",
      "outputs": [
        {
          "internalType": "address",
          "name": "tokenAddress",
          "type": "address"
        }
      ],
      "stateMutability": "nonpayable",
      "type": "function"
    }
  ],
  "transactionHash": "0xeeb49602733142cdbeb89c8482d593a269c2bba6d471bb80658ee08b733f36b9",
  "args": [],
  "numDeployments": 2,
  "solcInputHash": "70629cb350013d5e4ecb76ef1c80eae2",
  "bytecode": "0x6080806040523461001657611207908161001c8239f35b600080fdfe60808060405260048036101561001457600080fd5b600090813560e01c63dc0ddf041461002b57600080fd5b3461020b576003199260603685011261020757813567ffffffffffffffff8082116102035760808285019683360301126102035760243581811161018757610076903690860161020f565b6044939193358381116101ff57610090903690880161020f565b9290958383036101cc57506100b8896100ab8160449c610245565b9290916024850190610245565b9b909301359160ff83168093036101c85760405199610f3890818c01988c8a10908a11176101b55750916100fd9161010e9361029a8d3960c0895260c0890191610278565b60209b8c94888303868a0152610278565b9060408601528481036060860152828152019390875b81811061018b5750505081830360808301528083526001600160fb1b03811161018757918560a0889593879560051b80958886013701520103019082f090811561017b57506040516001600160a01b039091168152f35b604051903d90823e3d90fd5b8580fd5b909194853560018060a01b0381168091036101b157815289019489019190600101610124565b8980fd5b634e487b7160e01b8d526041905260248cfd5b8a80fd5b62461bcd60e51b8152602088820152600f60248201526e098cadccee8d040dad2e6dac2e8c6d608b1b6044820152606490fd5b8780fd5b8480fd5b8280fd5b5080fd5b9181601f840112156102405782359167ffffffffffffffff8311610240576020808501948460051b01011161024057565b600080fd5b903590601e1981360301821215610240570180359067ffffffffffffffff82116102405760200191813603831361024057565b908060209392818452848401376000828201840152601f01601f191601019056fe604060a0815234620005675762000f3890813803806200001f816200058d565b93843982019160c081840312620005675780516001600160401b03939084811162000567578162000052918401620005b3565b916020908181015186811162000567578362000070918301620005b3565b90858101519660ff88168803620005675760608201518181116200056757820190601f938685840112156200056757825193620000b7620000b18662000625565b6200058d565b9387858781520188600597881b830101918a831162000567578901905b8282106200056c5750505060808101519083821162000567570196808689011215620005675787516200010b620000b18262000625565b9888808b8481520192881b820101928311620005675788809101915b8383106200055657505050508751908282116200044f57600391825460019a8b82811c921680156200054b575b8a83101462000535578189849311620004e1575b508990898311600114620004715760009262000465575b505060001982851b1c1916908a1b1782555b80519283116200044f576004948554908a82811c9216801562000444575b898310146200042f579084939291888211620003d7575b505087908784116001146200036c5760009362000360575b505082891b92600019911b1c19161782555b80518551036200032b5785976080526000975b62000221575b86516108cf90816200066982396080518161039a0152f35b805188101562000325576200023788866200063d565b5162000249575b968501968562000203565b6001600160a01b036200025d89836200063d565b51166200026b89876200063d565b518115620002e4576002805490828201809211620002cf577fddf252ad1be2c89b69c2b068fc378daa952ba7f163c4a11628f55a4df523b3ef888c9d948c9d8d97956000955585855284835280852082815401905551908152a3989750506200023e565b601186634e487b7160e01b6000525260246000fd5b60648486888c519262461bcd60e51b845283015260248201527f45524332303a206d696e7420746f20746865207a65726f2061646472657373006044820152fd5b62000209565b865162461bcd60e51b8152808301859052600f60248201526e098cadccee8d040dad2e6dac2e8c6d608b1b6044820152606490fd5b015191503880620001de565b91908a9450601f1984169287600052896000209360005b8b828210620003c05750508511620003a5575b50505050811b018255620001f0565b01519060f884600019921b161c191690553880808062000396565b8385015187558e9890960195938401930162000383565b909192935086600052886000209088808701821c8301938b881062000425575b918796959493918e9301901c01915b828110620004155750620001c6565b600081558695508c910162000406565b93508293620003f7565b602287634e487b7160e01b6000525260246000fd5b91607f1691620001af565b634e487b7160e01b600052604160045260246000fd5b0151905038806200017f565b908c9350601f19831691866000528b6000209260005b8d828210620004c15750508411620004a8575b505050811b01825562000191565b015160001983871b60f8161c191690553880806200049a565b91929395968291958786015181550195019301908e959493929162000487565b9091508460005289600020898085018a1c8201928c86106200052b575b918e9186959493018b1c01915b8281106200051b57505062000168565b600081558594508e91016200050b565b92508192620004fe565b634e487b7160e01b600052602260045260246000fd5b91607f169162000154565b825181529181019189910162000127565b600080fd5b81516001600160a01b038116810362000567578152908901908901620000d4565b6040519190601f01601f191682016001600160401b038111838210176200044f57604052565b919080601f84011215620005675782516001600160401b0381116200044f57602090620005e9601f8201601f191683016200058d565b92818452828287010111620005675760005b8181106200061157508260009394955001015290565b8581018301518482018401528201620005fb565b6001600160401b0381116200044f5760051b60200190565b8051821015620006525760209160051b010190565b634e487b7160e01b600052603260045260246000fdfe608060408181526004918236101561001657600080fd5b600092833560e01c91826306fdde03146104d157508163095ea7b3146104a757816318160ddd1461048857816323b872dd146103be578163313ce56714610380578163395093511461031957816370a08231146102e257816395d89b41146101c1578163a457c2d71461011957508063a9059cbb146100e95763dd62ed3e1461009e57600080fd5b346100e557806003193601126100e557806020926100ba6105f8565b6100c2610613565b6001600160a01b0391821683526001865283832091168252845220549051908152f35b5080fd5b50346100e557806003193601126100e5576020906101126101086105f8565b602435903361072b565b5160018152f35b905082346101be57826003193601126101be576101346105f8565b918360243592338152600160205281812060018060a01b038616825260205220549082821061016d576020856101128585038733610629565b608490602086519162461bcd60e51b8352820152602560248201527f45524332303a2064656372656173656420616c6c6f77616e63652062656c6f77604482015264207a65726f60d81b6064820152fd5b80fd5b8383346100e557816003193601126100e55780519082845460018160011c90600183169283156102d8575b60209384841081146102c5578388529081156102a95750600114610254575b505050829003601f01601f191682019267ffffffffffffffff841183851017610241575082918261023d9252826105af565b0390f35b634e487b7160e01b815260418552602490fd5b8787529192508591837f8a35acfbc15ff81a39ae7d344fd709f28e8600b4aa8c65c6b64bfe7fe36bd19b5b838510610295575050505083010185808061020b565b80548886018301529301928490820161027f565b60ff1916878501525050151560051b840101905085808061020b565b634e487b7160e01b895260228a52602489fd5b91607f16916101ec565b5050346100e55760203660031901126100e55760209181906001600160a01b0361030a6105f8565b16815280845220549051908152f35b8284346101be57816003193601126101be576103336105f8565b338252600160209081528383206001600160a01b038316845290528282205460243581019290831061036d57602084610112858533610629565b634e487b7160e01b815260118552602490fd5b5050346100e557816003193601126100e5576020905160ff7f0000000000000000000000000000000000000000000000000000000000000000168152f35b839150346100e55760603660031901126100e5576103da6105f8565b6103e2610613565b91846044359460018060a01b03841681526001602052818120338252602052205490600019820361041c575b60208661011287878761072b565b848210610445575091839161043a6020969561011295033383610629565b91939481935061040e565b606490602087519162461bcd60e51b8352820152601d60248201527f45524332303a20696e73756666696369656e7420616c6c6f77616e63650000006044820152fd5b5050346100e557816003193601126100e5576020906002549051908152f35b5050346100e557806003193601126100e5576020906101126104c76105f8565b6024359033610629565b849084346105ab57826003193601126105ab578260035460018160011c90600183169283156105a1575b60209384841081146102c5578388529081156102a9575060011461054b57505050829003601f01601f191682019267ffffffffffffffff841183851017610241575082918261023d9252826105af565b600387529192508591837fc2575a0e9e593c00f959f8c92f12db2869c3395a3b0502d05e2516446f71f85b5b83851061058d575050505083010185808061020b565b805488860183015293019284908201610577565b91607f16916104fb565b8280fd5b6020808252825181830181905290939260005b8281106105e457505060409293506000838284010152601f8019910116010190565b8181018601518482016040015285016105c2565b600435906001600160a01b038216820361060e57565b600080fd5b602435906001600160a01b038216820361060e57565b6001600160a01b039081169182156106da571691821561068a5760207f8c5be1e5ebec7d5bd14f71427d1e84f3dd0314c0f7b2291e5b200ac8c7c3b925918360005260018252604060002085600052825280604060002055604051908152a3565b60405162461bcd60e51b815260206004820152602260248201527f45524332303a20617070726f766520746f20746865207a65726f206164647265604482015261737360f01b6064820152608490fd5b60405162461bcd60e51b8152602060048201526024808201527f45524332303a20617070726f76652066726f6d20746865207a65726f206164646044820152637265737360e01b6064820152608490fd5b6001600160a01b0390811691821561084657169182156107f5576000828152806020526040812054918083106107a157604082827fddf252ad1be2c89b69c2b068fc378daa952ba7f163c4a11628f55a4df523b3ef958760209652828652038282205586815220818154019055604051908152a3565b60405162461bcd60e51b815260206004820152602660248201527f45524332303a207472616e7366657220616d6f756e7420657863656564732062604482015265616c616e636560d01b6064820152608490fd5b60405162461bcd60e51b815260206004820152602360248201527f45524332303a207472616e7366657220746f20746865207a65726f206164647260448201526265737360e81b6064820152608490fd5b60405162461bcd60e51b815260206004820152602560248201527f45524332303a207472616e736665722066726f6d20746865207a65726f206164604482015264647265737360d81b6064820152608490fdfea2646970667358221220eab67ec9300e17fddc1309b18b1db85cdf47f21321a6832cab7e8473b23379d764736f6c63430008180033a2646970667358221220983d184db4c3ff9235030d2c172fea35649cead4205cc5393ae28181a266db1664736f6c63430008180033",
  "devdoc": {
    "kind": "dev",
    "methods": {},
    "title": "TokenFactory",
    "version": 1
  },
  "userdoc": {
    "kind": "user",
    "methods": {},
    "notice": "Creates standard ERC20 tokens",
    "version": 1
  },
  "storageLayout": {
    "storage": [],
    "types": null
  }
}