{
  "address": "0x68fDC833D5ce95E8F2aFBCe27c4F40E93E50F2B1",
  "abi": [
    {
      "inputs": [
        {
          "internalType": "address",
          "name": "factoryAddress",
          "type": "address"
        }
      ],
      "stateMutability": "nonpayable",
      "type": "constructor"
    },
    {
      "inputs": [
        {
          "internalType": "uint256",
          "name": "expected",
          "type": "uint256"
        },
        {
          "internalType": "uint256",
          "name": "actual",
          "type": "uint256"
        }
      ],
      "name": "IncorrectNativeAmount",
      "type": "error"
    },
    {
      "inputs": [],
      "name": "InsufficientOutAmount",
      "type": "error"
    },
    {
      "inputs": [
        {
          "internalType": "uint256",
          "name": "requiredTokenAmount",
          "type": "uint256"
        },
        {
          "internalType": "uint256",
          "name": "tokenBalance",
          "type": "uint256"
        }
      ],
      "name": "InsufficientTokenPayment",
      "type": "error"
    },
    {
      "inputs": [],
      "name": "InvalidAmount",
      "type": "error"
    },
    {
      "inputs": [],
      "name": "InvalidDexType",
      "type": "error"
    },
    {
      "inputs": [],
      "name": "InvalidExitCondition",
      "type": "error"
    },
    {
      "inputs": [],
      "name": "InvalidImplementationAddress",
      "type": "error"
    },
    {
      "inputs": [],
      "name": "InvalidInSupplyToken",
      "type": "error"
    },
    {
      "inputs": [],
      "name": "InvalidInputToken",
      "type": "error"
    },
    {
      "inputs": [
        {
          "internalType": "address",
          "name": "from",
          "type": "address"
        }
      ],
      "name": "InvalidNativePayer",
      "type": "error"
    },
    {
      "inputs": [],
      "name": "InvalidOutSupplyToken",
      "type": "error"
    },
    {
      "inputs": [],
      "name": "InvalidPoolOutSupplyAmount",
      "type": "error"
    },
    {
      "inputs": [],
      "name": "InvalidPoolType",
      "type": "error"
    },
    {
      "inputs": [
        {
          "internalType": "address",
          "name": "user",
          "type": "address"
        },
        {
          "internalType": "uint256",
          "name": "shares",
          "type": "uint256"
        },
        {
          "internalType": "uint256",
          "name": "exitDate",
          "type": "uint256"
        },
        {
          "internalType": "string",
          "name": "reason",
          "type": "string"
        }
      ],
      "name": "InvalidPosition",
      "type": "error"
    },
    {
      "inputs": [],
      "name": "InvalidPositionStorageAddress",
      "type": "error"
    },
    {
      "inputs": [],
      "name": "InvalidStreamFactoryAddress",
      "type": "error"
    },
    {
      "inputs": [],
      "name": "InvalidVestingCliffDuration",
      "type": "error"
    },
    {
      "inputs": [],
      "name": "InvalidVestingDuration",
      "type": "error"
    },
    {
      "inputs": [],
      "name": "InvalidWithdrawAmount",
      "type": "error"
    },
    {
      "inputs": [],
      "name": "NativeTokenTransferFailed",
      "type": "error"
    },
    {
      "inputs": [],
      "name": "OperationNotAllowed",
      "type": "error"
    },
    {
      "inputs": [],
      "name": "PaymentFailed",
      "type": "error"
    },
    {
      "inputs": [],
      "name": "SameInputAndOutputToken",
      "type": "error"
    },
    {
      "inputs": [],
      "name": "StreamFactoryAddressAlreadySet",
      "type": "error"
    },
    {
      "inputs": [],
      "name": "Unauthorized",
      "type": "error"
    },
    {
      "inputs": [
        {
          "internalType": "uint256",
          "name": "cap",
          "type": "uint256"
        }
      ],
      "name": "WithdrawAmountExceedsBalance",
      "type": "error"
    },
    {
      "anonymous": false,
      "inputs": [
        {
          "indexed": true,
          "internalType": "address",
          "name": "beneficiary",
          "type": "address"
        },
        {
          "indexed": false,
          "internalType": "address",
          "name": "vestingAddress",
          "type": "address"
        },
        {
          "indexed": false,
          "internalType": "uint64",
          "name": "vestingDuration",
          "type": "uint64"
        },
        {
          "indexed": false,
          "internalType": "address",
          "name": "token",
          "type": "address"
        },
        {
          "indexed": false,
          "internalType": "uint256",
          "name": "amount",
          "type": "uint256"
        }
      ],
      "name": "BeneficiaryVestingCreated",
      "type": "event"
    },
    {
      "anonymous": false,
      "inputs": [
        {
          "indexed": true,
          "internalType": "address",
          "name": "creator",
          "type": "address"
        },
        {
          "indexed": false,
          "internalType": "address",
          "name": "vestingAddress",
          "type": "address"
        },
        {
          "indexed": false,
          "internalType": "uint256",
          "name": "vestingDuration",
          "type": "uint256"
        },
        {
          "indexed": false,
          "internalType": "address",
          "name": "token",
          "type": "address"
        },
        {
          "indexed": false,
          "internalType": "uint256",
          "name": "amount",
          "type": "uint256"
        }
      ],
      "name": "CreatorVestingCreated",
      "type": "event"
    },
    {
      "anonymous": false,
      "inputs": [
        {
          "indexed": true,
          "internalType": "address",
          "name": "streamAddress",
          "type": "address"
        },
        {
          "indexed": true,
          "internalType": "address",
          "name": "subscriber",
          "type": "address"
        },
        {
          "indexed": false,
          "internalType": "uint256",
          "name": "inBalance",
          "type": "uint256"
        },
        {
          "indexed": false,
          "internalType": "uint256",
          "name": "spentIn",
          "type": "uint256"
        },
        {
          "indexed": false,
          "internalType": "uint256",
          "name": "exitTimestamp",
          "type": "uint256"
        }
      ],
      "name": "ExitRefunded",
      "type": "event"
    },
    {
      "anonymous": false,
      "inputs": [
        {
          "indexed": true,
          "internalType": "address",
          "name": "streamAddress",
          "type": "address"
        },
        {
          "indexed": true,
          "internalType": "address",
          "name": "subscriber",
          "type": "address"
        },
        {
          "indexed": false,
          "internalType": "uint256",
          "name": "purchased",
          "type": "uint256"
        },
        {
          "indexed": false,
          "internalType": "uint256",
          "name": "spentIn",
          "type": "uint256"
        },
        {
          "indexed": false,
          "internalType": "uint256",
          "name": "index",
          "type": "uint256"
        },
        {
          "indexed": false,
          "internalType": "uint256",
          "name": "inBalance",
          "type": "uint256"
        },
        {
          "indexed": false,
          "internalType": "uint256",
          "name": "exitTimestamp",
          "type": "uint256"
        }
      ],
      "name": "ExitStreamed",
      "type": "event"
    },
    {
      "anonymous": false,
      "inputs": [
        {
          "indexed": true,
          "internalType": "address",
          "name": "streamAddress",
          "type": "address"
        },
        {
          "indexed": true,
          "internalType": "address",
          "name": "creator",
          "type": "address"
        },
        {
          "indexed": false,
          "internalType": "uint256",
          "name": "refundedOutAmount",
          "type": "uint256"
        }
      ],
      "name": "FinalizedRefunded",
      "type": "event"
    },
    {
      "anonymous": false,
      "inputs": [
        {
          "indexed": true,
          "internalType": "address",
          "name": "streamAddress",
          "type": "address"
        },
        {
          "indexed": true,
          "internalType": "address",
          "name": "creator",
          "type": "address"
        },
        {
          "indexed": false,
          "internalType": "uint256",
          "name": "creatorRevenue",
          "type": "uint256"
        },
        {
          "indexed": false,
          "internalType": "uint256",
          "name": "exitFeeAmount",
          "type": "uint256"
        },
        {
          "indexed": false,
          "internalType": "uint256",
          "name": "refundedOutAmount",
          "type": "uint256"
        }
      ],
      "name": "FinalizedStreamed",
      "type": "event"
    },
    {
      "anonymous": false,
      "inputs": [
        {
          "indexed": true,
          "internalType": "address",
          "name": "streamAddress",
          "type": "address"
        },
        {
          "indexed": true,
          "internalType": "address",
          "name": "poolAddress",
          "type": "address"
        },
        {
          "indexed": false,
          "internalType": "address",
          "name": "token0",
          "type": "address"
        },
        {
          "indexed": false,
          "internalType": "address",
          "name": "token1",
          "type": "address"
        },
        {
          "indexed": false,
          "internalType": "uint256",
          "name": "amount0",
          "type": "uint256"
        },
        {
          "indexed": false,
          "internalType": "uint256",
          "name": "amount1",
          "type": "uint256"
        },
        {
          "indexed": false,
          "internalType": "uint256",
          "name": "refundedAmount0",
          "type": "uint256"
        },
        {
          "indexed": false,
          "internalType": "uint256",
          "name": "refundedAmount1",
          "type": "uint256"
        },
        {
          "indexed": true,
          "internalType": "address",
          "name": "creator",
          "type": "address"
        }
      ],
      "name": "PoolCreated",
      "type": "event"
    },
    {
      "anonymous": false,
      "inputs": [
        {
          "indexed": true,
          "internalType": "address",
          "name": "streamAddress",
          "type": "address"
        },
        {
          "indexed": true,
          "internalType": "address",
          "name": "subscriber",
          "type": "address"
        },
        {
          "indexed": false,
          "internalType": "uint256",
          "name": "positionInBalance",
          "type": "uint256"
        },
        {
          "indexed": false,
          "internalType": "uint256",
          "name": "positionShares",
          "type": "uint256"
        },
        {
          "indexed": false,
          "internalType": "uint256",
          "name": "positionLastUpdateTime",
          "type": "uint256"
        },
        {
          "indexed": false,
          "internalType": "uint256",
          "name": "positionSpentIn",
          "type": "uint256"
        },
        {
          "indexed": false,
          "internalType": "uint256",
          "name": "positionPurchased",
          "type": "uint256"
        },
        {
          "indexed": false,
          "internalType": "uint256",
          "name": "positionIndex",
          "type": "uint256"
        }
      ],
      "name": "PositionSynced",
      "type": "event"
    },
    {
      "anonymous": false,
      "inputs": [
        {
          "indexed": true,
          "internalType": "address",
          "name": "streamAddress",
          "type": "address"
        },
        {
          "indexed": false,
          "internalType": "address",
          "name": "creator",
          "type": "address"
        },
        {
          "indexed": false,
          "internalType": "uint256",
          "name": "outSupply",
          "type": "uint256"
        },
        {
          "indexed": false,
          "internalType": "uint8",
          "name": "status",
          "type": "uint8"
        }
      ],
      "name": "StreamCancelled",
      "type": "event"
    },
    {
      "anonymous": false,
      "inputs": [
        {
          "indexed": true,
          "internalType": "address",
          "name": "streamAddress",
          "type": "address"
        },
        {
          "indexed": false,
          "internalType": "string",
          "name": "metadataIpfsHash",
          "type": "string"
        }
      ],
      "name": "StreamMetadataUpdated",
      "type": "event"
    },
    {
      "anonymous": false,
      "inputs": [
        {
          "indexed": true,
          "internalType": "address",
          "name": "streamAddress",
          "type": "address"
        },
        {
          "indexed": false,
          "internalType": "uint256",
          "name": "lastUpdated",
          "type": "uint256"
        },
        {
          "indexed": false,
          "internalType": "uint256",
          "name": "distIndex",
          "type": "uint256"
        },
        {
          "indexed": false,
          "internalType": "uint256",
          "name": "outRemaining",
          "type": "uint256"
        },
        {
          "indexed": false,
          "internalType": "uint256",
          "name": "inSupply",
          "type": "uint256"
        },
        {
          "indexed": false,
          "internalType": "uint256",
          "name": "spentIn",
          "type": "uint256"
        },
        {
          "indexed": false,
          "internalType": "uint256",
          "name": "currentStreamedPrice",
          "type": "uint256"
        }
      ],
      "name": "StreamStateUpdated",
      "type": "event"
    },
    {
      "anonymous": false,
      "inputs": [
        {
          "indexed": true,
          "internalType": "address",
          "name": "streamAddress",
          "type": "address"
        },
        {
          "indexed": false,
          "internalType": "uint256",
          "name": "lastUpdated",
          "type": "uint256"
        },
        {
          "indexed": false,
          "internalType": "uint8",
          "name": "newStatus",
          "type": "uint8"
        },
        {
          "indexed": false,
          "internalType": "uint256",
          "name": "distIndex",
          "type": "uint256"
        },
        {
          "indexed": false,
          "internalType": "uint256",
          "name": "outRemaining",
          "type": "uint256"
        },
        {
          "indexed": false,
          "internalType": "uint256",
          "name": "inSupply",
          "type": "uint256"
        },
        {
          "indexed": false,
          "internalType": "uint256",
          "name": "spentIn",
          "type": "uint256"
        },
        {
          "indexed": false,
          "internalType": "uint256",
          "name": "currentStreamedPrice",
          "type": "uint256"
        }
      ],
      "name": "StreamSynced",
      "type": "event"
    },
    {
      "anonymous": false,
      "inputs": [
        {
          "indexed": true,
          "internalType": "address",
          "name": "streamAddress",
          "type": "address"
        },
        {
          "indexed": true,
          "internalType": "address",
          "name": "subscriber",
          "type": "address"
        },
        {
          "indexed": false,
          "internalType": "uint256",
          "name": "positionInBalance",
          "type": "uint256"
        },
        {
          "indexed": false,
          "internalType": "uint256",
          "name": "positionShares",
          "type": "uint256"
        },
        {
          "indexed": false,
          "internalType": "uint256",
          "name": "positionLastUpdateTime",
          "type": "uint256"
        },
        {
          "indexed": false,
          "internalType": "uint256",
          "name": "positionSpentIn",
          "type": "uint256"
        },
        {
          "indexed": false,
          "internalType": "uint256",
          "name": "positionPurchased",
          "type": "uint256"
        },
        {
          "indexed": false,
          "internalType": "uint256",
          "name": "positionIndex",
          "type": "uint256"
        },
        {
          "indexed": false,
          "internalType": "uint256",
          "name": "streamInSupply",
          "type": "uint256"
        },
        {
          "indexed": false,
          "internalType": "uint256",
          "name": "streamShares",
          "type": "uint256"
        }
      ],
      "name": "Subscribed",
      "type": "event"
    },
    {
      "anonymous": false,
      "inputs": [
        {
          "indexed": true,
          "internalType": "address",
          "name": "streamAddress",
          "type": "address"
        },
        {
          "indexed": true,
          "internalType": "address",
          "name": "subscriber",
          "type": "address"
        },
        {
          "indexed": false,
          "internalType": "uint256",
          "name": "positionInBalance",
          "type": "uint256"
        },
        {
          "indexed": false,
          "internalType": "uint256",
          "name": "positionShares",
          "type": "uint256"
        },
        {
          "indexed": false,
          "internalType": "uint256",
          "name": "positionLastUpdateTime",
          "type": "uint256"
        },
        {
          "indexed": false,
          "internalType": "uint256",
          "name": "positionSpentIn",
          "type": "uint256"
        },
        {
          "indexed": false,
          "internalType": "uint256",
          "name": "positionPurchased",
          "type": "uint256"
        },
        {
          "indexed": false,
          "internalType": "uint256",
          "name": "positionIndex",
          "type": "uint256"
        },
        {
          "indexed": false,
          "internalType": "uint256",
          "name": "streamInSupply",
          "type": "uint256"
        },
        {
          "indexed": false,
          "internalType": "uint256",
          "name": "streamShares",
          "type": "uint256"
        }
      ],
      "name": "Withdrawn",
      "type": "event"
    },
    {
      "inputs": [],
      "name": "PERMIT2",
      "outputs": [
        {
          "internalType": "address",
          "name": "",
          "type": "address"
        }
      ],
      "stateMutability": "view",
      "type": "function"
    },
    {
      "inputs": [],
      "name": "STREAM_FACTORY_ADDRESS",
      "outputs": [
        {
          "internalType": "address",
          "name": "",
          "type": "address"
        }
      ],
      "stateMutability": "view",
      "type": "function"
    },
    {
      "inputs": [],
      "name": "cancelStream",
      "outputs": [],
      "stateMutability": "nonpayable",
      "type": "function"
    },
    {
      "inputs": [],
      "name": "cancelWithAdmin",
      "outputs": [],
      "stateMutability": "nonpayable",
      "type": "function"
    },
    {
      "inputs": [],
      "name": "creator",
      "outputs": [
        {
          "internalType": "address",
          "name": "",
          "type": "address"
        }
      ],
      "stateMutability": "view",
      "type": "function"
    },
    {
      "inputs": [],
      "name": "exitStream",
      "outputs": [],
      "stateMutability": "nonpayable",
      "type": "function"
    },
    {
      "inputs": [],
      "name": "finalizeStream",
      "outputs": [],
      "stateMutability": "nonpayable",
      "type": "function"
    },
    {
      "inputs": [
        {
          "internalType": "address",
          "name": "user",
          "type": "address"
        }
      ],
      "name": "getPosition",
      "outputs": [
        {
          "components": [
            {
              "internalType": "uint256",
              "name": "inBalance",
              "type": "uint256"
            },
            {
              "internalType": "uint256",
              "name": "shares",
              "type": "uint256"
            },
            {
              "components": [
                {
                  "internalType": "uint256",
                  "name": "value",
                  "type": "uint256"
                }
              ],
              "internalType": "struct Decimal",
              "name": "index",
              "type": "tuple"
            },
            {
              "internalType": "uint256",
              "name": "lastUpdateTime",
              "type": "uint256"
            },
            {
              "components": [
                {
                  "internalType": "uint256",
                  "name": "value",
                  "type": "uint256"
                }
              ],
              "internalType": "struct Decimal",
              "name": "pendingReward",
              "type": "tuple"
            },
            {
              "internalType": "uint256",
              "name": "spentIn",
              "type": "uint256"
            },
            {
              "internalType": "uint256",
              "name": "purchased",
              "type": "uint256"
            },
            {
              "internalType": "uint256",
              "name": "exitDate",
              "type": "uint256"
            }
          ],
          "internalType": "struct PositionTypes.Position",
          "name": "",
          "type": "tuple"
        }
      ],
      "stateMutability": "view",
      "type": "function"
    },
    {
      "inputs": [],
      "name": "getStreamState",
      "outputs": [
        {
          "components": [
            {
              "internalType": "uint256",
              "name": "outRemaining",
              "type": "uint256"
            },
            {
              "components": [
                {
                  "internalType": "uint256",
                  "name": "value",
                  "type": "uint256"
                }
              ],
              "internalType": "struct Decimal",
              "name": "distIndex",
              "type": "tuple"
            },
            {
              "internalType": "uint256",
              "name": "spentIn",
              "type": "uint256"
            },
            {
              "internalType": "uint256",
              "name": "shares",
              "type": "uint256"
            },
            {
              "components": [
                {
                  "internalType": "uint256",
                  "name": "value",
                  "type": "uint256"
                }
              ],
              "internalType": "struct Decimal",
              "name": "currentStreamedPrice",
              "type": "tuple"
            },
            {
              "internalType": "uint256",
              "name": "threshold",
              "type": "uint256"
            },
            {
              "internalType": "uint256",
              "name": "inSupply",
              "type": "uint256"
            },
            {
              "internalType": "uint256",
              "name": "outSupply",
              "type": "uint256"
            },
            {
              "internalType": "uint256",
              "name": "lastUpdated",
              "type": "uint256"
            }
          ],
          "internalType": "struct StreamTypes.StreamState",
          "name": "",
          "type": "tuple"
        }
      ],
      "stateMutability": "view",
      "type": "function"
    },
    {
      "inputs": [],
      "name": "getStreamStatus",
      "outputs": [
        {
          "internalType": "enum StreamTypes.Status",
          "name": "",
          "type": "uint8"
        }
      ],
      "stateMutability": "view",
      "type": "function"
    },
    {
      "inputs": [
        {
          "components": [
            {
              "internalType": "address",
              "name": "creator",
              "type": "address"
            },
            {
              "internalType": "address",
              "name": "inSupplyToken",
              "type": "address"
            },
            {
              "internalType": "address",
              "name": "outSupplyToken",
              "type": "address"
            },
            {
              "internalType": "uint256",
              "name": "streamOutAmount",
              "type": "uint256"
            },
            {
              "internalType": "uint256",
              "name": "threshold",
              "type": "uint256"
            },
            {
              "internalType": "uint256",
              "name": "bootstrappingStartTime",
              "type": "uint256"
            },
            {
              "internalType": "uint256",
              "name": "streamStartTime",
              "type": "uint256"
            },
            {
              "internalType": "uint256",
              "name": "streamEndTime",
              "type": "uint256"
            },
            {
              "components": [
                {
                  "internalType": "string",
                  "name": "ipfsHash",
                  "type": "string"
                }
              ],
              "internalType": "struct StreamTypes.StreamMetadata",
              "name": "metadata",
              "type": "tuple"
            },
            {
              "components": [
                {
                  "internalType": "bool",
                  "name": "isVestingEnabled",
                  "type": "bool"
                },
                {
                  "internalType": "uint64",
                  "name": "vestingDuration",
                  "type": "uint64"
                }
              ],
              "internalType": "struct StreamTypes.VestingInfo",
              "name": "creatorVesting",
              "type": "tuple"
            },
            {
              "components": [
                {
                  "internalType": "bool",
                  "name": "isVestingEnabled",
                  "type": "bool"
                },
                {
                  "internalType": "uint64",
                  "name": "vestingDuration",
                  "type": "uint64"
                }
              ],
              "internalType": "struct StreamTypes.VestingInfo",
              "name": "beneficiaryVesting",
              "type": "tuple"
            },
            {
              "components": [
                {
                  "internalType": "uint256",
                  "name": "poolOutSupplyAmount",
                  "type": "uint256"
                },
                {
                  "internalType": "enum StreamTypes.DexType",
                  "name": "dexType",
                  "type": "uint8"
                }
              ],
              "internalType": "struct StreamTypes.PoolInfo",
              "name": "poolInfo",
              "type": "tuple"
            },
            {
              "internalType": "string",
              "name": "tosVersion",
              "type": "string"
            }
          ],
          "internalType": "struct StreamTypes.CreateStreamMessage",
          "name": "createStreamMessage",
          "type": "tuple"
        },
        {
          "internalType": "address",
          "name": "storageAddress",
          "type": "address"
        }
      ],
      "name": "initialize",
      "outputs": [],
      "stateMutability": "nonpayable",
      "type": "function"
    },
    {
      "inputs": [],
      "name": "positionStorageAddress",
      "outputs": [
        {
          "internalType": "address",
          "name": "",
          "type": "address"
        }
      ],
      "stateMutability": "view",
      "type": "function"
    },
    {
      "inputs": [],
      "name": "postStreamActions",
      "outputs": [
        {
          "components": [
            {
              "internalType": "uint256",
              "name": "poolOutSupplyAmount",
              "type": "uint256"
            },
            {
              "internalType": "enum StreamTypes.DexType",
              "name": "dexType",
              "type": "uint8"
            }
          ],
          "internalType": "struct StreamTypes.PoolInfo",
          "name": "poolInfo",
          "type": "tuple"
        },
        {
          "components": [
            {
              "internalType": "bool",
              "name": "isVestingEnabled",
              "type": "bool"
            },
            {
              "internalType": "uint64",
              "name": "vestingDuration",
              "type": "uint64"
            }
          ],
          "internalType": "struct StreamTypes.VestingInfo",
          "name": "creatorVesting",
          "type": "tuple"
        },
        {
          "components": [
            {
              "internalType": "bool",
              "name": "isVestingEnabled",
              "type": "bool"
            },
            {
              "internalType": "uint64",
              "name": "vestingDuration",
              "type": "uint64"
            }
          ],
          "internalType": "struct StreamTypes.VestingInfo",
          "name": "beneficiaryVesting",
          "type": "tuple"
        }
      ],
      "stateMutability": "view",
      "type": "function"
    },
    {
      "inputs": [],
      "name": "streamMetadata",
      "outputs": [
        {
          "internalType": "string",
          "name": "ipfsHash",
          "type": "string"
        }
      ],
      "stateMutability": "view",
      "type": "function"
    },
    {
      "inputs": [],
      "name": "streamState",
      "outputs": [
        {
          "internalType": "uint256",
          "name": "outRemaining",
          "type": "uint256"
        },
        {
          "components": [
            {
              "internalType": "uint256",
              "name": "value",
              "type": "uint256"
            }
          ],
          "internalType": "struct Decimal",
          "name": "distIndex",
          "type": "tuple"
        },
        {
          "internalType": "uint256",
          "name": "spentIn",
          "type": "uint256"
        },
        {
          "internalType": "uint256",
          "name": "shares",
          "type": "uint256"
        },
        {
          "components": [
            {
              "internalType": "uint256",
              "name": "value",
              "type": "uint256"
            }
          ],
          "internalType": "struct Decimal",
          "name": "currentStreamedPrice",
          "type": "tuple"
        },
        {
          "internalType": "uint256",
          "name": "threshold",
          "type": "uint256"
        },
        {
          "internalType": "uint256",
          "name": "inSupply",
          "type": "uint256"
        },
        {
          "internalType": "uint256",
          "name": "outSupply",
          "type": "uint256"
        },
        {
          "internalType": "uint256",
          "name": "lastUpdated",
          "type": "uint256"
        }
      ],
      "stateMutability": "view",
      "type": "function"
    },
    {
      "inputs": [],
      "name": "streamStatus",
      "outputs": [
        {
          "internalType": "enum StreamTypes.Status",
          "name": "",
          "type": "uint8"
        }
      ],
      "stateMutability": "view",
      "type": "function"
    },
    {
      "inputs": [],
      "name": "streamTimes",
      "outputs": [
        {
          "internalType": "uint256",
          "name": "bootstrappingStartTime",
          "type": "uint256"
        },
        {
          "internalType": "uint256",
          "name": "streamStartTime",
          "type": "uint256"
        },
        {
          "internalType": "uint256",
          "name": "streamEndTime",
          "type": "uint256"
        }
      ],
      "stateMutability": "view",
      "type": "function"
    },
    {
      "inputs": [],
      "name": "streamTokens",
      "outputs": [
        {
          "internalType": "address",
          "name": "inSupplyToken",
          "type": "address"
        },
        {
          "internalType": "address",
          "name": "outSupplyToken",
          "type": "address"
        }
      ],
      "stateMutability": "view",
      "type": "function"
    },
    {
      "inputs": [
        {
          "internalType": "uint256",
          "name": "amountIn",
          "type": "uint256"
        }
      ],
      "name": "subscribe",
      "outputs": [],
      "stateMutability": "nonpayable",
      "type": "function"
    },
    {
      "inputs": [
        {
          "internalType": "uint256",
          "name": "amountIn",
          "type": "uint256"
        }
      ],
      "name": "subscribeWithNativeToken",
      "outputs": [],
      "stateMutability": "payable",
      "type": "function"
    },
    {
      "inputs": [
        {
          "internalType": "uint256",
          "name": "amountIn",
          "type": "uint256"
        },
        {
          "internalType": "address",
          "name": "owner",
          "type": "address"
        },
        {
          "components": [
            {
              "components": [
                {
                  "internalType": "address",
                  "name": "token",
                  "type": "address"
                },
                {
                  "internalType": "uint160",
                  "name": "amount",
                  "type": "uint160"
                },
                {
                  "internalType": "uint48",
                  "name": "expiration",
                  "type": "uint48"
                },
                {
                  "internalType": "uint48",
                  "name": "nonce",
                  "type": "uint48"
                }
              ],
              "internalType": "struct IPermit2.PermitDetails",
              "name": "details",
              "type": "tuple"
            },
            {
              "internalType": "address",
              "name": "spender",
              "type": "address"
            },
            {
              "internalType": "uint256",
              "name": "sigDeadline",
              "type": "uint256"
            }
          ],
          "internalType": "struct IPermit2.PermitSingle",
          "name": "permitSingle",
          "type": "tuple"
        },
        {
          "internalType": "bytes",
          "name": "signature",
          "type": "bytes"
        }
      ],
      "name": "subscribeWithPermit",
      "outputs": [],
      "stateMutability": "nonpayable",
      "type": "function"
    },
    {
      "inputs": [
        {
          "internalType": "address",
          "name": "user",
          "type": "address"
        }
      ],
      "name": "syncPositionExternal",
      "outputs": [],
      "stateMutability": "nonpayable",
      "type": "function"
    },
    {
      "inputs": [],
      "name": "syncStreamExternal",
      "outputs": [],
      "stateMutability": "nonpayable",
      "type": "function"
    },
    {
      "inputs": [
        {
          "internalType": "string",
          "name": "metadataIpfsHash",
          "type": "string"
        }
      ],
      "name": "updateStreamMetadata",
      "outputs": [],
      "stateMutability": "nonpayable",
      "type": "function"
    },
    {
      "inputs": [
        {
          "internalType": "uint256",
          "name": "cap",
          "type": "uint256"
        }
      ],
      "name": "withdraw",
      "outputs": [],
      "stateMutability": "nonpayable",
      "type": "function"
    }
  ],
  "transactionHash": "0x5bbd815478723ff25af35e4fd8a42ff716c4d74de04d636eb15625c2924a5df8",
  "args": [
    "0x0AD08b53296D77Ac84a86288c4C90ADE1a00d148"
  ],
  "numDeployments": 1,
  "solcInputHash": "e39a3ee1f231a08777ba1a6eaba2d005",
  "bytecode": "0x60a034620000ac57601f6200365238819003918201601f19168301916001600160401b03831184841017620000b157808492602094604052833981010312620000ac57516001600160a01b038116808203620000ac57156200009a5760805260405161358a9081620000c882396080518181816101690152818161050f01528181610e4c015281816114d20152818161172001526121870152f35b6040516332dcc54560e11b8152600490fd5b600080fd5b634e487b7160e01b600052604160045260246000fdfe608080604052600436101561001357600080fd5b600090813560e01c90816302d05d3f146122b35750806303905474146113535780630bcc8eba146121595780630e5634df1461208a5780630f574ba71461205257806316c197391461202057806321194bd714611e885780632ae4e93114611e0f5780632e1a7d4d14611c2757806334793e0514611b5f57806342a54319146115485780635929814e1461150157806360d388d8146114bc5780636afdd850146114925780636b330b79146113af5780638a03764f1461137d578063af5c3ac414611353578063bdf4a9471461124a578063c0ae398c146111c8578063cbf0641514610d31578063d08452c214610cfe578063d1477dd914610a5e578063e427d08c14610a35578063e9a9e144146109795763f69e8fba1461013457600080fd5b3461097657806003193601126109765780546001600160a01b0316330361096557604051635e615a6b60e01b815281816004817f00000000000000000000000000000000000000000000000000000000000000006001600160a01b03165afa90811561095a578291610940575b50600e54906101bc6101b16129f7565b429060ff8516612a35565b600781101561092c5760030361091a576101dc6101d76128be565b612e10565b9060408201519160a081015183101581519460e0830151916000146108b557505060018060a01b0360c08301511690610231620f42406102286040860151610223886131b4565b6131ea565b51048095612938565b938692879260125480610815575b509061025b6102b89392600560ff19600e541617600e5561316b565b885460408051898152602081018590529081018a90526001600160a01b039091169030907f16d1e1ee4b51bbfbf5d46884cac3a98f673074103d40dfae8a99e5b51457b7d290606090a3600b5430906001600160a01b0316612b2f565b806104ce575b505060145460ff16156104aa576101200151600b5460405163095ea7b360e01b81526001600160a01b0392831660048201819052602482018590526020949390928591839160449183918b91165af180156104725761047d575b508454601454600b5460405163c4b2da5960e01b81526001600160a01b0393841660048201526001600160401b03428116602483015260089390931c8316604482015292166064830152608482018490529390918190839060a49082908a905af1918215610472578692610413575b50907ffcca19372f3f67f6ac818c2c6916cc78908132a341935791115e4c5afe6d15469260809260018060a01b038854169560145460081c1660018060a01b03600b5416916040519460018060a01b0316855284015260408301526060820152a25b806103f2575080f35b600c54825461041092916001600160a01b0391821691309116612b2f565b80f35b91508082813d831161046b575b61042a81836123d6565b81010312610467577ffcca19372f3f67f6ac818c2c6916cc78908132a341935791115e4c5afe6d15469261045f60809361257e565b925092610387565b8580fd5b503d610420565b6040513d88823e3d90fd5b61049c90843d86116104a3575b61049481836123d6565b8101906129df565b5038610318565b503d61048a565b50600b5483546104c992916001600160a01b0391821691309116612b2f565b6103e9565b600b54600c546013548854604051635e615a6b60e01b81526001600160a01b0394851696918516959094909391929181169160ff16908b90869060049082907f0000000000000000000000000000000000000000000000000000000000000000165afa94851561080a578b956107e6575b5060038110156107d2578061077a5750610140909301516001600160a01b03169461058393905b61057283883084612b2f565b61057e84883085612b2f565b613370565b90604095939594929451948560a08101106001600160401b0360a0880111176107645760a0860160409081526001600160a01b03978816875290871660208701908152818701928352606087019384526080870194855290516360c7344d60e01b815295518716600487015251861660248601525160448501525160648401525183166084830152610100928391839160a49183918b91165af19182156104725786926106c1575b505060018060a01b0381511660018060a01b0360208301511660018060a01b03604084015116926060810151608082015160c08301519160e08401519360a0600180821b039101511696604051958652602086015260408501526060840152608083015260a08201527f87bc8e3ae6b1afb3671d60583735fe23381ae9afc0ef7d9bfca9a67195148f5260c03092a438806102be565b90809250813d831161075d575b6106d881836123d6565b810103126107595760e0604051916106ef836123ba565b6106f88161257e565b83526107066020820161257e565b60208401526107176040820161257e565b6040840152606081015160608401526080810151608084015261073c60a0820161257e565b60a084015260c081015160c0840152015160e0820152388061062b565b8480fd5b503d6106ce565b634e487b7160e01b600052604160045260246000fd5b6001810361079e5750610160909301516001600160a01b0316946105839390610566565b6002036107c057610180909301516001600160a01b0316946105839390610566565b604051631ba449e160e01b8152600490fd5b634e487b7160e01b8b52602160045260248bfd5b6108039195503d808d833e6107fb81836123d6565b8101906125b0565b933861053f565b6040513d8d823e3d90fd5b809550610824919794506131b4565b61082f6009546131b4565b908960405161083d8161233a565b52519081620f4240810204620f424014821517156108a157610897620f424061088d6108756102b89796958361025b96519102612f95565b604051906108828261233a565b8152610223896131b4565b5104809796612938565b979192935061023f565b634e487b7160e01b8a52601160045260248afd5b60ff1916600417600e55610410945092506108d0915061316b565b60018060a01b03835416806040518381527f3f3e233ce59fa3e5f0b479b323538988fd213fa8f3007a95ff330489bf5d40a660203092a3600c5430906001600160a01b0316612b2f565b604051637a851da960e11b8152600490fd5b634e487b7160e01b84526021600452602484fd5b61095491503d8084833e6107fb81836123d6565b386101a1565b6040513d84823e3d90fd5b6040516282b42960e81b8152600490fd5b80fd5b503461097657806003193601126109765780546001600160a01b03908116330361096557600e546109b66109ab6129f7565b429060ff8416612a35565b600781101561092c5761091a576104109160066009549260ff191617600e5580845416906040517febb55ea32d517c9ec85f61357977ac73b84e65ebeaedb528ed791d7e25e30a2b309180610a278787836040906006929493606082019560018060a01b0316825260208201520152565b0390a23090600c5416612b2f565b50346109765780600319360112610976576001546040516001600160a01b039091168152602090f35b50346109765761012036600319011261097657610a79612461565b9060c0366043190112610976576001600160401b03806101043511610cfa5736602361010435011215610cfa576101043560040135116109765736602461010435600401356101043501011161097657604435916001600160a01b0383168303610cfa57600b546001600160a01b0390811690841603610ce4576064356001600160a01b0381168103610cf6576001600160a01b03600435811690821610610ce45760c435906001600160a01b0382168203610ce057306001600160a01b03831603610ce4574260e43510610ce4576e22d473030f116ddee9f6b43ac78ba33b15610ce0576040516302b67b5760e41b81526001600160a01b039384166004820181905295841660248201529216604483015265ffffffffffff6084358181169081900361075957606484015260a435908116809103610ce05760848301526001600160a01b031660a482015260e4803560c483015261010090820152600461010480359182013590830181905283918391610124916024018284013760046101043501358281018201849052601f01601f191682018290030181836e22d473030f116ddee9f6b43ac78ba35af1801561095a57610cd1575b50600b54909182916001600160a01b03166e22d473030f116ddee9f6b43ac78ba33b15610ccd57604051631b63c28b60e11b815260048082019390935230602482015291356001600160a01b0316604483015260648201528181608481836e22d473030f116ddee9f6b43ac78ba35af1801561095a57610cb9575b50610410600435612c1b565b610cc2906123a7565b610976578038610cad565b5050fd5b610cda906123a7565b38610c32565b8380fd5b60405163162908e360e11b8152600490fd5b8280fd5b5080fd5b5034610976578060031936011261097657600b54600c54604080516001600160a01b039384168152919092166020820152f35b5034610976578060031936011261097657610d4b33612773565b60e0810151806111a25750610d616101d76128be565b90610d7e60209182840151606085015160c0860151914293612fb5565b90610d9860ff600e54164290610d926129f7565b90612a35565b9282519260c081019485519560a08301918251944260e0860152610dbb82612968565b610dc48161316b565b610dce8533613111565b60a060408201519101511190600781101591826107d25760058214918215611183575b8361116f57908160048d98979695949314938415611162575b8415611132575b50505060001461109f575050508461107f575b60155460ff161561105b57604051635e615a6b60e01b81526001600160a01b039083816004817f000000000000000000000000000000000000000000000000000000000000000086165afa908115611050578291610120918691611036575b500151600c5460405163095ea7b360e01b8152929091166001600160a01b0381166004840152602483018a905291949192918791869160449183919086165af193841561100e578894611019575b50601554600c5460405163c4b2da5960e01b81523360048201526001600160401b03428116602483015260089390931c831660448201529083166001600160a01b0316606482015260848101959095529186908590818c8160a4810103925af191821561100e578992610fd3575b6040945060155460081c1681600c54169185519316835286830152838201528660608201527fed25121b81d41b78772364dd92b7a00beece46a264fb0d8046deacfb48119ad760803392a25b015151916040519485528401526040830152606082015242608082015233907f1d86502e4a4586da05506402e9e717090c0ce0ac1a71ad60b9312ae8ab044abf60a03092a380f35b91508584813d8311611007575b610fea81836123d6565b8101031261100357610ffd60409461257e565b91610f3f565b8880fd5b503d610fe0565b6040513d8b823e3d90fd5b61102f90873d89116104a35761049481836123d6565b5038610ed1565b61104a91503d8088833e6107fb81836123d6565b38610e83565b6040513d86823e3d90fd5b600c546040925061107a908790339030906001600160a01b0316612b2f565b610f8b565b600b5461109a908690339030906001600160a01b0316612b2f565b610e24565b92969550939250955060001461091a576110bd86916110e4946129d2565b91528484528083526110cf8333613111565b600b54339030906001600160a01b0316612b2f565b5190517f387c4a97ea999c71f2b33e24b2c4406f4a5100fc4e8deceb0bb6f4c5e5bbbe106040518061112c339530954291846040919493926060820195825260208201520152565b0390a380f35b9193509193949596506107d2579060038b969594939214908161115a575b5090388080610e11565b905038611150565b5060068114935087610e0a565b634e487b7160e01b8c52602160045260248cfd5b8b9350839250600381148061119a575b9250610df1565b508115611193565b60208201516111c4604051928392631175404360e11b84523360048501612981565b0390fd5b50346109765780600319360112610976576101206002546040516111eb8161233a565b60035481526004546005546040516112028161233a565b6006548152600754906008549260095494600a54966040519889525160208901526040880152606087015251608086015260a085015260c084015260e0830152610100820152f35b503461097657806003193601126109765760405161126781612355565b601254815260ff60135416916020820192600381101561133f5783526040519061129082612355565b6014549360ff8516151583526001600160401b03809560081c166020840152604051946112bc86612355565b60155460ff81161515875260081c166020860152604051935184525190600382101561132b575060208381019190915281511515604084015201516001600160401b0316606082015260c09161132990805115156080840152602001516001600160401b031660a0830152565bf35b634e487b7160e01b81526021600452602490fd5b634e487b7160e01b82526021600452602482fd5b503461097657806003193601126109765761137960ff600e5416604051918291826122d7565b0390f35b5034610976578060031936011261097657600f5460105460115460408051938452602084019290925290820152606090f35b5034610976576020366003190112610976576113c9612446565b6113d281612773565b6113dc8282612d70565b6114156114056113ed6101d76128be565b926020840151606085015160c0860151914293612fb5565b916114108385613111565b61316b565b805160208083015160608085015160a08087015160c0808901516040998a0151518a51998a5297890196909652978701929092529185015260808401919091528201526001600160a01b039092169130917f776f4c645ad4c2525f2c0862f3c0e3841c03f4fc680c1ceb4ab41b9eadccc4d191908190810161112c565b503461097657806003193601126109765760206040516e22d473030f116ddee9f6b43ac78ba38152f35b50346109765780600319360112610976576040517f00000000000000000000000000000000000000000000000000000000000000006001600160a01b03168152602090f35b50602036600319011261097657600b54600435906001600160a01b03166115365780611531610410923033612a80565b612c1b565b604051632df9739b60e01b8152600490fd5b50346109765760031990604036830112610976576001600160401b036004351161097657610200826004353603011261097657604051916101a083018381106001600160401b03821117611a2f576040526115a7600435600401612477565b83526115b7602460043501612477565b60208401526115ca604460043501612477565b6040840152600435606481013560608501526084810135608085015260a481013560a085015260c481013560c085015260e481013560e08501526101040135906001600160401b038211610cf657602090826004350136030112610cfa57604051906116358261233a565b6001600160401b03600482813501013511610cf657611662903690600480359091018082013501016124f3565b815261010083015261167a366101246004350161253a565b610120830152611690366101646004350161253a565b610140830152604060043536036101a3190112610976576040516116b381612355565b6004356101a481013582526101c401356003811015610cf65760208201526101608301526001600160401b036101e46004350135116109765761170136600480356101e481013501016124f3565b61018083015261170f612461565b6001549060ff8260a01c16610965577f00000000000000000000000000000000000000000000000000000000000000006001600160a01b03163303610965576001600160a01b03811615611b4d57610120840151805115159081611b1a575b5050610140840151805115159081611ae7575b50506101608401515180611a43575b506001600160a01b039081166001600160a01b031992831617600155835183549116911617815560405181906117c58161233a565b526040516117d28161233a565b818152606083015190826040516117e88161233a565b526040516117f58161233a565b83815260808501519160608601519360405161181081612370565b8181528260208201528660408201528660608201528360808201528460a08201528660c08201528560e082015261010042910152600255516003558360045583600555516006556007558160085560095542600a5560018060a01b0360208301511660018060a01b036040840151169081602060405161188f81612355565b83815201526bffffffffffffffffffffffff60a01b600b541617600b556bffffffffffffffffffffffff60a01b600c541617600c55610100820151519182516001600160401b038111611a2f576118e7600d54612300565b601f81116119de575b506020601f821160011461196f57839482939492611964575b50508160011b916000199060031b1c191617600d555b60ff19600e5416600e5560a08101519060e060c08201519101519161194560405161238c565b600f556010556011556001805460ff60a01b1916600160a01b17905580f35b015190503880611909565b600d845260008051602061353583398151915290601f198316855b8181106119c6575095836001959697106119ad575b505050811b01600d5561191f565b015160001960f88460031b161c1916905538808061199f565b9192602060018192868b01518155019401920161198a565b600d8452600080516020613535833981519152601f830160051c81019160208410611a25575b601f0160051c01905b818110611a1a57506118f0565b848155600101611a0d565b9091508190611a04565b634e487b7160e01b83526041600452602483fd5b606085015110611ad557611a5e60206101608601510161295b565b600381101561092c57151580611ab1575b611a9f57602061016085015180516012550151600381101561092c5760ff80196013541691161760135538611790565b604051632946cbf160e01b8152600490fd5b50611ac360206101608601510161295b565b600381101561092c5760011415611a6f565b60405163c9c0f41360e01b8152600490fd5b60ff68ffffffffffffffff00602060155493015160081b1692169068ffffffffffffffffff191617176015553880611781565b60ff68ffffffffffffffff00602060145493015160081b1692169068ffffffffffffffffff19161717601455388061176e565b60405163d2d441ff60e01b8152600490fd5b5034610976578060031936011261097657611b786128be565b611ba4611b8c611b866129f7565b92612e10565b91611b968361316b565b60ff600e5416904291612a35565b611bad81612968565b61010082015191600782101561092c57602081015151815160c08301519160ff60806040860151950151519560405197885216602087015260408601526060850152608084015260a083015260c08201527f9a6ce334816e7b4b0cea88e41f3c652ec2e8064e2663e98f6d94d5ed90bc569060e03092a280f35b50346109765760203660031901126109765760043590611c4633612773565b91611c513384612d70565b611c5c611b966129f7565b906007821015611dfb57600282141580611df0575b61091a57611c806101d76128be565b916020830151611ca0606085019182519760c087019842928a5192612fb5565b9280611dea57508251935b83518511611dd157957fca17ddd98e8725ab2aa1c70d19c5d777d10bd61a64e2525cf7ead7fe7f1ec20791611d3c8798610410985086518814600014611dba57611d326020880151965b611d2b60208a0198611d08818b51612938565b8a52611d158c8c51612938565b8b52611d228c8951612938565b88528651612938565b8552612968565b6114108733613111565b611da2855194519560608101519260a082015194604060c0840151930151519051915192604051968796339b309b8994919260e0969399989794919961010087019a8752602087015260408601526060850152608084015260a083015260c08201520152565b0390a3600b54339030906001600160a01b0316612b2f565b611d32611dcb85518551908b6130a3565b96611cf5565b6040516318928cbf60e31b815260048101869052602490fd5b93611cab565b506001821415611c71565b634e487b7160e01b83526021600452602483fd5b5034610976578060031936011261097657610120611e2b6128be565b604051908051825260208101515160208301526040810151604083015260608101516060830152608081015151608083015260a081015160a083015260c081015160c083015260e081015160e08301526101008091015190820152f35b5034610976576020906020600319360112610976576001600160401b03600435818111610cf657611ebd9036906004016124f3565b82549091906001600160a01b03163303610965578151908111611a2f57611ee5600d54612300565b601f8111611fcf575b50602093601f8211600114611f5f5750829381929391611f54575b508160011b916000199060031b1c191617600d555b7ffa52982561798522f5e44b012104c1a4b09148533ab665caa1c1f28539f9a05360405180611f4e30948261241a565b0390a280f35b905082015138611f09565b600d8452601f198216946000805160206135358339815191529185905b878210611fb757505082600194959610611f9e575b5050811b01600d55611f1e565b84015160001960f88460031b161c191690553880611f91565b80600184958294958901518155019401920190611f7c565b600d8452600080516020613535833981519152601f830160051c81019160208410612016575b601f0160051c01905b81811061200b5750611eee565b848155600101611ffe565b9091508190611ff5565b503461097657602036600319011261097657610100612045612040612446565b612773565b611329604051809261248b565b503461097657602036600319011261097657600b546001600160a01b0316600435811561153657611531816104109330903390612b2f565b50346109765780600319360112610976576040519080600d54906120ad82612300565b8085529160209160019182811690811561212c57506001146120e6575b611379866120da818803826123d6565b6040519182918261241a565b9350600d84526000805160206135358339815191525b838510612119575050505081016020016120da82611379386120ca565b80548686018401529382019381016120fc565b9050869550611379969350602092506120da94915060ff191682840152151560051b8201019293386120ca565b5034610976578060031936011261097657604051635e615a6b60e01b81526001600160a01b039082816004817f000000000000000000000000000000000000000000000000000000000000000086165afa9081156122a857829160e091859161228e575b50015116330361096557600e546121d56109ab6129f7565b6007811015908161227a57801515918261226c575b8261225a575b505061091a576104109160066009549260ff191617600e5580845416906040517febb55ea32d517c9ec85f61357977ac73b84e65ebeaedb528ed791d7e25e30a2b309180610a278787836040906006929493606082019560018060a01b0316825260208201520152565b90915061092c576002141538806121f0565b5060018114159150846121ea565b634e487b7160e01b85526021600452602485fd5b6122a291503d8087833e6107fb81836123d6565b386121bd565b6040513d85823e3d90fd5b905034610cfa5781600319360112610cfa5790546001600160a01b03168152602090f35b9190602083019260078210156122ea5752565b634e487b7160e01b600052602160045260246000fd5b90600182811c92168015612330575b602083101461231a57565b634e487b7160e01b600052602260045260246000fd5b91607f169161230f565b602081019081106001600160401b0382111761076457604052565b604081019081106001600160401b0382111761076457604052565b61012081019081106001600160401b0382111761076457604052565b606081019081106001600160401b0382111761076457604052565b6001600160401b03811161076457604052565b61010081019081106001600160401b0382111761076457604052565b90601f801991011681019081106001600160401b0382111761076457604052565b60005b83811061240a5750506000910152565b81810151838201526020016123fa565b6040916020825261243a81518092816020860152602086860191016123f7565b601f01601f1916010190565b600435906001600160a01b038216820361245c57565b600080fd5b602435906001600160a01b038216820361245c57565b35906001600160a01b038216820361245c57565b60e080918051845260208101516020850152604081015151604085015260608101516060850152608081015151608085015260a081015160a085015260c081015160c08501520151910152565b6001600160401b03811161076457601f01601f191660200190565b81601f8201121561245c5780359061250a826124d8565b9261251860405194856123d6565b8284526020838301011161245c57816000926020809301838601378301015290565b919082604091031261245c5760405161255281612355565b8092803590811515820361245c5760209183520135906001600160401b038216820361245c5760200152565b51906001600160a01b038216820361245c57565b919082602091031261245c576040516125aa8161233a565b91518252565b602091828282031261245c5781516001600160401b039283821161245c5701916101e093848484031261245c5760405194850185811083821117610764576040528351855261260081850161257e565b818601526126118360408601612592565b6040860152606084015160608601526080840151608086015260a084015160a086015261264060c0850161257e565b60c086015261265160e0850161257e565b60e0860152610100918285015190811161245c57840183601f8201121561245c5780519061267e826124d8565b9461268c60405196876123d6565b82865283838301011161245c57826126a793860191016123f7565b8301526101206126b881830161257e565b908301526101406126ca81830161257e565b908301526101606126dc81830161257e565b908301526101806126ee81830161257e565b908301526101a061270081830161257e565b908301526127126101c080920161257e565b9082015290565b60405190612726826123ba565b8160e06000918281528260208201526040516127418161233a565b838152604082015282606082015260405161275b8161233a565b83815260808201528260a08201528260c08201520152565b61277b612719565b506001546040516316c1973960e01b81526001600160a01b0392831660048201529161010091829184916024918391165afa918215612851576000926127c057505090565b908092503d831161284a575b6127d681836123d6565b8101918183031261245c5760e090612827604051936127f4856123ba565b825185526020830151602086015261280f8160408501612592565b60408601526060830151606086015260808301612592565b608084015260a081015160a084015260c081015160c0840152015160e082015290565b503d6127cc565b6040513d6000823e3d90fd5b6040519061286a82612370565b816101006000918281526040516128808161233a565b83815260208201528260408201528260608201526040516128a08161233a565b83815260808201528260a08201528260c08201528260e08201520152565b6128c661285d565b506040516128d381612370565b60025481526040516128e48161233a565b600354815260208201526004546040820152600554606082015260405161290a8161233a565b6006548152608082015260075460a082015260085460c082015260095460e0820152600a5461010082015290565b9190820391821161294557565b634e487b7160e01b600052601160045260246000fd5b5160038110156122ea5790565b60078110156122ea5760ff8019600e5416911617600e55565b9160c0939160018060a01b031683526020830152604082015260806060820152601b60808201527f506f736974696f6e2068617320616c726561647920657869746564000000000060a08201520190565b9190820180921161294557565b9081602091031261245c5751801515810361245c5790565b600060408051612a068161238c565b8281528260208201520152604051612a1d8161238c565b600f5481526010546020820152601154604082015290565b90612a4d928151906040602084015193015193613219565b90565b3d15612a7b573d90612a61826124d8565b91612a6f60405193846123d6565b82523d6000602084013e565b606090565b908215612b2a576001600160a01b03918216338103612af75750823403612ad85716308114612ad457600080809381935af1612aba612a50565b5015612ac257565b604051630c08bcb960e21b8152600490fd5b5050565b604051635693fffb60e01b815260048101849052346024820152604490fd5b308103612b1257506000809381938293165af1612aba612a50565b6024906040519063463de9db60e01b82526004820152fd5b505050565b929190928215612c15576001600160a01b03908116938415612be557811690308203612b9a57505060405163a9059cbb60e01b60208201526001600160a01b03919091166024820152604480820192909252908152612b9891612b936064836123d6565b61338f565b565b909291604051936323b872dd60e01b6020860152602485015216604483015260648201526064815260a08101918183106001600160401b0384111761076457612b989260405261338f565b8193945016338114600014612af75750823403612ad85716308114612ad457600080809381935af1612aba612a50565b50505050565b8015610ce457612c3960ff600e5416612c326129f7565b4291612a35565b60078110156122ea57600181141580612d65575b61091a577fac20383bc611fb24ecfa942ed37ae8648074130276759a168535c23c5cf026c3612c7d6101d76128be565b612c8633612773565b90612cfc602082015191612cf2612cad606083019485519660c08501974292895192612fb5565b96612ce5612cbf87518751908c6130e9565b99612ccb818b516129d2565b8a5260208a01612cdc8c82516129d2565b905287516129d2565b8652611d2b8986516129d2565b6114108633613111565b612d6084519460608101519260a082015194604060c0840151930151519051915192604051968796339b309b8994919260e0969399989794919961010087019a8752602087015260408601526060850152608084015260a083015260c08201520152565b0390a3565b506002811415612c4d565b90602082019182518015612dad575060e001519182612d8e57505050565b51604051631175404360e11b81529283926111c4929060048501612981565b60e09190910151604051631175404360e11b81526001600160a01b03909316600484015260248301919091526044820152608060648201526016608482015275506f736974696f6e20686173206e6f2073686172657360501b60a482015260c490fd5b612e1861285d565b50612e216129f7565b612e3e604060208301519201519161010084019283519142613292565b805115612f7b57612e4d61285d565b5060608301908151151580612f71575b612edd575b50504290526020810151517ff7f050a5e163dbe15fb695b5b2e83ef129fc3565263dc8fc74049d3739e62fde825160c084015190612ed7604086015160808701515190604051948594309842879260a094919796959260c0850198855260208501526040840152606083015260808201520152565b0390a290565b620f42409081612ef18261022388516131b4565b510491612f0660c087019261022384516131b4565b51049060408601612f188382516129d2565b9052612f25828251612938565b905281612f33575b50612e62565b612f4e612f6493612f45848851612938565b87525183613475565b612f5d60208701918251613346565b9052613475565b6080830152388080612f2d565b5080511515612e5d565b5042905290565b8181029291811591840414171561294557565b8115612f9f570490565b634e487b7160e01b600052601260045260246000fd5b9392919091612fc2612719565b506040850191612fe683516000604051612fdb8161233a565b528551905190612938565b60405190612ff38261233a565b815260208701928351938885613013575b50505050505052606082015290565b6130266130759461022361307a986131b4565b6130366080830191825190613346565b60006040516130448161233a565b525161306b620f424060c06040519561305c8761233a565b828506875201920482516129d2565b9052525190612f82565b612f95565b613085818651612938565b61309460a087019182516129d2565b90528452388080808088613004565b9091801580156130e1575b6130db576130c06130c5928492612f82565b6129d2565b60001981019190821161294557612a4d91612f95565b50905090565b5081156130ae565b9180158015613109575b61310457612a4d9261307591612f82565b505090565b5082156130f3565b6001546001600160a01b03908116803b1561245c57600092836101249261315360405197889687956360d6081360e11b8752166004860152602485019061248b565b5af18015612851576131625750565b612b98906123a7565b80516002556020810151516003556040810151600455606081015160055560808101515160065560a081015160075560c081015160085560e08101516009556101000151600a55565b60006040516131c28161233a565b52620f42409081810291818304149015171561294557604051906131e58261233a565b815290565b620f42409161320b9160006040516132018161233a565b5251905190612f82565b04604051906131e58261233a565b929190926007811015806122ea5760068214908115613285575b8115613275575b5061326d575082101561324f57505050600090565b81101561325d575050600190565b101561326857600290565b600390565b935050505090565b90506122ea57600581143861323a565b5050600481146000613233565b9290919260006040516132a48161233a565b52828110801561333c575b61332a57826132d8938310613322575b508184821161331a575b6132d291612938565b92612938565b80158015613312575b6132ee57612a4d91613475565b505060006040516132fe8161233a565b5260405161330b8161233a565b6000815290565b5081156132e1565b8491506132c9565b9150386132bf565b5050505060006040516132fe8161233a565b50838210156132af565b906133639160006040516133598161233a565b52519051906129d2565b604051906131e58261233a565b93906001600160a01b038082169086161061338b5793929190565b9290565b6040516133ed916001600160a01b03166133a882612355565b6000806020958685527f5361666545524332303a206c6f772d6c6576656c2063616c6c206661696c656487860152868151910182855af16133e7612a50565b916134a3565b80519082821592831561345d575b505050156134065750565b6084906040519062461bcd60e51b82526004820152602a60248201527f5361666545524332303a204552433230206f7065726174696f6e20646964206e6044820152691bdd081cdd58d8d9595960b21b6064820152fd5b61346d93508201810191016129df565b3882816133fb565b9060006040516134848161233a565b52620f4240918281029281840414901517156129455761336391612f95565b9192901561350557508151156134b7575090565b3b156134c05790565b60405162461bcd60e51b815260206004820152601d60248201527f416464726573733a2063616c6c20746f206e6f6e2d636f6e74726163740000006044820152606490fd5b8251909150156135185750805190602001fd5b60405162461bcd60e51b81529081906111c4906004830161241a56fed7b6990105719101dabeb77144f2a3385c8033acd3af97e9423a695e81ad1eb5a264697066735822122072f4795092fab2ac70625380376ea231bd662a503fa97675fc80df2bfc1e848464736f6c63430008180033",
  "devdoc": {
    "details": "Main contract for managing token streaming with vesting and pool creation capabilities",
    "kind": "dev",
    "methods": {
      "cancelStream()": {
        "details": "Allows the creator to cancel the stream during the Waiting phase"
      },
      "cancelWithAdmin()": {
        "details": "Allows the protocol admin to cancel the stream during Waiting, Bootstrapping, or Active phases"
      },
      "constructor": {
        "details": "Constructor to set the stream factory address",
        "params": {
          "factoryAddress": "Address of the stream factory"
        }
      },
      "exitStream()": {
        "details": "Allows users to exit the stream and receive their tokens based on stream outcome"
      },
      "finalizeStream()": {
        "details": "Allows the creator to finalize the stream after it has ended"
      },
      "getPosition(address)": {
        "details": "Get a user's position information",
        "params": {
          "user": "Address of the user"
        },
        "returns": {
          "_0": "The user's position"
        }
      },
      "getStreamState()": {
        "details": "Get the current stream state",
        "returns": {
          "_0": "The current stream state"
        }
      },
      "getStreamStatus()": {
        "details": "Get the current stream status",
        "returns": {
          "_0": "The current stream status"
        }
      },
      "initialize((address,address,address,uint256,uint256,uint256,uint256,uint256,(string),(bool,uint64),(bool,uint64),(uint256,uint8),string),address)": {
        "details": "Initializes the stream with the provided configuration",
        "params": {
          "createStreamMessage": "Stream creation parameters",
          "storageAddress": "Address of the position storage contract"
        }
      },
      "subscribe(uint256)": {
        "details": "Allows users to subscribe to the stream by providing input tokens",
        "params": {
          "amountIn": "Amount of input tokens to subscribe with"
        }
      },
      "subscribeWithPermit(uint256,address,((address,uint160,uint48,uint48),address,uint256),bytes)": {
        "details": "Allows users to subscribe using Permit2 signature-based allowance.      The Permit2 signature (PermitSingle) is verified and consumed, then the      tokens are pulled from `owner` to this Stream contract. The rest of the      logic mirrors the regular `subscribe` flow.",
        "params": {
          "amountIn": "Amount of input tokens user wants to contribute",
          "owner": "Address that actually holds the tokens (signer of permit)",
          "permitSingle": "Full Permit2 data struct describing the allowance",
          "signature": "EIP-712 signature over `permitSingle`"
        }
      },
      "syncPositionExternal(address)": {
        "details": "External function to sync a specific user's position",
        "params": {
          "user": "Address of the user whose position should be synced"
        }
      },
      "syncStreamExternal()": {
        "details": "External function to sync the stream state and status"
      },
      "updateStreamMetadata(string)": {
        "details": "Allows the creator to update the stream metadata"
      },
      "withdraw(uint256)": {
        "details": "Allows users to withdraw their input tokens from the streamIf cap is 0, the user will withdraw all their input tokens",
        "params": {
          "cap": "Amount of input tokens to withdraw"
        }
      }
    },
    "title": "Stream",
    "version": 1
  },
  "userdoc": {
    "kind": "user",
    "methods": {
      "PERMIT2()": {
        "notice": "Address of the Permit2 contract"
      },
      "STREAM_FACTORY_ADDRESS()": {
        "notice": "Immutable address of the stream factory that deployed this stream"
      },
      "cancelStream()": {
        "notice": "Only the creator can cancel during Waiting phase"
      },
      "cancelWithAdmin()": {
        "notice": "Only the protocol admin can call this function"
      },
      "creator()": {
        "notice": "Address of the stream creator"
      },
      "exitStream()": {
        "notice": "Users can exit after the stream has ended or been cancelled"
      },
      "finalizeStream()": {
        "notice": "Only the creator can call this function when stream status is Ended"
      },
      "initialize((address,address,address,uint256,uint256,uint256,uint256,uint256,(string),(bool,uint64),(bool,uint64),(uint256,uint8),string),address)": {
        "notice": "This function can only be called once by the stream factory"
      },
      "positionStorageAddress()": {
        "notice": "Address of the position storage contract"
      },
      "postStreamActions()": {
        "notice": "Post-stream actions like vesting and pool creation"
      },
      "streamMetadata()": {
        "notice": "Metadata associated with the stream"
      },
      "streamState()": {
        "notice": "Current state of the stream (distribution index, remaining tokens, etc.)"
      },
      "streamStatus()": {
        "notice": "Current status of the stream (Waiting, Bootstrapping, Active, etc.)"
      },
      "streamTimes()": {
        "notice": "Timing information for the stream phases"
      },
      "streamTokens()": {
        "notice": "Token addresses for input and output tokens"
      },
      "subscribe(uint256)": {
        "notice": "Users can subscribe during Bootstrapping or Active phases"
      },
      "syncPositionExternal(address)": {
        "notice": "Anyone can call this to update a user's position based on current stream state"
      },
      "syncStreamExternal()": {
        "notice": "Anyone can call this to update the stream state based on current time"
      },
      "updateStreamMetadata(string)": {
        "notice": "Only the creator can call this function"
      },
      "withdraw(uint256)": {
        "notice": "Users can withdraw during Active or Bootstrapping phases"
      }
    },
    "notice": "This contract handles the core streaming logic including subscriptions, withdrawals, exits, and finalization",
    "version": 1
  },
  "storageLayout": {
    "storage": [
      {
        "astId": 9370,
        "contract": "src/Stream.sol:Stream",
        "label": "creator",
        "offset": 0,
        "slot": "0",
        "type": "t_address"
      },
      {
        "astId": 9376,
        "contract": "src/Stream.sol:Stream",
        "label": "positionStorageAddress",
        "offset": 0,
        "slot": "1",
        "type": "t_address"
      },
      {
        "astId": 9379,
        "contract": "src/Stream.sol:Stream",
        "label": "initialized",
        "offset": 20,
        "slot": "1",
        "type": "t_bool"
      },
      {
        "astId": 9383,
        "contract": "src/Stream.sol:Stream",
        "label": "streamState",
        "offset": 0,
        "slot": "2",
        "type": "t_struct(StreamState)15542_storage"
      },
      {
        "astId": 9387,
        "contract": "src/Stream.sol:Stream",
        "label": "streamTokens",
        "offset": 0,
        "slot": "11",
        "type": "t_struct(StreamTokens)15547_storage"
      },
      {
        "astId": 9391,
        "contract": "src/Stream.sol:Stream",
        "label": "streamMetadata",
        "offset": 0,
        "slot": "13",
        "type": "t_struct(StreamMetadata)15521_storage"
      },
      {
        "astId": 9395,
        "contract": "src/Stream.sol:Stream",
        "label": "streamStatus",
        "offset": 0,
        "slot": "14",
        "type": "t_enum(Status)15476"
      },
      {
        "astId": 9399,
        "contract": "src/Stream.sol:Stream",
        "label": "streamTimes",
        "offset": 0,
        "slot": "15",
        "type": "t_struct(StreamTimes)15518_storage"
      },
      {
        "astId": 9403,
        "contract": "src/Stream.sol:Stream",
        "label": "postStreamActions",
        "offset": 0,
        "slot": "18",
        "type": "t_struct(PostStreamActions)15568_storage"
      }
    ],
    "types": {
      "t_address": {
        "encoding": "inplace",
        "label": "address",
        "numberOfBytes": "20"
      },
      "t_bool": {
        "encoding": "inplace",
        "label": "bool",
        "numberOfBytes": "1"
      },
      "t_enum(DexType)15480": {
        "encoding": "inplace",
        "label": "enum StreamTypes.DexType",
        "numberOfBytes": "1"
      },
      "t_enum(Status)15476": {
        "encoding": "inplace",
        "label": "enum StreamTypes.Status",
        "numberOfBytes": "1"
      },
      "t_string_storage": {
        "encoding": "bytes",
        "label": "string",
        "numberOfBytes": "32"
      },
      "t_struct(Decimal)14403_storage": {
        "encoding": "inplace",
        "label": "struct Decimal",
        "members": [
          {
            "astId": 14402,
            "contract": "src/Stream.sol:Stream",
            "label": "value",
            "offset": 0,
            "slot": "0",
            "type": "t_uint256"
          }
        ],
        "numberOfBytes": "32"
      },
      "t_struct(PoolInfo)15558_storage": {
        "encoding": "inplace",
        "label": "struct StreamTypes.PoolInfo",
        "members": [
          {
            "astId": 15554,
            "contract": "src/Stream.sol:Stream",
            "label": "poolOutSupplyAmount",
            "offset": 0,
            "slot": "0",
            "type": "t_uint256"
          },
          {
            "astId": 15557,
            "contract": "src/Stream.sol:Stream",
            "label": "dexType",
            "offset": 0,
            "slot": "1",
            "type": "t_enum(DexType)15480"
          }
        ],
        "numberOfBytes": "64"
      },
      "t_struct(PostStreamActions)15568_storage": {
        "encoding": "inplace",
        "label": "struct StreamTypes.PostStreamActions",
        "members": [
          {
            "astId": 15561,
            "contract": "src/Stream.sol:Stream",
            "label": "poolInfo",
            "offset": 0,
            "slot": "0",
            "type": "t_struct(PoolInfo)15558_storage"
          },
          {
            "astId": 15564,
            "contract": "src/Stream.sol:Stream",
            "label": "creatorVesting",
            "offset": 0,
            "slot": "2",
            "type": "t_struct(VestingInfo)15552_storage"
          },
          {
            "astId": 15567,
            "contract": "src/Stream.sol:Stream",
            "label": "beneficiaryVesting",
            "offset": 0,
            "slot": "3",
            "type": "t_struct(VestingInfo)15552_storage"
          }
        ],
        "numberOfBytes": "128"
      },
      "t_struct(StreamMetadata)15521_storage": {
        "encoding": "inplace",
        "label": "struct StreamTypes.StreamMetadata",
        "members": [
          {
            "astId": 15520,
            "contract": "src/Stream.sol:Stream",
            "label": "ipfsHash",
            "offset": 0,
            "slot": "0",
            "type": "t_string_storage"
          }
        ],
        "numberOfBytes": "32"
      },
      "t_struct(StreamState)15542_storage": {
        "encoding": "inplace",
        "label": "struct StreamTypes.StreamState",
        "members": [
          {
            "astId": 15523,
            "contract": "src/Stream.sol:Stream",
            "label": "outRemaining",
            "offset": 0,
            "slot": "0",
            "type": "t_uint256"
          },
          {
            "astId": 15526,
            "contract": "src/Stream.sol:Stream",
            "label": "distIndex",
            "offset": 0,
            "slot": "1",
            "type": "t_struct(Decimal)14403_storage"
          },
          {
            "astId": 15528,
            "contract": "src/Stream.sol:Stream",
            "label": "spentIn",
            "offset": 0,
            "slot": "2",
            "type": "t_uint256"
          },
          {
            "astId": 15530,
            "contract": "src/Stream.sol:Stream",
            "label": "shares",
            "offset": 0,
            "slot": "3",
            "type": "t_uint256"
          },
          {
            "astId": 15533,
            "contract": "src/Stream.sol:Stream",
            "label": "currentStreamedPrice",
            "offset": 0,
            "slot": "4",
            "type": "t_struct(Decimal)14403_storage"
          },
          {
            "astId": 15535,
            "contract": "src/Stream.sol:Stream",
            "label": "threshold",
            "offset": 0,
            "slot": "5",
            "type": "t_uint256"
          },
          {
            "astId": 15537,
            "contract": "src/Stream.sol:Stream",
            "label": "inSupply",
            "offset": 0,
            "slot": "6",
            "type": "t_uint256"
          },
          {
            "astId": 15539,
            "contract": "src/Stream.sol:Stream",
            "label": "outSupply",
            "offset": 0,
            "slot": "7",
            "type": "t_uint256"
          },
          {
            "astId": 15541,
            "contract": "src/Stream.sol:Stream",
            "label": "lastUpdated",
            "offset": 0,
            "slot": "8",
            "type": "t_uint256"
          }
        ],
        "numberOfBytes": "288"
      },
      "t_struct(StreamTimes)15518_storage": {
        "encoding": "inplace",
        "label": "struct StreamTypes.StreamTimes",
        "members": [
          {
            "astId": 15513,
            "contract": "src/Stream.sol:Stream",
            "label": "bootstrappingStartTime",
            "offset": 0,
            "slot": "0",
            "type": "t_uint256"
          },
          {
            "astId": 15515,
            "contract": "src/Stream.sol:Stream",
            "label": "streamStartTime",
            "offset": 0,
            "slot": "1",
            "type": "t_uint256"
          },
          {
            "astId": 15517,
            "contract": "src/Stream.sol:Stream",
            "label": "streamEndTime",
            "offset": 0,
            "slot": "2",
            "type": "t_uint256"
          }
        ],
        "numberOfBytes": "96"
      },
      "t_struct(StreamTokens)15547_storage": {
        "encoding": "inplace",
        "label": "struct StreamTypes.StreamTokens",
        "members": [
          {
            "astId": 15544,
            "contract": "src/Stream.sol:Stream",
            "label": "inSupplyToken",
            "offset": 0,
            "slot": "0",
            "type": "t_address"
          },
          {
            "astId": 15546,
            "contract": "src/Stream.sol:Stream",
            "label": "outSupplyToken",
            "offset": 0,
            "slot": "1",
            "type": "t_address"
          }
        ],
        "numberOfBytes": "64"
      },
      "t_struct(VestingInfo)15552_storage": {
        "encoding": "inplace",
        "label": "struct StreamTypes.VestingInfo",
        "members": [
          {
            "astId": 15549,
            "contract": "src/Stream.sol:Stream",
            "label": "isVestingEnabled",
            "offset": 0,
            "slot": "0",
            "type": "t_bool"
          },
          {
            "astId": 15551,
            "contract": "src/Stream.sol:Stream",
            "label": "vestingDuration",
            "offset": 1,
            "slot": "0",
            "type": "t_uint64"
          }
        ],
        "numberOfBytes": "32"
      },
      "t_uint256": {
        "encoding": "inplace",
        "label": "uint256",
        "numberOfBytes": "32"
      },
      "t_uint64": {
        "encoding": "inplace",
        "label": "uint64",
        "numberOfBytes": "8"
      }
    }
  }
}