{
  "address": "0xeDAe9e59Ec92d3431585c5657aD2a343ade16308",
  "abi": [
    {
      "inputs": [
        {
          "internalType": "uint256",
          "name": "expected",
          "type": "uint256"
        },
        {
          "internalType": "uint256",
          "name": "actual",
          "type": "uint256"
        }
      ],
      "name": "IncorrectNativeAmount",
      "type": "error"
    },
    {
      "inputs": [],
      "name": "InsufficientOutAmount",
      "type": "error"
    },
    {
      "inputs": [
        {
          "internalType": "uint256",
          "name": "requiredTokenAmount",
          "type": "uint256"
        },
        {
          "internalType": "uint256",
          "name": "tokenBalance",
          "type": "uint256"
        }
      ],
      "name": "InsufficientTokenPayment",
      "type": "error"
    },
    {
      "inputs": [],
      "name": "InvalidAmount",
      "type": "error"
    },
    {
      "inputs": [],
      "name": "InvalidDexType",
      "type": "error"
    },
    {
      "inputs": [],
      "name": "InvalidExitCondition",
      "type": "error"
    },
    {
      "inputs": [],
      "name": "InvalidImplementationAddress",
      "type": "error"
    },
    {
      "inputs": [],
      "name": "InvalidInSupplyToken",
      "type": "error"
    },
    {
      "inputs": [],
      "name": "InvalidInputToken",
      "type": "error"
    },
    {
      "inputs": [
        {
          "internalType": "address",
          "name": "from",
          "type": "address"
        }
      ],
      "name": "InvalidNativePayer",
      "type": "error"
    },
    {
      "inputs": [],
      "name": "InvalidOutSupplyToken",
      "type": "error"
    },
    {
      "inputs": [],
      "name": "InvalidPoolOutSupplyAmount",
      "type": "error"
    },
    {
      "inputs": [],
      "name": "InvalidPoolType",
      "type": "error"
    },
    {
      "inputs": [
        {
          "internalType": "address",
          "name": "user",
          "type": "address"
        },
        {
          "internalType": "uint256",
          "name": "shares",
          "type": "uint256"
        },
        {
          "internalType": "uint256",
          "name": "exitDate",
          "type": "uint256"
        },
        {
          "internalType": "string",
          "name": "reason",
          "type": "string"
        }
      ],
      "name": "InvalidPosition",
      "type": "error"
    },
    {
      "inputs": [],
      "name": "InvalidPositionStorageAddress",
      "type": "error"
    },
    {
      "inputs": [],
      "name": "InvalidStreamFactoryAddress",
      "type": "error"
    },
    {
      "inputs": [],
      "name": "InvalidVestingCliffDuration",
      "type": "error"
    },
    {
      "inputs": [],
      "name": "InvalidVestingDuration",
      "type": "error"
    },
    {
      "inputs": [],
      "name": "InvalidWithdrawAmount",
      "type": "error"
    },
    {
      "inputs": [],
      "name": "NativeTokenTransferFailed",
      "type": "error"
    },
    {
      "inputs": [],
      "name": "OperationNotAllowed",
      "type": "error"
    },
    {
      "inputs": [],
      "name": "PaymentFailed",
      "type": "error"
    },
    {
      "inputs": [],
      "name": "SameInputAndOutputToken",
      "type": "error"
    },
    {
      "inputs": [],
      "name": "StreamFactoryAddressAlreadySet",
      "type": "error"
    },
    {
      "inputs": [],
      "name": "Unauthorized",
      "type": "error"
    },
    {
      "inputs": [
        {
          "internalType": "uint256",
          "name": "cap",
          "type": "uint256"
        }
      ],
      "name": "WithdrawAmountExceedsBalance",
      "type": "error"
    },
    {
      "anonymous": false,
      "inputs": [
        {
          "indexed": false,
          "internalType": "address",
          "name": "previousAdmin",
          "type": "address"
        },
        {
          "indexed": false,
          "internalType": "address",
          "name": "newAdmin",
          "type": "address"
        }
      ],
      "name": "AdminChanged",
      "type": "event"
    },
    {
      "anonymous": false,
      "inputs": [
        {
          "indexed": true,
          "internalType": "address",
          "name": "beacon",
          "type": "address"
        }
      ],
      "name": "BeaconUpgraded",
      "type": "event"
    },
    {
      "anonymous": false,
      "inputs": [
        {
          "indexed": true,
          "internalType": "address",
          "name": "beneficiary",
          "type": "address"
        },
        {
          "indexed": false,
          "internalType": "address",
          "name": "vestingAddress",
          "type": "address"
        },
        {
          "indexed": false,
          "internalType": "uint64",
          "name": "vestingDuration",
          "type": "uint64"
        },
        {
          "indexed": false,
          "internalType": "address",
          "name": "token",
          "type": "address"
        },
        {
          "indexed": false,
          "internalType": "uint256",
          "name": "amount",
          "type": "uint256"
        }
      ],
      "name": "BeneficiaryVestingCreated",
      "type": "event"
    },
    {
      "anonymous": false,
      "inputs": [
        {
          "indexed": true,
          "internalType": "address",
          "name": "creator",
          "type": "address"
        },
        {
          "indexed": false,
          "internalType": "address",
          "name": "vestingAddress",
          "type": "address"
        },
        {
          "indexed": false,
          "internalType": "uint256",
          "name": "vestingDuration",
          "type": "uint256"
        },
        {
          "indexed": false,
          "internalType": "address",
          "name": "token",
          "type": "address"
        },
        {
          "indexed": false,
          "internalType": "uint256",
          "name": "amount",
          "type": "uint256"
        }
      ],
      "name": "CreatorVestingCreated",
      "type": "event"
    },
    {
      "anonymous": false,
      "inputs": [
        {
          "indexed": true,
          "internalType": "address",
          "name": "streamAddress",
          "type": "address"
        },
        {
          "indexed": true,
          "internalType": "address",
          "name": "subscriber",
          "type": "address"
        },
        {
          "indexed": false,
          "internalType": "uint256",
          "name": "inBalance",
          "type": "uint256"
        },
        {
          "indexed": false,
          "internalType": "uint256",
          "name": "spentIn",
          "type": "uint256"
        },
        {
          "indexed": false,
          "internalType": "uint256",
          "name": "exitTimestamp",
          "type": "uint256"
        }
      ],
      "name": "ExitRefunded",
      "type": "event"
    },
    {
      "anonymous": false,
      "inputs": [
        {
          "indexed": true,
          "internalType": "address",
          "name": "streamAddress",
          "type": "address"
        },
        {
          "indexed": true,
          "internalType": "address",
          "name": "subscriber",
          "type": "address"
        },
        {
          "indexed": false,
          "internalType": "uint256",
          "name": "purchased",
          "type": "uint256"
        },
        {
          "indexed": false,
          "internalType": "uint256",
          "name": "spentIn",
          "type": "uint256"
        },
        {
          "indexed": false,
          "internalType": "uint256",
          "name": "index",
          "type": "uint256"
        },
        {
          "indexed": false,
          "internalType": "uint256",
          "name": "inBalance",
          "type": "uint256"
        },
        {
          "indexed": false,
          "internalType": "uint256",
          "name": "exitTimestamp",
          "type": "uint256"
        }
      ],
      "name": "ExitStreamed",
      "type": "event"
    },
    {
      "anonymous": false,
      "inputs": [
        {
          "indexed": true,
          "internalType": "address",
          "name": "streamAddress",
          "type": "address"
        },
        {
          "indexed": true,
          "internalType": "address",
          "name": "creator",
          "type": "address"
        },
        {
          "indexed": false,
          "internalType": "uint256",
          "name": "refundedOutAmount",
          "type": "uint256"
        }
      ],
      "name": "FinalizedRefunded",
      "type": "event"
    },
    {
      "anonymous": false,
      "inputs": [
        {
          "indexed": true,
          "internalType": "address",
          "name": "streamAddress",
          "type": "address"
        },
        {
          "indexed": true,
          "internalType": "address",
          "name": "creator",
          "type": "address"
        },
        {
          "indexed": false,
          "internalType": "uint256",
          "name": "creatorRevenue",
          "type": "uint256"
        },
        {
          "indexed": false,
          "internalType": "uint256",
          "name": "exitFeeAmount",
          "type": "uint256"
        },
        {
          "indexed": false,
          "internalType": "uint256",
          "name": "refundedOutAmount",
          "type": "uint256"
        }
      ],
      "name": "FinalizedStreamed",
      "type": "event"
    },
    {
      "anonymous": false,
      "inputs": [
        {
          "indexed": true,
          "internalType": "address",
          "name": "streamAddress",
          "type": "address"
        },
        {
          "indexed": true,
          "internalType": "address",
          "name": "poolAddress",
          "type": "address"
        },
        {
          "indexed": false,
          "internalType": "address",
          "name": "token0",
          "type": "address"
        },
        {
          "indexed": false,
          "internalType": "address",
          "name": "token1",
          "type": "address"
        },
        {
          "indexed": false,
          "internalType": "uint256",
          "name": "amount0",
          "type": "uint256"
        },
        {
          "indexed": false,
          "internalType": "uint256",
          "name": "amount1",
          "type": "uint256"
        },
        {
          "indexed": false,
          "internalType": "uint256",
          "name": "refundedAmount0",
          "type": "uint256"
        },
        {
          "indexed": false,
          "internalType": "uint256",
          "name": "refundedAmount1",
          "type": "uint256"
        },
        {
          "indexed": true,
          "internalType": "address",
          "name": "creator",
          "type": "address"
        }
      ],
      "name": "PoolCreated",
      "type": "event"
    },
    {
      "anonymous": false,
      "inputs": [
        {
          "indexed": true,
          "internalType": "address",
          "name": "streamAddress",
          "type": "address"
        },
        {
          "indexed": true,
          "internalType": "address",
          "name": "subscriber",
          "type": "address"
        },
        {
          "indexed": false,
          "internalType": "uint256",
          "name": "positionInBalance",
          "type": "uint256"
        },
        {
          "indexed": false,
          "internalType": "uint256",
          "name": "positionShares",
          "type": "uint256"
        },
        {
          "indexed": false,
          "internalType": "uint256",
          "name": "positionLastUpdateTime",
          "type": "uint256"
        },
        {
          "indexed": false,
          "internalType": "uint256",
          "name": "positionSpentIn",
          "type": "uint256"
        },
        {
          "indexed": false,
          "internalType": "uint256",
          "name": "positionPurchased",
          "type": "uint256"
        },
        {
          "indexed": false,
          "internalType": "uint256",
          "name": "positionIndex",
          "type": "uint256"
        }
      ],
      "name": "PositionSynced",
      "type": "event"
    },
    {
      "anonymous": false,
      "inputs": [
        {
          "indexed": true,
          "internalType": "address",
          "name": "streamAddress",
          "type": "address"
        },
        {
          "indexed": false,
          "internalType": "address",
          "name": "creator",
          "type": "address"
        },
        {
          "indexed": false,
          "internalType": "uint256",
          "name": "outSupply",
          "type": "uint256"
        },
        {
          "indexed": false,
          "internalType": "uint8",
          "name": "status",
          "type": "uint8"
        }
      ],
      "name": "StreamCancelled",
      "type": "event"
    },
    {
      "anonymous": false,
      "inputs": [
        {
          "indexed": true,
          "internalType": "address",
          "name": "streamAddress",
          "type": "address"
        },
        {
          "indexed": false,
          "internalType": "string",
          "name": "metadataIpfsHash",
          "type": "string"
        }
      ],
      "name": "StreamMetadataUpdated",
      "type": "event"
    },
    {
      "anonymous": false,
      "inputs": [
        {
          "indexed": true,
          "internalType": "address",
          "name": "streamAddress",
          "type": "address"
        },
        {
          "indexed": false,
          "internalType": "uint256",
          "name": "lastUpdated",
          "type": "uint256"
        },
        {
          "indexed": false,
          "internalType": "uint256",
          "name": "distIndex",
          "type": "uint256"
        },
        {
          "indexed": false,
          "internalType": "uint256",
          "name": "outRemaining",
          "type": "uint256"
        },
        {
          "indexed": false,
          "internalType": "uint256",
          "name": "inSupply",
          "type": "uint256"
        },
        {
          "indexed": false,
          "internalType": "uint256",
          "name": "spentIn",
          "type": "uint256"
        },
        {
          "indexed": false,
          "internalType": "uint256",
          "name": "currentStreamedPrice",
          "type": "uint256"
        }
      ],
      "name": "StreamStateUpdated",
      "type": "event"
    },
    {
      "anonymous": false,
      "inputs": [
        {
          "indexed": true,
          "internalType": "address",
          "name": "streamAddress",
          "type": "address"
        },
        {
          "indexed": false,
          "internalType": "uint256",
          "name": "lastUpdated",
          "type": "uint256"
        },
        {
          "indexed": false,
          "internalType": "uint8",
          "name": "newStatus",
          "type": "uint8"
        },
        {
          "indexed": false,
          "internalType": "uint256",
          "name": "distIndex",
          "type": "uint256"
        },
        {
          "indexed": false,
          "internalType": "uint256",
          "name": "outRemaining",
          "type": "uint256"
        },
        {
          "indexed": false,
          "internalType": "uint256",
          "name": "inSupply",
          "type": "uint256"
        },
        {
          "indexed": false,
          "internalType": "uint256",
          "name": "spentIn",
          "type": "uint256"
        },
        {
          "indexed": false,
          "internalType": "uint256",
          "name": "currentStreamedPrice",
          "type": "uint256"
        }
      ],
      "name": "StreamSynced",
      "type": "event"
    },
    {
      "anonymous": false,
      "inputs": [
        {
          "indexed": true,
          "internalType": "address",
          "name": "streamAddress",
          "type": "address"
        },
        {
          "indexed": true,
          "internalType": "address",
          "name": "subscriber",
          "type": "address"
        },
        {
          "indexed": false,
          "internalType": "uint256",
          "name": "positionInBalance",
          "type": "uint256"
        },
        {
          "indexed": false,
          "internalType": "uint256",
          "name": "positionShares",
          "type": "uint256"
        },
        {
          "indexed": false,
          "internalType": "uint256",
          "name": "positionLastUpdateTime",
          "type": "uint256"
        },
        {
          "indexed": false,
          "internalType": "uint256",
          "name": "positionSpentIn",
          "type": "uint256"
        },
        {
          "indexed": false,
          "internalType": "uint256",
          "name": "positionPurchased",
          "type": "uint256"
        },
        {
          "indexed": false,
          "internalType": "uint256",
          "name": "positionIndex",
          "type": "uint256"
        },
        {
          "indexed": false,
          "internalType": "uint256",
          "name": "streamInSupply",
          "type": "uint256"
        },
        {
          "indexed": false,
          "internalType": "uint256",
          "name": "streamShares",
          "type": "uint256"
        }
      ],
      "name": "Subscribed",
      "type": "event"
    },
    {
      "anonymous": false,
      "inputs": [
        {
          "indexed": true,
          "internalType": "address",
          "name": "implementation",
          "type": "address"
        }
      ],
      "name": "Upgraded",
      "type": "event"
    },
    {
      "anonymous": false,
      "inputs": [
        {
          "indexed": true,
          "internalType": "address",
          "name": "streamAddress",
          "type": "address"
        },
        {
          "indexed": true,
          "internalType": "address",
          "name": "subscriber",
          "type": "address"
        },
        {
          "indexed": false,
          "internalType": "uint256",
          "name": "positionInBalance",
          "type": "uint256"
        },
        {
          "indexed": false,
          "internalType": "uint256",
          "name": "positionShares",
          "type": "uint256"
        },
        {
          "indexed": false,
          "internalType": "uint256",
          "name": "positionLastUpdateTime",
          "type": "uint256"
        },
        {
          "indexed": false,
          "internalType": "uint256",
          "name": "positionSpentIn",
          "type": "uint256"
        },
        {
          "indexed": false,
          "internalType": "uint256",
          "name": "positionPurchased",
          "type": "uint256"
        },
        {
          "indexed": false,
          "internalType": "uint256",
          "name": "positionIndex",
          "type": "uint256"
        },
        {
          "indexed": false,
          "internalType": "uint256",
          "name": "streamInSupply",
          "type": "uint256"
        },
        {
          "indexed": false,
          "internalType": "uint256",
          "name": "streamShares",
          "type": "uint256"
        }
      ],
      "name": "Withdrawn",
      "type": "event"
    },
    {
      "inputs": [],
      "name": "PERMIT2",
      "outputs": [
        {
          "internalType": "address",
          "name": "",
          "type": "address"
        }
      ],
      "stateMutability": "view",
      "type": "function"
    },
    {
      "inputs": [],
      "name": "STREAM_FACTORY_ADDRESS",
      "outputs": [
        {
          "internalType": "address",
          "name": "",
          "type": "address"
        }
      ],
      "stateMutability": "view",
      "type": "function"
    },
    {
      "inputs": [],
      "name": "VARIANT",
      "outputs": [
        {
          "internalType": "string",
          "name": "",
          "type": "string"
        }
      ],
      "stateMutability": "view",
      "type": "function"
    },
    {
      "inputs": [],
      "name": "VERSION",
      "outputs": [
        {
          "internalType": "string",
          "name": "",
          "type": "string"
        }
      ],
      "stateMutability": "view",
      "type": "function"
    },
    {
      "inputs": [],
      "name": "cancelStream",
      "outputs": [],
      "stateMutability": "nonpayable",
      "type": "function"
    },
    {
      "inputs": [],
      "name": "cancelWithAdmin",
      "outputs": [],
      "stateMutability": "nonpayable",
      "type": "function"
    },
    {
      "inputs": [],
      "name": "creator",
      "outputs": [
        {
          "internalType": "address",
          "name": "",
          "type": "address"
        }
      ],
      "stateMutability": "view",
      "type": "function"
    },
    {
      "inputs": [],
      "name": "exitStream",
      "outputs": [],
      "stateMutability": "nonpayable",
      "type": "function"
    },
    {
      "inputs": [],
      "name": "finalizeStream",
      "outputs": [],
      "stateMutability": "nonpayable",
      "type": "function"
    },
    {
      "inputs": [
        {
          "internalType": "address",
          "name": "user",
          "type": "address"
        }
      ],
      "name": "getPosition",
      "outputs": [
        {
          "components": [
            {
              "internalType": "uint256",
              "name": "inBalance",
              "type": "uint256"
            },
            {
              "internalType": "uint256",
              "name": "shares",
              "type": "uint256"
            },
            {
              "components": [
                {
                  "internalType": "uint256",
                  "name": "value",
                  "type": "uint256"
                }
              ],
              "internalType": "struct Decimal",
              "name": "index",
              "type": "tuple"
            },
            {
              "internalType": "uint256",
              "name": "lastUpdateTime",
              "type": "uint256"
            },
            {
              "components": [
                {
                  "internalType": "uint256",
                  "name": "value",
                  "type": "uint256"
                }
              ],
              "internalType": "struct Decimal",
              "name": "pendingReward",
              "type": "tuple"
            },
            {
              "internalType": "uint256",
              "name": "spentIn",
              "type": "uint256"
            },
            {
              "internalType": "uint256",
              "name": "purchased",
              "type": "uint256"
            },
            {
              "internalType": "uint256",
              "name": "exitDate",
              "type": "uint256"
            }
          ],
          "internalType": "struct PositionTypes.Position",
          "name": "",
          "type": "tuple"
        }
      ],
      "stateMutability": "view",
      "type": "function"
    },
    {
      "inputs": [],
      "name": "getPostStreamActions",
      "outputs": [
        {
          "components": [
            {
              "components": [
                {
                  "internalType": "uint256",
                  "name": "poolOutSupplyAmount",
                  "type": "uint256"
                },
                {
                  "internalType": "enum StreamTypes.DexType",
                  "name": "dexType",
                  "type": "uint8"
                },
                {
                  "internalType": "bytes",
                  "name": "extra",
                  "type": "bytes"
                }
              ],
              "internalType": "struct StreamTypes.PoolInfo",
              "name": "poolInfo",
              "type": "tuple"
            },
            {
              "components": [
                {
                  "internalType": "bool",
                  "name": "isVestingEnabled",
                  "type": "bool"
                },
                {
                  "internalType": "uint64",
                  "name": "vestingDuration",
                  "type": "uint64"
                }
              ],
              "internalType": "struct StreamTypes.VestingInfo",
              "name": "creatorVesting",
              "type": "tuple"
            },
            {
              "components": [
                {
                  "internalType": "bool",
                  "name": "isVestingEnabled",
                  "type": "bool"
                },
                {
                  "internalType": "uint64",
                  "name": "vestingDuration",
                  "type": "uint64"
                }
              ],
              "internalType": "struct StreamTypes.VestingInfo",
              "name": "beneficiaryVesting",
              "type": "tuple"
            }
          ],
          "internalType": "struct StreamTypes.PostStreamActions",
          "name": "",
          "type": "tuple"
        }
      ],
      "stateMutability": "view",
      "type": "function"
    },
    {
      "inputs": [],
      "name": "getStreamMetadata",
      "outputs": [
        {
          "components": [
            {
              "internalType": "string",
              "name": "ipfsHash",
              "type": "string"
            }
          ],
          "internalType": "struct StreamTypes.StreamMetadata",
          "name": "",
          "type": "tuple"
        }
      ],
      "stateMutability": "view",
      "type": "function"
    },
    {
      "inputs": [],
      "name": "getStreamState",
      "outputs": [
        {
          "components": [
            {
              "internalType": "uint256",
              "name": "outRemaining",
              "type": "uint256"
            },
            {
              "components": [
                {
                  "internalType": "uint256",
                  "name": "value",
                  "type": "uint256"
                }
              ],
              "internalType": "struct Decimal",
              "name": "distIndex",
              "type": "tuple"
            },
            {
              "internalType": "uint256",
              "name": "spentIn",
              "type": "uint256"
            },
            {
              "internalType": "uint256",
              "name": "shares",
              "type": "uint256"
            },
            {
              "components": [
                {
                  "internalType": "uint256",
                  "name": "value",
                  "type": "uint256"
                }
              ],
              "internalType": "struct Decimal",
              "name": "currentStreamedPrice",
              "type": "tuple"
            },
            {
              "internalType": "uint256",
              "name": "threshold",
              "type": "uint256"
            },
            {
              "internalType": "uint256",
              "name": "inSupply",
              "type": "uint256"
            },
            {
              "internalType": "uint256",
              "name": "outSupply",
              "type": "uint256"
            },
            {
              "internalType": "uint256",
              "name": "lastUpdated",
              "type": "uint256"
            }
          ],
          "internalType": "struct StreamTypes.StreamState",
          "name": "",
          "type": "tuple"
        }
      ],
      "stateMutability": "view",
      "type": "function"
    },
    {
      "inputs": [],
      "name": "getStreamStatus",
      "outputs": [
        {
          "internalType": "enum StreamTypes.Status",
          "name": "",
          "type": "uint8"
        }
      ],
      "stateMutability": "view",
      "type": "function"
    },
    {
      "inputs": [],
      "name": "implementation",
      "outputs": [
        {
          "internalType": "string",
          "name": "",
          "type": "string"
        }
      ],
      "stateMutability": "pure",
      "type": "function"
    },
    {
      "inputs": [
        {
          "components": [
            {
              "internalType": "address",
              "name": "creator",
              "type": "address"
            },
            {
              "internalType": "address",
              "name": "inSupplyToken",
              "type": "address"
            },
            {
              "internalType": "address",
              "name": "outSupplyToken",
              "type": "address"
            },
            {
              "internalType": "uint256",
              "name": "streamOutAmount",
              "type": "uint256"
            },
            {
              "internalType": "uint256",
              "name": "threshold",
              "type": "uint256"
            },
            {
              "internalType": "uint256",
              "name": "bootstrappingStartTime",
              "type": "uint256"
            },
            {
              "internalType": "uint256",
              "name": "streamStartTime",
              "type": "uint256"
            },
            {
              "internalType": "uint256",
              "name": "streamEndTime",
              "type": "uint256"
            },
            {
              "components": [
                {
                  "internalType": "string",
                  "name": "ipfsHash",
                  "type": "string"
                }
              ],
              "internalType": "struct StreamTypes.StreamMetadata",
              "name": "metadata",
              "type": "tuple"
            },
            {
              "components": [
                {
                  "internalType": "bool",
                  "name": "isVestingEnabled",
                  "type": "bool"
                },
                {
                  "internalType": "uint64",
                  "name": "vestingDuration",
                  "type": "uint64"
                }
              ],
              "internalType": "struct StreamTypes.VestingInfo",
              "name": "creatorVesting",
              "type": "tuple"
            },
            {
              "components": [
                {
                  "internalType": "bool",
                  "name": "isVestingEnabled",
                  "type": "bool"
                },
                {
                  "internalType": "uint64",
                  "name": "vestingDuration",
                  "type": "uint64"
                }
              ],
              "internalType": "struct StreamTypes.VestingInfo",
              "name": "beneficiaryVesting",
              "type": "tuple"
            },
            {
              "components": [
                {
                  "internalType": "uint256",
                  "name": "poolOutSupplyAmount",
                  "type": "uint256"
                },
                {
                  "internalType": "enum StreamTypes.DexType",
                  "name": "dexType",
                  "type": "uint8"
                },
                {
                  "internalType": "bytes",
                  "name": "extra",
                  "type": "bytes"
                }
              ],
              "internalType": "struct StreamTypes.PoolInfo",
              "name": "poolInfo",
              "type": "tuple"
            },
            {
              "internalType": "string",
              "name": "tosVersion",
              "type": "string"
            },
            {
              "internalType": "bytes32",
              "name": "whitelistRoot",
              "type": "bytes32"
            }
          ],
          "internalType": "struct StreamTypes.CreateStreamMessage",
          "name": "createStreamMessage",
          "type": "tuple"
        },
        {
          "internalType": "address",
          "name": "storageAddress",
          "type": "address"
        }
      ],
      "name": "initialize",
      "outputs": [],
      "stateMutability": "nonpayable",
      "type": "function"
    },
    {
      "inputs": [],
      "name": "positionStorageAddress",
      "outputs": [
        {
          "internalType": "address",
          "name": "",
          "type": "address"
        }
      ],
      "stateMutability": "view",
      "type": "function"
    },
    {
      "inputs": [],
      "name": "proxiableUUID",
      "outputs": [
        {
          "internalType": "bytes32",
          "name": "",
          "type": "bytes32"
        }
      ],
      "stateMutability": "view",
      "type": "function"
    },
    {
      "inputs": [],
      "name": "streamMetadata",
      "outputs": [
        {
          "internalType": "string",
          "name": "ipfsHash",
          "type": "string"
        }
      ],
      "stateMutability": "view",
      "type": "function"
    },
    {
      "inputs": [],
      "name": "streamState",
      "outputs": [
        {
          "internalType": "uint256",
          "name": "outRemaining",
          "type": "uint256"
        },
        {
          "components": [
            {
              "internalType": "uint256",
              "name": "value",
              "type": "uint256"
            }
          ],
          "internalType": "struct Decimal",
          "name": "distIndex",
          "type": "tuple"
        },
        {
          "internalType": "uint256",
          "name": "spentIn",
          "type": "uint256"
        },
        {
          "internalType": "uint256",
          "name": "shares",
          "type": "uint256"
        },
        {
          "components": [
            {
              "internalType": "uint256",
              "name": "value",
              "type": "uint256"
            }
          ],
          "internalType": "struct Decimal",
          "name": "currentStreamedPrice",
          "type": "tuple"
        },
        {
          "internalType": "uint256",
          "name": "threshold",
          "type": "uint256"
        },
        {
          "internalType": "uint256",
          "name": "inSupply",
          "type": "uint256"
        },
        {
          "internalType": "uint256",
          "name": "outSupply",
          "type": "uint256"
        },
        {
          "internalType": "uint256",
          "name": "lastUpdated",
          "type": "uint256"
        }
      ],
      "stateMutability": "view",
      "type": "function"
    },
    {
      "inputs": [],
      "name": "streamStatus",
      "outputs": [
        {
          "internalType": "enum StreamTypes.Status",
          "name": "",
          "type": "uint8"
        }
      ],
      "stateMutability": "view",
      "type": "function"
    },
    {
      "inputs": [],
      "name": "streamTimes",
      "outputs": [
        {
          "internalType": "uint256",
          "name": "bootstrappingStartTime",
          "type": "uint256"
        },
        {
          "internalType": "uint256",
          "name": "streamStartTime",
          "type": "uint256"
        },
        {
          "internalType": "uint256",
          "name": "streamEndTime",
          "type": "uint256"
        }
      ],
      "stateMutability": "view",
      "type": "function"
    },
    {
      "inputs": [],
      "name": "streamTokens",
      "outputs": [
        {
          "internalType": "address",
          "name": "inSupplyToken",
          "type": "address"
        },
        {
          "internalType": "address",
          "name": "outSupplyToken",
          "type": "address"
        }
      ],
      "stateMutability": "view",
      "type": "function"
    },
    {
      "inputs": [
        {
          "internalType": "uint256",
          "name": "amountIn",
          "type": "uint256"
        },
        {
          "internalType": "bytes32[]",
          "name": "merkleProof",
          "type": "bytes32[]"
        }
      ],
      "name": "subscribe",
      "outputs": [],
      "stateMutability": "nonpayable",
      "type": "function"
    },
    {
      "inputs": [
        {
          "internalType": "uint256",
          "name": "amountIn",
          "type": "uint256"
        },
        {
          "internalType": "bytes32[]",
          "name": "merkleProof",
          "type": "bytes32[]"
        }
      ],
      "name": "subscribeWithNativeToken",
      "outputs": [],
      "stateMutability": "payable",
      "type": "function"
    },
    {
      "inputs": [
        {
          "internalType": "uint256",
          "name": "amountIn",
          "type": "uint256"
        },
        {
          "internalType": "address",
          "name": "owner",
          "type": "address"
        },
        {
          "components": [
            {
              "components": [
                {
                  "internalType": "address",
                  "name": "token",
                  "type": "address"
                },
                {
                  "internalType": "uint160",
                  "name": "amount",
                  "type": "uint160"
                },
                {
                  "internalType": "uint48",
                  "name": "expiration",
                  "type": "uint48"
                },
                {
                  "internalType": "uint48",
                  "name": "nonce",
                  "type": "uint48"
                }
              ],
              "internalType": "struct IPermit2.PermitDetails",
              "name": "details",
              "type": "tuple"
            },
            {
              "internalType": "address",
              "name": "spender",
              "type": "address"
            },
            {
              "internalType": "uint256",
              "name": "sigDeadline",
              "type": "uint256"
            }
          ],
          "internalType": "struct IPermit2.PermitSingle",
          "name": "permitSingle",
          "type": "tuple"
        },
        {
          "internalType": "bytes",
          "name": "signature",
          "type": "bytes"
        },
        {
          "internalType": "bytes32[]",
          "name": "merkleProof",
          "type": "bytes32[]"
        }
      ],
      "name": "subscribeWithPermit",
      "outputs": [],
      "stateMutability": "nonpayable",
      "type": "function"
    },
    {
      "inputs": [
        {
          "internalType": "address",
          "name": "user",
          "type": "address"
        }
      ],
      "name": "syncPositionExternal",
      "outputs": [],
      "stateMutability": "nonpayable",
      "type": "function"
    },
    {
      "inputs": [],
      "name": "syncStreamExternal",
      "outputs": [],
      "stateMutability": "nonpayable",
      "type": "function"
    },
    {
      "inputs": [
        {
          "internalType": "string",
          "name": "metadataIpfsHash",
          "type": "string"
        }
      ],
      "name": "updateStreamMetadata",
      "outputs": [],
      "stateMutability": "nonpayable",
      "type": "function"
    },
    {
      "inputs": [
        {
          "internalType": "address",
          "name": "newImplementation",
          "type": "address"
        }
      ],
      "name": "upgradeTo",
      "outputs": [],
      "stateMutability": "nonpayable",
      "type": "function"
    },
    {
      "inputs": [
        {
          "internalType": "address",
          "name": "newImplementation",
          "type": "address"
        },
        {
          "internalType": "bytes",
          "name": "data",
          "type": "bytes"
        }
      ],
      "name": "upgradeToAndCall",
      "outputs": [],
      "stateMutability": "payable",
      "type": "function"
    },
    {
      "inputs": [],
      "name": "whitelistRoot",
      "outputs": [
        {
          "internalType": "bytes32",
          "name": "",
          "type": "bytes32"
        }
      ],
      "stateMutability": "view",
      "type": "function"
    },
    {
      "inputs": [
        {
          "internalType": "uint256",
          "name": "cap",
          "type": "uint256"
        }
      ],
      "name": "withdraw",
      "outputs": [],
      "stateMutability": "nonpayable",
      "type": "function"
    }
  ],
  "transactionHash": "0xb668a0e396a12ea1dec9c8d6d4c2078d537ade985af9eb28ac7f55f74c60e653",
  "args": [],
  "numDeployments": 1,
  "solcInputHash": "c3da1d20f0d84d2dc5bc2d628e18df5c",
  "bytecode": "0x60a0806040523461003157306080526136e2908161003782396080518181816110330152818161112201526114160152f35b600080fdfe608080604052600436101561001357600080fd5b600090813560e01c90816302d05d3f14612069575080630390547414610ddf5780630bcc8eba14611f485780630e5634df14611f2c57806316c1973914611ef85780631f22886914611ecc57806321194bd714611d105780632641895314611cca5780632ae4e93114611c515780632cefeb19146119615780632e1a7d4d14611791578063315e1705146116c657806334793e05146115fe5780633659cfe6146113f1578063386bfc98146113d35780634f1ef286146110e457806352d1902d146110205780635c60da1b14610fc157806360d388d814610f985780636afdd85014610f6e5780636b330b7914610e8b5780638a03764f14610e59578063aa5703ad14610e05578063af5c3ac414610ddf578063c0ae398c14610d5d578063c3783c721461080d578063c603500a146107c0578063cbf0641514610531578063d08452c2146104fe578063e427d08c146104d5578063e9a9e14414610405578063f69e8fba146101c25763ffa1ad741461018c57600080fd5b346101bf57806003193601126101bf576101bb6101a761243f565b604051918291602083526020830190612284565b0390f35b80fd5b50346101bf57806003193601126101bf5780546001600160a01b0390811633036103f457600482826001541660405192838092635e615a6b60e01b82525afa9081156103e95783916103c7575b50600f549161022a61021f6129a1565b429060ff86166129df565b60078110156103b3576003036103a15761024a61024561276a565b612ec6565b9160408301519060a084015182101584519560e086015191600014610345575050916102e46102c59592846102d8620f42406102ba60408760c07f16d1e1ee4b51bbfbf5d46884cac3a98f673074103d40dfae8a99e5b51457b7d29b0151169401516102b58661326a565b6133cd565b5104988980946127e4565b97600560ff19600f541617600f55613221565b83600c54163090612ad9565b6102f98482600c541683895416903090612ad9565b8161032b575b855416936103256040519283923096846040919493926060820195825260208201520152565b0390a380f35b6103408282600d541683895416903090612ad9565b6102ff565b60ff1916600417600f5561039e95509361036192509050613221565b8084541690816040518481527f3f3e233ce59fa3e5f0b479b323538988fd213fa8f3007a95ff330489bf5d40a660203092a33090600d5416612ad9565b80f35b604051637a851da960e11b8152600490fd5b634e487b7160e01b85526021600452602485fd5b6103e391503d8085833e6103db818361218c565b810190612492565b3861020f565b6040513d85823e3d90fd5b6040516282b42960e81b8152600490fd5b50346101bf57806003193601126101bf5780546001600160a01b0390811633036103f457600f546104426104376129a1565b429060ff84166129df565b60078110156104c1576103a15761039e916006600a549260ff191617600f5580845416906040517febb55ea32d517c9ec85f61357977ac73b84e65ebeaedb528ed791d7e25e30a2b3091806104b38787836040906006929493606082019560018060a01b0316825260208201520152565b0390a23090600d5416612ad9565b634e487b7160e01b84526021600452602484fd5b50346101bf57806003193601126101bf576002546040516001600160a01b039091168152602090f35b50346101bf57806003193601126101bf57600c54600d54604080516001600160a01b039384168152919092166020820152f35b50346101bf57806003193601126101bf5761054b3361261f565b60e08101518061079a575061057c61056461024561276a565b916020830151606084015160c085015191429361306b565b61059560ff600f5416429061058f6129a1565b906129df565b9181519160c0810180519460a08301908151944260e08601526105b78261292a565b6105c081613221565b6105ca85336131c7565b60a06040820151910151119060078110159182610744576005821491821561077a575b836107665760048114938415610758575b841561071f575b505050600014610692575050506040015151604051918483526020830152604082015281606082015242608082015233907f1d86502e4a4586da05506402e9e717090c0ce0ac1a71ad60b9312ae8ab044abf60a03092a3600d546001600160a01b039261067791339030908616612ad9565b8061068157505080f35b61039e9133903090600c5416612ad9565b9093919495506000146103a1576106ad869161039e96612994565b93528482528281526106bf81336131c7565b5190517f387c4a97ea999c71f2b33e24b2c4406f4a5100fc4e8deceb0bb6f4c5e5bbbe1060405180610707339530954291846040919493926060820195825260208201520152565b0390a3600c54339030906001600160a01b0316612ad9565b909192935061074457600314908161073c575b5090388080610605565b905038610732565b634e487b7160e01b8a52602160045260248afd5b5060068114935060006105fe565b634e487b7160e01b8b52602160045260248bfd5b600093508392506003811480610792575b92506105ed565b50811561078b565b60208201516107bc604051928392631175404360e11b84523360048501612943565b0390fd5b50346101bf576107cf36612366565b600c546001600160a01b03169290919083156107fb576107f68161039e9530903390612ad9565b612bc1565b604051632df9739b60e01b8152600490fd5b50346101bf57600319604036820112610d33576001600160401b0360043511610d33576102008160043536030112610d3357604051906101c082018281106001600160401b03821117610d475760405261086b6004356004016122d5565b825261087b6024600435016122d5565b602083015261088e6044600435016122d5565b6040830152600435606481013560608401526084810135608084015260a481013560a084015260c481013560c084015260e481013560e084015261010401356001600160401b038111610d3b57600435016020828236030112610d3b57604051906108f882612103565b6004810135906001600160401b038211610d4357600461091b92369201016123b4565b815261010083015261093336610124600435016123fb565b61012083015261094936610164600435016123fb565b6101408301526101a46004350135906001600160401b038211610d3b57606090826004350136030112610d3f57604051906109838261211e565b6004818135010135825260036024826004350101351015610d3b5760043581016024810135602084015260440135906001600160401b038211610d375760046109d292369282350101016123b4565b60408201526101608201526001600160401b036101c4600435013511610d3357610a0736600480356101c481013501016123b4565b6101808201526101e460043501356101a0820152610a236122bf565b6002549060ff8260a01c166103f4576001600160a01b03811615610d2157600180546001600160a01b031990811633179091559182166001600160a01b0391821617600255825184549092169116178255604051600090610a8381612103565b52604051610a9081612103565b600081526060820151906000604051610aa881612103565b52604051610ab581612103565b60008152608084015191606085015193604051610ad181612139565b8181528260208201528760408201528760608201528360808201528460a08201528760c08201528560e0820152610100429101526003555160045584600555846006555160075560085582600955600a5542600b5560018060a01b0360208201511660018060a01b0360408301511690816020604051610b5081612155565b83815201526bffffffffffffffffffffffff60a01b600c541617600c556bffffffffffffffffffffffff60a01b600d541617600d55610100810151518051906001600160401b038211610d0d57610ba8600e546120b6565b601f8111610cbc575b50602090601f8311600114610c47576101a0939291859183610c3c575b50508160011b916000199060031b1c191617600e555b60ff19600f5416600f5560a081015160c082015160e0830151918260408051610c0c8161211e565b83815260208101859052015260105560115560125501516013556002805460ff60a01b1916600160a01b17905580f35b015190503880610bce565b600e855260008051602061366d8339815191529190601f198416865b818110610ca457509160019391856101a097969410610c8b575b505050811b01600e55610be4565b015160001960f88460031b161c19169055388080610c7d565b92936020600181928786015181550195019301610c63565b600e855260008051602061366d833981519152601f840160051c81019160208510610d03575b601f0160051c01905b818110610cf85750610bb1565b858155600101610ceb565b9091508190610ce2565b634e487b7160e01b84526041600452602484fd5b60405163d2d441ff60e01b8152600490fd5b5080fd5b8480fd5b8380fd5b8280fd5b8580fd5b634e487b7160e01b600052604160045260246000fd5b50346101bf57806003193601126101bf57610120600354604051610d8081612103565b6004548152600554600654604051610d9781612103565b60075481526008549060095492600a5494600b54966040519889525160208901526040880152606087015251608086015260a085015260c084015260e0830152610100820152f35b50346101bf57806003193601126101bf576101bb60ff600f54166040519182918261208d565b50346101bf57806003193601126101bf576060604051610e2481612103565b526101bb604051610e3481612103565b610e3c6121ad565b815260405191829160208352516020808401526040830190612284565b50346101bf57806003193601126101bf5760105460115460125460408051938452602084019290925290820152606090f35b50346101bf5760203660031901126101bf57610ea56122a9565b610eae8161261f565b610eb88282612e26565b610ef1610ee1610ec961024561276a565b926020840151606085015160c086015191429361306b565b91610eec83856131c7565b613221565b805160208083015160608085015160a08087015160c0808901516040998a0151518a51998a5297890196909652978701929092529185015260808401919091528201526001600160a01b039092169130917f776f4c645ad4c2525f2c0862f3c0e3841c03f4fc680c1ceb4ab41b9eadccc4d1919081908101610325565b50346101bf57806003193601126101bf5760206040516e22d473030f116ddee9f6b43ac78ba38152f35b50346101bf57806003193601126101bf576001546040516001600160a01b039091168152602090f35b50346101bf57806003193601126101bf576101bb610fdd61243f565b6101a7602d60405180936c29ba3932b0b6a130b9b4b1903b60991b60208301526110108151809260208686019101612261565b810103600d81018452018261218c565b50346101bf57806003193601126101bf577f00000000000000000000000000000000000000000000000000000000000000006001600160a01b0316300361107957602060405160008051602061368d8339815191528152f35b60405162461bcd60e51b815260206004820152603860248201527f555550535570677261646561626c653a206d757374206e6f742062652063616c60448201527f6c6564207468726f7567682064656c656761746563616c6c00000000000000006064820152608490fd5b5060403660031901126101bf576110f96122a9565b6024356001600160401b038111610d3f576111189036906004016123b4565b6001600160a01b037f0000000000000000000000000000000000000000000000000000000000000000811692919061115230851415612868565b61116f60008051602061368d8339815191529482865416146128c9565b600485826001541660405192838092635e615a6b60e01b82525afa9081156113c857829160e09188916113ae575b5001511633036103f4577f4910fdfa16fed3260ed0e7147f7cc6da11a60208b5b9406d12a635614ffd91435460ff16156111dd57505061039e9150613426565b82919216604051936352d1902d60e01b85526020948581600481865afa6000918161137a575b506112645760405162461bcd60e51b815260048101879052602e60248201527f45524331393637557067726164653a206e657720696d706c656d656e7461746960448201526d6f6e206973206e6f74205555505360901b6064820152608490fd5b949394036113235761127582613426565b7fbc7cd75a20ee27fd9adebab32041f755214dbc6bffa90cc0225b39da2e5c2d3b600080a282511580159061131b575b6112b0575b50505080f35b60008061131294604051946112c48661211e565b602786527f416464726573733a206c6f772d6c6576656c2064656c65676174652063616c6c81870152660819985a5b195960ca1b604087015281519101845af461130c6129fa565b916135d3565b503880806112aa565b5060016112a5565b60405162461bcd60e51b815260048101849052602960248201527f45524331393637557067726164653a20756e737570706f727465642070726f786044820152681a58589b195555525160ba1b6064820152608490fd5b9091508681813d83116113a7575b611392818361218c565b810103126113a257519038611203565b600080fd5b503d611388565b6113c291503d808a833e6103db818361218c565b3861119d565b6040513d88823e3d90fd5b50346101bf57806003193601126101bf576020601354604051908152f35b50346101bf57602080600319360112610d335761140c6122a9565b6001600160a01b037f0000000000000000000000000000000000000000000000000000000000000000811661144330821415612868565b61146060008051602061368d8339815191529183835416146128c9565b600485836001541660405192838092635e615a6b60e01b82525afa9081156113c857839160e09188916115e4575b5001511633036103f457604051916114a583612103565b8583527f4910fdfa16fed3260ed0e7147f7cc6da11a60208b5b9406d12a635614ffd91435460ff16156114df5750505061039e9150613426565b83929316906040516352d1902d60e01b81528581600481865afa600091816115b5575b506115635760405162461bcd60e51b815260048101879052602e60248201527f45524331393637557067726164653a206e657720696d706c656d656e7461746960448201526d6f6e206973206e6f74205555505360901b6064820152608490fd5b949394036113235761157482613426565b7fbc7cd75a20ee27fd9adebab32041f755214dbc6bffa90cc0225b39da2e5c2d3b600080a28251158015906115ad576112b05750505080f35b5060006112a5565b9091508681813d83116115dd575b6115cd818361218c565b810103126113a257519038611502565b503d6115c3565b6115f891503d808a833e6103db818361218c565b3861148e565b50346101bf57806003193601126101bf5761161761276a565b61164361162b6116256129a1565b92612ec6565b9161163583613221565b60ff600f54169042916129df565b61164c8161292a565b6101008201519160078210156104c157602081015151815160c08301519160ff60806040860151950151519560405197885216602087015260408601526060850152608084015260a083015260c08201527f9a6ce334816e7b4b0cea88e41f3c652ec2e8064e2663e98f6d94d5ed90bc569060e03092a280f35b50346101bf57806003193601126101bf576116df612807565b506116e8612807565b604051906020825280519260a06020840152835160c0840152602084015190600382101561177d575060406117378185966101bb9460e088015201516060610100870152610120860190612284565b9261175e6020820151838701906001600160401b0360208092805115158552015116910152565b0151805115156080850152602001516001600160401b031660a0840152565b634e487b7160e01b81526021600452602490fd5b50346101bf5760203660031901126101bf57600435906117b03361261f565b916117bb3384612e26565b6117c66116356129a1565b90600782101561194d57600282141580611942575b6103a1576117ea61024561276a565b91602083015161180a606085019182519760c087019842928a519261306b565b928061193c57508251935b8351851161192357957fca17ddd98e8725ab2aa1c70d19c5d777d10bd61a64e2525cf7ead7fe7f1ec207916118a6879861039e98508651881460001461190c5761189c6020880151965b61189560208a0198611872818b516127e4565b8a5261187f8c8c516127e4565b8b5261188c8c89516127e4565b885286516127e4565b855261292a565b610eec87336131c7565b610707855194519560608101519260a082015194604060c0840151930151519051915192604051968796339b309b8994919260e0969399989794919961010087019a8752602087015260408601526060850152608084015260a083015260c08201520152565b61189c61191d85518551908b613159565b9661185f565b6040516318928cbf60e31b815260048101869052602490fd5b93611815565b5060018214156117db565b634e487b7160e01b83526021600452602483fd5b50346101bf576101403660031901126101bf5761197c6122bf565b60c0366043190112610d33576001600160401b03806101043511610d3f5736602361010435011215610d3f5780610104356004013511610d3f57366024610104356004013561010435010111610d3f5761012435908111610d3f576119e5903690600401612336565b600c54919290916001600160a01b031680156107fb57604435906001600160a01b0382168203610d43576001600160a01b03821603611c3f576064356001600160a01b0381168103610d43576001600160a01b03600435811690821610611c3f5760c435906001600160a01b0382168203611c3b57306001600160a01b03831603611c3f574260e43510611c3f576e22d473030f116ddee9f6b43ac78ba33b15611c3b576040516302b67b5760e41b81526001600160a01b03858116600483015293841660248201529216604483015260843565ffffffffffff81168103611c3b5765ffffffffffff16606483015260a43565ffffffffffff81168103611c3b5765ffffffffffff1660848301526001600160a01b031660a482015260e4803560c4830152610100908201526101048035600481013591830182905260240161012483013784610124610104356004013583010152848161012481601f19601f610104356004013501168101030181836e22d473030f116ddee9f6b43ac78ba35af18015611c3057611c1d575b50600c548491906001600160a01b03166e22d473030f116ddee9f6b43ac78ba33b15610d3f57604051631b63c28b60e11b81526001600160a01b0392831660048083019190915230602483015235909216604483015260648201528181608481836e22d473030f116ddee9f6b43ac78ba35af18015611c1257611bfe575b505061039e91600435612bc1565b611c07906120f0565b610d3f578238611bf0565b6040513d84823e3d90fd5b611c29909491946120f0565b9238611b72565b6040513d87823e3d90fd5b8680fd5b60405163162908e360e11b8152600490fd5b50346101bf57806003193601126101bf57610120611c6d61276a565b604051908051825260208101515160208301526040810151604083015260608101516060830152608081015151608083015260a081015160a083015260c081015160c083015260e081015160e08301526101008091015190820152f35b50346101bf57806003193601126101bf576101bb604051611cea81612155565b6005815264426173696360d81b6020820152604051918291602083526020830190612284565b50346101bf57602080600319360112610d33576001600160401b03600435818111610d3b57611d439036906004016123b4565b83549091906001600160a01b031633036103f4578151908111610d0d57611d6b600e546120b6565b601f8111611e7c575b5082601f8211600114611de9579181611dd8927ffa52982561798522f5e44b012104c1a4b09148533ab665caa1c1f28539f9a053948791611dde575b508160011b916000199060031b1c191617600e555b6040519182918583523095830190612284565b0390a280f35b905082015138611db0565b600e855260008051602061366d83398151915290601f198316865b86828210611e66575050927ffa52982561798522f5e44b012104c1a4b09148533ab665caa1c1f28539f9a053949260019282611dd89610611e4d575b5050811b01600e55611dc5565b84015160001960f88460031b161c191690553880611e40565b6001849582939589015181550194019201611e04565b600e855260008051602061366d833981519152601f830160051c810191858410611ec2575b601f0160051c01905b818110611eb75750611d74565b858155600101611eaa565b9091508190611ea1565b50611ed636612366565b600c549091906001600160a01b03166107fb57826107f661039e943033612a2a565b50346101bf5760203660031901126101bf57610100611f1d611f186122a9565b61261f565b611f2a60405180926122e9565bf35b50346101bf57806003193601126101bf576101bb6101a76121ad565b50346101bf57806003193601126101bf57600154604051635e615a6b60e01b81526001600160a01b039183908290600490829086165afa9081156103e957829160e091859161204f575b5001511633036103f457600f54611faa6104376129a1565b600781101590816103b3578015159182612041575b8261202f575b50506103a15761039e916006600a549260ff191617600f5580845416906040517febb55ea32d517c9ec85f61357977ac73b84e65ebeaedb528ed791d7e25e30a2b3091806104b38787836040906006929493606082019560018060a01b0316825260208201520152565b9091506104c157600214153880611fc5565b506001811415915084611fbf565b61206391503d8087833e6103db818361218c565b38611f92565b905034610d335781600319360112610d335790546001600160a01b03168152602090f35b9190602083019260078210156120a05752565b634e487b7160e01b600052602160045260246000fd5b90600182811c921680156120e6575b60208310146120d057565b634e487b7160e01b600052602260045260246000fd5b91607f16916120c5565b6001600160401b038111610d4757604052565b602081019081106001600160401b03821117610d4757604052565b606081019081106001600160401b03821117610d4757604052565b61012081019081106001600160401b03821117610d4757604052565b604081019081106001600160401b03821117610d4757604052565b61010081019081106001600160401b03821117610d4757604052565b90601f801991011681019081106001600160401b03821117610d4757604052565b60405190600082600e54916121c1836120b6565b8083529260209060019081811690811561223d57506001146121ee575b50506121ec9250038361218c565b565b915092600e60005260008051602061366d833981519152936000925b82841061222557506121ec94505050810160200138806121de565b8554888501830152948501948794509281019261220a565b915050602092506121ec94915060ff191682840152151560051b82010138806121de565b60005b8381106122745750506000910152565b8181015183820152602001612264565b9060209161229d81518092818552858086019101612261565b601f01601f1916010190565b600435906001600160a01b03821682036113a257565b602435906001600160a01b03821682036113a257565b35906001600160a01b03821682036113a257565b60e080918051845260208101516020850152604081015151604085015260608101516060850152608081015151608085015260a081015160a085015260c081015160c08501520151910152565b9181601f840112156113a2578235916001600160401b0383116113a2576020808501948460051b0101116113a257565b9060406003198301126113a25760043591602435906001600160401b0382116113a25761239591600401612336565b9091565b6001600160401b038111610d4757601f01601f191660200190565b81601f820112156113a2578035906123cb82612399565b926123d9604051948561218c565b828452602083830101116113a257816000926020809301838601378301015290565b91908260409103126113a25760405161241381612155565b809280359081151582036113a25760209183520135906001600160401b03821682036113a25760200152565b6040519061244c82612155565b60058252640312e302e360dc1b6020830152565b51906001600160a01b03821682036113a257565b91908260209103126113a25760405161248c81612103565b91518252565b60209182828203126113a25781516001600160401b03928382116113a25701916101809384848403126113a25760405194850185811083821117610d4757604052835185526124e2818501612460565b818601526124f38360408601612474565b6040860152606084015160608601526080840151608086015260a084015160a086015261252260c08501612460565b60c086015261253360e08501612460565b60e086015261010091828501519081116113a257840183601f820112156113a25780519061256082612399565b9461256e604051968761218c565b8286528383830101116113a257826125899386019101612261565b83015261012061259a818301612460565b908301526101406125ac818301612460565b908301526125be610160809201612460565b9082015290565b604051906125d282612170565b8160e06000918281528260208201526040516125ed81612103565b838152604082015282606082015260405161260781612103565b83815260808201528260a08201528260c08201520152565b6126276125c5565b506002546040516316c1973960e01b81526001600160a01b0392831660048201529161010091829184916024918391165afa9182156126fd5760009261266c57505090565b908092503d83116126f6575b612682818361218c565b810191818303126113a25760e0906126d3604051936126a085612170565b82518552602083015160208601526126bb8160408501612474565b60408601526060830151606086015260808301612474565b608084015260a081015160a084015260c081015160c0840152015160e082015290565b503d612678565b6040513d6000823e3d90fd5b6040519061271682612139565b8161010060009182815260405161272c81612103565b838152602082015282604082015282606082015260405161274c81612103565b83815260808201528260a08201528260c08201528260e08201520152565b612772612709565b5060405161277f81612139565b600354815260405161279081612103565b60045481526020820152600554604082015260065460608201526040516127b681612103565b6007548152608082015260085460a082015260095460c0820152600a5460e0820152600b5461010082015290565b919082039182116127f157565b634e487b7160e01b600052601160045260246000fd5b60409081516128158161211e565b80928051916128238361211e565b6000928381528360208201526060838201528152815161284281612155565b838152836020820152602082015281519261285c84612155565b80845260208401520152565b1561286f57565b60405162461bcd60e51b815260206004820152602c60248201527f46756e6374696f6e206d7573742062652063616c6c6564207468726f7567682060448201526b19195b1959d85d1958d85b1b60a21b6064820152608490fd5b156128d057565b60405162461bcd60e51b815260206004820152602c60248201527f46756e6374696f6e206d7573742062652063616c6c6564207468726f7567682060448201526b6163746976652070726f787960a01b6064820152608490fd5b60078110156120a05760ff8019600f5416911617600f55565b9160c0939160018060a01b031683526020830152604082015260806060820152601b60808201527f506f736974696f6e2068617320616c726561647920657869746564000000000060a08201520190565b919082018092116127f157565b6000604080516129b08161211e565b82815282602082015201526040516129c78161211e565b60105481526011546020820152601254604082015290565b906129f79281519060406020840151930151936132a0565b90565b3d15612a25573d90612a0b82612399565b91612a19604051938461218c565b82523d6000602084013e565b606090565b908215612ad4576001600160a01b03918216338103612aa15750823403612a825716308114612a7e57600080809381935af1612a646129fa565b5015612a6c57565b604051630c08bcb960e21b8152600490fd5b5050565b604051635693fffb60e01b815260048101849052346024820152604490fd5b308103612abc57506000809381938293165af1612a646129fa565b6024906040519063463de9db60e01b82526004820152fd5b505050565b9290928115612bbb576001600160a01b03908116938415612b8a578116308103612b4157506040519263a9059cbb60e01b602085015216602483015260448201526044815260808101918183106001600160401b03841117610d47576121ec926040526134b6565b92604051936323b872dd60e01b6020860152602485015216604483015260648201526064815260a08101918183106001600160401b03841117610d47576121ec926040526134b6565b819392945016338114600014612aa15750823403612a825716308114612a7e57600080809381935af1612a646129fa565b50505050565b91908215611c3f57612be160ff600f5416612bda6129a1565b42916129df565b9160078310156120a057600190600184141580612e1b575b6103a157612c0861024561276a565b92612c123361261f565b926013549283151580612e0f575b612d29575b5050505081612cc060207fac20383bc611fb24ecfa942ed37ae8648074130276759a168535c23c5cf026c394015191612cb6612c71606083019485519660c0850197429289519261306b565b96612ca9612c8387518751908c61319f565b99612c8f818b51612994565b8a5260208a01612ca08c8251612994565b90528751612994565b8652611895898651612994565b610eec86336131c7565b612d2484519460608101519260a082015194604060c0840151930151519051915192604051968796339b309b8994919260e0969399989794919961010087019a8752602087015260408601526060850152608084015260a083015260c08201520152565b0390a3565b60409060405190602091828101903360601b825260148152612d4a81612155565b5190206001600160401b038211610d47576005958260051b60405193612d728683018661218c565b8452848401908201913683116113a257879695949392915b828210612dfd57505050956000955b612db2575b505050505050036103f45738808080612c25565b8151861015612df8578596838697831b840101519086866000848410600014612deb57505050600052835284846000205b970195612d99565b9384529186529120612de3565b612d9e565b81358152889750908501908501612d8a565b50602085015115612c20565b506002841415612bf9565b90602082019182518015612e63575060e001519182612e4457505050565b51604051631175404360e11b81529283926107bc929060048501612943565b60e09190910151604051631175404360e11b81526001600160a01b03909316600484015260248301919091526044820152608060648201526016608482015275506f736974696f6e20686173206e6f2073686172657360501b60a482015260c490fd5b612ece612709565b50612ed76129a1565b612ef4604060208301519201519161010084019283519142613319565b80511561303157612f03612709565b5060608301908151151580613027575b612f93575b50504290526020810151517ff7f050a5e163dbe15fb695b5b2e83ef129fc3565263dc8fc74049d3739e62fde825160c084015190612f8d604086015160808701515190604051948594309842879260a094919796959260c0850198855260208501526040840152606083015260808201520152565b0390a290565b620f42409081612fa7826102b5885161326a565b510491612fbc60c08701926102b5845161326a565b51049060408601612fce838251612994565b9052612fdb8282516127e4565b905281612fe9575b50612f18565b61300461301a93612ffb8488516127e4565b875251836135a5565b613013602087019182516133fc565b90526135a5565b6080830152388080612fe3565b5080511515612f13565b5042905290565b818102929181159184041417156127f157565b8115613055570490565b634e487b7160e01b600052601260045260246000fd5b93929190916130786125c5565b50604085019161309c8351600060405161309181612103565b5285519051906127e4565b604051906130a982612103565b8152602087019283519388856130c9575b50505050505052606082015290565b6130dc61312b946102b56131309861326a565b6130ec60808301918251906133fc565b60006040516130fa81612103565b5251613121620f424060c06040519561311287612103565b82850687520192048251612994565b9052525190613038565b61304b565b61313b8186516127e4565b61314a60a08701918251612994565b905284523880808080886130ba565b909180158015613197575b6131915761317661317b928492613038565b612994565b6000198101919082116127f1576129f79161304b565b50905090565b508115613164565b91801580156131bf575b6131ba576129f79261312b91613038565b505090565b5082156131a9565b6002546001600160a01b03908116803b156113a257600092836101249261320960405197889687956360d6081360e11b875216600486015260248501906122e9565b5af180156126fd576132185750565b6121ec906120f0565b80516003556020810151516004556040810151600555606081015160065560808101515160075560a081015160085560c081015160095560e0810151600a556101000151600b55565b600060405161327881612103565b52620f4240908181029181830414901517156127f1576040519061329b82612103565b815290565b929190926007811015806120a0576006821490811561330c575b81156132fc575b506132f457508210156132d657505050600090565b8110156132e4575050600190565b10156132ef57600290565b600390565b935050505090565b90506120a05760058114386132c1565b50506004811460006132ba565b92909192600060405161332b81612103565b5282811080156133c3575b6133b1578261335f9383106133a9575b50818482116133a1575b613359916127e4565b926127e4565b80158015613399575b613375576129f7916135a5565b5050600060405161338581612103565b5260405161339281612103565b6000815290565b508115613368565b849150613350565b915038613346565b50505050600060405161338581612103565b5083821015613336565b620f4240916133ee9160006040516133e481612103565b5251905190613038565b046040519061329b82612103565b9061341991600060405161340f81612103565b5251905190612994565b6040519061329b82612103565b803b1561345b5760008051602061368d83398151915280546001600160a01b0319166001600160a01b03909216919091179055565b60405162461bcd60e51b815260206004820152602d60248201527f455243313936373a206e657720696d706c656d656e746174696f6e206973206e60448201526c1bdd08184818dbdb9d1c9858dd609a1b6064820152608490fd5b60018060a01b03169061350f6040516134ce81612155565b6020938482527f5361666545524332303a206c6f772d6c6576656c2063616c6c206661696c6564858301526000808587829751910182855af161130c6129fa565b805191821591848315613581575b50505090501561352a5750565b6084906040519062461bcd60e51b82526004820152602a60248201527f5361666545524332303a204552433230206f7065726174696f6e20646964206e6044820152691bdd081cdd58d8d9595960b21b6064820152fd5b919381809450010312610d33578201519081151582036101bf57508038808461351d565b9060006040516135b481612103565b52620f4240918281029281840414901517156127f1576134199161304b565b9192901561363557508151156135e7575090565b3b156135f05790565b60405162461bcd60e51b815260206004820152601d60248201527f416464726573733a2063616c6c20746f206e6f6e2d636f6e74726163740000006044820152606490fd5b8251909150156136485750805190602001fd5b60405162461bcd60e51b8152602060048201529081906107bc90602483019061228456febb7b4a454dc3493923482f07822329ed19e8244eff582cc204f8554c3620c3fd360894a13ba1a3210667c828492db98dca3e2076cc3735a920a3ca505d382bbca264697066735822122085a7ae120d6961b75bc7274f613ee6fe9c85e731df20fe1b17f052b7a83769e264736f6c63430008180033",
  "devdoc": {
    "events": {
      "AdminChanged(address,address)": {
        "details": "Emitted when the admin account has changed."
      },
      "BeaconUpgraded(address)": {
        "details": "Emitted when the beacon is changed."
      },
      "Upgraded(address)": {
        "details": "Emitted when the implementation is upgraded."
      }
    },
    "kind": "dev",
    "methods": {
      "cancelStream()": {
        "details": "Allows the creator to cancel the stream during the Waiting phase"
      },
      "cancelWithAdmin()": {
        "details": "Allows the protocol admin to cancel the stream"
      },
      "exitStream()": {
        "details": "Allows users to exit the stream and receive their tokens based on stream outcome"
      },
      "finalizeStream()": {
        "details": "Allows the creator to finalize the stream after it has ended"
      },
      "implementation()": {
        "details": "Returns the implementation name for identification",
        "returns": {
          "_0": "Implementation name and version"
        }
      },
      "initialize((address,address,address,uint256,uint256,uint256,uint256,uint256,(string),(bool,uint64),(bool,uint64),(uint256,uint8,bytes),string,bytes32),address)": {
        "details": "Initializes the stream with the provided configuration",
        "params": {
          "createStreamMessage": "Stream creation parameters",
          "storageAddress": "Address of the position storage contract"
        }
      },
      "proxiableUUID()": {
        "details": "Implementation of the ERC1822 {proxiableUUID} function. This returns the storage slot used by the implementation. It is used to validate the implementation's compatibility when performing an upgrade. IMPORTANT: A proxy pointing at a proxiable contract should not be considered proxiable itself, because this risks bricking a proxy that upgrades to it, by delegating to itself until out of gas. Thus it is critical that this function revert if invoked through a proxy. This is guaranteed by the `notDelegated` modifier."
      },
      "subscribe(uint256,bytes32[])": {
        "details": "Allows users to subscribe to the stream by providing input tokens",
        "params": {
          "amountIn": "Amount of input tokens to subscribe with"
        }
      },
      "subscribeWithNativeToken(uint256,bytes32[])": {
        "details": "Allows users to subscribe with native tokens",
        "params": {
          "amountIn": "Amount of native tokens to subscribe with"
        }
      },
      "subscribeWithPermit(uint256,address,((address,uint160,uint48,uint48),address,uint256),bytes,bytes32[])": {
        "details": "Allows users to subscribe using Uniswap Permit2 for ERC20 approvals",
        "params": {
          "amountIn": "Amount of input tokens to subscribe with",
          "owner": "Owner of tokens and signer",
          "permitSingle": "Permit2 Single permit data",
          "signature": "EIP-712 signature"
        }
      },
      "syncPositionExternal(address)": {
        "details": "External function to sync a specific user's position",
        "params": {
          "user": "Address of the user whose position should be synced"
        }
      },
      "syncStreamExternal()": {
        "details": "External function to sync the stream state and status"
      },
      "updateStreamMetadata(string)": {
        "details": "Allows the creator to update the stream metadata"
      },
      "upgradeTo(address)": {
        "custom:oz-upgrades-unsafe-allow-reachable": "delegatecall",
        "details": "Upgrade the implementation of the proxy to `newImplementation`. Calls {_authorizeUpgrade}. Emits an {Upgraded} event."
      },
      "upgradeToAndCall(address,bytes)": {
        "custom:oz-upgrades-unsafe-allow-reachable": "delegatecall",
        "details": "Upgrade the implementation of the proxy to `newImplementation`, and subsequently execute the function call encoded in `data`. Calls {_authorizeUpgrade}. Emits an {Upgraded} event."
      },
      "withdraw(uint256)": {
        "details": "Allows users to withdraw their input tokens from the stream",
        "params": {
          "cap": "Amount of input tokens to withdraw"
        }
      }
    },
    "version": 1
  },
  "userdoc": {
    "kind": "user",
    "methods": {
      "PERMIT2()": {
        "notice": "Address of the Permit2 contract"
      },
      "STREAM_FACTORY_ADDRESS()": {
        "notice": "Address of the stream factory that deployed this stream"
      },
      "VARIANT()": {
        "notice": "Contract variant identifier"
      },
      "VERSION()": {
        "notice": "Contract version for tracking upgrades"
      },
      "creator()": {
        "notice": "Address of the stream creator"
      },
      "initialize((address,address,address,uint256,uint256,uint256,uint256,uint256,(string),(bool,uint64),(bool,uint64),(uint256,uint8,bytes),string,bytes32),address)": {
        "notice": "This function can only be called once and must be invoked by the factory"
      },
      "positionStorageAddress()": {
        "notice": "Address of the position storage contract"
      },
      "streamMetadata()": {
        "notice": "Metadata associated with the stream"
      },
      "streamState()": {
        "notice": "Current state of the stream (distribution index, remaining tokens, etc.)"
      },
      "streamStatus()": {
        "notice": "Current status of the stream (Waiting, Bootstrapping, Active, etc.)"
      },
      "streamTimes()": {
        "notice": "Timing information for the stream phases"
      },
      "streamTokens()": {
        "notice": "Token addresses for input and output tokens"
      },
      "whitelistRoot()": {
        "notice": "Optional Merkle whitelist root; zero means no whitelist (public stream)"
      }
    },
    "version": 1
  },
  "storageLayout": {
    "storage": [
      {
        "astId": 11410,
        "contract": "src/StreamBasic.sol:StreamBasic",
        "label": "creator",
        "offset": 0,
        "slot": "0",
        "type": "t_address"
      },
      {
        "astId": 11413,
        "contract": "src/StreamBasic.sol:StreamBasic",
        "label": "STREAM_FACTORY_ADDRESS",
        "offset": 0,
        "slot": "1",
        "type": "t_address"
      },
      {
        "astId": 11416,
        "contract": "src/StreamBasic.sol:StreamBasic",
        "label": "positionStorageAddress",
        "offset": 0,
        "slot": "2",
        "type": "t_address"
      },
      {
        "astId": 11419,
        "contract": "src/StreamBasic.sol:StreamBasic",
        "label": "initialized",
        "offset": 20,
        "slot": "2",
        "type": "t_bool"
      },
      {
        "astId": 11423,
        "contract": "src/StreamBasic.sol:StreamBasic",
        "label": "streamState",
        "offset": 0,
        "slot": "3",
        "type": "t_struct(StreamState)18361_storage"
      },
      {
        "astId": 11427,
        "contract": "src/StreamBasic.sol:StreamBasic",
        "label": "streamTokens",
        "offset": 0,
        "slot": "12",
        "type": "t_struct(StreamTokens)18366_storage"
      },
      {
        "astId": 11431,
        "contract": "src/StreamBasic.sol:StreamBasic",
        "label": "streamMetadata",
        "offset": 0,
        "slot": "14",
        "type": "t_struct(StreamMetadata)18340_storage"
      },
      {
        "astId": 11435,
        "contract": "src/StreamBasic.sol:StreamBasic",
        "label": "streamStatus",
        "offset": 0,
        "slot": "15",
        "type": "t_enum(Status)18293"
      },
      {
        "astId": 11439,
        "contract": "src/StreamBasic.sol:StreamBasic",
        "label": "streamTimes",
        "offset": 0,
        "slot": "16",
        "type": "t_struct(StreamTimes)18337_storage"
      },
      {
        "astId": 11442,
        "contract": "src/StreamBasic.sol:StreamBasic",
        "label": "whitelistRoot",
        "offset": 0,
        "slot": "19",
        "type": "t_bytes32"
      },
      {
        "astId": 11451,
        "contract": "src/StreamBasic.sol:StreamBasic",
        "label": "__gap",
        "offset": 0,
        "slot": "20",
        "type": "t_array(t_uint256)39_storage"
      }
    ],
    "types": {
      "t_address": {
        "encoding": "inplace",
        "label": "address",
        "numberOfBytes": "20"
      },
      "t_array(t_uint256)39_storage": {
        "base": "t_uint256",
        "encoding": "inplace",
        "label": "uint256[39]",
        "numberOfBytes": "1248"
      },
      "t_bool": {
        "encoding": "inplace",
        "label": "bool",
        "numberOfBytes": "1"
      },
      "t_bytes32": {
        "encoding": "inplace",
        "label": "bytes32",
        "numberOfBytes": "32"
      },
      "t_enum(Status)18293": {
        "encoding": "inplace",
        "label": "enum StreamTypes.Status",
        "numberOfBytes": "1"
      },
      "t_string_storage": {
        "encoding": "bytes",
        "label": "string",
        "numberOfBytes": "32"
      },
      "t_struct(Decimal)16964_storage": {
        "encoding": "inplace",
        "label": "struct Decimal",
        "members": [
          {
            "astId": 16963,
            "contract": "src/StreamBasic.sol:StreamBasic",
            "label": "value",
            "offset": 0,
            "slot": "0",
            "type": "t_uint256"
          }
        ],
        "numberOfBytes": "32"
      },
      "t_struct(StreamMetadata)18340_storage": {
        "encoding": "inplace",
        "label": "struct StreamTypes.StreamMetadata",
        "members": [
          {
            "astId": 18339,
            "contract": "src/StreamBasic.sol:StreamBasic",
            "label": "ipfsHash",
            "offset": 0,
            "slot": "0",
            "type": "t_string_storage"
          }
        ],
        "numberOfBytes": "32"
      },
      "t_struct(StreamState)18361_storage": {
        "encoding": "inplace",
        "label": "struct StreamTypes.StreamState",
        "members": [
          {
            "astId": 18342,
            "contract": "src/StreamBasic.sol:StreamBasic",
            "label": "outRemaining",
            "offset": 0,
            "slot": "0",
            "type": "t_uint256"
          },
          {
            "astId": 18345,
            "contract": "src/StreamBasic.sol:StreamBasic",
            "label": "distIndex",
            "offset": 0,
            "slot": "1",
            "type": "t_struct(Decimal)16964_storage"
          },
          {
            "astId": 18347,
            "contract": "src/StreamBasic.sol:StreamBasic",
            "label": "spentIn",
            "offset": 0,
            "slot": "2",
            "type": "t_uint256"
          },
          {
            "astId": 18349,
            "contract": "src/StreamBasic.sol:StreamBasic",
            "label": "shares",
            "offset": 0,
            "slot": "3",
            "type": "t_uint256"
          },
          {
            "astId": 18352,
            "contract": "src/StreamBasic.sol:StreamBasic",
            "label": "currentStreamedPrice",
            "offset": 0,
            "slot": "4",
            "type": "t_struct(Decimal)16964_storage"
          },
          {
            "astId": 18354,
            "contract": "src/StreamBasic.sol:StreamBasic",
            "label": "threshold",
            "offset": 0,
            "slot": "5",
            "type": "t_uint256"
          },
          {
            "astId": 18356,
            "contract": "src/StreamBasic.sol:StreamBasic",
            "label": "inSupply",
            "offset": 0,
            "slot": "6",
            "type": "t_uint256"
          },
          {
            "astId": 18358,
            "contract": "src/StreamBasic.sol:StreamBasic",
            "label": "outSupply",
            "offset": 0,
            "slot": "7",
            "type": "t_uint256"
          },
          {
            "astId": 18360,
            "contract": "src/StreamBasic.sol:StreamBasic",
            "label": "lastUpdated",
            "offset": 0,
            "slot": "8",
            "type": "t_uint256"
          }
        ],
        "numberOfBytes": "288"
      },
      "t_struct(StreamTimes)18337_storage": {
        "encoding": "inplace",
        "label": "struct StreamTypes.StreamTimes",
        "members": [
          {
            "astId": 18332,
            "contract": "src/StreamBasic.sol:StreamBasic",
            "label": "bootstrappingStartTime",
            "offset": 0,
            "slot": "0",
            "type": "t_uint256"
          },
          {
            "astId": 18334,
            "contract": "src/StreamBasic.sol:StreamBasic",
            "label": "streamStartTime",
            "offset": 0,
            "slot": "1",
            "type": "t_uint256"
          },
          {
            "astId": 18336,
            "contract": "src/StreamBasic.sol:StreamBasic",
            "label": "streamEndTime",
            "offset": 0,
            "slot": "2",
            "type": "t_uint256"
          }
        ],
        "numberOfBytes": "96"
      },
      "t_struct(StreamTokens)18366_storage": {
        "encoding": "inplace",
        "label": "struct StreamTypes.StreamTokens",
        "members": [
          {
            "astId": 18363,
            "contract": "src/StreamBasic.sol:StreamBasic",
            "label": "inSupplyToken",
            "offset": 0,
            "slot": "0",
            "type": "t_address"
          },
          {
            "astId": 18365,
            "contract": "src/StreamBasic.sol:StreamBasic",
            "label": "outSupplyToken",
            "offset": 0,
            "slot": "1",
            "type": "t_address"
          }
        ],
        "numberOfBytes": "64"
      },
      "t_uint256": {
        "encoding": "inplace",
        "label": "uint256",
        "numberOfBytes": "32"
      }
    }
  }
}