{
  "address": "0x6A379f0Ba165a5Bed380c5Be1d8eb03BB4d70176",
  "abi": [
    {
      "inputs": [
        {
          "internalType": "address",
          "name": "protocolAdmin",
          "type": "address"
        }
      ],
      "stateMutability": "nonpayable",
      "type": "constructor"
    },
    {
      "inputs": [],
      "name": "AlreadyInitialized",
      "type": "error"
    },
    {
      "inputs": [],
      "name": "BootstrappingDurationTooShort",
      "type": "error"
    },
    {
      "inputs": [],
      "name": "ContractFrozen",
      "type": "error"
    },
    {
      "inputs": [
        {
          "internalType": "uint8",
          "name": "kind",
          "type": "uint8"
        }
      ],
      "name": "ImplementationNotSet",
      "type": "error"
    },
    {
      "inputs": [
        {
          "internalType": "uint256",
          "name": "expected",
          "type": "uint256"
        },
        {
          "internalType": "uint256",
          "name": "actual",
          "type": "uint256"
        }
      ],
      "name": "IncorrectNativeAmount",
      "type": "error"
    },
    {
      "inputs": [],
      "name": "InvalidAcceptedInSupplyTokens",
      "type": "error"
    },
    {
      "inputs": [],
      "name": "InvalidBootstrappingStartTime",
      "type": "error"
    },
    {
      "inputs": [],
      "name": "InvalidBootstrappingTime",
      "type": "error"
    },
    {
      "inputs": [],
      "name": "InvalidCreator",
      "type": "error"
    },
    {
      "inputs": [],
      "name": "InvalidDexType",
      "type": "error"
    },
    {
      "inputs": [],
      "name": "InvalidExitFeeRatio",
      "type": "error"
    },
    {
      "inputs": [],
      "name": "InvalidFeeCollector",
      "type": "error"
    },
    {
      "inputs": [],
      "name": "InvalidImplementationAddress",
      "type": "error"
    },
    {
      "inputs": [
        {
          "internalType": "address",
          "name": "from",
          "type": "address"
        }
      ],
      "name": "InvalidNativePayer",
      "type": "error"
    },
    {
      "inputs": [],
      "name": "InvalidOutSupplyToken",
      "type": "error"
    },
    {
      "inputs": [],
      "name": "InvalidProtocolAdmin",
      "type": "error"
    },
    {
      "inputs": [],
      "name": "InvalidStreamCreationFeeToken",
      "type": "error"
    },
    {
      "inputs": [],
      "name": "InvalidStreamEndTime",
      "type": "error"
    },
    {
      "inputs": [],
      "name": "InvalidStreamImplementationAddress",
      "type": "error"
    },
    {
      "inputs": [],
      "name": "InvalidStreamStartTime",
      "type": "error"
    },
    {
      "inputs": [],
      "name": "InvalidToSVersion",
      "type": "error"
    },
    {
      "inputs": [],
      "name": "InvalidTokenDecimals",
      "type": "error"
    },
    {
      "inputs": [],
      "name": "InvalidTokenName",
      "type": "error"
    },
    {
      "inputs": [],
      "name": "InvalidTokenSupply",
      "type": "error"
    },
    {
      "inputs": [],
      "name": "InvalidTokenSymbol",
      "type": "error"
    },
    {
      "inputs": [],
      "name": "InvalidTokenTotalSupply",
      "type": "error"
    },
    {
      "inputs": [],
      "name": "InvalidVestingDuration",
      "type": "error"
    },
    {
      "inputs": [],
      "name": "NativeTokenTransferFailed",
      "type": "error"
    },
    {
      "inputs": [],
      "name": "NotAdmin",
      "type": "error"
    },
    {
      "inputs": [],
      "name": "PoolRouterNotSet",
      "type": "error"
    },
    {
      "inputs": [],
      "name": "SameInputAndOutputToken",
      "type": "error"
    },
    {
      "inputs": [],
      "name": "StreamAddressPredictionFailed",
      "type": "error"
    },
    {
      "inputs": [],
      "name": "StreamDurationTooShort",
      "type": "error"
    },
    {
      "inputs": [],
      "name": "StreamEndMustBeAfterStart",
      "type": "error"
    },
    {
      "inputs": [],
      "name": "StreamInputTokenNotAccepted",
      "type": "error"
    },
    {
      "inputs": [],
      "name": "StreamStartMustBeAfterBootstrapping",
      "type": "error"
    },
    {
      "inputs": [],
      "name": "TokenTransferFailed",
      "type": "error"
    },
    {
      "inputs": [],
      "name": "VestingFactoryNotSet",
      "type": "error"
    },
    {
      "inputs": [],
      "name": "WaitingDurationTooShort",
      "type": "error"
    },
    {
      "inputs": [],
      "name": "ZeroOutSupplyNotAllowed",
      "type": "error"
    },
    {
      "anonymous": false,
      "inputs": [
        {
          "indexed": true,
          "internalType": "address",
          "name": "factory",
          "type": "address"
        },
        {
          "indexed": false,
          "internalType": "address[]",
          "name": "tokensAdded",
          "type": "address[]"
        },
        {
          "indexed": false,
          "internalType": "address[]",
          "name": "tokensRemoved",
          "type": "address[]"
        }
      ],
      "name": "AcceptedTokensUpdated",
      "type": "event"
    },
    {
      "anonymous": false,
      "inputs": [
        {
          "indexed": true,
          "internalType": "address",
          "name": "factory",
          "type": "address"
        },
        {
          "indexed": false,
          "internalType": "uint256",
          "name": "oldRatio",
          "type": "uint256"
        },
        {
          "indexed": false,
          "internalType": "uint256",
          "name": "newRatio",
          "type": "uint256"
        }
      ],
      "name": "ExitFeeRatioUpdated",
      "type": "event"
    },
    {
      "anonymous": false,
      "inputs": [
        {
          "indexed": true,
          "internalType": "address",
          "name": "factory",
          "type": "address"
        },
        {
          "indexed": false,
          "internalType": "address",
          "name": "basicImplementationAddress",
          "type": "address"
        },
        {
          "indexed": false,
          "internalType": "address",
          "name": "postActionsImplementationAddress",
          "type": "address"
        },
        {
          "indexed": false,
          "internalType": "address",
          "name": "poolRouterAddress",
          "type": "address"
        },
        {
          "indexed": false,
          "internalType": "address",
          "name": "feeCollector",
          "type": "address"
        },
        {
          "indexed": false,
          "internalType": "address",
          "name": "protocolAdmin",
          "type": "address"
        },
        {
          "indexed": false,
          "internalType": "address",
          "name": "streamCreationFeeToken",
          "type": "address"
        },
        {
          "indexed": false,
          "internalType": "address[]",
          "name": "acceptedInSupplyTokens",
          "type": "address[]"
        },
        {
          "indexed": false,
          "internalType": "uint256",
          "name": "streamCreationFee",
          "type": "uint256"
        },
        {
          "indexed": false,
          "internalType": "uint256",
          "name": "exitFeeRatio",
          "type": "uint256"
        },
        {
          "indexed": false,
          "internalType": "uint256",
          "name": "minWaitingDuration",
          "type": "uint256"
        },
        {
          "indexed": false,
          "internalType": "uint256",
          "name": "minBootstrappingDuration",
          "type": "uint256"
        },
        {
          "indexed": false,
          "internalType": "uint256",
          "name": "minStreamDuration",
          "type": "uint256"
        },
        {
          "indexed": false,
          "internalType": "string",
          "name": "tosVersion",
          "type": "string"
        },
        {
          "indexed": false,
          "internalType": "address",
          "name": "vestingAddress",
          "type": "address"
        }
      ],
      "name": "FactoryInitialized",
      "type": "event"
    },
    {
      "anonymous": false,
      "inputs": [
        {
          "indexed": true,
          "internalType": "address",
          "name": "factory",
          "type": "address"
        },
        {
          "indexed": false,
          "internalType": "address",
          "name": "oldFeeCollector",
          "type": "address"
        },
        {
          "indexed": false,
          "internalType": "address",
          "name": "newFeeCollector",
          "type": "address"
        }
      ],
      "name": "FeeCollectorUpdated",
      "type": "event"
    },
    {
      "anonymous": false,
      "inputs": [
        {
          "indexed": true,
          "internalType": "address",
          "name": "factory",
          "type": "address"
        },
        {
          "indexed": false,
          "internalType": "bool",
          "name": "frozen",
          "type": "bool"
        }
      ],
      "name": "FrozenStateUpdated",
      "type": "event"
    },
    {
      "anonymous": false,
      "inputs": [
        {
          "indexed": true,
          "internalType": "address",
          "name": "factory",
          "type": "address"
        },
        {
          "indexed": false,
          "internalType": "address",
          "name": "oldBasic",
          "type": "address"
        },
        {
          "indexed": false,
          "internalType": "address",
          "name": "newBasic",
          "type": "address"
        },
        {
          "indexed": false,
          "internalType": "address",
          "name": "oldPostActions",
          "type": "address"
        },
        {
          "indexed": false,
          "internalType": "address",
          "name": "newPostActions",
          "type": "address"
        }
      ],
      "name": "ImplementationParametersUpdated",
      "type": "event"
    },
    {
      "anonymous": false,
      "inputs": [
        {
          "indexed": true,
          "internalType": "address",
          "name": "factory",
          "type": "address"
        },
        {
          "indexed": false,
          "internalType": "address",
          "name": "oldPoolRouter",
          "type": "address"
        },
        {
          "indexed": false,
          "internalType": "address",
          "name": "newPoolRouter",
          "type": "address"
        }
      ],
      "name": "PoolRouterUpdated",
      "type": "event"
    },
    {
      "anonymous": false,
      "inputs": [
        {
          "indexed": true,
          "internalType": "address",
          "name": "factory",
          "type": "address"
        },
        {
          "indexed": false,
          "internalType": "address",
          "name": "oldProtocolAdmin",
          "type": "address"
        },
        {
          "indexed": false,
          "internalType": "address",
          "name": "newProtocolAdmin",
          "type": "address"
        }
      ],
      "name": "ProtocolAdminUpdated",
      "type": "event"
    },
    {
      "anonymous": false,
      "inputs": [
        {
          "indexed": true,
          "internalType": "address",
          "name": "streamFactoryAddress",
          "type": "address"
        },
        {
          "indexed": false,
          "internalType": "address",
          "name": "streamOutToken",
          "type": "address"
        },
        {
          "indexed": false,
          "internalType": "address",
          "name": "streamInToken",
          "type": "address"
        },
        {
          "indexed": false,
          "internalType": "address",
          "name": "streamAddress",
          "type": "address"
        },
        {
          "indexed": false,
          "internalType": "address",
          "name": "creator",
          "type": "address"
        },
        {
          "indexed": false,
          "internalType": "address",
          "name": "positionStorageAddress",
          "type": "address"
        },
        {
          "indexed": false,
          "internalType": "uint256",
          "name": "streamOutAmount",
          "type": "uint256"
        },
        {
          "indexed": false,
          "internalType": "uint256",
          "name": "poolOutSupplyAmount",
          "type": "uint256"
        },
        {
          "indexed": false,
          "internalType": "string",
          "name": "dexType",
          "type": "string"
        },
        {
          "indexed": false,
          "internalType": "bool",
          "name": "isCreatorVestingEnabled",
          "type": "bool"
        },
        {
          "indexed": false,
          "internalType": "bool",
          "name": "isBeneficiaryVestingEnabled",
          "type": "bool"
        },
        {
          "indexed": false,
          "internalType": "uint64",
          "name": "creatorVestingDuration",
          "type": "uint64"
        },
        {
          "indexed": false,
          "internalType": "uint64",
          "name": "beneficiaryVestingDuration",
          "type": "uint64"
        },
        {
          "indexed": false,
          "internalType": "uint256",
          "name": "bootstrappingStartTime",
          "type": "uint256"
        },
        {
          "indexed": false,
          "internalType": "uint256",
          "name": "streamStartTime",
          "type": "uint256"
        },
        {
          "indexed": false,
          "internalType": "uint256",
          "name": "streamEndTime",
          "type": "uint256"
        },
        {
          "indexed": false,
          "internalType": "uint256",
          "name": "threshold",
          "type": "uint256"
        },
        {
          "indexed": false,
          "internalType": "string",
          "name": "metadataIpfsHash",
          "type": "string"
        },
        {
          "indexed": false,
          "internalType": "string",
          "name": "tosVersion",
          "type": "string"
        },
        {
          "indexed": false,
          "internalType": "uint16",
          "name": "streamId",
          "type": "uint16"
        }
      ],
      "name": "StreamCreated",
      "type": "event"
    },
    {
      "anonymous": false,
      "inputs": [
        {
          "indexed": true,
          "internalType": "address",
          "name": "factory",
          "type": "address"
        },
        {
          "indexed": false,
          "internalType": "uint256",
          "name": "oldFee",
          "type": "uint256"
        },
        {
          "indexed": false,
          "internalType": "uint256",
          "name": "newFee",
          "type": "uint256"
        },
        {
          "indexed": false,
          "internalType": "address",
          "name": "oldFeeToken",
          "type": "address"
        },
        {
          "indexed": false,
          "internalType": "address",
          "name": "newFeeToken",
          "type": "address"
        }
      ],
      "name": "StreamFeeParametersUpdated",
      "type": "event"
    },
    {
      "anonymous": false,
      "inputs": [
        {
          "indexed": true,
          "internalType": "address",
          "name": "factory",
          "type": "address"
        },
        {
          "indexed": false,
          "internalType": "uint256",
          "name": "oldMinWaitingDuration",
          "type": "uint256"
        },
        {
          "indexed": false,
          "internalType": "uint256",
          "name": "newMinWaitingDuration",
          "type": "uint256"
        },
        {
          "indexed": false,
          "internalType": "uint256",
          "name": "oldMinBootstrappingDuration",
          "type": "uint256"
        },
        {
          "indexed": false,
          "internalType": "uint256",
          "name": "newMinBootstrappingDuration",
          "type": "uint256"
        },
        {
          "indexed": false,
          "internalType": "uint256",
          "name": "oldMinStreamDuration",
          "type": "uint256"
        },
        {
          "indexed": false,
          "internalType": "uint256",
          "name": "newMinStreamDuration",
          "type": "uint256"
        }
      ],
      "name": "TimingParametersUpdated",
      "type": "event"
    },
    {
      "anonymous": false,
      "inputs": [
        {
          "indexed": true,
          "internalType": "address",
          "name": "token",
          "type": "address"
        },
        {
          "indexed": false,
          "internalType": "string",
          "name": "name",
          "type": "string"
        },
        {
          "indexed": false,
          "internalType": "string",
          "name": "symbol",
          "type": "string"
        },
        {
          "indexed": false,
          "internalType": "uint8",
          "name": "decimals",
          "type": "uint8"
        },
        {
          "indexed": false,
          "internalType": "uint256",
          "name": "totalSupply",
          "type": "uint256"
        }
      ],
      "name": "TokenCreated",
      "type": "event"
    },
    {
      "anonymous": false,
      "inputs": [
        {
          "indexed": true,
          "internalType": "address",
          "name": "factory",
          "type": "address"
        },
        {
          "indexed": false,
          "internalType": "string",
          "name": "oldVersion",
          "type": "string"
        },
        {
          "indexed": false,
          "internalType": "string",
          "name": "newVersion",
          "type": "string"
        }
      ],
      "name": "TosVersionUpdated",
      "type": "event"
    },
    {
      "anonymous": false,
      "inputs": [
        {
          "indexed": true,
          "internalType": "address",
          "name": "factory",
          "type": "address"
        },
        {
          "indexed": false,
          "internalType": "address",
          "name": "oldVestingFactory",
          "type": "address"
        },
        {
          "indexed": false,
          "internalType": "address",
          "name": "newVestingFactory",
          "type": "address"
        }
      ],
      "name": "VestingFactoryUpdated",
      "type": "event"
    },
    {
      "inputs": [
        {
          "internalType": "uint256",
          "name": "",
          "type": "uint256"
        }
      ],
      "name": "acceptedInSupplyTokens",
      "outputs": [
        {
          "internalType": "address",
          "name": "",
          "type": "address"
        }
      ],
      "stateMutability": "view",
      "type": "function"
    },
    {
      "inputs": [
        {
          "components": [
            {
              "internalType": "address",
              "name": "creator",
              "type": "address"
            },
            {
              "internalType": "address",
              "name": "inSupplyToken",
              "type": "address"
            },
            {
              "internalType": "address",
              "name": "outSupplyToken",
              "type": "address"
            },
            {
              "internalType": "uint256",
              "name": "streamOutAmount",
              "type": "uint256"
            },
            {
              "internalType": "uint256",
              "name": "threshold",
              "type": "uint256"
            },
            {
              "internalType": "uint256",
              "name": "bootstrappingStartTime",
              "type": "uint256"
            },
            {
              "internalType": "uint256",
              "name": "streamStartTime",
              "type": "uint256"
            },
            {
              "internalType": "uint256",
              "name": "streamEndTime",
              "type": "uint256"
            },
            {
              "components": [
                {
                  "internalType": "string",
                  "name": "ipfsHash",
                  "type": "string"
                }
              ],
              "internalType": "struct StreamTypes.StreamMetadata",
              "name": "metadata",
              "type": "tuple"
            },
            {
              "components": [
                {
                  "internalType": "bool",
                  "name": "isVestingEnabled",
                  "type": "bool"
                },
                {
                  "internalType": "uint64",
                  "name": "vestingDuration",
                  "type": "uint64"
                }
              ],
              "internalType": "struct StreamTypes.VestingInfo",
              "name": "creatorVesting",
              "type": "tuple"
            },
            {
              "components": [
                {
                  "internalType": "bool",
                  "name": "isVestingEnabled",
                  "type": "bool"
                },
                {
                  "internalType": "uint64",
                  "name": "vestingDuration",
                  "type": "uint64"
                }
              ],
              "internalType": "struct StreamTypes.VestingInfo",
              "name": "beneficiaryVesting",
              "type": "tuple"
            },
            {
              "components": [
                {
                  "internalType": "uint256",
                  "name": "poolOutSupplyAmount",
                  "type": "uint256"
                },
                {
                  "internalType": "enum StreamTypes.DexType",
                  "name": "dexType",
                  "type": "uint8"
                },
                {
                  "internalType": "bytes",
                  "name": "extra",
                  "type": "bytes"
                }
              ],
              "internalType": "struct StreamTypes.PoolInfo",
              "name": "poolInfo",
              "type": "tuple"
            },
            {
              "internalType": "string",
              "name": "tosVersion",
              "type": "string"
            }
          ],
          "internalType": "struct StreamTypes.CreateStreamMessage",
          "name": "createStreamMessage",
          "type": "tuple"
        }
      ],
      "name": "createStream",
      "outputs": [],
      "stateMutability": "payable",
      "type": "function"
    },
    {
      "inputs": [
        {
          "components": [
            {
              "internalType": "address",
              "name": "creator",
              "type": "address"
            },
            {
              "internalType": "address",
              "name": "inSupplyToken",
              "type": "address"
            },
            {
              "internalType": "address",
              "name": "outSupplyToken",
              "type": "address"
            },
            {
              "internalType": "uint256",
              "name": "streamOutAmount",
              "type": "uint256"
            },
            {
              "internalType": "uint256",
              "name": "threshold",
              "type": "uint256"
            },
            {
              "internalType": "uint256",
              "name": "bootstrappingStartTime",
              "type": "uint256"
            },
            {
              "internalType": "uint256",
              "name": "streamStartTime",
              "type": "uint256"
            },
            {
              "internalType": "uint256",
              "name": "streamEndTime",
              "type": "uint256"
            },
            {
              "components": [
                {
                  "internalType": "string",
                  "name": "ipfsHash",
                  "type": "string"
                }
              ],
              "internalType": "struct StreamTypes.StreamMetadata",
              "name": "metadata",
              "type": "tuple"
            },
            {
              "components": [
                {
                  "internalType": "bool",
                  "name": "isVestingEnabled",
                  "type": "bool"
                },
                {
                  "internalType": "uint64",
                  "name": "vestingDuration",
                  "type": "uint64"
                }
              ],
              "internalType": "struct StreamTypes.VestingInfo",
              "name": "creatorVesting",
              "type": "tuple"
            },
            {
              "components": [
                {
                  "internalType": "bool",
                  "name": "isVestingEnabled",
                  "type": "bool"
                },
                {
                  "internalType": "uint64",
                  "name": "vestingDuration",
                  "type": "uint64"
                }
              ],
              "internalType": "struct StreamTypes.VestingInfo",
              "name": "beneficiaryVesting",
              "type": "tuple"
            },
            {
              "components": [
                {
                  "internalType": "uint256",
                  "name": "poolOutSupplyAmount",
                  "type": "uint256"
                },
                {
                  "internalType": "enum StreamTypes.DexType",
                  "name": "dexType",
                  "type": "uint8"
                },
                {
                  "internalType": "bytes",
                  "name": "extra",
                  "type": "bytes"
                }
              ],
              "internalType": "struct StreamTypes.PoolInfo",
              "name": "poolInfo",
              "type": "tuple"
            },
            {
              "internalType": "string",
              "name": "tosVersion",
              "type": "string"
            }
          ],
          "internalType": "struct StreamTypes.CreateStreamMessage",
          "name": "createStreamMessage",
          "type": "tuple"
        },
        {
          "components": [
            {
              "internalType": "string",
              "name": "name",
              "type": "string"
            },
            {
              "internalType": "string",
              "name": "symbol",
              "type": "string"
            },
            {
              "internalType": "uint8",
              "name": "decimals",
              "type": "uint8"
            },
            {
              "internalType": "uint256",
              "name": "totalSupply",
              "type": "uint256"
            }
          ],
          "internalType": "struct StreamTypes.TokenCreationInfo",
          "name": "tokenCreationInfo",
          "type": "tuple"
        }
      ],
      "name": "createStreamWithTokenCreation",
      "outputs": [],
      "stateMutability": "payable",
      "type": "function"
    },
    {
      "inputs": [],
      "name": "currentStreamId",
      "outputs": [
        {
          "internalType": "uint16",
          "name": "",
          "type": "uint16"
        }
      ],
      "stateMutability": "view",
      "type": "function"
    },
    {
      "inputs": [],
      "name": "frozen",
      "outputs": [
        {
          "internalType": "bool",
          "name": "",
          "type": "bool"
        }
      ],
      "stateMutability": "view",
      "type": "function"
    },
    {
      "inputs": [],
      "name": "getAcceptedInSupplyTokens",
      "outputs": [
        {
          "internalType": "address[]",
          "name": "",
          "type": "address[]"
        }
      ],
      "stateMutability": "view",
      "type": "function"
    },
    {
      "inputs": [
        {
          "internalType": "enum StreamFactory.StreamImplKind",
          "name": "kind",
          "type": "uint8"
        }
      ],
      "name": "getImplementation",
      "outputs": [
        {
          "internalType": "address",
          "name": "",
          "type": "address"
        }
      ],
      "stateMutability": "view",
      "type": "function"
    },
    {
      "inputs": [],
      "name": "getParams",
      "outputs": [
        {
          "components": [
            {
              "internalType": "uint256",
              "name": "streamCreationFee",
              "type": "uint256"
            },
            {
              "internalType": "address",
              "name": "streamCreationFeeToken",
              "type": "address"
            },
            {
              "components": [
                {
                  "internalType": "uint256",
                  "name": "value",
                  "type": "uint256"
                }
              ],
              "internalType": "struct Decimal",
              "name": "exitFeeRatio",
              "type": "tuple"
            },
            {
              "internalType": "uint256",
              "name": "minWaitingDuration",
              "type": "uint256"
            },
            {
              "internalType": "uint256",
              "name": "minBootstrappingDuration",
              "type": "uint256"
            },
            {
              "internalType": "uint256",
              "name": "minStreamDuration",
              "type": "uint256"
            },
            {
              "internalType": "address",
              "name": "feeCollector",
              "type": "address"
            },
            {
              "internalType": "address",
              "name": "protocolAdmin",
              "type": "address"
            },
            {
              "internalType": "string",
              "name": "tosVersion",
              "type": "string"
            },
            {
              "internalType": "address",
              "name": "vestingFactoryAddress",
              "type": "address"
            },
            {
              "internalType": "address",
              "name": "poolRouterAddress",
              "type": "address"
            },
            {
              "internalType": "address",
              "name": "tokenFactoryAddress",
              "type": "address"
            }
          ],
          "internalType": "struct StreamFactoryTypes.Params",
          "name": "",
          "type": "tuple"
        }
      ],
      "stateMutability": "view",
      "type": "function"
    },
    {
      "inputs": [
        {
          "internalType": "uint16",
          "name": "streamId",
          "type": "uint16"
        }
      ],
      "name": "getStream",
      "outputs": [
        {
          "internalType": "address",
          "name": "",
          "type": "address"
        }
      ],
      "stateMutability": "view",
      "type": "function"
    },
    {
      "inputs": [],
      "name": "getStreams",
      "outputs": [
        {
          "internalType": "address[]",
          "name": "",
          "type": "address[]"
        }
      ],
      "stateMutability": "view",
      "type": "function"
    },
    {
      "inputs": [
        {
          "internalType": "enum StreamFactory.StreamImplKind",
          "name": "",
          "type": "uint8"
        }
      ],
      "name": "implementations",
      "outputs": [
        {
          "internalType": "address",
          "name": "",
          "type": "address"
        }
      ],
      "stateMutability": "view",
      "type": "function"
    },
    {
      "inputs": [
        {
          "components": [
            {
              "internalType": "uint256",
              "name": "streamCreationFee",
              "type": "uint256"
            },
            {
              "internalType": "address",
              "name": "streamCreationFeeToken",
              "type": "address"
            },
            {
              "components": [
                {
                  "internalType": "uint256",
                  "name": "value",
                  "type": "uint256"
                }
              ],
              "internalType": "struct Decimal",
              "name": "exitFeeRatio",
              "type": "tuple"
            },
            {
              "internalType": "uint256",
              "name": "minWaitingDuration",
              "type": "uint256"
            },
            {
              "internalType": "uint256",
              "name": "minBootstrappingDuration",
              "type": "uint256"
            },
            {
              "internalType": "uint256",
              "name": "minStreamDuration",
              "type": "uint256"
            },
            {
              "internalType": "address",
              "name": "feeCollector",
              "type": "address"
            },
            {
              "internalType": "address",
              "name": "protocolAdmin",
              "type": "address"
            },
            {
              "internalType": "string",
              "name": "tosVersion",
              "type": "string"
            },
            {
              "internalType": "address",
              "name": "poolRouterAddress",
              "type": "address"
            },
            {
              "internalType": "address",
              "name": "basicImplementationAddress",
              "type": "address"
            },
            {
              "internalType": "address",
              "name": "postActionsImplementationAddress",
              "type": "address"
            },
            {
              "internalType": "address[]",
              "name": "acceptedInSupplyTokens",
              "type": "address[]"
            },
            {
              "internalType": "address",
              "name": "tokenFactoryAddress",
              "type": "address"
            },
            {
              "internalType": "address",
              "name": "vestingFactoryAddress",
              "type": "address"
            }
          ],
          "internalType": "struct StreamFactoryTypes.InitializeStreamFactoryMessage",
          "name": "initializeStreamFactoryMessage",
          "type": "tuple"
        }
      ],
      "name": "initialize",
      "outputs": [],
      "stateMutability": "nonpayable",
      "type": "function"
    },
    {
      "inputs": [],
      "name": "initialized",
      "outputs": [
        {
          "internalType": "bool",
          "name": "",
          "type": "bool"
        }
      ],
      "stateMutability": "view",
      "type": "function"
    },
    {
      "inputs": [
        {
          "internalType": "address",
          "name": "token",
          "type": "address"
        }
      ],
      "name": "isAcceptedInSupplyToken",
      "outputs": [
        {
          "internalType": "bool",
          "name": "",
          "type": "bool"
        }
      ],
      "stateMutability": "view",
      "type": "function"
    },
    {
      "inputs": [
        {
          "internalType": "address",
          "name": "streamAddress",
          "type": "address"
        }
      ],
      "name": "isStream",
      "outputs": [
        {
          "internalType": "bool",
          "name": "",
          "type": "bool"
        }
      ],
      "stateMutability": "view",
      "type": "function"
    },
    {
      "inputs": [],
      "name": "params",
      "outputs": [
        {
          "internalType": "uint256",
          "name": "streamCreationFee",
          "type": "uint256"
        },
        {
          "internalType": "address",
          "name": "streamCreationFeeToken",
          "type": "address"
        },
        {
          "components": [
            {
              "internalType": "uint256",
              "name": "value",
              "type": "uint256"
            }
          ],
          "internalType": "struct Decimal",
          "name": "exitFeeRatio",
          "type": "tuple"
        },
        {
          "internalType": "uint256",
          "name": "minWaitingDuration",
          "type": "uint256"
        },
        {
          "internalType": "uint256",
          "name": "minBootstrappingDuration",
          "type": "uint256"
        },
        {
          "internalType": "uint256",
          "name": "minStreamDuration",
          "type": "uint256"
        },
        {
          "internalType": "address",
          "name": "feeCollector",
          "type": "address"
        },
        {
          "internalType": "address",
          "name": "protocolAdmin",
          "type": "address"
        },
        {
          "internalType": "string",
          "name": "tosVersion",
          "type": "string"
        },
        {
          "internalType": "address",
          "name": "vestingFactoryAddress",
          "type": "address"
        },
        {
          "internalType": "address",
          "name": "poolRouterAddress",
          "type": "address"
        },
        {
          "internalType": "address",
          "name": "tokenFactoryAddress",
          "type": "address"
        }
      ],
      "stateMutability": "view",
      "type": "function"
    },
    {
      "inputs": [
        {
          "internalType": "bool",
          "name": "isFrozen",
          "type": "bool"
        }
      ],
      "name": "setFrozen",
      "outputs": [],
      "stateMutability": "nonpayable",
      "type": "function"
    },
    {
      "inputs": [
        {
          "internalType": "uint16",
          "name": "",
          "type": "uint16"
        }
      ],
      "name": "streamAddresses",
      "outputs": [
        {
          "internalType": "address",
          "name": "",
          "type": "address"
        }
      ],
      "stateMutability": "view",
      "type": "function"
    },
    {
      "inputs": [
        {
          "internalType": "address[]",
          "name": "tokensToAdd",
          "type": "address[]"
        },
        {
          "internalType": "address[]",
          "name": "tokensToRemove",
          "type": "address[]"
        }
      ],
      "name": "updateAcceptedTokens",
      "outputs": [],
      "stateMutability": "nonpayable",
      "type": "function"
    },
    {
      "inputs": [
        {
          "components": [
            {
              "internalType": "uint256",
              "name": "value",
              "type": "uint256"
            }
          ],
          "internalType": "struct Decimal",
          "name": "exitFeeRatio",
          "type": "tuple"
        }
      ],
      "name": "updateExitFeeRatio",
      "outputs": [],
      "stateMutability": "nonpayable",
      "type": "function"
    },
    {
      "inputs": [
        {
          "internalType": "address",
          "name": "feeCollector",
          "type": "address"
        }
      ],
      "name": "updateFeeCollector",
      "outputs": [],
      "stateMutability": "nonpayable",
      "type": "function"
    },
    {
      "inputs": [
        {
          "internalType": "address",
          "name": "basicImplementation",
          "type": "address"
        },
        {
          "internalType": "address",
          "name": "postActionsImplementation",
          "type": "address"
        }
      ],
      "name": "updateImplementationParameters",
      "outputs": [],
      "stateMutability": "nonpayable",
      "type": "function"
    },
    {
      "inputs": [
        {
          "internalType": "address",
          "name": "newPoolRouter",
          "type": "address"
        }
      ],
      "name": "updatePoolRouterAddress",
      "outputs": [],
      "stateMutability": "nonpayable",
      "type": "function"
    },
    {
      "inputs": [
        {
          "internalType": "address",
          "name": "protocolAdmin",
          "type": "address"
        }
      ],
      "name": "updateProtocolAdmin",
      "outputs": [],
      "stateMutability": "nonpayable",
      "type": "function"
    },
    {
      "inputs": [
        {
          "internalType": "uint256",
          "name": "streamCreationFee",
          "type": "uint256"
        },
        {
          "internalType": "address",
          "name": "streamCreationFeeToken",
          "type": "address"
        }
      ],
      "name": "updateStreamFeeParameters",
      "outputs": [],
      "stateMutability": "nonpayable",
      "type": "function"
    },
    {
      "inputs": [
        {
          "internalType": "uint256",
          "name": "minWaitingDuration",
          "type": "uint256"
        },
        {
          "internalType": "uint256",
          "name": "minBootstrappingDuration",
          "type": "uint256"
        },
        {
          "internalType": "uint256",
          "name": "minStreamDuration",
          "type": "uint256"
        }
      ],
      "name": "updateTimingParameters",
      "outputs": [],
      "stateMutability": "nonpayable",
      "type": "function"
    },
    {
      "inputs": [
        {
          "internalType": "string",
          "name": "tosVersion",
          "type": "string"
        }
      ],
      "name": "updateTosVersion",
      "outputs": [],
      "stateMutability": "nonpayable",
      "type": "function"
    },
    {
      "inputs": [
        {
          "internalType": "address",
          "name": "newVestingFactory",
          "type": "address"
        }
      ],
      "name": "updateVestingFactoryAddress",
      "outputs": [],
      "stateMutability": "nonpayable",
      "type": "function"
    }
  ],
  "transactionHash": "0xcf8e1b481d1353519886983284574052d5627b40c93f9a7d670ac8e3f64341ec",
  "args": [
    "0xB4eE189569597EFDB3bB48DB5ede8394d1D48e7b"
  ],
  "numDeployments": 1,
  "solcInputHash": "c48e2880d4ab6a39a9b4e5ee74f1004f",
  "bytecode": "0x6080346200009357601f62003bd038819003918201601f19168301916001600160401b0383118484101762000098578084926020946040528339810103126200009357516001600160a01b03811690819003620000935780156200008157600980546001600160a01b031916919091179055604051613b219081620000af8239f35b604051632bf75bc360e21b8152600490fd5b600080fd5b634e487b7160e01b600052604160045260246000fdfe60e08060405260043610156200001457600080fd5b60003560e01c908163054f7d9c1462001b4d5750806314d98de51462001b29578063158ef93e1462001b0157806333907d1e1462001a765780633f87606b14620019e257806343b3a755146200194b5780635429caa014620008ee5780635a91b3b214620019225780635e615a6b14620017175780637357fc5114620013d35780637442cedf1462000d1e578063774ef43b14620004405780637c526bb31462000b8d5780637df43e6b1462000a925780637e932d321462000a2157806389b1d0d714620009765780639a5934db146200092f578063a761641914620008ee578063aff28a50146200085e578063bfb79224146200082b578063c1d3be8b146200077e578063cff0ab9614620006a4578063d04fed6314620005c4578063d2c35ce81462000517578063d7ad9fb21462000483578063e899f3d71462000440578063f21e200614620002225763fd05bcc2146200017057600080fd5b346200021d5760203660031901126200021d57604051620001918162001c8a565b60043581526009546001600160a01b031633036200020b57620001b362002db5565b8151905110620001f95760045490518060045560405191825260208201527f326958908570a55d99765cc1010988df2265655c7a936bce8d1fe32c15104cde60403092a2005b604051632aa4e67b60e01b8152600490fd5b604051637bfa4b9f60e01b8152600490fd5b600080fd5b346200021d576020806003193601126200021d576001600160401b036004358181116200021d576200025990369060040162001d6c565b6009549092906001600160a01b031633036200020b57604051916200028b83620002838162002048565b038462001cf2565b83519081116200042a57620002a2600a546200200b565b601f8111620003dd575b5081601f82116001146200033c576200031b92827fba76badb4a7b68ae64606b0dd84000b21f0b2e70c206e63dce6f39be5fe6bc2195936200032b9360009162000330575b508160011b916000199060031b1c191617600a555b60405193849360408552604085019062001c46565b9083820390840152309562001c46565b0390a2005b905087015188620002f1565b601f19821690600a60005260008051602062003aac8339815191529160005b818110620003c55750836200032b936200031b96937fba76badb4a7b68ae64606b0dd84000b21f0b2e70c206e63dce6f39be5fe6bc21989660019410620003ab575b5050811b01600a5562000306565b89015160001960f88460031b161c1916905588806200039d565b91928560018192868b0151815501940192016200035b565b6200041890600a60005260008051602062003aac833981519152601f840160051c8101918585106200041f575b601f0160051c019062002144565b84620002ac565b90915081906200040a565b634e487b7160e01b600052604160045260246000fd5b346200021d5760203660031901126200021d5760043561ffff81168091036200021d57600052600e602052602060018060a01b0360406000205416604051908152f35b346200021d5760203660031901126200021d57620004a062001bae565b6009546001600160a01b039190821633036200020b57600b80548284166001600160a01b031982161790915560408051939091166001600160a01b039081168452909116602083015230917f74cbcae24ac10f22f24abd8fd578ecda5af867f37f9ff962aa548f9b035e44bd91819081016200032b565b346200021d5760203660031901126200021d576200053462001bae565b6009546001600160a01b0390811633036200020b57808216918215620005b257600880546001600160a01b031981169094179055604080516001600160a01b0394909316841683529216602082015230917f9dfcadd14a1ddfb19c51e84b87452ca32a43c5559e9750d1575c77105cdeac1e9190819081016200032b565b60405163bb0bac9960e01b8152600490fd5b346200021d5760003660031901126200021d5761ffff600181600154169080620005ee8362001f86565b92620005fe604051948562001cf2565b8084526200060c8162001f86565b602090601f190136868301376000925b6200063e575b604051602080825281906200063a9082018862001b6f565b0390f35b85831692828410156200069d5783600052600e825260018060a01b0360406000205416938651111562000687578481819584621fffe08b9560051b168a0101520116926200061c565b634e487b7160e01b600052603260045260246000fd5b5062000622565b346200021d5760003660031901126200021d576002546003546040516001600160a01b0391821692602092909190620006dd8262001c8a565b60045482526200076760055493600654906007548460085416856009541691604051946200071886620007108162002048565b038762001cf2565b87600b54169988600c541698600d5416996040519d8e9d8e61018099815201525160408d015260608c015260808b015260a08a015260c089015260e08801528061010088015286019062001c46565b926101208501526101408401526101608301520390f35b346200021d5760203660031901126200021d576200079b62001bae565b6009546001600160a01b03808216929190338490036200020b57821691821562000819576001600160a01b0319909116909117600955604080516001600160a01b03938416815292909116602083015230917ffa3a80ca0b89cc0c5a4222b7c3ccb90b6c27c41caf7160fbbdfff6af383509be91819081016200032b565b604051632bf75bc360e21b8152600490fd5b346200021d5760203660031901126200021d576020620008546200084e62001bae565b620021cb565b6040519015158152f35b346200021d5760603660031901126200021d576009546024359060443590600435906001600160a01b031633036200020b576005549260065460075492806005558260065584600755604051958652602086015260408501526060840152608083015260a08201527f3da82de6c2bc5f129738ac25c05bb8cfc545e7d1eee3532e4d627fa11a79d7d360c03092a2005b346200021d5760203660031901126200021d5760043560028110156200021d576020906001600160a01b0390620009259062001bf1565b5416604051908152f35b346200021d5760203660031901126200021d576004356000548110156200021d576200095d60209162001fd1565b905460405160039290921b1c6001600160a01b03168152f35b60203660031901126200021d576004356001600160401b0381116200021d57620009a590369060040162001dde565b6040810180519091906001600160a01b039081161562000a0f5762000a0d9281620009e362000a0793600354168260085416600254913390620022bb565b620009fa60608501516101608601515190620020f3565b91511630903390620022bb565b62002456565b005b6040516372146d6160e11b8152600490fd5b346200021d5760203660031901126200021d576004358015158091036200021d576009546001600160a01b031633036200020b5760ff19600f541660ff821617600f556040519081527fc08a1a38ceb2f9f45e15007131834153026896150e4400ab4000fd1b131fb1db60203092a2005b346200021d5760403660031901126200021d5762000aaf62001bae565b62000ab962001bc5565b6009546001600160a01b03929190831633036200020b57601060209081527f6e0956cda88cad152e89927e53611735b61a5c762d1428573c6931b0a5efcb0180547f8c6065603763fec3f5742441d3833f3f43b982453612d76adb39a885e3006b5f80549587166001600160a01b03198084168217909455600160005294871692861683179055604080519187168252928101939093529390921691810191909152606081019190915230907f496176475a2dae00bd3d276d1cc42e4a5584939544162e0b565de2c060ab046090608090a2005b346200021d5760403660031901126200021d576001600160401b036004358181116200021d5762000bc390369060040162001f9e565b6024926024359081116200021d5762000be190369060040162001f9e565b600954919490916001600160a01b031633036200020b5760005b83811062000c8e57505060005b81811062000c635750906200032b7f640a0a596c3bc7f91bc26965ed05efb8d3017a25c7b1822ba2ca3e33b2743cd5939262000c5260405194859460408652604086019162002183565b908382036020850152309662002183565b8062000c8762000c8162000c7b600194868a6200215d565b6200216e565b62002ddd565b0162000c08565b62000c9f62000c7b8286886200215d565b62000caa8162002235565b1562000cbb575b5060010162000bfb565b600054600160401b81101562000d09576001929162000ce4828562000d02940160005562001fd1565b90919060018060a01b038084549260031b9316831b921b1916179055565b9062000cb1565b83634e487b7160e01b60005260416004526000fd5b346200021d576003196020368201126200021d576001600160401b03600435116200021d5760043536036101e080928201126200021d57604051918201908282106001600160401b038311176200042a5760209160405260043560040135835262000d8e60246004350162001bdc565b8383015260431901126200021d5760405162000daa8162001c8a565b604460043501358152604082015260646004350135606082015260846004350135608082015260a4600435013560a082015262000dec60c46004350162001bdc565b60c082015262000e0160e46004350162001bdc565b60e082015261010460043501356001600160401b0381116200021d5762000e3090600436918135010162001d6c565b61010082015262000e476101246004350162001bdc565b61012082015262000e5e6101446004350162001bdc565b61014082015262000e756101646004350162001bdc565b61016082015261018460043501356001600160401b0381116200021d5736602382600435010112156200021d57600481813501013562000eb58162001f86565b9162000ec5604051938462001cf2565b81835260208301903660248460051b83600435010101116200021d57906024826004350101915b60248460051b826004350101018310620013b457858561018082015262000f196101a46004350162001bdc565b6101a082015262000f306101c46004350162001bdc565b6101c08201526009546001600160a01b031633036200020b5760ff600f5460081c16620013a357604081015162000f6662002db5565b9051905110620001f9576101808101515115620013915780516002556020810151600380546001600160a01b039283166001600160a01b0319918216179091556040830151516004556060830151600555608083015160065560a083015160075560c0830151600880549190931691161790556101008101518051906001600160401b0382116200042a57819062001000600a546200200b565b601f81116200134f575b50602090601f8311600114620012d157600092620012c5575b50508160011b916000199060031b1c191617600a555b6101c0810151600b80546001600160a01b039283166001600160a01b031991821617909155610120830151600c80549184169183169190911790556101a0830151600d80549190931691161790556101808101518051906001600160401b0382116200042a57600160401b82116200042a57602090600054836000558084106200129d575b50016000805260005b828110620012705783600160a01b600190036101408201511660106020526040600020906001600160601b0360a01b825416179055600160a01b600190036101608201511660016000526040600020906001600160601b0360a01b825416179055600160a01b6001900361014082015116600160a01b600190036101608301511691600160a01b6001900361012082015116600160a01b6001900360c08301511690600160a01b6001900360e08401511691600160a01b6001900360208501511692610180850151938551946040870151519160608801519360808901519560a08a0151976101008b01519a600160a01b60019003906101c00151169c6040519c8d5260208d015260408c015260608b015260808a015260a089015260c088016101c090526101c08801620011fc9162001b6f565b9460e08801526101008701526101208601526101408501526101608401528281036101808401526200122e9162001c46565b916101a0820152803092037fc64b9a847b39341155f2722900a6cae57a07be5c3844ac96e571451adebbba8791a261ff0019600f541661010017600f55600080f35b81516001600160a01b031660008051602062003acc833981519152820155602090910190600101620010c7565b620012be908460008051602062003acc833981519152918201910162002144565b84620010be565b01519050838062001023565b9250600a60005260008051602062003aac833981519152906000935b601f198416851062001333576001945083601f1981161062001319575b505050811b01600a5562001039565b015160001960f88460031b161c191690558380806200130a565b81810151835560209485019460019093019290910190620012ed565b6200138a90600a60005260008051602062003aac833981519152601f850160051c810191602086106200041f57601f0160051c019062002144565b846200100a565b60405163042ea06160e41b8152600490fd5b60405162dc149f60e41b8152600490fd5b602080602493620013c58662001bdc565b815201930192915062000eec565b6003196040368201126200021d576001600160401b036004358181116200021d576200140490369060040162001dde565b906024358181116200021d5760808482360301126200021d576040519160808301838110828211176200042a5760405281600401358181116200021d5762001453906004369185010162001d6c565b835260248201359081116200021d5762001474906004369184010162001d6c565b93602080840195865260448301359160ff831683036200021d57604085019283526064606086019401358452620014b760608701516101608801515190620020f3565b90818551106200170557908286899289600160a01b6001900395866003541687600854166002549033620014eb93620022bb565b84838b5190620014fb9162002117565b604051946200150a8662001cba565b600286526040368488013760405191620015248362001cba565b600283528a848401963660409089375116620015408862002125565b526200154c8362002125565b5230620015598762002133565b52620015658262002133565b5288600d54169460405198899763370377c160e21b8952600489016060905251606489016080905260e489016200159c9162001c46565b90518882036063190160848a0152620015b6919062001c46565b8c5160ff1660a48901528d5160c489015284888203016024890152620015dc9162001b6f565b92868403016044870152519182815201919060005b818110620016eb57505050600083809203925af1908115620016df5760009162001694575b50926200168062000a0d989360ff7f0b0bcdebd2813328a89a9ed5971e5863201ed78fc4e0e2b271cceddb9ce905109794620016729716988960408c015251955193511693519260405196879660808852608088019062001c46565b918683039087015262001c46565b91604084015260608301520390a262002456565b9050828181969399943d8311620016d7575b620016b2818362001cf2565b810103126200021d57519287841684036200021d579196909391926200168062001616565b503d620016a6565b6040513d6000823e3d90fd5b8251845289968896509384019390920191600101620015f1565b604051634f1f06eb60e11b8152600490fd5b346200021d5760003660031901126200021d5760006101606040516200173d8162001c6d565b828152826020820152604051620017548162001c8a565b83815260408201528260608201528260808201528260a08201528260c08201528260e0820152606061010082015282610120820152826101408201520152604051620017a08162001c6d565b60025481526003546001600160a01b03166020820152604051620017c48162001c8a565b60045481526040828101919091526005546060830152600654608083015260075460a08301526008546001600160a01b0390811660c08401526009541660e0830152516200181f81620018178162002048565b038262001cf2565b61010082015260018060a01b03600b541661012082015260018060a01b03600c541661014082015260018060a01b03600d54166101608201526040518091602082528051602083015260018060a01b036020820151166040830152604081015151606083015260608101516080830152608081015160a083015260a081015160c083015260018060a01b0360c08201511660e083015260018060a01b0360e082015116610100830152610100810151620018e961018091826101208601526101a085019062001c46565b6101208301516001600160a01b039081166101408681019190915284015181166101608087019190915290930151909216908301520390f35b346200021d5760203660031901126200021d576020620008546200194562001bae565b62002235565b346200021d5760403660031901126200021d576004356200196b62001bc5565b6009549091906001600160a01b0390811633036200020b57600254928160035491846002551692836001600160601b0360a01b831617600355604051948552602085015216604083015260608201527fe5e3a43374ffcb72d6c8bc5de7a34497ccb69d5c9a0aabb8f385a6cdadb41b7660803092a2005b346200021d5760203660031901126200021d57620019ff62001bae565b6009546001600160a01b039190821633036200020b57600c80548284166001600160a01b031982161790915560408051939091166001600160a01b039081168452909116602083015230917f091b3f94cfd0941ea363b9d775394718a0ce0fc4db3a645b78f2edc60df99d8b91819081016200032b565b346200021d5760003660031901126200021d57604051600080548083528180526020808401939260008051602062003acc83398151915292915b82821062001ae0576200063a8562001acb8189038262001cf2565b60405191829160208352602083019062001b6f565b83546001600160a01b03168652948501946001938401939091019062001ab0565b346200021d5760003660031901126200021d57602060ff600f5460081c166040519015158152f35b346200021d5760003660031901126200021d57602061ffff60015416604051908152f35b346200021d5760003660031901126200021d5760209060ff600f541615158152f35b90815180825260208080930193019160005b82811062001b90575050505090565b83516001600160a01b03168552938101939281019260010162001b81565b600435906001600160a01b03821682036200021d57565b602435906001600160a01b03821682036200021d57565b35906001600160a01b03821682036200021d57565b600281101562001c0b576000526010602052604060002090565b634e487b7160e01b600052602160045260246000fd5b60005b83811062001c355750506000910152565b818101518382015260200162001c24565b9060209162001c618151809281855285808601910162001c21565b601f01601f1916010190565b61018081019081106001600160401b038211176200042a57604052565b602081019081106001600160401b038211176200042a57604052565b6001600160401b0381116200042a57604052565b606081019081106001600160401b038211176200042a57604052565b604081019081106001600160401b038211176200042a57604052565b90601f801991011681019081106001600160401b038211176200042a57604052565b6001600160401b0381116200042a57601f01601f191660200190565b92919262001d3e8262001d14565b9162001d4e604051938462001cf2565b8294818452818301116200021d578281602093846000960137010152565b9080601f830112156200021d5781602062001d8a9335910162001d30565b90565b91908260409103126200021d57604080516001600160401b03918101828111828210176200042a57604052809380359081151582036200021d576020918352013591821682036200021d5760200152565b9190916101e0818403126200021d5760408051916101a094858401926001600160401b0393858110858211176200042a578152849662001e1e8462001bdc565b865260209162001e3083860162001bdc565b8388015262001e4181860162001bdc565b81880152606085013560608801526080850135608088015260a085013560a088015260c085013560c088015260e085013560e0880152610100808601358781116200021d5786019084828703126200021d5782519162001ea18362001c8a565b8035908982116200021d5762001eba9188910162001d6c565b825288015261012062001ed08582880162001d8d565b908801526101609162001ee68584880162001d8d565b6101408901528501358681116200021d578501926060848603126200021d5781519360608501858110898211176200042a578352803585528181013560038110156200021d578286015282810135908882116200021d57019085601f830112156200021d5781869162001f5c9335910162001d30565b908301528501526101c08201359283116200021d576101809262001f81920162001d6c565b910152565b6001600160401b0381116200042a5760051b60200190565b9181601f840112156200021d578235916001600160401b0383116200021d576020808501948460051b0101116200021d57565b90600091825481101562001ff75782805260008051602062003acc833981519152019190565b634e487b7160e01b83526032600452602483fd5b90600182811c921680156200203d575b60208310146200202757565b634e487b7160e01b600052602260045260246000fd5b91607f16916200201b565b600a54600092916200205a826200200b565b80825291602090600190818116908115620020cd57506001146200207f575b50505050565b92939450600a60005260008051602062003aac833981519152926000935b858510620020b957505050602092500101903880808062002079565b80548585018401529382019381016200209d565b92505050602093945060ff929192191683830152151560051b0101903880808062002079565b919082018092116200210157565b634e487b7160e01b600052601160045260246000fd5b919082039182116200210157565b805115620006875760200190565b805160011015620006875760400190565b81811062002150575050565b6000815560010162002144565b9190811015620006875760051b0190565b356001600160a01b03811681036200021d5790565b91908082526020809201929160005b828110620021a1575050505090565b909192938280600192838060a01b03620021bb8962001bdc565b1681520195019392910162002192565b6001805460009261ffff92918316825b620021eb575b5050505050600090565b838516818110156200222e576000908152600e60205260409020546001600160a01b03838116911614620022265793820183169382620021db565b505091505090565b50620021e1565b600090600054915b8281106200224d57505050600090565b620022588162001fd1565b905460039190911b1c6001600160a01b03908116908316146200227e576001016200223d565b505050600190565b3d15620022b6573d906200229a8262001d14565b91620022aa604051938462001cf2565b82523d6000602084013e565b606090565b929092811562002079576001600160a01b03908116938415620023775781163081036200232b57506040519263a9059cbb60e01b602085015216602483015260448201526044815260808101918183106001600160401b038411176200042a57620023299260405262002f24565b565b92604051936323b872dd60e01b6020860152602485015216604483015260648201526064815260a08101918183106001600160401b038411176200042a57620023299260405262002f24565b819392945016338114600014620023eb5750823403620023cc5716308114620023c857600080809381935af1620023ad62002286565b5015620023b657565b604051630c08bcb960e21b8152600490fd5b5050565b604051635693fffb60e01b815260048101849052346024820152604490fd5b3081036200240957506000809381938293165af1620023ad62002286565b6024906040519063463de9db60e01b82526004820152fd5b9081518152602082015191600383101562001c0b57604060609162001d8a946020850152015191816040820152019062001c46565b90600f549160ff6000931662002da35760608101511562002d915780516001600160a01b03161562002d7f5760208101516200249b906001600160a01b031662002235565b1562002d6d57602081015160408201516001600160a01b0390811691161462002d5b57610180810151604051620024f260208281620024e4818301968781519384920162001c21565b810103808452018262001cf2565b51902060405160208101908581600a54916200250e836200200b565b926001811690811562002d3e575060011462002cf0575b6200253a925003601f19810183528262001cf2565b5190200362002cde576101608101515162002c44575b610120810151511580159062002c34575b62002bea575b60a081015160c082015160e083015182421162002bd85781831162002bc65780821162002bb457816200259a9162002117565b6007541162002ba25781620025af9162002117565b6006541162002b9057620025c590429062002117565b6005541162002b7e57620025d98162002ed8565b6001600160a01b03620025ec8262001bf1565b541690811562002b44575060405190816104168101106001600160401b036104168401111762002b3057610416620030cb8339610416820190815260406020820181905281018590528190036060019084f060c05260c0511562002b0657604051806105cb8101106001600160401b036105cb8301111762002b1c576105cb620034e1823960c0516001600160a01b03166105cb82019081528190036020019084f0801562002b115760c0516001600160a01b03163b1562002b02576040805163a941a14f60e01b81526004810182905283516001600160a01b0390811660448301526020808601518216606484015292850151166084820152606084015160a4820152608084015160c482015260a084015160e482015260c084015161010482015260e08401516101248201526101008401516101e0610144830152516102248201929092528591829082908190620027cf90620027519061024484019062001c46565b61012089015180511515610164850152602001516001600160401b0316610184840152610140890151805115156101a4850152602001516001600160401b03166101c4840152620027b76101608a0151916043199283868303016101e487015262002421565b906101808a0151908483030161020485015262001c46565b6001600160a01b03878116602484015260c051929091039183918591165af1801562002b065762002aea575b5050620028356200281860608401516101608501515190620020f3565b604084015160c0516001600160a01b0390811691309116620022bb565b6001549161ffff8084161462002ad65761ffff19831661ffff84811660018181019092169290921790558552600e6020908152604080872060c05181546001600160a01b0319166001600160a01b0391821617909155908301518383015184516060860151610160870151805196015195979285169591851694929390921690600381101562002ac25762002a5457859697989950604051620028d88162001cd6565b60028152612b1960f11b60208201525b610120870151918251151599610140890151948551151594602001516001600160401b031695602001516001600160401b03169660a08b01519860c08c01519a60e08d01519c608001519d61010001515160805260405160a0526102609560a0515260a05160200152600160a01b6001900360c0511660a0516040015260a05160600152600160a01b600190031660a0516080015260a05160a0015260a05160c001528060a05160e0015260a05101620029a29162001c46565b9760a051610100015260a051610120015260a051610140015260a051610160015260a051610180015260a0516101a0015260a0516101c0015260a0516101e0015260a051810360a051610200015260805190620029ff9162001c46565b60a051810360a051610220015262002a179062002048565b9061ffff1660a0516102400152309060a051900360a051907f0ad7b420cc3ce273bebc56c1695ff7c0ef66b2dcaa462b1f81d9caadcbeaef8391a2565b60206101608701510151600381101562002ac2576001908798999a9b501460001462002a9d5760405162002a888162001cd6565b6002815261563360f01b6020820152620028e8565b60405162002aab8162001cd6565b60048152634145524f60e01b6020820152620028e8565b634e487b7160e01b8b52602160045260248bfd5b634e487b7160e01b85526011600452602485fd5b62002af59062001ca6565b62002b02578338620027fb565b8380fd5b6040513d84823e3d90fd5b6040513d85823e3d90fd5b634e487b7160e01b84526041600452602484fd5b634e487b7160e01b85526041600452602485fd5b80856002602493101562002b6b575060ff6040519163f001182560e01b8352166004820152fd5b634e487b7160e01b815260216004529050fd5b604051635bdfbd0360e11b8152600490fd5b6040516372904fb160e01b8152600490fd5b6040516318861b4960e01b8152600490fd5b6040516349f8456b60e11b8152600490fd5b604051633060050d60e21b8152600490fd5b6040516341f01d5760e01b8152600490fd5b600b546001600160a01b03161562002c225762002c0c61012082015162002e9b565b62002c1c61014082015162002e9b565b62002567565b6040516326d845c560e21b8152600490fd5b5061014081015151151562002561565b600c546001600160a01b0316801562002ccc5783610160830151823b1562002cc85762002c8f9260405180809581946302ff2b9b60e01b835260206004840152602483019062002421565b03915afa801562002cbd5762002ca7575b5062002550565b62002cb59093919362001ca6565b913862002ca0565b6040513d86823e3d90fd5b5080fd5b60405163d2b2a44160e01b8152600490fd5b604051635d0b6cc760e01b8152600490fd5b5050600a8752818760008051602062003aac8339815191525b83821062002d2357505060206200253a9282010162002525565b60209192508060019154838588010152019101839162002d09565b60ff19168652506200253a92801515028201602001905062002525565b604051638b1202a160e01b8152600490fd5b60405163cc3ca47b60e01b8152600490fd5b6040516332db94d160e21b8152600490fd5b604051634d5bb2d560e11b8152600490fd5b604051634051e96160e01b8152600490fd5b600060405162002dc58162001c8a565b5260405162002dd48162001c8a565b620f4240815290565b6000905b600054918281101562002e965762002df98162001fd1565b90546003946001600160a01b0392909190861b1c82168483161462002e25575050600101915062002de1565b90925060001991828201918211620021015762000ce48462002e4b62002e599462001fd1565b905490881b1c169162001fd1565b600054801562002e8057019162002e708362001fd1565b81939154921b1b19169055600055565b634e487b7160e01b600052603160045260246000fd5b505050565b80511515908162002ec1575b5062002eaf57565b604051632b39f6cb60e01b8152600490fd5b6001600160401b0391506020015116153862002ea7565b61012081015151159081159162002f13575b6101600151511515811562002f0a575b5062002f0557600090565b600190565b90503862002efa565b610140810151511515915062002eea565b60018060a01b03169062002f8960405162002f3f8162001cd6565b6020938482527f5361666545524332303a206c6f772d6c6576656c2063616c6c206661696c6564858301526000808587829751910182855af162002f8262002286565b9162003027565b80519182159184831562002ffd575b50505090501562002fa65750565b6084906040519062461bcd60e51b82526004820152602a60248201527f5361666545524332303a204552433230206f7065726174696f6e20646964206e6044820152691bdd081cdd58d8d9595960b21b6064820152fd5b91938180945001031262002cc8578201519081151582036200302457508038808462002f98565b80fd5b919290156200308c57508151156200303d575090565b3b15620030475790565b60405162461bcd60e51b815260206004820152601d60248201527f416464726573733a2063616c6c20746f206e6f6e2d636f6e74726163740000006044820152606490fd5b825190915015620030a05750805190602001fd5b60405162461bcd60e51b815260206004820152908190620030c690602483019062001c46565b0390fdfe604060808152610416908138038061001681610218565b93843982019181818403126102135780516001600160a01b038116808203610213576020838101516001600160401b0394919391858211610213570186601f820112156102135780519061007161006c83610253565b610218565b918083528583019886828401011161021357888661008f930161026e565b813b156101b9577f360894a13ba1a3210667c828492db98dca3e2076cc3735a920a3ca505d382bbc80546001600160a01b031916841790556000927fbc7cd75a20ee27fd9adebab32041f755214dbc6bffa90cc0225b39da2e5c2d3b8480a28051158015906101b2575b61010b575b855160d190816103458239f35b855194606086019081118682101761019e578697849283926101889952602788527f416464726573733a206c6f772d6c6576656c2064656c65676174652063616c6c87890152660819985a5b195960ca1b8a8901525190845af4913d15610194573d9061017a61006c83610253565b91825281943d92013e610291565b508038808080806100fe565b5060609250610291565b634e487b7160e01b84526041600452602484fd5b50826100f9565b855162461bcd60e51b815260048101859052602d60248201527f455243313936373a206e657720696d706c656d656e746174696f6e206973206e60448201526c1bdd08184818dbdb9d1c9858dd609a1b6064820152608490fd5b600080fd5b6040519190601f01601f191682016001600160401b0381118382101761023d57604052565b634e487b7160e01b600052604160045260246000fd5b6001600160401b03811161023d57601f01601f191660200190565b60005b8381106102815750506000910152565b8181015183820152602001610271565b919290156102f357508151156102a5575090565b3b156102ae5790565b60405162461bcd60e51b815260206004820152601d60248201527f416464726573733a2063616c6c20746f206e6f6e2d636f6e74726163740000006044820152606490fd5b8251909150156103065750805190602001fd5b6044604051809262461bcd60e51b825260206004830152610336815180928160248601526020868601910161026e565b601f01601f19168101030190fdfe608060405236156054577f360894a13ba1a3210667c828492db98dca3e2076cc3735a920a3ca505d382bbc54600090819081906001600160a01b0316368280378136915af43d82803e156050573d90f35b3d90fd5b7f360894a13ba1a3210667c828492db98dca3e2076cc3735a920a3ca505d382bbc54600090819081906001600160a01b0316368280378136915af43d82803e156050573d90f3fea26469706673582212207cca0a2ce4ae598423b90e213c43ff2272c2bf23338114cc8f5012f3499248e764736f6c6343000818003360a03461009557601f6105cb38819003918201601f19168301916001600160401b0383118484101761009a5780849260209460405283398101031261009557516001600160a01b03811680820361009557156100835760805260405161051a90816100b18239608051818181607e0152818160e1015281816101b701526102660152f35b604051635a3f066960e01b8152600490fd5b600080fd5b634e487b7160e01b600052604160045260246000fdfe6040608081526004908136101561001557600080fd5b60009160e08335811c90816316c1973914610333578163a3de7d1714610233578163c1ac10261461011457508063e82bb126146100cc5763fb33ce811461005b57600080fd5b346100c857816003193601126100c857610073610456565b6001600160a01b03917f0000000000000000000000000000000000000000000000000000000000000000831633036100ba5750168252816020526007602435918320015580f35b8351631a27eac360e11b8152fd5b8280fd5b505034610110578160031936011261011057517f00000000000000000000000000000000000000000000000000000000000000006001600160a01b03168152602090f35b5080fd5b848385346100c8576101203660031901126100c857610131610456565b9361010036602319011261022f57610147610471565b92602435845260208401906044358252610160366104c8565b848601908152606086016084358152602060a31936011261022b576101836104a8565b9160a43583526080880192835260a088019460c435865260c089019660e435885289019761010435895260018060a01b03807f000000000000000000000000000000000000000000000000000000000000000016330361021b5760079a9b9c168c528b6020528b2099518a555160018a0155515160028901555160038801555151908601555160058501555160068401555191015580f35b8151631a27eac360e11b81528790fd5b8780fd5b8380fd5b84848492346100c85760803660031901126100c857610250610456565b9061025a366104c8565b926001600160a01b03907f000000000000000000000000000000000000000000000000000000000000000082163303610324579585966007959661029c6104a8565b526102a56104a8565b908882526102b1610471565b976024358952602089016044358152828a0191825260608a019242845260808b0194855260a08b01968c885260c08c01988d8a528c01998d8b52168c528b6020528b2099518a555160018a0155515160028901555160038801555151908601555160058501555160068401555191015580f35b51631a27eac360e11b81528690fd5b9190503461022f57602036600319011261022f578261010094610354610456565b818561035e610471565b82815282602082015261036f6104a8565b838152868201528260608201526103846104a8565b838152608082015260a0810183905260c0810183905201526001600160a01b031681526020819052206103b5610471565b9381548552600182015492602086019384526103cf6104a8565b9160028401548352808701928352600384015490606088019182526103f26104a8565b9285015483526080880192835260058501549360a08901948552600760068701549660c08b01978852015496888a01978852825199518a525160208a0152515190880152516060870152515160808601525160a08501525160c08401525190820152f35b600435906001600160a01b038216820361046c57565b600080fd5b60405190610100820182811067ffffffffffffffff82111761049257604052565b634e487b7160e01b600052604160045260246000fd5b604051906020820182811067ffffffffffffffff82111761049257604052565b602090606319011261046c576104dc6104a8565b90606435825256fea2646970667358221220f9197761eae1a8839a6606c94eed8300af1b83793252e9badea713839d2d9ea864736f6c63430008180033c65a7bb8d6351c1cf70c95a316cc6a92839c986682d98bc35f958f4883f9d2a8290decd9548b62a8d60345a988386fc84ba6bc95484008f6362f93160ef3e563a2646970667358221220b77814d0f2b332b19a9b985e28af3de15461fa1b31cb34abaa66492e2a0f881e64736f6c63430008180033",
  "devdoc": {
    "kind": "dev",
    "methods": {},
    "version": 1
  },
  "userdoc": {
    "kind": "user",
    "methods": {},
    "version": 1
  },
  "storageLayout": {
    "storage": [
      {
        "astId": 12980,
        "contract": "src/StreamFactory.sol:StreamFactory",
        "label": "acceptedInSupplyTokens",
        "offset": 0,
        "slot": "0",
        "type": "t_array(t_address)dyn_storage"
      },
      {
        "astId": 12982,
        "contract": "src/StreamFactory.sol:StreamFactory",
        "label": "currentStreamId",
        "offset": 0,
        "slot": "1",
        "type": "t_uint16"
      },
      {
        "astId": 12985,
        "contract": "src/StreamFactory.sol:StreamFactory",
        "label": "params",
        "offset": 0,
        "slot": "2",
        "type": "t_struct(Params)17636_storage"
      },
      {
        "astId": 12989,
        "contract": "src/StreamFactory.sol:StreamFactory",
        "label": "streamAddresses",
        "offset": 0,
        "slot": "14",
        "type": "t_mapping(t_uint16,t_address)"
      },
      {
        "astId": 12991,
        "contract": "src/StreamFactory.sol:StreamFactory",
        "label": "frozen",
        "offset": 0,
        "slot": "15",
        "type": "t_bool"
      },
      {
        "astId": 12993,
        "contract": "src/StreamFactory.sol:StreamFactory",
        "label": "initialized",
        "offset": 1,
        "slot": "15",
        "type": "t_bool"
      },
      {
        "astId": 12998,
        "contract": "src/StreamFactory.sol:StreamFactory",
        "label": "implementations",
        "offset": 0,
        "slot": "16",
        "type": "t_mapping(t_enum(StreamImplKind)12977,t_address)"
      }
    ],
    "types": {
      "t_address": {
        "encoding": "inplace",
        "label": "address",
        "numberOfBytes": "20"
      },
      "t_array(t_address)dyn_storage": {
        "base": "t_address",
        "encoding": "dynamic_array",
        "label": "address[]",
        "numberOfBytes": "32"
      },
      "t_bool": {
        "encoding": "inplace",
        "label": "bool",
        "numberOfBytes": "1"
      },
      "t_enum(StreamImplKind)12977": {
        "encoding": "inplace",
        "label": "enum StreamFactory.StreamImplKind",
        "numberOfBytes": "1"
      },
      "t_mapping(t_enum(StreamImplKind)12977,t_address)": {
        "encoding": "mapping",
        "key": "t_enum(StreamImplKind)12977",
        "label": "mapping(enum StreamFactory.StreamImplKind => address)",
        "numberOfBytes": "32",
        "value": "t_address"
      },
      "t_mapping(t_uint16,t_address)": {
        "encoding": "mapping",
        "key": "t_uint16",
        "label": "mapping(uint16 => address)",
        "numberOfBytes": "32",
        "value": "t_address"
      },
      "t_string_storage": {
        "encoding": "bytes",
        "label": "string",
        "numberOfBytes": "32"
      },
      "t_struct(Decimal)16353_storage": {
        "encoding": "inplace",
        "label": "struct Decimal",
        "members": [
          {
            "astId": 16352,
            "contract": "src/StreamFactory.sol:StreamFactory",
            "label": "value",
            "offset": 0,
            "slot": "0",
            "type": "t_uint256"
          }
        ],
        "numberOfBytes": "32"
      },
      "t_struct(Params)17636_storage": {
        "encoding": "inplace",
        "label": "struct StreamFactoryTypes.Params",
        "members": [
          {
            "astId": 17612,
            "contract": "src/StreamFactory.sol:StreamFactory",
            "label": "streamCreationFee",
            "offset": 0,
            "slot": "0",
            "type": "t_uint256"
          },
          {
            "astId": 17614,
            "contract": "src/StreamFactory.sol:StreamFactory",
            "label": "streamCreationFeeToken",
            "offset": 0,
            "slot": "1",
            "type": "t_address"
          },
          {
            "astId": 17617,
            "contract": "src/StreamFactory.sol:StreamFactory",
            "label": "exitFeeRatio",
            "offset": 0,
            "slot": "2",
            "type": "t_struct(Decimal)16353_storage"
          },
          {
            "astId": 17619,
            "contract": "src/StreamFactory.sol:StreamFactory",
            "label": "minWaitingDuration",
            "offset": 0,
            "slot": "3",
            "type": "t_uint256"
          },
          {
            "astId": 17621,
            "contract": "src/StreamFactory.sol:StreamFactory",
            "label": "minBootstrappingDuration",
            "offset": 0,
            "slot": "4",
            "type": "t_uint256"
          },
          {
            "astId": 17623,
            "contract": "src/StreamFactory.sol:StreamFactory",
            "label": "minStreamDuration",
            "offset": 0,
            "slot": "5",
            "type": "t_uint256"
          },
          {
            "astId": 17625,
            "contract": "src/StreamFactory.sol:StreamFactory",
            "label": "feeCollector",
            "offset": 0,
            "slot": "6",
            "type": "t_address"
          },
          {
            "astId": 17627,
            "contract": "src/StreamFactory.sol:StreamFactory",
            "label": "protocolAdmin",
            "offset": 0,
            "slot": "7",
            "type": "t_address"
          },
          {
            "astId": 17629,
            "contract": "src/StreamFactory.sol:StreamFactory",
            "label": "tosVersion",
            "offset": 0,
            "slot": "8",
            "type": "t_string_storage"
          },
          {
            "astId": 17631,
            "contract": "src/StreamFactory.sol:StreamFactory",
            "label": "vestingFactoryAddress",
            "offset": 0,
            "slot": "9",
            "type": "t_address"
          },
          {
            "astId": 17633,
            "contract": "src/StreamFactory.sol:StreamFactory",
            "label": "poolRouterAddress",
            "offset": 0,
            "slot": "10",
            "type": "t_address"
          },
          {
            "astId": 17635,
            "contract": "src/StreamFactory.sol:StreamFactory",
            "label": "tokenFactoryAddress",
            "offset": 0,
            "slot": "11",
            "type": "t_address"
          }
        ],
        "numberOfBytes": "384"
      },
      "t_uint16": {
        "encoding": "inplace",
        "label": "uint16",
        "numberOfBytes": "2"
      },
      "t_uint256": {
        "encoding": "inplace",
        "label": "uint256",
        "numberOfBytes": "32"
      }
    }
  }
}