{
  "address": "0x122Af4F6C6Dd19b0515055F3DC7b0C2B736512D4",
  "abi": [
    {
      "inputs": [
        {
          "internalType": "address",
          "name": "protocolAdmin",
          "type": "address"
        }
      ],
      "stateMutability": "nonpayable",
      "type": "constructor"
    },
    {
      "inputs": [],
      "name": "AlreadyInitialized",
      "type": "error"
    },
    {
      "inputs": [],
      "name": "BootstrappingDurationTooShort",
      "type": "error"
    },
    {
      "inputs": [],
      "name": "ContractFrozen",
      "type": "error"
    },
    {
      "inputs": [
        {
          "internalType": "uint8",
          "name": "kind",
          "type": "uint8"
        }
      ],
      "name": "ImplementationNotSet",
      "type": "error"
    },
    {
      "inputs": [
        {
          "internalType": "uint256",
          "name": "expected",
          "type": "uint256"
        },
        {
          "internalType": "uint256",
          "name": "actual",
          "type": "uint256"
        }
      ],
      "name": "IncorrectNativeAmount",
      "type": "error"
    },
    {
      "inputs": [],
      "name": "InvalidAcceptedInSupplyTokens",
      "type": "error"
    },
    {
      "inputs": [],
      "name": "InvalidBootstrappingStartTime",
      "type": "error"
    },
    {
      "inputs": [],
      "name": "InvalidBootstrappingTime",
      "type": "error"
    },
    {
      "inputs": [],
      "name": "InvalidCreator",
      "type": "error"
    },
    {
      "inputs": [],
      "name": "InvalidDexType",
      "type": "error"
    },
    {
      "inputs": [],
      "name": "InvalidExitFeeRatio",
      "type": "error"
    },
    {
      "inputs": [],
      "name": "InvalidFeeCollector",
      "type": "error"
    },
    {
      "inputs": [],
      "name": "InvalidImplementationAddress",
      "type": "error"
    },
    {
      "inputs": [
        {
          "internalType": "address",
          "name": "from",
          "type": "address"
        }
      ],
      "name": "InvalidNativePayer",
      "type": "error"
    },
    {
      "inputs": [],
      "name": "InvalidOutSupplyToken",
      "type": "error"
    },
    {
      "inputs": [],
      "name": "InvalidProtocolAdmin",
      "type": "error"
    },
    {
      "inputs": [],
      "name": "InvalidStreamCreationFeeToken",
      "type": "error"
    },
    {
      "inputs": [],
      "name": "InvalidStreamEndTime",
      "type": "error"
    },
    {
      "inputs": [],
      "name": "InvalidStreamImplementationAddress",
      "type": "error"
    },
    {
      "inputs": [],
      "name": "InvalidStreamStartTime",
      "type": "error"
    },
    {
      "inputs": [],
      "name": "InvalidToSVersion",
      "type": "error"
    },
    {
      "inputs": [],
      "name": "InvalidTokenDecimals",
      "type": "error"
    },
    {
      "inputs": [],
      "name": "InvalidTokenName",
      "type": "error"
    },
    {
      "inputs": [],
      "name": "InvalidTokenSupply",
      "type": "error"
    },
    {
      "inputs": [],
      "name": "InvalidTokenSymbol",
      "type": "error"
    },
    {
      "inputs": [],
      "name": "InvalidTokenTotalSupply",
      "type": "error"
    },
    {
      "inputs": [],
      "name": "InvalidVestingDuration",
      "type": "error"
    },
    {
      "inputs": [],
      "name": "NativeTokenTransferFailed",
      "type": "error"
    },
    {
      "inputs": [],
      "name": "NotAdmin",
      "type": "error"
    },
    {
      "inputs": [],
      "name": "PoolRouterNotSet",
      "type": "error"
    },
    {
      "inputs": [],
      "name": "SameInputAndOutputToken",
      "type": "error"
    },
    {
      "inputs": [],
      "name": "StreamAddressPredictionFailed",
      "type": "error"
    },
    {
      "inputs": [],
      "name": "StreamDurationTooShort",
      "type": "error"
    },
    {
      "inputs": [],
      "name": "StreamEndMustBeAfterStart",
      "type": "error"
    },
    {
      "inputs": [],
      "name": "StreamInputTokenNotAccepted",
      "type": "error"
    },
    {
      "inputs": [],
      "name": "StreamStartMustBeAfterBootstrapping",
      "type": "error"
    },
    {
      "inputs": [],
      "name": "TokenTransferFailed",
      "type": "error"
    },
    {
      "inputs": [],
      "name": "VestingFactoryNotSet",
      "type": "error"
    },
    {
      "inputs": [],
      "name": "WaitingDurationTooShort",
      "type": "error"
    },
    {
      "inputs": [],
      "name": "ZeroOutSupplyNotAllowed",
      "type": "error"
    },
    {
      "anonymous": false,
      "inputs": [
        {
          "indexed": true,
          "internalType": "address",
          "name": "factory",
          "type": "address"
        },
        {
          "indexed": false,
          "internalType": "address[]",
          "name": "tokensAdded",
          "type": "address[]"
        },
        {
          "indexed": false,
          "internalType": "address[]",
          "name": "tokensRemoved",
          "type": "address[]"
        }
      ],
      "name": "AcceptedTokensUpdated",
      "type": "event"
    },
    {
      "anonymous": false,
      "inputs": [
        {
          "indexed": true,
          "internalType": "address",
          "name": "factory",
          "type": "address"
        },
        {
          "indexed": false,
          "internalType": "uint256",
          "name": "oldRatio",
          "type": "uint256"
        },
        {
          "indexed": false,
          "internalType": "uint256",
          "name": "newRatio",
          "type": "uint256"
        }
      ],
      "name": "ExitFeeRatioUpdated",
      "type": "event"
    },
    {
      "anonymous": false,
      "inputs": [
        {
          "indexed": true,
          "internalType": "address",
          "name": "factory",
          "type": "address"
        },
        {
          "indexed": false,
          "internalType": "address",
          "name": "basicImplementationAddress",
          "type": "address"
        },
        {
          "indexed": false,
          "internalType": "address",
          "name": "postActionsImplementationAddress",
          "type": "address"
        },
        {
          "indexed": false,
          "internalType": "address",
          "name": "poolRouterAddress",
          "type": "address"
        },
        {
          "indexed": false,
          "internalType": "address",
          "name": "feeCollector",
          "type": "address"
        },
        {
          "indexed": false,
          "internalType": "address",
          "name": "protocolAdmin",
          "type": "address"
        },
        {
          "indexed": false,
          "internalType": "address",
          "name": "streamCreationFeeToken",
          "type": "address"
        },
        {
          "indexed": false,
          "internalType": "address[]",
          "name": "acceptedInSupplyTokens",
          "type": "address[]"
        },
        {
          "indexed": false,
          "internalType": "uint256",
          "name": "streamCreationFee",
          "type": "uint256"
        },
        {
          "indexed": false,
          "internalType": "uint256",
          "name": "exitFeeRatio",
          "type": "uint256"
        },
        {
          "indexed": false,
          "internalType": "uint256",
          "name": "minWaitingDuration",
          "type": "uint256"
        },
        {
          "indexed": false,
          "internalType": "uint256",
          "name": "minBootstrappingDuration",
          "type": "uint256"
        },
        {
          "indexed": false,
          "internalType": "uint256",
          "name": "minStreamDuration",
          "type": "uint256"
        },
        {
          "indexed": false,
          "internalType": "string",
          "name": "tosVersion",
          "type": "string"
        },
        {
          "indexed": false,
          "internalType": "address",
          "name": "vestingAddress",
          "type": "address"
        }
      ],
      "name": "FactoryInitialized",
      "type": "event"
    },
    {
      "anonymous": false,
      "inputs": [
        {
          "indexed": true,
          "internalType": "address",
          "name": "factory",
          "type": "address"
        },
        {
          "indexed": false,
          "internalType": "address",
          "name": "oldFeeCollector",
          "type": "address"
        },
        {
          "indexed": false,
          "internalType": "address",
          "name": "newFeeCollector",
          "type": "address"
        }
      ],
      "name": "FeeCollectorUpdated",
      "type": "event"
    },
    {
      "anonymous": false,
      "inputs": [
        {
          "indexed": true,
          "internalType": "address",
          "name": "factory",
          "type": "address"
        },
        {
          "indexed": false,
          "internalType": "bool",
          "name": "frozen",
          "type": "bool"
        }
      ],
      "name": "FrozenStateUpdated",
      "type": "event"
    },
    {
      "anonymous": false,
      "inputs": [
        {
          "indexed": true,
          "internalType": "address",
          "name": "factory",
          "type": "address"
        },
        {
          "indexed": false,
          "internalType": "address",
          "name": "oldBasic",
          "type": "address"
        },
        {
          "indexed": false,
          "internalType": "address",
          "name": "newBasic",
          "type": "address"
        },
        {
          "indexed": false,
          "internalType": "address",
          "name": "oldPostActions",
          "type": "address"
        },
        {
          "indexed": false,
          "internalType": "address",
          "name": "newPostActions",
          "type": "address"
        }
      ],
      "name": "ImplementationParametersUpdated",
      "type": "event"
    },
    {
      "anonymous": false,
      "inputs": [
        {
          "indexed": true,
          "internalType": "address",
          "name": "factory",
          "type": "address"
        },
        {
          "indexed": false,
          "internalType": "address",
          "name": "oldPoolRouter",
          "type": "address"
        },
        {
          "indexed": false,
          "internalType": "address",
          "name": "newPoolRouter",
          "type": "address"
        }
      ],
      "name": "PoolRouterUpdated",
      "type": "event"
    },
    {
      "anonymous": false,
      "inputs": [
        {
          "indexed": true,
          "internalType": "address",
          "name": "factory",
          "type": "address"
        },
        {
          "indexed": false,
          "internalType": "address",
          "name": "oldProtocolAdmin",
          "type": "address"
        },
        {
          "indexed": false,
          "internalType": "address",
          "name": "newProtocolAdmin",
          "type": "address"
        }
      ],
      "name": "ProtocolAdminUpdated",
      "type": "event"
    },
    {
      "anonymous": false,
      "inputs": [
        {
          "indexed": true,
          "internalType": "address",
          "name": "streamFactoryAddress",
          "type": "address"
        },
        {
          "indexed": false,
          "internalType": "address",
          "name": "streamOutToken",
          "type": "address"
        },
        {
          "indexed": false,
          "internalType": "address",
          "name": "streamInToken",
          "type": "address"
        },
        {
          "indexed": false,
          "internalType": "address",
          "name": "streamAddress",
          "type": "address"
        },
        {
          "indexed": false,
          "internalType": "address",
          "name": "creator",
          "type": "address"
        },
        {
          "indexed": false,
          "internalType": "address",
          "name": "positionStorageAddress",
          "type": "address"
        },
        {
          "indexed": false,
          "internalType": "uint256",
          "name": "streamOutAmount",
          "type": "uint256"
        },
        {
          "indexed": false,
          "internalType": "uint256",
          "name": "poolOutSupplyAmount",
          "type": "uint256"
        },
        {
          "indexed": false,
          "internalType": "string",
          "name": "dexType",
          "type": "string"
        },
        {
          "indexed": false,
          "internalType": "bool",
          "name": "isCreatorVestingEnabled",
          "type": "bool"
        },
        {
          "indexed": false,
          "internalType": "bool",
          "name": "isBeneficiaryVestingEnabled",
          "type": "bool"
        },
        {
          "indexed": false,
          "internalType": "uint64",
          "name": "creatorVestingDuration",
          "type": "uint64"
        },
        {
          "indexed": false,
          "internalType": "uint64",
          "name": "beneficiaryVestingDuration",
          "type": "uint64"
        },
        {
          "indexed": false,
          "internalType": "uint256",
          "name": "bootstrappingStartTime",
          "type": "uint256"
        },
        {
          "indexed": false,
          "internalType": "uint256",
          "name": "streamStartTime",
          "type": "uint256"
        },
        {
          "indexed": false,
          "internalType": "uint256",
          "name": "streamEndTime",
          "type": "uint256"
        },
        {
          "indexed": false,
          "internalType": "uint256",
          "name": "threshold",
          "type": "uint256"
        },
        {
          "indexed": false,
          "internalType": "string",
          "name": "metadataIpfsHash",
          "type": "string"
        },
        {
          "indexed": false,
          "internalType": "string",
          "name": "tosVersion",
          "type": "string"
        },
        {
          "indexed": false,
          "internalType": "bytes32",
          "name": "whitelistRoot",
          "type": "bytes32"
        },
        {
          "indexed": false,
          "internalType": "uint16",
          "name": "streamId",
          "type": "uint16"
        }
      ],
      "name": "StreamCreated",
      "type": "event"
    },
    {
      "anonymous": false,
      "inputs": [
        {
          "indexed": true,
          "internalType": "address",
          "name": "factory",
          "type": "address"
        },
        {
          "indexed": false,
          "internalType": "uint256",
          "name": "oldFee",
          "type": "uint256"
        },
        {
          "indexed": false,
          "internalType": "uint256",
          "name": "newFee",
          "type": "uint256"
        },
        {
          "indexed": false,
          "internalType": "address",
          "name": "oldFeeToken",
          "type": "address"
        },
        {
          "indexed": false,
          "internalType": "address",
          "name": "newFeeToken",
          "type": "address"
        }
      ],
      "name": "StreamFeeParametersUpdated",
      "type": "event"
    },
    {
      "anonymous": false,
      "inputs": [
        {
          "indexed": true,
          "internalType": "address",
          "name": "factory",
          "type": "address"
        },
        {
          "indexed": false,
          "internalType": "uint256",
          "name": "oldMinWaitingDuration",
          "type": "uint256"
        },
        {
          "indexed": false,
          "internalType": "uint256",
          "name": "newMinWaitingDuration",
          "type": "uint256"
        },
        {
          "indexed": false,
          "internalType": "uint256",
          "name": "oldMinBootstrappingDuration",
          "type": "uint256"
        },
        {
          "indexed": false,
          "internalType": "uint256",
          "name": "newMinBootstrappingDuration",
          "type": "uint256"
        },
        {
          "indexed": false,
          "internalType": "uint256",
          "name": "oldMinStreamDuration",
          "type": "uint256"
        },
        {
          "indexed": false,
          "internalType": "uint256",
          "name": "newMinStreamDuration",
          "type": "uint256"
        }
      ],
      "name": "TimingParametersUpdated",
      "type": "event"
    },
    {
      "anonymous": false,
      "inputs": [
        {
          "indexed": true,
          "internalType": "address",
          "name": "token",
          "type": "address"
        },
        {
          "indexed": false,
          "internalType": "string",
          "name": "name",
          "type": "string"
        },
        {
          "indexed": false,
          "internalType": "string",
          "name": "symbol",
          "type": "string"
        },
        {
          "indexed": false,
          "internalType": "uint8",
          "name": "decimals",
          "type": "uint8"
        },
        {
          "indexed": false,
          "internalType": "uint256",
          "name": "totalSupply",
          "type": "uint256"
        }
      ],
      "name": "TokenCreated",
      "type": "event"
    },
    {
      "anonymous": false,
      "inputs": [
        {
          "indexed": true,
          "internalType": "address",
          "name": "factory",
          "type": "address"
        },
        {
          "indexed": false,
          "internalType": "string",
          "name": "oldVersion",
          "type": "string"
        },
        {
          "indexed": false,
          "internalType": "string",
          "name": "newVersion",
          "type": "string"
        }
      ],
      "name": "TosVersionUpdated",
      "type": "event"
    },
    {
      "anonymous": false,
      "inputs": [
        {
          "indexed": true,
          "internalType": "address",
          "name": "factory",
          "type": "address"
        },
        {
          "indexed": false,
          "internalType": "address",
          "name": "oldVestingFactory",
          "type": "address"
        },
        {
          "indexed": false,
          "internalType": "address",
          "name": "newVestingFactory",
          "type": "address"
        }
      ],
      "name": "VestingFactoryUpdated",
      "type": "event"
    },
    {
      "inputs": [
        {
          "internalType": "uint256",
          "name": "",
          "type": "uint256"
        }
      ],
      "name": "acceptedInSupplyTokens",
      "outputs": [
        {
          "internalType": "address",
          "name": "",
          "type": "address"
        }
      ],
      "stateMutability": "view",
      "type": "function"
    },
    {
      "inputs": [
        {
          "components": [
            {
              "internalType": "address",
              "name": "creator",
              "type": "address"
            },
            {
              "internalType": "address",
              "name": "inSupplyToken",
              "type": "address"
            },
            {
              "internalType": "address",
              "name": "outSupplyToken",
              "type": "address"
            },
            {
              "internalType": "uint256",
              "name": "streamOutAmount",
              "type": "uint256"
            },
            {
              "internalType": "uint256",
              "name": "threshold",
              "type": "uint256"
            },
            {
              "internalType": "uint256",
              "name": "bootstrappingStartTime",
              "type": "uint256"
            },
            {
              "internalType": "uint256",
              "name": "streamStartTime",
              "type": "uint256"
            },
            {
              "internalType": "uint256",
              "name": "streamEndTime",
              "type": "uint256"
            },
            {
              "components": [
                {
                  "internalType": "string",
                  "name": "ipfsHash",
                  "type": "string"
                }
              ],
              "internalType": "struct StreamTypes.StreamMetadata",
              "name": "metadata",
              "type": "tuple"
            },
            {
              "components": [
                {
                  "internalType": "bool",
                  "name": "isVestingEnabled",
                  "type": "bool"
                },
                {
                  "internalType": "uint64",
                  "name": "vestingDuration",
                  "type": "uint64"
                }
              ],
              "internalType": "struct StreamTypes.VestingInfo",
              "name": "creatorVesting",
              "type": "tuple"
            },
            {
              "components": [
                {
                  "internalType": "bool",
                  "name": "isVestingEnabled",
                  "type": "bool"
                },
                {
                  "internalType": "uint64",
                  "name": "vestingDuration",
                  "type": "uint64"
                }
              ],
              "internalType": "struct StreamTypes.VestingInfo",
              "name": "beneficiaryVesting",
              "type": "tuple"
            },
            {
              "components": [
                {
                  "internalType": "uint256",
                  "name": "poolOutSupplyAmount",
                  "type": "uint256"
                },
                {
                  "internalType": "enum StreamTypes.DexType",
                  "name": "dexType",
                  "type": "uint8"
                },
                {
                  "internalType": "bytes",
                  "name": "extra",
                  "type": "bytes"
                }
              ],
              "internalType": "struct StreamTypes.PoolInfo",
              "name": "poolInfo",
              "type": "tuple"
            },
            {
              "internalType": "string",
              "name": "tosVersion",
              "type": "string"
            },
            {
              "internalType": "bytes32",
              "name": "whitelistRoot",
              "type": "bytes32"
            }
          ],
          "internalType": "struct StreamTypes.CreateStreamMessage",
          "name": "createStreamMessage",
          "type": "tuple"
        }
      ],
      "name": "createStream",
      "outputs": [],
      "stateMutability": "payable",
      "type": "function"
    },
    {
      "inputs": [
        {
          "components": [
            {
              "internalType": "address",
              "name": "creator",
              "type": "address"
            },
            {
              "internalType": "address",
              "name": "inSupplyToken",
              "type": "address"
            },
            {
              "internalType": "address",
              "name": "outSupplyToken",
              "type": "address"
            },
            {
              "internalType": "uint256",
              "name": "streamOutAmount",
              "type": "uint256"
            },
            {
              "internalType": "uint256",
              "name": "threshold",
              "type": "uint256"
            },
            {
              "internalType": "uint256",
              "name": "bootstrappingStartTime",
              "type": "uint256"
            },
            {
              "internalType": "uint256",
              "name": "streamStartTime",
              "type": "uint256"
            },
            {
              "internalType": "uint256",
              "name": "streamEndTime",
              "type": "uint256"
            },
            {
              "components": [
                {
                  "internalType": "string",
                  "name": "ipfsHash",
                  "type": "string"
                }
              ],
              "internalType": "struct StreamTypes.StreamMetadata",
              "name": "metadata",
              "type": "tuple"
            },
            {
              "components": [
                {
                  "internalType": "bool",
                  "name": "isVestingEnabled",
                  "type": "bool"
                },
                {
                  "internalType": "uint64",
                  "name": "vestingDuration",
                  "type": "uint64"
                }
              ],
              "internalType": "struct StreamTypes.VestingInfo",
              "name": "creatorVesting",
              "type": "tuple"
            },
            {
              "components": [
                {
                  "internalType": "bool",
                  "name": "isVestingEnabled",
                  "type": "bool"
                },
                {
                  "internalType": "uint64",
                  "name": "vestingDuration",
                  "type": "uint64"
                }
              ],
              "internalType": "struct StreamTypes.VestingInfo",
              "name": "beneficiaryVesting",
              "type": "tuple"
            },
            {
              "components": [
                {
                  "internalType": "uint256",
                  "name": "poolOutSupplyAmount",
                  "type": "uint256"
                },
                {
                  "internalType": "enum StreamTypes.DexType",
                  "name": "dexType",
                  "type": "uint8"
                },
                {
                  "internalType": "bytes",
                  "name": "extra",
                  "type": "bytes"
                }
              ],
              "internalType": "struct StreamTypes.PoolInfo",
              "name": "poolInfo",
              "type": "tuple"
            },
            {
              "internalType": "string",
              "name": "tosVersion",
              "type": "string"
            },
            {
              "internalType": "bytes32",
              "name": "whitelistRoot",
              "type": "bytes32"
            }
          ],
          "internalType": "struct StreamTypes.CreateStreamMessage",
          "name": "createStreamMessage",
          "type": "tuple"
        },
        {
          "components": [
            {
              "internalType": "string",
              "name": "name",
              "type": "string"
            },
            {
              "internalType": "string",
              "name": "symbol",
              "type": "string"
            },
            {
              "internalType": "uint8",
              "name": "decimals",
              "type": "uint8"
            },
            {
              "internalType": "uint256",
              "name": "totalSupply",
              "type": "uint256"
            }
          ],
          "internalType": "struct StreamTypes.TokenCreationInfo",
          "name": "tokenCreationInfo",
          "type": "tuple"
        }
      ],
      "name": "createStreamWithTokenCreation",
      "outputs": [],
      "stateMutability": "payable",
      "type": "function"
    },
    {
      "inputs": [],
      "name": "currentStreamId",
      "outputs": [
        {
          "internalType": "uint16",
          "name": "",
          "type": "uint16"
        }
      ],
      "stateMutability": "view",
      "type": "function"
    },
    {
      "inputs": [],
      "name": "frozen",
      "outputs": [
        {
          "internalType": "bool",
          "name": "",
          "type": "bool"
        }
      ],
      "stateMutability": "view",
      "type": "function"
    },
    {
      "inputs": [],
      "name": "getAcceptedInSupplyTokens",
      "outputs": [
        {
          "internalType": "address[]",
          "name": "",
          "type": "address[]"
        }
      ],
      "stateMutability": "view",
      "type": "function"
    },
    {
      "inputs": [
        {
          "internalType": "enum StreamFactory.StreamImplKind",
          "name": "kind",
          "type": "uint8"
        }
      ],
      "name": "getImplementation",
      "outputs": [
        {
          "internalType": "address",
          "name": "",
          "type": "address"
        }
      ],
      "stateMutability": "view",
      "type": "function"
    },
    {
      "inputs": [],
      "name": "getParams",
      "outputs": [
        {
          "components": [
            {
              "internalType": "uint256",
              "name": "streamCreationFee",
              "type": "uint256"
            },
            {
              "internalType": "address",
              "name": "streamCreationFeeToken",
              "type": "address"
            },
            {
              "components": [
                {
                  "internalType": "uint256",
                  "name": "value",
                  "type": "uint256"
                }
              ],
              "internalType": "struct Decimal",
              "name": "exitFeeRatio",
              "type": "tuple"
            },
            {
              "internalType": "uint256",
              "name": "minWaitingDuration",
              "type": "uint256"
            },
            {
              "internalType": "uint256",
              "name": "minBootstrappingDuration",
              "type": "uint256"
            },
            {
              "internalType": "uint256",
              "name": "minStreamDuration",
              "type": "uint256"
            },
            {
              "internalType": "address",
              "name": "feeCollector",
              "type": "address"
            },
            {
              "internalType": "address",
              "name": "protocolAdmin",
              "type": "address"
            },
            {
              "internalType": "string",
              "name": "tosVersion",
              "type": "string"
            },
            {
              "internalType": "address",
              "name": "vestingFactoryAddress",
              "type": "address"
            },
            {
              "internalType": "address",
              "name": "poolRouterAddress",
              "type": "address"
            },
            {
              "internalType": "address",
              "name": "tokenFactoryAddress",
              "type": "address"
            }
          ],
          "internalType": "struct StreamFactoryTypes.Params",
          "name": "",
          "type": "tuple"
        }
      ],
      "stateMutability": "view",
      "type": "function"
    },
    {
      "inputs": [
        {
          "internalType": "uint16",
          "name": "streamId",
          "type": "uint16"
        }
      ],
      "name": "getStream",
      "outputs": [
        {
          "internalType": "address",
          "name": "",
          "type": "address"
        }
      ],
      "stateMutability": "view",
      "type": "function"
    },
    {
      "inputs": [],
      "name": "getStreams",
      "outputs": [
        {
          "internalType": "address[]",
          "name": "",
          "type": "address[]"
        }
      ],
      "stateMutability": "view",
      "type": "function"
    },
    {
      "inputs": [
        {
          "internalType": "enum StreamFactory.StreamImplKind",
          "name": "",
          "type": "uint8"
        }
      ],
      "name": "implementations",
      "outputs": [
        {
          "internalType": "address",
          "name": "",
          "type": "address"
        }
      ],
      "stateMutability": "view",
      "type": "function"
    },
    {
      "inputs": [
        {
          "components": [
            {
              "internalType": "uint256",
              "name": "streamCreationFee",
              "type": "uint256"
            },
            {
              "internalType": "address",
              "name": "streamCreationFeeToken",
              "type": "address"
            },
            {
              "components": [
                {
                  "internalType": "uint256",
                  "name": "value",
                  "type": "uint256"
                }
              ],
              "internalType": "struct Decimal",
              "name": "exitFeeRatio",
              "type": "tuple"
            },
            {
              "internalType": "uint256",
              "name": "minWaitingDuration",
              "type": "uint256"
            },
            {
              "internalType": "uint256",
              "name": "minBootstrappingDuration",
              "type": "uint256"
            },
            {
              "internalType": "uint256",
              "name": "minStreamDuration",
              "type": "uint256"
            },
            {
              "internalType": "address",
              "name": "feeCollector",
              "type": "address"
            },
            {
              "internalType": "address",
              "name": "protocolAdmin",
              "type": "address"
            },
            {
              "internalType": "string",
              "name": "tosVersion",
              "type": "string"
            },
            {
              "internalType": "address",
              "name": "poolRouterAddress",
              "type": "address"
            },
            {
              "internalType": "address",
              "name": "basicImplementationAddress",
              "type": "address"
            },
            {
              "internalType": "address",
              "name": "postActionsImplementationAddress",
              "type": "address"
            },
            {
              "internalType": "address[]",
              "name": "acceptedInSupplyTokens",
              "type": "address[]"
            },
            {
              "internalType": "address",
              "name": "tokenFactoryAddress",
              "type": "address"
            },
            {
              "internalType": "address",
              "name": "vestingFactoryAddress",
              "type": "address"
            }
          ],
          "internalType": "struct StreamFactoryTypes.InitializeStreamFactoryMessage",
          "name": "initializeStreamFactoryMessage",
          "type": "tuple"
        }
      ],
      "name": "initialize",
      "outputs": [],
      "stateMutability": "nonpayable",
      "type": "function"
    },
    {
      "inputs": [],
      "name": "initialized",
      "outputs": [
        {
          "internalType": "bool",
          "name": "",
          "type": "bool"
        }
      ],
      "stateMutability": "view",
      "type": "function"
    },
    {
      "inputs": [
        {
          "internalType": "address",
          "name": "token",
          "type": "address"
        }
      ],
      "name": "isAcceptedInSupplyToken",
      "outputs": [
        {
          "internalType": "bool",
          "name": "",
          "type": "bool"
        }
      ],
      "stateMutability": "view",
      "type": "function"
    },
    {
      "inputs": [
        {
          "internalType": "address",
          "name": "streamAddress",
          "type": "address"
        }
      ],
      "name": "isStream",
      "outputs": [
        {
          "internalType": "bool",
          "name": "",
          "type": "bool"
        }
      ],
      "stateMutability": "view",
      "type": "function"
    },
    {
      "inputs": [],
      "name": "params",
      "outputs": [
        {
          "internalType": "uint256",
          "name": "streamCreationFee",
          "type": "uint256"
        },
        {
          "internalType": "address",
          "name": "streamCreationFeeToken",
          "type": "address"
        },
        {
          "components": [
            {
              "internalType": "uint256",
              "name": "value",
              "type": "uint256"
            }
          ],
          "internalType": "struct Decimal",
          "name": "exitFeeRatio",
          "type": "tuple"
        },
        {
          "internalType": "uint256",
          "name": "minWaitingDuration",
          "type": "uint256"
        },
        {
          "internalType": "uint256",
          "name": "minBootstrappingDuration",
          "type": "uint256"
        },
        {
          "internalType": "uint256",
          "name": "minStreamDuration",
          "type": "uint256"
        },
        {
          "internalType": "address",
          "name": "feeCollector",
          "type": "address"
        },
        {
          "internalType": "address",
          "name": "protocolAdmin",
          "type": "address"
        },
        {
          "internalType": "string",
          "name": "tosVersion",
          "type": "string"
        },
        {
          "internalType": "address",
          "name": "vestingFactoryAddress",
          "type": "address"
        },
        {
          "internalType": "address",
          "name": "poolRouterAddress",
          "type": "address"
        },
        {
          "internalType": "address",
          "name": "tokenFactoryAddress",
          "type": "address"
        }
      ],
      "stateMutability": "view",
      "type": "function"
    },
    {
      "inputs": [
        {
          "internalType": "bool",
          "name": "isFrozen",
          "type": "bool"
        }
      ],
      "name": "setFrozen",
      "outputs": [],
      "stateMutability": "nonpayable",
      "type": "function"
    },
    {
      "inputs": [
        {
          "internalType": "uint16",
          "name": "",
          "type": "uint16"
        }
      ],
      "name": "streamAddresses",
      "outputs": [
        {
          "internalType": "address",
          "name": "",
          "type": "address"
        }
      ],
      "stateMutability": "view",
      "type": "function"
    },
    {
      "inputs": [
        {
          "internalType": "address[]",
          "name": "tokensToAdd",
          "type": "address[]"
        },
        {
          "internalType": "address[]",
          "name": "tokensToRemove",
          "type": "address[]"
        }
      ],
      "name": "updateAcceptedTokens",
      "outputs": [],
      "stateMutability": "nonpayable",
      "type": "function"
    },
    {
      "inputs": [
        {
          "components": [
            {
              "internalType": "uint256",
              "name": "value",
              "type": "uint256"
            }
          ],
          "internalType": "struct Decimal",
          "name": "exitFeeRatio",
          "type": "tuple"
        }
      ],
      "name": "updateExitFeeRatio",
      "outputs": [],
      "stateMutability": "nonpayable",
      "type": "function"
    },
    {
      "inputs": [
        {
          "internalType": "address",
          "name": "feeCollector",
          "type": "address"
        }
      ],
      "name": "updateFeeCollector",
      "outputs": [],
      "stateMutability": "nonpayable",
      "type": "function"
    },
    {
      "inputs": [
        {
          "internalType": "address",
          "name": "basicImplementation",
          "type": "address"
        },
        {
          "internalType": "address",
          "name": "postActionsImplementation",
          "type": "address"
        }
      ],
      "name": "updateImplementationParameters",
      "outputs": [],
      "stateMutability": "nonpayable",
      "type": "function"
    },
    {
      "inputs": [
        {
          "internalType": "address",
          "name": "newPoolRouter",
          "type": "address"
        }
      ],
      "name": "updatePoolRouterAddress",
      "outputs": [],
      "stateMutability": "nonpayable",
      "type": "function"
    },
    {
      "inputs": [
        {
          "internalType": "address",
          "name": "protocolAdmin",
          "type": "address"
        }
      ],
      "name": "updateProtocolAdmin",
      "outputs": [],
      "stateMutability": "nonpayable",
      "type": "function"
    },
    {
      "inputs": [
        {
          "internalType": "uint256",
          "name": "streamCreationFee",
          "type": "uint256"
        },
        {
          "internalType": "address",
          "name": "streamCreationFeeToken",
          "type": "address"
        }
      ],
      "name": "updateStreamFeeParameters",
      "outputs": [],
      "stateMutability": "nonpayable",
      "type": "function"
    },
    {
      "inputs": [
        {
          "internalType": "uint256",
          "name": "minWaitingDuration",
          "type": "uint256"
        },
        {
          "internalType": "uint256",
          "name": "minBootstrappingDuration",
          "type": "uint256"
        },
        {
          "internalType": "uint256",
          "name": "minStreamDuration",
          "type": "uint256"
        }
      ],
      "name": "updateTimingParameters",
      "outputs": [],
      "stateMutability": "nonpayable",
      "type": "function"
    },
    {
      "inputs": [
        {
          "internalType": "string",
          "name": "tosVersion",
          "type": "string"
        }
      ],
      "name": "updateTosVersion",
      "outputs": [],
      "stateMutability": "nonpayable",
      "type": "function"
    },
    {
      "inputs": [
        {
          "internalType": "address",
          "name": "newVestingFactory",
          "type": "address"
        }
      ],
      "name": "updateVestingFactoryAddress",
      "outputs": [],
      "stateMutability": "nonpayable",
      "type": "function"
    }
  ],
  "transactionHash": "0x19afc682ca9d2eb3276977176a67b2c7dcac41ad6c9bdfc35d581faefb9085d5",
  "args": [
    "0xB4eE189569597EFDB3bB48DB5ede8394d1D48e7b"
  ],
  "numDeployments": 1,
  "solcInputHash": "c3da1d20f0d84d2dc5bc2d628e18df5c",
  "bytecode": "0x6080346200009357601f62003c8438819003918201601f19168301916001600160401b0383118484101762000098578084926020946040528339810103126200009357516001600160a01b03811690819003620000935780156200008157600980546001600160a01b031916919091179055604051613bd59081620000af8239f35b604051632bf75bc360e21b8152600490fd5b600080fd5b634e487b7160e01b600052604160045260246000fdfe6101208060405260043610156200001557600080fd5b60003560e01c908163054f7d9c1462001b4e5750806314d98de51462001b2a578063158ef93e1462001b0257806333907d1e1462001a775780633f87606b14620019e357806343b3a755146200194c5780635429caa014620008ef5780635a91b3b214620019235780635e615a6b14620017185780637442cedf1462001063578063774ef43b14620004415780637c526bb31462000ed25780637df43e6b1462000dd75780637e932d321462000d6657806390f220531462000cbd57806397de9a0f14620009775780639a5934db1462000930578063a761641914620008ef578063aff28a50146200085f578063bfb79224146200082c578063c1d3be8b146200077f578063cff0ab9614620006a5578063d04fed6314620005c5578063d2c35ce81462000518578063d7ad9fb21462000484578063e899f3d71462000441578063f21e200614620002235763fd05bcc2146200017157600080fd5b346200021e5760203660031901126200021e57604051620001928162001c8b565b60043581526009546001600160a01b031633036200020c57620001b46200228e565b8151905110620001fa5760045490518060045560405191825260208201527f326958908570a55d99765cc1010988df2265655c7a936bce8d1fe32c15104cde60403092a2005b604051632aa4e67b60e01b8152600490fd5b604051637bfa4b9f60e01b8152600490fd5b600080fd5b346200021e576020806003193601126200021e576001600160401b036004358181116200021e576200025a90369060040162001d6d565b6009549092906001600160a01b031633036200020c57604051916200028c83620002848162002050565b038462001cf3565b83519081116200042b57620002a3600a5462002013565b601f8111620003de575b5081601f82116001146200033d576200031c92827fba76badb4a7b68ae64606b0dd84000b21f0b2e70c206e63dce6f39be5fe6bc2195936200032c9360009162000331575b508160011b916000199060031b1c191617600a555b60405193849360408552604085019062001c47565b9083820390840152309562001c47565b0390a2005b905087015188620002f2565b601f19821690600a60005260008051602062003b608339815191529160005b818110620003c65750836200032c936200031c96937fba76badb4a7b68ae64606b0dd84000b21f0b2e70c206e63dce6f39be5fe6bc21989660019410620003ac575b5050811b01600a5562000307565b89015160001960f88460031b161c1916905588806200039e565b91928560018192868b0151815501940192016200035c565b6200041990600a60005260008051602062003b60833981519152601f840160051c81019185851062000420575b601f0160051c0190620020fb565b84620002ad565b90915081906200040b565b634e487b7160e01b600052604160045260246000fd5b346200021e5760203660031901126200021e5760043561ffff81168091036200021e57600052600e602052602060018060a01b0360406000205416604051908152f35b346200021e5760203660031901126200021e57620004a162001baf565b6009546001600160a01b039190821633036200020c57600b80548284166001600160a01b031982161790915560408051939091166001600160a01b039081168452909116602083015230917f74cbcae24ac10f22f24abd8fd578ecda5af867f37f9ff962aa548f9b035e44bd91819081016200032c565b346200021e5760203660031901126200021e576200053562001baf565b6009546001600160a01b0390811633036200020c57808216918215620005b357600880546001600160a01b031981169094179055604080516001600160a01b0394909316841683529216602082015230917f9dfcadd14a1ddfb19c51e84b87452ca32a43c5559e9750d1575c77105cdeac1e9190819081016200032c565b60405163bb0bac9960e01b8152600490fd5b346200021e5760003660031901126200021e5761ffff600181600154169080620005ef8362001d8e565b92620005ff604051948562001cf3565b8084526200060d8162001d8e565b602090601f190136868301376000925b6200063f575b604051602080825281906200063b9082018862001b70565b0390f35b85831692828410156200069e5783600052600e825260018060a01b0360406000205416938651111562000688578481819584621fffe08b9560051b168a0101520116926200061d565b634e487b7160e01b600052603260045260246000fd5b5062000623565b346200021e5760003660031901126200021e576002546003546040516001600160a01b0391821692602092909190620006de8262001c8b565b60045482526200076860055493600654906007548460085416856009541691604051946200071986620007118162002050565b038762001cf3565b87600b54169988600c541698600d5416996040519d8e9d8e61018099815201525160408d015260608c015260808b015260a08a015260c089015260e08801528061010088015286019062001c47565b926101208501526101408401526101608301520390f35b346200021e5760203660031901126200021e576200079c62001baf565b6009546001600160a01b03808216929190338490036200020c5782169182156200081a576001600160a01b0319909116909117600955604080516001600160a01b03938416815292909116602083015230917ffa3a80ca0b89cc0c5a4222b7c3ccb90b6c27c41caf7160fbbdfff6af383509be91819081016200032c565b604051632bf75bc360e21b8152600490fd5b346200021e5760203660031901126200021e576020620008556200084f62001baf565b620021d3565b6040519015158152f35b346200021e5760603660031901126200021e576009546024359060443590600435906001600160a01b031633036200020c576005549260065460075492806005558260065584600755604051958652602086015260408501526060840152608083015260a08201527f3da82de6c2bc5f129738ac25c05bb8cfc545e7d1eee3532e4d627fa11a79d7d360c03092a2005b346200021e5760203660031901126200021e5760043560028110156200021e576020906001600160a01b0390620009269062001bf2565b5416604051908152f35b346200021e5760203660031901126200021e576004356000548110156200021e576200095e60209162001fd9565b905460405160039290921b1c6001600160a01b03168152f35b6003196040368201126200021e576001600160401b036004358181116200021e57620009a890369060040162001e2a565b906024358181116200021e5760808482360301126200021e576040519160808301838110828211176200042b5760405281600401358181116200021e57620009f7906004369185010162001d6d565b835260248201359081116200021e5762000a18906004369184010162001d6d565b93602080840195865260448301359160ff831683036200021e5760408501928352606460608601940135845262000a5b6060870151610160880151519062002182565b908185511062000cab57908286899289600160a01b600190039586600354168760085416600254903362000a8f93620023a9565b84838b519062000a9f91620021a6565b6040519462000aae8662001cbb565b60028652604036848801376040519162000ac88362001cbb565b600283528a84840196366040908937511662000ae488620021b4565b5262000af083620021b4565b523062000afd87620021c2565b5262000b0982620021c2565b5288600d54169460405198899763370377c160e21b8952600489016060905251606489016080905260e4890162000b409162001c47565b90518882036063190160848a015262000b5a919062001c47565b8c5160ff1660a48901528d5160c48901528488820301602489015262000b809162001b70565b92868403016044870152519182815201919060005b81811062000c9157505050600083809203925af190811562000c855760009162000c3a575b509262000c2462000c38989360ff7f0b0bcdebd2813328a89a9ed5971e5863201ed78fc4e0e2b271cceddb9ce90510979462000c169716988960408c015251955193511693519260405196879660808852608088019062001c47565b918683039087015262001c47565b91604084015260608301520390a262002544565b005b9050828181969399943d831162000c7d575b62000c58818362001cf3565b810103126200021e57519287841684036200021e5791969093919262000c2462000bba565b503d62000c4c565b6040513d6000823e3d90fd5b825184528996889650938401939092019160010162000b95565b604051634f1f06eb60e11b8152600490fd5b60203660031901126200021e576004356001600160401b0381116200021e5762000cec90369060040162001e2a565b6040810180519091906001600160a01b039081161562000d545762000c38928162000d2a62000d4e93600354168260085416600254913390620023a9565b62000d416060850151610160860151519062002182565b91511630903390620023a9565b62002544565b6040516372146d6160e11b8152600490fd5b346200021e5760203660031901126200021e576004358015158091036200021e576009546001600160a01b031633036200020c5760ff19600f541660ff821617600f556040519081527fc08a1a38ceb2f9f45e15007131834153026896150e4400ab4000fd1b131fb1db60203092a2005b346200021e5760403660031901126200021e5762000df462001baf565b62000dfe62001bc6565b6009546001600160a01b03929190831633036200020c57601060209081527f6e0956cda88cad152e89927e53611735b61a5c762d1428573c6931b0a5efcb0180547f8c6065603763fec3f5742441d3833f3f43b982453612d76adb39a885e3006b5f80549587166001600160a01b03198084168217909455600160005294871692861683179055604080519187168252928101939093529390921691810191909152606081019190915230907f496176475a2dae00bd3d276d1cc42e4a5584939544162e0b565de2c060ab046090608090a2005b346200021e5760403660031901126200021e576001600160401b036004358181116200021e5762000f0890369060040162001da6565b6024926024359081116200021e5762000f2690369060040162001da6565b600954919490916001600160a01b031633036200020c5760005b83811062000fd357505060005b81811062000fa85750906200032c7f640a0a596c3bc7f91bc26965ed05efb8d3017a25c7b1822ba2ca3e33b2743cd5939262000f976040519485946040865260408601916200213a565b90838203602085015230966200213a565b8062000fcc62000fc662000fc0600194868a62002114565b62002125565b620022b6565b0162000f4d565b62000fe462000fc082868862002114565b62000fef816200223d565b1562001000575b5060010162000f40565b600054600160401b8110156200104e576001929162001029828562001047940160005562001fd9565b90919060018060a01b038084549260031b9316831b921b1916179055565b9062000ff6565b83634e487b7160e01b60005260416004526000fd5b346200021e576003196020368201126200021e576001600160401b03600435116200021e5760043536036101e080928201126200021e57604051918201908282106001600160401b038311176200042b57602091604052600435600401358352620010d360246004350162001bdd565b8383015260431901126200021e57604051620010ef8162001c8b565b604460043501358152604082015260646004350135606082015260846004350135608082015260a4600435013560a08201526200113160c46004350162001bdd565b60c08201526200114660e46004350162001bdd565b60e082015261010460043501356001600160401b0381116200021e576200117590600436918135010162001d6d565b6101008201526200118c6101246004350162001bdd565b610120820152620011a36101446004350162001bdd565b610140820152620011ba6101646004350162001bdd565b61016082015261018460043501356001600160401b0381116200021e5736602382600435010112156200021e576004818135010135620011fa8162001d8e565b916200120a604051938462001cf3565b81835260208301903660248460051b83600435010101116200021e57906024826004350101915b60248460051b826004350101018310620016f95785856101808201526200125e6101a46004350162001bdd565b6101a0820152620012756101c46004350162001bdd565b6101c08201526009546001600160a01b031633036200020c5760ff600f5460081c16620016e8576040810151620012ab6200228e565b9051905110620001fa576101808101515115620016d65780516002556020810151600380546001600160a01b039283166001600160a01b0319918216179091556040830151516004556060830151600555608083015160065560a083015160075560c0830151600880549190931691161790556101008101518051906001600160401b0382116200042b57819062001345600a5462002013565b601f811162001694575b50602090601f831160011462001616576000926200160a575b50508160011b916000199060031b1c191617600a555b6101c0810151600b80546001600160a01b039283166001600160a01b031991821617909155610120830151600c80549184169183169190911790556101a0830151600d80549190931691161790556101808101518051906001600160401b0382116200042b57600160401b82116200042b5760209060005483600055808410620015e2575b50016000805260005b828110620015b55783600160a01b600190036101408201511660106020526040600020906001600160601b0360a01b825416179055600160a01b600190036101608201511660016000526040600020906001600160601b0360a01b825416179055600160a01b6001900361014082015116600160a01b600190036101608301511691600160a01b6001900361012082015116600160a01b6001900360c08301511690600160a01b6001900360e08401511691600160a01b6001900360208501511692610180850151938551946040870151519160608801519360808901519560a08a0151976101008b01519a600160a01b60019003906101c00151169c6040519c8d5260208d015260408c015260608b015260808a015260a089015260c088016101c090526101c08801620015419162001b70565b9460e0880152610100870152610120860152610140850152610160840152828103610180840152620015739162001c47565b916101a0820152803092037fc64b9a847b39341155f2722900a6cae57a07be5c3844ac96e571451adebbba8791a261ff0019600f541661010017600f55600080f35b81516001600160a01b031660008051602062003b808339815191528201556020909101906001016200140c565b62001603908460008051602062003b808339815191529182019101620020fb565b8462001403565b01519050838062001368565b9250600a60005260008051602062003b60833981519152906000935b601f198416851062001678576001945083601f198116106200165e575b505050811b01600a556200137e565b015160001960f88460031b161c191690558380806200164f565b8181015183556020948501946001909301929091019062001632565b620016cf90600a60005260008051602062003b60833981519152601f850160051c810191602086106200042057601f0160051c0190620020fb565b846200134f565b60405163042ea06160e41b8152600490fd5b60405162dc149f60e41b8152600490fd5b6020806024936200170a8662001bdd565b815201930192915062001231565b346200021e5760003660031901126200021e5760006101606040516200173e8162001c6e565b828152826020820152604051620017558162001c8b565b83815260408201528260608201528260808201528260a08201528260c08201528260e0820152606061010082015282610120820152826101408201520152604051620017a18162001c6e565b60025481526003546001600160a01b03166020820152604051620017c58162001c8b565b60045481526040828101919091526005546060830152600654608083015260075460a08301526008546001600160a01b0390811660c08401526009541660e0830152516200182081620018188162002050565b038262001cf3565b61010082015260018060a01b03600b541661012082015260018060a01b03600c541661014082015260018060a01b03600d54166101608201526040518091602082528051602083015260018060a01b036020820151166040830152604081015151606083015260608101516080830152608081015160a083015260a081015160c083015260018060a01b0360c08201511660e083015260018060a01b0360e082015116610100830152610100810151620018ea61018091826101208601526101a085019062001c47565b6101208301516001600160a01b039081166101408681019190915284015181166101608087019190915290930151909216908301520390f35b346200021e5760203660031901126200021e576020620008556200194662001baf565b6200223d565b346200021e5760403660031901126200021e576004356200196c62001bc6565b6009549091906001600160a01b0390811633036200020c57600254928160035491846002551692836001600160601b0360a01b831617600355604051948552602085015216604083015260608201527fe5e3a43374ffcb72d6c8bc5de7a34497ccb69d5c9a0aabb8f385a6cdadb41b7660803092a2005b346200021e5760203660031901126200021e5762001a0062001baf565b6009546001600160a01b039190821633036200020c57600c80548284166001600160a01b031982161790915560408051939091166001600160a01b039081168452909116602083015230917f091b3f94cfd0941ea363b9d775394718a0ce0fc4db3a645b78f2edc60df99d8b91819081016200032c565b346200021e5760003660031901126200021e57604051600080548083528180526020808401939260008051602062003b8083398151915292915b82821062001ae1576200063b8562001acc8189038262001cf3565b60405191829160208352602083019062001b70565b83546001600160a01b03168652948501946001938401939091019062001ab1565b346200021e5760003660031901126200021e57602060ff600f5460081c166040519015158152f35b346200021e5760003660031901126200021e57602061ffff60015416604051908152f35b346200021e5760003660031901126200021e5760209060ff600f541615158152f35b90815180825260208080930193019160005b82811062001b91575050505090565b83516001600160a01b03168552938101939281019260010162001b82565b600435906001600160a01b03821682036200021e57565b602435906001600160a01b03821682036200021e57565b35906001600160a01b03821682036200021e57565b600281101562001c0c576000526010602052604060002090565b634e487b7160e01b600052602160045260246000fd5b60005b83811062001c365750506000910152565b818101518382015260200162001c25565b9060209162001c628151809281855285808601910162001c22565b601f01601f1916010190565b61018081019081106001600160401b038211176200042b57604052565b602081019081106001600160401b038211176200042b57604052565b6001600160401b0381116200042b57604052565b606081019081106001600160401b038211176200042b57604052565b604081019081106001600160401b038211176200042b57604052565b90601f801991011681019081106001600160401b038211176200042b57604052565b6001600160401b0381116200042b57601f01601f191660200190565b92919262001d3f8262001d15565b9162001d4f604051938462001cf3565b8294818452818301116200021e578281602093846000960137010152565b9080601f830112156200021e5781602062001d8b9335910162001d31565b90565b6001600160401b0381116200042b5760051b60200190565b9181601f840112156200021e578235916001600160401b0383116200021e576020808501948460051b0101116200021e57565b91908260409103126200021e57604080516001600160401b03918101828111828210176200042b57604052809380359081151582036200021e576020918352013591821682036200021e5760200152565b9190610200838203126200021e5760408051916101c0948584016001600160401b0390858110828211176200042b578452849662001e688362001bdd565b8652602062001e7981850162001bdd565b8188015262001e8a86850162001bdd565b86880152606084013560608801526080840135608088015260a084013560a088015260c084013560c088015260e084013560e0880152610100808501358481116200021e5785019082828803126200021e5787519162001eea8362001c8b565b8035908682116200021e5762001f039189910162001d6d565b825288015261012062001f198682870162001dd9565b9088015261016062001f2e8682870162001dd9565b6101408901526101a096878601358581116200021e578601926060848903126200021e5781519360608501858110888211176200042b578352803585528181013560038110156200021e578286015282810135908782116200021e57019088601f830112156200021e5781899162001fa99335910162001d31565b908301528701528201359081116200021e576101e09262001fcc91830162001d6d565b6101808501520135910152565b90600091825481101562001fff5782805260008051602062003b80833981519152019190565b634e487b7160e01b83526032600452602483fd5b90600182811c9216801562002045575b60208310146200202f57565b634e487b7160e01b600052602260045260246000fd5b91607f169162002023565b600a5460009291620020628262002013565b80825291602090600190818116908115620020d5575060011462002087575b50505050565b92939450600a60005260008051602062003b60833981519152926000935b858510620020c157505050602092500101903880808062002081565b8054858501840152938201938101620020a5565b92505050602093945060ff929192191683830152151560051b0101903880808062002081565b81811062002107575050565b60008155600101620020fb565b9190811015620006885760051b0190565b356001600160a01b03811681036200021e5790565b91908082526020809201929160005b82811062002158575050505090565b909192938280600192838060a01b03620021728962001bdd565b1681520195019392910162002149565b919082018092116200219057565b634e487b7160e01b600052601160045260246000fd5b919082039182116200219057565b805115620006885760200190565b805160011015620006885760400190565b6001805460009261ffff92918316825b620021f3575b5050505050600090565b8385168181101562002236576000908152600e60205260409020546001600160a01b038381169116146200222e5793820183169382620021e3565b505091505090565b50620021e9565b600090600054915b8281106200225557505050600090565b620022608162001fd9565b905460039190911b1c6001600160a01b0390811690831614620022865760010162002245565b505050600190565b60006040516200229e8162001c8b565b52604051620022ad8162001c8b565b620f4240815290565b6000905b60005491828110156200236f57620022d28162001fd9565b90546003946001600160a01b0392909190861b1c821684831614620022fe5750506001019150620022ba565b909250600019918282019182116200219057620010298462002324620023329462001fd9565b905490881b1c169162001fd9565b600054801562002359570191620023498362001fd9565b81939154921b1b19169055600055565b634e487b7160e01b600052603160045260246000fd5b505050565b3d15620023a4573d90620023888262001d15565b9162002398604051938462001cf3565b82523d6000602084013e565b606090565b929092811562002081576001600160a01b03908116938415620024655781163081036200241957506040519263a9059cbb60e01b602085015216602483015260448201526044815260808101918183106001600160401b038411176200042b57620024179260405262002fd4565b565b92604051936323b872dd60e01b6020860152602485015216604483015260648201526064815260a08101918183106001600160401b038411176200042b57620024179260405262002fd4565b819392945016338114600014620024d95750823403620024ba5716308114620024b657600080809381935af16200249b62002374565b5015620024a457565b604051630c08bcb960e21b8152600490fd5b5050565b604051635693fffb60e01b815260048101849052346024820152604490fd5b308103620024f757506000809381938293165af16200249b62002374565b6024906040519063463de9db60e01b82526004820152fd5b9081518152602082015191600383101562001c0c57604060609162001d8b946020850152015191816040820152019062001c47565b600f549060ff6000921662002f395760608101511562002f275780516001600160a01b03161562002f1557602081015162002588906001600160a01b03166200223d565b1562002f0357602081015160408201516001600160a01b0390811691161462002ef157610180810151604051620025df60208281620025d1818301968781519384920162001c22565b810103808452018262001cf3565b519020604051600a548185620025f58362002013565b926001811690811562002ed1575060011462002e83575b62002621925003601f19810183528262001cf3565b602081519101200362002e71576101608101515162002de4575b610120810151511580159062002dd4575b62002d8a575b60a081015160c082015160e083015182421162002d785781831162002d665780821162002d5457816200268591620021a6565b6007541162002d4257816200269a91620021a6565b6006541162002d3057620026b0904290620021a6565b6005541162002d1e57620026c48162002f88565b6001600160a01b03620026d78262001bf2565b541690811562002ce4575060405190816104168101106001600160401b036104168401111762002cd0576104166200317f8339610416820190815260406020820181905281018490528190036060019083f090811562002cc557604051806105cb8101106001600160401b036105cb8301111762002cd0576105cb6200359582396001600160a01b0383166105cb82019081528190036020019084f061010052610100511562002cc5576001600160a01b0382163b1562002cb657604080516361bc1e3960e11b81526004810182905282516001600160a01b0390811660448301526020808501518216606484015292840151166084820152606083015160a4820152608083015160c482015260a083015160e482015260c083015161010482015260e08301516101248201526101008301516102006101448301525161024482019290925290849082908190620028b8906200283a9061026484019062001c47565b61012087015180511515610164850152602001516001600160401b0316610184840152610140870151805115156101a4850152602001516001600160401b03166101c4840152620028a0610160880151916043199283868303016101e48701526200250f565b90610180880151908483030161020485015262001c47565b6101a0860151610224830152610100516001600160a01b039081166024840152919003908290849088165af1801562002cba5790849162002c9e575b50506200292b620029116060830151610160840151519062002182565b60408301516001600160a01b0385811691309116620023a9565b60015460c05261ffff8060c051161462002c8a5760c05161ffff19811661ffff9182166001818101909316919091179091558352600e6020908152604080852080546001600160a01b0319166001600160a01b038681169190911790915590830151838301518451831660e05260608501516101608601518051950151918416979290931695939190600381101562002c765762002bfa5750604051620029d28162001cd7565b60028152612b1960f11b6020820152945b610120850151958651151596610140870151918251151591602001516001600160401b031692602001516001600160401b03169360a08901519560c08a01519760e08b01519960808c01519b610100810151516080526101a001519d60405160a0526102809460a0515260a05160200152600160a01b600190031660a0516040015260e05160a05160600152600160a01b60019003610100511660a0516080015260a05160a0015260a05160c001528060a05160e0015260a0510162002aa99162001c47565b9760a051610100015260a051610120015260a051610140015260a051610160015260a051610180015260a0516101a0015260a0516101c0015260a0516101e0015260a051810360a05161020001526080519062002b069162001c47565b9060a051820360a0516102200152600091600a549062002b268262002013565b808252916001811690811562002bd8575060011462002b87575b505061024060a051015261ffff60c0511661026060a05101527f113b6c9ea83b58c24ebfb582e95251bf352ea3b37691d2d9ae265cacb643c1c5309160a051900360a051a2565b90919250600a60005260008051602062003b60833981519152906000915b83831062002bbd575060209250010190388062002b40565b60018160209294939454838587010152019101919062002ba5565b9050602093945060ff929192191683830152151560051b010190388062002b40565b6020610160860151015190600382101562002c62575060010362002c3d5760405162002c268162001cd7565b6002815261563360f01b60208201525b94620029e3565b60405162002c4b8162001cd7565b60048152634145524f60e01b602082015262002c36565b634e487b7160e01b81526021600452602490fd5b634e487b7160e01b82526021600452602482fd5b634e487b7160e01b83526011600452602483fd5b62002ca99062001ca7565b62002cb6578238620028f4565b8280fd5b6040513d86823e3d90fd5b6040513d84823e3d90fd5b634e487b7160e01b84526041600452602484fd5b80846002602493101562002d0b575060ff6040519163f001182560e01b8352166004820152fd5b634e487b7160e01b815260216004529050fd5b604051635bdfbd0360e11b8152600490fd5b6040516372904fb160e01b8152600490fd5b6040516318861b4960e01b8152600490fd5b6040516349f8456b60e11b8152600490fd5b604051633060050d60e21b8152600490fd5b6040516341f01d5760e01b8152600490fd5b600b546001600160a01b03161562002dc25762002dac61012082015162002f4b565b62002dbc61014082015162002f4b565b62002652565b6040516326d845c560e21b8152600490fd5b506101408101515115156200264c565b600c549091906001600160a01b0316801562002e5f5761016083015190803b1562002cb65762002e3491839160405180809581946302ff2b9b60e01b83526020600484015260248301906200250f565b03915afa801562002cc55762002e4d575b50906200263b565b62002e589062001ca7565b3862002e45565b60405163d2b2a44160e01b8152600490fd5b604051635d0b6cc760e01b8152600490fd5b5050600a8552818560008051602062003b608339815191525b83821062002eb6575050602062002621928201016200260c565b60209192508060019154838588010152019101839162002e9c565b602092506200262194915060ff191682840152801515028201016200260c565b604051638b1202a160e01b8152600490fd5b60405163cc3ca47b60e01b8152600490fd5b6040516332db94d160e21b8152600490fd5b604051634d5bb2d560e11b8152600490fd5b604051634051e96160e01b8152600490fd5b80511515908162002f71575b5062002f5f57565b604051632b39f6cb60e01b8152600490fd5b6001600160401b0391506020015116153862002f57565b61012081015151159081159162002fc3575b6101600151511515811562002fba575b5062002fb557600090565b600190565b90503862002faa565b610140810151511515915062002f9a565b60018060a01b0316906200303960405162002fef8162001cd7565b6020938482527f5361666545524332303a206c6f772d6c6576656c2063616c6c206661696c6564858301526000808587829751910182855af16200303262002374565b91620030db565b805191821591848315620030ad575b505050905015620030565750565b6084906040519062461bcd60e51b82526004820152602a60248201527f5361666545524332303a204552433230206f7065726174696f6e20646964206e6044820152691bdd081cdd58d8d9595960b21b6064820152fd5b919381809450010312620030d757820151908115158203620030d457508038808462003048565b80fd5b5080fd5b91929015620031405750815115620030f1575090565b3b15620030fb5790565b60405162461bcd60e51b815260206004820152601d60248201527f416464726573733a2063616c6c20746f206e6f6e2d636f6e74726163740000006044820152606490fd5b825190915015620031545750805190602001fd5b60405162461bcd60e51b8152602060048201529081906200317a90602483019062001c47565b0390fdfe604060808152610416908138038061001681610218565b93843982019181818403126102135780516001600160a01b038116808203610213576020838101516001600160401b0394919391858211610213570186601f820112156102135780519061007161006c83610253565b610218565b918083528583019886828401011161021357888661008f930161026e565b813b156101b9577f360894a13ba1a3210667c828492db98dca3e2076cc3735a920a3ca505d382bbc80546001600160a01b031916841790556000927fbc7cd75a20ee27fd9adebab32041f755214dbc6bffa90cc0225b39da2e5c2d3b8480a28051158015906101b2575b61010b575b855160d190816103458239f35b855194606086019081118682101761019e578697849283926101889952602788527f416464726573733a206c6f772d6c6576656c2064656c65676174652063616c6c87890152660819985a5b195960ca1b8a8901525190845af4913d15610194573d9061017a61006c83610253565b91825281943d92013e610291565b508038808080806100fe565b5060609250610291565b634e487b7160e01b84526041600452602484fd5b50826100f9565b855162461bcd60e51b815260048101859052602d60248201527f455243313936373a206e657720696d706c656d656e746174696f6e206973206e60448201526c1bdd08184818dbdb9d1c9858dd609a1b6064820152608490fd5b600080fd5b6040519190601f01601f191682016001600160401b0381118382101761023d57604052565b634e487b7160e01b600052604160045260246000fd5b6001600160401b03811161023d57601f01601f191660200190565b60005b8381106102815750506000910152565b8181015183820152602001610271565b919290156102f357508151156102a5575090565b3b156102ae5790565b60405162461bcd60e51b815260206004820152601d60248201527f416464726573733a2063616c6c20746f206e6f6e2d636f6e74726163740000006044820152606490fd5b8251909150156103065750805190602001fd5b6044604051809262461bcd60e51b825260206004830152610336815180928160248601526020868601910161026e565b601f01601f19168101030190fdfe608060405236156054577f360894a13ba1a3210667c828492db98dca3e2076cc3735a920a3ca505d382bbc54600090819081906001600160a01b0316368280378136915af43d82803e156050573d90f35b3d90fd5b7f360894a13ba1a3210667c828492db98dca3e2076cc3735a920a3ca505d382bbc54600090819081906001600160a01b0316368280378136915af43d82803e156050573d90f3fea26469706673582212207cca0a2ce4ae598423b90e213c43ff2272c2bf23338114cc8f5012f3499248e764736f6c6343000818003360a03461009557601f6105cb38819003918201601f19168301916001600160401b0383118484101761009a5780849260209460405283398101031261009557516001600160a01b03811680820361009557156100835760805260405161051a90816100b18239608051818181607e0152818160e1015281816101b701526102660152f35b604051635a3f066960e01b8152600490fd5b600080fd5b634e487b7160e01b600052604160045260246000fdfe6040608081526004908136101561001557600080fd5b60009160e08335811c90816316c1973914610333578163a3de7d1714610233578163c1ac10261461011457508063e82bb126146100cc5763fb33ce811461005b57600080fd5b346100c857816003193601126100c857610073610456565b6001600160a01b03917f0000000000000000000000000000000000000000000000000000000000000000831633036100ba5750168252816020526007602435918320015580f35b8351631a27eac360e11b8152fd5b8280fd5b505034610110578160031936011261011057517f00000000000000000000000000000000000000000000000000000000000000006001600160a01b03168152602090f35b5080fd5b848385346100c8576101203660031901126100c857610131610456565b9361010036602319011261022f57610147610471565b92602435845260208401906044358252610160366104c8565b848601908152606086016084358152602060a31936011261022b576101836104a8565b9160a43583526080880192835260a088019460c435865260c089019660e435885289019761010435895260018060a01b03807f000000000000000000000000000000000000000000000000000000000000000016330361021b5760079a9b9c168c528b6020528b2099518a555160018a0155515160028901555160038801555151908601555160058501555160068401555191015580f35b8151631a27eac360e11b81528790fd5b8780fd5b8380fd5b84848492346100c85760803660031901126100c857610250610456565b9061025a366104c8565b926001600160a01b03907f000000000000000000000000000000000000000000000000000000000000000082163303610324579585966007959661029c6104a8565b526102a56104a8565b908882526102b1610471565b976024358952602089016044358152828a0191825260608a019242845260808b0194855260a08b01968c885260c08c01988d8a528c01998d8b52168c528b6020528b2099518a555160018a0155515160028901555160038801555151908601555160058501555160068401555191015580f35b51631a27eac360e11b81528690fd5b9190503461022f57602036600319011261022f578261010094610354610456565b818561035e610471565b82815282602082015261036f6104a8565b838152868201528260608201526103846104a8565b838152608082015260a0810183905260c0810183905201526001600160a01b031681526020819052206103b5610471565b9381548552600182015492602086019384526103cf6104a8565b9160028401548352808701928352600384015490606088019182526103f26104a8565b9285015483526080880192835260058501549360a08901948552600760068701549660c08b01978852015496888a01978852825199518a525160208a0152515190880152516060870152515160808601525160a08501525160c08401525190820152f35b600435906001600160a01b038216820361046c57565b600080fd5b60405190610100820182811067ffffffffffffffff82111761049257604052565b634e487b7160e01b600052604160045260246000fd5b604051906020820182811067ffffffffffffffff82111761049257604052565b602090606319011261046c576104dc6104a8565b90606435825256fea2646970667358221220f9197761eae1a8839a6606c94eed8300af1b83793252e9badea713839d2d9ea864736f6c63430008180033c65a7bb8d6351c1cf70c95a316cc6a92839c986682d98bc35f958f4883f9d2a8290decd9548b62a8d60345a988386fc84ba6bc95484008f6362f93160ef3e563a26469706673582212208d5a50a1ccc4ec07fbc276107f754c0148999d7c08b7a1ca3a6fa454245e210f64736f6c63430008180033",
  "devdoc": {
    "kind": "dev",
    "methods": {},
    "version": 1
  },
  "userdoc": {
    "kind": "user",
    "methods": {},
    "version": 1
  },
  "storageLayout": {
    "storage": [
      {
        "astId": 13572,
        "contract": "src/StreamFactory.sol:StreamFactory",
        "label": "acceptedInSupplyTokens",
        "offset": 0,
        "slot": "0",
        "type": "t_array(t_address)dyn_storage"
      },
      {
        "astId": 13574,
        "contract": "src/StreamFactory.sol:StreamFactory",
        "label": "currentStreamId",
        "offset": 0,
        "slot": "1",
        "type": "t_uint16"
      },
      {
        "astId": 13577,
        "contract": "src/StreamFactory.sol:StreamFactory",
        "label": "params",
        "offset": 0,
        "slot": "2",
        "type": "t_struct(Params)18247_storage"
      },
      {
        "astId": 13581,
        "contract": "src/StreamFactory.sol:StreamFactory",
        "label": "streamAddresses",
        "offset": 0,
        "slot": "14",
        "type": "t_mapping(t_uint16,t_address)"
      },
      {
        "astId": 13583,
        "contract": "src/StreamFactory.sol:StreamFactory",
        "label": "frozen",
        "offset": 0,
        "slot": "15",
        "type": "t_bool"
      },
      {
        "astId": 13585,
        "contract": "src/StreamFactory.sol:StreamFactory",
        "label": "initialized",
        "offset": 1,
        "slot": "15",
        "type": "t_bool"
      },
      {
        "astId": 13590,
        "contract": "src/StreamFactory.sol:StreamFactory",
        "label": "implementations",
        "offset": 0,
        "slot": "16",
        "type": "t_mapping(t_enum(StreamImplKind)13569,t_address)"
      }
    ],
    "types": {
      "t_address": {
        "encoding": "inplace",
        "label": "address",
        "numberOfBytes": "20"
      },
      "t_array(t_address)dyn_storage": {
        "base": "t_address",
        "encoding": "dynamic_array",
        "label": "address[]",
        "numberOfBytes": "32"
      },
      "t_bool": {
        "encoding": "inplace",
        "label": "bool",
        "numberOfBytes": "1"
      },
      "t_enum(StreamImplKind)13569": {
        "encoding": "inplace",
        "label": "enum StreamFactory.StreamImplKind",
        "numberOfBytes": "1"
      },
      "t_mapping(t_enum(StreamImplKind)13569,t_address)": {
        "encoding": "mapping",
        "key": "t_enum(StreamImplKind)13569",
        "label": "mapping(enum StreamFactory.StreamImplKind => address)",
        "numberOfBytes": "32",
        "value": "t_address"
      },
      "t_mapping(t_uint16,t_address)": {
        "encoding": "mapping",
        "key": "t_uint16",
        "label": "mapping(uint16 => address)",
        "numberOfBytes": "32",
        "value": "t_address"
      },
      "t_string_storage": {
        "encoding": "bytes",
        "label": "string",
        "numberOfBytes": "32"
      },
      "t_struct(Decimal)16964_storage": {
        "encoding": "inplace",
        "label": "struct Decimal",
        "members": [
          {
            "astId": 16963,
            "contract": "src/StreamFactory.sol:StreamFactory",
            "label": "value",
            "offset": 0,
            "slot": "0",
            "type": "t_uint256"
          }
        ],
        "numberOfBytes": "32"
      },
      "t_struct(Params)18247_storage": {
        "encoding": "inplace",
        "label": "struct StreamFactoryTypes.Params",
        "members": [
          {
            "astId": 18223,
            "contract": "src/StreamFactory.sol:StreamFactory",
            "label": "streamCreationFee",
            "offset": 0,
            "slot": "0",
            "type": "t_uint256"
          },
          {
            "astId": 18225,
            "contract": "src/StreamFactory.sol:StreamFactory",
            "label": "streamCreationFeeToken",
            "offset": 0,
            "slot": "1",
            "type": "t_address"
          },
          {
            "astId": 18228,
            "contract": "src/StreamFactory.sol:StreamFactory",
            "label": "exitFeeRatio",
            "offset": 0,
            "slot": "2",
            "type": "t_struct(Decimal)16964_storage"
          },
          {
            "astId": 18230,
            "contract": "src/StreamFactory.sol:StreamFactory",
            "label": "minWaitingDuration",
            "offset": 0,
            "slot": "3",
            "type": "t_uint256"
          },
          {
            "astId": 18232,
            "contract": "src/StreamFactory.sol:StreamFactory",
            "label": "minBootstrappingDuration",
            "offset": 0,
            "slot": "4",
            "type": "t_uint256"
          },
          {
            "astId": 18234,
            "contract": "src/StreamFactory.sol:StreamFactory",
            "label": "minStreamDuration",
            "offset": 0,
            "slot": "5",
            "type": "t_uint256"
          },
          {
            "astId": 18236,
            "contract": "src/StreamFactory.sol:StreamFactory",
            "label": "feeCollector",
            "offset": 0,
            "slot": "6",
            "type": "t_address"
          },
          {
            "astId": 18238,
            "contract": "src/StreamFactory.sol:StreamFactory",
            "label": "protocolAdmin",
            "offset": 0,
            "slot": "7",
            "type": "t_address"
          },
          {
            "astId": 18240,
            "contract": "src/StreamFactory.sol:StreamFactory",
            "label": "tosVersion",
            "offset": 0,
            "slot": "8",
            "type": "t_string_storage"
          },
          {
            "astId": 18242,
            "contract": "src/StreamFactory.sol:StreamFactory",
            "label": "vestingFactoryAddress",
            "offset": 0,
            "slot": "9",
            "type": "t_address"
          },
          {
            "astId": 18244,
            "contract": "src/StreamFactory.sol:StreamFactory",
            "label": "poolRouterAddress",
            "offset": 0,
            "slot": "10",
            "type": "t_address"
          },
          {
            "astId": 18246,
            "contract": "src/StreamFactory.sol:StreamFactory",
            "label": "tokenFactoryAddress",
            "offset": 0,
            "slot": "11",
            "type": "t_address"
          }
        ],
        "numberOfBytes": "384"
      },
      "t_uint16": {
        "encoding": "inplace",
        "label": "uint16",
        "numberOfBytes": "2"
      },
      "t_uint256": {
        "encoding": "inplace",
        "label": "uint256",
        "numberOfBytes": "32"
      }
    }
  }
}