{
  "address": "0x31E362f72b609F606D47c02D435f7F131fAe8B8f",
  "abi": [
    {
      "inputs": [
        {
          "internalType": "address",
          "name": "factoryAddress",
          "type": "address"
        }
      ],
      "stateMutability": "nonpayable",
      "type": "constructor"
    },
    {
      "inputs": [
        {
          "internalType": "uint256",
          "name": "expected",
          "type": "uint256"
        },
        {
          "internalType": "uint256",
          "name": "actual",
          "type": "uint256"
        }
      ],
      "name": "IncorrectNativeAmount",
      "type": "error"
    },
    {
      "inputs": [],
      "name": "InsufficientOutAmount",
      "type": "error"
    },
    {
      "inputs": [
        {
          "internalType": "uint256",
          "name": "requiredTokenAmount",
          "type": "uint256"
        },
        {
          "internalType": "uint256",
          "name": "tokenBalance",
          "type": "uint256"
        }
      ],
      "name": "InsufficientTokenPayment",
      "type": "error"
    },
    {
      "inputs": [],
      "name": "InvalidAmount",
      "type": "error"
    },
    {
      "inputs": [],
      "name": "InvalidDexType",
      "type": "error"
    },
    {
      "inputs": [],
      "name": "InvalidExitCondition",
      "type": "error"
    },
    {
      "inputs": [],
      "name": "InvalidImplementationAddress",
      "type": "error"
    },
    {
      "inputs": [],
      "name": "InvalidInSupplyToken",
      "type": "error"
    },
    {
      "inputs": [],
      "name": "InvalidInputToken",
      "type": "error"
    },
    {
      "inputs": [
        {
          "internalType": "address",
          "name": "from",
          "type": "address"
        }
      ],
      "name": "InvalidNativePayer",
      "type": "error"
    },
    {
      "inputs": [],
      "name": "InvalidOutSupplyToken",
      "type": "error"
    },
    {
      "inputs": [],
      "name": "InvalidPoolOutSupplyAmount",
      "type": "error"
    },
    {
      "inputs": [],
      "name": "InvalidPoolType",
      "type": "error"
    },
    {
      "inputs": [
        {
          "internalType": "address",
          "name": "user",
          "type": "address"
        },
        {
          "internalType": "uint256",
          "name": "shares",
          "type": "uint256"
        },
        {
          "internalType": "uint256",
          "name": "exitDate",
          "type": "uint256"
        },
        {
          "internalType": "string",
          "name": "reason",
          "type": "string"
        }
      ],
      "name": "InvalidPosition",
      "type": "error"
    },
    {
      "inputs": [],
      "name": "InvalidPositionStorageAddress",
      "type": "error"
    },
    {
      "inputs": [],
      "name": "InvalidStreamFactoryAddress",
      "type": "error"
    },
    {
      "inputs": [],
      "name": "InvalidVestingCliffDuration",
      "type": "error"
    },
    {
      "inputs": [],
      "name": "InvalidVestingDuration",
      "type": "error"
    },
    {
      "inputs": [],
      "name": "InvalidWithdrawAmount",
      "type": "error"
    },
    {
      "inputs": [],
      "name": "NativeTokenTransferFailed",
      "type": "error"
    },
    {
      "inputs": [],
      "name": "OperationNotAllowed",
      "type": "error"
    },
    {
      "inputs": [],
      "name": "PaymentFailed",
      "type": "error"
    },
    {
      "inputs": [],
      "name": "SameInputAndOutputToken",
      "type": "error"
    },
    {
      "inputs": [],
      "name": "StreamFactoryAddressAlreadySet",
      "type": "error"
    },
    {
      "inputs": [],
      "name": "Unauthorized",
      "type": "error"
    },
    {
      "inputs": [
        {
          "internalType": "uint256",
          "name": "cap",
          "type": "uint256"
        }
      ],
      "name": "WithdrawAmountExceedsBalance",
      "type": "error"
    },
    {
      "anonymous": false,
      "inputs": [
        {
          "indexed": true,
          "internalType": "address",
          "name": "beneficiary",
          "type": "address"
        },
        {
          "indexed": false,
          "internalType": "uint64",
          "name": "vestingDuration",
          "type": "uint64"
        },
        {
          "indexed": false,
          "internalType": "address",
          "name": "token",
          "type": "address"
        },
        {
          "indexed": false,
          "internalType": "uint256",
          "name": "amount",
          "type": "uint256"
        }
      ],
      "name": "BeneficiaryVestingCreated",
      "type": "event"
    },
    {
      "anonymous": false,
      "inputs": [
        {
          "indexed": true,
          "internalType": "address",
          "name": "creator",
          "type": "address"
        },
        {
          "indexed": false,
          "internalType": "uint256",
          "name": "vestingDuration",
          "type": "uint256"
        },
        {
          "indexed": false,
          "internalType": "address",
          "name": "token",
          "type": "address"
        },
        {
          "indexed": false,
          "internalType": "uint256",
          "name": "amount",
          "type": "uint256"
        }
      ],
      "name": "CreatorVestingCreated",
      "type": "event"
    },
    {
      "anonymous": false,
      "inputs": [
        {
          "indexed": true,
          "internalType": "address",
          "name": "streamAddress",
          "type": "address"
        },
        {
          "indexed": true,
          "internalType": "address",
          "name": "subscriber",
          "type": "address"
        },
        {
          "indexed": false,
          "internalType": "uint256",
          "name": "inBalance",
          "type": "uint256"
        },
        {
          "indexed": false,
          "internalType": "uint256",
          "name": "spentIn",
          "type": "uint256"
        },
        {
          "indexed": false,
          "internalType": "uint256",
          "name": "exitTimestamp",
          "type": "uint256"
        }
      ],
      "name": "ExitRefunded",
      "type": "event"
    },
    {
      "anonymous": false,
      "inputs": [
        {
          "indexed": true,
          "internalType": "address",
          "name": "streamAddress",
          "type": "address"
        },
        {
          "indexed": true,
          "internalType": "address",
          "name": "subscriber",
          "type": "address"
        },
        {
          "indexed": false,
          "internalType": "uint256",
          "name": "purchased",
          "type": "uint256"
        },
        {
          "indexed": false,
          "internalType": "uint256",
          "name": "spentIn",
          "type": "uint256"
        },
        {
          "indexed": false,
          "internalType": "uint256",
          "name": "index",
          "type": "uint256"
        },
        {
          "indexed": false,
          "internalType": "uint256",
          "name": "inBalance",
          "type": "uint256"
        },
        {
          "indexed": false,
          "internalType": "uint256",
          "name": "exitTimestamp",
          "type": "uint256"
        }
      ],
      "name": "ExitStreamed",
      "type": "event"
    },
    {
      "anonymous": false,
      "inputs": [
        {
          "indexed": true,
          "internalType": "address",
          "name": "streamAddress",
          "type": "address"
        },
        {
          "indexed": true,
          "internalType": "address",
          "name": "creator",
          "type": "address"
        },
        {
          "indexed": false,
          "internalType": "uint256",
          "name": "refundedOutAmount",
          "type": "uint256"
        }
      ],
      "name": "FinalizedRefunded",
      "type": "event"
    },
    {
      "anonymous": false,
      "inputs": [
        {
          "indexed": true,
          "internalType": "address",
          "name": "streamAddress",
          "type": "address"
        },
        {
          "indexed": true,
          "internalType": "address",
          "name": "creator",
          "type": "address"
        },
        {
          "indexed": false,
          "internalType": "uint256",
          "name": "creatorRevenue",
          "type": "uint256"
        },
        {
          "indexed": false,
          "internalType": "uint256",
          "name": "exitFeeAmount",
          "type": "uint256"
        },
        {
          "indexed": false,
          "internalType": "uint256",
          "name": "refundedOutAmount",
          "type": "uint256"
        }
      ],
      "name": "FinalizedStreamed",
      "type": "event"
    },
    {
      "anonymous": false,
      "inputs": [
        {
          "indexed": true,
          "internalType": "address",
          "name": "streamAddress",
          "type": "address"
        },
        {
          "indexed": true,
          "internalType": "address",
          "name": "poolAddress",
          "type": "address"
        },
        {
          "indexed": false,
          "internalType": "address",
          "name": "token0",
          "type": "address"
        },
        {
          "indexed": false,
          "internalType": "address",
          "name": "token1",
          "type": "address"
        },
        {
          "indexed": false,
          "internalType": "uint256",
          "name": "amount0",
          "type": "uint256"
        },
        {
          "indexed": false,
          "internalType": "uint256",
          "name": "amount1",
          "type": "uint256"
        },
        {
          "indexed": false,
          "internalType": "uint256",
          "name": "refundedAmount0",
          "type": "uint256"
        },
        {
          "indexed": false,
          "internalType": "uint256",
          "name": "refundedAmount1",
          "type": "uint256"
        },
        {
          "indexed": true,
          "internalType": "address",
          "name": "creator",
          "type": "address"
        }
      ],
      "name": "PoolCreated",
      "type": "event"
    },
    {
      "anonymous": false,
      "inputs": [
        {
          "indexed": true,
          "internalType": "address",
          "name": "streamAddress",
          "type": "address"
        },
        {
          "indexed": true,
          "internalType": "address",
          "name": "subscriber",
          "type": "address"
        },
        {
          "indexed": false,
          "internalType": "uint256",
          "name": "positionInBalance",
          "type": "uint256"
        },
        {
          "indexed": false,
          "internalType": "uint256",
          "name": "positionShares",
          "type": "uint256"
        },
        {
          "indexed": false,
          "internalType": "uint256",
          "name": "positionLastUpdateTime",
          "type": "uint256"
        },
        {
          "indexed": false,
          "internalType": "uint256",
          "name": "positionSpentIn",
          "type": "uint256"
        },
        {
          "indexed": false,
          "internalType": "uint256",
          "name": "positionPurchased",
          "type": "uint256"
        },
        {
          "indexed": false,
          "internalType": "uint256",
          "name": "positionIndex",
          "type": "uint256"
        }
      ],
      "name": "PositionSynced",
      "type": "event"
    },
    {
      "anonymous": false,
      "inputs": [
        {
          "indexed": true,
          "internalType": "address",
          "name": "streamAddress",
          "type": "address"
        },
        {
          "indexed": false,
          "internalType": "address",
          "name": "creator",
          "type": "address"
        },
        {
          "indexed": false,
          "internalType": "uint256",
          "name": "outSupply",
          "type": "uint256"
        },
        {
          "indexed": false,
          "internalType": "uint8",
          "name": "status",
          "type": "uint8"
        }
      ],
      "name": "StreamCancelled",
      "type": "event"
    },
    {
      "anonymous": false,
      "inputs": [
        {
          "indexed": true,
          "internalType": "address",
          "name": "streamAddress",
          "type": "address"
        },
        {
          "indexed": false,
          "internalType": "string",
          "name": "metadataIpfsHash",
          "type": "string"
        }
      ],
      "name": "StreamMetadataUpdated",
      "type": "event"
    },
    {
      "anonymous": false,
      "inputs": [
        {
          "indexed": true,
          "internalType": "address",
          "name": "streamAddress",
          "type": "address"
        },
        {
          "indexed": false,
          "internalType": "uint256",
          "name": "lastUpdated",
          "type": "uint256"
        },
        {
          "indexed": false,
          "internalType": "uint256",
          "name": "distIndex",
          "type": "uint256"
        },
        {
          "indexed": false,
          "internalType": "uint256",
          "name": "outRemaining",
          "type": "uint256"
        },
        {
          "indexed": false,
          "internalType": "uint256",
          "name": "inSupply",
          "type": "uint256"
        },
        {
          "indexed": false,
          "internalType": "uint256",
          "name": "spentIn",
          "type": "uint256"
        },
        {
          "indexed": false,
          "internalType": "uint256",
          "name": "currentStreamedPrice",
          "type": "uint256"
        }
      ],
      "name": "StreamStateUpdated",
      "type": "event"
    },
    {
      "anonymous": false,
      "inputs": [
        {
          "indexed": true,
          "internalType": "address",
          "name": "streamAddress",
          "type": "address"
        },
        {
          "indexed": false,
          "internalType": "uint256",
          "name": "lastUpdated",
          "type": "uint256"
        },
        {
          "indexed": false,
          "internalType": "uint8",
          "name": "newStatus",
          "type": "uint8"
        },
        {
          "indexed": false,
          "internalType": "uint256",
          "name": "distIndex",
          "type": "uint256"
        },
        {
          "indexed": false,
          "internalType": "uint256",
          "name": "outRemaining",
          "type": "uint256"
        },
        {
          "indexed": false,
          "internalType": "uint256",
          "name": "inSupply",
          "type": "uint256"
        },
        {
          "indexed": false,
          "internalType": "uint256",
          "name": "spentIn",
          "type": "uint256"
        },
        {
          "indexed": false,
          "internalType": "uint256",
          "name": "currentStreamedPrice",
          "type": "uint256"
        }
      ],
      "name": "StreamSynced",
      "type": "event"
    },
    {
      "anonymous": false,
      "inputs": [
        {
          "indexed": true,
          "internalType": "address",
          "name": "streamAddress",
          "type": "address"
        },
        {
          "indexed": true,
          "internalType": "address",
          "name": "subscriber",
          "type": "address"
        },
        {
          "indexed": false,
          "internalType": "uint256",
          "name": "positionInBalance",
          "type": "uint256"
        },
        {
          "indexed": false,
          "internalType": "uint256",
          "name": "positionShares",
          "type": "uint256"
        },
        {
          "indexed": false,
          "internalType": "uint256",
          "name": "positionLastUpdateTime",
          "type": "uint256"
        },
        {
          "indexed": false,
          "internalType": "uint256",
          "name": "positionSpentIn",
          "type": "uint256"
        },
        {
          "indexed": false,
          "internalType": "uint256",
          "name": "positionPurchased",
          "type": "uint256"
        },
        {
          "indexed": false,
          "internalType": "uint256",
          "name": "positionIndex",
          "type": "uint256"
        },
        {
          "indexed": false,
          "internalType": "uint256",
          "name": "streamInSupply",
          "type": "uint256"
        },
        {
          "indexed": false,
          "internalType": "uint256",
          "name": "streamShares",
          "type": "uint256"
        }
      ],
      "name": "Subscribed",
      "type": "event"
    },
    {
      "anonymous": false,
      "inputs": [
        {
          "indexed": true,
          "internalType": "address",
          "name": "streamAddress",
          "type": "address"
        },
        {
          "indexed": true,
          "internalType": "address",
          "name": "subscriber",
          "type": "address"
        },
        {
          "indexed": false,
          "internalType": "uint256",
          "name": "positionInBalance",
          "type": "uint256"
        },
        {
          "indexed": false,
          "internalType": "uint256",
          "name": "positionShares",
          "type": "uint256"
        },
        {
          "indexed": false,
          "internalType": "uint256",
          "name": "positionLastUpdateTime",
          "type": "uint256"
        },
        {
          "indexed": false,
          "internalType": "uint256",
          "name": "positionSpentIn",
          "type": "uint256"
        },
        {
          "indexed": false,
          "internalType": "uint256",
          "name": "positionPurchased",
          "type": "uint256"
        },
        {
          "indexed": false,
          "internalType": "uint256",
          "name": "positionIndex",
          "type": "uint256"
        },
        {
          "indexed": false,
          "internalType": "uint256",
          "name": "streamInSupply",
          "type": "uint256"
        },
        {
          "indexed": false,
          "internalType": "uint256",
          "name": "streamShares",
          "type": "uint256"
        }
      ],
      "name": "Withdrawn",
      "type": "event"
    },
    {
      "inputs": [],
      "name": "PERMIT2",
      "outputs": [
        {
          "internalType": "address",
          "name": "",
          "type": "address"
        }
      ],
      "stateMutability": "view",
      "type": "function"
    },
    {
      "inputs": [],
      "name": "STREAM_FACTORY_ADDRESS",
      "outputs": [
        {
          "internalType": "address",
          "name": "",
          "type": "address"
        }
      ],
      "stateMutability": "view",
      "type": "function"
    },
    {
      "inputs": [],
      "name": "cancelStream",
      "outputs": [],
      "stateMutability": "nonpayable",
      "type": "function"
    },
    {
      "inputs": [],
      "name": "cancelWithAdmin",
      "outputs": [],
      "stateMutability": "nonpayable",
      "type": "function"
    },
    {
      "inputs": [],
      "name": "creator",
      "outputs": [
        {
          "internalType": "address",
          "name": "",
          "type": "address"
        }
      ],
      "stateMutability": "view",
      "type": "function"
    },
    {
      "inputs": [],
      "name": "exitStream",
      "outputs": [],
      "stateMutability": "nonpayable",
      "type": "function"
    },
    {
      "inputs": [],
      "name": "finalizeStream",
      "outputs": [],
      "stateMutability": "nonpayable",
      "type": "function"
    },
    {
      "inputs": [
        {
          "internalType": "address",
          "name": "user",
          "type": "address"
        }
      ],
      "name": "getPosition",
      "outputs": [
        {
          "components": [
            {
              "internalType": "uint256",
              "name": "inBalance",
              "type": "uint256"
            },
            {
              "internalType": "uint256",
              "name": "shares",
              "type": "uint256"
            },
            {
              "components": [
                {
                  "internalType": "uint256",
                  "name": "value",
                  "type": "uint256"
                }
              ],
              "internalType": "struct Decimal",
              "name": "index",
              "type": "tuple"
            },
            {
              "internalType": "uint256",
              "name": "lastUpdateTime",
              "type": "uint256"
            },
            {
              "components": [
                {
                  "internalType": "uint256",
                  "name": "value",
                  "type": "uint256"
                }
              ],
              "internalType": "struct Decimal",
              "name": "pendingReward",
              "type": "tuple"
            },
            {
              "internalType": "uint256",
              "name": "spentIn",
              "type": "uint256"
            },
            {
              "internalType": "uint256",
              "name": "purchased",
              "type": "uint256"
            },
            {
              "internalType": "uint256",
              "name": "exitDate",
              "type": "uint256"
            }
          ],
          "internalType": "struct PositionTypes.Position",
          "name": "",
          "type": "tuple"
        }
      ],
      "stateMutability": "view",
      "type": "function"
    },
    {
      "inputs": [],
      "name": "getStreamState",
      "outputs": [
        {
          "components": [
            {
              "internalType": "uint256",
              "name": "outRemaining",
              "type": "uint256"
            },
            {
              "components": [
                {
                  "internalType": "uint256",
                  "name": "value",
                  "type": "uint256"
                }
              ],
              "internalType": "struct Decimal",
              "name": "distIndex",
              "type": "tuple"
            },
            {
              "internalType": "uint256",
              "name": "spentIn",
              "type": "uint256"
            },
            {
              "internalType": "uint256",
              "name": "shares",
              "type": "uint256"
            },
            {
              "components": [
                {
                  "internalType": "uint256",
                  "name": "value",
                  "type": "uint256"
                }
              ],
              "internalType": "struct Decimal",
              "name": "currentStreamedPrice",
              "type": "tuple"
            },
            {
              "internalType": "uint256",
              "name": "threshold",
              "type": "uint256"
            },
            {
              "internalType": "uint256",
              "name": "inSupply",
              "type": "uint256"
            },
            {
              "internalType": "uint256",
              "name": "outSupply",
              "type": "uint256"
            },
            {
              "internalType": "uint256",
              "name": "lastUpdated",
              "type": "uint256"
            }
          ],
          "internalType": "struct StreamTypes.StreamState",
          "name": "",
          "type": "tuple"
        }
      ],
      "stateMutability": "view",
      "type": "function"
    },
    {
      "inputs": [],
      "name": "getStreamStatus",
      "outputs": [
        {
          "internalType": "enum StreamTypes.Status",
          "name": "",
          "type": "uint8"
        }
      ],
      "stateMutability": "view",
      "type": "function"
    },
    {
      "inputs": [
        {
          "components": [
            {
              "internalType": "address",
              "name": "creator",
              "type": "address"
            },
            {
              "internalType": "address",
              "name": "inSupplyToken",
              "type": "address"
            },
            {
              "internalType": "address",
              "name": "outSupplyToken",
              "type": "address"
            },
            {
              "internalType": "uint256",
              "name": "streamOutAmount",
              "type": "uint256"
            },
            {
              "internalType": "uint256",
              "name": "threshold",
              "type": "uint256"
            },
            {
              "internalType": "uint256",
              "name": "bootstrappingStartTime",
              "type": "uint256"
            },
            {
              "internalType": "uint256",
              "name": "streamStartTime",
              "type": "uint256"
            },
            {
              "internalType": "uint256",
              "name": "streamEndTime",
              "type": "uint256"
            },
            {
              "components": [
                {
                  "internalType": "string",
                  "name": "ipfsHash",
                  "type": "string"
                }
              ],
              "internalType": "struct StreamTypes.StreamMetadata",
              "name": "metadata",
              "type": "tuple"
            },
            {
              "components": [
                {
                  "internalType": "bool",
                  "name": "isVestingEnabled",
                  "type": "bool"
                },
                {
                  "internalType": "uint64",
                  "name": "vestingDuration",
                  "type": "uint64"
                }
              ],
              "internalType": "struct StreamTypes.VestingInfo",
              "name": "creatorVesting",
              "type": "tuple"
            },
            {
              "components": [
                {
                  "internalType": "bool",
                  "name": "isVestingEnabled",
                  "type": "bool"
                },
                {
                  "internalType": "uint64",
                  "name": "vestingDuration",
                  "type": "uint64"
                }
              ],
              "internalType": "struct StreamTypes.VestingInfo",
              "name": "beneficiaryVesting",
              "type": "tuple"
            },
            {
              "components": [
                {
                  "internalType": "uint256",
                  "name": "poolOutSupplyAmount",
                  "type": "uint256"
                },
                {
                  "internalType": "enum StreamTypes.DexType",
                  "name": "dexType",
                  "type": "uint8"
                }
              ],
              "internalType": "struct StreamTypes.PoolInfo",
              "name": "poolInfo",
              "type": "tuple"
            },
            {
              "internalType": "string",
              "name": "tosVersion",
              "type": "string"
            }
          ],
          "internalType": "struct StreamTypes.CreateStreamMessage",
          "name": "createStreamMessage",
          "type": "tuple"
        },
        {
          "internalType": "address",
          "name": "storageAddress",
          "type": "address"
        }
      ],
      "name": "initialize",
      "outputs": [],
      "stateMutability": "nonpayable",
      "type": "function"
    },
    {
      "inputs": [],
      "name": "positionStorageAddress",
      "outputs": [
        {
          "internalType": "address",
          "name": "",
          "type": "address"
        }
      ],
      "stateMutability": "view",
      "type": "function"
    },
    {
      "inputs": [],
      "name": "postStreamActions",
      "outputs": [
        {
          "components": [
            {
              "internalType": "uint256",
              "name": "poolOutSupplyAmount",
              "type": "uint256"
            },
            {
              "internalType": "enum StreamTypes.DexType",
              "name": "dexType",
              "type": "uint8"
            }
          ],
          "internalType": "struct StreamTypes.PoolInfo",
          "name": "poolInfo",
          "type": "tuple"
        },
        {
          "components": [
            {
              "internalType": "bool",
              "name": "isVestingEnabled",
              "type": "bool"
            },
            {
              "internalType": "uint64",
              "name": "vestingDuration",
              "type": "uint64"
            }
          ],
          "internalType": "struct StreamTypes.VestingInfo",
          "name": "creatorVesting",
          "type": "tuple"
        },
        {
          "components": [
            {
              "internalType": "bool",
              "name": "isVestingEnabled",
              "type": "bool"
            },
            {
              "internalType": "uint64",
              "name": "vestingDuration",
              "type": "uint64"
            }
          ],
          "internalType": "struct StreamTypes.VestingInfo",
          "name": "beneficiaryVesting",
          "type": "tuple"
        }
      ],
      "stateMutability": "view",
      "type": "function"
    },
    {
      "inputs": [],
      "name": "streamMetadata",
      "outputs": [
        {
          "internalType": "string",
          "name": "ipfsHash",
          "type": "string"
        }
      ],
      "stateMutability": "view",
      "type": "function"
    },
    {
      "inputs": [],
      "name": "streamState",
      "outputs": [
        {
          "internalType": "uint256",
          "name": "outRemaining",
          "type": "uint256"
        },
        {
          "components": [
            {
              "internalType": "uint256",
              "name": "value",
              "type": "uint256"
            }
          ],
          "internalType": "struct Decimal",
          "name": "distIndex",
          "type": "tuple"
        },
        {
          "internalType": "uint256",
          "name": "spentIn",
          "type": "uint256"
        },
        {
          "internalType": "uint256",
          "name": "shares",
          "type": "uint256"
        },
        {
          "components": [
            {
              "internalType": "uint256",
              "name": "value",
              "type": "uint256"
            }
          ],
          "internalType": "struct Decimal",
          "name": "currentStreamedPrice",
          "type": "tuple"
        },
        {
          "internalType": "uint256",
          "name": "threshold",
          "type": "uint256"
        },
        {
          "internalType": "uint256",
          "name": "inSupply",
          "type": "uint256"
        },
        {
          "internalType": "uint256",
          "name": "outSupply",
          "type": "uint256"
        },
        {
          "internalType": "uint256",
          "name": "lastUpdated",
          "type": "uint256"
        }
      ],
      "stateMutability": "view",
      "type": "function"
    },
    {
      "inputs": [],
      "name": "streamStatus",
      "outputs": [
        {
          "internalType": "enum StreamTypes.Status",
          "name": "",
          "type": "uint8"
        }
      ],
      "stateMutability": "view",
      "type": "function"
    },
    {
      "inputs": [],
      "name": "streamTimes",
      "outputs": [
        {
          "internalType": "uint256",
          "name": "bootstrappingStartTime",
          "type": "uint256"
        },
        {
          "internalType": "uint256",
          "name": "streamStartTime",
          "type": "uint256"
        },
        {
          "internalType": "uint256",
          "name": "streamEndTime",
          "type": "uint256"
        }
      ],
      "stateMutability": "view",
      "type": "function"
    },
    {
      "inputs": [],
      "name": "streamTokens",
      "outputs": [
        {
          "internalType": "address",
          "name": "inSupplyToken",
          "type": "address"
        },
        {
          "internalType": "address",
          "name": "outSupplyToken",
          "type": "address"
        }
      ],
      "stateMutability": "view",
      "type": "function"
    },
    {
      "inputs": [
        {
          "internalType": "uint256",
          "name": "amountIn",
          "type": "uint256"
        }
      ],
      "name": "subscribe",
      "outputs": [],
      "stateMutability": "nonpayable",
      "type": "function"
    },
    {
      "inputs": [
        {
          "internalType": "uint256",
          "name": "amountIn",
          "type": "uint256"
        }
      ],
      "name": "subscribeWithNativeToken",
      "outputs": [],
      "stateMutability": "payable",
      "type": "function"
    },
    {
      "inputs": [
        {
          "internalType": "uint256",
          "name": "amountIn",
          "type": "uint256"
        },
        {
          "internalType": "address",
          "name": "owner",
          "type": "address"
        },
        {
          "components": [
            {
              "components": [
                {
                  "internalType": "address",
                  "name": "token",
                  "type": "address"
                },
                {
                  "internalType": "uint160",
                  "name": "amount",
                  "type": "uint160"
                },
                {
                  "internalType": "uint48",
                  "name": "expiration",
                  "type": "uint48"
                },
                {
                  "internalType": "uint48",
                  "name": "nonce",
                  "type": "uint48"
                }
              ],
              "internalType": "struct IPermit2.PermitDetails",
              "name": "details",
              "type": "tuple"
            },
            {
              "internalType": "address",
              "name": "spender",
              "type": "address"
            },
            {
              "internalType": "uint256",
              "name": "sigDeadline",
              "type": "uint256"
            }
          ],
          "internalType": "struct IPermit2.PermitSingle",
          "name": "permitSingle",
          "type": "tuple"
        },
        {
          "internalType": "bytes",
          "name": "signature",
          "type": "bytes"
        }
      ],
      "name": "subscribeWithPermit",
      "outputs": [],
      "stateMutability": "nonpayable",
      "type": "function"
    },
    {
      "inputs": [
        {
          "internalType": "address",
          "name": "user",
          "type": "address"
        }
      ],
      "name": "syncPositionExternal",
      "outputs": [],
      "stateMutability": "nonpayable",
      "type": "function"
    },
    {
      "inputs": [],
      "name": "syncStreamExternal",
      "outputs": [],
      "stateMutability": "nonpayable",
      "type": "function"
    },
    {
      "inputs": [
        {
          "internalType": "string",
          "name": "metadataIpfsHash",
          "type": "string"
        }
      ],
      "name": "updateStreamMetadata",
      "outputs": [],
      "stateMutability": "nonpayable",
      "type": "function"
    },
    {
      "inputs": [
        {
          "internalType": "uint256",
          "name": "cap",
          "type": "uint256"
        }
      ],
      "name": "withdraw",
      "outputs": [],
      "stateMutability": "nonpayable",
      "type": "function"
    }
  ],
  "transactionHash": "0x0d3a18a0b83b8b26b8e8c323bf84d7c30fb1224c2825a45dc803e50037db3256",
  "args": [
    "0xda58Bf90dFDE046cEE5AbeA4D1c98AFC150cE895"
  ],
  "numDeployments": 2,
  "solcInputHash": "0286ee5b4dc80ded2417c56bd15ac792",
  "bytecode": "0x60a034620000ac57601f6200372a38819003918201601f19168301916001600160401b03831184841017620000b157808492602094604052833981010312620000ac57516001600160a01b038116808203620000ac57156200009a576080526040516136629081620000c882396080518181816101690152818161055a01528181610e9f015281816115160152818161176401526122060152f35b6040516332dcc54560e11b8152600490fd5b600080fd5b634e487b7160e01b600052604160045260246000fdfe608080604052600436101561001357600080fd5b600090813560e01c90816302d05d3f146123325750806303905474146113975780630bcc8eba146121d85780630e5634df146121065780630f574ba7146120ce57806316c197391461209c57806321194bd714611ecc5780632ae4e93114611e535780632e1a7d4d14611c6b57806334793e0514611ba357806342a543191461158c5780635929814e1461154557806360d388d8146115005780636afdd850146114d65780636b330b79146113f35780638a03764f146113c1578063af5c3ac414611397578063bdf4a9471461128e578063c0ae398c1461120c578063cbf0641514610d84578063d08452c214610d51578063d1477dd914610ab1578063e427d08c14610a88578063e9a9e144146109cc5763f69e8fba1461013457600080fd5b346109c957806003193601126109c95780546001600160a01b031633036109b857604051635e615a6b60e01b815281816004817f00000000000000000000000000000000000000000000000000000000000000006001600160a01b03165afa9081156109ad578291610993575b50600e54906101bc6101b1612a6f565b429060ff8516612aad565b600781101561097f5760030361096d576101dc6101d7612936565b612e88565b9060408201519160a081015183101581519460e08301519160001461090857505060018060a01b0360c08301511690610231620f424061022860408601516102238861322c565b613262565b510480956129b0565b938692879260125480610868575b509061025b6102b89392600560ff19600e541617600e556131e3565b885460408051898152602081018590529081018a90526001600160a01b039091169030907f16d1e1ee4b51bbfbf5d46884cac3a98f673074103d40dfae8a99e5b51457b7d290606090a3600b5430906001600160a01b0316612ba7565b806104bb575b505060145460ff1615610497576101200151600b5460405163095ea7b360e01b81526001600160a01b03928316600482018190526024820185905293926020928391839160449183918b91165af1801561045f5761046a575b508454601454600b5460405163c4b2da5960e01b81526001600160a01b0393841660048201526001600160401b03428116602483015260089390931c831660448201529216606483015260848201849052938290829060a49082908a905af1801561045f57610400575b506060907fb025e5bd40e457a54a3f910d3334f588cd4ad26e4e4f01ba78b68e89d073bb019260018060a01b038754169460145460081c169160018060a01b03600b5416906040519384528301526040820152a25b806103df575080f35b600c5482546103fd92916001600160a01b0391821691309116612ba7565b80f35b908082813d8311610458575b6104168183612455565b81010312610454577fb025e5bd40e457a54a3f910d3334f588cd4ad26e4e4f01ba78b68e89d073bb019261044b6060936125f6565b50925090610381565b8580fd5b503d61040c565b6040513d88823e3d90fd5b61048990823d8411610490575b6104818183612455565b810190612a57565b5038610317565b503d610477565b50600b5483546104b692916001600160a01b0391821691309116612ba7565b6103d6565b60018060a01b03600b54169160018060a01b03600c54169160ff601354169160018060a01b0389541693610515826040516104f5816123d4565b600e81526d185b5bdd5b9d1051195cda5c995960921b60208201526133e8565b61054583604051610525816123d4565b600e81526d185b5bdd5b9d1091195cda5c995960921b60208201526133e8565b604051635e615a6b60e01b8152938a856004817f00000000000000000000000000000000000000000000000000000000000000006001600160a01b03165afa94851561085d578b95610839575b50600381101561082557806107cd5750610140909301516001600160a01b0316946105d693905b6105c583883084612ba7565b6105d184883085612ba7565b613440565b90604095939594929451948560a08101106001600160401b0360a0880111176107b75760a0860160409081526001600160a01b03978816875290871660208701908152818701928352606087019384526080870194855290516360c7344d60e01b815295518716600487015251861660248601525160448501525160648401525183166084830152610100928391839160a49183918b91165af191821561045f578692610714575b505060018060a01b0381511660018060a01b0360208301511660018060a01b03604084015116926060810151608082015160c08301519160e08401519360a0600180821b039101511696604051958652602086015260408501526060840152608083015260a08201527f87bc8e3ae6b1afb3671d60583735fe23381ae9afc0ef7d9bfca9a67195148f5260c03092a438806102be565b90809250813d83116107b0575b61072b8183612455565b810103126107ac5760e06040519161074283612439565b61074b816125f6565b8352610759602082016125f6565b602084015261076a604082016125f6565b6040840152606081015160608401526080810151608084015261078f60a082016125f6565b60a084015260c081015160c0840152015160e0820152388061067e565b8480fd5b503d610721565b634e487b7160e01b600052604160045260246000fd5b600181036107f15750610160909301516001600160a01b0316946105d693906105b9565b60020361081357610180909301516001600160a01b0316946105d693906105b9565b604051631ba449e160e01b8152600490fd5b634e487b7160e01b8b52602160045260248bfd5b6108569195503d808d833e61084e8183612455565b810190612628565b9338610592565b6040513d8d823e3d90fd5b8095506108779197945061322c565b61088260095461322c565b9089604051610890816123b9565b52519081620f4240810204620f424014821517156108f4576108ea620f42406108e06108c86102b89796958361025b9651910261300d565b604051906108d5826123b9565b81526102238961322c565b51048097966129b0565b979192935061023f565b634e487b7160e01b8a52601160045260248afd5b60ff1916600417600e556103fd9450925061092391506131e3565b60018060a01b03835416806040518381527f3f3e233ce59fa3e5f0b479b323538988fd213fa8f3007a95ff330489bf5d40a660203092a3600c5430906001600160a01b0316612ba7565b604051637a851da960e11b8152600490fd5b634e487b7160e01b84526021600452602484fd5b6109a791503d8084833e61084e8183612455565b386101a1565b6040513d84823e3d90fd5b6040516282b42960e81b8152600490fd5b80fd5b50346109c957806003193601126109c95780546001600160a01b0390811633036109b857600e54610a096109fe612a6f565b429060ff8416612aad565b600781101561097f5761096d576103fd9160066009549260ff191617600e5580845416906040517febb55ea32d517c9ec85f61357977ac73b84e65ebeaedb528ed791d7e25e30a2b309180610a7a8787836040906006929493606082019560018060a01b0316825260208201520152565b0390a23090600c5416612ba7565b50346109c957806003193601126109c9576001546040516001600160a01b039091168152602090f35b50346109c9576101203660031901126109c957610acc6124d9565b9060c03660431901126109c9576001600160401b03806101043511610d4d5736602361010435011215610d4d576101043560040135116109c9573660246101043560040135610104350101116109c957604435916001600160a01b0383168303610d4d57600b546001600160a01b0390811690841603610d37576064356001600160a01b0381168103610d49576001600160a01b03600435811690821610610d375760c435906001600160a01b0382168203610d3357306001600160a01b03831603610d37574260e43510610d37576e22d473030f116ddee9f6b43ac78ba33b15610d33576040516302b67b5760e41b81526001600160a01b039384166004820181905295841660248201529216604483015265ffffffffffff608435818116908190036107ac57606484015260a435908116809103610d335760848301526001600160a01b031660a482015260e4803560c483015261010090820152600461010480359182013590830181905283918391610124916024018284013760046101043501358281018201849052601f01601f191682018290030181836e22d473030f116ddee9f6b43ac78ba35af180156109ad57610d24575b50600b54909182916001600160a01b03166e22d473030f116ddee9f6b43ac78ba33b15610d2057604051631b63c28b60e11b815260048082019390935230602482015291356001600160a01b0316604483015260648201528181608481836e22d473030f116ddee9f6b43ac78ba35af180156109ad57610d0c575b506103fd600435612c93565b610d1590612426565b6109c9578038610d00565b5050fd5b610d2d90612426565b38610c85565b8380fd5b60405163162908e360e11b8152600490fd5b8280fd5b5080fd5b50346109c957806003193601126109c957600b54600c54604080516001600160a01b039384168152919092166020820152f35b50346109c957806003193601126109c957610d9e336127eb565b60e0810151806111e65750610db46101d7612936565b90610dd160209182840151606085015160c086015191429361302d565b90610deb60ff600e54164290610de5612a6f565b90612aad565b9282519260c081019485519560a08301918251944260e0860152610e0e826129e0565b610e17816131e3565b610e218533613189565b60a0604082015191015111906007811015918261082557600582149182156111c7575b836111b357908160048d989796959493149384156111a6575b8415611176575b5050506000146110e357505050846110c3575b60155460ff161561109f57604051635e615a6b60e01b81526001600160a01b039083816004817f000000000000000000000000000000000000000000000000000000000000000086165afa90811561109457829161012091869161107a575b500151600c5460405163095ea7b360e01b8152929091166001600160a01b0381166004840152602483018a905291948791869160449183919087165af193841561105257889461105d575b50601554600c5460405163c4b2da5960e01b81523360048201526001600160401b03428116602483015260089390931c831660448201529084166001600160a01b0316606482015260848101959095529086908590818c8160a4810103925af1801561105257611019575b6040935060155460081c1690600c541683519182528582015286838201527f326ed39ad237878a41eaafd42fba2721a73ed377d14dfec31e0f9e9b4bfd932260603392a25b015151916040519485528401526040830152606082015242608082015233907f1d86502e4a4586da05506402e9e717090c0ce0ac1a71ad60b9312ae8ab044abf60a03092a380f35b8584813d831161104b575b61102e8183612455565b81010312611047576110416040946125f6565b50610f8c565b8880fd5b503d611024565b6040513d8b823e3d90fd5b61107390873d8911610490576104818183612455565b5038610f21565b61108e91503d8088833e61084e8183612455565b38610ed6565b6040513d86823e3d90fd5b600c54604092506110be908790339030906001600160a01b0316612ba7565b610fd1565b600b546110de908690339030906001600160a01b0316612ba7565b610e77565b92969550939250955060001461096d57611101869161112894612a4a565b91528484528083526111138333613189565b600b54339030906001600160a01b0316612ba7565b5190517f387c4a97ea999c71f2b33e24b2c4406f4a5100fc4e8deceb0bb6f4c5e5bbbe1060405180611170339530954291846040919493926060820195825260208201520152565b0390a380f35b919350919394959650610825579060038b969594939214908161119e575b5090388080610e64565b905038611194565b5060068114935087610e5d565b634e487b7160e01b8c52602160045260248cfd5b8b935083925060038114806111de575b9250610e44565b5081156111d7565b6020820151611208604051928392631175404360e11b845233600485016129f9565b0390fd5b50346109c957806003193601126109c95761012060025460405161122f816123b9565b6003548152600454600554604051611246816123b9565b6006548152600754906008549260095494600a54966040519889525160208901526040880152606087015251608086015260a085015260c084015260e0830152610100820152f35b50346109c957806003193601126109c9576040516112ab816123d4565b601254815260ff601354169160208201926003811015611383578352604051906112d4826123d4565b6014549360ff8516151583526001600160401b03809560081c16602084015260405194611300866123d4565b60155460ff81161515875260081c166020860152604051935184525190600382101561136f575060208381019190915281511515604084015201516001600160401b0316606082015260c09161136d90805115156080840152602001516001600160401b031660a0830152565bf35b634e487b7160e01b81526021600452602490fd5b634e487b7160e01b82526021600452602482fd5b50346109c957806003193601126109c9576113bd60ff600e541660405191829182612356565b0390f35b50346109c957806003193601126109c957600f5460105460115460408051938452602084019290925290820152606090f35b50346109c95760203660031901126109c95761140d6124be565b611416816127eb565b6114208282612de8565b6114596114496114316101d7612936565b926020840151606085015160c086015191429361302d565b916114548385613189565b6131e3565b805160208083015160608085015160a08087015160c0808901516040998a0151518a51998a5297890196909652978701929092529185015260808401919091528201526001600160a01b039092169130917f776f4c645ad4c2525f2c0862f3c0e3841c03f4fc680c1ceb4ab41b9eadccc4d1919081908101611170565b50346109c957806003193601126109c95760206040516e22d473030f116ddee9f6b43ac78ba38152f35b50346109c957806003193601126109c9576040517f00000000000000000000000000000000000000000000000000000000000000006001600160a01b03168152602090f35b5060203660031901126109c957600b54600435906001600160a01b031661157a57806115756103fd923033612af8565b612c93565b604051632df9739b60e01b8152600490fd5b50346109c957600319906040368301126109c9576001600160401b03600435116109c95761020082600435360301126109c957604051916101a083018381106001600160401b03821117611a73576040526115eb6004356004016124ef565b83526115fb6024600435016124ef565b602084015261160e6044600435016124ef565b6040840152600435606481013560608501526084810135608085015260a481013560a085015260c481013560c085015260e481013560e08501526101040135906001600160401b038211610d4957602090826004350136030112610d4d5760405190611679826123b9565b6001600160401b03600482813501013511610d49576116a69036906004803590910180820135010161256b565b81526101008301526116be36610124600435016125b2565b6101208301526116d436610164600435016125b2565b610140830152604060043536036101a31901126109c9576040516116f7816123d4565b6004356101a481013582526101c401356003811015610d495760208201526101608301526001600160401b036101e46004350135116109c95761174536600480356101e4810135010161256b565b6101808301526117536124d9565b6001549060ff8260a01c166109b8577f00000000000000000000000000000000000000000000000000000000000000006001600160a01b031633036109b8576001600160a01b03811615611b9157610120840151805115159081611b5e575b5050610140840151805115159081611b2b575b50506101608401515180611a87575b506001600160a01b039081166001600160a01b03199283161760015583518354911691161781556040518190611809816123b9565b52604051611816816123b9565b8181526060830151908260405161182c816123b9565b52604051611839816123b9565b838152608085015191606086015193604051611854816123ef565b8181528260208201528660408201528660608201528360808201528460a08201528660c08201528560e082015261010042910152600255516003558360045583600555516006556007558160085560095542600a5560018060a01b0360208301511660018060a01b03604084015116908160206040516118d3816123d4565b83815201526bffffffffffffffffffffffff60a01b600b541617600b556bffffffffffffffffffffffff60a01b600c541617600c55610100820151519182516001600160401b038111611a735761192b600d5461237f565b601f8111611a22575b506020601f82116001146119b3578394829394926119a8575b50508160011b916000199060031b1c191617600d555b60ff19600e5416600e5560a08101519060e060c08201519101519161198960405161240b565b600f556010556011556001805460ff60a01b1916600160a01b17905580f35b01519050388061194d565b600d845260008051602061360d83398151915290601f198316855b818110611a0a575095836001959697106119f1575b505050811b01600d55611963565b015160001960f88460031b161c191690553880806119e3565b9192602060018192868b0151815501940192016119ce565b600d845260008051602061360d833981519152601f830160051c81019160208410611a69575b601f0160051c01905b818110611a5e5750611934565b848155600101611a51565b9091508190611a48565b634e487b7160e01b83526041600452602483fd5b606085015110611b1957611aa26020610160860151016129d3565b600381101561097f57151580611af5575b611ae357602061016085015180516012550151600381101561097f5760ff801960135416911617601355386117d4565b604051632946cbf160e01b8152600490fd5b50611b076020610160860151016129d3565b600381101561097f5760011415611ab3565b60405163c9c0f41360e01b8152600490fd5b60ff68ffffffffffffffff00602060155493015160081b1692169068ffffffffffffffffff1916171760155538806117c5565b60ff68ffffffffffffffff00602060145493015160081b1692169068ffffffffffffffffff1916171760145538806117b2565b60405163d2d441ff60e01b8152600490fd5b50346109c957806003193601126109c957611bbc612936565b611be8611bd0611bca612a6f565b92612e88565b91611bda836131e3565b60ff600e5416904291612aad565b611bf1816129e0565b61010082015191600782101561097f57602081015151815160c08301519160ff60806040860151950151519560405197885216602087015260408601526060850152608084015260a083015260c08201527f9a6ce334816e7b4b0cea88e41f3c652ec2e8064e2663e98f6d94d5ed90bc569060e03092a280f35b50346109c95760203660031901126109c95760043590611c8a336127eb565b91611c953384612de8565b611ca0611bda612a6f565b906007821015611e3f57600282141580611e34575b61096d57611cc46101d7612936565b916020830151611ce4606085019182519760c087019842928a519261302d565b9280611e2e57508251935b83518511611e1557957fca17ddd98e8725ab2aa1c70d19c5d777d10bd61a64e2525cf7ead7fe7f1ec20791611d8087986103fd985086518814600014611dfe57611d766020880151965b611d6f60208a0198611d4c818b516129b0565b8a52611d598c8c516129b0565b8b52611d668c89516129b0565b885286516129b0565b85526129e0565b6114548733613189565b611de6855194519560608101519260a082015194604060c0840151930151519051915192604051968796339b309b8994919260e0969399989794919961010087019a8752602087015260408601526060850152608084015260a083015260c08201520152565b0390a3600b54339030906001600160a01b0316612ba7565b611d76611e0f85518551908b61311b565b96611d39565b6040516318928cbf60e31b815260048101869052602490fd5b93611cef565b506001821415611cb5565b634e487b7160e01b83526021600452602483fd5b50346109c957806003193601126109c957610120611e6f612936565b604051908051825260208101515160208301526040810151604083015260608101516060830152608081015151608083015260a081015160a083015260c081015160c083015260e081015160e08301526101008091015190820152f35b50346109c957602080600319360112610d4d576001600160401b03600435818111610d3357611eff90369060040161256b565b83549091906001600160a01b031633036109b857815190811161208857611f27600d5461237f565b601f8111612038575b5082601f8211600114611fa5579181611f94927ffa52982561798522f5e44b012104c1a4b09148533ab665caa1c1f28539f9a053948791611f9a575b508160011b916000199060031b1c191617600d555b6040519182918583523095830190612499565b0390a280f35b905082015138611f6c565b600d855260008051602061360d83398151915290601f198316865b86828210612022575050927ffa52982561798522f5e44b012104c1a4b09148533ab665caa1c1f28539f9a053949260019282611f949610612009575b5050811b01600d55611f81565b84015160001960f88460031b161c191690553880611ffc565b6001849582939589015181550194019201611fc0565b600d855260008051602061360d833981519152601f830160051c81019185841061207e575b601f0160051c01905b8181106120735750611f30565b858155600101612066565b909150819061205d565b634e487b7160e01b84526041600452602484fd5b50346109c95760203660031901126109c9576101006120c16120bc6124be565b6127eb565b61136d6040518092612503565b50346109c95760203660031901126109c957600b546001600160a01b0316600435811561157a57611575816103fd9330903390612ba7565b50346109c957806003193601126109c957604051908082600d549161212a8361237f565b92838352602094600191866001821691826000146121b657505060011461216e575b505061215a92500383612455565b6113bd604051928284938452830190612499565b90859250600d825260008051602061360d8339815191525b85831061219e57505061215a9350820101388061214c565b80548389018501528794508693909201918101612186565b925093505061215a94915060ff191682840152151560051b820101388061214c565b50346109c957806003193601126109c957604051635e615a6b60e01b81526001600160a01b039082816004817f000000000000000000000000000000000000000000000000000000000000000086165afa90811561232757829160e091859161230d575b5001511633036109b857600e546122546109fe612a6f565b600781101590816122f95780151591826122eb575b826122d9575b505061096d576103fd9160066009549260ff191617600e5580845416906040517febb55ea32d517c9ec85f61357977ac73b84e65ebeaedb528ed791d7e25e30a2b309180610a7a8787836040906006929493606082019560018060a01b0316825260208201520152565b90915061097f5760021415388061226f565b506001811415915084612269565b634e487b7160e01b85526021600452602485fd5b61232191503d8087833e61084e8183612455565b3861223c565b6040513d85823e3d90fd5b905034610d4d5781600319360112610d4d5790546001600160a01b03168152602090f35b9190602083019260078210156123695752565b634e487b7160e01b600052602160045260246000fd5b90600182811c921680156123af575b602083101461239957565b634e487b7160e01b600052602260045260246000fd5b91607f169161238e565b602081019081106001600160401b038211176107b757604052565b604081019081106001600160401b038211176107b757604052565b61012081019081106001600160401b038211176107b757604052565b606081019081106001600160401b038211176107b757604052565b6001600160401b0381116107b757604052565b61010081019081106001600160401b038211176107b757604052565b90601f801991011681019081106001600160401b038211176107b757604052565b60005b8381106124895750506000910152565b8181015183820152602001612479565b906020916124b281518092818552858086019101612476565b601f01601f1916010190565b600435906001600160a01b03821682036124d457565b600080fd5b602435906001600160a01b03821682036124d457565b35906001600160a01b03821682036124d457565b60e080918051845260208101516020850152604081015151604085015260608101516060850152608081015151608085015260a081015160a085015260c081015160c08501520151910152565b6001600160401b0381116107b757601f01601f191660200190565b81601f820112156124d45780359061258282612550565b926125906040519485612455565b828452602083830101116124d457816000926020809301838601378301015290565b91908260409103126124d4576040516125ca816123d4565b809280359081151582036124d45760209183520135906001600160401b03821682036124d45760200152565b51906001600160a01b03821682036124d457565b91908260209103126124d457604051612622816123b9565b91518252565b60209182828203126124d45781516001600160401b03928382116124d45701916101e09384848403126124d457604051948501858110838211176107b757604052835185526126788185016125f6565b81860152612689836040860161260a565b6040860152606084015160608601526080840151608086015260a084015160a08601526126b860c085016125f6565b60c08601526126c960e085016125f6565b60e086015261010091828501519081116124d457840183601f820112156124d4578051906126f682612550565b946127046040519687612455565b8286528383830101116124d4578261271f9386019101612476565b8301526101206127308183016125f6565b908301526101406127428183016125f6565b908301526101606127548183016125f6565b908301526101806127668183016125f6565b908301526101a06127788183016125f6565b9083015261278a6101c08092016125f6565b9082015290565b6040519061279e82612439565b8160e06000918281528260208201526040516127b9816123b9565b83815260408201528260608201526040516127d3816123b9565b83815260808201528260a08201528260c08201520152565b6127f3612791565b506001546040516316c1973960e01b81526001600160a01b0392831660048201529161010091829184916024918391165afa9182156128c95760009261283857505090565b908092503d83116128c2575b61284e8183612455565b810191818303126124d45760e09061289f6040519361286c85612439565b8251855260208301516020860152612887816040850161260a565b6040860152606083015160608601526080830161260a565b608084015260a081015160a084015260c081015160c0840152015160e082015290565b503d612844565b6040513d6000823e3d90fd5b604051906128e2826123ef565b816101006000918281526040516128f8816123b9565b8381526020820152826040820152826060820152604051612918816123b9565b83815260808201528260a08201528260c08201528260e08201520152565b61293e6128d5565b5060405161294b816123ef565b600254815260405161295c816123b9565b6003548152602082015260045460408201526005546060820152604051612982816123b9565b6006548152608082015260075460a082015260085460c082015260095460e0820152600a5461010082015290565b919082039182116129bd57565b634e487b7160e01b600052601160045260246000fd5b5160038110156123695790565b60078110156123695760ff8019600e5416911617600e55565b9160c0939160018060a01b031683526020830152604082015260806060820152601b60808201527f506f736974696f6e2068617320616c726561647920657869746564000000000060a08201520190565b919082018092116129bd57565b908160209103126124d4575180151581036124d45790565b600060408051612a7e8161240b565b8281528260208201520152604051612a958161240b565b600f5481526010546020820152601154604082015290565b90612ac5928151906040602084015193015193613291565b90565b3d15612af3573d90612ad982612550565b91612ae76040519384612455565b82523d6000602084013e565b606090565b908215612ba2576001600160a01b03918216338103612b6f5750823403612b505716308114612b4c57600080809381935af1612b32612ac8565b5015612b3a57565b604051630c08bcb960e21b8152600490fd5b5050565b604051635693fffb60e01b815260048101849052346024820152604490fd5b308103612b8a57506000809381938293165af1612b32612ac8565b6024906040519063463de9db60e01b82526004820152fd5b505050565b929190928215612c8d576001600160a01b03908116938415612c5d57811690308203612c1257505060405163a9059cbb60e01b60208201526001600160a01b03919091166024820152604480820192909252908152612c1091612c0b606483612455565b61345f565b565b909291604051936323b872dd60e01b6020860152602485015216604483015260648201526064815260a08101918183106001600160401b038411176107b757612c109260405261345f565b8193945016338114600014612b6f5750823403612b505716308114612b4c57600080809381935af1612b32612ac8565b50505050565b8015610d3757612cb160ff600e5416612caa612a6f565b4291612aad565b600781101561236957600181141580612ddd575b61096d577fac20383bc611fb24ecfa942ed37ae8648074130276759a168535c23c5cf026c3612cf56101d7612936565b612cfe336127eb565b90612d74602082015191612d6a612d25606083019485519660c0850197429289519261302d565b96612d5d612d3787518751908c613161565b99612d43818b51612a4a565b8a5260208a01612d548c8251612a4a565b90528751612a4a565b8652611d6f898651612a4a565b6114548633613189565b612dd884519460608101519260a082015194604060c0840151930151519051915192604051968796339b309b8994919260e0969399989794919961010087019a8752602087015260408601526060850152608084015260a083015260c08201520152565b0390a3565b506002811415612cc5565b90602082019182518015612e25575060e001519182612e0657505050565b51604051631175404360e11b81529283926112089290600485016129f9565b60e09190910151604051631175404360e11b81526001600160a01b03909316600484015260248301919091526044820152608060648201526016608482015275506f736974696f6e20686173206e6f2073686172657360501b60a482015260c490fd5b612e906128d5565b50612e99612a6f565b612eb660406020830151920151916101008401928351914261330a565b805115612ff357612ec56128d5565b5060608301908151151580612fe9575b612f55575b50504290526020810151517ff7f050a5e163dbe15fb695b5b2e83ef129fc3565263dc8fc74049d3739e62fde825160c084015190612f4f604086015160808701515190604051948594309842879260a094919796959260c0850198855260208501526040840152606083015260808201520152565b0390a290565b620f42409081612f6982610223885161322c565b510491612f7e60c0870192610223845161322c565b51049060408601612f90838251612a4a565b9052612f9d8282516129b0565b905281612fab575b50612eda565b612fc6612fdc93612fbd8488516129b0565b87525183613545565b612fd5602087019182516133be565b9052613545565b6080830152388080612fa5565b5080511515612ed5565b5042905290565b818102929181159184041417156129bd57565b8115613017570490565b634e487b7160e01b600052601260045260246000fd5b939291909161303a612791565b50604085019161305e83516000604051613053816123b9565b5285519051906129b0565b6040519061306b826123b9565b81526020870192835193888561308b575b50505050505052606082015290565b61309e6130ed946102236130f29861322c565b6130ae60808301918251906133be565b60006040516130bc816123b9565b52516130e3620f424060c0604051956130d4876123b9565b82850687520192048251612a4a565b9052525190612ffa565b61300d565b6130fd8186516129b0565b61310c60a08701918251612a4a565b9052845238808080808861307c565b909180158015613159575b6131535761313861313d928492612ffa565b612a4a565b6000198101919082116129bd57612ac59161300d565b50905090565b508115613126565b9180158015613181575b61317c57612ac5926130ed91612ffa565b505090565b50821561316b565b6001546001600160a01b03908116803b156124d45760009283610124926131cb60405197889687956360d6081360e11b87521660048601526024850190612503565b5af180156128c9576131da5750565b612c1090612426565b80516002556020810151516003556040810151600455606081015160055560808101515160065560a081015160075560c081015160085560e08101516009556101000151600a55565b600060405161323a816123b9565b52620f4240908181029181830414901517156129bd576040519061325d826123b9565b815290565b620f424091613283916000604051613279816123b9565b5251905190612ffa565b046040519061325d826123b9565b9291909260078110158061236957600682149081156132fd575b81156132ed575b506132e557508210156132c757505050600090565b8110156132d5575050600190565b10156132e057600290565b600390565b935050505090565b90506123695760058114386132b2565b50506004811460006132ab565b92909192600060405161331c816123b9565b5282811080156133b4575b6133a2578261335093831061339a575b5081848211613392575b61334a916129b0565b926129b0565b8015801561338a575b61336657612ac591613545565b50506000604051613376816123b9565b52604051613383816123b9565b6000815290565b508115613359565b849150613341565b915038613337565b505050506000604051613376816123b9565b5083821015613327565b906133db9160006040516133d1816123b9565b5251905190612a4a565b6040519061325d826123b9565b60009190829161342d60405180926134196020830195632d839cb360e21b8752604060248501526064840190612499565b90604483015203601f198101835282612455565b51906a636f6e736f6c652e6c6f675afa50565b93906001600160a01b038082169086161061345b5793929190565b9290565b6040516134bd916001600160a01b0316613478826123d4565b6000806020958685527f5361666545524332303a206c6f772d6c6576656c2063616c6c206661696c656487860152868151910182855af16134b7612ac8565b91613573565b80519082821592831561352d575b505050156134d65750565b6084906040519062461bcd60e51b82526004820152602a60248201527f5361666545524332303a204552433230206f7065726174696f6e20646964206e6044820152691bdd081cdd58d8d9595960b21b6064820152fd5b61353d9350820181019101612a57565b3882816134cb565b906000604051613554816123b9565b52620f4240918281029281840414901517156129bd576133db9161300d565b919290156135d55750815115613587575090565b3b156135905790565b60405162461bcd60e51b815260206004820152601d60248201527f416464726573733a2063616c6c20746f206e6f6e2d636f6e74726163740000006044820152606490fd5b8251909150156135e85750805190602001fd5b60405162461bcd60e51b81526020600482015290819061120890602483019061249956fed7b6990105719101dabeb77144f2a3385c8033acd3af97e9423a695e81ad1eb5a2646970667358221220da06e4afaa80d3d918112e3c1b79d45a9a678083c3dd8d3aa7b1ff3fd9bcb04564736f6c63430008180033",
  "devdoc": {
    "details": "Main contract for managing token streaming with vesting and pool creation capabilities",
    "kind": "dev",
    "methods": {
      "cancelStream()": {
        "details": "Allows the creator to cancel the stream during the Waiting phase"
      },
      "cancelWithAdmin()": {
        "details": "Allows the protocol admin to cancel the stream during Waiting, Bootstrapping, or Active phases"
      },
      "constructor": {
        "details": "Constructor to set the stream factory address",
        "params": {
          "factoryAddress": "Address of the stream factory"
        }
      },
      "exitStream()": {
        "details": "Allows users to exit the stream and receive their tokens based on stream outcome"
      },
      "finalizeStream()": {
        "details": "Allows the creator to finalize the stream after it has ended"
      },
      "getPosition(address)": {
        "details": "Get a user's position information",
        "params": {
          "user": "Address of the user"
        },
        "returns": {
          "_0": "The user's position"
        }
      },
      "getStreamState()": {
        "details": "Get the current stream state",
        "returns": {
          "_0": "The current stream state"
        }
      },
      "getStreamStatus()": {
        "details": "Get the current stream status",
        "returns": {
          "_0": "The current stream status"
        }
      },
      "initialize((address,address,address,uint256,uint256,uint256,uint256,uint256,(string),(bool,uint64),(bool,uint64),(uint256,uint8),string),address)": {
        "details": "Initializes the stream with the provided configuration",
        "params": {
          "createStreamMessage": "Stream creation parameters",
          "storageAddress": "Address of the position storage contract"
        }
      },
      "subscribe(uint256)": {
        "details": "Allows users to subscribe to the stream by providing input tokens",
        "params": {
          "amountIn": "Amount of input tokens to subscribe with"
        }
      },
      "subscribeWithPermit(uint256,address,((address,uint160,uint48,uint48),address,uint256),bytes)": {
        "details": "Allows users to subscribe using Permit2 signature-based allowance.      The Permit2 signature (PermitSingle) is verified and consumed, then the      tokens are pulled from `owner` to this Stream contract. The rest of the      logic mirrors the regular `subscribe` flow.",
        "params": {
          "amountIn": "Amount of input tokens user wants to contribute",
          "owner": "Address that actually holds the tokens (signer of permit)",
          "permitSingle": "Full Permit2 data struct describing the allowance",
          "signature": "EIP-712 signature over `permitSingle`"
        }
      },
      "syncPositionExternal(address)": {
        "details": "External function to sync a specific user's position",
        "params": {
          "user": "Address of the user whose position should be synced"
        }
      },
      "syncStreamExternal()": {
        "details": "External function to sync the stream state and status"
      },
      "updateStreamMetadata(string)": {
        "details": "Allows the creator to update the stream metadata"
      },
      "withdraw(uint256)": {
        "details": "Allows users to withdraw their input tokens from the streamIf cap is 0, the user will withdraw all their input tokens",
        "params": {
          "cap": "Amount of input tokens to withdraw"
        }
      }
    },
    "title": "Stream",
    "version": 1
  },
  "userdoc": {
    "kind": "user",
    "methods": {
      "PERMIT2()": {
        "notice": "Address of the Permit2 contract"
      },
      "STREAM_FACTORY_ADDRESS()": {
        "notice": "Immutable address of the stream factory that deployed this stream"
      },
      "cancelStream()": {
        "notice": "Only the creator can cancel during Waiting phase"
      },
      "cancelWithAdmin()": {
        "notice": "Only the protocol admin can call this function"
      },
      "creator()": {
        "notice": "Address of the stream creator"
      },
      "exitStream()": {
        "notice": "Users can exit after the stream has ended or been cancelled"
      },
      "finalizeStream()": {
        "notice": "Only the creator can call this function when stream status is Ended"
      },
      "initialize((address,address,address,uint256,uint256,uint256,uint256,uint256,(string),(bool,uint64),(bool,uint64),(uint256,uint8),string),address)": {
        "notice": "This function can only be called once by the stream factory"
      },
      "positionStorageAddress()": {
        "notice": "Address of the position storage contract"
      },
      "postStreamActions()": {
        "notice": "Post-stream actions like vesting and pool creation"
      },
      "streamMetadata()": {
        "notice": "Metadata associated with the stream"
      },
      "streamState()": {
        "notice": "Current state of the stream (distribution index, remaining tokens, etc.)"
      },
      "streamStatus()": {
        "notice": "Current status of the stream (Waiting, Bootstrapping, Active, etc.)"
      },
      "streamTimes()": {
        "notice": "Timing information for the stream phases"
      },
      "streamTokens()": {
        "notice": "Token addresses for input and output tokens"
      },
      "subscribe(uint256)": {
        "notice": "Users can subscribe during Bootstrapping or Active phases"
      },
      "syncPositionExternal(address)": {
        "notice": "Anyone can call this to update a user's position based on current stream state"
      },
      "syncStreamExternal()": {
        "notice": "Anyone can call this to update the stream state based on current time"
      },
      "updateStreamMetadata(string)": {
        "notice": "Only the creator can call this function"
      },
      "withdraw(uint256)": {
        "notice": "Users can withdraw during Active or Bootstrapping phases"
      }
    },
    "notice": "This contract handles the core streaming logic including subscriptions, withdrawals, exits, and finalization",
    "version": 1
  },
  "storageLayout": {
    "storage": [
      {
        "astId": 10583,
        "contract": "src/Stream.sol:Stream",
        "label": "creator",
        "offset": 0,
        "slot": "0",
        "type": "t_address"
      },
      {
        "astId": 10589,
        "contract": "src/Stream.sol:Stream",
        "label": "positionStorageAddress",
        "offset": 0,
        "slot": "1",
        "type": "t_address"
      },
      {
        "astId": 10592,
        "contract": "src/Stream.sol:Stream",
        "label": "initialized",
        "offset": 20,
        "slot": "1",
        "type": "t_bool"
      },
      {
        "astId": 10596,
        "contract": "src/Stream.sol:Stream",
        "label": "streamState",
        "offset": 0,
        "slot": "2",
        "type": "t_struct(StreamState)17623_storage"
      },
      {
        "astId": 10600,
        "contract": "src/Stream.sol:Stream",
        "label": "streamTokens",
        "offset": 0,
        "slot": "11",
        "type": "t_struct(StreamTokens)17628_storage"
      },
      {
        "astId": 10604,
        "contract": "src/Stream.sol:Stream",
        "label": "streamMetadata",
        "offset": 0,
        "slot": "13",
        "type": "t_struct(StreamMetadata)17602_storage"
      },
      {
        "astId": 10608,
        "contract": "src/Stream.sol:Stream",
        "label": "streamStatus",
        "offset": 0,
        "slot": "14",
        "type": "t_enum(Status)17557"
      },
      {
        "astId": 10612,
        "contract": "src/Stream.sol:Stream",
        "label": "streamTimes",
        "offset": 0,
        "slot": "15",
        "type": "t_struct(StreamTimes)17599_storage"
      },
      {
        "astId": 10616,
        "contract": "src/Stream.sol:Stream",
        "label": "postStreamActions",
        "offset": 0,
        "slot": "18",
        "type": "t_struct(PostStreamActions)17649_storage"
      }
    ],
    "types": {
      "t_address": {
        "encoding": "inplace",
        "label": "address",
        "numberOfBytes": "20"
      },
      "t_bool": {
        "encoding": "inplace",
        "label": "bool",
        "numberOfBytes": "1"
      },
      "t_enum(DexType)17561": {
        "encoding": "inplace",
        "label": "enum StreamTypes.DexType",
        "numberOfBytes": "1"
      },
      "t_enum(Status)17557": {
        "encoding": "inplace",
        "label": "enum StreamTypes.Status",
        "numberOfBytes": "1"
      },
      "t_string_storage": {
        "encoding": "bytes",
        "label": "string",
        "numberOfBytes": "32"
      },
      "t_struct(Decimal)16251_storage": {
        "encoding": "inplace",
        "label": "struct Decimal",
        "members": [
          {
            "astId": 16250,
            "contract": "src/Stream.sol:Stream",
            "label": "value",
            "offset": 0,
            "slot": "0",
            "type": "t_uint256"
          }
        ],
        "numberOfBytes": "32"
      },
      "t_struct(PoolInfo)17639_storage": {
        "encoding": "inplace",
        "label": "struct StreamTypes.PoolInfo",
        "members": [
          {
            "astId": 17635,
            "contract": "src/Stream.sol:Stream",
            "label": "poolOutSupplyAmount",
            "offset": 0,
            "slot": "0",
            "type": "t_uint256"
          },
          {
            "astId": 17638,
            "contract": "src/Stream.sol:Stream",
            "label": "dexType",
            "offset": 0,
            "slot": "1",
            "type": "t_enum(DexType)17561"
          }
        ],
        "numberOfBytes": "64"
      },
      "t_struct(PostStreamActions)17649_storage": {
        "encoding": "inplace",
        "label": "struct StreamTypes.PostStreamActions",
        "members": [
          {
            "astId": 17642,
            "contract": "src/Stream.sol:Stream",
            "label": "poolInfo",
            "offset": 0,
            "slot": "0",
            "type": "t_struct(PoolInfo)17639_storage"
          },
          {
            "astId": 17645,
            "contract": "src/Stream.sol:Stream",
            "label": "creatorVesting",
            "offset": 0,
            "slot": "2",
            "type": "t_struct(VestingInfo)17633_storage"
          },
          {
            "astId": 17648,
            "contract": "src/Stream.sol:Stream",
            "label": "beneficiaryVesting",
            "offset": 0,
            "slot": "3",
            "type": "t_struct(VestingInfo)17633_storage"
          }
        ],
        "numberOfBytes": "128"
      },
      "t_struct(StreamMetadata)17602_storage": {
        "encoding": "inplace",
        "label": "struct StreamTypes.StreamMetadata",
        "members": [
          {
            "astId": 17601,
            "contract": "src/Stream.sol:Stream",
            "label": "ipfsHash",
            "offset": 0,
            "slot": "0",
            "type": "t_string_storage"
          }
        ],
        "numberOfBytes": "32"
      },
      "t_struct(StreamState)17623_storage": {
        "encoding": "inplace",
        "label": "struct StreamTypes.StreamState",
        "members": [
          {
            "astId": 17604,
            "contract": "src/Stream.sol:Stream",
            "label": "outRemaining",
            "offset": 0,
            "slot": "0",
            "type": "t_uint256"
          },
          {
            "astId": 17607,
            "contract": "src/Stream.sol:Stream",
            "label": "distIndex",
            "offset": 0,
            "slot": "1",
            "type": "t_struct(Decimal)16251_storage"
          },
          {
            "astId": 17609,
            "contract": "src/Stream.sol:Stream",
            "label": "spentIn",
            "offset": 0,
            "slot": "2",
            "type": "t_uint256"
          },
          {
            "astId": 17611,
            "contract": "src/Stream.sol:Stream",
            "label": "shares",
            "offset": 0,
            "slot": "3",
            "type": "t_uint256"
          },
          {
            "astId": 17614,
            "contract": "src/Stream.sol:Stream",
            "label": "currentStreamedPrice",
            "offset": 0,
            "slot": "4",
            "type": "t_struct(Decimal)16251_storage"
          },
          {
            "astId": 17616,
            "contract": "src/Stream.sol:Stream",
            "label": "threshold",
            "offset": 0,
            "slot": "5",
            "type": "t_uint256"
          },
          {
            "astId": 17618,
            "contract": "src/Stream.sol:Stream",
            "label": "inSupply",
            "offset": 0,
            "slot": "6",
            "type": "t_uint256"
          },
          {
            "astId": 17620,
            "contract": "src/Stream.sol:Stream",
            "label": "outSupply",
            "offset": 0,
            "slot": "7",
            "type": "t_uint256"
          },
          {
            "astId": 17622,
            "contract": "src/Stream.sol:Stream",
            "label": "lastUpdated",
            "offset": 0,
            "slot": "8",
            "type": "t_uint256"
          }
        ],
        "numberOfBytes": "288"
      },
      "t_struct(StreamTimes)17599_storage": {
        "encoding": "inplace",
        "label": "struct StreamTypes.StreamTimes",
        "members": [
          {
            "astId": 17594,
            "contract": "src/Stream.sol:Stream",
            "label": "bootstrappingStartTime",
            "offset": 0,
            "slot": "0",
            "type": "t_uint256"
          },
          {
            "astId": 17596,
            "contract": "src/Stream.sol:Stream",
            "label": "streamStartTime",
            "offset": 0,
            "slot": "1",
            "type": "t_uint256"
          },
          {
            "astId": 17598,
            "contract": "src/Stream.sol:Stream",
            "label": "streamEndTime",
            "offset": 0,
            "slot": "2",
            "type": "t_uint256"
          }
        ],
        "numberOfBytes": "96"
      },
      "t_struct(StreamTokens)17628_storage": {
        "encoding": "inplace",
        "label": "struct StreamTypes.StreamTokens",
        "members": [
          {
            "astId": 17625,
            "contract": "src/Stream.sol:Stream",
            "label": "inSupplyToken",
            "offset": 0,
            "slot": "0",
            "type": "t_address"
          },
          {
            "astId": 17627,
            "contract": "src/Stream.sol:Stream",
            "label": "outSupplyToken",
            "offset": 0,
            "slot": "1",
            "type": "t_address"
          }
        ],
        "numberOfBytes": "64"
      },
      "t_struct(VestingInfo)17633_storage": {
        "encoding": "inplace",
        "label": "struct StreamTypes.VestingInfo",
        "members": [
          {
            "astId": 17630,
            "contract": "src/Stream.sol:Stream",
            "label": "isVestingEnabled",
            "offset": 0,
            "slot": "0",
            "type": "t_bool"
          },
          {
            "astId": 17632,
            "contract": "src/Stream.sol:Stream",
            "label": "vestingDuration",
            "offset": 1,
            "slot": "0",
            "type": "t_uint64"
          }
        ],
        "numberOfBytes": "32"
      },
      "t_uint256": {
        "encoding": "inplace",
        "label": "uint256",
        "numberOfBytes": "32"
      },
      "t_uint64": {
        "encoding": "inplace",
        "label": "uint64",
        "numberOfBytes": "8"
      }
    }
  }
}