{
  "address": "0x0AD08b53296D77Ac84a86288c4C90ADE1a00d148",
  "abi": [
    {
      "inputs": [
        {
          "internalType": "address",
          "name": "protocolAdmin",
          "type": "address"
        }
      ],
      "stateMutability": "nonpayable",
      "type": "constructor"
    },
    {
      "inputs": [],
      "name": "AlreadyInitialized",
      "type": "error"
    },
    {
      "inputs": [],
      "name": "BootstrappingDurationTooShort",
      "type": "error"
    },
    {
      "inputs": [],
      "name": "ContractFrozen",
      "type": "error"
    },
    {
      "inputs": [
        {
          "internalType": "uint256",
          "name": "expected",
          "type": "uint256"
        },
        {
          "internalType": "uint256",
          "name": "actual",
          "type": "uint256"
        }
      ],
      "name": "IncorrectNativeAmount",
      "type": "error"
    },
    {
      "inputs": [],
      "name": "InvalidAcceptedInSupplyTokens",
      "type": "error"
    },
    {
      "inputs": [],
      "name": "InvalidBootstrappingStartTime",
      "type": "error"
    },
    {
      "inputs": [],
      "name": "InvalidBootstrappingTime",
      "type": "error"
    },
    {
      "inputs": [],
      "name": "InvalidCreator",
      "type": "error"
    },
    {
      "inputs": [],
      "name": "InvalidDexType",
      "type": "error"
    },
    {
      "inputs": [],
      "name": "InvalidExitFeeRatio",
      "type": "error"
    },
    {
      "inputs": [],
      "name": "InvalidFeeCollector",
      "type": "error"
    },
    {
      "inputs": [],
      "name": "InvalidImplementationAddress",
      "type": "error"
    },
    {
      "inputs": [
        {
          "internalType": "address",
          "name": "from",
          "type": "address"
        }
      ],
      "name": "InvalidNativePayer",
      "type": "error"
    },
    {
      "inputs": [],
      "name": "InvalidOutSupplyToken",
      "type": "error"
    },
    {
      "inputs": [],
      "name": "InvalidPoolWrapper",
      "type": "error"
    },
    {
      "inputs": [],
      "name": "InvalidProtocolAdmin",
      "type": "error"
    },
    {
      "inputs": [],
      "name": "InvalidStreamCreationFeeToken",
      "type": "error"
    },
    {
      "inputs": [],
      "name": "InvalidStreamEndTime",
      "type": "error"
    },
    {
      "inputs": [],
      "name": "InvalidStreamImplementationAddress",
      "type": "error"
    },
    {
      "inputs": [],
      "name": "InvalidStreamStartTime",
      "type": "error"
    },
    {
      "inputs": [],
      "name": "InvalidToSVersion",
      "type": "error"
    },
    {
      "inputs": [],
      "name": "InvalidTokenDecimals",
      "type": "error"
    },
    {
      "inputs": [],
      "name": "InvalidTokenName",
      "type": "error"
    },
    {
      "inputs": [],
      "name": "InvalidTokenSupply",
      "type": "error"
    },
    {
      "inputs": [],
      "name": "InvalidTokenSymbol",
      "type": "error"
    },
    {
      "inputs": [],
      "name": "InvalidTokenTotalSupply",
      "type": "error"
    },
    {
      "inputs": [],
      "name": "InvalidVestingDuration",
      "type": "error"
    },
    {
      "inputs": [],
      "name": "NativeTokenTransferFailed",
      "type": "error"
    },
    {
      "inputs": [],
      "name": "NotAdmin",
      "type": "error"
    },
    {
      "inputs": [],
      "name": "PoolWrapperNotSet",
      "type": "error"
    },
    {
      "inputs": [],
      "name": "SameInputAndOutputToken",
      "type": "error"
    },
    {
      "inputs": [],
      "name": "StreamAddressPredictionFailed",
      "type": "error"
    },
    {
      "inputs": [],
      "name": "StreamDurationTooShort",
      "type": "error"
    },
    {
      "inputs": [],
      "name": "StreamEndMustBeAfterStart",
      "type": "error"
    },
    {
      "inputs": [],
      "name": "StreamInputTokenNotAccepted",
      "type": "error"
    },
    {
      "inputs": [],
      "name": "StreamStartMustBeAfterBootstrapping",
      "type": "error"
    },
    {
      "inputs": [],
      "name": "TokenTransferFailed",
      "type": "error"
    },
    {
      "inputs": [],
      "name": "WaitingDurationTooShort",
      "type": "error"
    },
    {
      "inputs": [],
      "name": "ZeroOutSupplyNotAllowed",
      "type": "error"
    },
    {
      "anonymous": false,
      "inputs": [
        {
          "indexed": true,
          "internalType": "address",
          "name": "factory",
          "type": "address"
        },
        {
          "indexed": false,
          "internalType": "address[]",
          "name": "tokensAdded",
          "type": "address[]"
        },
        {
          "indexed": false,
          "internalType": "address[]",
          "name": "tokensRemoved",
          "type": "address[]"
        }
      ],
      "name": "AcceptedTokensUpdated",
      "type": "event"
    },
    {
      "anonymous": false,
      "inputs": [
        {
          "indexed": true,
          "internalType": "address",
          "name": "factory",
          "type": "address"
        },
        {
          "indexed": false,
          "internalType": "address",
          "name": "streamImplementationAddress",
          "type": "address"
        },
        {
          "indexed": false,
          "internalType": "address",
          "name": "V2PoolWrapperAddress",
          "type": "address"
        },
        {
          "indexed": false,
          "internalType": "address",
          "name": "V3PoolWrapperAddress",
          "type": "address"
        },
        {
          "indexed": false,
          "internalType": "address",
          "name": "AerodromePoolWrapperAddress",
          "type": "address"
        },
        {
          "indexed": false,
          "internalType": "address",
          "name": "feeCollector",
          "type": "address"
        },
        {
          "indexed": false,
          "internalType": "address",
          "name": "protocolAdmin",
          "type": "address"
        },
        {
          "indexed": false,
          "internalType": "address",
          "name": "streamCreationFeeToken",
          "type": "address"
        },
        {
          "indexed": false,
          "internalType": "address[]",
          "name": "acceptedInSupplyTokens",
          "type": "address[]"
        },
        {
          "indexed": false,
          "internalType": "uint256",
          "name": "streamCreationFee",
          "type": "uint256"
        },
        {
          "indexed": false,
          "internalType": "uint256",
          "name": "exitFeeRatio",
          "type": "uint256"
        },
        {
          "indexed": false,
          "internalType": "uint256",
          "name": "minWaitingDuration",
          "type": "uint256"
        },
        {
          "indexed": false,
          "internalType": "uint256",
          "name": "minBootstrappingDuration",
          "type": "uint256"
        },
        {
          "indexed": false,
          "internalType": "uint256",
          "name": "minStreamDuration",
          "type": "uint256"
        },
        {
          "indexed": false,
          "internalType": "string",
          "name": "tosVersion",
          "type": "string"
        },
        {
          "indexed": false,
          "internalType": "address",
          "name": "vestingAddress",
          "type": "address"
        }
      ],
      "name": "FactoryInitialized",
      "type": "event"
    },
    {
      "anonymous": false,
      "inputs": [
        {
          "indexed": true,
          "internalType": "address",
          "name": "factory",
          "type": "address"
        },
        {
          "indexed": false,
          "internalType": "address",
          "name": "newFeeCollector",
          "type": "address"
        }
      ],
      "name": "FeeCollectorUpdated",
      "type": "event"
    },
    {
      "anonymous": false,
      "inputs": [
        {
          "indexed": true,
          "internalType": "address",
          "name": "factory",
          "type": "address"
        },
        {
          "indexed": false,
          "internalType": "bool",
          "name": "frozen",
          "type": "bool"
        }
      ],
      "name": "FrozenStateUpdated",
      "type": "event"
    },
    {
      "anonymous": false,
      "inputs": [
        {
          "indexed": true,
          "internalType": "address",
          "name": "factory",
          "type": "address"
        },
        {
          "indexed": false,
          "internalType": "uint256",
          "name": "streamCreationFee",
          "type": "uint256"
        },
        {
          "indexed": false,
          "internalType": "uint256",
          "name": "exitFeeRatio",
          "type": "uint256"
        },
        {
          "indexed": false,
          "internalType": "uint256",
          "name": "minWaitingDuration",
          "type": "uint256"
        },
        {
          "indexed": false,
          "internalType": "uint256",
          "name": "minBootstrappingDuration",
          "type": "uint256"
        },
        {
          "indexed": false,
          "internalType": "uint256",
          "name": "minStreamDuration",
          "type": "uint256"
        },
        {
          "indexed": false,
          "internalType": "string",
          "name": "tosVersion",
          "type": "string"
        }
      ],
      "name": "ParamsUpdated",
      "type": "event"
    },
    {
      "anonymous": false,
      "inputs": [
        {
          "indexed": true,
          "internalType": "address",
          "name": "factoryAddress",
          "type": "address"
        },
        {
          "indexed": false,
          "internalType": "address",
          "name": "V2PoolWrapperAddress",
          "type": "address"
        },
        {
          "indexed": false,
          "internalType": "address",
          "name": "V3PoolWrapperAddress",
          "type": "address"
        },
        {
          "indexed": false,
          "internalType": "address",
          "name": "AerodromePoolWrapperAddress",
          "type": "address"
        }
      ],
      "name": "PoolWrapperUpdated",
      "type": "event"
    },
    {
      "anonymous": false,
      "inputs": [
        {
          "indexed": true,
          "internalType": "address",
          "name": "factory",
          "type": "address"
        },
        {
          "indexed": false,
          "internalType": "address",
          "name": "newProtocolAdmin",
          "type": "address"
        }
      ],
      "name": "ProtocolAdminUpdated",
      "type": "event"
    },
    {
      "anonymous": false,
      "inputs": [
        {
          "indexed": true,
          "internalType": "address",
          "name": "streamFactoryAddress",
          "type": "address"
        },
        {
          "indexed": false,
          "internalType": "address",
          "name": "streamOutToken",
          "type": "address"
        },
        {
          "indexed": false,
          "internalType": "address",
          "name": "streamInToken",
          "type": "address"
        },
        {
          "indexed": false,
          "internalType": "address",
          "name": "streamAddress",
          "type": "address"
        },
        {
          "indexed": false,
          "internalType": "address",
          "name": "creator",
          "type": "address"
        },
        {
          "indexed": false,
          "internalType": "address",
          "name": "positionStorageAddress",
          "type": "address"
        },
        {
          "indexed": false,
          "internalType": "uint256",
          "name": "streamOutAmount",
          "type": "uint256"
        },
        {
          "indexed": false,
          "internalType": "uint256",
          "name": "poolOutSupplyAmount",
          "type": "uint256"
        },
        {
          "indexed": false,
          "internalType": "string",
          "name": "dexType",
          "type": "string"
        },
        {
          "indexed": false,
          "internalType": "bool",
          "name": "isCreatorVestingEnabled",
          "type": "bool"
        },
        {
          "indexed": false,
          "internalType": "bool",
          "name": "isBeneficiaryVestingEnabled",
          "type": "bool"
        },
        {
          "indexed": false,
          "internalType": "uint64",
          "name": "creatorVestingDuration",
          "type": "uint64"
        },
        {
          "indexed": false,
          "internalType": "uint64",
          "name": "beneficiaryVestingDuration",
          "type": "uint64"
        },
        {
          "indexed": false,
          "internalType": "uint256",
          "name": "bootstrappingStartTime",
          "type": "uint256"
        },
        {
          "indexed": false,
          "internalType": "uint256",
          "name": "streamStartTime",
          "type": "uint256"
        },
        {
          "indexed": false,
          "internalType": "uint256",
          "name": "streamEndTime",
          "type": "uint256"
        },
        {
          "indexed": false,
          "internalType": "uint256",
          "name": "threshold",
          "type": "uint256"
        },
        {
          "indexed": false,
          "internalType": "string",
          "name": "metadataIpfsHash",
          "type": "string"
        },
        {
          "indexed": false,
          "internalType": "string",
          "name": "tosVersion",
          "type": "string"
        },
        {
          "indexed": false,
          "internalType": "uint16",
          "name": "streamId",
          "type": "uint16"
        }
      ],
      "name": "StreamCreated",
      "type": "event"
    },
    {
      "anonymous": false,
      "inputs": [
        {
          "indexed": true,
          "internalType": "address",
          "name": "token",
          "type": "address"
        },
        {
          "indexed": false,
          "internalType": "string",
          "name": "name",
          "type": "string"
        },
        {
          "indexed": false,
          "internalType": "string",
          "name": "symbol",
          "type": "string"
        },
        {
          "indexed": false,
          "internalType": "uint8",
          "name": "decimals",
          "type": "uint8"
        },
        {
          "indexed": false,
          "internalType": "uint256",
          "name": "totalSupply",
          "type": "uint256"
        }
      ],
      "name": "TokenCreated",
      "type": "event"
    },
    {
      "anonymous": false,
      "inputs": [
        {
          "indexed": true,
          "internalType": "address",
          "name": "factoryAddress",
          "type": "address"
        },
        {
          "indexed": false,
          "internalType": "address",
          "name": "vestingContract",
          "type": "address"
        }
      ],
      "name": "VestingContractDeployed",
      "type": "event"
    },
    {
      "inputs": [
        {
          "internalType": "address",
          "name": "",
          "type": "address"
        }
      ],
      "name": "acceptedInSupplyTokens",
      "outputs": [
        {
          "internalType": "bool",
          "name": "",
          "type": "bool"
        }
      ],
      "stateMutability": "view",
      "type": "function"
    },
    {
      "inputs": [
        {
          "components": [
            {
              "internalType": "address",
              "name": "creator",
              "type": "address"
            },
            {
              "internalType": "address",
              "name": "inSupplyToken",
              "type": "address"
            },
            {
              "internalType": "address",
              "name": "outSupplyToken",
              "type": "address"
            },
            {
              "internalType": "uint256",
              "name": "streamOutAmount",
              "type": "uint256"
            },
            {
              "internalType": "uint256",
              "name": "threshold",
              "type": "uint256"
            },
            {
              "internalType": "uint256",
              "name": "bootstrappingStartTime",
              "type": "uint256"
            },
            {
              "internalType": "uint256",
              "name": "streamStartTime",
              "type": "uint256"
            },
            {
              "internalType": "uint256",
              "name": "streamEndTime",
              "type": "uint256"
            },
            {
              "components": [
                {
                  "internalType": "string",
                  "name": "ipfsHash",
                  "type": "string"
                }
              ],
              "internalType": "struct StreamTypes.StreamMetadata",
              "name": "metadata",
              "type": "tuple"
            },
            {
              "components": [
                {
                  "internalType": "bool",
                  "name": "isVestingEnabled",
                  "type": "bool"
                },
                {
                  "internalType": "uint64",
                  "name": "vestingDuration",
                  "type": "uint64"
                }
              ],
              "internalType": "struct StreamTypes.VestingInfo",
              "name": "creatorVesting",
              "type": "tuple"
            },
            {
              "components": [
                {
                  "internalType": "bool",
                  "name": "isVestingEnabled",
                  "type": "bool"
                },
                {
                  "internalType": "uint64",
                  "name": "vestingDuration",
                  "type": "uint64"
                }
              ],
              "internalType": "struct StreamTypes.VestingInfo",
              "name": "beneficiaryVesting",
              "type": "tuple"
            },
            {
              "components": [
                {
                  "internalType": "uint256",
                  "name": "poolOutSupplyAmount",
                  "type": "uint256"
                },
                {
                  "internalType": "enum StreamTypes.DexType",
                  "name": "dexType",
                  "type": "uint8"
                }
              ],
              "internalType": "struct StreamTypes.PoolInfo",
              "name": "poolInfo",
              "type": "tuple"
            },
            {
              "internalType": "string",
              "name": "tosVersion",
              "type": "string"
            }
          ],
          "internalType": "struct StreamTypes.CreateStreamMessage",
          "name": "createStreamMessage",
          "type": "tuple"
        }
      ],
      "name": "createStream",
      "outputs": [],
      "stateMutability": "payable",
      "type": "function"
    },
    {
      "inputs": [
        {
          "components": [
            {
              "internalType": "address",
              "name": "creator",
              "type": "address"
            },
            {
              "internalType": "address",
              "name": "inSupplyToken",
              "type": "address"
            },
            {
              "internalType": "address",
              "name": "outSupplyToken",
              "type": "address"
            },
            {
              "internalType": "uint256",
              "name": "streamOutAmount",
              "type": "uint256"
            },
            {
              "internalType": "uint256",
              "name": "threshold",
              "type": "uint256"
            },
            {
              "internalType": "uint256",
              "name": "bootstrappingStartTime",
              "type": "uint256"
            },
            {
              "internalType": "uint256",
              "name": "streamStartTime",
              "type": "uint256"
            },
            {
              "internalType": "uint256",
              "name": "streamEndTime",
              "type": "uint256"
            },
            {
              "components": [
                {
                  "internalType": "string",
                  "name": "ipfsHash",
                  "type": "string"
                }
              ],
              "internalType": "struct StreamTypes.StreamMetadata",
              "name": "metadata",
              "type": "tuple"
            },
            {
              "components": [
                {
                  "internalType": "bool",
                  "name": "isVestingEnabled",
                  "type": "bool"
                },
                {
                  "internalType": "uint64",
                  "name": "vestingDuration",
                  "type": "uint64"
                }
              ],
              "internalType": "struct StreamTypes.VestingInfo",
              "name": "creatorVesting",
              "type": "tuple"
            },
            {
              "components": [
                {
                  "internalType": "bool",
                  "name": "isVestingEnabled",
                  "type": "bool"
                },
                {
                  "internalType": "uint64",
                  "name": "vestingDuration",
                  "type": "uint64"
                }
              ],
              "internalType": "struct StreamTypes.VestingInfo",
              "name": "beneficiaryVesting",
              "type": "tuple"
            },
            {
              "components": [
                {
                  "internalType": "uint256",
                  "name": "poolOutSupplyAmount",
                  "type": "uint256"
                },
                {
                  "internalType": "enum StreamTypes.DexType",
                  "name": "dexType",
                  "type": "uint8"
                }
              ],
              "internalType": "struct StreamTypes.PoolInfo",
              "name": "poolInfo",
              "type": "tuple"
            },
            {
              "internalType": "string",
              "name": "tosVersion",
              "type": "string"
            }
          ],
          "internalType": "struct StreamTypes.CreateStreamMessage",
          "name": "createStreamMessage",
          "type": "tuple"
        },
        {
          "components": [
            {
              "internalType": "string",
              "name": "name",
              "type": "string"
            },
            {
              "internalType": "string",
              "name": "symbol",
              "type": "string"
            },
            {
              "internalType": "uint8",
              "name": "decimals",
              "type": "uint8"
            },
            {
              "internalType": "uint256",
              "name": "totalSupply",
              "type": "uint256"
            }
          ],
          "internalType": "struct StreamTypes.TokenCreationInfo",
          "name": "tokenCreationInfo",
          "type": "tuple"
        }
      ],
      "name": "createStreamWithTokenCreation",
      "outputs": [],
      "stateMutability": "payable",
      "type": "function"
    },
    {
      "inputs": [],
      "name": "currentStreamId",
      "outputs": [
        {
          "internalType": "uint16",
          "name": "",
          "type": "uint16"
        }
      ],
      "stateMutability": "view",
      "type": "function"
    },
    {
      "inputs": [],
      "name": "frozen",
      "outputs": [
        {
          "internalType": "bool",
          "name": "",
          "type": "bool"
        }
      ],
      "stateMutability": "view",
      "type": "function"
    },
    {
      "inputs": [],
      "name": "getAcceptedInSupplyTokens",
      "outputs": [
        {
          "internalType": "address[]",
          "name": "",
          "type": "address[]"
        }
      ],
      "stateMutability": "view",
      "type": "function"
    },
    {
      "inputs": [],
      "name": "getParams",
      "outputs": [
        {
          "components": [
            {
              "internalType": "uint256",
              "name": "streamCreationFee",
              "type": "uint256"
            },
            {
              "internalType": "address",
              "name": "streamCreationFeeToken",
              "type": "address"
            },
            {
              "components": [
                {
                  "internalType": "uint256",
                  "name": "value",
                  "type": "uint256"
                }
              ],
              "internalType": "struct Decimal",
              "name": "exitFeeRatio",
              "type": "tuple"
            },
            {
              "internalType": "uint256",
              "name": "minWaitingDuration",
              "type": "uint256"
            },
            {
              "internalType": "uint256",
              "name": "minBootstrappingDuration",
              "type": "uint256"
            },
            {
              "internalType": "uint256",
              "name": "minStreamDuration",
              "type": "uint256"
            },
            {
              "internalType": "address",
              "name": "feeCollector",
              "type": "address"
            },
            {
              "internalType": "address",
              "name": "protocolAdmin",
              "type": "address"
            },
            {
              "internalType": "string",
              "name": "tosVersion",
              "type": "string"
            },
            {
              "internalType": "address",
              "name": "vestingFactoryAddress",
              "type": "address"
            },
            {
              "internalType": "address",
              "name": "V2PoolWrapperAddress",
              "type": "address"
            },
            {
              "internalType": "address",
              "name": "V3PoolWrapperAddress",
              "type": "address"
            },
            {
              "internalType": "address",
              "name": "AerodromePoolWrapperAddress",
              "type": "address"
            },
            {
              "internalType": "address",
              "name": "streamImplementationAddress",
              "type": "address"
            },
            {
              "internalType": "address",
              "name": "tokenFactoryAddress",
              "type": "address"
            }
          ],
          "internalType": "struct StreamFactoryTypes.Params",
          "name": "",
          "type": "tuple"
        }
      ],
      "stateMutability": "view",
      "type": "function"
    },
    {
      "inputs": [
        {
          "internalType": "uint16",
          "name": "streamId",
          "type": "uint16"
        }
      ],
      "name": "getStream",
      "outputs": [
        {
          "internalType": "address",
          "name": "",
          "type": "address"
        }
      ],
      "stateMutability": "view",
      "type": "function"
    },
    {
      "inputs": [],
      "name": "getStreams",
      "outputs": [
        {
          "internalType": "address[]",
          "name": "",
          "type": "address[]"
        }
      ],
      "stateMutability": "view",
      "type": "function"
    },
    {
      "inputs": [
        {
          "components": [
            {
              "internalType": "uint256",
              "name": "streamCreationFee",
              "type": "uint256"
            },
            {
              "internalType": "address",
              "name": "streamCreationFeeToken",
              "type": "address"
            },
            {
              "components": [
                {
                  "internalType": "uint256",
                  "name": "value",
                  "type": "uint256"
                }
              ],
              "internalType": "struct Decimal",
              "name": "exitFeeRatio",
              "type": "tuple"
            },
            {
              "internalType": "uint256",
              "name": "minWaitingDuration",
              "type": "uint256"
            },
            {
              "internalType": "uint256",
              "name": "minBootstrappingDuration",
              "type": "uint256"
            },
            {
              "internalType": "uint256",
              "name": "minStreamDuration",
              "type": "uint256"
            },
            {
              "internalType": "address",
              "name": "feeCollector",
              "type": "address"
            },
            {
              "internalType": "address",
              "name": "protocolAdmin",
              "type": "address"
            },
            {
              "internalType": "string",
              "name": "tosVersion",
              "type": "string"
            },
            {
              "internalType": "address",
              "name": "V2PoolWrapperAddress",
              "type": "address"
            },
            {
              "internalType": "address",
              "name": "V3PoolWrapperAddress",
              "type": "address"
            },
            {
              "internalType": "address",
              "name": "AerodromePoolWrapperAddress",
              "type": "address"
            },
            {
              "internalType": "address",
              "name": "streamImplementationAddress",
              "type": "address"
            },
            {
              "internalType": "address[]",
              "name": "acceptedInSupplyTokens",
              "type": "address[]"
            },
            {
              "internalType": "address",
              "name": "tokenFactoryAddress",
              "type": "address"
            }
          ],
          "internalType": "struct StreamFactoryTypes.InitializeStreamFactoryMessage",
          "name": "initializeStreamFactoryMessage",
          "type": "tuple"
        }
      ],
      "name": "initialize",
      "outputs": [],
      "stateMutability": "nonpayable",
      "type": "function"
    },
    {
      "inputs": [],
      "name": "initialized",
      "outputs": [
        {
          "internalType": "bool",
          "name": "",
          "type": "bool"
        }
      ],
      "stateMutability": "view",
      "type": "function"
    },
    {
      "inputs": [
        {
          "internalType": "address",
          "name": "token",
          "type": "address"
        }
      ],
      "name": "isAcceptedInSupplyToken",
      "outputs": [
        {
          "internalType": "bool",
          "name": "",
          "type": "bool"
        }
      ],
      "stateMutability": "view",
      "type": "function"
    },
    {
      "inputs": [
        {
          "internalType": "address",
          "name": "streamAddress",
          "type": "address"
        }
      ],
      "name": "isStream",
      "outputs": [
        {
          "internalType": "bool",
          "name": "",
          "type": "bool"
        }
      ],
      "stateMutability": "view",
      "type": "function"
    },
    {
      "inputs": [],
      "name": "params",
      "outputs": [
        {
          "internalType": "uint256",
          "name": "streamCreationFee",
          "type": "uint256"
        },
        {
          "internalType": "address",
          "name": "streamCreationFeeToken",
          "type": "address"
        },
        {
          "components": [
            {
              "internalType": "uint256",
              "name": "value",
              "type": "uint256"
            }
          ],
          "internalType": "struct Decimal",
          "name": "exitFeeRatio",
          "type": "tuple"
        },
        {
          "internalType": "uint256",
          "name": "minWaitingDuration",
          "type": "uint256"
        },
        {
          "internalType": "uint256",
          "name": "minBootstrappingDuration",
          "type": "uint256"
        },
        {
          "internalType": "uint256",
          "name": "minStreamDuration",
          "type": "uint256"
        },
        {
          "internalType": "address",
          "name": "feeCollector",
          "type": "address"
        },
        {
          "internalType": "address",
          "name": "protocolAdmin",
          "type": "address"
        },
        {
          "internalType": "string",
          "name": "tosVersion",
          "type": "string"
        },
        {
          "internalType": "address",
          "name": "vestingFactoryAddress",
          "type": "address"
        },
        {
          "internalType": "address",
          "name": "V2PoolWrapperAddress",
          "type": "address"
        },
        {
          "internalType": "address",
          "name": "V3PoolWrapperAddress",
          "type": "address"
        },
        {
          "internalType": "address",
          "name": "AerodromePoolWrapperAddress",
          "type": "address"
        },
        {
          "internalType": "address",
          "name": "streamImplementationAddress",
          "type": "address"
        },
        {
          "internalType": "address",
          "name": "tokenFactoryAddress",
          "type": "address"
        }
      ],
      "stateMutability": "view",
      "type": "function"
    },
    {
      "inputs": [
        {
          "internalType": "bool",
          "name": "isFrozen",
          "type": "bool"
        }
      ],
      "name": "setFrozen",
      "outputs": [],
      "stateMutability": "nonpayable",
      "type": "function"
    },
    {
      "inputs": [
        {
          "internalType": "uint16",
          "name": "",
          "type": "uint16"
        }
      ],
      "name": "streamAddresses",
      "outputs": [
        {
          "internalType": "address",
          "name": "",
          "type": "address"
        }
      ],
      "stateMutability": "view",
      "type": "function"
    },
    {
      "inputs": [
        {
          "internalType": "address[]",
          "name": "tokensToAdd",
          "type": "address[]"
        },
        {
          "internalType": "address[]",
          "name": "tokensToRemove",
          "type": "address[]"
        }
      ],
      "name": "updateAcceptedTokens",
      "outputs": [],
      "stateMutability": "nonpayable",
      "type": "function"
    },
    {
      "inputs": [
        {
          "components": [
            {
              "internalType": "uint256",
              "name": "value",
              "type": "uint256"
            }
          ],
          "internalType": "struct Decimal",
          "name": "exitFeeRatio",
          "type": "tuple"
        }
      ],
      "name": "updateExitFeeRatio",
      "outputs": [],
      "stateMutability": "nonpayable",
      "type": "function"
    },
    {
      "inputs": [
        {
          "internalType": "address",
          "name": "feeCollector",
          "type": "address"
        }
      ],
      "name": "updateFeeCollector",
      "outputs": [],
      "stateMutability": "nonpayable",
      "type": "function"
    },
    {
      "inputs": [
        {
          "internalType": "uint256",
          "name": "minBootstrappingDuration",
          "type": "uint256"
        }
      ],
      "name": "updateMinBootstrappingDuration",
      "outputs": [],
      "stateMutability": "nonpayable",
      "type": "function"
    },
    {
      "inputs": [
        {
          "internalType": "uint256",
          "name": "minStreamDuration",
          "type": "uint256"
        }
      ],
      "name": "updateMinStreamDuration",
      "outputs": [],
      "stateMutability": "nonpayable",
      "type": "function"
    },
    {
      "inputs": [
        {
          "internalType": "uint256",
          "name": "minWaitingDuration",
          "type": "uint256"
        }
      ],
      "name": "updateMinWaitingDuration",
      "outputs": [],
      "stateMutability": "nonpayable",
      "type": "function"
    },
    {
      "inputs": [
        {
          "internalType": "address",
          "name": "V2PoolWrapperAddress",
          "type": "address"
        },
        {
          "internalType": "address",
          "name": "V3PoolWrapperAddress",
          "type": "address"
        },
        {
          "internalType": "address",
          "name": "AerodromePoolWrapperAddress",
          "type": "address"
        }
      ],
      "name": "updatePoolWrapper",
      "outputs": [],
      "stateMutability": "nonpayable",
      "type": "function"
    },
    {
      "inputs": [
        {
          "internalType": "address",
          "name": "protocolAdmin",
          "type": "address"
        }
      ],
      "name": "updateProtocolAdmin",
      "outputs": [],
      "stateMutability": "nonpayable",
      "type": "function"
    },
    {
      "inputs": [
        {
          "internalType": "uint256",
          "name": "streamCreationFee",
          "type": "uint256"
        }
      ],
      "name": "updateStreamCreationFee",
      "outputs": [],
      "stateMutability": "nonpayable",
      "type": "function"
    },
    {
      "inputs": [
        {
          "internalType": "address",
          "name": "streamCreationFeeToken",
          "type": "address"
        }
      ],
      "name": "updateStreamCreationFeeToken",
      "outputs": [],
      "stateMutability": "nonpayable",
      "type": "function"
    },
    {
      "inputs": [
        {
          "internalType": "address",
          "name": "implementation",
          "type": "address"
        }
      ],
      "name": "updateStreamImplementation",
      "outputs": [],
      "stateMutability": "nonpayable",
      "type": "function"
    },
    {
      "inputs": [
        {
          "internalType": "string",
          "name": "tosVersion",
          "type": "string"
        }
      ],
      "name": "updateTosVersion",
      "outputs": [],
      "stateMutability": "nonpayable",
      "type": "function"
    }
  ],
  "transactionHash": "0xa342647e6f29f2d9e5f86484d400251a1693ea44668619ba6396849b93ce2379",
  "args": [
    "0xB4eE189569597EFDB3bB48DB5ede8394d1D48e7b"
  ],
  "numDeployments": 1,
  "solcInputHash": "0286ee5b4dc80ded2417c56bd15ac792",
  "bytecode": "0x6080346200009357601f6200441838819003918201601f19168301916001600160401b0383118484101762000098578084926020946040528339810103126200009357516001600160a01b03811690819003620000935780156200008157600980546001600160a01b0319169190911790556040516143699081620000af8239f35b604051632bf75bc360e21b8152600490fd5b600080fd5b634e487b7160e01b600052604160045260246000fdfe60e08060405260043610156200001457600080fd5b60003560e01c908163054f7d9c1462001b08575080630a9e4fa31462001a5f57806314d98de51462001a3b578063158ef93e1462001a135780631c2a28f7146200190f57806333907d1e14620019525780635a91b3b2146200190f5780635e615a6b14620016ac5780636514b2da14620016185780637555fa2414620012de578063774ef43b14620004745780637c526bb3146200119e5780637e932d32146200112d5780637f2e72ed14620010cd5780638bd999fd146200106e57806394558e291462000ff3578063ae383c0c1462000f94578063b87a8a361462000850578063bfb79224146200081d578063c0c11283146200076b578063c1d3be8b14620006dd578063cff0ab9614620005e0578063d04fed631462000546578063d2c35ce814620004b7578063e899f3d71462000474578063e8aa8e5e1462000415578063f21e200614620002225763fd05bcc2146200017057600080fd5b346200021d5760203660031901126200021d57604051620001918162001b47565b60043581526009546001600160a01b031633036200020b57620001b362002c49565b8151905110620001f9575180600455600080516020620043148339815191526002549160055490620001f46006546007549060405194859430988662002066565b0390a2005b604051632aa4e67b60e01b8152600490fd5b604051637bfa4b9f60e01b8152600490fd5b600080fd5b346200021d576020806003193601126200021d576001600160401b03906004358281116200021d576200025a90369060040162001c05565b6009549091906001600160a01b031633036200020b578151928311620003ff5762000287600a5462001ed8565b601f8111620003a7575b508092601f811160011462000320578060008051602062004314833981519152939460009162000314575b508160011b916000199060031b1c191617600a555b60025490600454600554600654916007549360405195865285015260408401526060830152608082015260c060a082015280620001f4309460c083019062001e66565b905084015185620002bc565b601f19811693600a600052600080516020620042f48339815191529460005b8181106200038f57509482916001936000805160206200431483398151915296971062000375575b5050811b01600a55620002d1565b86015160001960f88460031b161c19169055858062000367565b8583015187556001909601959184019184016200033f565b600a600052600080516020620042f4833981519152601f850160051c810191838610620003f4575b601f0160051c01905b818110620003e7575062000291565b60008155600101620003d8565b9091508190620003cf565b634e487b7160e01b600052604160045260246000fd5b346200021d5760203660031901126200021d57600954600435906001600160a01b031633036200020b57806005556000805160206200431483398151915260025491600454620001f46006546007549060405194859430988662002066565b346200021d5760203660031901126200021d5760043561ffff81168091036200021d576000526011602052602060018060a01b0360406000205416604051908152f35b346200021d5760203660031901126200021d57620004d462001bbd565b6009546001600160a01b039190821633036200020b571680156200053457806001600160601b0360a01b60085416176008556040519081527f5d16ad41baeb009cd23eb8f6c7cde5c2e0cd5acf4a33926ab488875c37c37f3860203092a2005b60405163bb0bac9960e01b8152600490fd5b346200021d5760003660031901126200021d5761ffff60018160015416906200056f8262001fe4565b916000825b62000596575b60405160208082528190620005929082018762001e02565b0390f35b84811682811015620005d957600081815260116020526040902054849392879285926001600160a01b031690620005ce908962002051565b520116909162000574565b506200057a565b346200021d5760003660031901126200021d576002546003546040516001600160a01b03918216929091620006158362001b47565b600454835260055490600654600754826008541683600954169560405190816200063f8162001f15565b036200064c908362001b9b565b85600b54169786600c54169387600d54169588600e54169789600f541699601054169a6040519e8f9e8f916101e098835260208301525160408201526060015260808d015260a08c015260c08b015260e08a0152806101008a01528801620006b49162001e66565b956101208801526101408701526101608601526101808501526101a08401526101c08301520390f35b346200021d5760203660031901126200021d57620006fa62001bbd565b600954906001600160a01b039081831633036200020b571690811562000759576001600160a01b031916811760095560405190815230907f96c81c3f4599d5ad4b4ce465555174670819d69aa61f97cf8fdf4b80c1fbb32590602090a2005b604051632bf75bc360e21b8152600490fd5b346200021d5760603660031901126200021d576200078862001bbd565b6024356001600160a01b0381811692918390036200021d57604435918183168093036200021d57816009541633036200020b571691816001600160601b0360a01b8481600c541617600c558281600d541617600d55600e541617600e55604051928352602083015260408201527fac48cf5a450eb138975972bc7cec7d74995fee4ab39b5156f5a6e991ddf8ede960603092a2005b346200021d5760203660031901126200021d576020620008466200084062001bbd565b62002113565b6040519015158152f35b346200021d576003196020368201126200021d576001600160401b03600435116200021d576101e06004353603918201126200021d57602060405191620008978362001b2a565b600435600401358352620008b060246004350162001bd4565b8383015260431901126200021d57604051620008cc8162001b47565b604460043501358152604082015260646004350135606082015260846004350135608082015260a4600435013560a08201526200090e60c46004350162001bd4565b60c08201526200092360e46004350162001bd4565b60e08201526001600160401b036101046004350135116200021d57620009553660048035610104810135010162001c05565b6101008201526200096c6101246004350162001bd4565b610120820152620009836101446004350162001bd4565b6101408201526200099a6101646004350162001bd4565b610160820152620009b16101846004350162001bd4565b6101808201526001600160401b036101a46004350135116200021d57366004356101a48101350160230112156200021d57600480356101a4810135010135620009fa8162001ec0565b9062000a0a604051928362001b9b565b808252602082013660248360051b6101a46004350135600435010101116200021d576004356101a481013501602401905b60248360051b6101a46004350135600435010101821062000f75575050506101a082015262000a706101c46004350162001bd4565b6101c08201526009546001600160a01b031633036200020b5760ff60125460081c1662000f6457604081015162000aa662002c49565b9051905110620001f9576101a0810151511562000f52576101808101516001600160a01b03161562000f405760405180610ed08101106001600160401b03610ed083011117620003ff57610ed062002e59823980610ed0810103906000f0801562000f34576040516001600160a01b038216815230907f739fe22b8edefd6ce1fe32460f9cd54bf8e66fc7447f4c8a8131ce078a1988af90602090a2815160025560018060a01b036020830151166001600160601b0360a01b60035416176003556040820151516004556060820151600555608082015160065560a082015160075560018060a01b0360c0830151166001600160601b0360a01b60085416176008556101008201519182516001600160401b038111620003ff5762000bcd600a5462001ed8565b601f811162000ec3575b506020601f821160011462000e49578192939460009262000e3d575b50508160011b916000199060031b1c191617600a555b600b80546001600160a01b038481166001600160a01b031992831617909255610120830151600c8054918416918316919091179055610140830151600d8054918416918316919091179055610160830151600e8054918416918316919091179055610180830151600f80549184169183169190911790556101c08301516010805491909316911617905560005b6101a082015190815181101562000ce0576001916001600160a01b039062000cc090839062002051565b5116600052600060205260406000208260ff198254161790550162000c96565b5050600160a01b600190036101808201511690600160a01b600190036101208201511690600160a01b600190036101408201511690600160a01b600190036101608201511691600160a01b6001900360c08301511692600160a01b6001900360e08401511693600160a01b600190036020850151166101a0850151908551966040870151519360608801519560808901519760a08a01519961010001519b604051809e81526020015260408d015260608c015260808b015260a08a015260c089015260e088016101e090526101e0880162000dbb9162001e02565b946101008801526101208701526101408601526101608501526101808401528281036101a084015262000dee9162001e66565b6001600160a01b039092166101c082015230917f0a2cf7efd4ee5b5e941e14a227e18e1fc0f30463a8a0954a7c89d28008adbe37919081900390a261ff00196012541661010017601255600080f35b01519050848062000bf3565b600a600052600080516020620042f48339815191529060005b601f198416811062000eaa5750600193949583601f1981161062000e90575b505050811b01600a5562000c09565b015160001960f88460031b161c1916905584808062000e81565b9091602060018192858a01518155019301910162000e62565b600a600052601f820160051c600080516020620042f4833981519152016020831062000f1d575b601f820160051c600080516020620042f483398151915201811062000f10575062000bd7565b6000815560010162000eea565b50600080516020620042f483398151915262000eea565b6040513d6000823e3d90fd5b60405163c9c95bf560e01b8152600490fd5b60405163042ea06160e41b8152600490fd5b60405162dc149f60e41b8152600490fd5b60208060249262000f868562001bd4565b815201920191905062000a3b565b346200021d5760203660031901126200021d57600954600435906001600160a01b031633036200020b57806007556000805160206200431483398151915260025491600454620001f46005549260065460405194859430988662002066565b346200021d5760203660031901126200021d576200101062001bbd565b6009546001600160a01b039190821633036200020b57166001600160601b0360a01b60035416176003556002546000805160206200431483398151915260045460055490620001f46006546007549060405194859430988662002066565b346200021d5760203660031901126200021d57600954600435906001600160a01b031633036200020b57806002556000805160206200431483398151915260045460055490620001f46006546007549060405194859430988662002066565b346200021d5760203660031901126200021d57600954600435906001600160a01b031633036200020b57806006556000805160206200431483398151915260025491600454620001f4600554926007549060405194859430988662002066565b346200021d5760203660031901126200021d576004358015158091036200021d576009546001600160a01b031633036200020b5760ff196012541660ff8216176012556040519081527fc08a1a38ceb2f9f45e15007131834153026896150e4400ab4000fd1b131fb1db60203092a2005b346200021d5760403660031901126200021d576001600160401b036004358181116200021d57620011d490369060040162001e8d565b916024359081116200021d57620011f090369060040162001e8d565b6009549193916001600160a01b0390811633036200020b5760005b838110620012aa575060005b8281106200127257857f640a0a596c3bc7f91bc26965ed05efb8d3017a25c7b1822ba2ca3e33b2743cd58686620001f48762001261604051948594604086526040860191620020cb565b9083820360208501523096620020cb565b80826200128d62001287600194878b620020a5565b620020b6565b166000526000602052604060002060ff1981541690550162001217565b8082620012bf62001287600194888a620020a5565b16600052600060205260406000208260ff19825416179055016200120b565b6003196040368201126200021d576001600160401b036004358181116200021d576200130f90369060040162001c9b565b906024358181116200021d5760808482360301126200021d57604051916080830183811082821117620003ff5760405281600401358181116200021d576200135e906004369185010162001c05565b835260248201359081116200021d576200137f906004369184010162001c05565b93602080840195865260448301359160ff831683036200021d57604085019283526064606086019401358452620013c26060870151610160880151519062001fc0565b90818551106200160657908286899289600160a01b6001900395866003541687600854166002549033620013f693620021b2565b84838b5190620014069162002097565b60405194620014158662001b7f565b6002865260403684880137604051916200142f8362001b7f565b600283528a8484019636604090893751166200144b886200201c565b5262001457836200201c565b5230620014648762002040565b52620014708262002040565b5288601054169460405198899763370377c160e21b8952600489016060905251606489016080905260e48901620014a79162001e66565b90518882036063190160848a0152620014c1919062001e66565b8c5160ff1660a48901528d5160c489015284888203016024890152620014e79162001e02565b92868403016044870152519182815201919060005b818110620015ec57505050600083809203925af190811562000f3457600091620015a1575b50926200158b6200159f989360ff7f0b0bcdebd2813328a89a9ed5971e5863201ed78fc4e0e2b271cceddb9ce9051097946200157d9716988960408c015251955193511693519260405196879660808852608088019062001e66565b918683039087015262001e66565b91604084015260608301520390a26200233c565b005b9050828181969399943d8311620015e4575b620015bf818362001b9b565b810103126200021d57519287841684036200021d579196909391926200158b62001521565b503d620015b3565b8251845289968896509384019390920191600101620014fc565b604051634f1f06eb60e11b8152600490fd5b346200021d5760203660031901126200021d576200163562001bbd565b6009546001600160a01b039190821633036200020b571680156200169a576001600160601b0360a01b600f541617600f556002546000805160206200431483398151915260045460055490620001f46006546007549060405194859430988662002066565b60405163325c055b60e21b8152600490fd5b346200021d5760003660031901126200021d5760006101c0604051620016d28162001b2a565b828152826020820152604051620016e98162001b47565b83815260408201528260608201528260808201528260a08201528260c08201528260e0820152606061010082015282610120820152826101408201528261016082015282610180820152826101a082015201526040516200174a8162001b2a565b60025481526003546001600160a01b031660208201526040516200176e8162001b47565b60045481526040828101919091526005546060830152600654608083015260075460a08301526008546001600160a01b0390811660c08401526009541660e083015251620017c981620017c18162001f15565b038262001b9b565b610100828101918252600b546001600160a01b0390811661012080860191909152600c548216610140860152600d548216610160860152600e548216610180860152600f5482166101a086015260105482166101c0860152604080516020808252875181830152870151841681830152908601515160608083019190915286015160808083019190915286015160a08281019190915286015160c080830191909152860151831660e0808301919091528601519092169282019290925291516101e09183019190915290918291620018a79061020084019062001e66565b6101208201516001600160a01b039081166101408581019190915283015181166101608086019190915283015181166101808086019190915283015181166101a08086019190915283015181166101c080860191909152909201519091166101e08301520390f35b346200021d5760203660031901126200021d576001600160a01b036200193462001bbd565b166000526000602052602060ff604060002054166040519015158152f35b346200021d5760003660031901126200021d5761ffff60018160015416906200197b8262001fe4565b916000825b6200199d5760405160208082528190620005929082018762001e02565b84811682811015620005d95783809392828893600052601160209080825260018060a01b039081604060002054166000526000835260ff60406000205416620019ef575b505050500116909162001980565b62001a0892846000525260406000205416918962002051565b5288808080620019e1565b346200021d5760003660031901126200021d57602060ff60125460081c166040519015158152f35b346200021d5760003660031901126200021d57602061ffff60015416604051908152f35b60203660031901126200021d576004356001600160401b0381116200021d5762001a8e90369060040162001c9b565b6040810180519091906001600160a01b039081161562001af6576200159f928162001acc62001af093600354168260085416600254913390620021b2565b62001ae36060850151610160860151519062001fc0565b91511630903390620021b2565b6200233c565b6040516372146d6160e11b8152600490fd5b346200021d5760003660031901126200021d5760209060ff6012541615158152f35b6101e081019081106001600160401b03821117620003ff57604052565b602081019081106001600160401b03821117620003ff57604052565b604081019081106001600160401b03821117620003ff57604052565b606081019081106001600160401b03821117620003ff57604052565b90601f801991011681019081106001600160401b03821117620003ff57604052565b600435906001600160a01b03821682036200021d57565b35906001600160a01b03821682036200021d57565b6001600160401b038111620003ff57601f01601f191660200190565b81601f820112156200021d5780359062001c1f8262001be9565b9262001c2f604051948562001b9b565b828452602083830101116200021d57816000926020809301838601378301015290565b91908260409103126200021d5760405162001c6d8162001b63565b809280359081151582036200021d5760209183520135906001600160401b03821682036200021d5760200152565b919082810361020081126200021d576040938451926101a0808501936001600160401b039486811086821117620003ff578852859762001cdb8562001bd4565b875262001ceb6020860162001bd4565b602088015262001cfd81860162001bd4565b81880152606085013560608801526080850135608088015260a085013560a088015260c085013560c088015260e085013560e0880152610100808601358781116200021d578601906020828703126200021d5782519162001d5e8362001b47565b8035908982116200021d5762001d779188910162001c05565b825288015261012062001d8d8582880162001c52565b90880152806101609262001da48685890162001c52565b6101408a015261019f1901126200021d57519162001dc28362001b63565b84013582526101c084013560038110156200021d5760208301528501526101e08201359283116200021d576101809262001dfd920162001c05565b910152565b90815180825260208080930193019160005b82811062001e23575050505090565b83516001600160a01b03168552938101939281019260010162001e14565b60005b83811062001e555750506000910152565b818101518382015260200162001e44565b9060209162001e818151809281855285808601910162001e41565b601f01601f1916010190565b9181601f840112156200021d578235916001600160401b0383116200021d576020808501948460051b0101116200021d57565b6001600160401b038111620003ff5760051b60200190565b90600182811c9216801562001f0a575b602083101462001ef457565b634e487b7160e01b600052602260045260246000fd5b91607f169162001ee8565b600a546000929162001f278262001ed8565b8082529160209060019081811690811562001f9a575060011462001f4c575b50505050565b92939450600a600052600080516020620042f4833981519152926000935b85851062001f8657505050602092500101903880808062001f46565b805485850184015293820193810162001f6a565b92505050602093945060ff929192191683830152151560051b0101903880808062001f46565b9190820180921162001fce57565b634e487b7160e01b600052601160045260246000fd5b9062001ff08262001ec0565b62001fff604051918262001b9b565b828152809262002012601f199162001ec0565b0190602036910137565b8051156200202a5760200190565b634e487b7160e01b600052603260045260246000fd5b8051600110156200202a5760400190565b80518210156200202a5760209160051b010190565b9262002094959260c09592855260208501526040840152606083015260808201528160a08201520162001f15565b90565b9190820391821162001fce57565b91908110156200202a5760051b0190565b356001600160a01b03811681036200021d5790565b91908082526020809201929160005b828110620020e9575050505090565b909192938280600192838060a01b03620021038962001bd4565b16815201950193929101620020da565b6001805460009261ffff92918316825b62002133575b5050505050600090565b8385168181101562002176576000908152601160205260409020546001600160a01b038381169116146200216e579382018316938262002123565b505091505090565b5062002129565b3d15620021ad573d90620021918262001be9565b91620021a1604051938462001b9b565b82523d6000602084013e565b606090565b929092811562001f46576001600160a01b039081169384156200226e5781163081036200222257506040519263a9059cbb60e01b602085015216602483015260448201526044815260808101918183106001600160401b03841117620003ff57620022209260405262002cae565b565b92604051936323b872dd60e01b6020860152602485015216604483015260648201526064815260a08101918183106001600160401b03841117620003ff57620022209260405262002cae565b819392945016338114600014620022e25750823403620022c35716308114620022bf57600080809381935af1620022a46200217d565b5015620022ad57565b604051630c08bcb960e21b8152600490fd5b5050565b604051635693fffb60e01b815260048101849052346024820152604490fd5b3081036200230057506000809381938293165af1620022a46200217d565b6024906040519063463de9db60e01b82526004820152fd5b516003811015620023265790565b634e487b7160e01b600052602160045260246000fd5b906012549160ff6000931662002c375760608101511562002c255780516001600160a01b03161562002c13576020818101516001600160a01b03168452839052604083205460ff161562002c0157602081015160408201516001600160a01b0390811691161462002bef57620023b761012082015162002c71565b620023c761014082015162002c71565b60a081015160c082015160e083015182421162002bdd5781831162002bcb5780821162002bb95781620023fa9162002097565b6007541162002ba757816200240f9162002097565b6006541162002b95576200242590429062002097565b6005541162002b8357610180810151604051620024626020828162002454818301968781519384920162001e41565b810103808452018262001b9b565b519020604051600a548186620024788362001ed8565b926001811690811562002b63575060011462002b15575b620024a4925003601f19810183528262001b9b565b602081519101200362002b0357600f54608881901c62ffffff16763d602d80600a3d3981f3363d3d373d3d3d363d7300000017845260781b6effffffffffffffffffffffffffffff19166e5af43d82803e903d91602b57fd5bf3176020526001600160a01b036037600985f01660c05260c0511562002ac557604051806105cb8101106001600160401b036105cb8301111762002ab1576105cb62003d29823960c0516105cb8201526020816105cb810103019084f0801562002aa6576001549161ffff8084161462002a925761ffff6001818516011661ffff1984161760015561ffff8316855260116020526040852060c0516001600160601b0360a01b82541617905561016081015180516200299d575b50620025ed620025d36060830151610160840151519062001fc0565b604083015160c0519030906001600160a01b0316620021b2565b60c0513b156200299957604080516342a5431960e01b81526004810182905282516001600160a01b0390811660448301526020808501518216606484015292840151166084820152606083015160a4820152608083015160c482015260a083015160e482015260c083015161010482015260e08301516101248201526101008301516102006101448301525161024482019290925290620026949061026483019062001e66565b61012083015180511515610164840152602001516001600160401b0316610184830152610140830151805115156101a4840152602001516001600160401b03166101c4830152602061016084015180516101e4850152015160038110156200298557826200271e899382936102048401526101808701516043198483030161022485015262001e66565b60018060a01b038716602483015203818360c0515af180156200297a5762002949575b50604081015160208083015183516060850151610160860151805194015193966001600160a01b039384169592841694909391929091169060038110156200293557869798999a50156000146200291257604051620027a08162001b63565b60028152612b1960f11b60208201525b610120870151918251151599610140890151948551151594602001516001600160401b031695602001516001600160401b03169660a08b01519860c08c01519a60e08d01519c608001519d61010001515160805260405160a0526102609560a0515260a0516020015260c05160a0516040015260a05160600152600160a01b600190031660a0516080015260a05160a0015260a05160c001528060a05160e0015260a05101620028609162001e66565b9760a051610100015260a051610120015260a051610140015260a051610160015260a051610180015260a0516101a0015260a0516101c0015260a0516101e0015260a051810360a051610200015260805190620028bd9162001e66565b60a051810360a0516102200152620028d59062001f15565b9061ffff1660a0516102400152309060a051900360a051907f0ad7b420cc3ce273bebc56c1695ff7c0ef66b2dcaa462b1f81d9caadcbeaef8391a2565b604051620029208162001b63565b6002815261563360f01b6020820152620027b0565b634e487b7160e01b8b52602160045260248bfd5b6001600160401b0381969296116200296657604052933862002741565b634e487b7160e01b82526041600452602482fd5b6040513d88823e3d90fd5b634e487b7160e01b88526021600452602488fd5b8480fd5b60200151600381101562002a7e57620029dc57600c546001600160a01b031615620029ca575b38620025b7565b60405163109001d960e11b8152600490fd5b620029ef60206101608301510162002318565b600381101562002a7e5760010362002a2457600d546001600160a01b0316620029c35760405163109001d960e11b8152600490fd5b62002a3760206101608301510162002318565b600381101562002a7e5760020362002a6c57600e546001600160a01b0316620029c35760405163109001d960e11b8152600490fd5b604051631ba449e160e01b8152600490fd5b634e487b7160e01b86526021600452602486fd5b634e487b7160e01b85526011600452602485fd5b6040513d85823e3d90fd5b634e487b7160e01b84526041600452602484fd5b60405162461bcd60e51b8152602060048201526016602482015275115490cc4c4d8dce8818dc99585d194819985a5b195960521b6044820152606490fd5b604051635d0b6cc760e01b8152600490fd5b5050600a86528186600080516020620042f48339815191525b83821062002b485750506020620024a4928201016200248f565b60209192508060019154838588010152019101839162002b2e565b60209250620024a494915060ff191682840152801515028201016200248f565b604051635bdfbd0360e11b8152600490fd5b6040516372904fb160e01b8152600490fd5b6040516318861b4960e01b8152600490fd5b6040516349f8456b60e11b8152600490fd5b604051633060050d60e21b8152600490fd5b6040516341f01d5760e01b8152600490fd5b604051638b1202a160e01b8152600490fd5b60405163cc3ca47b60e01b8152600490fd5b6040516332db94d160e21b8152600490fd5b604051634d5bb2d560e11b8152600490fd5b604051634051e96160e01b8152600490fd5b600060405162002c598162001b47565b5260405162002c688162001b47565b620f4240815290565b80511515908162002c97575b5062002c8557565b604051632b39f6cb60e01b8152600490fd5b6001600160401b0391506020015116153862002c7d565b60018060a01b03169062002d1360405162002cc98162001b63565b6020938482527f5361666545524332303a206c6f772d6c6576656c2063616c6c206661696c6564858301526000808587829751910182855af162002d0c6200217d565b9162002db5565b80519182159184831562002d87575b50505090501562002d305750565b6084906040519062461bcd60e51b82526004820152602a60248201527f5361666545524332303a204552433230206f7065726174696f6e20646964206e6044820152691bdd081cdd58d8d9595960b21b6064820152fd5b91938180945001031262002db15782015190811515820362002dae57508038808462002d22565b80fd5b5080fd5b9192901562002e1a575081511562002dcb575090565b3b1562002dd55790565b60405162461bcd60e51b815260206004820152601d60248201527f416464726573733a2063616c6c20746f206e6f6e2d636f6e74726163740000006044820152606490fd5b82519091501562002e2e5750805190602001fd5b60405162461bcd60e51b81526020600482015290819062002e5490602483019062001e66565b0390fdfe6080806040523461001657610eb4908161001c8239f35b600080fdfe6080604081815260048036101561001557600080fd5b600091823560e01c63c4b2da591461002c57600080fd5b346103345760a0366003190112610334576001600160a01b0393823585811691908290036103385760249485359567ffffffffffffffff95868816809803610334576044359187831680930361033057606435938a851680950361028c576084359587156103225750891561031257428a106103125783156103025784156102f25785156102e2578751610a6e8082019c91908b8e11828f10176102cf578c9d82919d9a9b9c9d61041183398b815260209e8f820152878d820152036060019083f080156102c55716998951908c82016323b872dd60e01b815233858401528c60448401528860648401526064835260a0830192808410838511176102a55760e0810184811084821117610293578d528e84527f5361666545524332303a206c6f772d6c6576656c2063616c6c206661696c656460c0820152518491829190828b5af1903d156102b7573d8181116102a5578c5191601f8201601f19908116603f011683019081118382101761029357918f92916101b89594928f5281528581933d92013e5b8861033c565b8051918215918d8315610268575b5050509050156102135750508551938452878401528285015260608201528391907f515cf92d69f6cb24204f2d033637fc556ff95bd7c99a08bbd4d56500cab426db90608090a351908152f35b875162461bcd60e51b81529182018a9052602a908201527f5361666545524332303a204552433230206f7065726174696f6e20646964206e6044820152691bdd081cdd58d8d9595960b21b6064820152608490fd5b91938180945001031261028f578b015190811515820361028c57508038808d6101c6565b80fd5b5080fd5b634e487b7160e01b8652604188528686fd5b634e487b7160e01b8552604187528585fd5b50906101b8916060906101b2565b8a513d84823e3d90fd5b5050634e487b7160e01b82525060418352fd5b875163162908e360e11b81528390fd5b875163c1ab6dc160e01b81528390fd5b8751637616640160e01b81528390fd5b8751632ca4094f60e21b81528390fd5b631559b7d760e21b81528390fd5b8380fd5b8280fd5b8480fd5b9192901561039e5750815115610350575090565b3b156103595790565b60405162461bcd60e51b815260206004820152601d60248201527f416464726573733a2063616c6c20746f206e6f6e2d636f6e74726163740000006044820152606490fd5b8251909150156103b15750805190602001fd5b6040519062461bcd60e51b82528160208060048301528251908160248401526000935b8285106103f7575050604492506000838284010152601f80199101168101030190fd5b84810182015186860160440152938101938593506103d456fe60e0601f610a6e38819003918201601f19168301916001600160401b03831184841017610118578084926060946040528339810103126101135780516001600160a01b038116919082810361011357610066604061005f6020850161012e565b930161012e565b92156100bb5760805260a05260c05260405161092b9081610143823960805181818161021c0152818161035c0152610411015260a0518181816101090152610738015260c051818181610579015261076d0152f35b60405162461bcd60e51b815260206004820152602a60248201527f56657374696e6757616c6c65743a2062656e6566696369617279206973207a65604482015269726f206164647265737360b01b6064820152608490fd5b600080fd5b634e487b7160e01b600052604160045260246000fd5b51906001600160401b03821682036101135756fe60406080815260049081361015610020575b5050361561001e57600080fd5b005b600091823560e01c9081630a17b06b1461059d5781630fb5a6b414610558578163191655871461038b57816338af3eed14610347578163810ec23b1461030857816386d1a69f146101a55750806396132521146101895780639852595c14610152578063a3f8eace1461012d578063be9a6555146100e95763fbccedae0361001157346100e557816003193601126100e5576100de6020926100d9479154916100d48367ffffffffffffffff4216926105f0565b610729565b6106e4565b9051908152f35b5080fd5b50346100e557816003193601126100e5576020905167ffffffffffffffff7f0000000000000000000000000000000000000000000000000000000000000000168152f35b50346100e55760203660031901126100e5576020906100de61014d6105d5565b6106f1565b50346100e55760203660031901126100e55760209181906001600160a01b036101796105d5565b1681526001845220549051908152f35b50346100e557816003193601126100e557602091549051908152f35b9190503461030457826003193601126103045782546101e06101d9826100d94267ffffffffffffffff166100d483476105f0565b80926105f0565b84557fda9d4e5f101b8b9b1c5b76d0c5a9f7923571acfc02376aa076b75a8c080c956b60208351838152a18047106102c15783908190819081907f00000000000000000000000000000000000000000000000000000000000000006001600160a01b03165af161024e6107e1565b5015610258578280f35b906020608492519162461bcd60e51b8352820152603a60248201527f416464726573733a20756e61626c6520746f2073656e642076616c75652c207260448201527f6563697069656e74206d617920686176652072657665727465640000000000006064820152fd5b815162461bcd60e51b8152602081850152601d60248201527f416464726573733a20696e73756666696369656e742062616c616e63650000006044820152606490fd5b8280fd5b5050346100e557806003193601126100e5576103226105d5565b6024359267ffffffffffffffff8416840361034457506020926100de9161064b565b80fd5b5050346100e557816003193601126100e557517f00000000000000000000000000000000000000000000000000000000000000006001600160a01b03168152602090f35b919050346103045760209081600319360112610554576103a96105d5565b6103b2816106f1565b9060018060a01b0380911690818752600185528387206103d38482546105f0565b9055817fc0e523490dd523c33b1878c9eb14ff46991e3f5b2cd33710918618f2a39cba1b868651868152a28351928584019163a9059cbb60e01b83527f0000000000000000000000000000000000000000000000000000000000000000166024850152604484015260448352608083019267ffffffffffffffff818510818611176105415760c08201908111858210176105415785528584527f5361666545524332303a206c6f772d6c6576656c2063616c6c206661696c656460a0820152516104af9392918891829182855af16104a96107e1565b91610821565b805183811591821561051d575b50509050156104c9578380f35b5162461bcd60e51b815291820152602a60248201527f5361666545524332303a204552433230206f7065726174696f6e20646964206e6044820152691bdd081cdd58d8d9595960b21b606482015260849150fd5b838092935001031261053d57820151801515810361053d578083386104bc565b8480fd5b634e487b7160e01b895260418852602489fd5b8380fd5b5050346100e557816003193601126100e5576020905167ffffffffffffffff7f0000000000000000000000000000000000000000000000000000000000000000168152f35b905034610304576020366003190112610304573567ffffffffffffffff81168103610304576100de906100d4602094479054906105f0565b600435906001600160a01b03821682036105eb57565b600080fd5b919082018092116105fd57565b634e487b7160e01b600052601160045260246000fd5b90601f8019910116810190811067ffffffffffffffff82111761063557604052565b634e487b7160e01b600052604160045260246000fd5b6040516370a0823160e01b81523060048201526001600160a01b03919091169190602081602481865afa9081156106d8576000916106a4575b506100d4906106a1936000526001602052604060002054906105f0565b90565b90506020813d6020116106d0575b816106bf60209383610613565b810103126105eb57516106a1610684565b3d91506106b2565b6040513d6000823e3d90fd5b919082039182116105fd57565b6106a19061070967ffffffffffffffff42168261064b565b6001600160a01b03909116600090815260016020526040902054906106e4565b67ffffffffffffffff918216917f00000000000000000000000000000000000000000000000000000000000000008116908184101561076b5750505050600090565b7f0000000000000000000000000000000000000000000000000000000000000000169261079884836105f0565b8111156107a6575050905090565b906107b0916106e4565b908181029181830414901517156105fd5781156107cb570490565b634e487b7160e01b600052601260045260246000fd5b3d1561081c573d9067ffffffffffffffff82116106355760405191610810601f8201601f191660200184610613565b82523d6000602084013e565b606090565b919290156108835750815115610835575090565b3b1561083e5790565b60405162461bcd60e51b815260206004820152601d60248201527f416464726573733a2063616c6c20746f206e6f6e2d636f6e74726163740000006044820152606490fd5b8251909150156108965750805190602001fd5b6040519062461bcd60e51b82528160208060048301528251908160248401526000935b8285106108dc575050604492506000838284010152601f80199101168101030190fd5b84810182015186860160440152938101938593506108b956fea2646970667358221220f6235be43f7faaf5ef42395a12abc7ae732a090157a3385a315158d316c1bd6064736f6c63430008180033a2646970667358221220b5fa9168d47ec92b437bc6882b20dd0185841b3e3ae16ed623710a66d315987264736f6c6343000818003360a03461009557601f6105cb38819003918201601f19168301916001600160401b0383118484101761009a5780849260209460405283398101031261009557516001600160a01b03811680820361009557156100835760805260405161051a90816100b18239608051818181607e0152818160e1015281816101b701526102660152f35b604051635a3f066960e01b8152600490fd5b600080fd5b634e487b7160e01b600052604160045260246000fdfe6040608081526004908136101561001557600080fd5b60009160e08335811c90816316c1973914610333578163a3de7d1714610233578163c1ac10261461011457508063e82bb126146100cc5763fb33ce811461005b57600080fd5b346100c857816003193601126100c857610073610456565b6001600160a01b03917f0000000000000000000000000000000000000000000000000000000000000000831633036100ba5750168252816020526007602435918320015580f35b8351631a27eac360e11b8152fd5b8280fd5b505034610110578160031936011261011057517f00000000000000000000000000000000000000000000000000000000000000006001600160a01b03168152602090f35b5080fd5b848385346100c8576101203660031901126100c857610131610456565b9361010036602319011261022f57610147610471565b92602435845260208401906044358252610160366104c8565b848601908152606086016084358152602060a31936011261022b576101836104a8565b9160a43583526080880192835260a088019460c435865260c089019660e435885289019761010435895260018060a01b03807f000000000000000000000000000000000000000000000000000000000000000016330361021b5760079a9b9c168c528b6020528b2099518a555160018a0155515160028901555160038801555151908601555160058501555160068401555191015580f35b8151631a27eac360e11b81528790fd5b8780fd5b8380fd5b84848492346100c85760803660031901126100c857610250610456565b9061025a366104c8565b926001600160a01b03907f000000000000000000000000000000000000000000000000000000000000000082163303610324579585966007959661029c6104a8565b526102a56104a8565b908882526102b1610471565b976024358952602089016044358152828a0191825260608a019242845260808b0194855260a08b01968c885260c08c01988d8a528c01998d8b52168c528b6020528b2099518a555160018a0155515160028901555160038801555151908601555160058501555160068401555191015580f35b51631a27eac360e11b81528690fd5b9190503461022f57602036600319011261022f578261010094610354610456565b818561035e610471565b82815282602082015261036f6104a8565b838152868201528260608201526103846104a8565b838152608082015260a0810183905260c0810183905201526001600160a01b031681526020819052206103b5610471565b9381548552600182015492602086019384526103cf6104a8565b9160028401548352808701928352600384015490606088019182526103f26104a8565b9285015483526080880192835260058501549360a08901948552600760068701549660c08b01978852015496888a01978852825199518a525160208a0152515190880152516060870152515160808601525160a08501525160c08401525190820152f35b600435906001600160a01b038216820361046c57565b600080fd5b60405190610100820182811067ffffffffffffffff82111761049257604052565b634e487b7160e01b600052604160045260246000fd5b604051906020820182811067ffffffffffffffff82111761049257604052565b602090606319011261046c576104dc6104a8565b90606435825256fea2646970667358221220f9197761eae1a8839a6606c94eed8300af1b83793252e9badea713839d2d9ea864736f6c63430008180033c65a7bb8d6351c1cf70c95a316cc6a92839c986682d98bc35f958f4883f9d2a80411b059ef29e41429d7aa233c3c43e82806856b23c24bfb1f9e4c6efa5689a1a2646970667358221220609a9fc07d1f085380e92ebedbd3e5139d9063baf5ace3ac70002cf26570af5164736f6c63430008180033",
  "devdoc": {
    "details": "Factory contract for creating and managing token streams",
    "kind": "dev",
    "methods": {
      "constructor": {
        "details": "Constructor to set the protocol admin",
        "params": {
          "protocolAdmin": "Address of the protocol admin"
        }
      },
      "createStream((address,address,address,uint256,uint256,uint256,uint256,uint256,(string),(bool,uint64),(bool,uint64),(uint256,uint8),string))": {
        "details": "Creates a new stream with the provided configuration",
        "params": {
          "createStreamMessage": "Stream creation parameters"
        }
      },
      "getAcceptedInSupplyTokens()": {
        "details": "Get all accepted input supply tokens",
        "returns": {
          "_0": "Array of accepted token addresses"
        }
      },
      "getParams()": {
        "details": "Get factory parameters",
        "returns": {
          "_0": "Factory parameters"
        }
      },
      "getStream(uint16)": {
        "details": "Get stream address by ID",
        "params": {
          "streamId": "Stream ID"
        },
        "returns": {
          "_0": "Stream address"
        }
      },
      "getStreams()": {
        "details": "Get all stream addresses",
        "returns": {
          "_0": "Array of stream addresses"
        }
      },
      "initialize((uint256,address,(uint256),uint256,uint256,uint256,address,address,string,address,address,address,address,address[],address))": {
        "details": "Initializes the factory with the provided configuration",
        "params": {
          "initializeStreamFactoryMessage": "Factory initialization parameters"
        }
      },
      "isAcceptedInSupplyToken(address)": {
        "details": "Check if a token is accepted as input supply token",
        "params": {
          "token": "Token address to check"
        },
        "returns": {
          "_0": "True if the token is accepted"
        }
      },
      "isStream(address)": {
        "details": "Check if an address is a stream created by this factory",
        "params": {
          "streamAddress": "Address to check"
        },
        "returns": {
          "_0": "True if the address is a stream"
        }
      },
      "setFrozen(bool)": {
        "details": "Sets the frozen state of the factory",
        "params": {
          "isFrozen": "Whether the factory should be frozen"
        }
      },
      "updateAcceptedTokens(address[],address[])": {
        "details": "Updates the list of accepted input supply tokens",
        "params": {
          "tokensToAdd": "Array of token addresses to add",
          "tokensToRemove": "Array of token addresses to remove"
        }
      },
      "updateExitFeeRatio((uint256))": {
        "details": "Updates the exit fee ratio",
        "params": {
          "exitFeeRatio": "New exit fee ratio"
        }
      },
      "updateFeeCollector(address)": {
        "details": "Updates the fee collector address",
        "params": {
          "feeCollector": "New fee collector address"
        }
      },
      "updateMinBootstrappingDuration(uint256)": {
        "details": "Updates the minimum bootstrapping duration",
        "params": {
          "minBootstrappingDuration": "New minimum bootstrapping duration"
        }
      },
      "updateMinStreamDuration(uint256)": {
        "details": "Updates the minimum stream duration",
        "params": {
          "minStreamDuration": "New minimum stream duration"
        }
      },
      "updateMinWaitingDuration(uint256)": {
        "details": "Updates the minimum waiting duration",
        "params": {
          "minWaitingDuration": "New minimum waiting duration"
        }
      },
      "updatePoolWrapper(address,address,address)": {
        "details": "Updates the pool wrapper address",
        "params": {
          "V2PoolWrapperAddress": "New V2 pool wrapper address",
          "V3PoolWrapperAddress": "New V3 pool wrapper address"
        }
      },
      "updateProtocolAdmin(address)": {
        "details": "Updates the protocol admin address",
        "params": {
          "protocolAdmin": "New protocol admin address"
        }
      },
      "updateStreamCreationFee(uint256)": {
        "details": "Updates the stream creation fee",
        "params": {
          "streamCreationFee": "New creation fee amount"
        }
      },
      "updateStreamCreationFeeToken(address)": {
        "details": "Updates the stream creation fee token",
        "params": {
          "streamCreationFeeToken": "New fee token address"
        }
      },
      "updateStreamImplementation(address)": {
        "details": "Updates the stream implementation address",
        "params": {
          "implementation": "New stream implementation address"
        }
      },
      "updateTosVersion(string)": {
        "details": "Updates the TOS version",
        "params": {
          "tosVersion": "New TOS version"
        }
      }
    },
    "title": "StreamFactory",
    "version": 1
  },
  "userdoc": {
    "kind": "user",
    "methods": {
      "acceptedInSupplyTokens(address)": {
        "notice": "Mapping of accepted input supply tokens"
      },
      "createStream((address,address,address,uint256,uint256,uint256,uint256,uint256,(string),(bool,uint64),(bool,uint64),(uint256,uint8),string))": {
        "notice": "Anyone can create a stream if they provide the required tokens and fees"
      },
      "currentStreamId()": {
        "notice": "Current stream ID counter"
      },
      "frozen()": {
        "notice": "Flag to freeze stream creation"
      },
      "initialize((uint256,address,(uint256),uint256,uint256,uint256,address,address,string,address,address,address,address,address[],address))": {
        "notice": "This function can only be called once by the admin"
      },
      "initialized()": {
        "notice": "Flag to ensure initialization happens only once"
      },
      "params()": {
        "notice": "Factory parameters"
      },
      "streamAddresses(uint16)": {
        "notice": "Mapping of stream ID to stream address"
      }
    },
    "notice": "Handles stream creation, parameter management, and accepted token management",
    "version": 1
  },
  "storageLayout": {
    "storage": [
      {
        "astId": 13061,
        "contract": "src/StreamFactory.sol:StreamFactory",
        "label": "acceptedInSupplyTokens",
        "offset": 0,
        "slot": "0",
        "type": "t_mapping(t_address,t_bool)"
      },
      {
        "astId": 13064,
        "contract": "src/StreamFactory.sol:StreamFactory",
        "label": "currentStreamId",
        "offset": 0,
        "slot": "1",
        "type": "t_uint16"
      },
      {
        "astId": 13068,
        "contract": "src/StreamFactory.sol:StreamFactory",
        "label": "params",
        "offset": 0,
        "slot": "2",
        "type": "t_struct(Params)17511_storage"
      },
      {
        "astId": 13073,
        "contract": "src/StreamFactory.sol:StreamFactory",
        "label": "streamAddresses",
        "offset": 0,
        "slot": "17",
        "type": "t_mapping(t_uint16,t_address)"
      },
      {
        "astId": 13076,
        "contract": "src/StreamFactory.sol:StreamFactory",
        "label": "frozen",
        "offset": 0,
        "slot": "18",
        "type": "t_bool"
      },
      {
        "astId": 13079,
        "contract": "src/StreamFactory.sol:StreamFactory",
        "label": "initialized",
        "offset": 1,
        "slot": "18",
        "type": "t_bool"
      }
    ],
    "types": {
      "t_address": {
        "encoding": "inplace",
        "label": "address",
        "numberOfBytes": "20"
      },
      "t_bool": {
        "encoding": "inplace",
        "label": "bool",
        "numberOfBytes": "1"
      },
      "t_mapping(t_address,t_bool)": {
        "encoding": "mapping",
        "key": "t_address",
        "label": "mapping(address => bool)",
        "numberOfBytes": "32",
        "value": "t_bool"
      },
      "t_mapping(t_uint16,t_address)": {
        "encoding": "mapping",
        "key": "t_uint16",
        "label": "mapping(uint16 => address)",
        "numberOfBytes": "32",
        "value": "t_address"
      },
      "t_string_storage": {
        "encoding": "bytes",
        "label": "string",
        "numberOfBytes": "32"
      },
      "t_struct(Decimal)16251_storage": {
        "encoding": "inplace",
        "label": "struct Decimal",
        "members": [
          {
            "astId": 16250,
            "contract": "src/StreamFactory.sol:StreamFactory",
            "label": "value",
            "offset": 0,
            "slot": "0",
            "type": "t_uint256"
          }
        ],
        "numberOfBytes": "32"
      },
      "t_struct(Params)17511_storage": {
        "encoding": "inplace",
        "label": "struct StreamFactoryTypes.Params",
        "members": [
          {
            "astId": 17481,
            "contract": "src/StreamFactory.sol:StreamFactory",
            "label": "streamCreationFee",
            "offset": 0,
            "slot": "0",
            "type": "t_uint256"
          },
          {
            "astId": 17483,
            "contract": "src/StreamFactory.sol:StreamFactory",
            "label": "streamCreationFeeToken",
            "offset": 0,
            "slot": "1",
            "type": "t_address"
          },
          {
            "astId": 17486,
            "contract": "src/StreamFactory.sol:StreamFactory",
            "label": "exitFeeRatio",
            "offset": 0,
            "slot": "2",
            "type": "t_struct(Decimal)16251_storage"
          },
          {
            "astId": 17488,
            "contract": "src/StreamFactory.sol:StreamFactory",
            "label": "minWaitingDuration",
            "offset": 0,
            "slot": "3",
            "type": "t_uint256"
          },
          {
            "astId": 17490,
            "contract": "src/StreamFactory.sol:StreamFactory",
            "label": "minBootstrappingDuration",
            "offset": 0,
            "slot": "4",
            "type": "t_uint256"
          },
          {
            "astId": 17492,
            "contract": "src/StreamFactory.sol:StreamFactory",
            "label": "minStreamDuration",
            "offset": 0,
            "slot": "5",
            "type": "t_uint256"
          },
          {
            "astId": 17494,
            "contract": "src/StreamFactory.sol:StreamFactory",
            "label": "feeCollector",
            "offset": 0,
            "slot": "6",
            "type": "t_address"
          },
          {
            "astId": 17496,
            "contract": "src/StreamFactory.sol:StreamFactory",
            "label": "protocolAdmin",
            "offset": 0,
            "slot": "7",
            "type": "t_address"
          },
          {
            "astId": 17498,
            "contract": "src/StreamFactory.sol:StreamFactory",
            "label": "tosVersion",
            "offset": 0,
            "slot": "8",
            "type": "t_string_storage"
          },
          {
            "astId": 17500,
            "contract": "src/StreamFactory.sol:StreamFactory",
            "label": "vestingFactoryAddress",
            "offset": 0,
            "slot": "9",
            "type": "t_address"
          },
          {
            "astId": 17502,
            "contract": "src/StreamFactory.sol:StreamFactory",
            "label": "V2PoolWrapperAddress",
            "offset": 0,
            "slot": "10",
            "type": "t_address"
          },
          {
            "astId": 17504,
            "contract": "src/StreamFactory.sol:StreamFactory",
            "label": "V3PoolWrapperAddress",
            "offset": 0,
            "slot": "11",
            "type": "t_address"
          },
          {
            "astId": 17506,
            "contract": "src/StreamFactory.sol:StreamFactory",
            "label": "AerodromePoolWrapperAddress",
            "offset": 0,
            "slot": "12",
            "type": "t_address"
          },
          {
            "astId": 17508,
            "contract": "src/StreamFactory.sol:StreamFactory",
            "label": "streamImplementationAddress",
            "offset": 0,
            "slot": "13",
            "type": "t_address"
          },
          {
            "astId": 17510,
            "contract": "src/StreamFactory.sol:StreamFactory",
            "label": "tokenFactoryAddress",
            "offset": 0,
            "slot": "14",
            "type": "t_address"
          }
        ],
        "numberOfBytes": "480"
      },
      "t_uint16": {
        "encoding": "inplace",
        "label": "uint16",
        "numberOfBytes": "2"
      },
      "t_uint256": {
        "encoding": "inplace",
        "label": "uint256",
        "numberOfBytes": "32"
      }
    }
  }
}