{
  "address": "0xbE5e6D39A06C323e2a213b49FDC8bfD8fC69a0E6",
  "abi": [
    {
      "inputs": [
        {
          "internalType": "address",
          "name": "factory",
          "type": "address"
        },
        {
          "internalType": "address",
          "name": "positionManager",
          "type": "address"
        },
        {
          "internalType": "uint24",
          "name": "feeTier",
          "type": "uint24"
        }
      ],
      "stateMutability": "nonpayable",
      "type": "constructor"
    },
    {
      "inputs": [],
      "name": "DifferentTokensRequired",
      "type": "error"
    },
    {
      "inputs": [
        {
          "internalType": "uint256",
          "name": "expected",
          "type": "uint256"
        },
        {
          "internalType": "uint256",
          "name": "actual",
          "type": "uint256"
        }
      ],
      "name": "IncorrectNativeAmount",
      "type": "error"
    },
    {
      "inputs": [],
      "name": "InsufficientBalance",
      "type": "error"
    },
    {
      "inputs": [],
      "name": "InvalidAddress",
      "type": "error"
    },
    {
      "inputs": [],
      "name": "InvalidAmount",
      "type": "error"
    },
    {
      "inputs": [
        {
          "internalType": "address",
          "name": "from",
          "type": "address"
        }
      ],
      "name": "InvalidNativePayer",
      "type": "error"
    },
    {
      "inputs": [],
      "name": "NativeTokenTransferFailed",
      "type": "error"
    },
    {
      "inputs": [],
      "name": "PoolCreationFailed",
      "type": "error"
    },
    {
      "inputs": [],
      "name": "R",
      "type": "error"
    },
    {
      "inputs": [],
      "name": "T",
      "type": "error"
    },
    {
      "anonymous": false,
      "inputs": [
        {
          "indexed": true,
          "internalType": "address",
          "name": "previousOwner",
          "type": "address"
        },
        {
          "indexed": true,
          "internalType": "address",
          "name": "newOwner",
          "type": "address"
        }
      ],
      "name": "OwnershipTransferred",
      "type": "event"
    },
    {
      "inputs": [],
      "name": "FEE_TIER",
      "outputs": [
        {
          "internalType": "uint24",
          "name": "",
          "type": "uint24"
        }
      ],
      "stateMutability": "view",
      "type": "function"
    },
    {
      "inputs": [],
      "name": "NONFUNGIBLE_POSITION_MANAGER",
      "outputs": [
        {
          "internalType": "address",
          "name": "",
          "type": "address"
        }
      ],
      "stateMutability": "view",
      "type": "function"
    },
    {
      "inputs": [],
      "name": "UNISWAP_V3_FACTORY",
      "outputs": [
        {
          "internalType": "address",
          "name": "",
          "type": "address"
        }
      ],
      "stateMutability": "view",
      "type": "function"
    },
    {
      "inputs": [
        {
          "components": [
            {
              "internalType": "address",
              "name": "token0",
              "type": "address"
            },
            {
              "internalType": "address",
              "name": "token1",
              "type": "address"
            },
            {
              "internalType": "uint256",
              "name": "amount0Desired",
              "type": "uint256"
            },
            {
              "internalType": "uint256",
              "name": "amount1Desired",
              "type": "uint256"
            },
            {
              "internalType": "address",
              "name": "creator",
              "type": "address"
            }
          ],
          "internalType": "struct PoolWrapperTypes.CreatePoolMsg",
          "name": "createPoolMsg",
          "type": "tuple"
        }
      ],
      "name": "createPool",
      "outputs": [
        {
          "components": [
            {
              "internalType": "address",
              "name": "poolAddress",
              "type": "address"
            },
            {
              "internalType": "address",
              "name": "token0",
              "type": "address"
            },
            {
              "internalType": "address",
              "name": "token1",
              "type": "address"
            },
            {
              "internalType": "uint256",
              "name": "amount0",
              "type": "uint256"
            },
            {
              "internalType": "uint256",
              "name": "amount1",
              "type": "uint256"
            },
            {
              "internalType": "address",
              "name": "creator",
              "type": "address"
            },
            {
              "internalType": "uint256",
              "name": "refundedAmount0",
              "type": "uint256"
            },
            {
              "internalType": "uint256",
              "name": "refundedAmount1",
              "type": "uint256"
            }
          ],
          "internalType": "struct PoolWrapperTypes.CreatedPoolInfo",
          "name": "",
          "type": "tuple"
        }
      ],
      "stateMutability": "nonpayable",
      "type": "function"
    },
    {
      "inputs": [
        {
          "internalType": "address",
          "name": "stream",
          "type": "address"
        }
      ],
      "name": "getPoolInfo",
      "outputs": [
        {
          "components": [
            {
              "internalType": "address",
              "name": "poolAddress",
              "type": "address"
            },
            {
              "internalType": "address",
              "name": "token0",
              "type": "address"
            },
            {
              "internalType": "address",
              "name": "token1",
              "type": "address"
            },
            {
              "internalType": "uint256",
              "name": "amount0",
              "type": "uint256"
            },
            {
              "internalType": "uint256",
              "name": "amount1",
              "type": "uint256"
            },
            {
              "internalType": "address",
              "name": "creator",
              "type": "address"
            },
            {
              "internalType": "uint256",
              "name": "refundedAmount0",
              "type": "uint256"
            },
            {
              "internalType": "uint256",
              "name": "refundedAmount1",
              "type": "uint256"
            }
          ],
          "internalType": "struct PoolWrapperTypes.CreatedPoolInfo",
          "name": "",
          "type": "tuple"
        }
      ],
      "stateMutability": "view",
      "type": "function"
    },
    {
      "inputs": [],
      "name": "owner",
      "outputs": [
        {
          "internalType": "address",
          "name": "",
          "type": "address"
        }
      ],
      "stateMutability": "view",
      "type": "function"
    },
    {
      "inputs": [],
      "name": "renounceOwnership",
      "outputs": [],
      "stateMutability": "nonpayable",
      "type": "function"
    },
    {
      "inputs": [
        {
          "internalType": "address",
          "name": "",
          "type": "address"
        }
      ],
      "name": "streamPools",
      "outputs": [
        {
          "internalType": "address",
          "name": "poolAddress",
          "type": "address"
        },
        {
          "internalType": "address",
          "name": "token0",
          "type": "address"
        },
        {
          "internalType": "address",
          "name": "token1",
          "type": "address"
        },
        {
          "internalType": "uint256",
          "name": "amount0",
          "type": "uint256"
        },
        {
          "internalType": "uint256",
          "name": "amount1",
          "type": "uint256"
        },
        {
          "internalType": "address",
          "name": "creator",
          "type": "address"
        },
        {
          "internalType": "uint256",
          "name": "refundedAmount0",
          "type": "uint256"
        },
        {
          "internalType": "uint256",
          "name": "refundedAmount1",
          "type": "uint256"
        }
      ],
      "stateMutability": "view",
      "type": "function"
    },
    {
      "inputs": [
        {
          "internalType": "address",
          "name": "newOwner",
          "type": "address"
        }
      ],
      "name": "transferOwnership",
      "outputs": [],
      "stateMutability": "nonpayable",
      "type": "function"
    }
  ],
  "transactionHash": "0x1f752ff5bdaf228ba8b161d63bbc531f14f370f668ad84709e28fdc5398f19a4",
  "args": [
    "0x4752ba5DBc23f44D87826276BF6Fd6b1C372aD24",
    "0x27F971cb582BF9E50F397e4d29a5C7A34f11faA2",
    3000
  ],
  "numDeployments": 1,
  "solcInputHash": "127380fe7794c73452e44d650fbd8822",
  "bytecode": "0x60e0346200016d57601f62001dfb38819003918201601f191683019291906001600160401b03841183851017620001725781606092849260409687528339810103126200016d57620000518162000188565b9082620000616020830162000188565b9101519162ffffff83168084036200016d5760008054336001600160a01b031982168117835587516001600160a01b039390928416907f8be0079c531659141344cd1fd0a4f28419497f9722a3daafe3b4186f6b6457e09080a3818416156200015e57508316156200014d57156200013c5760805260a05260c05251611c5d90816200019e82396080518181816095015281816103b20152611211015260a0518181816104130152818161047301528181610964015261141b015260c05181818161037e01528181610850015281816111dd01526114660152f35b835163162908e360e11b8152600490fd5b845163e6c4247b60e01b8152600490fd5b63e6c4247b60e01b8152600490fd5b600080fd5b634e487b7160e01b600052604160045260246000fd5b51906001600160a01b03821682036200016d5756fe6080604052600436101561001257600080fd5b6000803560e01c806306bfa9381461151f57806312b468221461148a5780634c69a6c91461144a5780634e967fef1461140557806360c7344d14610219578063715018a6146101bf5780638da5cb5b14610198578063f2fde38b146100c75763f73e5aab1461008057600080fd5b346100c457806003193601126100c4576040517f00000000000000000000000000000000000000000000000000000000000000006001600160a01b03168152602090f35b80fd5b50346100c45760203660031901126100c4576004356001600160a01b0381811691829003610194576100f76118f4565b811561014057600054826bffffffffffffffffffffffff60a01b821617600055167f8be0079c531659141344cd1fd0a4f28419497f9722a3daafe3b4186f6b6457e0600080a380f35b60405162461bcd60e51b815260206004820152602660248201527f4f776e61626c653a206e6577206f776e657220697320746865207a65726f206160448201526564647265737360d01b6064820152608490fd5b8280fd5b50346100c457806003193601126100c457546040516001600160a01b039091168152602090f35b50346100c457806003193601126100c4576101d86118f4565b600080546001600160a01b0319811682556001600160a01b03167f8be0079c531659141344cd1fd0a4f28419497f9722a3daafe3b4186f6b6457e08280a380f35b50346100c45760a03660031901126100c457610233611663565b506001600160a01b036102446116a1565b16156113cf576001600160a01b0361025a6116bc565b16156113cf576102686116a1565b6001600160a01b036102786116bc565b6001600160a01b039092169116146113f357604435156113e157606435156113e1576001600160a01b036102aa6116d2565b16156113cf576001600160a01b036102c06116a1565b166040516020816024816370a0823160e01b958682523060048301525afa9081156113c4578391611392575b506044351161133f5760206001600160a01b036103076116bc565b169160246040518094819382523060048301525afa908115611387578291611351575b506064351161133f5761035461033e6116a1565b606435906044359061034e6116bc565b9061194c565b604051630b4c774160e11b81526001600160a01b0380861660048301528416602482015262ffffff7f0000000000000000000000000000000000000000000000000000000000000000166044820152939190602085806064810103817f00000000000000000000000000000000000000000000000000000000000000006001600160a01b03165afa948515611334578695611313575b506001600160a01b038516156111a7575b60405163095ea7b360e01b8082526001600160a01b037f00000000000000000000000000000000000000000000000000000000000000001660048301526024820184905290602081806044810103818b6001600160a01b038a165af1801561119c5761117d575b506040519081526001600160a01b037f000000000000000000000000000000000000000000000000000000000000000016600482015260248101829052602081806044810103818a6001600160a01b038a165af1801561117257611143575b506104cc8282611990565b6401000276a36001600160a01b03821610158061111d575b1561110b576001640100000000600160c01b03602083901b166001600160801b03811160071b81811c67ffffffffffffffff811160061b90811c63ffffffff811160051b81811c61ffff811160041b81811c60ff8111600390811b91821c600f811160021b90811c9182118b1b91821c9a909a11969097179390931717919091179590951783179190911793839290916080861061109e5750505050607e1982011c5b808002607f1c81800260ff1c1c808002607f1c81800260ff1c1c808002607f1c81800260ff1c1c808002607f1c81800260ff1c1c808002607f1c81800260ff1c1c808002607f1c81800260ff1c1c90818002607f1c82800260ff1c1c92838002607f1c84800260ff1c1c94858002607f1c86800260ff1c1c96878002607f1c88800260ff1c1c98898002607f1c8a800260ff1c1c9a8b8002607f1c8c800260ff1c1c9c8d808002607f1c90800260ff1c1c800260cd1c6604000000000000169d800260cc1c6608000000000000169c800260cb1c6610000000000000169b800260ca1c6620000000000000169a800260c91c66400000000000001699800260c81c66800000000000001698800260c71c6701000000000000001697800260c61c6702000000000000001696800260c51c6704000000000000001695800260c41c6708000000000000001694800260c31c6710000000000000001693800260c21c6720000000000000001692800260c11c6740000000000000001691800260c01c6780000000000000001690607f190160401b1717171717171717171717171717693627a301d71055774c8502906fdb2df09e81959a81455e260799a0632f820160801d60020b6f028f6481ab7f045a5af012a19d003aa919830160801d60020b14600014610c6c57506f028f6481ab7f045a5af012a19d003aa9190160801d60020b915b627fffff19600284900b6102571901908112627fffff90911317610c58576102586107c3603c610257198660020b0160020b0561171f565b9360020b01627fffff8113627fffff19821217610c4457603c6107e99160020b0561171f565b60020b808460020b1215610c0a576107ff6116d2565b9361012c42014211610bf657604051968761016081011067ffffffffffffffff6101608a011117610be057610160880160405260018060a01b038716885260018060a01b0316602088015262ffffff7f000000000000000000000000000000000000000000000000000000000000000016604088015260020b6060870152608086015260a085015260c08401528460e08401528461010084015260018060a01b031661012083015261012c420161014083015261014060405192634418b22b60e11b845260018060a01b03815116600485015260018060a01b03602082015116602485015262ffffff6040820151166044850152606081015160020b6064850152608081015160020b608485015260a081015160a485015260c081015160c485015260e081015160e485015261010081015161010485015260018060a01b03610120820151166101248501520151610144830152608082610164818760018060a01b037f0000000000000000000000000000000000000000000000000000000000000000165af18015610bd55784928591610b7f575b50610b6e946040939092610a6a929190829082906001600160a01b03908116906109bd6116a1565b1603610b72575b5050806109d6610a629260443561174a565b906109e38460643561174a565b936109ec6116a1565b916109f56116bc565b6109fd6116d2565b938a519b610a0a8d611624565b6001600160a01b039081168d5290811660208d01529081168a8c015260608b019190915260808a01919091521660a088015260c0870181905260e08701839052610a526116a1565b610a5a6116d2565b903090611797565b610a526116bc565b33815260016020522060018060a01b038251166bffffffffffffffffffffffff60a01b90818354161782556001820160018060a01b03602085015116828254161790556002820160018060a01b03604085015116828254161790556060830151600383015560808301516004830155600582019060018060a01b0360a0850151169082541617905560c08201516006820155600760e08301519101556040519182918291909160e08061010083019460018060a01b03808251168552806020830151166020860152806040830151166040860152606082015160608601526080820151608086015260a08201511660a085015260c081015160c08501520151910152565b0390f35b92509050610a62386109c4565b9250506080823d608011610bcd575b81610b9b60809383611641565b81010312610bc95760208201516001600160801b03811603610bc95760408083015160609093015190610995565b8380fd5b3d9150610b8e565b6040513d86823e3d90fd5b634e487b7160e01b600052604160045260246000fd5b634e487b7160e01b89526011600452602489fd5b60405162461bcd60e51b8152602060048201526012602482015271496e76616c6964207469636b2072616e676560701b6044820152606490fd5b634e487b7160e01b88526011600452602488fd5b634e487b7160e01b87526011600452602487fd5b876fdb2df09e81959a81455e260799a0632f830160801d60020b1260001461107f576fdb2df09e81959a81455e260799a0632f820160801d60020b8803905b620d89e8821161106d57600182161561105b576001600160881b036ffffcb933bd6fad37aa2d162d1a5940015b16916002811661103f575b60048116611023575b60088116611007575b60108116610feb575b60208116610fcf575b60408116610fb3575b60808116610f97575b6101008116610f7b575b6102008116610f5f575b6104008116610f43575b6108008116610f27575b6110008116610f0b575b6120008116610eef575b6140008116610ed3575b6180008116610eb7575b620100008116610e9b575b620200008116610e80575b620400008116610e65575b6208000016610e4d575b886fdb2df09e81959a81455e260799a0632f840160801d60020b13610e28575b63ffffffff8216610e205788905b6001600160a01b0390811660209390931c60ff92909216919091011611610e02576fdb2df09e81959a81455e260799a0632f0160801d60020b5b9161078b565b6f028f6481ab7f045a5af012a19d003aa9190160801d60020b610dfc565b600190610dc2565b908015610e39576000190490610db4565b634e487b7160e01b89526012600452602489fd5b906b048a170391f7dc42444e8fa20260801c90610d94565b6d2216e584f5fa1ea926041bedfe9890920260801c91610d8a565b916e5d6af8dedb81196699c329225ee6040260801c91610d7f565b916f09aa508b5b7a84e1c677de54f3e99bc90260801c91610d74565b916f31be135f97d08fd981231505542fcfa60260801c91610d69565b916f70d869a156d2a1b890bb3df62baf32f70260801c91610d5f565b916fa9f746462d870fdf8a65dc1f90e061e50260801c91610d55565b916fd097f3bdfd2022b8845ad8f792aa58250260801c91610d4b565b916fe7159475a2c29b7443b29c7fa6e889d90260801c91610d41565b916ff3392b0822b70005940c7a398e4b70f30260801c91610d37565b916ff987a7253ac413176f2b074cf7815e540260801c91610d2d565b916ffcbe86c7900a88aedcffc83b479aa3a40260801c91610d23565b916ffe5dee046a99a2a811c461f1969c30530260801c91610d19565b916fff2ea16466c96a3843ec78b326b528610260801c91610d10565b916fff973b41fa98c081472e6896dfb254c00260801c91610d07565b916fffcb9843d60f6159c9db58835c9266440260801c91610cfe565b916fffe5caca7e10e4e61c3624eaa0941cd00260801c91610cf5565b916ffff2e50f5f656932ef12357cf3c7fdcc0260801c91610cec565b916ffff97272373d413259a46990580e213a0260801c91610ce3565b6001600160881b03600160801b610cd8565b6040516315e4079d60e11b8152600490fd5b6fdb2df09e81959a81455e260799a0632f820160801d60020b90610cab565b600161ffff841160041b93841c60ff811160031b90811c600f811160021b90811c851c9290921163ffffffff90931160051b67ffffffffffffffff6001600160801b03881160071b88811c9190911160061b17179490941793909317929092171717607f031b9050610587565b6040516324c070df60e11b8152600490fd5b5073fffd8963efd1fc6a506488495d951d5263988d266001600160a01b038216106104e4565b6111649060203d60201161116b575b61115c8183611641565b810190611707565b50386104c1565b503d611152565b6040513d89823e3d90fd5b6111959060203d60201161116b5761115c8183611641565b5038610462565b6040513d8a823e3d90fd5b93506111b38185611990565b60405163a167129560e01b81526001600160a01b0380851660048301528516602482015262ffffff7f00000000000000000000000000000000000000000000000000000000000000001660448201529490602086806064810103818a7f00000000000000000000000000000000000000000000000000000000000000006001600160a01b03165af19586156111725787966112e2575b506001600160a01b0386169081156112d0578188923b156101945760405163f637731d60e01b81526001600160a01b0390921660048301529091908290602490829084905af18015611172576112a0575b506103fb565b67ffffffffffffffff81979297116112bc57604052943861129a565b634e487b7160e01b82526041600452602482fd5b6040516337200b1d60e21b8152600490fd5b61130591965060203d60201161130c575b6112fd8183611641565b8101906116e8565b9438611249565b503d6112f3565b61132d91955060203d60201161130c576112fd8183611641565b93386103ea565b6040513d88823e3d90fd5b604051631e9acf1760e31b8152600490fd5b90506020813d60201161137f575b8161136c60209383611641565b8101031261137b57513861032a565b5080fd5b3d915061135f565b6040513d84823e3d90fd5b90506020813d6020116113bc575b816113ad60209383611641565b810103126101945751386102ec565b3d91506113a0565b6040513d85823e3d90fd5b60405163e6c4247b60e01b8152600490fd5b60405163162908e360e11b8152600490fd5b6040516351734ced60e01b8152600490fd5b50346100c457806003193601126100c4576040517f00000000000000000000000000000000000000000000000000000000000000006001600160a01b03168152602090f35b50346100c457806003193601126100c457602060405162ffffff7f0000000000000000000000000000000000000000000000000000000000000000168152f35b50346100c45760203660031901126100c4576001600160a01b036004358181169081900361019457826040916101009452600160205220908082541691816001820154169180600283015416906003830154600484015491600585015416926007600686015495015495604051978852602088015260408701526060860152608085015260a084015260c083015260e0820152f35b50346100c45760203660031901126100c4576001600160a01b0360043581811690819003610194576040610b6e93600792611558611663565b5081526001602052206040519261156e84611624565b808254168452806001830154166020850152806002830154166040850152600382015460608501526004820154608085015260058201541660a0840152600681015460c0840152015460e08201526040519182918291909160e08061010083019460018060a01b03808251168552806020830151166020860152806040830151166040860152606082015160608601526080820151608086015260a08201511660a085015260c081015160c08501520151910152565b610100810190811067ffffffffffffffff821117610be057604052565b90601f8019910116810190811067ffffffffffffffff821117610be057604052565b6040519061167082611624565b8160e06000918281528260208201528260408201528260608201528260808201528260a08201528260c08201520152565b6004356001600160a01b03811681036116b75790565b600080fd5b6024356001600160a01b03811681036116b75790565b6084356001600160a01b03811681036116b75790565b908160209103126116b757516001600160a01b03811681036116b75790565b908160209103126116b7575180151581036116b75790565b603c9060020b02908160020b91820361173457565b634e487b7160e01b600052601160045260246000fd5b9190820391821161173457565b3d15611792573d9067ffffffffffffffff8211610be05760405191611786601f8201601f191660200184611641565b82523d6000602084013e565b606090565b9291909282156118ee576001600160a01b0390811693841561184e5781169030820361180257505060405163a9059cbb60e01b60208201526001600160a01b03919091166024820152604480820192909252908152611800916117fb606483611641565b611a5b565b565b909291604051936323b872dd60e01b6020860152602485015216604483015260648201526064815260a081019181831067ffffffffffffffff841117610be05761180092604052611a5b565b81939450163381146000146118bb575082340361189c571630811461189857600080809381935af161187e611757565b501561188657565b604051630c08bcb960e21b8152600490fd5b5050565b604051635693fffb60e01b815260048101849052346024820152604490fd5b3081036118d657506000809381938293165af161187e611757565b6024906040519063463de9db60e01b82526004820152fd5b50505050565b6000546001600160a01b0316330361190857565b606460405162461bcd60e51b815260206004820152602060248201527f4f776e61626c653a2063616c6c6572206973206e6f7420746865206f776e65726044820152fd5b9093919291906001600160a01b03808616908216101561196c5793929190565b9290565b811561197a570490565b634e487b7160e01b600052601260045260246000fd5b81156113e15780156119f1576119b1916119ac9160801b611970565b6119f8565b6001600160a01b039060201b8181116119c8571690565b60405162461bcd60e51b81526020600482015260016024820152602960f91b6044820152606490fd5b5050600090565b8015611a555760018082018083116117345760011c9082905b838310611a1e5750505090565b9192509082611a2d8184611970565b908101809111611a4057811c9190611a11565b60246000634e487b7160e01b81526011600452fd5b50600090565b60408051908101916001600160a01b031667ffffffffffffffff831182841017610be057611acb926040526000806020958685527f5361666545524332303a206c6f772d6c6576656c2063616c6c206661696c656487860152868151910182855af1611ac5611757565b91611b53565b805190828215928315611b3b575b50505015611ae45750565b6084906040519062461bcd60e51b82526004820152602a60248201527f5361666545524332303a204552433230206f7065726174696f6e20646964206e6044820152691bdd081cdd58d8d9595960b21b6064820152fd5b611b4b9350820181019101611707565b388281611ad9565b91929015611bb55750815115611b67575090565b3b15611b705790565b60405162461bcd60e51b815260206004820152601d60248201527f416464726573733a2063616c6c20746f206e6f6e2d636f6e74726163740000006044820152606490fd5b825190915015611bc85750805190602001fd5b6040519062461bcd60e51b82528160208060048301528251908160248401526000935b828510611c0e575050604492506000838284010152601f80199101168101030190fd5b8481018201518686016044015293810193859350611beb56fea26469706673582212205acf70f923466cde1f91147039639e07e79df99e097acc40e371f7345a59eba964736f6c63430008180033",
  "devdoc": {
    "kind": "dev",
    "methods": {
      "createPool((address,address,uint256,uint256,address))": {
        "params": {
          "createPoolMsg": "The parameters for pool creation and liquidity addition Callable by anyone"
        }
      },
      "getPoolInfo(address)": {
        "params": {
          "stream": "The stream address"
        }
      },
      "owner()": {
        "details": "Returns the address of the current owner."
      },
      "renounceOwnership()": {
        "details": "Leaves the contract without owner. It will not be possible to call `onlyOwner` functions. Can only be called by the current owner. NOTE: Renouncing ownership will leave the contract without an owner, thereby disabling any functionality that is only available to the owner."
      },
      "transferOwnership(address)": {
        "details": "Transfers ownership of the contract to a new account (`newOwner`). Can only be called by the current owner."
      }
    },
    "title": "V3PoolWrapper",
    "version": 1
  },
  "userdoc": {
    "kind": "user",
    "methods": {
      "createPool((address,address,uint256,uint256,address))": {
        "notice": "Creates a pool and adds liquidity"
      },
      "getPoolInfo(address)": {
        "notice": "Gets pool info for a stream"
      }
    },
    "notice": "Wrapper for creating v3 pools and adding liquidity within a price range",
    "version": 1
  },
  "storageLayout": {
    "storage": [
      {
        "astId": 7,
        "contract": "src/V3PoolWrapper.sol:V3PoolWrapper",
        "label": "_owner",
        "offset": 0,
        "slot": "0",
        "type": "t_address"
      },
      {
        "astId": 9335,
        "contract": "src/V3PoolWrapper.sol:V3PoolWrapper",
        "label": "streamPools",
        "offset": 0,
        "slot": "1",
        "type": "t_mapping(t_address,t_struct(CreatedPoolInfo)11740_storage)"
      }
    ],
    "types": {
      "t_address": {
        "encoding": "inplace",
        "label": "address",
        "numberOfBytes": "20"
      },
      "t_mapping(t_address,t_struct(CreatedPoolInfo)11740_storage)": {
        "encoding": "mapping",
        "key": "t_address",
        "label": "mapping(address => struct PoolWrapperTypes.CreatedPoolInfo)",
        "numberOfBytes": "32",
        "value": "t_struct(CreatedPoolInfo)11740_storage"
      },
      "t_struct(CreatedPoolInfo)11740_storage": {
        "encoding": "inplace",
        "label": "struct PoolWrapperTypes.CreatedPoolInfo",
        "members": [
          {
            "astId": 11725,
            "contract": "src/V3PoolWrapper.sol:V3PoolWrapper",
            "label": "poolAddress",
            "offset": 0,
            "slot": "0",
            "type": "t_address"
          },
          {
            "astId": 11727,
            "contract": "src/V3PoolWrapper.sol:V3PoolWrapper",
            "label": "token0",
            "offset": 0,
            "slot": "1",
            "type": "t_address"
          },
          {
            "astId": 11729,
            "contract": "src/V3PoolWrapper.sol:V3PoolWrapper",
            "label": "token1",
            "offset": 0,
            "slot": "2",
            "type": "t_address"
          },
          {
            "astId": 11731,
            "contract": "src/V3PoolWrapper.sol:V3PoolWrapper",
            "label": "amount0",
            "offset": 0,
            "slot": "3",
            "type": "t_uint256"
          },
          {
            "astId": 11733,
            "contract": "src/V3PoolWrapper.sol:V3PoolWrapper",
            "label": "amount1",
            "offset": 0,
            "slot": "4",
            "type": "t_uint256"
          },
          {
            "astId": 11735,
            "contract": "src/V3PoolWrapper.sol:V3PoolWrapper",
            "label": "creator",
            "offset": 0,
            "slot": "5",
            "type": "t_address"
          },
          {
            "astId": 11737,
            "contract": "src/V3PoolWrapper.sol:V3PoolWrapper",
            "label": "refundedAmount0",
            "offset": 0,
            "slot": "6",
            "type": "t_uint256"
          },
          {
            "astId": 11739,
            "contract": "src/V3PoolWrapper.sol:V3PoolWrapper",
            "label": "refundedAmount1",
            "offset": 0,
            "slot": "7",
            "type": "t_uint256"
          }
        ],
        "numberOfBytes": "256"
      },
      "t_uint256": {
        "encoding": "inplace",
        "label": "uint256",
        "numberOfBytes": "32"
      }
    }
  }
}