{
  "address": "0x6D695a568E0cbCf72fb4Aa992b3bF1b6bEF57e55",
  "abi": [
    {
      "inputs": [],
      "stateMutability": "nonpayable",
      "type": "constructor"
    },
    {
      "inputs": [
        {
          "internalType": "uint256",
          "name": "expected",
          "type": "uint256"
        },
        {
          "internalType": "uint256",
          "name": "actual",
          "type": "uint256"
        }
      ],
      "name": "IncorrectNativeAmount",
      "type": "error"
    },
    {
      "inputs": [],
      "name": "InvalidAddress",
      "type": "error"
    },
    {
      "inputs": [],
      "name": "InvalidAmount",
      "type": "error"
    },
    {
      "inputs": [],
      "name": "InvalidDexType",
      "type": "error"
    },
    {
      "inputs": [],
      "name": "InvalidExtraParams",
      "type": "error"
    },
    {
      "inputs": [
        {
          "internalType": "address",
          "name": "from",
          "type": "address"
        }
      ],
      "name": "InvalidNativePayer",
      "type": "error"
    },
    {
      "inputs": [],
      "name": "NativeTokenTransferFailed",
      "type": "error"
    },
    {
      "inputs": [],
      "name": "WrapperNotFound",
      "type": "error"
    },
    {
      "anonymous": false,
      "inputs": [
        {
          "indexed": true,
          "internalType": "address",
          "name": "previousOwner",
          "type": "address"
        },
        {
          "indexed": true,
          "internalType": "address",
          "name": "newOwner",
          "type": "address"
        }
      ],
      "name": "OwnershipTransferred",
      "type": "event"
    },
    {
      "anonymous": false,
      "inputs": [
        {
          "indexed": true,
          "internalType": "address",
          "name": "stream",
          "type": "address"
        },
        {
          "indexed": true,
          "internalType": "address",
          "name": "wrapper",
          "type": "address"
        },
        {
          "indexed": false,
          "internalType": "address",
          "name": "pool",
          "type": "address"
        },
        {
          "indexed": false,
          "internalType": "address",
          "name": "token0",
          "type": "address"
        },
        {
          "indexed": false,
          "internalType": "address",
          "name": "token1",
          "type": "address"
        },
        {
          "indexed": false,
          "internalType": "uint256",
          "name": "amount0",
          "type": "uint256"
        },
        {
          "indexed": false,
          "internalType": "uint256",
          "name": "amount1",
          "type": "uint256"
        }
      ],
      "name": "RoutedCreatePool",
      "type": "event"
    },
    {
      "anonymous": false,
      "inputs": [
        {
          "indexed": true,
          "internalType": "uint8",
          "name": "dex",
          "type": "uint8"
        },
        {
          "indexed": true,
          "internalType": "uint256",
          "name": "key",
          "type": "uint256"
        },
        {
          "indexed": false,
          "internalType": "address",
          "name": "wrapper",
          "type": "address"
        }
      ],
      "name": "WrapperSet",
      "type": "event"
    },
    {
      "inputs": [
        {
          "components": [
            {
              "internalType": "address",
              "name": "tokenA",
              "type": "address"
            },
            {
              "internalType": "address",
              "name": "tokenB",
              "type": "address"
            },
            {
              "internalType": "uint256",
              "name": "amountADesired",
              "type": "uint256"
            },
            {
              "internalType": "uint256",
              "name": "amountBDesired",
              "type": "uint256"
            },
            {
              "internalType": "enum StreamTypes.DexType",
              "name": "dexType",
              "type": "uint8"
            },
            {
              "internalType": "bytes",
              "name": "extra",
              "type": "bytes"
            },
            {
              "internalType": "address",
              "name": "creator",
              "type": "address"
            }
          ],
          "internalType": "struct PoolRouterTypes.CreatePoolRequest",
          "name": "req",
          "type": "tuple"
        }
      ],
      "name": "createPool",
      "outputs": [
        {
          "components": [
            {
              "internalType": "address",
              "name": "poolAddress",
              "type": "address"
            },
            {
              "internalType": "address",
              "name": "token0",
              "type": "address"
            },
            {
              "internalType": "address",
              "name": "token1",
              "type": "address"
            },
            {
              "internalType": "uint256",
              "name": "amount0",
              "type": "uint256"
            },
            {
              "internalType": "uint256",
              "name": "amount1",
              "type": "uint256"
            },
            {
              "internalType": "address",
              "name": "creator",
              "type": "address"
            },
            {
              "internalType": "uint256",
              "name": "refundedAmount0",
              "type": "uint256"
            },
            {
              "internalType": "uint256",
              "name": "refundedAmount1",
              "type": "uint256"
            }
          ],
          "internalType": "struct PoolWrapperTypes.CreatedPoolInfo",
          "name": "",
          "type": "tuple"
        }
      ],
      "stateMutability": "nonpayable",
      "type": "function"
    },
    {
      "inputs": [
        {
          "internalType": "enum StreamTypes.DexType",
          "name": "dex",
          "type": "uint8"
        },
        {
          "internalType": "uint256",
          "name": "key",
          "type": "uint256"
        }
      ],
      "name": "getWrapper",
      "outputs": [
        {
          "internalType": "address",
          "name": "",
          "type": "address"
        }
      ],
      "stateMutability": "view",
      "type": "function"
    },
    {
      "inputs": [],
      "name": "owner",
      "outputs": [
        {
          "internalType": "address",
          "name": "",
          "type": "address"
        }
      ],
      "stateMutability": "view",
      "type": "function"
    },
    {
      "inputs": [],
      "name": "renounceOwnership",
      "outputs": [],
      "stateMutability": "nonpayable",
      "type": "function"
    },
    {
      "inputs": [
        {
          "internalType": "enum StreamTypes.DexType",
          "name": "dex",
          "type": "uint8"
        },
        {
          "internalType": "uint256",
          "name": "key",
          "type": "uint256"
        },
        {
          "internalType": "address",
          "name": "wrapper",
          "type": "address"
        }
      ],
      "name": "setWrapper",
      "outputs": [],
      "stateMutability": "nonpayable",
      "type": "function"
    },
    {
      "inputs": [
        {
          "internalType": "address",
          "name": "newOwner",
          "type": "address"
        }
      ],
      "name": "transferOwnership",
      "outputs": [],
      "stateMutability": "nonpayable",
      "type": "function"
    },
    {
      "inputs": [
        {
          "components": [
            {
              "internalType": "uint256",
              "name": "poolOutSupplyAmount",
              "type": "uint256"
            },
            {
              "internalType": "enum StreamTypes.DexType",
              "name": "dexType",
              "type": "uint8"
            },
            {
              "internalType": "bytes",
              "name": "extra",
              "type": "bytes"
            }
          ],
          "internalType": "struct StreamTypes.PoolInfo",
          "name": "info",
          "type": "tuple"
        }
      ],
      "name": "validatePoolParams",
      "outputs": [],
      "stateMutability": "view",
      "type": "function"
    },
    {
      "stateMutability": "payable",
      "type": "receive"
    }
  ],
  "transactionHash": "0x99b3036e0befa02738293564366ed226c8e285534620cd379c933147168986f5",
  "args": [],
  "numDeployments": 1,
  "solcInputHash": "4c88433caf06a9f811a6f5b14a9ed110",
  "bytecode": "0x6080806040523461005b5760008054336001600160a01b0319821681178355916001600160a01b03909116907f8be0079c531659141344cd1fd0a4f28419497f9722a3daafe3b4186f6b6457e09080a3610e2d90816100618239f35b600080fdfe6080604052600436101561001b575b361561001957600080fd5b005b60003560e01c806302ff2b9b146107845780636961a02a14610736578063715018a6146106dd5780638da5cb5b146106b4578063a871960c146101f4578063e8ef716f1461013d5763f2fde38b0361000e5734610138576020366003190112610138576004356001600160a01b03818116918290036101385761009c610a7e565b81156100e457600054826bffffffffffffffffffffffff60a01b821617600055167f8be0079c531659141344cd1fd0a4f28419497f9722a3daafe3b4186f6b6457e0600080a3005b60405162461bcd60e51b815260206004820152602660248201527f4f776e61626c653a206e6577206f776e657220697320746865207a65726f206160448201526564647265737360d01b6064820152608490fd5b600080fd5b3461013857606036600319011261013857600435600381101561013857602435906044356001600160a01b03811691908290036101385761017c610a7e565b81156101e257602060ff7ff391d3762af1f8f379d5bd472ea0944f0c3923f93bfb5845c734a900dff30ccd921692836000526001825260406000208560005282526040600020816bffffffffffffffffffffffff60a01b825416179055604051908152a3005b60405163e6c4247b60e01b8152600490fd5b34610138576003196020368201126101385767ffffffffffffffff600435116101385760e0906004353603011261013857600060e0604051610235816108c1565b8281528260208201528260408201528260608201528260808201528260a08201528260c0820152015260018060a01b03610273600435600401610953565b16158015610696575b6101e25760446004350135158015610688575b610676576102a1600435600401610953565b6001600160a01b036102b7600435602401610953565b6001600160a01b039092169116146101e2576001600160a01b036102df60043560c401610953565b16156101e2576084600435013560038110156101385760ff61031e61031861031160a46004350160043560040161088e565b369161091c565b836109d3565b509116600052600160205260406000209060005260205260018060a01b036040600020541680156106645761036a61035a600435600401610953565b8260446004350135913090610b06565b61038b61037b602460043501610953565b8260646004350135913090610b06565b610399600435600401610953565b906103a8602460043501610953565b906103b760c460043501610953565b916103cc60a46004350160043560040161088e565b604051949167ffffffffffffffff60c087019081119087111761064e576104ac9660c0870160405260018060a01b03168652602086019360018060a01b0316845261044260408701916044600435013583526060880193606460043501358552608089019560018060a01b03168652369161091c565b60a087019081526040516312311a2d60e21b81526020600482015296516001600160a01b0390811660248901529451851660448801529051606487015290516084860152905190911660a48401525160c060c48401526101009384918491829160e483019061097b565b03816000855af1918215610642576000926105a2575b5060018060a01b0382511660018060a01b0360208401511660018060a01b0360408501511660608501519060808601519260405194855260208501526040840152606083015260808201527fd387e562425d19c38dbd8b02fd1881af46c5b779ea0a38239d6582af8a1ee90660a03392a360e06040519160018060a01b03815116835260018060a01b03602082015116602084015260018060a01b036040820151166040840152606081015160608401526080810151608084015260018060a01b0360a08201511660a084015260c081015160c0840152015160e0820152f35b9091508281813d831161063b575b6105ba81836108de565b810103126101385760e0604051916105d1836108c1565b6105da81610967565b83526105e860208201610967565b60208401526105f960408201610967565b6040840152606081015160608401526080810151608084015261061e60a08201610967565b60a084015260c081015160c0840152015160e082015290836104c2565b503d6105b0565b6040513d6000823e3d90fd5b634e487b7160e01b600052604160045260246000fd5b60405163af386ecb60e01b8152600490fd5b60405163162908e360e11b8152600490fd5b50606460043501351561028f565b506001600160a01b036106ad600435602401610953565b161561027c565b34610138576000366003190112610138576000546040516001600160a01b039091168152602090f35b34610138576000366003190112610138576106f6610a7e565b600080546001600160a01b0319811682556001600160a01b03167f8be0079c531659141344cd1fd0a4f28419497f9722a3daafe3b4186f6b6457e08280a3005b346101385760403660031901126101385760043560038110156101385760ff1660005260016020526040600020602435600052602052602060018060a01b0360406000205416604051908152f35b34610138576003196020368201126101385760043567ffffffffffffffff81116101385760608160040192823603011261013857602481013590600382101561013857604401906107e16107db610311848661088e565b826109d3565b5060ff8216600052600160205260406000209060005260205260018060a01b0360406000205416156106645780158061087a575b610839576001811480610864575b61083957600214918261084b575b505061083957005b60405163292f83f160e11b8152600490fd5b60019250906108599161088e565b905014158180610831565b506020610871838561088e565b90501415610823565b50610885828461088e565b90501515610815565b903590601e1981360301821215610138570180359067ffffffffffffffff82116101385760200191813603831361013857565b610100810190811067ffffffffffffffff82111761064e57604052565b90601f8019910116810190811067ffffffffffffffff82111761064e57604052565b67ffffffffffffffff811161064e57601f01601f191660200190565b92919261092882610900565b9161093660405193846108de565b829481845281830111610138578281602093846000960137010152565b356001600160a01b03811681036101385790565b51906001600160a01b038216820361013857565b919082519283825260005b8481106109a7575050826000602080949584010152601f8019910116010190565b602081830181015184830182015201610986565b90816020910312610138575180151581036101385790565b6003811015610a6857806109ef57505161083957600090600090565b60018103610a225750602081805181010312610138576020015162ffffff81168091036101385780156108395790600090565b600203610a565780602080610a3c935183010191016109bb565b15610a4d5760ff60015b1690600190565b60ff6000610a46565b604051631ba449e160e01b8152600490fd5b634e487b7160e01b600052602160045260246000fd5b6000546001600160a01b03163303610a9257565b606460405162461bcd60e51b815260206004820152602060248201527f4f776e61626c653a2063616c6c6572206973206e6f7420746865206f776e65726044820152fd5b3d15610b01573d90610ae782610900565b91610af560405193846108de565b82523d6000602084013e565b606090565b9290928115610c5c576001600160a01b03908116938415610bbb578116308103610b7157506040519263a9059cbb60e01b6020850152166024830152604482015260448152608081019181831067ffffffffffffffff84111761064e57610b6f92604052610c62565b565b92604051936323b872dd60e01b6020860152602485015216604483015260648201526064815260a081019181831067ffffffffffffffff84111761064e57610b6f92604052610c62565b819392945016338114600014610c295750823403610c0a5716308114610c0657600080809381935af1610bec610ad6565b5015610bf457565b604051630c08bcb960e21b8152600490fd5b5050565b604051635693fffb60e01b815260048101849052346024820152604490fd5b308103610c4457506000809381938293165af1610bec610ad6565b6024906040519063463de9db60e01b82526004820152fd5b50505050565b60408051908101916001600160a01b031667ffffffffffffffff83118284101761064e57610cd2926040526000806020958685527f5361666545524332303a206c6f772d6c6576656c2063616c6c206661696c656487860152868151910182855af1610ccc610ad6565b91610d5a565b805190828215928315610d42575b50505015610ceb5750565b6084906040519062461bcd60e51b82526004820152602a60248201527f5361666545524332303a204552433230206f7065726174696f6e20646964206e6044820152691bdd081cdd58d8d9595960b21b6064820152fd5b610d5293508201810191016109bb565b388281610ce0565b91929015610dbc5750815115610d6e575090565b3b15610d775790565b60405162461bcd60e51b815260206004820152601d60248201527f416464726573733a2063616c6c20746f206e6f6e2d636f6e74726163740000006044820152606490fd5b825190915015610dcf5750805190602001fd5b60405162461bcd60e51b815260206004820152908190610df390602483019061097b565b0390fdfea26469706673582212200569f98a15ca61c83ea1bf349560fae686b2b7b8abceebe47e4666d124ce2dc064736f6c63430008180033",
  "devdoc": {
    "kind": "dev",
    "methods": {
      "owner()": {
        "details": "Returns the address of the current owner."
      },
      "renounceOwnership()": {
        "details": "Leaves the contract without owner. It will not be possible to call `onlyOwner` functions. Can only be called by the current owner. NOTE: Renouncing ownership will leave the contract without an owner, thereby disabling any functionality that is only available to the owner."
      },
      "transferOwnership(address)": {
        "details": "Transfers ownership of the contract to a new account (`newOwner`). Can only be called by the current owner."
      }
    },
    "version": 1
  },
  "userdoc": {
    "kind": "user",
    "methods": {},
    "version": 1
  },
  "storageLayout": {
    "storage": [
      {
        "astId": 11,
        "contract": "src/PoolRouter.sol:PoolRouter",
        "label": "_owner",
        "offset": 0,
        "slot": "0",
        "type": "t_address"
      },
      {
        "astId": 9648,
        "contract": "src/PoolRouter.sol:PoolRouter",
        "label": "_wrappers",
        "offset": 0,
        "slot": "1",
        "type": "t_mapping(t_uint8,t_mapping(t_uint256,t_address))"
      }
    ],
    "types": {
      "t_address": {
        "encoding": "inplace",
        "label": "address",
        "numberOfBytes": "20"
      },
      "t_mapping(t_uint256,t_address)": {
        "encoding": "mapping",
        "key": "t_uint256",
        "label": "mapping(uint256 => address)",
        "numberOfBytes": "32",
        "value": "t_address"
      },
      "t_mapping(t_uint8,t_mapping(t_uint256,t_address))": {
        "encoding": "mapping",
        "key": "t_uint8",
        "label": "mapping(uint8 => mapping(uint256 => address))",
        "numberOfBytes": "32",
        "value": "t_mapping(t_uint256,t_address)"
      },
      "t_uint256": {
        "encoding": "inplace",
        "label": "uint256",
        "numberOfBytes": "32"
      },
      "t_uint8": {
        "encoding": "inplace",
        "label": "uint8",
        "numberOfBytes": "1"
      }
    }
  }
}