{
  "address": "0x2063AA63db0bed0A17148c31810659cf3e2Ac890",
  "abi": [
    {
      "inputs": [
        {
          "internalType": "uint256",
          "name": "expected",
          "type": "uint256"
        },
        {
          "internalType": "uint256",
          "name": "actual",
          "type": "uint256"
        }
      ],
      "name": "IncorrectNativeAmount",
      "type": "error"
    },
    {
      "inputs": [],
      "name": "InsufficientOutAmount",
      "type": "error"
    },
    {
      "inputs": [
        {
          "internalType": "uint256",
          "name": "requiredTokenAmount",
          "type": "uint256"
        },
        {
          "internalType": "uint256",
          "name": "tokenBalance",
          "type": "uint256"
        }
      ],
      "name": "InsufficientTokenPayment",
      "type": "error"
    },
    {
      "inputs": [],
      "name": "InvalidAmount",
      "type": "error"
    },
    {
      "inputs": [],
      "name": "InvalidDexType",
      "type": "error"
    },
    {
      "inputs": [],
      "name": "InvalidExitCondition",
      "type": "error"
    },
    {
      "inputs": [],
      "name": "InvalidImplementationAddress",
      "type": "error"
    },
    {
      "inputs": [],
      "name": "InvalidInSupplyToken",
      "type": "error"
    },
    {
      "inputs": [],
      "name": "InvalidInputToken",
      "type": "error"
    },
    {
      "inputs": [
        {
          "internalType": "address",
          "name": "from",
          "type": "address"
        }
      ],
      "name": "InvalidNativePayer",
      "type": "error"
    },
    {
      "inputs": [],
      "name": "InvalidOutSupplyToken",
      "type": "error"
    },
    {
      "inputs": [],
      "name": "InvalidPoolOutSupplyAmount",
      "type": "error"
    },
    {
      "inputs": [],
      "name": "InvalidPoolType",
      "type": "error"
    },
    {
      "inputs": [
        {
          "internalType": "address",
          "name": "user",
          "type": "address"
        },
        {
          "internalType": "uint256",
          "name": "shares",
          "type": "uint256"
        },
        {
          "internalType": "uint256",
          "name": "exitDate",
          "type": "uint256"
        },
        {
          "internalType": "string",
          "name": "reason",
          "type": "string"
        }
      ],
      "name": "InvalidPosition",
      "type": "error"
    },
    {
      "inputs": [],
      "name": "InvalidPositionStorageAddress",
      "type": "error"
    },
    {
      "inputs": [],
      "name": "InvalidStreamFactoryAddress",
      "type": "error"
    },
    {
      "inputs": [],
      "name": "InvalidVestingCliffDuration",
      "type": "error"
    },
    {
      "inputs": [],
      "name": "InvalidVestingDuration",
      "type": "error"
    },
    {
      "inputs": [],
      "name": "InvalidWithdrawAmount",
      "type": "error"
    },
    {
      "inputs": [],
      "name": "NativeTokenTransferFailed",
      "type": "error"
    },
    {
      "inputs": [],
      "name": "OperationNotAllowed",
      "type": "error"
    },
    {
      "inputs": [],
      "name": "PaymentFailed",
      "type": "error"
    },
    {
      "inputs": [],
      "name": "SameInputAndOutputToken",
      "type": "error"
    },
    {
      "inputs": [],
      "name": "StreamFactoryAddressAlreadySet",
      "type": "error"
    },
    {
      "inputs": [],
      "name": "Unauthorized",
      "type": "error"
    },
    {
      "inputs": [
        {
          "internalType": "uint256",
          "name": "cap",
          "type": "uint256"
        }
      ],
      "name": "WithdrawAmountExceedsBalance",
      "type": "error"
    },
    {
      "anonymous": false,
      "inputs": [
        {
          "indexed": false,
          "internalType": "address",
          "name": "previousAdmin",
          "type": "address"
        },
        {
          "indexed": false,
          "internalType": "address",
          "name": "newAdmin",
          "type": "address"
        }
      ],
      "name": "AdminChanged",
      "type": "event"
    },
    {
      "anonymous": false,
      "inputs": [
        {
          "indexed": true,
          "internalType": "address",
          "name": "beacon",
          "type": "address"
        }
      ],
      "name": "BeaconUpgraded",
      "type": "event"
    },
    {
      "anonymous": false,
      "inputs": [
        {
          "indexed": true,
          "internalType": "address",
          "name": "beneficiary",
          "type": "address"
        },
        {
          "indexed": false,
          "internalType": "address",
          "name": "vestingAddress",
          "type": "address"
        },
        {
          "indexed": false,
          "internalType": "uint64",
          "name": "vestingDuration",
          "type": "uint64"
        },
        {
          "indexed": false,
          "internalType": "address",
          "name": "token",
          "type": "address"
        },
        {
          "indexed": false,
          "internalType": "uint256",
          "name": "amount",
          "type": "uint256"
        }
      ],
      "name": "BeneficiaryVestingCreated",
      "type": "event"
    },
    {
      "anonymous": false,
      "inputs": [
        {
          "indexed": true,
          "internalType": "address",
          "name": "creator",
          "type": "address"
        },
        {
          "indexed": false,
          "internalType": "address",
          "name": "vestingAddress",
          "type": "address"
        },
        {
          "indexed": false,
          "internalType": "uint256",
          "name": "vestingDuration",
          "type": "uint256"
        },
        {
          "indexed": false,
          "internalType": "address",
          "name": "token",
          "type": "address"
        },
        {
          "indexed": false,
          "internalType": "uint256",
          "name": "amount",
          "type": "uint256"
        }
      ],
      "name": "CreatorVestingCreated",
      "type": "event"
    },
    {
      "anonymous": false,
      "inputs": [
        {
          "indexed": true,
          "internalType": "address",
          "name": "streamAddress",
          "type": "address"
        },
        {
          "indexed": true,
          "internalType": "address",
          "name": "subscriber",
          "type": "address"
        },
        {
          "indexed": false,
          "internalType": "uint256",
          "name": "inBalance",
          "type": "uint256"
        },
        {
          "indexed": false,
          "internalType": "uint256",
          "name": "spentIn",
          "type": "uint256"
        },
        {
          "indexed": false,
          "internalType": "uint256",
          "name": "exitTimestamp",
          "type": "uint256"
        }
      ],
      "name": "ExitRefunded",
      "type": "event"
    },
    {
      "anonymous": false,
      "inputs": [
        {
          "indexed": true,
          "internalType": "address",
          "name": "streamAddress",
          "type": "address"
        },
        {
          "indexed": true,
          "internalType": "address",
          "name": "subscriber",
          "type": "address"
        },
        {
          "indexed": false,
          "internalType": "uint256",
          "name": "purchased",
          "type": "uint256"
        },
        {
          "indexed": false,
          "internalType": "uint256",
          "name": "spentIn",
          "type": "uint256"
        },
        {
          "indexed": false,
          "internalType": "uint256",
          "name": "index",
          "type": "uint256"
        },
        {
          "indexed": false,
          "internalType": "uint256",
          "name": "inBalance",
          "type": "uint256"
        },
        {
          "indexed": false,
          "internalType": "uint256",
          "name": "exitTimestamp",
          "type": "uint256"
        }
      ],
      "name": "ExitStreamed",
      "type": "event"
    },
    {
      "anonymous": false,
      "inputs": [
        {
          "indexed": true,
          "internalType": "address",
          "name": "streamAddress",
          "type": "address"
        },
        {
          "indexed": true,
          "internalType": "address",
          "name": "creator",
          "type": "address"
        },
        {
          "indexed": false,
          "internalType": "uint256",
          "name": "refundedOutAmount",
          "type": "uint256"
        }
      ],
      "name": "FinalizedRefunded",
      "type": "event"
    },
    {
      "anonymous": false,
      "inputs": [
        {
          "indexed": true,
          "internalType": "address",
          "name": "streamAddress",
          "type": "address"
        },
        {
          "indexed": true,
          "internalType": "address",
          "name": "creator",
          "type": "address"
        },
        {
          "indexed": false,
          "internalType": "uint256",
          "name": "creatorRevenue",
          "type": "uint256"
        },
        {
          "indexed": false,
          "internalType": "uint256",
          "name": "exitFeeAmount",
          "type": "uint256"
        },
        {
          "indexed": false,
          "internalType": "uint256",
          "name": "refundedOutAmount",
          "type": "uint256"
        }
      ],
      "name": "FinalizedStreamed",
      "type": "event"
    },
    {
      "anonymous": false,
      "inputs": [
        {
          "indexed": true,
          "internalType": "address",
          "name": "streamAddress",
          "type": "address"
        },
        {
          "indexed": true,
          "internalType": "address",
          "name": "poolAddress",
          "type": "address"
        },
        {
          "indexed": false,
          "internalType": "address",
          "name": "token0",
          "type": "address"
        },
        {
          "indexed": false,
          "internalType": "address",
          "name": "token1",
          "type": "address"
        },
        {
          "indexed": false,
          "internalType": "uint256",
          "name": "amount0",
          "type": "uint256"
        },
        {
          "indexed": false,
          "internalType": "uint256",
          "name": "amount1",
          "type": "uint256"
        },
        {
          "indexed": false,
          "internalType": "uint256",
          "name": "refundedAmount0",
          "type": "uint256"
        },
        {
          "indexed": false,
          "internalType": "uint256",
          "name": "refundedAmount1",
          "type": "uint256"
        },
        {
          "indexed": true,
          "internalType": "address",
          "name": "creator",
          "type": "address"
        }
      ],
      "name": "PoolCreated",
      "type": "event"
    },
    {
      "anonymous": false,
      "inputs": [
        {
          "indexed": true,
          "internalType": "address",
          "name": "streamAddress",
          "type": "address"
        },
        {
          "indexed": true,
          "internalType": "address",
          "name": "subscriber",
          "type": "address"
        },
        {
          "indexed": false,
          "internalType": "uint256",
          "name": "positionInBalance",
          "type": "uint256"
        },
        {
          "indexed": false,
          "internalType": "uint256",
          "name": "positionShares",
          "type": "uint256"
        },
        {
          "indexed": false,
          "internalType": "uint256",
          "name": "positionLastUpdateTime",
          "type": "uint256"
        },
        {
          "indexed": false,
          "internalType": "uint256",
          "name": "positionSpentIn",
          "type": "uint256"
        },
        {
          "indexed": false,
          "internalType": "uint256",
          "name": "positionPurchased",
          "type": "uint256"
        },
        {
          "indexed": false,
          "internalType": "uint256",
          "name": "positionIndex",
          "type": "uint256"
        }
      ],
      "name": "PositionSynced",
      "type": "event"
    },
    {
      "anonymous": false,
      "inputs": [
        {
          "indexed": true,
          "internalType": "address",
          "name": "streamAddress",
          "type": "address"
        },
        {
          "indexed": false,
          "internalType": "address",
          "name": "creator",
          "type": "address"
        },
        {
          "indexed": false,
          "internalType": "uint256",
          "name": "outSupply",
          "type": "uint256"
        },
        {
          "indexed": false,
          "internalType": "uint8",
          "name": "status",
          "type": "uint8"
        }
      ],
      "name": "StreamCancelled",
      "type": "event"
    },
    {
      "anonymous": false,
      "inputs": [
        {
          "indexed": true,
          "internalType": "address",
          "name": "streamAddress",
          "type": "address"
        },
        {
          "indexed": false,
          "internalType": "string",
          "name": "metadataIpfsHash",
          "type": "string"
        }
      ],
      "name": "StreamMetadataUpdated",
      "type": "event"
    },
    {
      "anonymous": false,
      "inputs": [
        {
          "indexed": true,
          "internalType": "address",
          "name": "streamAddress",
          "type": "address"
        },
        {
          "indexed": false,
          "internalType": "uint256",
          "name": "lastUpdated",
          "type": "uint256"
        },
        {
          "indexed": false,
          "internalType": "uint256",
          "name": "distIndex",
          "type": "uint256"
        },
        {
          "indexed": false,
          "internalType": "uint256",
          "name": "outRemaining",
          "type": "uint256"
        },
        {
          "indexed": false,
          "internalType": "uint256",
          "name": "inSupply",
          "type": "uint256"
        },
        {
          "indexed": false,
          "internalType": "uint256",
          "name": "spentIn",
          "type": "uint256"
        },
        {
          "indexed": false,
          "internalType": "uint256",
          "name": "currentStreamedPrice",
          "type": "uint256"
        }
      ],
      "name": "StreamStateUpdated",
      "type": "event"
    },
    {
      "anonymous": false,
      "inputs": [
        {
          "indexed": true,
          "internalType": "address",
          "name": "streamAddress",
          "type": "address"
        },
        {
          "indexed": false,
          "internalType": "uint256",
          "name": "lastUpdated",
          "type": "uint256"
        },
        {
          "indexed": false,
          "internalType": "uint8",
          "name": "newStatus",
          "type": "uint8"
        },
        {
          "indexed": false,
          "internalType": "uint256",
          "name": "distIndex",
          "type": "uint256"
        },
        {
          "indexed": false,
          "internalType": "uint256",
          "name": "outRemaining",
          "type": "uint256"
        },
        {
          "indexed": false,
          "internalType": "uint256",
          "name": "inSupply",
          "type": "uint256"
        },
        {
          "indexed": false,
          "internalType": "uint256",
          "name": "spentIn",
          "type": "uint256"
        },
        {
          "indexed": false,
          "internalType": "uint256",
          "name": "currentStreamedPrice",
          "type": "uint256"
        }
      ],
      "name": "StreamSynced",
      "type": "event"
    },
    {
      "anonymous": false,
      "inputs": [
        {
          "indexed": true,
          "internalType": "address",
          "name": "streamAddress",
          "type": "address"
        },
        {
          "indexed": true,
          "internalType": "address",
          "name": "subscriber",
          "type": "address"
        },
        {
          "indexed": false,
          "internalType": "uint256",
          "name": "positionInBalance",
          "type": "uint256"
        },
        {
          "indexed": false,
          "internalType": "uint256",
          "name": "positionShares",
          "type": "uint256"
        },
        {
          "indexed": false,
          "internalType": "uint256",
          "name": "positionLastUpdateTime",
          "type": "uint256"
        },
        {
          "indexed": false,
          "internalType": "uint256",
          "name": "positionSpentIn",
          "type": "uint256"
        },
        {
          "indexed": false,
          "internalType": "uint256",
          "name": "positionPurchased",
          "type": "uint256"
        },
        {
          "indexed": false,
          "internalType": "uint256",
          "name": "positionIndex",
          "type": "uint256"
        },
        {
          "indexed": false,
          "internalType": "uint256",
          "name": "streamInSupply",
          "type": "uint256"
        },
        {
          "indexed": false,
          "internalType": "uint256",
          "name": "streamShares",
          "type": "uint256"
        }
      ],
      "name": "Subscribed",
      "type": "event"
    },
    {
      "anonymous": false,
      "inputs": [
        {
          "indexed": true,
          "internalType": "address",
          "name": "implementation",
          "type": "address"
        }
      ],
      "name": "Upgraded",
      "type": "event"
    },
    {
      "anonymous": false,
      "inputs": [
        {
          "indexed": true,
          "internalType": "address",
          "name": "streamAddress",
          "type": "address"
        },
        {
          "indexed": true,
          "internalType": "address",
          "name": "subscriber",
          "type": "address"
        },
        {
          "indexed": false,
          "internalType": "uint256",
          "name": "positionInBalance",
          "type": "uint256"
        },
        {
          "indexed": false,
          "internalType": "uint256",
          "name": "positionShares",
          "type": "uint256"
        },
        {
          "indexed": false,
          "internalType": "uint256",
          "name": "positionLastUpdateTime",
          "type": "uint256"
        },
        {
          "indexed": false,
          "internalType": "uint256",
          "name": "positionSpentIn",
          "type": "uint256"
        },
        {
          "indexed": false,
          "internalType": "uint256",
          "name": "positionPurchased",
          "type": "uint256"
        },
        {
          "indexed": false,
          "internalType": "uint256",
          "name": "positionIndex",
          "type": "uint256"
        },
        {
          "indexed": false,
          "internalType": "uint256",
          "name": "streamInSupply",
          "type": "uint256"
        },
        {
          "indexed": false,
          "internalType": "uint256",
          "name": "streamShares",
          "type": "uint256"
        }
      ],
      "name": "Withdrawn",
      "type": "event"
    },
    {
      "inputs": [],
      "name": "PERMIT2",
      "outputs": [
        {
          "internalType": "address",
          "name": "",
          "type": "address"
        }
      ],
      "stateMutability": "view",
      "type": "function"
    },
    {
      "inputs": [],
      "name": "STREAM_FACTORY_ADDRESS",
      "outputs": [
        {
          "internalType": "address",
          "name": "",
          "type": "address"
        }
      ],
      "stateMutability": "view",
      "type": "function"
    },
    {
      "inputs": [],
      "name": "VARIANT",
      "outputs": [
        {
          "internalType": "string",
          "name": "",
          "type": "string"
        }
      ],
      "stateMutability": "view",
      "type": "function"
    },
    {
      "inputs": [],
      "name": "VERSION",
      "outputs": [
        {
          "internalType": "string",
          "name": "",
          "type": "string"
        }
      ],
      "stateMutability": "view",
      "type": "function"
    },
    {
      "inputs": [],
      "name": "cancelStream",
      "outputs": [],
      "stateMutability": "nonpayable",
      "type": "function"
    },
    {
      "inputs": [],
      "name": "cancelWithAdmin",
      "outputs": [],
      "stateMutability": "nonpayable",
      "type": "function"
    },
    {
      "inputs": [],
      "name": "creator",
      "outputs": [
        {
          "internalType": "address",
          "name": "",
          "type": "address"
        }
      ],
      "stateMutability": "view",
      "type": "function"
    },
    {
      "inputs": [],
      "name": "exitStream",
      "outputs": [],
      "stateMutability": "nonpayable",
      "type": "function"
    },
    {
      "inputs": [],
      "name": "finalizeStream",
      "outputs": [],
      "stateMutability": "nonpayable",
      "type": "function"
    },
    {
      "inputs": [
        {
          "internalType": "address",
          "name": "user",
          "type": "address"
        }
      ],
      "name": "getPosition",
      "outputs": [
        {
          "components": [
            {
              "internalType": "uint256",
              "name": "inBalance",
              "type": "uint256"
            },
            {
              "internalType": "uint256",
              "name": "shares",
              "type": "uint256"
            },
            {
              "components": [
                {
                  "internalType": "uint256",
                  "name": "value",
                  "type": "uint256"
                }
              ],
              "internalType": "struct Decimal",
              "name": "index",
              "type": "tuple"
            },
            {
              "internalType": "uint256",
              "name": "lastUpdateTime",
              "type": "uint256"
            },
            {
              "components": [
                {
                  "internalType": "uint256",
                  "name": "value",
                  "type": "uint256"
                }
              ],
              "internalType": "struct Decimal",
              "name": "pendingReward",
              "type": "tuple"
            },
            {
              "internalType": "uint256",
              "name": "spentIn",
              "type": "uint256"
            },
            {
              "internalType": "uint256",
              "name": "purchased",
              "type": "uint256"
            },
            {
              "internalType": "uint256",
              "name": "exitDate",
              "type": "uint256"
            }
          ],
          "internalType": "struct PositionTypes.Position",
          "name": "",
          "type": "tuple"
        }
      ],
      "stateMutability": "view",
      "type": "function"
    },
    {
      "inputs": [],
      "name": "getPostStreamActions",
      "outputs": [
        {
          "components": [
            {
              "components": [
                {
                  "internalType": "uint256",
                  "name": "poolOutSupplyAmount",
                  "type": "uint256"
                },
                {
                  "internalType": "enum StreamTypes.DexType",
                  "name": "dexType",
                  "type": "uint8"
                },
                {
                  "internalType": "bytes",
                  "name": "extra",
                  "type": "bytes"
                }
              ],
              "internalType": "struct StreamTypes.PoolInfo",
              "name": "poolInfo",
              "type": "tuple"
            },
            {
              "components": [
                {
                  "internalType": "bool",
                  "name": "isVestingEnabled",
                  "type": "bool"
                },
                {
                  "internalType": "uint64",
                  "name": "vestingDuration",
                  "type": "uint64"
                }
              ],
              "internalType": "struct StreamTypes.VestingInfo",
              "name": "creatorVesting",
              "type": "tuple"
            },
            {
              "components": [
                {
                  "internalType": "bool",
                  "name": "isVestingEnabled",
                  "type": "bool"
                },
                {
                  "internalType": "uint64",
                  "name": "vestingDuration",
                  "type": "uint64"
                }
              ],
              "internalType": "struct StreamTypes.VestingInfo",
              "name": "beneficiaryVesting",
              "type": "tuple"
            }
          ],
          "internalType": "struct StreamTypes.PostStreamActions",
          "name": "",
          "type": "tuple"
        }
      ],
      "stateMutability": "view",
      "type": "function"
    },
    {
      "inputs": [],
      "name": "getStreamMetadata",
      "outputs": [
        {
          "components": [
            {
              "internalType": "string",
              "name": "ipfsHash",
              "type": "string"
            }
          ],
          "internalType": "struct StreamTypes.StreamMetadata",
          "name": "",
          "type": "tuple"
        }
      ],
      "stateMutability": "view",
      "type": "function"
    },
    {
      "inputs": [],
      "name": "getStreamState",
      "outputs": [
        {
          "components": [
            {
              "internalType": "uint256",
              "name": "outRemaining",
              "type": "uint256"
            },
            {
              "components": [
                {
                  "internalType": "uint256",
                  "name": "value",
                  "type": "uint256"
                }
              ],
              "internalType": "struct Decimal",
              "name": "distIndex",
              "type": "tuple"
            },
            {
              "internalType": "uint256",
              "name": "spentIn",
              "type": "uint256"
            },
            {
              "internalType": "uint256",
              "name": "shares",
              "type": "uint256"
            },
            {
              "components": [
                {
                  "internalType": "uint256",
                  "name": "value",
                  "type": "uint256"
                }
              ],
              "internalType": "struct Decimal",
              "name": "currentStreamedPrice",
              "type": "tuple"
            },
            {
              "internalType": "uint256",
              "name": "threshold",
              "type": "uint256"
            },
            {
              "internalType": "uint256",
              "name": "inSupply",
              "type": "uint256"
            },
            {
              "internalType": "uint256",
              "name": "outSupply",
              "type": "uint256"
            },
            {
              "internalType": "uint256",
              "name": "lastUpdated",
              "type": "uint256"
            }
          ],
          "internalType": "struct StreamTypes.StreamState",
          "name": "",
          "type": "tuple"
        }
      ],
      "stateMutability": "view",
      "type": "function"
    },
    {
      "inputs": [],
      "name": "getStreamStatus",
      "outputs": [
        {
          "internalType": "enum StreamTypes.Status",
          "name": "",
          "type": "uint8"
        }
      ],
      "stateMutability": "view",
      "type": "function"
    },
    {
      "inputs": [
        {
          "components": [
            {
              "internalType": "address",
              "name": "creator",
              "type": "address"
            },
            {
              "internalType": "address",
              "name": "inSupplyToken",
              "type": "address"
            },
            {
              "internalType": "address",
              "name": "outSupplyToken",
              "type": "address"
            },
            {
              "internalType": "uint256",
              "name": "streamOutAmount",
              "type": "uint256"
            },
            {
              "internalType": "uint256",
              "name": "threshold",
              "type": "uint256"
            },
            {
              "internalType": "uint256",
              "name": "bootstrappingStartTime",
              "type": "uint256"
            },
            {
              "internalType": "uint256",
              "name": "streamStartTime",
              "type": "uint256"
            },
            {
              "internalType": "uint256",
              "name": "streamEndTime",
              "type": "uint256"
            },
            {
              "components": [
                {
                  "internalType": "string",
                  "name": "ipfsHash",
                  "type": "string"
                }
              ],
              "internalType": "struct StreamTypes.StreamMetadata",
              "name": "metadata",
              "type": "tuple"
            },
            {
              "components": [
                {
                  "internalType": "bool",
                  "name": "isVestingEnabled",
                  "type": "bool"
                },
                {
                  "internalType": "uint64",
                  "name": "vestingDuration",
                  "type": "uint64"
                }
              ],
              "internalType": "struct StreamTypes.VestingInfo",
              "name": "creatorVesting",
              "type": "tuple"
            },
            {
              "components": [
                {
                  "internalType": "bool",
                  "name": "isVestingEnabled",
                  "type": "bool"
                },
                {
                  "internalType": "uint64",
                  "name": "vestingDuration",
                  "type": "uint64"
                }
              ],
              "internalType": "struct StreamTypes.VestingInfo",
              "name": "beneficiaryVesting",
              "type": "tuple"
            },
            {
              "components": [
                {
                  "internalType": "uint256",
                  "name": "poolOutSupplyAmount",
                  "type": "uint256"
                },
                {
                  "internalType": "enum StreamTypes.DexType",
                  "name": "dexType",
                  "type": "uint8"
                },
                {
                  "internalType": "bytes",
                  "name": "extra",
                  "type": "bytes"
                }
              ],
              "internalType": "struct StreamTypes.PoolInfo",
              "name": "poolInfo",
              "type": "tuple"
            },
            {
              "internalType": "string",
              "name": "tosVersion",
              "type": "string"
            }
          ],
          "internalType": "struct StreamTypes.CreateStreamMessage",
          "name": "createStreamMessage",
          "type": "tuple"
        },
        {
          "internalType": "address",
          "name": "storageAddress",
          "type": "address"
        }
      ],
      "name": "initialize",
      "outputs": [],
      "stateMutability": "nonpayable",
      "type": "function"
    },
    {
      "inputs": [],
      "name": "positionStorageAddress",
      "outputs": [
        {
          "internalType": "address",
          "name": "",
          "type": "address"
        }
      ],
      "stateMutability": "view",
      "type": "function"
    },
    {
      "inputs": [],
      "name": "postStreamActions",
      "outputs": [
        {
          "components": [
            {
              "internalType": "uint256",
              "name": "poolOutSupplyAmount",
              "type": "uint256"
            },
            {
              "internalType": "enum StreamTypes.DexType",
              "name": "dexType",
              "type": "uint8"
            },
            {
              "internalType": "bytes",
              "name": "extra",
              "type": "bytes"
            }
          ],
          "internalType": "struct StreamTypes.PoolInfo",
          "name": "poolInfo",
          "type": "tuple"
        },
        {
          "components": [
            {
              "internalType": "bool",
              "name": "isVestingEnabled",
              "type": "bool"
            },
            {
              "internalType": "uint64",
              "name": "vestingDuration",
              "type": "uint64"
            }
          ],
          "internalType": "struct StreamTypes.VestingInfo",
          "name": "creatorVesting",
          "type": "tuple"
        },
        {
          "components": [
            {
              "internalType": "bool",
              "name": "isVestingEnabled",
              "type": "bool"
            },
            {
              "internalType": "uint64",
              "name": "vestingDuration",
              "type": "uint64"
            }
          ],
          "internalType": "struct StreamTypes.VestingInfo",
          "name": "beneficiaryVesting",
          "type": "tuple"
        }
      ],
      "stateMutability": "view",
      "type": "function"
    },
    {
      "inputs": [],
      "name": "proxiableUUID",
      "outputs": [
        {
          "internalType": "bytes32",
          "name": "",
          "type": "bytes32"
        }
      ],
      "stateMutability": "view",
      "type": "function"
    },
    {
      "inputs": [],
      "name": "streamMetadata",
      "outputs": [
        {
          "internalType": "string",
          "name": "ipfsHash",
          "type": "string"
        }
      ],
      "stateMutability": "view",
      "type": "function"
    },
    {
      "inputs": [],
      "name": "streamState",
      "outputs": [
        {
          "internalType": "uint256",
          "name": "outRemaining",
          "type": "uint256"
        },
        {
          "components": [
            {
              "internalType": "uint256",
              "name": "value",
              "type": "uint256"
            }
          ],
          "internalType": "struct Decimal",
          "name": "distIndex",
          "type": "tuple"
        },
        {
          "internalType": "uint256",
          "name": "spentIn",
          "type": "uint256"
        },
        {
          "internalType": "uint256",
          "name": "shares",
          "type": "uint256"
        },
        {
          "components": [
            {
              "internalType": "uint256",
              "name": "value",
              "type": "uint256"
            }
          ],
          "internalType": "struct Decimal",
          "name": "currentStreamedPrice",
          "type": "tuple"
        },
        {
          "internalType": "uint256",
          "name": "threshold",
          "type": "uint256"
        },
        {
          "internalType": "uint256",
          "name": "inSupply",
          "type": "uint256"
        },
        {
          "internalType": "uint256",
          "name": "outSupply",
          "type": "uint256"
        },
        {
          "internalType": "uint256",
          "name": "lastUpdated",
          "type": "uint256"
        }
      ],
      "stateMutability": "view",
      "type": "function"
    },
    {
      "inputs": [],
      "name": "streamStatus",
      "outputs": [
        {
          "internalType": "enum StreamTypes.Status",
          "name": "",
          "type": "uint8"
        }
      ],
      "stateMutability": "view",
      "type": "function"
    },
    {
      "inputs": [],
      "name": "streamTimes",
      "outputs": [
        {
          "internalType": "uint256",
          "name": "bootstrappingStartTime",
          "type": "uint256"
        },
        {
          "internalType": "uint256",
          "name": "streamStartTime",
          "type": "uint256"
        },
        {
          "internalType": "uint256",
          "name": "streamEndTime",
          "type": "uint256"
        }
      ],
      "stateMutability": "view",
      "type": "function"
    },
    {
      "inputs": [],
      "name": "streamTokens",
      "outputs": [
        {
          "internalType": "address",
          "name": "inSupplyToken",
          "type": "address"
        },
        {
          "internalType": "address",
          "name": "outSupplyToken",
          "type": "address"
        }
      ],
      "stateMutability": "view",
      "type": "function"
    },
    {
      "inputs": [
        {
          "internalType": "uint256",
          "name": "amountIn",
          "type": "uint256"
        }
      ],
      "name": "subscribe",
      "outputs": [],
      "stateMutability": "nonpayable",
      "type": "function"
    },
    {
      "inputs": [
        {
          "internalType": "uint256",
          "name": "amountIn",
          "type": "uint256"
        }
      ],
      "name": "subscribeWithNativeToken",
      "outputs": [],
      "stateMutability": "payable",
      "type": "function"
    },
    {
      "inputs": [
        {
          "internalType": "uint256",
          "name": "amountIn",
          "type": "uint256"
        },
        {
          "internalType": "address",
          "name": "owner",
          "type": "address"
        },
        {
          "components": [
            {
              "components": [
                {
                  "internalType": "address",
                  "name": "token",
                  "type": "address"
                },
                {
                  "internalType": "uint160",
                  "name": "amount",
                  "type": "uint160"
                },
                {
                  "internalType": "uint48",
                  "name": "expiration",
                  "type": "uint48"
                },
                {
                  "internalType": "uint48",
                  "name": "nonce",
                  "type": "uint48"
                }
              ],
              "internalType": "struct IPermit2.PermitDetails",
              "name": "details",
              "type": "tuple"
            },
            {
              "internalType": "address",
              "name": "spender",
              "type": "address"
            },
            {
              "internalType": "uint256",
              "name": "sigDeadline",
              "type": "uint256"
            }
          ],
          "internalType": "struct IPermit2.PermitSingle",
          "name": "permitSingle",
          "type": "tuple"
        },
        {
          "internalType": "bytes",
          "name": "signature",
          "type": "bytes"
        }
      ],
      "name": "subscribeWithPermit",
      "outputs": [],
      "stateMutability": "nonpayable",
      "type": "function"
    },
    {
      "inputs": [
        {
          "internalType": "address",
          "name": "user",
          "type": "address"
        }
      ],
      "name": "syncPositionExternal",
      "outputs": [],
      "stateMutability": "nonpayable",
      "type": "function"
    },
    {
      "inputs": [],
      "name": "syncStreamExternal",
      "outputs": [],
      "stateMutability": "nonpayable",
      "type": "function"
    },
    {
      "inputs": [
        {
          "internalType": "string",
          "name": "metadataIpfsHash",
          "type": "string"
        }
      ],
      "name": "updateStreamMetadata",
      "outputs": [],
      "stateMutability": "nonpayable",
      "type": "function"
    },
    {
      "inputs": [
        {
          "internalType": "address",
          "name": "newImplementation",
          "type": "address"
        }
      ],
      "name": "upgradeTo",
      "outputs": [],
      "stateMutability": "nonpayable",
      "type": "function"
    },
    {
      "inputs": [
        {
          "internalType": "address",
          "name": "newImplementation",
          "type": "address"
        },
        {
          "internalType": "bytes",
          "name": "data",
          "type": "bytes"
        }
      ],
      "name": "upgradeToAndCall",
      "outputs": [],
      "stateMutability": "payable",
      "type": "function"
    },
    {
      "inputs": [
        {
          "internalType": "uint256",
          "name": "cap",
          "type": "uint256"
        }
      ],
      "name": "withdraw",
      "outputs": [],
      "stateMutability": "nonpayable",
      "type": "function"
    }
  ],
  "transactionHash": "0x07af400dace357debeef9c7d0828b6ea7ec94aa093780be2ffee753c1bcd6770",
  "args": [],
  "numDeployments": 1,
  "solcInputHash": "c48e2880d4ab6a39a9b4e5ee74f1004f",
  "bytecode": "0x60a0806040523461003157306080526142d690816100378239608051818181611f0201528181611ff101526122ba0152f35b600080fdfe608080604052600436101561001357600080fd5b600090813560e01c90816302d05d3f14612c1f5750806303905474146114de5780630bcc8eba14612af35780630e5634df14612ac35780630f574ba714612a8b57806316c1973914612a5757806321194bd7146128eb578063264189531461289f5780632ae4e931146128265780632e1a7d4d1461266a578063315e17051461256957806334793e05146124a15780633659cfe6146122955780634f1ef28614611fb357806352d1902d14611eef5780635929814e14611eba57806360d388d814611e915780636afdd85014611e675780636b330b7914611d845780638a03764f14611d52578063a941a14f14611558578063aa5703ad14611504578063af5c3ac4146114de578063bdf4a9471461145b578063c0ae398c146113d9578063cbf0641514610f5e578063d08452c214610f2b578063d1477dd914610c69578063e427d08c14610c40578063e9a9e14414610b8f578063f69e8fba146101cd5763ffa1ad741461018157600080fd5b346101ca57806003193601126101ca576101c66040516101a081612cf8565b60058152640312e302e360dc1b6020820152604051918291602083526020830190612e3a565b0390f35b80fd5b50346101ca57806003193601126101ca5780546001600160a01b03163303610b7e57600154604051635e615a6b60e01b8152908290829060049082906001600160a01b03165afa908115610b73578291610b59575b50600f5461023c610231613651565b429060ff841661368f565b6007811015610b4557600303610b335761025c61025761347b565b613a65565b9060408201519260a083015184101583519260e085015191600014610aca5750506102ba936102e0916102cd620f42406102af604060018060a01b0360c0860151169401516102aa86613e09565b613f79565b5104968780946134f5565b95600560ff19600f541617600f55613dc0565b600c5430906001600160a01b0316613786565b603b548281610605575b505060ff603e5416806105fc575b156105b057600154604051635e615a6b60e01b8152908590829060049082906001600160a01b03165afa9081156105a5578591610583575b506101200151600c5460405163095ea7b360e01b81526001600160a01b03928316600482018190526024820186905293926020928391839160449183918c91165af1801561054b57610556575b508554603e54600c5460405163c4b2da5960e01b81526001600160a01b0393841660048201526001600160401b03428116602483015260089390931c83166044820152921660648301526084820186905290939091908190859060a49082908b905af193841561054b5787946104ca575b5060807f16d1e1ee4b51bbfbf5d46884cac3a98f673074103d40dfae8a99e5b51457b7d2947ffcca19372f3f67f6ac818c2c6916cc78908132a341935791115e4c5afe6d15469260018060a01b038a541694603e5460081c1660018060a01b03600c5416916040519360018060a01b031684528301526040820152866060820152a25b806104a6575b8454604080519485526020850195909552938301526001600160a01b0390921691309180606081015b0390a380f35b600d5485546104c59183916001600160a01b0390811691309116613786565b610477565b93508084813d8311610544575b6104e18183612d42565b810103126105405760807ffcca19372f3f67f6ac818c2c6916cc78908132a341935791115e4c5afe6d1546916105377f16d1e1ee4b51bbfbf5d46884cac3a98f673074103d40dfae8a99e5b51457b7d296613116565b955091506103ee565b8680fd5b503d6104d7565b6040513d89823e3d90fd5b61057590823d841161057c575b61056d8183612d42565b810190614062565b503861037d565b503d610563565b61059f91503d8087833e6105978183612d42565b810190613148565b38610330565b6040513d87823e3d90fd5b7f16d1e1ee4b51bbfbf5d46884cac3a98f673074103d40dfae8a99e5b51457b7d290821561047157600c5485546105f79185916001600160a01b0390811691309116613786565b610471565b508115156102f8565b61060e82613e09565b610619600a54613e09565b908760405161062781612cc1565b52519081620f4240810204620f42401482151715610ab657610654620f4240928361066c93519102613bea565b6040519061066182612cc1565b81526102aa84613e09565b5104908161067b575b506102ea565b600c54600d54603c548954600154604051635e615a6b60e01b815298995060ff90921697959694956001600160a01b03948516959185169493841693919290918c9183916004918391165afa908115610aab578b91610a91575b5061014001516001600160a01b0316938415610a7f5761070e9287916106fd83883084613786565b61070984883085613786565b614188565b604098919392985193600085603d549161072783612c6c565b8083529260018116908115610a605750600114610a11575b61074b92500386612d42565b8c60e060405161075a81612d26565b8281528260208201528260408201528260608201528260808201528260a08201528260c08201520152604051998a60e08101106001600160401b0360e08d0111176109fb576107d49460e08c0160405260018060a01b03168b5260018060a01b031660208b015260408a0152606089015260808801612fd6565b60a086015260c085015260405193848092632a1c658360e21b82526020600483015260018060a01b03835116602483015260018060a01b036020840151166044830152604083015160648301526060830151608483015261083d608084015160a4840190612f53565b61085760a084015160e060c4850152610104840190612e3a565b60c0909301516001600160a01b031660e4830152610100938493039082908b905af190811561054b578791610956575b50600c54600d5460c083015160e0840151602085015161093f98506001600160a01b03948516949081169316830361094f5781935b830361094857505b60018060a01b038451169260018060a01b0360408601511694606081015160808201519160a0600180821b039101511696604051958652602086015260408501526060840152608083015260a08201527f87bc8e3ae6b1afb3671d60583735fe23381ae9afc0ef7d9bfca9a67195148f5260c03092a46134f5565b90388080610675565b90506108c4565b80936108bc565b905083813d83116109f4575b61096c8183612d42565b810103126109f05761093f9260e06040519161098783612d26565b61099081613116565b835261099e60208201613116565b60208401526109af60408201613116565b604084015260608101516060840152608081015160808401526109d460a08201613116565b60a084015260c081015160c0840152015160e082015238610887565b8580fd5b503d610962565b634e487b7160e01b600052604160045260246000fd5b5090603d600052600080516020614281833981519152906000915b818310610a4457505090602061074b9282010161073f565b6020919350806001915483858c01015201910190918792610a2c565b6020925061074b94915060ff191682840152151560051b82010161073f565b604051631ba449e160e01b8152600490fd5b610aa591503d808d833e6105978183612d42565b386106d5565b6040513d8d823e3d90fd5b634e487b7160e01b88526011600452602488fd5b60ff1916600417600f55610b30945092610ae692509050613dc0565b60018060a01b03835416806040518381527f3f3e233ce59fa3e5f0b479b323538988fd213fa8f3007a95ff330489bf5d40a660203092a3600d5430906001600160a01b0316613786565b80f35b604051637a851da960e11b8152600490fd5b634e487b7160e01b84526021600452602484fd5b610b6d91503d8084833e6105978183612d42565b38610222565b6040513d84823e3d90fd5b6040516282b42960e81b8152600490fd5b50346101ca57806003193601126101ca5780546001600160a01b039081163303610b7e57600f54610bc1610231613651565b6007811015610b4557610b3357610b30916006600a549260ff191617600f5580845416906040517febb55ea32d517c9ec85f61357977ac73b84e65ebeaedb528ed791d7e25e30a2b309180610c328787836040906006929493606082019560018060a01b0316825260208201520152565b0390a23090600d5416613786565b50346101ca57806003193601126101ca576002546040516001600160a01b039091168152602090f35b50346101ca576101203660031901126101ca57610c84612e7a565b9060c03660431901126101ca576001600160401b03806101043511610f275736602361010435011215610f27576101043560040135116101ca573660246101043560040135610104350101116101ca57600c546001600160a01b0316918215610f1557604435926001600160a01b0384168403610f11576001600160a01b03841603610eff576064356001600160a01b0381168103610f11576001600160a01b03600435811690821610610eff5760c435906001600160a01b0382168203610ef757306001600160a01b03831603610eff574260e43510610eff576e22d473030f116ddee9f6b43ac78ba33b15610ef7576040516302b67b5760e41b81526001600160a01b039384166004820181905295841660248201529216604483015265ffffffffffff60843581811690819003610efb57606484015260a435908116809103610ef75760848301526001600160a01b031660a482015260e4803560c483015261010090820152600461010480359182013590830181905283918391610124916024018284013760046101043501358281018201849052601f01601f191682018290030181836e22d473030f116ddee9f6b43ac78ba35af18015610b7357610ee8575b50600c54909182916001600160a01b03166e22d473030f116ddee9f6b43ac78ba33b15610ee457604051631b63c28b60e11b815260048082019390935230602482015291356001600160a01b0316604483015260648201528181608481836e22d473030f116ddee9f6b43ac78ba35af18015610b7357610ed0575b50610b30600435613870565b610ed990612d13565b6101ca578038610ec4565b5050fd5b610ef190612d13565b38610e49565b8380fd5b8480fd5b60405163162908e360e11b8152600490fd5b8280fd5b604051632df9739b60e01b8152600490fd5b5080fd5b50346101ca57806003193601126101ca57600c54600d54604080516001600160a01b039384168152919092166020820152f35b50346101ca57806003193601126101ca57610f78336132d5565b60e0810151806113b35750610f8e61025761347b565b90610fab60209182840151606085015160c0860151914293613c0a565b610fc460ff600f54164290610fbe613651565b9061368f565b9281519160c0810180519560a08301908151944260e0860152610fe6826135da565b610fef81613dc0565b610ff98533613d66565b60a0604082015191015111906007811015918261135f5760058214918215611394575b836113805760048114938415611373575b841561133a575b5050506000146112aa5750505060400151516040519185835284830152604082015281606082015242608082015233907f1d86502e4a4586da05506402e9e717090c0ce0ac1a71ad60b9312ae8ab044abf60a03092a38061128a575b5060ff603f541680611281575b1561125d57600154604051635e615a6b60e01b81526001600160a01b039185908290600490829086165afa9081156105a5578291610120918791611243575b500151600d5460405163095ea7b360e01b8152929091166001600160a01b038116600484015260248301869052919391908290859060449082908a9088165af193841561121b578594611226575b50603f54600d5460405163c4b2da5960e01b81523360048201526001600160401b03428116602483015260089390931c831660448201529085166001600160a01b031660648201526084810196909652908290869081898160a4810103925af194851561121b5786956111e4575b50603f5460081c169082600d54169260405195168552840152604083015260608201527fed25121b81d41b78772364dd92b7a00beece46a264fb0d8046deacfb48119ad760803392a280f35b9094508181813d8311611214575b6111fc8183612d42565b810103126109f05761120d90613116565b9338611198565b503d6111f2565b6040513d88823e3d90fd5b61123c90833d851161057c5761056d8183612d42565b503861112a565b61125791503d8089833e6105978183612d42565b386110dc565b5080611267575080f35b600d54610b309190339030906001600160a01b0316613786565b5081151561109d565b600c546112a49190339030906001600160a01b0316613786565b38611090565b919550939550919091600014610b33576112c88691610b3096613644565b93528482528281526112da8133613d66565b5190517f387c4a97ea999c71f2b33e24b2c4406f4a5100fc4e8deceb0bb6f4c5e5bbbe1060405180611322339530954291846040919493926060820195825260208201520152565b0390a3600c54339030906001600160a01b0316613786565b909192935061135f576003149081611357575b5090388080611034565b90503861134d565b634e487b7160e01b8b52602160045260248bfd5b506006811493508b61102d565b634e487b7160e01b8c52602160045260248cfd5b8b935083925060038114806113ab575b925061101c565b5081156113a4565b60208201516113d5604051928392631175404360e11b845233600485016135f3565b0390fd5b50346101ca57806003193601126101ca576101206003546040516113fc81612cc1565b600454815260055460065460405161141381612cc1565b60075481526008549060095492600a5494600b54966040519889525160208901526040880152606087015251608086015260a085015260c084015260e0830152610100820152f35b50346101ca57806003193601126101ca576114a1611477612fe2565b61147f6130c0565b6101c661148a6130eb565b6114c160405195869560a0875260a0870190612f60565b9360208601906001600160401b0360208092805115158552015116910152565b805115156060850152602001516001600160401b03166080840152565b50346101ca57806003193601126101ca576101c660ff600f541660405191829182612c43565b50346101ca57806003193601126101ca57606060405161152381612cc1565b526101c660405161153381612cc1565b61153b612d63565b815260405191829160208352516020808401526040830190612e3a565b50346101ca5760403660031901126101ca576001600160401b03600435116101ca576101e0600435360360031901126101ca576040516101a081018181106001600160401b03821117611d3e576040526115b6600435600401612e90565b81526115c6602460043501612e90565b60208201526115d9604460043501612e90565b6040820152600435606481013560608301526084810135608083015260a481013560a083015260c481013560c083015260e481013560e083015261010401356001600160401b038111610f11576020600435820136036003190112610f11576040519061164582612cc1565b6001600160401b03600482813501013511610ef75761167290369060048035909101808201350101612f0c565b815261010082015261168a3661012460043501612f92565b6101208201526116a03661016460043501612f92565b6101408201526101a460043501356001600160401b038111610f11576060600435820136036003190112610f1157604051906116db82612ca6565b6004818135010135825260036024826004350101351015610ef7576004358101602481013560208401526001600160401b0360449091013511610ef7576117319036906004803590910160448101350101612f0c565b60408201526101608201526001600160401b036101c4600435013511610f275761176636600480356101c48101350101612f0c565b610180820152611774612e7a565b6002549060ff8260a01c16610b7e576001600160a01b03811615611d2c57600180546001600160a01b031990811633179091559182166001600160a01b039182161760025582518454909216911617825560405182906117d381612cc1565b526040516117e081612cc1565b828152606082015190836040516117f681612cc1565b5260405161180381612cc1565b84815260808401519160608501519360405161181e81612cdc565b8181528260208201528760408201528760608201528360808201528460a08201528760c08201528560e0820152610100429101526003555160045584600555846006555160075560085582600955600a5542600b5560018060a01b0360208201511660018060a01b036040830151169081602060405161189d81612cf8565b83815201526bffffffffffffffffffffffff60a01b600c541617600c556bffffffffffffffffffffffff60a01b600d541617600d55610100810151519182516001600160401b038111611d18576118fe816118f9600e54612c6c565b6133d6565b6020601f8211600114611ca657819083949561192f9492611ab7575b50508160011b916000199060031b1c19161790565b600e555b60ff1980600f5416600f5560a083015160c084015160e085015191826040805161195c81612ca6565b83815284602082015201526010556011556012556101208301518051611c8e575b506101408301518051611c64575b506101608301515180611ba8575b5061016083015161014061012085015194015191604080516119ba81612ca6565b83815260208101968752019283528151603b556020820151906003821015611b94579060ff60409392603c5416911617603c5501519283516001600160401b038111611b8057611a0b603d54612c6c565b601f8111611b39575b506020601f8211600114611ac2578160ff949392611a4b92879860209892611ab75750508160011b916000199060031b1c19161790565b603d555b518051151590603e549068ffffffffffffffff00958691015160081b169168ffffffffffffffffff199485911691161717603e55519060ff82511515936020603f5494015160081b16931691161717603f55600160a01b60ff60a01b19600254161760025580f35b01519050388061191a565b603d855260008051602061428183398151915295601f198316865b818110611b21575096600192849260ff9796956020999a10611b08575b505050811b01603d55611a4f565b015160001960f88460031b161c19169055388080611afa565b83830151895560019098019760209384019301611add565b611b7090603d8652600080516020614281833981519152601f840160051c81019160208510611b76575b601f0160051c01906133bf565b38611a14565b9091508190611b63565b634e487b7160e01b84526041600452602484fd5b634e487b7160e01b85526021600452602485fd5b606084015110611c5257611bc3602061016085015101613e3f565b6003811015611c1a57151580611c2e575b80611bf6575b611be45738611999565b604051632946cbf160e01b8152600490fd5b50611c08602061016085015101613e3f565b6003811015611c1a5760021415611bda565b634e487b7160e01b83526021600452602483fd5b50611c40602061016085015101613e3f565b6003811015611c1a5760011415611bd4565b60405163c9c0f41360e01b8152600490fd5b602001516001600160401b031615611c7c573861198b565b604051632b39f6cb60e01b8152600490fd5b602001516001600160401b031615611c7c573861197d565b600e835260008051602061424183398151915290835b601f1984168110611d005750600193949583601f19811610611ce7575b505050811b01600e55611933565b015160001960f88460031b161c19169055388080611cd9565b9091602060018192858a015181550193019101611cbc565b634e487b7160e01b82526041600452602482fd5b60405163d2d441ff60e01b8152600490fd5b634e487b7160e01b83526041600452602483fd5b50346101ca57806003193601126101ca5760105460115460125460408051938452602084019290925290820152606090f35b50346101ca5760203660031901126101ca57611d9e612e5f565b611da7816132d5565b611db182826139c5565b611dea611dda611dc261025761347b565b926020840151606085015160c0860151914293613c0a565b91611de58385613d66565b613dc0565b805160208083015160608085015160a08087015160c0808901516040998a0151518a51998a5297890196909652978701929092529185015260808401919091528201526001600160a01b039092169130917f776f4c645ad4c2525f2c0862f3c0e3841c03f4fc680c1ceb4ab41b9eadccc4d19190819081016104a0565b50346101ca57806003193601126101ca5760206040516e22d473030f116ddee9f6b43ac78ba38152f35b50346101ca57806003193601126101ca576001546040516001600160a01b039091168152602090f35b5060203660031901126101ca57600c54600435906001600160a01b0316610f155780611eea610b309230336136d7565b613870565b50346101ca57806003193601126101ca577f00000000000000000000000000000000000000000000000000000000000000006001600160a01b03163003611f485760206040516000805160206142618339815191528152f35b60405162461bcd60e51b815260206004820152603860248201527f555550535570677261646561626c653a206d757374206e6f742062652063616c60448201527f6c6564207468726f7567682064656c656761746563616c6c00000000000000006064820152608490fd5b5060403660031901126101ca57611fc8612e5f565b6024356001600160401b038111610f1157611fe7903690600401612f0c565b6001600160a01b037f0000000000000000000000000000000000000000000000000000000000000000811692919061202130851415613518565b61203e600080516020614261833981519152948286541614613579565b600485826001541660405192838092635e615a6b60e01b82525afa90811561121b57829160e091889161227b575b500151163303610b7e577f4910fdfa16fed3260ed0e7147f7cc6da11a60208b5b9406d12a635614ffd91435460ff16156120ac575050610b309150613fd2565b82919216604051936352d1902d60e01b85526020948581600481865afa879181612248575b506121325760405162461bcd60e51b815260048101879052602e60248201527f45524331393637557067726164653a206e657720696d706c656d656e7461746960448201526d6f6e206973206e6f74205555505360901b6064820152608490fd5b949394036121f15761214382613fd2565b7fbc7cd75a20ee27fd9adebab32041f755214dbc6bffa90cc0225b39da2e5c2d3b8580a2838351158015906121e9575b61217f575b5050505080f35b806121df946040519461219186612ca6565b602786527f416464726573733a206c6f772d6c6576656c2064656c65676174652063616c6c81870152660819985a5b195960ca1b604087015281519101845af46121d96136a7565b916141a7565b5038808083612178565b506001612173565b60405162461bcd60e51b815260048101849052602960248201527f45524331393637557067726164653a20756e737570706f727465642070726f786044820152681a58589b195555525160ba1b6064820152608490fd5b9091508681813d8311612274575b6122608183612d42565b81010312612270575190386120d1565b8780fd5b503d612256565b61228f91503d808a833e6105978183612d42565b3861206c565b50346101ca57602080600319360112610f27576122b0612e5f565b6001600160a01b037f000000000000000000000000000000000000000000000000000000000000000081166122e730821415613518565b612304600080516020614261833981519152918383541614613579565b600485836001541660405192838092635e615a6b60e01b82525afa90811561121b57839160e0918891612487575b500151163303610b7e576040519161234983612cc1565b8583527f4910fdfa16fed3260ed0e7147f7cc6da11a60208b5b9406d12a635614ffd91435460ff161561238357505050610b309150613fd2565b83929316906040516352d1902d60e01b81528581600481865afa879181612458575b506124065760405162461bcd60e51b815260048101879052602e60248201527f45524331393637557067726164653a206e657720696d706c656d656e7461746960448201526d6f6e206973206e6f74205555505360901b6064820152608490fd5b949394036121f15761241782613fd2565b7fbc7cd75a20ee27fd9adebab32041f755214dbc6bffa90cc0225b39da2e5c2d3b8580a2838351158015906124515761217f575050505080f35b5080612173565b9091508681813d8311612480575b6124708183612d42565b81010312612270575190386123a5565b503d612466565b61249b91503d808a833e6105978183612d42565b38612332565b50346101ca57806003193601126101ca576124ba61347b565b6124e66124ce6124c8613651565b92613a65565b916124d883613dc0565b60ff600f541690429161368f565b6124ef816135da565b610100820151916007821015610b4557602081015151815160c08301519160ff60806040860151950151519560405197885216602087015260408601526060850152608084015260a083015260c08201527f9a6ce334816e7b4b0cea88e41f3c652ec2e8064e2663e98f6d94d5ed90bc569060e03092a280f35b50346101ca57806003193601126101ca5760405160a09161258982612ca6565b604080519261259784612ca6565b8284526020938385820152606083820152815281516125b581612cf8565b8381528385820152848201528151926125cd84612cf8565b808452848401520152604051906125e382612ca6565b6125eb612fe2565b82526101c66125f86130c0565b9180840192835261264c61262d61260d6130eb565b9260408701938452604051978897828952519188015260c0870190612f60565b9351805115156040870152602001516001600160401b03166060860152565b51805115156080850152602001516001600160401b031660a0840152565b50346101ca5760203660031901126101ca5760043590612689336132d5565b9161269433846139c5565b61269f6124d8613651565b906007821015611c1a5760028214158061281b575b610b33576126c361025761347b565b9160208301516126e3606085019182519760c087019842928a5192613c0a565b928061281557508251935b835185116127fc57957fca17ddd98e8725ab2aa1c70d19c5d777d10bd61a64e2525cf7ead7fe7f1ec2079161277f8798610b309850865188146000146127e5576127756020880151965b61276e60208a019861274b818b516134f5565b8a526127588c8c516134f5565b8b526127658c89516134f5565b885286516134f5565b85526135da565b611de58733613d66565b611322855194519560608101519260a082015194604060c0840151930151519051915192604051968796339b309b8994919260e0969399989794919961010087019a8752602087015260408601526060850152608084015260a083015260c08201520152565b6127756127f685518551908b613cf8565b96612738565b6040516318928cbf60e31b815260048101869052602490fd5b936126ee565b5060018214156126b4565b50346101ca57806003193601126101ca5761012061284261347b565b604051908051825260208101515160208301526040810151604083015260608101516060830152608081015151608083015260a081015160a083015260c081015160c083015260e081015160e08301526101008091015190820152f35b50346101ca57806003193601126101ca576101c66040516128bf81612cf8565b600b81526a506f7374416374696f6e7360a81b6020820152604051918291602083526020830190612e3a565b50346101ca57602080600319360112610f27576001600160401b03600435818111610ef75761291e903690600401612f0c565b83549091906001600160a01b03163303610b7e578151908111611b805761294a816118f9600e54612c6c565b82601f82116001146129c4579161299c826129b3937ffa52982561798522f5e44b012104c1a4b09148533ab665caa1c1f28539f9a0539588916129b9575b508160011b916000199060031b1c19161790565b600e555b6040519182918583523095830190612e3a565b0390a280f35b905083015138612988565b600e855260008051602061424183398151915290601f198316865b86828210612a41575050927ffa52982561798522f5e44b012104c1a4b09148533ab665caa1c1f28539f9a0539492600192826129b39610612a28575b5050811b01600e556129a0565b84015160001960f88460031b161c191690553880612a1b565b60018495829395890151815501940192016129df565b50346101ca5760203660031901126101ca57610100612a7c612a77612e5f565b6132d5565b612a896040518092612ea4565bf35b50346101ca5760203660031901126101ca57600c546001600160a01b03166004358115610f1557611eea81610b309330903390613786565b50346101ca57806003193601126101ca576101c6612adf612d63565b604051918291602083526020830190612e3a565b50346101ca57806003193601126101ca57600154604051635e615a6b60e01b81526001600160a01b039183908290600490829086165afa908115612c1457829160e0918591612bfa575b500151163303610b7e57600f54612b55610231613651565b60078110159081611b94578015159182612bec575b82612bda575b5050610b3357610b30916006600a549260ff191617600f5580845416906040517febb55ea32d517c9ec85f61357977ac73b84e65ebeaedb528ed791d7e25e30a2b309180610c328787836040906006929493606082019560018060a01b0316825260208201520152565b909150610b4557600214153880612b70565b506001811415915084612b6a565b612c0e91503d8087833e6105978183612d42565b38612b3d565b6040513d85823e3d90fd5b905034610f275781600319360112610f275790546001600160a01b03168152602090f35b919060208301926007821015612c565752565b634e487b7160e01b600052602160045260246000fd5b90600182811c92168015612c9c575b6020831014612c8657565b634e487b7160e01b600052602260045260246000fd5b91607f1691612c7b565b606081019081106001600160401b038211176109fb57604052565b602081019081106001600160401b038211176109fb57604052565b61012081019081106001600160401b038211176109fb57604052565b604081019081106001600160401b038211176109fb57604052565b6001600160401b0381116109fb57604052565b61010081019081106001600160401b038211176109fb57604052565b90601f801991011681019081106001600160401b038211176109fb57604052565b60405190600082600e5491612d7783612c6c565b80835292602090600190818116908115612df35750600114612da4575b5050612da292500383612d42565b565b915092600e600052600080516020614241833981519152936000925b828410612ddb5750612da29450505081016020013880612d94565b85548885018301529485019487945092810192612dc0565b91505060209250612da294915060ff191682840152151560051b8201013880612d94565b60005b838110612e2a5750506000910152565b8181015183820152602001612e1a565b90602091612e5381518092818552858086019101612e17565b601f01601f1916010190565b600435906001600160a01b0382168203612e7557565b600080fd5b602435906001600160a01b0382168203612e7557565b35906001600160a01b0382168203612e7557565b60e080918051845260208101516020850152604081015151604085015260608101516060850152608081015151608085015260a081015160a085015260c081015160c08501520151910152565b6001600160401b0381116109fb57601f01601f191660200190565b81601f82011215612e7557803590612f2382612ef1565b92612f316040519485612d42565b82845260208383010111612e7557816000926020809301838601378301015290565b906003821015612c565752565b9060606040612f8f9380518452612f7f60208201516020860190612f53565b0151918160408201520190612e3a565b90565b9190826040910312612e7557604051612faa81612cf8565b80928035908115158203612e755760209183520135906001600160401b0382168203612e755760200152565b6003821015612c565752565b60405190612fef82612ca6565b81603b54815260ff603c54169061300a602092838301612fd6565b6040518092600090603d5461301e81612c6c565b808552906001908181169081156130a1575060011461304e575b5050506040929161304a910384612d42565b0152565b9094939250603d600052600080516020614281833981519152946000915b8183106130895750939450919250908201018161304a6040613038565b8654888401850152958601958794509183019161306c565b60ff1916848701525050151560051b83010190508161304a6040613038565b604051906130cd82612cf8565b603e5460ff81161515835260081c6001600160401b03166020830152565b604051906130f882612cf8565b603f5460ff81161515835260081c6001600160401b03166020830152565b51906001600160a01b0382168203612e7557565b9190826020910312612e755760405161314281612cc1565b91518252565b6020918282820312612e755781516001600160401b0392838211612e75570191610180938484840312612e7557604051948501858110838211176109fb5760405283518552613198818501613116565b818601526131a9836040860161312a565b6040860152606084015160608601526080840151608086015260a084015160a08601526131d860c08501613116565b60c08601526131e960e08501613116565b60e08601526101009182850151908111612e7557840183601f82011215612e755780519061321682612ef1565b946132246040519687612d42565b828652838383010111612e75578261323f9386019101612e17565b830152610120613250818301613116565b90830152610140613262818301613116565b90830152613274610160809201613116565b9082015290565b6040519061328882612d26565b8160e06000918281528260208201526040516132a381612cc1565b83815260408201528260608201526040516132bd81612cc1565b83815260808201528260a08201528260c08201520152565b6132dd61327b565b506002546040516316c1973960e01b81526001600160a01b0392831660048201529161010091829184916024918391165afa9182156133b35760009261332257505090565b908092503d83116133ac575b6133388183612d42565b81019181830312612e755760e0906133896040519361335685612d26565b8251855260208301516020860152613371816040850161312a565b6040860152606083015160608601526080830161312a565b608084015260a081015160a084015260c081015160c0840152015160e082015290565b503d61332e565b6040513d6000823e3d90fd5b8181106133ca575050565b600081556001016133bf565b90601f82116133e3575050565b612da291600e600052600080516020614241833981519152906020601f840160051c83019310611b7657601f0160051c01906133bf565b6040519061342782612cdc565b8161010060009182815260405161343d81612cc1565b838152602082015282604082015282606082015260405161345d81612cc1565b83815260808201528260a08201528260c08201528260e08201520152565b61348361341a565b5060405161349081612cdc565b60035481526040516134a181612cc1565b60045481526020820152600554604082015260065460608201526040516134c781612cc1565b6007548152608082015260085460a082015260095460c0820152600a5460e0820152600b5461010082015290565b9190820391821161350257565b634e487b7160e01b600052601160045260246000fd5b1561351f57565b60405162461bcd60e51b815260206004820152602c60248201527f46756e6374696f6e206d7573742062652063616c6c6564207468726f7567682060448201526b19195b1959d85d1958d85b1b60a21b6064820152608490fd5b1561358057565b60405162461bcd60e51b815260206004820152602c60248201527f46756e6374696f6e206d7573742062652063616c6c6564207468726f7567682060448201526b6163746976652070726f787960a01b6064820152608490fd5b6007811015612c565760ff8019600f5416911617600f55565b9160c0939160018060a01b031683526020830152604082015260806060820152601b60808201527f506f736974696f6e2068617320616c726561647920657869746564000000000060a08201520190565b9190820180921161350257565b60006040805161366081612ca6565b828152826020820152015260405161367781612ca6565b60105481526011546020820152601254604082015290565b90612f8f928151906040602084015193015193613e4c565b3d156136d2573d906136b882612ef1565b916136c66040519384612d42565b82523d6000602084013e565b606090565b908215613781576001600160a01b0391821633810361374e575082340361372f571630811461372b57600080809381935af16137116136a7565b501561371957565b604051630c08bcb960e21b8152600490fd5b5050565b604051635693fffb60e01b815260048101849052346024820152604490fd5b30810361376957506000809381938293165af16137116136a7565b6024906040519063463de9db60e01b82526004820152fd5b505050565b92919092821561386a576001600160a01b0390811693841561383a578116903082036137ef57505060405163a9059cbb60e01b60208201526001600160a01b03919091166024820152604480820192909252908152612da2916137ea606483612d42565b61407a565b909291604051936323b872dd60e01b6020860152602485015216604483015260648201526064815260a08101918183106001600160401b038411176109fb57612da29260405261407a565b819394501633811460001461374e575082340361372f571630811461372b57600080809381935af16137116136a7565b50505050565b8015610eff5761388e60ff600f5416613887613651565b429161368f565b6007811015612c56576001811415806139ba575b610b33577fac20383bc611fb24ecfa942ed37ae8648074130276759a168535c23c5cf026c36138d261025761347b565b6138db336132d5565b90613951602082015191613947613902606083019485519660c08501974292895192613c0a565b9661393a61391487518751908c613d3e565b99613920818b51613644565b8a5260208a016139318c8251613644565b90528751613644565b865261276e898651613644565b611de58633613d66565b6139b584519460608101519260a082015194604060c0840151930151519051915192604051968796339b309b8994919260e0969399989794919961010087019a8752602087015260408601526060850152608084015260a083015260c08201520152565b0390a3565b5060028114156138a2565b90602082019182518015613a02575060e0015191826139e357505050565b51604051631175404360e11b81529283926113d59290600485016135f3565b60e09190910151604051631175404360e11b81526001600160a01b03909316600484015260248301919091526044820152608060648201526016608482015275506f736974696f6e20686173206e6f2073686172657360501b60a482015260c490fd5b613a6d61341a565b50613a76613651565b613a93604060208301519201519161010084019283519142613ec5565b805115613bd057613aa261341a565b5060608301908151151580613bc6575b613b32575b50504290526020810151517ff7f050a5e163dbe15fb695b5b2e83ef129fc3565263dc8fc74049d3739e62fde825160c084015190613b2c604086015160808701515190604051948594309842879260a094919796959260c0850198855260208501526040840152606083015260808201520152565b0390a290565b620f42409081613b46826102aa8851613e09565b510491613b5b60c08701926102aa8451613e09565b51049060408601613b6d838251613644565b9052613b7a8282516134f5565b905281613b88575b50613ab7565b613ba3613bb993613b9a8488516134f5565b8752518361415a565b613bb260208701918251613fa8565b905261415a565b6080830152388080613b82565b5080511515613ab2565b5042905290565b8181029291811591840414171561350257565b8115613bf4570490565b634e487b7160e01b600052601260045260246000fd5b9392919091613c1761327b565b506040850191613c3b83516000604051613c3081612cc1565b5285519051906134f5565b60405190613c4882612cc1565b815260208701928351938885613c68575b50505050505052606082015290565b613c7b613cca946102aa613ccf98613e09565b613c8b6080830191825190613fa8565b6000604051613c9981612cc1565b5251613cc0620f424060c060405195613cb187612cc1565b82850687520192048251613644565b9052525190613bd7565b613bea565b613cda8186516134f5565b613ce960a08701918251613644565b90528452388080808088613c59565b909180158015613d36575b613d3057613d15613d1a928492613bd7565b613644565b60001981019190821161350257612f8f91613bea565b50905090565b508115613d03565b9180158015613d5e575b613d5957612f8f92613cca91613bd7565b505090565b508215613d48565b6002546001600160a01b03908116803b15612e75576000928361012492613da860405197889687956360d6081360e11b87521660048601526024850190612ea4565b5af180156133b357613db75750565b612da290612d13565b80516003556020810151516004556040810151600555606081015160065560808101515160075560a081015160085560c081015160095560e0810151600a556101000151600b55565b6000604051613e1781612cc1565b52620f4240908181029181830414901517156135025760405190613e3a82612cc1565b815290565b516003811015612c565790565b92919092600781101580612c565760068214908115613eb8575b8115613ea8575b50613ea05750821015613e8257505050600090565b811015613e90575050600190565b1015613e9b57600290565b600390565b935050505090565b9050612c56576005811438613e6d565b5050600481146000613e66565b929091926000604051613ed781612cc1565b528281108015613f6f575b613f5d5782613f0b938310613f55575b5081848211613f4d575b613f05916134f5565b926134f5565b80158015613f45575b613f2157612f8f9161415a565b50506000604051613f3181612cc1565b52604051613f3e81612cc1565b6000815290565b508115613f14565b849150613efc565b915038613ef2565b505050506000604051613f3181612cc1565b5083821015613ee2565b620f424091613f9a916000604051613f9081612cc1565b5251905190613bd7565b0460405190613e3a82612cc1565b90613fc5916000604051613fbb81612cc1565b5251905190613644565b60405190613e3a82612cc1565b803b156140075760008051602061426183398151915280546001600160a01b0319166001600160a01b03909216919091179055565b60405162461bcd60e51b815260206004820152602d60248201527f455243313936373a206e657720696d706c656d656e746174696f6e206973206e60448201526c1bdd08184818dbdb9d1c9858dd609a1b6064820152608490fd5b90816020910312612e7557518015158103612e755790565b6040516140d2916001600160a01b031661409382612cf8565b6000806020958685527f5361666545524332303a206c6f772d6c6576656c2063616c6c206661696c656487860152868151910182855af16121d96136a7565b805190828215928315614142575b505050156140eb5750565b6084906040519062461bcd60e51b82526004820152602a60248201527f5361666545524332303a204552433230206f7065726174696f6e20646964206e6044820152691bdd081cdd58d8d9595960b21b6064820152fd5b6141529350820181019101614062565b3882816140e0565b90600060405161416981612cc1565b52620f42409182810292818404149015171561350257613fc591613bea565b93906001600160a01b03808216908616106141a35793929190565b9290565b9192901561420957508151156141bb575090565b3b156141c45790565b60405162461bcd60e51b815260206004820152601d60248201527f416464726573733a2063616c6c20746f206e6f6e2d636f6e74726163740000006044820152606490fd5b82519091501561421c5750805190602001fd5b60405162461bcd60e51b8152602060048201529081906113d5906024830190612e3a56febb7b4a454dc3493923482f07822329ed19e8244eff582cc204f8554c3620c3fd360894a13ba1a3210667c828492db98dca3e2076cc3735a920a3ca505d382bbcece66cfdbd22e3f37d348a3d8e19074452862cd65fd4b9a11f0336d1ac6d1dc3a264697066735822122019b4511f7000cabcb9f8e176e033daffa5ce2b5c2d9cb1959b2ca0de3f6cfa7f64736f6c63430008180033",
  "devdoc": {
    "events": {
      "AdminChanged(address,address)": {
        "details": "Emitted when the admin account has changed."
      },
      "BeaconUpgraded(address)": {
        "details": "Emitted when the beacon is changed."
      },
      "Upgraded(address)": {
        "details": "Emitted when the implementation is upgraded."
      }
    },
    "kind": "dev",
    "methods": {
      "cancelStream()": {
        "details": "Allows the creator to cancel the stream during the Waiting phase"
      },
      "cancelWithAdmin()": {
        "details": "Allows the protocol admin to cancel the stream"
      },
      "exitStream()": {
        "details": "Allows users to exit the stream and receive their tokens based on stream outcome"
      },
      "finalizeStream()": {
        "details": "Allows the creator to finalize the stream after it has ended"
      },
      "initialize((address,address,address,uint256,uint256,uint256,uint256,uint256,(string),(bool,uint64),(bool,uint64),(uint256,uint8,bytes),string),address)": {
        "details": "Initializes the stream with the provided configuration",
        "params": {
          "createStreamMessage": "Stream creation parameters",
          "storageAddress": "Address of the position storage contract"
        }
      },
      "proxiableUUID()": {
        "details": "Implementation of the ERC1822 {proxiableUUID} function. This returns the storage slot used by the implementation. It is used to validate the implementation's compatibility when performing an upgrade. IMPORTANT: A proxy pointing at a proxiable contract should not be considered proxiable itself, because this risks bricking a proxy that upgrades to it, by delegating to itself until out of gas. Thus it is critical that this function revert if invoked through a proxy. This is guaranteed by the `notDelegated` modifier."
      },
      "subscribe(uint256)": {
        "details": "Allows users to subscribe to the stream by providing input tokens",
        "params": {
          "amountIn": "Amount of input tokens to subscribe with"
        }
      },
      "subscribeWithNativeToken(uint256)": {
        "details": "Allows users to subscribe with native tokens",
        "params": {
          "amountIn": "Amount of native tokens to subscribe with"
        }
      },
      "subscribeWithPermit(uint256,address,((address,uint160,uint48,uint48),address,uint256),bytes)": {
        "details": "Allows users to subscribe using Uniswap Permit2 for ERC20 approvals",
        "params": {
          "amountIn": "Amount of input tokens to subscribe with",
          "owner": "Owner of tokens and signer",
          "permitSingle": "Permit2 Single permit data",
          "signature": "EIP-712 signature"
        }
      },
      "syncPositionExternal(address)": {
        "details": "External function to sync a specific user's position",
        "params": {
          "user": "Address of the user whose position should be synced"
        }
      },
      "syncStreamExternal()": {
        "details": "External function to sync the stream state and status"
      },
      "updateStreamMetadata(string)": {
        "details": "Allows the creator to update the stream metadata"
      },
      "upgradeTo(address)": {
        "custom:oz-upgrades-unsafe-allow-reachable": "delegatecall",
        "details": "Upgrade the implementation of the proxy to `newImplementation`. Calls {_authorizeUpgrade}. Emits an {Upgraded} event."
      },
      "upgradeToAndCall(address,bytes)": {
        "custom:oz-upgrades-unsafe-allow-reachable": "delegatecall",
        "details": "Upgrade the implementation of the proxy to `newImplementation`, and subsequently execute the function call encoded in `data`. Calls {_authorizeUpgrade}. Emits an {Upgraded} event."
      },
      "withdraw(uint256)": {
        "details": "Allows users to withdraw their input tokens from the stream",
        "params": {
          "cap": "Amount of input tokens to withdraw"
        }
      }
    },
    "version": 1
  },
  "userdoc": {
    "kind": "user",
    "methods": {
      "PERMIT2()": {
        "notice": "Address of the Permit2 contract"
      },
      "STREAM_FACTORY_ADDRESS()": {
        "notice": "Address of the stream factory that deployed this stream"
      },
      "creator()": {
        "notice": "Address of the stream creator"
      },
      "initialize((address,address,address,uint256,uint256,uint256,uint256,uint256,(string),(bool,uint64),(bool,uint64),(uint256,uint8,bytes),string),address)": {
        "notice": "This function can only be called once and must be invoked by the factory"
      },
      "positionStorageAddress()": {
        "notice": "Address of the position storage contract"
      },
      "postStreamActions()": {
        "notice": "Post-stream actions like vesting and pool creation (variant-specific)"
      },
      "streamMetadata()": {
        "notice": "Metadata associated with the stream"
      },
      "streamState()": {
        "notice": "Current state of the stream (distribution index, remaining tokens, etc.)"
      },
      "streamStatus()": {
        "notice": "Current status of the stream (Waiting, Bootstrapping, Active, etc.)"
      },
      "streamTimes()": {
        "notice": "Timing information for the stream phases"
      },
      "streamTokens()": {
        "notice": "Token addresses for input and output tokens"
      }
    },
    "version": 1
  },
  "storageLayout": {
    "storage": [
      {
        "astId": 10880,
        "contract": "src/StreamPostActions.sol:StreamPostActions",
        "label": "creator",
        "offset": 0,
        "slot": "0",
        "type": "t_address"
      },
      {
        "astId": 10883,
        "contract": "src/StreamPostActions.sol:StreamPostActions",
        "label": "STREAM_FACTORY_ADDRESS",
        "offset": 0,
        "slot": "1",
        "type": "t_address"
      },
      {
        "astId": 10886,
        "contract": "src/StreamPostActions.sol:StreamPostActions",
        "label": "positionStorageAddress",
        "offset": 0,
        "slot": "2",
        "type": "t_address"
      },
      {
        "astId": 10889,
        "contract": "src/StreamPostActions.sol:StreamPostActions",
        "label": "initialized",
        "offset": 20,
        "slot": "2",
        "type": "t_bool"
      },
      {
        "astId": 10893,
        "contract": "src/StreamPostActions.sol:StreamPostActions",
        "label": "streamState",
        "offset": 0,
        "slot": "3",
        "type": "t_struct(StreamState)17748_storage"
      },
      {
        "astId": 10897,
        "contract": "src/StreamPostActions.sol:StreamPostActions",
        "label": "streamTokens",
        "offset": 0,
        "slot": "12",
        "type": "t_struct(StreamTokens)17753_storage"
      },
      {
        "astId": 10901,
        "contract": "src/StreamPostActions.sol:StreamPostActions",
        "label": "streamMetadata",
        "offset": 0,
        "slot": "14",
        "type": "t_struct(StreamMetadata)17727_storage"
      },
      {
        "astId": 10905,
        "contract": "src/StreamPostActions.sol:StreamPostActions",
        "label": "streamStatus",
        "offset": 0,
        "slot": "15",
        "type": "t_enum(Status)17682"
      },
      {
        "astId": 10909,
        "contract": "src/StreamPostActions.sol:StreamPostActions",
        "label": "streamTimes",
        "offset": 0,
        "slot": "16",
        "type": "t_struct(StreamTimes)17724_storage"
      },
      {
        "astId": 10918,
        "contract": "src/StreamPostActions.sol:StreamPostActions",
        "label": "__gap",
        "offset": 0,
        "slot": "19",
        "type": "t_array(t_uint256)40_storage"
      },
      {
        "astId": 14512,
        "contract": "src/StreamPostActions.sol:StreamPostActions",
        "label": "postStreamActions",
        "offset": 0,
        "slot": "59",
        "type": "t_struct(PostStreamActions)17776_storage"
      }
    ],
    "types": {
      "t_address": {
        "encoding": "inplace",
        "label": "address",
        "numberOfBytes": "20"
      },
      "t_array(t_uint256)40_storage": {
        "base": "t_uint256",
        "encoding": "inplace",
        "label": "uint256[40]",
        "numberOfBytes": "1280"
      },
      "t_bool": {
        "encoding": "inplace",
        "label": "bool",
        "numberOfBytes": "1"
      },
      "t_bytes_storage": {
        "encoding": "bytes",
        "label": "bytes",
        "numberOfBytes": "32"
      },
      "t_enum(DexType)17686": {
        "encoding": "inplace",
        "label": "enum StreamTypes.DexType",
        "numberOfBytes": "1"
      },
      "t_enum(Status)17682": {
        "encoding": "inplace",
        "label": "enum StreamTypes.Status",
        "numberOfBytes": "1"
      },
      "t_string_storage": {
        "encoding": "bytes",
        "label": "string",
        "numberOfBytes": "32"
      },
      "t_struct(Decimal)16353_storage": {
        "encoding": "inplace",
        "label": "struct Decimal",
        "members": [
          {
            "astId": 16352,
            "contract": "src/StreamPostActions.sol:StreamPostActions",
            "label": "value",
            "offset": 0,
            "slot": "0",
            "type": "t_uint256"
          }
        ],
        "numberOfBytes": "32"
      },
      "t_struct(PoolInfo)17766_storage": {
        "encoding": "inplace",
        "label": "struct StreamTypes.PoolInfo",
        "members": [
          {
            "astId": 17760,
            "contract": "src/StreamPostActions.sol:StreamPostActions",
            "label": "poolOutSupplyAmount",
            "offset": 0,
            "slot": "0",
            "type": "t_uint256"
          },
          {
            "astId": 17763,
            "contract": "src/StreamPostActions.sol:StreamPostActions",
            "label": "dexType",
            "offset": 0,
            "slot": "1",
            "type": "t_enum(DexType)17686"
          },
          {
            "astId": 17765,
            "contract": "src/StreamPostActions.sol:StreamPostActions",
            "label": "extra",
            "offset": 0,
            "slot": "2",
            "type": "t_bytes_storage"
          }
        ],
        "numberOfBytes": "96"
      },
      "t_struct(PostStreamActions)17776_storage": {
        "encoding": "inplace",
        "label": "struct StreamTypes.PostStreamActions",
        "members": [
          {
            "astId": 17769,
            "contract": "src/StreamPostActions.sol:StreamPostActions",
            "label": "poolInfo",
            "offset": 0,
            "slot": "0",
            "type": "t_struct(PoolInfo)17766_storage"
          },
          {
            "astId": 17772,
            "contract": "src/StreamPostActions.sol:StreamPostActions",
            "label": "creatorVesting",
            "offset": 0,
            "slot": "3",
            "type": "t_struct(VestingInfo)17758_storage"
          },
          {
            "astId": 17775,
            "contract": "src/StreamPostActions.sol:StreamPostActions",
            "label": "beneficiaryVesting",
            "offset": 0,
            "slot": "4",
            "type": "t_struct(VestingInfo)17758_storage"
          }
        ],
        "numberOfBytes": "160"
      },
      "t_struct(StreamMetadata)17727_storage": {
        "encoding": "inplace",
        "label": "struct StreamTypes.StreamMetadata",
        "members": [
          {
            "astId": 17726,
            "contract": "src/StreamPostActions.sol:StreamPostActions",
            "label": "ipfsHash",
            "offset": 0,
            "slot": "0",
            "type": "t_string_storage"
          }
        ],
        "numberOfBytes": "32"
      },
      "t_struct(StreamState)17748_storage": {
        "encoding": "inplace",
        "label": "struct StreamTypes.StreamState",
        "members": [
          {
            "astId": 17729,
            "contract": "src/StreamPostActions.sol:StreamPostActions",
            "label": "outRemaining",
            "offset": 0,
            "slot": "0",
            "type": "t_uint256"
          },
          {
            "astId": 17732,
            "contract": "src/StreamPostActions.sol:StreamPostActions",
            "label": "distIndex",
            "offset": 0,
            "slot": "1",
            "type": "t_struct(Decimal)16353_storage"
          },
          {
            "astId": 17734,
            "contract": "src/StreamPostActions.sol:StreamPostActions",
            "label": "spentIn",
            "offset": 0,
            "slot": "2",
            "type": "t_uint256"
          },
          {
            "astId": 17736,
            "contract": "src/StreamPostActions.sol:StreamPostActions",
            "label": "shares",
            "offset": 0,
            "slot": "3",
            "type": "t_uint256"
          },
          {
            "astId": 17739,
            "contract": "src/StreamPostActions.sol:StreamPostActions",
            "label": "currentStreamedPrice",
            "offset": 0,
            "slot": "4",
            "type": "t_struct(Decimal)16353_storage"
          },
          {
            "astId": 17741,
            "contract": "src/StreamPostActions.sol:StreamPostActions",
            "label": "threshold",
            "offset": 0,
            "slot": "5",
            "type": "t_uint256"
          },
          {
            "astId": 17743,
            "contract": "src/StreamPostActions.sol:StreamPostActions",
            "label": "inSupply",
            "offset": 0,
            "slot": "6",
            "type": "t_uint256"
          },
          {
            "astId": 17745,
            "contract": "src/StreamPostActions.sol:StreamPostActions",
            "label": "outSupply",
            "offset": 0,
            "slot": "7",
            "type": "t_uint256"
          },
          {
            "astId": 17747,
            "contract": "src/StreamPostActions.sol:StreamPostActions",
            "label": "lastUpdated",
            "offset": 0,
            "slot": "8",
            "type": "t_uint256"
          }
        ],
        "numberOfBytes": "288"
      },
      "t_struct(StreamTimes)17724_storage": {
        "encoding": "inplace",
        "label": "struct StreamTypes.StreamTimes",
        "members": [
          {
            "astId": 17719,
            "contract": "src/StreamPostActions.sol:StreamPostActions",
            "label": "bootstrappingStartTime",
            "offset": 0,
            "slot": "0",
            "type": "t_uint256"
          },
          {
            "astId": 17721,
            "contract": "src/StreamPostActions.sol:StreamPostActions",
            "label": "streamStartTime",
            "offset": 0,
            "slot": "1",
            "type": "t_uint256"
          },
          {
            "astId": 17723,
            "contract": "src/StreamPostActions.sol:StreamPostActions",
            "label": "streamEndTime",
            "offset": 0,
            "slot": "2",
            "type": "t_uint256"
          }
        ],
        "numberOfBytes": "96"
      },
      "t_struct(StreamTokens)17753_storage": {
        "encoding": "inplace",
        "label": "struct StreamTypes.StreamTokens",
        "members": [
          {
            "astId": 17750,
            "contract": "src/StreamPostActions.sol:StreamPostActions",
            "label": "inSupplyToken",
            "offset": 0,
            "slot": "0",
            "type": "t_address"
          },
          {
            "astId": 17752,
            "contract": "src/StreamPostActions.sol:StreamPostActions",
            "label": "outSupplyToken",
            "offset": 0,
            "slot": "1",
            "type": "t_address"
          }
        ],
        "numberOfBytes": "64"
      },
      "t_struct(VestingInfo)17758_storage": {
        "encoding": "inplace",
        "label": "struct StreamTypes.VestingInfo",
        "members": [
          {
            "astId": 17755,
            "contract": "src/StreamPostActions.sol:StreamPostActions",
            "label": "isVestingEnabled",
            "offset": 0,
            "slot": "0",
            "type": "t_bool"
          },
          {
            "astId": 17757,
            "contract": "src/StreamPostActions.sol:StreamPostActions",
            "label": "vestingDuration",
            "offset": 1,
            "slot": "0",
            "type": "t_uint64"
          }
        ],
        "numberOfBytes": "32"
      },
      "t_uint256": {
        "encoding": "inplace",
        "label": "uint256",
        "numberOfBytes": "32"
      },
      "t_uint64": {
        "encoding": "inplace",
        "label": "uint64",
        "numberOfBytes": "8"
      }
    }
  }
}