{
  "address": "0xaC53Bcd1f2Bda2f942F0a0ED90d6c49f0657F034",
  "abi": [
    {
      "inputs": [
        {
          "internalType": "address",
          "name": "factoryAddress",
          "type": "address"
        }
      ],
      "stateMutability": "nonpayable",
      "type": "constructor"
    },
    {
      "inputs": [],
      "name": "InsufficientOutAmount",
      "type": "error"
    },
    {
      "inputs": [
        {
          "internalType": "uint256",
          "name": "requiredTokenAmount",
          "type": "uint256"
        },
        {
          "internalType": "uint256",
          "name": "tokenBalance",
          "type": "uint256"
        }
      ],
      "name": "InsufficientTokenPayment",
      "type": "error"
    },
    {
      "inputs": [],
      "name": "InvalidAmount",
      "type": "error"
    },
    {
      "inputs": [],
      "name": "InvalidExitCondition",
      "type": "error"
    },
    {
      "inputs": [],
      "name": "InvalidImplementationAddress",
      "type": "error"
    },
    {
      "inputs": [],
      "name": "InvalidInSupplyToken",
      "type": "error"
    },
    {
      "inputs": [],
      "name": "InvalidOutSupplyToken",
      "type": "error"
    },
    {
      "inputs": [],
      "name": "InvalidPoolOutSupplyAmount",
      "type": "error"
    },
    {
      "inputs": [
        {
          "internalType": "address",
          "name": "user",
          "type": "address"
        },
        {
          "internalType": "uint256",
          "name": "shares",
          "type": "uint256"
        },
        {
          "internalType": "uint256",
          "name": "exitDate",
          "type": "uint256"
        },
        {
          "internalType": "string",
          "name": "reason",
          "type": "string"
        }
      ],
      "name": "InvalidPosition",
      "type": "error"
    },
    {
      "inputs": [],
      "name": "InvalidPositionStorageAddress",
      "type": "error"
    },
    {
      "inputs": [],
      "name": "InvalidStreamFactoryAddress",
      "type": "error"
    },
    {
      "inputs": [],
      "name": "InvalidVestingCliffDuration",
      "type": "error"
    },
    {
      "inputs": [],
      "name": "InvalidVestingDuration",
      "type": "error"
    },
    {
      "inputs": [],
      "name": "InvalidWithdrawAmount",
      "type": "error"
    },
    {
      "inputs": [],
      "name": "OperationNotAllowed",
      "type": "error"
    },
    {
      "inputs": [],
      "name": "PaymentFailed",
      "type": "error"
    },
    {
      "inputs": [],
      "name": "StreamFactoryAddressAlreadySet",
      "type": "error"
    },
    {
      "inputs": [],
      "name": "Unauthorized",
      "type": "error"
    },
    {
      "inputs": [
        {
          "internalType": "uint256",
          "name": "cap",
          "type": "uint256"
        }
      ],
      "name": "WithdrawAmountExceedsBalance",
      "type": "error"
    },
    {
      "anonymous": false,
      "inputs": [
        {
          "indexed": true,
          "internalType": "address",
          "name": "factory",
          "type": "address"
        },
        {
          "indexed": false,
          "internalType": "address[]",
          "name": "tokensAdded",
          "type": "address[]"
        },
        {
          "indexed": false,
          "internalType": "address[]",
          "name": "tokensRemoved",
          "type": "address[]"
        }
      ],
      "name": "AcceptedTokensUpdated",
      "type": "event"
    },
    {
      "anonymous": false,
      "inputs": [
        {
          "indexed": true,
          "internalType": "address",
          "name": "streamAddress",
          "type": "address"
        },
        {
          "indexed": true,
          "internalType": "address",
          "name": "subscriber",
          "type": "address"
        },
        {
          "indexed": false,
          "internalType": "uint256",
          "name": "refundedAmount",
          "type": "uint256"
        },
        {
          "indexed": false,
          "internalType": "uint256",
          "name": "exitTimestamp",
          "type": "uint256"
        }
      ],
      "name": "ExitRefunded",
      "type": "event"
    },
    {
      "anonymous": false,
      "inputs": [
        {
          "indexed": true,
          "internalType": "address",
          "name": "streamAddress",
          "type": "address"
        },
        {
          "indexed": true,
          "internalType": "address",
          "name": "subscriber",
          "type": "address"
        },
        {
          "indexed": false,
          "internalType": "uint256",
          "name": "purchased",
          "type": "uint256"
        },
        {
          "indexed": false,
          "internalType": "uint256",
          "name": "spentIn",
          "type": "uint256"
        },
        {
          "indexed": false,
          "internalType": "uint256",
          "name": "exitTimestamp",
          "type": "uint256"
        }
      ],
      "name": "ExitStreamed",
      "type": "event"
    },
    {
      "anonymous": false,
      "inputs": [
        {
          "indexed": true,
          "internalType": "address",
          "name": "factory",
          "type": "address"
        },
        {
          "indexed": false,
          "internalType": "address",
          "name": "streamImplementationAddress",
          "type": "address"
        },
        {
          "indexed": false,
          "internalType": "address",
          "name": "poolWrapperAddress",
          "type": "address"
        },
        {
          "indexed": false,
          "internalType": "address",
          "name": "feeCollector",
          "type": "address"
        },
        {
          "indexed": false,
          "internalType": "address",
          "name": "protocolAdmin",
          "type": "address"
        },
        {
          "indexed": false,
          "internalType": "address",
          "name": "streamCreationFeeToken",
          "type": "address"
        },
        {
          "indexed": false,
          "internalType": "address[]",
          "name": "acceptedInSupplyTokens",
          "type": "address[]"
        },
        {
          "indexed": false,
          "internalType": "uint256",
          "name": "streamCreationFee",
          "type": "uint256"
        },
        {
          "indexed": false,
          "internalType": "uint256",
          "name": "exitFeeRatio",
          "type": "uint256"
        },
        {
          "indexed": false,
          "internalType": "uint256",
          "name": "minWaitingDuration",
          "type": "uint256"
        },
        {
          "indexed": false,
          "internalType": "uint256",
          "name": "minBootstrappingDuration",
          "type": "uint256"
        },
        {
          "indexed": false,
          "internalType": "uint256",
          "name": "minStreamDuration",
          "type": "uint256"
        },
        {
          "indexed": false,
          "internalType": "string",
          "name": "tosVersion",
          "type": "string"
        },
        {
          "indexed": false,
          "internalType": "address",
          "name": "vestingAddress",
          "type": "address"
        }
      ],
      "name": "FactoryInitialized",
      "type": "event"
    },
    {
      "anonymous": false,
      "inputs": [
        {
          "indexed": true,
          "internalType": "address",
          "name": "factory",
          "type": "address"
        },
        {
          "indexed": false,
          "internalType": "address",
          "name": "newFeeCollector",
          "type": "address"
        }
      ],
      "name": "FeeCollectorUpdated",
      "type": "event"
    },
    {
      "anonymous": false,
      "inputs": [
        {
          "indexed": true,
          "internalType": "address",
          "name": "streamAddress",
          "type": "address"
        },
        {
          "indexed": true,
          "internalType": "address",
          "name": "creator",
          "type": "address"
        },
        {
          "indexed": false,
          "internalType": "uint256",
          "name": "refundedOutAmount",
          "type": "uint256"
        }
      ],
      "name": "FinalizedRefunded",
      "type": "event"
    },
    {
      "anonymous": false,
      "inputs": [
        {
          "indexed": true,
          "internalType": "address",
          "name": "streamAddress",
          "type": "address"
        },
        {
          "indexed": true,
          "internalType": "address",
          "name": "creator",
          "type": "address"
        },
        {
          "indexed": false,
          "internalType": "uint256",
          "name": "creatorRevenue",
          "type": "uint256"
        },
        {
          "indexed": false,
          "internalType": "uint256",
          "name": "exitFeeAmount",
          "type": "uint256"
        },
        {
          "indexed": false,
          "internalType": "uint256",
          "name": "refundedOutAmount",
          "type": "uint256"
        }
      ],
      "name": "FinalizedStreamed",
      "type": "event"
    },
    {
      "anonymous": false,
      "inputs": [
        {
          "indexed": true,
          "internalType": "address",
          "name": "factory",
          "type": "address"
        },
        {
          "indexed": false,
          "internalType": "bool",
          "name": "frozen",
          "type": "bool"
        }
      ],
      "name": "FrozenStateUpdated",
      "type": "event"
    },
    {
      "anonymous": false,
      "inputs": [
        {
          "indexed": true,
          "internalType": "address",
          "name": "factory",
          "type": "address"
        },
        {
          "indexed": false,
          "internalType": "uint256",
          "name": "streamCreationFee",
          "type": "uint256"
        },
        {
          "indexed": false,
          "internalType": "uint256",
          "name": "exitFeeRatio",
          "type": "uint256"
        },
        {
          "indexed": false,
          "internalType": "uint256",
          "name": "minWaitingDuration",
          "type": "uint256"
        },
        {
          "indexed": false,
          "internalType": "uint256",
          "name": "minBootstrappingDuration",
          "type": "uint256"
        },
        {
          "indexed": false,
          "internalType": "uint256",
          "name": "minStreamDuration",
          "type": "uint256"
        },
        {
          "indexed": false,
          "internalType": "string",
          "name": "tosVersion",
          "type": "string"
        }
      ],
      "name": "ParamsUpdated",
      "type": "event"
    },
    {
      "anonymous": false,
      "inputs": [
        {
          "indexed": true,
          "internalType": "address",
          "name": "factoryAddress",
          "type": "address"
        },
        {
          "indexed": false,
          "internalType": "address",
          "name": "poolWrapper",
          "type": "address"
        }
      ],
      "name": "PoolWrapperUpdated",
      "type": "event"
    },
    {
      "anonymous": false,
      "inputs": [
        {
          "indexed": true,
          "internalType": "address",
          "name": "streamAddress",
          "type": "address"
        },
        {
          "indexed": true,
          "internalType": "address",
          "name": "subscriber",
          "type": "address"
        },
        {
          "indexed": false,
          "internalType": "uint256",
          "name": "positionInBalance",
          "type": "uint256"
        },
        {
          "indexed": false,
          "internalType": "uint256",
          "name": "positionShares",
          "type": "uint256"
        },
        {
          "indexed": false,
          "internalType": "uint256",
          "name": "positionLastUpdateTime",
          "type": "uint256"
        },
        {
          "indexed": false,
          "internalType": "uint256",
          "name": "positionSpentIn",
          "type": "uint256"
        },
        {
          "indexed": false,
          "internalType": "uint256",
          "name": "positionPurchased",
          "type": "uint256"
        },
        {
          "indexed": false,
          "internalType": "uint256",
          "name": "positionIndex",
          "type": "uint256"
        }
      ],
      "name": "PositionSynced",
      "type": "event"
    },
    {
      "anonymous": false,
      "inputs": [
        {
          "indexed": true,
          "internalType": "address",
          "name": "factory",
          "type": "address"
        },
        {
          "indexed": false,
          "internalType": "address",
          "name": "newProtocolAdmin",
          "type": "address"
        }
      ],
      "name": "ProtocolAdminUpdated",
      "type": "event"
    },
    {
      "anonymous": false,
      "inputs": [
        {
          "indexed": true,
          "internalType": "address",
          "name": "streamAddress",
          "type": "address"
        },
        {
          "indexed": false,
          "internalType": "address",
          "name": "creator",
          "type": "address"
        },
        {
          "indexed": false,
          "internalType": "uint256",
          "name": "outSupply",
          "type": "uint256"
        },
        {
          "indexed": false,
          "internalType": "uint8",
          "name": "status",
          "type": "uint8"
        }
      ],
      "name": "StreamCancelled",
      "type": "event"
    },
    {
      "anonymous": false,
      "inputs": [
        {
          "indexed": true,
          "internalType": "address",
          "name": "streamFactoryAddress",
          "type": "address"
        },
        {
          "indexed": false,
          "internalType": "address",
          "name": "streamOutToken",
          "type": "address"
        },
        {
          "indexed": false,
          "internalType": "address",
          "name": "streamInToken",
          "type": "address"
        },
        {
          "indexed": false,
          "internalType": "address",
          "name": "streamAddress",
          "type": "address"
        },
        {
          "indexed": false,
          "internalType": "address",
          "name": "positionStorageAddress",
          "type": "address"
        },
        {
          "indexed": false,
          "internalType": "uint256",
          "name": "streamOutAmount",
          "type": "uint256"
        },
        {
          "indexed": false,
          "internalType": "uint256",
          "name": "bootstrappingStartTime",
          "type": "uint256"
        },
        {
          "indexed": false,
          "internalType": "uint256",
          "name": "streamStartTime",
          "type": "uint256"
        },
        {
          "indexed": false,
          "internalType": "uint256",
          "name": "streamEndTime",
          "type": "uint256"
        },
        {
          "indexed": false,
          "internalType": "uint256",
          "name": "threshold",
          "type": "uint256"
        },
        {
          "indexed": false,
          "internalType": "string",
          "name": "metadataIpfsHash",
          "type": "string"
        },
        {
          "indexed": false,
          "internalType": "string",
          "name": "tosVersion",
          "type": "string"
        },
        {
          "indexed": false,
          "internalType": "uint16",
          "name": "streamId",
          "type": "uint16"
        }
      ],
      "name": "StreamCreated",
      "type": "event"
    },
    {
      "anonymous": false,
      "inputs": [
        {
          "indexed": true,
          "internalType": "address",
          "name": "streamAddress",
          "type": "address"
        },
        {
          "indexed": false,
          "internalType": "uint256",
          "name": "lastUpdated",
          "type": "uint256"
        },
        {
          "indexed": false,
          "internalType": "uint256",
          "name": "distIndex",
          "type": "uint256"
        },
        {
          "indexed": false,
          "internalType": "uint256",
          "name": "outRemaining",
          "type": "uint256"
        },
        {
          "indexed": false,
          "internalType": "uint256",
          "name": "inSupply",
          "type": "uint256"
        },
        {
          "indexed": false,
          "internalType": "uint256",
          "name": "spentIn",
          "type": "uint256"
        },
        {
          "indexed": false,
          "internalType": "uint256",
          "name": "currentStreamedPrice",
          "type": "uint256"
        }
      ],
      "name": "StreamStateUpdated",
      "type": "event"
    },
    {
      "anonymous": false,
      "inputs": [
        {
          "indexed": true,
          "internalType": "address",
          "name": "streamAddress",
          "type": "address"
        },
        {
          "indexed": false,
          "internalType": "uint256",
          "name": "lastUpdated",
          "type": "uint256"
        },
        {
          "indexed": false,
          "internalType": "uint8",
          "name": "newStatus",
          "type": "uint8"
        },
        {
          "indexed": false,
          "internalType": "uint256",
          "name": "distIndex",
          "type": "uint256"
        },
        {
          "indexed": false,
          "internalType": "uint256",
          "name": "outRemaining",
          "type": "uint256"
        },
        {
          "indexed": false,
          "internalType": "uint256",
          "name": "inSupply",
          "type": "uint256"
        },
        {
          "indexed": false,
          "internalType": "uint256",
          "name": "spentIn",
          "type": "uint256"
        },
        {
          "indexed": false,
          "internalType": "uint256",
          "name": "currentStreamedPrice",
          "type": "uint256"
        }
      ],
      "name": "StreamSynced",
      "type": "event"
    },
    {
      "anonymous": false,
      "inputs": [
        {
          "indexed": true,
          "internalType": "address",
          "name": "streamAddress",
          "type": "address"
        },
        {
          "indexed": true,
          "internalType": "address",
          "name": "subscriber",
          "type": "address"
        },
        {
          "indexed": false,
          "internalType": "uint256",
          "name": "positionInBalance",
          "type": "uint256"
        },
        {
          "indexed": false,
          "internalType": "uint256",
          "name": "positionShares",
          "type": "uint256"
        },
        {
          "indexed": false,
          "internalType": "uint256",
          "name": "positionLastUpdateTime",
          "type": "uint256"
        },
        {
          "indexed": false,
          "internalType": "uint256",
          "name": "positionSpentIn",
          "type": "uint256"
        },
        {
          "indexed": false,
          "internalType": "uint256",
          "name": "positionPurchased",
          "type": "uint256"
        },
        {
          "indexed": false,
          "internalType": "uint256",
          "name": "positionIndex",
          "type": "uint256"
        },
        {
          "indexed": false,
          "internalType": "uint256",
          "name": "streamInSupply",
          "type": "uint256"
        },
        {
          "indexed": false,
          "internalType": "uint256",
          "name": "streamShares",
          "type": "uint256"
        }
      ],
      "name": "Subscribed",
      "type": "event"
    },
    {
      "anonymous": false,
      "inputs": [
        {
          "indexed": true,
          "internalType": "address",
          "name": "factoryAddress",
          "type": "address"
        },
        {
          "indexed": false,
          "internalType": "address",
          "name": "vestingContract",
          "type": "address"
        }
      ],
      "name": "VestingContractDeployed",
      "type": "event"
    },
    {
      "anonymous": false,
      "inputs": [
        {
          "indexed": true,
          "internalType": "address",
          "name": "streamAddress",
          "type": "address"
        },
        {
          "indexed": true,
          "internalType": "address",
          "name": "subscriber",
          "type": "address"
        },
        {
          "indexed": false,
          "internalType": "uint256",
          "name": "positionInBalance",
          "type": "uint256"
        },
        {
          "indexed": false,
          "internalType": "uint256",
          "name": "positionShares",
          "type": "uint256"
        },
        {
          "indexed": false,
          "internalType": "uint256",
          "name": "positionLastUpdateTime",
          "type": "uint256"
        },
        {
          "indexed": false,
          "internalType": "uint256",
          "name": "positionSpentIn",
          "type": "uint256"
        },
        {
          "indexed": false,
          "internalType": "uint256",
          "name": "positionPurchased",
          "type": "uint256"
        },
        {
          "indexed": false,
          "internalType": "uint256",
          "name": "positionIndex",
          "type": "uint256"
        },
        {
          "indexed": false,
          "internalType": "uint256",
          "name": "streamInSupply",
          "type": "uint256"
        },
        {
          "indexed": false,
          "internalType": "uint256",
          "name": "streamShares",
          "type": "uint256"
        }
      ],
      "name": "Withdrawn",
      "type": "event"
    },
    {
      "inputs": [],
      "name": "STREAM_FACTORY_ADDRESS",
      "outputs": [
        {
          "internalType": "address",
          "name": "",
          "type": "address"
        }
      ],
      "stateMutability": "view",
      "type": "function"
    },
    {
      "inputs": [],
      "name": "cancelStream",
      "outputs": [],
      "stateMutability": "nonpayable",
      "type": "function"
    },
    {
      "inputs": [],
      "name": "cancelWithAdmin",
      "outputs": [],
      "stateMutability": "nonpayable",
      "type": "function"
    },
    {
      "inputs": [],
      "name": "creator",
      "outputs": [
        {
          "internalType": "address",
          "name": "",
          "type": "address"
        }
      ],
      "stateMutability": "view",
      "type": "function"
    },
    {
      "inputs": [],
      "name": "exitStream",
      "outputs": [],
      "stateMutability": "nonpayable",
      "type": "function"
    },
    {
      "inputs": [],
      "name": "finalizeStream",
      "outputs": [],
      "stateMutability": "nonpayable",
      "type": "function"
    },
    {
      "inputs": [
        {
          "internalType": "address",
          "name": "user",
          "type": "address"
        }
      ],
      "name": "getPosition",
      "outputs": [
        {
          "components": [
            {
              "internalType": "uint256",
              "name": "inBalance",
              "type": "uint256"
            },
            {
              "internalType": "uint256",
              "name": "shares",
              "type": "uint256"
            },
            {
              "components": [
                {
                  "internalType": "uint256",
                  "name": "value",
                  "type": "uint256"
                }
              ],
              "internalType": "struct Decimal",
              "name": "index",
              "type": "tuple"
            },
            {
              "internalType": "uint256",
              "name": "lastUpdateTime",
              "type": "uint256"
            },
            {
              "components": [
                {
                  "internalType": "uint256",
                  "name": "value",
                  "type": "uint256"
                }
              ],
              "internalType": "struct Decimal",
              "name": "pendingReward",
              "type": "tuple"
            },
            {
              "internalType": "uint256",
              "name": "spentIn",
              "type": "uint256"
            },
            {
              "internalType": "uint256",
              "name": "purchased",
              "type": "uint256"
            },
            {
              "internalType": "uint256",
              "name": "exitDate",
              "type": "uint256"
            }
          ],
          "internalType": "struct PositionTypes.Position",
          "name": "",
          "type": "tuple"
        }
      ],
      "stateMutability": "view",
      "type": "function"
    },
    {
      "inputs": [],
      "name": "getStreamState",
      "outputs": [
        {
          "components": [
            {
              "internalType": "uint256",
              "name": "outRemaining",
              "type": "uint256"
            },
            {
              "components": [
                {
                  "internalType": "uint256",
                  "name": "value",
                  "type": "uint256"
                }
              ],
              "internalType": "struct Decimal",
              "name": "distIndex",
              "type": "tuple"
            },
            {
              "internalType": "uint256",
              "name": "spentIn",
              "type": "uint256"
            },
            {
              "internalType": "uint256",
              "name": "shares",
              "type": "uint256"
            },
            {
              "components": [
                {
                  "internalType": "uint256",
                  "name": "value",
                  "type": "uint256"
                }
              ],
              "internalType": "struct Decimal",
              "name": "currentStreamedPrice",
              "type": "tuple"
            },
            {
              "internalType": "uint256",
              "name": "threshold",
              "type": "uint256"
            },
            {
              "internalType": "uint256",
              "name": "inSupply",
              "type": "uint256"
            },
            {
              "internalType": "uint256",
              "name": "outSupply",
              "type": "uint256"
            },
            {
              "internalType": "uint256",
              "name": "lastUpdated",
              "type": "uint256"
            }
          ],
          "internalType": "struct StreamTypes.StreamState",
          "name": "",
          "type": "tuple"
        }
      ],
      "stateMutability": "view",
      "type": "function"
    },
    {
      "inputs": [],
      "name": "getStreamStatus",
      "outputs": [
        {
          "internalType": "enum StreamTypes.Status",
          "name": "",
          "type": "uint8"
        }
      ],
      "stateMutability": "view",
      "type": "function"
    },
    {
      "inputs": [
        {
          "components": [
            {
              "internalType": "address",
              "name": "creator",
              "type": "address"
            },
            {
              "internalType": "address",
              "name": "inSupplyToken",
              "type": "address"
            },
            {
              "internalType": "address",
              "name": "outSupplyToken",
              "type": "address"
            },
            {
              "internalType": "uint256",
              "name": "streamOutAmount",
              "type": "uint256"
            },
            {
              "internalType": "uint256",
              "name": "threshold",
              "type": "uint256"
            },
            {
              "internalType": "uint256",
              "name": "bootstrappingStartTime",
              "type": "uint256"
            },
            {
              "internalType": "uint256",
              "name": "streamStartTime",
              "type": "uint256"
            },
            {
              "internalType": "uint256",
              "name": "streamEndTime",
              "type": "uint256"
            },
            {
              "components": [
                {
                  "internalType": "string",
                  "name": "ipfsHash",
                  "type": "string"
                }
              ],
              "internalType": "struct StreamTypes.StreamMetadata",
              "name": "metadata",
              "type": "tuple"
            },
            {
              "components": [
                {
                  "internalType": "bool",
                  "name": "isVestingEnabled",
                  "type": "bool"
                },
                {
                  "internalType": "uint64",
                  "name": "vestingDuration",
                  "type": "uint64"
                }
              ],
              "internalType": "struct StreamTypes.VestingInfo",
              "name": "creatorVesting",
              "type": "tuple"
            },
            {
              "components": [
                {
                  "internalType": "bool",
                  "name": "isVestingEnabled",
                  "type": "bool"
                },
                {
                  "internalType": "uint64",
                  "name": "vestingDuration",
                  "type": "uint64"
                }
              ],
              "internalType": "struct StreamTypes.VestingInfo",
              "name": "beneficiaryVesting",
              "type": "tuple"
            },
            {
              "components": [
                {
                  "internalType": "uint256",
                  "name": "poolOutSupplyAmount",
                  "type": "uint256"
                }
              ],
              "internalType": "struct StreamTypes.PoolInfo",
              "name": "poolInfo",
              "type": "tuple"
            },
            {
              "internalType": "string",
              "name": "tosVersion",
              "type": "string"
            }
          ],
          "internalType": "struct StreamTypes.CreateStreamMessage",
          "name": "createStreamMessage",
          "type": "tuple"
        },
        {
          "internalType": "address",
          "name": "storageAddress",
          "type": "address"
        }
      ],
      "name": "initialize",
      "outputs": [],
      "stateMutability": "nonpayable",
      "type": "function"
    },
    {
      "inputs": [],
      "name": "positionStorageAddress",
      "outputs": [
        {
          "internalType": "address",
          "name": "",
          "type": "address"
        }
      ],
      "stateMutability": "view",
      "type": "function"
    },
    {
      "inputs": [],
      "name": "postStreamActions",
      "outputs": [
        {
          "components": [
            {
              "internalType": "uint256",
              "name": "poolOutSupplyAmount",
              "type": "uint256"
            }
          ],
          "internalType": "struct StreamTypes.PoolInfo",
          "name": "poolInfo",
          "type": "tuple"
        },
        {
          "components": [
            {
              "internalType": "bool",
              "name": "isVestingEnabled",
              "type": "bool"
            },
            {
              "internalType": "uint64",
              "name": "vestingDuration",
              "type": "uint64"
            }
          ],
          "internalType": "struct StreamTypes.VestingInfo",
          "name": "creatorVesting",
          "type": "tuple"
        },
        {
          "components": [
            {
              "internalType": "bool",
              "name": "isVestingEnabled",
              "type": "bool"
            },
            {
              "internalType": "uint64",
              "name": "vestingDuration",
              "type": "uint64"
            }
          ],
          "internalType": "struct StreamTypes.VestingInfo",
          "name": "beneficiaryVesting",
          "type": "tuple"
        }
      ],
      "stateMutability": "view",
      "type": "function"
    },
    {
      "inputs": [],
      "name": "streamMetadata",
      "outputs": [
        {
          "internalType": "string",
          "name": "ipfsHash",
          "type": "string"
        }
      ],
      "stateMutability": "view",
      "type": "function"
    },
    {
      "inputs": [],
      "name": "streamState",
      "outputs": [
        {
          "internalType": "uint256",
          "name": "outRemaining",
          "type": "uint256"
        },
        {
          "components": [
            {
              "internalType": "uint256",
              "name": "value",
              "type": "uint256"
            }
          ],
          "internalType": "struct Decimal",
          "name": "distIndex",
          "type": "tuple"
        },
        {
          "internalType": "uint256",
          "name": "spentIn",
          "type": "uint256"
        },
        {
          "internalType": "uint256",
          "name": "shares",
          "type": "uint256"
        },
        {
          "components": [
            {
              "internalType": "uint256",
              "name": "value",
              "type": "uint256"
            }
          ],
          "internalType": "struct Decimal",
          "name": "currentStreamedPrice",
          "type": "tuple"
        },
        {
          "internalType": "uint256",
          "name": "threshold",
          "type": "uint256"
        },
        {
          "internalType": "uint256",
          "name": "inSupply",
          "type": "uint256"
        },
        {
          "internalType": "uint256",
          "name": "outSupply",
          "type": "uint256"
        },
        {
          "internalType": "uint256",
          "name": "lastUpdated",
          "type": "uint256"
        }
      ],
      "stateMutability": "view",
      "type": "function"
    },
    {
      "inputs": [],
      "name": "streamStatus",
      "outputs": [
        {
          "internalType": "enum StreamTypes.Status",
          "name": "",
          "type": "uint8"
        }
      ],
      "stateMutability": "view",
      "type": "function"
    },
    {
      "inputs": [],
      "name": "streamTimes",
      "outputs": [
        {
          "internalType": "uint256",
          "name": "bootstrappingStartTime",
          "type": "uint256"
        },
        {
          "internalType": "uint256",
          "name": "streamStartTime",
          "type": "uint256"
        },
        {
          "internalType": "uint256",
          "name": "streamEndTime",
          "type": "uint256"
        }
      ],
      "stateMutability": "view",
      "type": "function"
    },
    {
      "inputs": [],
      "name": "streamTokens",
      "outputs": [
        {
          "internalType": "address",
          "name": "inSupplyToken",
          "type": "address"
        },
        {
          "internalType": "address",
          "name": "outSupplyToken",
          "type": "address"
        }
      ],
      "stateMutability": "view",
      "type": "function"
    },
    {
      "inputs": [
        {
          "internalType": "uint256",
          "name": "amountIn",
          "type": "uint256"
        }
      ],
      "name": "subscribe",
      "outputs": [],
      "stateMutability": "nonpayable",
      "type": "function"
    },
    {
      "inputs": [
        {
          "internalType": "address",
          "name": "user",
          "type": "address"
        }
      ],
      "name": "syncPositionExternal",
      "outputs": [],
      "stateMutability": "nonpayable",
      "type": "function"
    },
    {
      "inputs": [],
      "name": "syncStreamExternal",
      "outputs": [],
      "stateMutability": "nonpayable",
      "type": "function"
    },
    {
      "inputs": [
        {
          "internalType": "uint256",
          "name": "cap",
          "type": "uint256"
        }
      ],
      "name": "withdraw",
      "outputs": [],
      "stateMutability": "nonpayable",
      "type": "function"
    }
  ],
  "transactionHash": "0xdd4a4d0780ce6921351d303f7fdb91f30aa4654fe446128ae6ee245e687c61bf",
  "args": [
    "0x2B3Db98aC7De966AE2422b26FB887870633C6E28"
  ],
  "numDeployments": 1,
  "solcInputHash": "f877331f615334fb5951804fa5553efb",
  "bytecode": "0x60a0346100a057601f62002b0738819003918201601f19168301916001600160401b038311848410176100a5578084926020946040528339810103126100a057516001600160a01b0381168082036100a0571561008e57608052604051612a4b9081620000bc823960805181818161013e015281816108e301528181610e0f01528181611453015261172f0152f35b6040516332dcc54560e11b8152600490fd5b600080fd5b634e487b7160e01b600052604160045260246000fdfe608080604052600436101561001357600080fd5b60003560e01c90816302d05d3f14611b14575080630390547414610cbb5780630b8313881461156f5780630bcc8eba146114245780630e5634df146113455780630f574ba71461118657806316c19739146111555780632ae4e931146110dc5780632e1a7d4d14610f0557806334793e0514610e3e57806360d388d814610df95780636b330b7914610d175780638a03764f14610ce5578063af5c3ac414610cbb578063bdf4a94714610c00578063c0ae398c14610b7e578063cbf06415146107d6578063d08452c2146107a3578063e427d08c1461077a578063e9a9e144146106c25763f69e8fba1461010657600080fd5b346103a15760003660031901126103a1576000546001600160a01b0390811633036106b157604051635e615a6b60e01b8082529091907f00000000000000000000000000000000000000000000000000000000000000008216600084600481845afa9384156103ad57600094610694575b50600e54936101926101876121a7565b429060ff88166121e5565b600781101561067e5760030361066c576101b26101ad6120bf565b612243565b604081015160a0820151825160e084015190969391831061061157508680985060c0859896979801511695620f424092610205846101fc60408901516101f785612171565b6126bf565b51048092612139565b976000936000956012549081610574575b5050906102336102809392600560ff19600e541617600e55612595565b600054604080518c8152602081018590529081018d9052908a169030907f16d1e1ee4b51bbfbf5d46884cac3a98f673074103d40dfae8a99e5b51457b7d290606090a388600b5416612200565b82610400575b5050505060ff601354166000146103e6576101200151600b5460405163095ea7b360e01b8152929091166001600160a01b038116600484015260248301849052602092918390839060449082906000908b165af19182156103ad5783926103b9575b5060008054601354600b5460405163c4b2da5960e01b8152928a166001600160a01b0390811660048501526001600160401b03428116602486015260089390931c909216604484015289161660648201526084810195909552849160a49183915af180156103ad57610374575b50505b80610360575b005b8161035e92600c5416906000541690612200565b81813d83116103a6575b6103888183611bd4565b810103126103a15761039990611db4565b503880610355565b600080fd5b503d61037e565b6040513d6000823e3d90fd5b6103d890833d85116103df575b6103d08183611bd4565b810190612146565b50386102e8565b503d6103c6565b50906103fb91600b5416846000541690612200565b610358565b90919294600b541690600089600c54169660046040518094819382525afa9081156103ad57899161014091600091610551575b50015116610442838284612200565b61044d848288612200565b6040519060808201908282106001600160401b0383111761053b576060958b95608495600094604052855260208501998a5260408501908152878501918252866040519a8b9889976302e2616d60e61b895251166004880152511660248601525160448501525160648401525af19182156103ad5785926104d1575b808080610286565b91506060823d606011610533575b816104ec60609383611bd4565b810103126103a1578491604061052a8180519361050885611b9d565b61051181611db4565b855261051f60208201611db4565b602086015201611db4565b910152386104c9565b3d91506104df565b634e487b7160e01b600052604160045260246000fd5b61056e91503d806000833e6105668183611bd4565b810190611de6565b38610433565b93929950610587919a9650809550612171565b97610593600954612171565b9860006040516105a281611b4b565b5251838102908082048514901517156105fb576105f2610280946105e88f9c610233946105d09151906123b5565b604051906105dd82611b4b565b81526101f78b612171565b5104809798612139565b9a919293610216565b634e487b7160e01b600052601160045260246000fd5b969550925050506106309150600461035e9560ff191617600e55612595565b806000541690816040518481527f3f3e233ce59fa3e5f0b479b323538988fd213fa8f3007a95ff330489bf5d40a660203092a3600c5416612200565b604051637a851da960e11b8152600490fd5b634e487b7160e01b600052602160045260246000fd5b6106aa9194503d806000833e6105668183611bd4565b9238610177565b6040516282b42960e81b8152600490fd5b346103a15760003660031901126103a1576000546001600160a01b03908116338190036106b157600e54906107036106f86121a7565b429060ff85166121e5565b600781101561067e5761066c5760095460ff199092166006908117600e55604080516001600160a01b0384168152602081018590529081019190915261035e939030907febb55ea32d517c9ec85f61357977ac73b84e65ebeaedb528ed791d7e25e30a2b9080606081015b0390a2600c5416612200565b346103a15760003660031901126103a1576001546040516001600160a01b039091168152602090f35b346103a15760003660031901126103a157600b54600c54604080516001600160a01b039384168152919092166020820152f35b346103a15760003660031901126103a1576107f033611f80565b6107fa33826125de565b6108056101ad6120bf565b9061082260209182840151606085015160c08601519142936123d5565b9061083c60ff600e541642906108366121a7565b906121e5565b82519060c08401519461086c60a0860151954260e082015261085d84611d9b565b61086683612595565b33612531565b60a0604082015191015111906007811015918261067e5760058214918215610b5e575b8361067e5760048114938415610b50575b8415610b2b575b505050600014610acd575080610aaf575b5060145460ff1615610a9057604051635e615a6b60e01b81526001600160a01b0391906000816004817f000000000000000000000000000000000000000000000000000000000000000087165afa9081156103ad57839161012091600091610a75575b500151600c5460405163095ea7b360e01b8152929091166001600160a01b03811660048401526024830187905291939083908590604490829060009086165af19182156103ad5786948493610a58575b50601454600c5460405163c4b2da5960e01b81523360048201526001600160401b03428116602483015260089390931c9092166044830152929092166001600160a01b0316606483015260848201949094529283908160008160a4810103925af180156103ad57610a24575b50505b7f42c690944bb098e84e7a84f157acef3324928623259330b1ba03ec0495407bb460405180610a1f339530954291846040919493926060820195825260208201520152565b0390a3005b81813d8311610a51575b610a388183611bd4565b810103126103a157610a4990611db4565b5082806109d7565b503d610a2e565b610a6e90843d86116103df576103d08183611bd4565b508761096b565b610a8a91503d806000833e6105668183611bd4565b8761091b565b50600c54610aaa90839033906001600160a01b0316612200565b6109da565b600b54610ac7919033906001600160a01b0316612200565b836108b8565b91935091901561066c57610ae091611f19565b90610af6823360018060a01b03600b5416612200565b604051918252429082015233907f974d269dfe471aa7c09788034bef284519056ae9769575104f22c0456456dd0960403092a3005b909192935061067e576003149081610b48575b50908680806108a7565b905086610b3e565b5060068114935060006108a0565b600093508392506003811480610b76575b925061088f565b508115610b6f565b346103a15760003660031901126103a157610120600254604051610ba181611b4b565b6003548152600454600554604051610bb881611b4b565b6006548152600754906008549260095494600a54966040519889525160208901526040880152606087015251608086015260a085015260c084015260e0830152610100820152f35b346103a15760003660031901126103a15760a0604051610c1f81611b4b565b6012548152610cb9604051610c3381611b82565b610c9c6013549160ff8316151581526001600160401b03809360081c16602082015260405192610c6284611b82565b60145460ff81161515855260081c1660208401526040519451855260208501906001600160401b0360208092805115158552015116910152565b805115156060840152602001516001600160401b03166080830152565bf35b346103a15760003660031901126103a157610ce160ff600e541660405191829182611b38565b0390f35b346103a15760003660031901126103a157600f5460105460115460408051938452602084019290925290820152606090f35b346103a15760203660031901126103a157610d30611bf5565b610d3981611f80565b610d4382826125de565b610d7c610d6c610d546101ad6120bf565b926020840151606085015160c08601519142936123d5565b91610d778385612531565b612595565b805160208083015160608085015160a08087015160c0808901516040998a0151518a51998a5297890196909652978701929092529185015260808401919091528201526001600160a01b039092169130917f776f4c645ad4c2525f2c0862f3c0e3841c03f4fc680c1ceb4ab41b9eadccc4d1919081908101610a1f565b346103a15760003660031901126103a1576040517f00000000000000000000000000000000000000000000000000000000000000006001600160a01b03168152602090f35b346103a15760003660031901126103a157610e576120bf565b610e83610e6b610e656121a7565b92612243565b91610e7583612595565b60ff600e54169042916121e5565b610e8c81611d9b565b61010082015191600782101561067e57602081015151815160c08301519160ff60806040860151950151519560405197885216602087015260408601526060850152608084015260a083015260c08201527f9a6ce334816e7b4b0cea88e41f3c652ec2e8064e2663e98f6d94d5ed90bc569060e03092a2005b346103a15760203660031901126103a15760043580156110ca57610f2833611f80565b90610f3333836125de565b610f3e610e756121a7565b600781101561067e576002811415806110bf575b61066c57610f616101ad6120bf565b906020820151610f81606084019182519660c086019742928951926123d5565b92835185116110a657947fca17ddd98e8725ab2aa1c70d19c5d777d10bd61a64e2525cf7ead7fe7f1ec2079161101061035e978651881460001461108c576110066020880151965b610fff60208a0198610fdc818b51612139565b8a52610fe98c8c51612139565b8b52610ff68c8951612139565b88528651612139565b8552611d9b565b610d778733612531565b611076855194519560608101519260a082015194604060c0840151930151519051915192604051968796339b309b8994919260e0969399989794919961010087019a8752602087015260408601526060850152608084015260a083015260c08201520152565b0390a3600b5433906001600160a01b0316612200565b6110066110a0855160208a0151908b6124eb565b96610fc9565b6040516318928cbf60e31b815260048101869052602490fd5b506001811415610f52565b60405163162908e360e11b8152600490fd5b346103a15760003660031901126103a1576101206110f86120bf565b604051908051825260208101515160208301526040810151604083015260608101516060830152608081015151608083015260a081015160a083015260c081015160c083015260e081015160e08301526101008091015190820152f35b346103a15760203660031901126103a157610100611179611174611bf5565b611f80565b610cb96040518092611d4e565b346103a15760203660031901126103a15760043580156110ca576111b860ff600e54166111b16121a7565b42916121e5565b600781101561067e5760018114158061133a575b61066c576111db6101ad6120bf565b916111e533611f80565b6020840151611204606086019182519360c088019442928651926123d5565b936112138351835190866124c3565b600b546040516323b872dd60e01b602082015233602482015230604482015260648082018890528152919760a08301939092916001600160a01b03166001600160401b0385118386101761053b577fac20383bc611fb24ecfa942ed37ae8648074130276759a168535c23c5cf026c39761129a6112cc946112bf936112d698604052612767565b6112a5818b51611f19565b8a5260208a016112b68c8251611f19565b90528751611f19565b8652610fff898651611f19565b610d778633612531565b610a1f84519460608101519260a082015194604060c0840151930151519051915192604051968796339b309b8994919260e0969399989794919961010087019a8752602087015260408601526060850152608084015260a083015260c08201520152565b5060028114156111cc565b346103a15760003660031901126103a1576040516000600d5461136781611cc5565b808452906020906001908181169081156113fa57506001146113a0575b610ce18561139481870382611bd4565b60405191829182611d22565b600d600090815293507fd7b6990105719101dabeb77144f2a3385c8033acd3af97e9423a695e81ad1eb55b8385106113e75750505050810160200161139482610ce1611384565b80548686018401529382019381016113cb565b869550610ce19693506020925061139494915060ff191682840152151560051b8201019293611384565b346103a15760003660031901126103a157604051635e615a6b60e01b81526001600160a01b03906000816004817f000000000000000000000000000000000000000000000000000000000000000086165afa9081156103ad57829160e091600091611554575b5001511633036106b157600e546114ad6114a26121a7565b429060ff84166121e5565b6007811015908161067e578015159182611545575b82611533575b505061066c5761035e9160066009549260ff191617600e558060005416906040517febb55ea32d517c9ec85f61357977ac73b84e65ebeaedb528ed791d7e25e30a2b30918061076e8787836040906006929493606082019560018060a01b0316825260208201520152565b90915061067e576002141583806114c8565b506001811415915060006114c2565b61156991503d806000833e6105668183611bd4565b8461148a565b346103a1576003196040368201126103a1576001600160401b03600435116103a1576101e081600435360301126103a157604051906101a082018281106001600160401b0382111761053b576040526115cc600435600401611c0b565b82526115dc602460043501611c0b565b60208301526115ef604460043501611c0b565b6040830152600435606481013560608401526084810135608084015260a481013560a084015260c481013560c084015260e481013560e084015261010401356001600160401b0381116103a157602090600435019182360301126103a1576040519061165a82611b4b565b6004810135906001600160401b0382116103a157600461167d9236920101611c3a565b81526101008201526116953661012460043501611c81565b6101208201526116ab3661016460043501611c81565b610140820152602060043536036101a31901126103a1576040516116ce81611b4b565b6101a4600435013581526101608201526101c460043501356001600160401b0381116103a157611705906004369181350101611c3a565b6101808201526024356001600160a01b03811681036103a1576001549060ff8260a01c166106b1577f00000000000000000000000000000000000000000000000000000000000000006001600160a01b031633036106b1576001600160a01b03811615611b0257610120830151805115159081611acf575b5050610140830151805115159081611a9c575b50506101608301515180611a70575b506001600160a01b03199182166001600160a01b039182161760015582516000805490931691161781556040516117d581611b4b565b526040516117e281611b4b565b6000815260608201519060006040516117fa81611b4b565b5260405161180781611b4b565b6000815260808401519160608501519360405161182381611b66565b81815282602082015260006040820152600060608201528360808201528460a0820152600060c08201528560e082015261010042910152600255516003556000600455600060055551600655600755600060085560095542600a5560018060a01b0360208201511660018060a01b03604083015116908160206040516118a881611b82565b83815201526bffffffffffffffffffffffff60a01b600b541617600b556bffffffffffffffffffffffff60a01b600c541617600c55610100810151519081516001600160401b03811161053b57611900600d54611cc5565b601f8111611a0b575b50602092601f8211600114611989579281929360009261197e575b50508160011b916000199060031b1c191617600d555b60ff19600e5416600e5560a08101519060e060c082015191015191611960604051611b9d565b600f556010556011556001805460ff60a01b1916600160a01b179055005b015190508380611924565b601f19821693600d6000527fd7b6990105719101dabeb77144f2a3385c8033acd3af97e9423a695e81ad1eb59160005b8681106119f357508360019596106119da575b505050811b01600d5561193a565b015160001960f88460031b161c191690558380806119cc565b919260206001819286850151815501940192016119b9565b600d6000527fd7b6990105719101dabeb77144f2a3385c8033acd3af97e9423a695e81ad1eb5601f830160051c81019160208410611a66575b601f0160051c01905b818110611a5a5750611909565b60008155600101611a4d565b9091508190611a44565b606084015110611a8a57610160830151516012558361179f565b60405163c9c0f41360e01b8152600490fd5b60ff68ffffffffffffffff00602060145493015160081b1692169068ffffffffffffffffff191617176014558380611790565b60ff68ffffffffffffffff00602060135493015160081b1692169068ffffffffffffffffff19161717601355838061177d565b60405163d2d441ff60e01b8152600490fd5b346103a15760003660031901126103a1576000546001600160a01b03168152602090f35b91906020830192600782101561067e5752565b602081019081106001600160401b0382111761053b57604052565b61012081019081106001600160401b0382111761053b57604052565b604081019081106001600160401b0382111761053b57604052565b606081019081106001600160401b0382111761053b57604052565b61010081019081106001600160401b0382111761053b57604052565b90601f801991011681019081106001600160401b0382111761053b57604052565b600435906001600160a01b03821682036103a157565b35906001600160a01b03821682036103a157565b6001600160401b03811161053b57601f01601f191660200190565b81601f820112156103a157803590611c5182611c1f565b92611c5f6040519485611bd4565b828452602083830101116103a157816000926020809301838601378301015290565b91908260409103126103a157604051611c9981611b82565b809280359081151582036103a15760209183520135906001600160401b03821682036103a15760200152565b90600182811c92168015611cf5575b6020831014611cdf57565b634e487b7160e01b600052602260045260246000fd5b91607f1691611cd4565b60005b838110611d125750506000910152565b8181015183820152602001611d02565b60409160208252611d428151809281602086015260208686019101611cff565b601f01601f1916010190565b60e080918051845260208101516020850152604081015151604085015260608101516060850152608081015151608085015260a081015160a085015260c081015160c08501520151910152565b600781101561067e5760ff8019600e5416911617600e55565b51906001600160a01b03821682036103a157565b91908260209103126103a157604051611de081611b4b565b91518252565b60209182828203126103a15781516001600160401b03928382116103a15701916101809384848403126103a1576040519485018581108382111761053b5760405283518552611e36818501611db4565b81860152611e478360408601611dc8565b6040860152606084015160608601526080840151608086015260a084015160a0860152611e7660c08501611db4565b60c0860152611e8760e08501611db4565b60e086015261010091828501519081116103a157840183601f820112156103a157805190611eb482611c1f565b94611ec26040519687611bd4565b8286528383830101116103a15782611edd9386019101611cff565b830152610120611eee818301611db4565b90830152610140611f00818301611db4565b90830152611f12610160809201611db4565b9082015290565b919082018092116105fb57565b60405190611f3382611bb8565b8160e0600091828152826020820152604051611f4e81611b4b565b8381526040820152826060820152604051611f6881611b4b565b83815260808201528260a08201528260c08201520152565b611f88611f26565b506001546040516316c1973960e01b81526001600160a01b0392831660048201529161010091829184916024918391165afa9182156103ad57600092611fcd57505090565b908092503d8311612057575b611fe38183611bd4565b810191818303126103a15760e0906120346040519361200185611bb8565b825185526020830151602086015261201c8160408501611dc8565b60408601526060830151606086015260808301611dc8565b608084015260a081015160a084015260c081015160c0840152015160e082015290565b503d611fd9565b6040519061206b82611b66565b8161010060009182815260405161208181611b4b565b83815260208201528260408201528260608201526040516120a181611b4b565b83815260808201528260a08201528260c08201528260e08201520152565b6120c761205e565b506040516120d481611b66565b60025481526040516120e581611b4b565b600354815260208201526004546040820152600554606082015260405161210b81611b4b565b6006548152608082015260075460a082015260085460c082015260095460e0820152600a5461010082015290565b919082039182116105fb57565b908160209103126103a1575180151581036103a15790565b818102929181159184041417156105fb57565b600060405161217f81611b4b565b52620f4240908181029181830414901517156105fb57604051906121a282611b4b565b815290565b6000604080516121b681611b9d565b82815282602082015201526040516121cd81611b9d565b600f5481526010546020820152601154604082015290565b906121fd9281519060406020840151930151936126ee565b90565b60405163a9059cbb60e01b60208201526001600160a01b039290921660248301526044808301939093529181526122419161223c606483611bd4565b612767565b565b61224b61205e565b506122546121a7565b612271604060208301519201519161010084019283519142612874565b8051156123ae5761228061205e565b50606083019081511515806123a4575b612310575b50504290526020810151517ff7f050a5e163dbe15fb695b5b2e83ef129fc3565263dc8fc74049d3739e62fde825160c08401519061230a604086015160808701515190604051948594309842879260a094919796959260c0850198855260208501526040840152606083015260808201520152565b0390a290565b620f42409081612324826101f78851612171565b51049161233960c08701926101f78451612171565b5104906040860161234b838251611f19565b9052612358828251612139565b905281612366575b50612295565b61238161239793612378848851612139565b87525183612952565b61239060208701918251612928565b9052612952565b6080830152388080612360565b5080511515612290565b5042905290565b81156123bf570490565b634e487b7160e01b600052601260045260246000fd5b93929190916123e2611f26565b506040850191612406835160006040516123fb81611b4b565b528551905190612139565b6040519061241382611b4b565b815260208701928351938885612433575b50505050505052606082015290565b612446612495946101f761249a98612171565b6124566080830191825190612928565b600060405161246481611b4b565b525161248b620f424060c06040519561247c87611b4b565b82850687520192048251611f19565b905252519061215e565b6123b5565b6124a5818651612139565b6124b460a08701918251611f19565b90528452388080808088612424565b91801580156124e3575b6124de576121fd926124959161215e565b505090565b5082156124cd565b909180158015612529575b6125235761250861250d92849261215e565b611f19565b6000198101919082116105fb576121fd916123b5565b50905090565b5081156124f6565b6001546001600160a01b03908116803b156103a157600092836101249261257360405197889687956360d6081360e11b87521660048601526024850190611d4e565b5af180156103ad576125825750565b6001600160401b03811161053b57604052565b80516002556020810151516003556040810151600455606081015160055560808101515160065560a081015160075560c081015160085560e08101516009556101000151600a55565b60208101908151801561265d575060e0015190816125fb57505050565b51604051631175404360e11b81526001600160a01b0390931660048401526024830152604482015260806064820152601b60848201527f506f736974696f6e2068617320616c726561647920657869746564000000000060a482015260c49150fd5b60e09190910151604051631175404360e11b81526001600160a01b038516600482015260248101929092526044820152608060648201526016608482015275506f736974696f6e20686173206e6f2073686172657360501b60a482015260c490fd5b620f4240916126e09160006040516126d681611b4b565b525190519061215e565b04604051906121a282611b4b565b9291909260078110158061067e576006821490811561275a575b811561274a575b50612742575082101561272457505050600090565b811015612732575050600190565b101561273d57600290565b600390565b935050505090565b905061067e57600581143861270f565b5050600481146000612708565b6040516127e4916001600160a01b031661278082611b82565b6000806020958685527f5361666545524332303a206c6f772d6c6576656c2063616c6c206661696c656487860152868151910182855af13d1561286c573d916127c883611c1f565b926127d66040519485611bd4565b83523d60008785013e612980565b805190828215928315612854575b505050156127fd5750565b6084906040519062461bcd60e51b82526004820152602a60248201527f5361666545524332303a204552433230206f7065726174696f6e20646964206e6044820152691bdd081cdd58d8d9595960b21b6064820152fd5b6128649350820181019101612146565b3882816127f2565b606091612980565b92909192600060405161288681611b4b565b52828110801561291e575b61290c57826128ba938310612904575b50818482116128fc575b6128b491612139565b92612139565b801580156128f4575b6128d0576121fd91612952565b505060006040516128e081611b4b565b526040516128ed81611b4b565b6000815290565b5081156128c3565b8491506128ab565b9150386128a1565b5050505060006040516128e081611b4b565b5083821015612891565b9061294591600060405161293b81611b4b565b5251905190611f19565b604051906121a282611b4b565b90600060405161296181611b4b565b52620f4240918281029281840414901517156105fb57612945916123b5565b919290156129e25750815115612994575090565b3b1561299d5790565b60405162461bcd60e51b815260206004820152601d60248201527f416464726573733a2063616c6c20746f206e6f6e2d636f6e74726163740000006044820152606490fd5b8251909150156129f55750805190602001fd5b60405162461bcd60e51b8152908190612a119060048301611d22565b0390fdfea26469706673582212202da5e405ff8525fea47bd81a20d2b6439d26e1a318b1e555f0b390153aa45ace64736f6c63430008180033",
  "devdoc": {
    "details": "Main contract for managing token streaming with vesting and pool creation capabilities",
    "kind": "dev",
    "methods": {
      "cancelStream()": {
        "details": "Allows the creator to cancel the stream during the Waiting phase"
      },
      "cancelWithAdmin()": {
        "details": "Allows the protocol admin to cancel the stream during Waiting, Bootstrapping, or Active phases"
      },
      "constructor": {
        "details": "Constructor to set the stream factory address",
        "params": {
          "factoryAddress": "Address of the stream factory"
        }
      },
      "exitStream()": {
        "details": "Allows users to exit the stream and receive their tokens based on stream outcome"
      },
      "finalizeStream()": {
        "details": "Allows the creator to finalize the stream after it has ended"
      },
      "getPosition(address)": {
        "details": "Get a user's position information",
        "params": {
          "user": "Address of the user"
        },
        "returns": {
          "_0": "The user's position"
        }
      },
      "getStreamState()": {
        "details": "Get the current stream state",
        "returns": {
          "_0": "The current stream state"
        }
      },
      "getStreamStatus()": {
        "details": "Get the current stream status",
        "returns": {
          "_0": "The current stream status"
        }
      },
      "initialize((address,address,address,uint256,uint256,uint256,uint256,uint256,(string),(bool,uint64),(bool,uint64),(uint256),string),address)": {
        "details": "Initializes the stream with the provided configuration",
        "params": {
          "createStreamMessage": "Stream creation parameters",
          "storageAddress": "Address of the position storage contract"
        }
      },
      "subscribe(uint256)": {
        "details": "Allows users to subscribe to the stream by providing input tokens",
        "params": {
          "amountIn": "Amount of input tokens to subscribe with"
        }
      },
      "syncPositionExternal(address)": {
        "details": "External function to sync a specific user's position",
        "params": {
          "user": "Address of the user whose position should be synced"
        }
      },
      "syncStreamExternal()": {
        "details": "External function to sync the stream state and status"
      },
      "withdraw(uint256)": {
        "details": "Allows users to withdraw their input tokens from the stream",
        "params": {
          "cap": "Amount of input tokens to withdraw"
        }
      }
    },
    "title": "Stream",
    "version": 1
  },
  "userdoc": {
    "kind": "user",
    "methods": {
      "STREAM_FACTORY_ADDRESS()": {
        "notice": "Immutable address of the stream factory that deployed this stream"
      },
      "cancelStream()": {
        "notice": "Only the creator can cancel during Waiting phase"
      },
      "cancelWithAdmin()": {
        "notice": "Only the protocol admin can call this function"
      },
      "creator()": {
        "notice": "Address of the stream creator"
      },
      "exitStream()": {
        "notice": "Users can exit after the stream has ended or been cancelled"
      },
      "finalizeStream()": {
        "notice": "Only the creator can call this function when stream status is Ended"
      },
      "initialize((address,address,address,uint256,uint256,uint256,uint256,uint256,(string),(bool,uint64),(bool,uint64),(uint256),string),address)": {
        "notice": "This function can only be called once by the stream factory"
      },
      "positionStorageAddress()": {
        "notice": "Address of the position storage contract"
      },
      "postStreamActions()": {
        "notice": "Post-stream actions like vesting and pool creation"
      },
      "streamMetadata()": {
        "notice": "Metadata associated with the stream"
      },
      "streamState()": {
        "notice": "Current state of the stream (distribution index, remaining tokens, etc.)"
      },
      "streamStatus()": {
        "notice": "Current status of the stream (Waiting, Bootstrapping, Active, etc.)"
      },
      "streamTimes()": {
        "notice": "Timing information for the stream phases"
      },
      "streamTokens()": {
        "notice": "Token addresses for input and output tokens"
      },
      "subscribe(uint256)": {
        "notice": "Users can subscribe during Bootstrapping or Active phases"
      },
      "syncPositionExternal(address)": {
        "notice": "Anyone can call this to update a user's position based on current stream state"
      },
      "syncStreamExternal()": {
        "notice": "Anyone can call this to update the stream state based on current time"
      },
      "withdraw(uint256)": {
        "notice": "Users can withdraw during Active or Bootstrapping phases"
      }
    },
    "notice": "This contract handles the core streaming logic including subscriptions, withdrawals, exits, and finalization",
    "version": 1
  },
  "storageLayout": {
    "storage": [
      {
        "astId": 2351,
        "contract": "src/Stream.sol:Stream",
        "label": "creator",
        "offset": 0,
        "slot": "0",
        "type": "t_address"
      },
      {
        "astId": 2357,
        "contract": "src/Stream.sol:Stream",
        "label": "positionStorageAddress",
        "offset": 0,
        "slot": "1",
        "type": "t_address"
      },
      {
        "astId": 2360,
        "contract": "src/Stream.sol:Stream",
        "label": "initialized",
        "offset": 20,
        "slot": "1",
        "type": "t_bool"
      },
      {
        "astId": 2364,
        "contract": "src/Stream.sol:Stream",
        "label": "streamState",
        "offset": 0,
        "slot": "2",
        "type": "t_struct(StreamState)8167_storage"
      },
      {
        "astId": 2368,
        "contract": "src/Stream.sol:Stream",
        "label": "streamTokens",
        "offset": 0,
        "slot": "11",
        "type": "t_struct(StreamTokens)8172_storage"
      },
      {
        "astId": 2372,
        "contract": "src/Stream.sol:Stream",
        "label": "streamMetadata",
        "offset": 0,
        "slot": "13",
        "type": "t_struct(StreamMetadata)8146_storage"
      },
      {
        "astId": 2376,
        "contract": "src/Stream.sol:Stream",
        "label": "streamStatus",
        "offset": 0,
        "slot": "14",
        "type": "t_enum(Status)8105"
      },
      {
        "astId": 2380,
        "contract": "src/Stream.sol:Stream",
        "label": "streamTimes",
        "offset": 0,
        "slot": "15",
        "type": "t_struct(StreamTimes)8143_storage"
      },
      {
        "astId": 2384,
        "contract": "src/Stream.sol:Stream",
        "label": "postStreamActions",
        "offset": 0,
        "slot": "18",
        "type": "t_struct(PostStreamActions)8190_storage"
      }
    ],
    "types": {
      "t_address": {
        "encoding": "inplace",
        "label": "address",
        "numberOfBytes": "20"
      },
      "t_bool": {
        "encoding": "inplace",
        "label": "bool",
        "numberOfBytes": "1"
      },
      "t_enum(Status)8105": {
        "encoding": "inplace",
        "label": "enum StreamTypes.Status",
        "numberOfBytes": "1"
      },
      "t_string_storage": {
        "encoding": "bytes",
        "label": "string",
        "numberOfBytes": "32"
      },
      "t_struct(Decimal)6473_storage": {
        "encoding": "inplace",
        "label": "struct Decimal",
        "members": [
          {
            "astId": 6472,
            "contract": "src/Stream.sol:Stream",
            "label": "value",
            "offset": 0,
            "slot": "0",
            "type": "t_uint256"
          }
        ],
        "numberOfBytes": "32"
      },
      "t_struct(PoolInfo)8180_storage": {
        "encoding": "inplace",
        "label": "struct StreamTypes.PoolInfo",
        "members": [
          {
            "astId": 8179,
            "contract": "src/Stream.sol:Stream",
            "label": "poolOutSupplyAmount",
            "offset": 0,
            "slot": "0",
            "type": "t_uint256"
          }
        ],
        "numberOfBytes": "32"
      },
      "t_struct(PostStreamActions)8190_storage": {
        "encoding": "inplace",
        "label": "struct StreamTypes.PostStreamActions",
        "members": [
          {
            "astId": 8183,
            "contract": "src/Stream.sol:Stream",
            "label": "poolInfo",
            "offset": 0,
            "slot": "0",
            "type": "t_struct(PoolInfo)8180_storage"
          },
          {
            "astId": 8186,
            "contract": "src/Stream.sol:Stream",
            "label": "creatorVesting",
            "offset": 0,
            "slot": "1",
            "type": "t_struct(VestingInfo)8177_storage"
          },
          {
            "astId": 8189,
            "contract": "src/Stream.sol:Stream",
            "label": "beneficiaryVesting",
            "offset": 0,
            "slot": "2",
            "type": "t_struct(VestingInfo)8177_storage"
          }
        ],
        "numberOfBytes": "96"
      },
      "t_struct(StreamMetadata)8146_storage": {
        "encoding": "inplace",
        "label": "struct StreamTypes.StreamMetadata",
        "members": [
          {
            "astId": 8145,
            "contract": "src/Stream.sol:Stream",
            "label": "ipfsHash",
            "offset": 0,
            "slot": "0",
            "type": "t_string_storage"
          }
        ],
        "numberOfBytes": "32"
      },
      "t_struct(StreamState)8167_storage": {
        "encoding": "inplace",
        "label": "struct StreamTypes.StreamState",
        "members": [
          {
            "astId": 8148,
            "contract": "src/Stream.sol:Stream",
            "label": "outRemaining",
            "offset": 0,
            "slot": "0",
            "type": "t_uint256"
          },
          {
            "astId": 8151,
            "contract": "src/Stream.sol:Stream",
            "label": "distIndex",
            "offset": 0,
            "slot": "1",
            "type": "t_struct(Decimal)6473_storage"
          },
          {
            "astId": 8153,
            "contract": "src/Stream.sol:Stream",
            "label": "spentIn",
            "offset": 0,
            "slot": "2",
            "type": "t_uint256"
          },
          {
            "astId": 8155,
            "contract": "src/Stream.sol:Stream",
            "label": "shares",
            "offset": 0,
            "slot": "3",
            "type": "t_uint256"
          },
          {
            "astId": 8158,
            "contract": "src/Stream.sol:Stream",
            "label": "currentStreamedPrice",
            "offset": 0,
            "slot": "4",
            "type": "t_struct(Decimal)6473_storage"
          },
          {
            "astId": 8160,
            "contract": "src/Stream.sol:Stream",
            "label": "threshold",
            "offset": 0,
            "slot": "5",
            "type": "t_uint256"
          },
          {
            "astId": 8162,
            "contract": "src/Stream.sol:Stream",
            "label": "inSupply",
            "offset": 0,
            "slot": "6",
            "type": "t_uint256"
          },
          {
            "astId": 8164,
            "contract": "src/Stream.sol:Stream",
            "label": "outSupply",
            "offset": 0,
            "slot": "7",
            "type": "t_uint256"
          },
          {
            "astId": 8166,
            "contract": "src/Stream.sol:Stream",
            "label": "lastUpdated",
            "offset": 0,
            "slot": "8",
            "type": "t_uint256"
          }
        ],
        "numberOfBytes": "288"
      },
      "t_struct(StreamTimes)8143_storage": {
        "encoding": "inplace",
        "label": "struct StreamTypes.StreamTimes",
        "members": [
          {
            "astId": 8138,
            "contract": "src/Stream.sol:Stream",
            "label": "bootstrappingStartTime",
            "offset": 0,
            "slot": "0",
            "type": "t_uint256"
          },
          {
            "astId": 8140,
            "contract": "src/Stream.sol:Stream",
            "label": "streamStartTime",
            "offset": 0,
            "slot": "1",
            "type": "t_uint256"
          },
          {
            "astId": 8142,
            "contract": "src/Stream.sol:Stream",
            "label": "streamEndTime",
            "offset": 0,
            "slot": "2",
            "type": "t_uint256"
          }
        ],
        "numberOfBytes": "96"
      },
      "t_struct(StreamTokens)8172_storage": {
        "encoding": "inplace",
        "label": "struct StreamTypes.StreamTokens",
        "members": [
          {
            "astId": 8169,
            "contract": "src/Stream.sol:Stream",
            "label": "inSupplyToken",
            "offset": 0,
            "slot": "0",
            "type": "t_address"
          },
          {
            "astId": 8171,
            "contract": "src/Stream.sol:Stream",
            "label": "outSupplyToken",
            "offset": 0,
            "slot": "1",
            "type": "t_address"
          }
        ],
        "numberOfBytes": "64"
      },
      "t_struct(VestingInfo)8177_storage": {
        "encoding": "inplace",
        "label": "struct StreamTypes.VestingInfo",
        "members": [
          {
            "astId": 8174,
            "contract": "src/Stream.sol:Stream",
            "label": "isVestingEnabled",
            "offset": 0,
            "slot": "0",
            "type": "t_bool"
          },
          {
            "astId": 8176,
            "contract": "src/Stream.sol:Stream",
            "label": "vestingDuration",
            "offset": 1,
            "slot": "0",
            "type": "t_uint64"
          }
        ],
        "numberOfBytes": "32"
      },
      "t_uint256": {
        "encoding": "inplace",
        "label": "uint256",
        "numberOfBytes": "32"
      },
      "t_uint64": {
        "encoding": "inplace",
        "label": "uint64",
        "numberOfBytes": "8"
      }
    }
  }
}