{
  "address": "0xCC6eb92791cB49CA0fd0aD587B65C8169c023761",
  "abi": [
    {
      "inputs": [
        {
          "internalType": "address",
          "name": "protocolAdmin",
          "type": "address"
        }
      ],
      "stateMutability": "nonpayable",
      "type": "constructor"
    },
    {
      "inputs": [],
      "name": "AlreadyInitialized",
      "type": "error"
    },
    {
      "inputs": [],
      "name": "BootstrappingDurationTooShort",
      "type": "error"
    },
    {
      "inputs": [],
      "name": "ContractFrozen",
      "type": "error"
    },
    {
      "inputs": [
        {
          "internalType": "uint256",
          "name": "expected",
          "type": "uint256"
        },
        {
          "internalType": "uint256",
          "name": "actual",
          "type": "uint256"
        }
      ],
      "name": "IncorrectNativeAmount",
      "type": "error"
    },
    {
      "inputs": [],
      "name": "InvalidAcceptedInSupplyTokens",
      "type": "error"
    },
    {
      "inputs": [],
      "name": "InvalidBootstrappingStartTime",
      "type": "error"
    },
    {
      "inputs": [],
      "name": "InvalidBootstrappingTime",
      "type": "error"
    },
    {
      "inputs": [],
      "name": "InvalidCreator",
      "type": "error"
    },
    {
      "inputs": [],
      "name": "InvalidExitFeeRatio",
      "type": "error"
    },
    {
      "inputs": [],
      "name": "InvalidFeeCollector",
      "type": "error"
    },
    {
      "inputs": [],
      "name": "InvalidImplementationAddress",
      "type": "error"
    },
    {
      "inputs": [],
      "name": "InvalidOutSupplyToken",
      "type": "error"
    },
    {
      "inputs": [],
      "name": "InvalidPoolWrapper",
      "type": "error"
    },
    {
      "inputs": [],
      "name": "InvalidProtocolAdmin",
      "type": "error"
    },
    {
      "inputs": [],
      "name": "InvalidStreamCreationFeeToken",
      "type": "error"
    },
    {
      "inputs": [],
      "name": "InvalidStreamEndTime",
      "type": "error"
    },
    {
      "inputs": [],
      "name": "InvalidStreamImplementationAddress",
      "type": "error"
    },
    {
      "inputs": [],
      "name": "InvalidStreamStartTime",
      "type": "error"
    },
    {
      "inputs": [],
      "name": "InvalidToSVersion",
      "type": "error"
    },
    {
      "inputs": [],
      "name": "InvalidVestingDuration",
      "type": "error"
    },
    {
      "inputs": [],
      "name": "NativeTokenTransferFailed",
      "type": "error"
    },
    {
      "inputs": [],
      "name": "NotAdmin",
      "type": "error"
    },
    {
      "inputs": [],
      "name": "SameInputAndOutputToken",
      "type": "error"
    },
    {
      "inputs": [],
      "name": "StreamAddressPredictionFailed",
      "type": "error"
    },
    {
      "inputs": [],
      "name": "StreamDurationTooShort",
      "type": "error"
    },
    {
      "inputs": [],
      "name": "StreamEndMustBeAfterStart",
      "type": "error"
    },
    {
      "inputs": [],
      "name": "StreamInputTokenNotAccepted",
      "type": "error"
    },
    {
      "inputs": [],
      "name": "StreamStartMustBeAfterBootstrapping",
      "type": "error"
    },
    {
      "inputs": [],
      "name": "TokenTransferFailed",
      "type": "error"
    },
    {
      "inputs": [],
      "name": "WaitingDurationTooShort",
      "type": "error"
    },
    {
      "inputs": [],
      "name": "ZeroOutSupplyNotAllowed",
      "type": "error"
    },
    {
      "anonymous": false,
      "inputs": [
        {
          "indexed": true,
          "internalType": "address",
          "name": "factory",
          "type": "address"
        },
        {
          "indexed": false,
          "internalType": "address[]",
          "name": "tokensAdded",
          "type": "address[]"
        },
        {
          "indexed": false,
          "internalType": "address[]",
          "name": "tokensRemoved",
          "type": "address[]"
        }
      ],
      "name": "AcceptedTokensUpdated",
      "type": "event"
    },
    {
      "anonymous": false,
      "inputs": [
        {
          "indexed": true,
          "internalType": "address",
          "name": "streamAddress",
          "type": "address"
        },
        {
          "indexed": true,
          "internalType": "address",
          "name": "subscriber",
          "type": "address"
        },
        {
          "indexed": false,
          "internalType": "uint256",
          "name": "inBalance",
          "type": "uint256"
        },
        {
          "indexed": false,
          "internalType": "uint256",
          "name": "spentIn",
          "type": "uint256"
        },
        {
          "indexed": false,
          "internalType": "uint256",
          "name": "exitTimestamp",
          "type": "uint256"
        }
      ],
      "name": "ExitRefunded",
      "type": "event"
    },
    {
      "anonymous": false,
      "inputs": [
        {
          "indexed": true,
          "internalType": "address",
          "name": "streamAddress",
          "type": "address"
        },
        {
          "indexed": true,
          "internalType": "address",
          "name": "subscriber",
          "type": "address"
        },
        {
          "indexed": false,
          "internalType": "uint256",
          "name": "purchased",
          "type": "uint256"
        },
        {
          "indexed": false,
          "internalType": "uint256",
          "name": "spentIn",
          "type": "uint256"
        },
        {
          "indexed": false,
          "internalType": "uint256",
          "name": "index",
          "type": "uint256"
        },
        {
          "indexed": false,
          "internalType": "uint256",
          "name": "inBalance",
          "type": "uint256"
        },
        {
          "indexed": false,
          "internalType": "uint256",
          "name": "exitTimestamp",
          "type": "uint256"
        }
      ],
      "name": "ExitStreamed",
      "type": "event"
    },
    {
      "anonymous": false,
      "inputs": [
        {
          "indexed": true,
          "internalType": "address",
          "name": "factory",
          "type": "address"
        },
        {
          "indexed": false,
          "internalType": "address",
          "name": "streamImplementationAddress",
          "type": "address"
        },
        {
          "indexed": false,
          "internalType": "address",
          "name": "poolWrapperAddress",
          "type": "address"
        },
        {
          "indexed": false,
          "internalType": "address",
          "name": "feeCollector",
          "type": "address"
        },
        {
          "indexed": false,
          "internalType": "address",
          "name": "protocolAdmin",
          "type": "address"
        },
        {
          "indexed": false,
          "internalType": "address",
          "name": "streamCreationFeeToken",
          "type": "address"
        },
        {
          "indexed": false,
          "internalType": "address[]",
          "name": "acceptedInSupplyTokens",
          "type": "address[]"
        },
        {
          "indexed": false,
          "internalType": "uint256",
          "name": "streamCreationFee",
          "type": "uint256"
        },
        {
          "indexed": false,
          "internalType": "uint256",
          "name": "exitFeeRatio",
          "type": "uint256"
        },
        {
          "indexed": false,
          "internalType": "uint256",
          "name": "minWaitingDuration",
          "type": "uint256"
        },
        {
          "indexed": false,
          "internalType": "uint256",
          "name": "minBootstrappingDuration",
          "type": "uint256"
        },
        {
          "indexed": false,
          "internalType": "uint256",
          "name": "minStreamDuration",
          "type": "uint256"
        },
        {
          "indexed": false,
          "internalType": "string",
          "name": "tosVersion",
          "type": "string"
        },
        {
          "indexed": false,
          "internalType": "address",
          "name": "vestingAddress",
          "type": "address"
        }
      ],
      "name": "FactoryInitialized",
      "type": "event"
    },
    {
      "anonymous": false,
      "inputs": [
        {
          "indexed": true,
          "internalType": "address",
          "name": "factory",
          "type": "address"
        },
        {
          "indexed": false,
          "internalType": "address",
          "name": "newFeeCollector",
          "type": "address"
        }
      ],
      "name": "FeeCollectorUpdated",
      "type": "event"
    },
    {
      "anonymous": false,
      "inputs": [
        {
          "indexed": true,
          "internalType": "address",
          "name": "streamAddress",
          "type": "address"
        },
        {
          "indexed": true,
          "internalType": "address",
          "name": "creator",
          "type": "address"
        },
        {
          "indexed": false,
          "internalType": "uint256",
          "name": "refundedOutAmount",
          "type": "uint256"
        }
      ],
      "name": "FinalizedRefunded",
      "type": "event"
    },
    {
      "anonymous": false,
      "inputs": [
        {
          "indexed": true,
          "internalType": "address",
          "name": "streamAddress",
          "type": "address"
        },
        {
          "indexed": true,
          "internalType": "address",
          "name": "creator",
          "type": "address"
        },
        {
          "indexed": false,
          "internalType": "uint256",
          "name": "creatorRevenue",
          "type": "uint256"
        },
        {
          "indexed": false,
          "internalType": "uint256",
          "name": "exitFeeAmount",
          "type": "uint256"
        },
        {
          "indexed": false,
          "internalType": "uint256",
          "name": "refundedOutAmount",
          "type": "uint256"
        }
      ],
      "name": "FinalizedStreamed",
      "type": "event"
    },
    {
      "anonymous": false,
      "inputs": [
        {
          "indexed": true,
          "internalType": "address",
          "name": "factory",
          "type": "address"
        },
        {
          "indexed": false,
          "internalType": "bool",
          "name": "frozen",
          "type": "bool"
        }
      ],
      "name": "FrozenStateUpdated",
      "type": "event"
    },
    {
      "anonymous": false,
      "inputs": [
        {
          "indexed": true,
          "internalType": "address",
          "name": "factory",
          "type": "address"
        },
        {
          "indexed": false,
          "internalType": "uint256",
          "name": "streamCreationFee",
          "type": "uint256"
        },
        {
          "indexed": false,
          "internalType": "uint256",
          "name": "exitFeeRatio",
          "type": "uint256"
        },
        {
          "indexed": false,
          "internalType": "uint256",
          "name": "minWaitingDuration",
          "type": "uint256"
        },
        {
          "indexed": false,
          "internalType": "uint256",
          "name": "minBootstrappingDuration",
          "type": "uint256"
        },
        {
          "indexed": false,
          "internalType": "uint256",
          "name": "minStreamDuration",
          "type": "uint256"
        },
        {
          "indexed": false,
          "internalType": "string",
          "name": "tosVersion",
          "type": "string"
        }
      ],
      "name": "ParamsUpdated",
      "type": "event"
    },
    {
      "anonymous": false,
      "inputs": [
        {
          "indexed": true,
          "internalType": "address",
          "name": "factoryAddress",
          "type": "address"
        },
        {
          "indexed": false,
          "internalType": "address",
          "name": "poolWrapper",
          "type": "address"
        }
      ],
      "name": "PoolWrapperUpdated",
      "type": "event"
    },
    {
      "anonymous": false,
      "inputs": [
        {
          "indexed": true,
          "internalType": "address",
          "name": "streamAddress",
          "type": "address"
        },
        {
          "indexed": true,
          "internalType": "address",
          "name": "subscriber",
          "type": "address"
        },
        {
          "indexed": false,
          "internalType": "uint256",
          "name": "positionInBalance",
          "type": "uint256"
        },
        {
          "indexed": false,
          "internalType": "uint256",
          "name": "positionShares",
          "type": "uint256"
        },
        {
          "indexed": false,
          "internalType": "uint256",
          "name": "positionLastUpdateTime",
          "type": "uint256"
        },
        {
          "indexed": false,
          "internalType": "uint256",
          "name": "positionSpentIn",
          "type": "uint256"
        },
        {
          "indexed": false,
          "internalType": "uint256",
          "name": "positionPurchased",
          "type": "uint256"
        },
        {
          "indexed": false,
          "internalType": "uint256",
          "name": "positionIndex",
          "type": "uint256"
        }
      ],
      "name": "PositionSynced",
      "type": "event"
    },
    {
      "anonymous": false,
      "inputs": [
        {
          "indexed": true,
          "internalType": "address",
          "name": "factory",
          "type": "address"
        },
        {
          "indexed": false,
          "internalType": "address",
          "name": "newProtocolAdmin",
          "type": "address"
        }
      ],
      "name": "ProtocolAdminUpdated",
      "type": "event"
    },
    {
      "anonymous": false,
      "inputs": [
        {
          "indexed": true,
          "internalType": "address",
          "name": "streamAddress",
          "type": "address"
        },
        {
          "indexed": false,
          "internalType": "address",
          "name": "creator",
          "type": "address"
        },
        {
          "indexed": false,
          "internalType": "uint256",
          "name": "outSupply",
          "type": "uint256"
        },
        {
          "indexed": false,
          "internalType": "uint8",
          "name": "status",
          "type": "uint8"
        }
      ],
      "name": "StreamCancelled",
      "type": "event"
    },
    {
      "anonymous": false,
      "inputs": [
        {
          "indexed": true,
          "internalType": "address",
          "name": "streamFactoryAddress",
          "type": "address"
        },
        {
          "indexed": false,
          "internalType": "address",
          "name": "streamOutToken",
          "type": "address"
        },
        {
          "indexed": false,
          "internalType": "address",
          "name": "streamInToken",
          "type": "address"
        },
        {
          "indexed": false,
          "internalType": "address",
          "name": "streamAddress",
          "type": "address"
        },
        {
          "indexed": false,
          "internalType": "address",
          "name": "creator",
          "type": "address"
        },
        {
          "indexed": false,
          "internalType": "address",
          "name": "positionStorageAddress",
          "type": "address"
        },
        {
          "indexed": false,
          "internalType": "uint256",
          "name": "streamOutAmount",
          "type": "uint256"
        },
        {
          "indexed": false,
          "internalType": "uint256",
          "name": "bootstrappingStartTime",
          "type": "uint256"
        },
        {
          "indexed": false,
          "internalType": "uint256",
          "name": "streamStartTime",
          "type": "uint256"
        },
        {
          "indexed": false,
          "internalType": "uint256",
          "name": "streamEndTime",
          "type": "uint256"
        },
        {
          "indexed": false,
          "internalType": "uint256",
          "name": "threshold",
          "type": "uint256"
        },
        {
          "indexed": false,
          "internalType": "string",
          "name": "metadataIpfsHash",
          "type": "string"
        },
        {
          "indexed": false,
          "internalType": "string",
          "name": "tosVersion",
          "type": "string"
        },
        {
          "indexed": false,
          "internalType": "uint16",
          "name": "streamId",
          "type": "uint16"
        }
      ],
      "name": "StreamCreated",
      "type": "event"
    },
    {
      "anonymous": false,
      "inputs": [
        {
          "indexed": true,
          "internalType": "address",
          "name": "streamAddress",
          "type": "address"
        },
        {
          "indexed": false,
          "internalType": "string",
          "name": "metadataIpfsHash",
          "type": "string"
        }
      ],
      "name": "StreamMetadataUpdated",
      "type": "event"
    },
    {
      "anonymous": false,
      "inputs": [
        {
          "indexed": true,
          "internalType": "address",
          "name": "streamAddress",
          "type": "address"
        },
        {
          "indexed": false,
          "internalType": "uint256",
          "name": "lastUpdated",
          "type": "uint256"
        },
        {
          "indexed": false,
          "internalType": "uint256",
          "name": "distIndex",
          "type": "uint256"
        },
        {
          "indexed": false,
          "internalType": "uint256",
          "name": "outRemaining",
          "type": "uint256"
        },
        {
          "indexed": false,
          "internalType": "uint256",
          "name": "inSupply",
          "type": "uint256"
        },
        {
          "indexed": false,
          "internalType": "uint256",
          "name": "spentIn",
          "type": "uint256"
        },
        {
          "indexed": false,
          "internalType": "uint256",
          "name": "currentStreamedPrice",
          "type": "uint256"
        }
      ],
      "name": "StreamStateUpdated",
      "type": "event"
    },
    {
      "anonymous": false,
      "inputs": [
        {
          "indexed": true,
          "internalType": "address",
          "name": "streamAddress",
          "type": "address"
        },
        {
          "indexed": false,
          "internalType": "uint256",
          "name": "lastUpdated",
          "type": "uint256"
        },
        {
          "indexed": false,
          "internalType": "uint8",
          "name": "newStatus",
          "type": "uint8"
        },
        {
          "indexed": false,
          "internalType": "uint256",
          "name": "distIndex",
          "type": "uint256"
        },
        {
          "indexed": false,
          "internalType": "uint256",
          "name": "outRemaining",
          "type": "uint256"
        },
        {
          "indexed": false,
          "internalType": "uint256",
          "name": "inSupply",
          "type": "uint256"
        },
        {
          "indexed": false,
          "internalType": "uint256",
          "name": "spentIn",
          "type": "uint256"
        },
        {
          "indexed": false,
          "internalType": "uint256",
          "name": "currentStreamedPrice",
          "type": "uint256"
        }
      ],
      "name": "StreamSynced",
      "type": "event"
    },
    {
      "anonymous": false,
      "inputs": [
        {
          "indexed": true,
          "internalType": "address",
          "name": "streamAddress",
          "type": "address"
        },
        {
          "indexed": true,
          "internalType": "address",
          "name": "subscriber",
          "type": "address"
        },
        {
          "indexed": false,
          "internalType": "uint256",
          "name": "positionInBalance",
          "type": "uint256"
        },
        {
          "indexed": false,
          "internalType": "uint256",
          "name": "positionShares",
          "type": "uint256"
        },
        {
          "indexed": false,
          "internalType": "uint256",
          "name": "positionLastUpdateTime",
          "type": "uint256"
        },
        {
          "indexed": false,
          "internalType": "uint256",
          "name": "positionSpentIn",
          "type": "uint256"
        },
        {
          "indexed": false,
          "internalType": "uint256",
          "name": "positionPurchased",
          "type": "uint256"
        },
        {
          "indexed": false,
          "internalType": "uint256",
          "name": "positionIndex",
          "type": "uint256"
        },
        {
          "indexed": false,
          "internalType": "uint256",
          "name": "streamInSupply",
          "type": "uint256"
        },
        {
          "indexed": false,
          "internalType": "uint256",
          "name": "streamShares",
          "type": "uint256"
        }
      ],
      "name": "Subscribed",
      "type": "event"
    },
    {
      "anonymous": false,
      "inputs": [
        {
          "indexed": true,
          "internalType": "address",
          "name": "factoryAddress",
          "type": "address"
        },
        {
          "indexed": false,
          "internalType": "address",
          "name": "vestingContract",
          "type": "address"
        }
      ],
      "name": "VestingContractDeployed",
      "type": "event"
    },
    {
      "anonymous": false,
      "inputs": [
        {
          "indexed": true,
          "internalType": "address",
          "name": "streamAddress",
          "type": "address"
        },
        {
          "indexed": true,
          "internalType": "address",
          "name": "subscriber",
          "type": "address"
        },
        {
          "indexed": false,
          "internalType": "uint256",
          "name": "positionInBalance",
          "type": "uint256"
        },
        {
          "indexed": false,
          "internalType": "uint256",
          "name": "positionShares",
          "type": "uint256"
        },
        {
          "indexed": false,
          "internalType": "uint256",
          "name": "positionLastUpdateTime",
          "type": "uint256"
        },
        {
          "indexed": false,
          "internalType": "uint256",
          "name": "positionSpentIn",
          "type": "uint256"
        },
        {
          "indexed": false,
          "internalType": "uint256",
          "name": "positionPurchased",
          "type": "uint256"
        },
        {
          "indexed": false,
          "internalType": "uint256",
          "name": "positionIndex",
          "type": "uint256"
        },
        {
          "indexed": false,
          "internalType": "uint256",
          "name": "streamInSupply",
          "type": "uint256"
        },
        {
          "indexed": false,
          "internalType": "uint256",
          "name": "streamShares",
          "type": "uint256"
        }
      ],
      "name": "Withdrawn",
      "type": "event"
    },
    {
      "inputs": [
        {
          "internalType": "address",
          "name": "",
          "type": "address"
        }
      ],
      "name": "acceptedInSupplyTokens",
      "outputs": [
        {
          "internalType": "bool",
          "name": "",
          "type": "bool"
        }
      ],
      "stateMutability": "view",
      "type": "function"
    },
    {
      "inputs": [
        {
          "components": [
            {
              "internalType": "address",
              "name": "creator",
              "type": "address"
            },
            {
              "internalType": "address",
              "name": "inSupplyToken",
              "type": "address"
            },
            {
              "internalType": "address",
              "name": "outSupplyToken",
              "type": "address"
            },
            {
              "internalType": "uint256",
              "name": "streamOutAmount",
              "type": "uint256"
            },
            {
              "internalType": "uint256",
              "name": "threshold",
              "type": "uint256"
            },
            {
              "internalType": "uint256",
              "name": "bootstrappingStartTime",
              "type": "uint256"
            },
            {
              "internalType": "uint256",
              "name": "streamStartTime",
              "type": "uint256"
            },
            {
              "internalType": "uint256",
              "name": "streamEndTime",
              "type": "uint256"
            },
            {
              "components": [
                {
                  "internalType": "string",
                  "name": "ipfsHash",
                  "type": "string"
                }
              ],
              "internalType": "struct StreamTypes.StreamMetadata",
              "name": "metadata",
              "type": "tuple"
            },
            {
              "components": [
                {
                  "internalType": "bool",
                  "name": "isVestingEnabled",
                  "type": "bool"
                },
                {
                  "internalType": "uint64",
                  "name": "vestingDuration",
                  "type": "uint64"
                }
              ],
              "internalType": "struct StreamTypes.VestingInfo",
              "name": "creatorVesting",
              "type": "tuple"
            },
            {
              "components": [
                {
                  "internalType": "bool",
                  "name": "isVestingEnabled",
                  "type": "bool"
                },
                {
                  "internalType": "uint64",
                  "name": "vestingDuration",
                  "type": "uint64"
                }
              ],
              "internalType": "struct StreamTypes.VestingInfo",
              "name": "beneficiaryVesting",
              "type": "tuple"
            },
            {
              "components": [
                {
                  "internalType": "uint256",
                  "name": "poolOutSupplyAmount",
                  "type": "uint256"
                }
              ],
              "internalType": "struct StreamTypes.PoolInfo",
              "name": "poolInfo",
              "type": "tuple"
            },
            {
              "internalType": "string",
              "name": "tosVersion",
              "type": "string"
            }
          ],
          "internalType": "struct StreamTypes.CreateStreamMessage",
          "name": "createStreamMessage",
          "type": "tuple"
        }
      ],
      "name": "createStream",
      "outputs": [],
      "stateMutability": "payable",
      "type": "function"
    },
    {
      "inputs": [],
      "name": "currentStreamId",
      "outputs": [
        {
          "internalType": "uint16",
          "name": "",
          "type": "uint16"
        }
      ],
      "stateMutability": "view",
      "type": "function"
    },
    {
      "inputs": [],
      "name": "frozen",
      "outputs": [
        {
          "internalType": "bool",
          "name": "",
          "type": "bool"
        }
      ],
      "stateMutability": "view",
      "type": "function"
    },
    {
      "inputs": [],
      "name": "getAcceptedInSupplyTokens",
      "outputs": [
        {
          "internalType": "address[]",
          "name": "",
          "type": "address[]"
        }
      ],
      "stateMutability": "view",
      "type": "function"
    },
    {
      "inputs": [],
      "name": "getParams",
      "outputs": [
        {
          "components": [
            {
              "internalType": "uint256",
              "name": "streamCreationFee",
              "type": "uint256"
            },
            {
              "internalType": "address",
              "name": "streamCreationFeeToken",
              "type": "address"
            },
            {
              "components": [
                {
                  "internalType": "uint256",
                  "name": "value",
                  "type": "uint256"
                }
              ],
              "internalType": "struct Decimal",
              "name": "exitFeeRatio",
              "type": "tuple"
            },
            {
              "internalType": "uint256",
              "name": "minWaitingDuration",
              "type": "uint256"
            },
            {
              "internalType": "uint256",
              "name": "minBootstrappingDuration",
              "type": "uint256"
            },
            {
              "internalType": "uint256",
              "name": "minStreamDuration",
              "type": "uint256"
            },
            {
              "internalType": "address",
              "name": "feeCollector",
              "type": "address"
            },
            {
              "internalType": "address",
              "name": "protocolAdmin",
              "type": "address"
            },
            {
              "internalType": "string",
              "name": "tosVersion",
              "type": "string"
            },
            {
              "internalType": "address",
              "name": "vestingFactoryAddress",
              "type": "address"
            },
            {
              "internalType": "address",
              "name": "poolWrapperAddress",
              "type": "address"
            },
            {
              "internalType": "address",
              "name": "streamImplementationAddress",
              "type": "address"
            }
          ],
          "internalType": "struct StreamFactoryTypes.Params",
          "name": "",
          "type": "tuple"
        }
      ],
      "stateMutability": "view",
      "type": "function"
    },
    {
      "inputs": [
        {
          "internalType": "uint16",
          "name": "streamId",
          "type": "uint16"
        }
      ],
      "name": "getStream",
      "outputs": [
        {
          "internalType": "address",
          "name": "",
          "type": "address"
        }
      ],
      "stateMutability": "view",
      "type": "function"
    },
    {
      "inputs": [],
      "name": "getStreams",
      "outputs": [
        {
          "internalType": "address[]",
          "name": "",
          "type": "address[]"
        }
      ],
      "stateMutability": "view",
      "type": "function"
    },
    {
      "inputs": [
        {
          "components": [
            {
              "internalType": "uint256",
              "name": "streamCreationFee",
              "type": "uint256"
            },
            {
              "internalType": "address",
              "name": "streamCreationFeeToken",
              "type": "address"
            },
            {
              "components": [
                {
                  "internalType": "uint256",
                  "name": "value",
                  "type": "uint256"
                }
              ],
              "internalType": "struct Decimal",
              "name": "exitFeeRatio",
              "type": "tuple"
            },
            {
              "internalType": "uint256",
              "name": "minWaitingDuration",
              "type": "uint256"
            },
            {
              "internalType": "uint256",
              "name": "minBootstrappingDuration",
              "type": "uint256"
            },
            {
              "internalType": "uint256",
              "name": "minStreamDuration",
              "type": "uint256"
            },
            {
              "internalType": "address",
              "name": "feeCollector",
              "type": "address"
            },
            {
              "internalType": "address",
              "name": "protocolAdmin",
              "type": "address"
            },
            {
              "internalType": "string",
              "name": "tosVersion",
              "type": "string"
            },
            {
              "internalType": "address",
              "name": "poolWrapperAddress",
              "type": "address"
            },
            {
              "internalType": "address",
              "name": "streamImplementationAddress",
              "type": "address"
            },
            {
              "internalType": "address[]",
              "name": "acceptedInSupplyTokens",
              "type": "address[]"
            }
          ],
          "internalType": "struct StreamFactoryTypes.InitializeStreamMessage",
          "name": "initializeStreamMessage",
          "type": "tuple"
        }
      ],
      "name": "initialize",
      "outputs": [],
      "stateMutability": "nonpayable",
      "type": "function"
    },
    {
      "inputs": [],
      "name": "initialized",
      "outputs": [
        {
          "internalType": "bool",
          "name": "",
          "type": "bool"
        }
      ],
      "stateMutability": "view",
      "type": "function"
    },
    {
      "inputs": [
        {
          "internalType": "address",
          "name": "token",
          "type": "address"
        }
      ],
      "name": "isAcceptedInSupplyToken",
      "outputs": [
        {
          "internalType": "bool",
          "name": "",
          "type": "bool"
        }
      ],
      "stateMutability": "view",
      "type": "function"
    },
    {
      "inputs": [
        {
          "internalType": "address",
          "name": "streamAddress",
          "type": "address"
        }
      ],
      "name": "isStream",
      "outputs": [
        {
          "internalType": "bool",
          "name": "",
          "type": "bool"
        }
      ],
      "stateMutability": "view",
      "type": "function"
    },
    {
      "inputs": [],
      "name": "params",
      "outputs": [
        {
          "internalType": "uint256",
          "name": "streamCreationFee",
          "type": "uint256"
        },
        {
          "internalType": "address",
          "name": "streamCreationFeeToken",
          "type": "address"
        },
        {
          "components": [
            {
              "internalType": "uint256",
              "name": "value",
              "type": "uint256"
            }
          ],
          "internalType": "struct Decimal",
          "name": "exitFeeRatio",
          "type": "tuple"
        },
        {
          "internalType": "uint256",
          "name": "minWaitingDuration",
          "type": "uint256"
        },
        {
          "internalType": "uint256",
          "name": "minBootstrappingDuration",
          "type": "uint256"
        },
        {
          "internalType": "uint256",
          "name": "minStreamDuration",
          "type": "uint256"
        },
        {
          "internalType": "address",
          "name": "feeCollector",
          "type": "address"
        },
        {
          "internalType": "address",
          "name": "protocolAdmin",
          "type": "address"
        },
        {
          "internalType": "string",
          "name": "tosVersion",
          "type": "string"
        },
        {
          "internalType": "address",
          "name": "vestingFactoryAddress",
          "type": "address"
        },
        {
          "internalType": "address",
          "name": "poolWrapperAddress",
          "type": "address"
        },
        {
          "internalType": "address",
          "name": "streamImplementationAddress",
          "type": "address"
        }
      ],
      "stateMutability": "view",
      "type": "function"
    },
    {
      "inputs": [
        {
          "internalType": "bool",
          "name": "isFrozen",
          "type": "bool"
        }
      ],
      "name": "setFrozen",
      "outputs": [],
      "stateMutability": "nonpayable",
      "type": "function"
    },
    {
      "inputs": [
        {
          "internalType": "uint16",
          "name": "",
          "type": "uint16"
        }
      ],
      "name": "streamAddresses",
      "outputs": [
        {
          "internalType": "address",
          "name": "",
          "type": "address"
        }
      ],
      "stateMutability": "view",
      "type": "function"
    },
    {
      "inputs": [
        {
          "internalType": "address[]",
          "name": "tokensToAdd",
          "type": "address[]"
        },
        {
          "internalType": "address[]",
          "name": "tokensToRemove",
          "type": "address[]"
        }
      ],
      "name": "updateAcceptedTokens",
      "outputs": [],
      "stateMutability": "nonpayable",
      "type": "function"
    },
    {
      "inputs": [
        {
          "components": [
            {
              "internalType": "uint256",
              "name": "value",
              "type": "uint256"
            }
          ],
          "internalType": "struct Decimal",
          "name": "exitFeeRatio",
          "type": "tuple"
        }
      ],
      "name": "updateExitFeeRatio",
      "outputs": [],
      "stateMutability": "nonpayable",
      "type": "function"
    },
    {
      "inputs": [
        {
          "internalType": "address",
          "name": "feeCollector",
          "type": "address"
        }
      ],
      "name": "updateFeeCollector",
      "outputs": [],
      "stateMutability": "nonpayable",
      "type": "function"
    },
    {
      "inputs": [
        {
          "internalType": "uint256",
          "name": "minBootstrappingDuration",
          "type": "uint256"
        }
      ],
      "name": "updateMinBootstrappingDuration",
      "outputs": [],
      "stateMutability": "nonpayable",
      "type": "function"
    },
    {
      "inputs": [
        {
          "internalType": "uint256",
          "name": "minStreamDuration",
          "type": "uint256"
        }
      ],
      "name": "updateMinStreamDuration",
      "outputs": [],
      "stateMutability": "nonpayable",
      "type": "function"
    },
    {
      "inputs": [
        {
          "internalType": "uint256",
          "name": "minWaitingDuration",
          "type": "uint256"
        }
      ],
      "name": "updateMinWaitingDuration",
      "outputs": [],
      "stateMutability": "nonpayable",
      "type": "function"
    },
    {
      "inputs": [
        {
          "internalType": "address",
          "name": "poolWrapper",
          "type": "address"
        }
      ],
      "name": "updatePoolWrapper",
      "outputs": [],
      "stateMutability": "nonpayable",
      "type": "function"
    },
    {
      "inputs": [
        {
          "internalType": "address",
          "name": "protocolAdmin",
          "type": "address"
        }
      ],
      "name": "updateProtocolAdmin",
      "outputs": [],
      "stateMutability": "nonpayable",
      "type": "function"
    },
    {
      "inputs": [
        {
          "internalType": "uint256",
          "name": "streamCreationFee",
          "type": "uint256"
        }
      ],
      "name": "updateStreamCreationFee",
      "outputs": [],
      "stateMutability": "nonpayable",
      "type": "function"
    },
    {
      "inputs": [
        {
          "internalType": "address",
          "name": "streamCreationFeeToken",
          "type": "address"
        }
      ],
      "name": "updateStreamCreationFeeToken",
      "outputs": [],
      "stateMutability": "nonpayable",
      "type": "function"
    },
    {
      "inputs": [
        {
          "internalType": "address",
          "name": "implementation",
          "type": "address"
        }
      ],
      "name": "updateStreamImplementation",
      "outputs": [],
      "stateMutability": "nonpayable",
      "type": "function"
    },
    {
      "inputs": [
        {
          "internalType": "string",
          "name": "tosVersion",
          "type": "string"
        }
      ],
      "name": "updateTosVersion",
      "outputs": [],
      "stateMutability": "nonpayable",
      "type": "function"
    }
  ],
  "transactionHash": "0x9e61250c67fba77b53f01c77db53594dcd7071ebc66025f2837802cc76424595",
  "args": [
    "0xB4eE189569597EFDB3bB48DB5ede8394d1D48e7b"
  ],
  "numDeployments": 1,
  "solcInputHash": "c9c117da4fe608ca83f0199fbb0da0f8",
  "bytecode": "0x60803461008e57601f62003d6438819003918201601f19168301916001600160401b038311848410176100935780849260209460405283398101031261008e57516001600160a01b0381169081900361008e57801561007c57600980546001600160a01b031916919091179055604051613cba9081620000aa8239f35b604051632bf75bc360e21b8152600490fd5b600080fd5b634e487b7160e01b600052604160045260246000fdfe60808060405260043610156200001457600080fd5b600090813560e01c908163054f7d9c1462001e975750806314d98de51462001e73578063158ef93e1462001e4b5780631629461b14620017dc5780631c2a28f714620016de57806333907d1e14620017205780635a91b3b214620016de5780635e615a6b14620014d55780636514b2da1462001440578063774ef43b1462000de75780637c526bb314620013025780637e932d32146200128f5780637f2e72ed146200122e5780638bd999fd14620011ce57806394558e291462001152578063ae383c0c14620010f2578063bfb7922414620010be578063c1d3be8b146200102e578063cff0ab961462000f54578063d04fed631462000ebb578063d2c35ce81462000e2a578063e899f3d71462000de7578063e8aa8e5e1462000d87578063f21e20061462000ba7578063f3425b1014620002a8578063fd05bcc2146200020b5763fd7917f7146200016657600080fd5b346200020857602036600319011262000208576200018362001f2b565b6009546001600160a01b03919082163303620001f657168015620001e457806001600160601b0360a01b600c541617600c556040519081527f0e68834ff868f2c0042bd32422f7e8ce1ebbc6341974bb698c0f89a7a29f1f6a60203092a280f35b60405163405b556360e11b8152600490fd5b604051637bfa4b9f60e01b8152600490fd5b80fd5b50346200020857602036600319011262000208576040516200022d8162001eed565b60043581526009546001600160a01b03163303620001f6576200024f62002409565b81519051106200029657518060045560008051602062003c658339815191526002549160055490620002906006546007549060405194859430988662002258565b0390a280f35b604051632aa4e67b60e01b8152600490fd5b50602036600319011262000208576001600160401b036004351162000208576101e06004353603600319011262000208576040516101a081018181106001600160401b0382111762000b93576040526200030760043560040162001f47565b81526200031960246004350162001f47565b60208201526200032e60446004350162001f47565b6040820152600435606481013560608301526084810135608083015260a481013560a083015260c481013560c083015260e481013560e083015261010401356001600160401b03811162000b8f57602060043582013603600319011262000b8f57604051906200039e8262001eed565b6004818135010135906001600160401b038211620009ae576004620003ca923692823501010162001f99565b8152610100820152620003e43661012460043501620021a4565b610120820152620003fc3661016460043501620021a4565b61014082015262000414366101a46004350162001f5c565b6101608201526101c460043501356001600160401b03811162000b8f576200044490600436918135010162001f99565b61018082015260ff600f541662000b7d5760608101511562000b6b5760408101516001600160a01b03161562000b595780516001600160a01b03161562000b47576020818101516001600160a01b03168352829052604082205460ff161562000b3557602081015160408201516001600160a01b0390811691161462000b2357620004d461012082015162002431565b620004e461014082015162002431565b60a081015160c082015160e083015182421162000b115781831162000aff5780821162000aed578162000517916200246e565b6007541162000adb57816200052c916200246e565b6006541162000ac957620005429042906200246e565b6005541162000ab7576101808101516040516200057f602082816200057181830196878151938492016200203d565b810103808452018262001f09565b519020604051600a5481856200059583620020bc565b926001811690811562000a97575060011462000a49575b620005c1925003601f19810183528262001f09565b602081519101200362000a3757600354600254620005ea9133906001600160a01b031662002492565b6003546008546002546200060d9290916001600160a01b03908116911662002562565b600d54608881901c62ffffff16763d602d80600a3d3981f3363d3d373d3d3d363d7300000017835260781b6effffffffffffffffffffffffffffff19166e5af43d82803e903d91602b57fd5bf3176020526001600160a01b036037600984f0168015620009f957604051806105cb8101106001600160401b036105cb83011117620009e5576105cb6200367a82396105cb81018281528190036020019084f08015620009da576001549261ffff80851614620009c65761ffff6001818616011661ffff1985161760015561ffff84168552600e60205260408520836001600160601b0360a01b8254161790556060810151610160820151518101809111620009b257806200072d62000743923360018060a01b0360408701511662002492565b604083015185906001600160a01b031662002562565b823b15620009ae5760408051630170627160e31b81526004810182905282516001600160a01b0390811660448301526020808501518216606484015292840151166084820152606083015160a4820152608083015160c482015260a083015160e482015260c083015161010482015260e08301516101248201526101008301516101e061014483015251610224820192909252908690829081906200085f90620007f39061024484019062002062565b61012087015180511515610164850152602001516001600160401b0316610184840152610140870151805115156101a4850152602001516001600160401b03166101c4840152610160870151516101e48401526101808701518382036043190161020485015262002062565b6001600160a01b0387166024830152038183885af18015620009a3576200096f575b506200095e6200094f7f1d8516ec56b1281623aae1185f9b8f9f8a54fdd2ca3b48a4206a9228d500bf76949361ffff9360018060a01b036040820151169560018060a01b036020830151169260018060a01b0383511690606084015160a08501519160c08601519360e0870151956101006080890151980151519860206040519e8f908152015260408d015260608c015260018060a01b031660808b015260a08a015260c089015260e08801526101008701526101208601526101a06101408601526101a085019062002062565b838103610160850152620020f9565b93166101808201528030930390a280f35b6001600160401b0381969296116200098f57604052936200095e62000881565b634e487b7160e01b82526041600452602482fd5b6040513d88823e3d90fd5b8480fd5b634e487b7160e01b86526011600452602486fd5b634e487b7160e01b85526011600452602485fd5b6040513d85823e3d90fd5b634e487b7160e01b84526041600452602484fd5b60405162461bcd60e51b8152602060048201526016602482015275115490cc4c4d8dce8818dc99585d194819985a5b195960521b6044820152606490fd5b604051635d0b6cc760e01b8152600490fd5b5050600a8552818560008051602062003c458339815191525b83821062000a7c5750506020620005c192820101620005ac565b60209192508060019154838588010152019101839162000a62565b60209250620005c194915060ff19168284015280151502820101620005ac565b604051635bdfbd0360e11b8152600490fd5b6040516372904fb160e01b8152600490fd5b6040516318861b4960e01b8152600490fd5b6040516349f8456b60e11b8152600490fd5b604051633060050d60e21b8152600490fd5b6040516341f01d5760e01b8152600490fd5b604051638b1202a160e01b8152600490fd5b60405163cc3ca47b60e01b8152600490fd5b6040516332db94d160e21b8152600490fd5b6040516372146d6160e11b8152600490fd5b604051634d5bb2d560e11b8152600490fd5b604051634051e96160e01b8152600490fd5b8280fd5b634e487b7160e01b83526041600452602483fd5b5034620002085760208060031936011262000d83576001600160401b039060043582811162000d7f5762000be090369060040162001f99565b6009549092906001600160a01b03163303620001f6578251908111620009e55762000c0d600a54620020bc565b601f811162000d29575b5081601f821160011462000ca557908060008051602062003c658339815191529392869162000c99575b508160011b916000199060031b1c191617600a555b60025490600454600554600654916007549360405195865285015260408401526060830152608082015260c060a08201528062000290309460c083019062002062565b90508401513862000c41565b600a855260008051602062003c4583398151915290601f198316865b81811062000d11575091839160008051602062003c6583398151915295946001941062000cf7575b5050811b01600a5562000c56565b86015160001960f88460031b161c19169055388062000ce9565b91928560018192868a01518155019401920162000cc1565b600a855260008051602062003c45833981519152601f830160051c81019184841062000d74575b601f0160051c01905b81811062000d68575062000c17565b85815560010162000d59565b909150819062000d50565b8380fd5b5080fd5b5034620002085760203660031901126200020857600954600435906001600160a01b03163303620001f6578060055560008051602062003c6583398151915260025491600454620002906006546007549060405194859430988662002258565b503462000208576020366003190112620002085760043561ffff811680910362000d8357906020918152600e8252604060018060a01b0391205416604051908152f35b503462000208576020366003190112620002085762000e4862001f2b565b6009546001600160a01b03919082163303620001f65716801562000ea957806001600160601b0360a01b60085416176008556040519081527f5d16ad41baeb009cd23eb8f6c7cde5c2e0cd5acf4a33926ab488875c37c37f3860203092a280f35b60405163bb0bac9960e01b8152600490fd5b5034620002085780600319360112620002085761ffff906001826001541662000ee48162002220565b9280835b62000f0a575b6040516020808252819062000f069082018862001ffe565b0390f35b8581168381101562000f4d57808352600e602052604083205485949392889286926001600160a01b03169062000f41908a620021f5565b52011690919262000ee8565b5062000eee565b503462000208578060031936011262000208576002546003546040516001600160a01b039182169260209290919062000f8d8262001eed565b600454825262001017600554936006549060075484600854168560095416916040519462000fc88662000fc081620020f9565b038762001f09565b87600b54169988600c541698600d5416996040519d8e9d8e61018099815201525160408d015260608c015260808b015260a08a015260c089015260e08801528061010088015286019062002062565b926101208501526101408401526101608301520390f35b50346200020857602036600319011262000208576200104c62001f2b565b600954906001600160a01b03908183163303620001f65716908115620010ac576001600160a01b031916811760095560405190815230907f96c81c3f4599d5ad4b4ce465555174670819d69aa61f97cf8fdf4b80c1fbb32590602090a280f35b604051632bf75bc360e21b8152600490fd5b50346200020857602036600319011262000208576020620010e8620010e262001f2b565b6200239f565b6040519015158152f35b5034620002085760203660031901126200020857600954600435906001600160a01b03163303620001f6578060075560008051602062003c6583398151915260025491600454620002906005549260065460405194859430988662002258565b50346200020857602036600319011262000208576200117062001f2b565b6009546001600160a01b03919082163303620001f657166001600160601b0360a01b600354161760035560025460008051602062003c6583398151915260045460055490620002906006546007549060405194859430988662002258565b5034620002085760203660031901126200020857600954600435906001600160a01b03163303620001f6578060025560008051602062003c6583398151915260045460055490620002906006546007549060405194859430988662002258565b5034620002085760203660031901126200020857600954600435906001600160a01b03163303620001f6578060065560008051602062003c658339815191526002549160045462000290600554926007549060405194859430988662002258565b503462000208576020366003190112620002085760043580151580910362000d83576009546001600160a01b03163303620001f65760ff19600f541660ff821617600f556040519081527fc08a1a38ceb2f9f45e15007131834153026896150e4400ab4000fd1b131fb1db60203092a280f35b50346200020857604036600319011262000208576001600160401b039060043582811162000d83576200133a90369060040162002089565b909260243590811162000b8f576200135790369060040162002089565b60095490949192906001600160a01b039081163303620001f657845b8281106200140f5750845b868110620013da575050620002907f640a0a596c3bc7f91bc26965ed05efb8d3017a25c7b1822ba2ca3e33b2743cd5939495620013c960405194859460408652604086019162002357565b908382036020850152309662002357565b8082620013f5620013ef6001948b8a62002331565b62002342565b168752866020526040872060ff198154169055016200137e565b808262001424620013ef600194878962002331565b16875286602052604087208260ff198254161790550162001373565b50346200020857602036600319011262000208576200145e62001f2b565b6009546001600160a01b03919082163303620001f657168015620014c3576001600160601b0360a01b600d541617600d5560025460008051602062003c6583398151915260045460055490620002906006546007549060405194859430988662002258565b60405163325c055b60e21b8152600490fd5b50346200020857806003193601126200020857610160604051620014f98162001eba565b828152826020820152604051620015108162001eed565b83815260408201528260608201528260808201528260a08201528260c08201528260e08201526060610100820152826101208201528261014082015201526040516200155c8162001eba565b60025481526003546001600160a01b03166020820152604051620015808162001eed565b60045481526040828101919091526005546060830152600654608083015260075460a08301526008546001600160a01b0390811660c08401526009541660e083015251620015db81620015d381620020f9565b038262001f09565b61010082015260018060a01b03600b541661012082015260018060a01b03600c541661014082015260018060a01b03600d54166101608201526040518091602082528051602083015260018060a01b036020820151166040830152604081015151606083015260608101516080830152608081015160a083015260a081015160c083015260018060a01b0360c08201511660e083015260018060a01b0360e082015116610100830152610100810151620016a561018091826101208601526101a085019062002062565b6101208301516001600160a01b039081166101408681019190915284015181166101608087019190915290930151909216908301520390f35b503462000208576020366003190112620002085760209060ff906040906001600160a01b036200170d62001f2b565b1681528084522054166040519015158152f35b5034620002085780600319360112620002085761ffff9060018260015416916200174a8362002220565b9281835b6200176b576040516020808252819062000f069082018862001ffe565b8581168281101562000f4d5784849392828993839752600e60209080825260018060a01b03908160408a205416895288835260ff60408a205416620017ba575b5050505001169091926200174e565b620017d192848a5252604088205416918a620021f5565b5238808080620017ab565b5034620002085760031960203682011262000d83576001600160401b036004351162000d83576101809060043536030112620002085760405190620018218262001eba565b6004356004013582526200183a60246004350162001f47565b6020830152620018503660446004350162001f5c565b6040830152600435606481013560608401526084810135608084015260a481013560a0840152620018849060c40162001f47565b60c08301526200189960e46004350162001f47565b60e083015261010460043501356001600160401b03811162000d8357620018c890600436918135010162001f99565b610100830152620018df6101246004350162001f47565b610120830152620018f66101446004350162001f47565b61014083015261016460043501356001600160401b03811162000d8357366023826004350101121562000d83576004818135010135620019368162001fe6565b9162001946604051938462001f09565b81835260208301903660248460051b8360043501010111620009ae57906024826004350101915b60248460051b82600435010101831062001e2c57505050506101608301526009546001600160a01b03163303620001f65760ff600f5460081c1662001e1b576040820151620019bb62002409565b90519051106200029657610160820151511562001e09576101408201516001600160a01b03161562001df7576101208201516001600160a01b031615620001e45760405180610ed08101106001600160401b03610ed0830111176200098f57610ed0620027aa823980610ed08101039082f0801562001dea576040516001600160a01b038216815230907f739fe22b8edefd6ce1fe32460f9cd54bf8e66fc7447f4c8a8131ce078a1988af90602090a2825160025560018060a01b036020840151166001600160601b0360a01b60035416176003556040830151516004556060830151600555608083015160065560a083015160075560018060a01b0360c0840151166001600160601b0360a01b60085416176008556101008301519283516001600160401b038111620009e55762001af6600a54620020bc565b601f811162001d7b575b506020601f821160011462001d02578495829394959262001cf6575b50508160011b916000199060031b1c191617600a555b60018060a01b0382166001600160601b0360a01b600b541617600b5560018060a01b03610120820151166001600160601b0360a01b600c541617600c5560018060a01b03610140820151166001600160601b0360a01b600d541617600d55825b610160820151805182101562001bd957600191906001600160a01b039062001bbc908390620021f5565b5116855284602052604085208260ff198254161790550162001b92565b50507ff5cd483996d35d97699fe885e0a7415610889f44d528c84777658c768c1044709062001ccc60018060a01b036101408301511660018060a01b03610120840151169260018060a01b0360c0820151169060018060a01b0360e08201511660018060a01b036020830151166101608301519462001ca08451966040860151519260608701519460808801519661010060a08a015199015199604080519e8f906101a09682526020820152015260608d015260808c01528060a08c01528a019062001ffe565b9560c089015260e088015261010087015261012086015261014085015283820361016085015262002062565b6001600160a01b03909316610180820152309281900390a261010061ff0019600f541617600f5580f35b01519050388062001b1c565b600a855260008051602062003c4583398151915290855b601f198416811062001d62575060019394959683601f1981161062001d48575b505050811b01600a5562001b32565b015160001960f88460031b161c1916905538808062001d39565b9091602060018192858b01518155019301910162001d19565b600a8552601f820160051c60008051602062003c45833981519152016020831062001dd3575b601f820160051c60008051602062003c4583398151915201811062001dc7575062001b00565b85815560010162001da1565b5060008051602062003c4583398151915262001da1565b50604051903d90823e3d90fd5b60405163c9c95bf560e01b8152600490fd5b60405163042ea06160e41b8152600490fd5b60405162dc149f60e41b8152600490fd5b60208060249362001e3d8662001f47565b81520193019291506200196d565b50346200020857806003193601126200020857602060ff600f5460081c166040519015158152f35b50346200020857806003193601126200020857602061ffff60015416604051908152f35b90503462000d83578160031936011262000d835760209060ff600f541615158152f35b61018081019081106001600160401b0382111762001ed757604052565b634e487b7160e01b600052604160045260246000fd5b602081019081106001600160401b0382111762001ed757604052565b90601f801991011681019081106001600160401b0382111762001ed757604052565b600435906001600160a01b038216820362001f4257565b600080fd5b35906001600160a01b038216820362001f4257565b919082602091031262001f425760405162001f778162001eed565b91358252565b6001600160401b03811162001ed757601f01601f191660200190565b81601f8201121562001f425780359062001fb38262001f7d565b9262001fc3604051948562001f09565b8284526020838301011162001f4257816000926020809301838601378301015290565b6001600160401b03811162001ed75760051b60200190565b90815180825260208080930193019160005b8281106200201f575050505090565b83516001600160a01b03168552938101939281019260010162002010565b60005b838110620020515750506000910152565b818101518382015260200162002040565b906020916200207d815180928185528580860191016200203d565b601f01601f1916010190565b9181601f8401121562001f42578235916001600160401b03831162001f42576020808501948460051b01011162001f4257565b90600182811c92168015620020ee575b6020831014620020d857565b634e487b7160e01b600052602260045260246000fd5b91607f1691620020cc565b600a54600092916200210b82620020bc565b808252916020906001908181169081156200217e575060011462002130575b50505050565b92939450600a60005260008051602062003c45833981519152926000935b8585106200216a5750505060209250010190388080806200212a565b80548585018401529382019381016200214e565b92505050602093945060ff929192191683830152151560051b010190388080806200212a565b919082604091031262001f4257604080516001600160401b039181018281118282101762001ed7576040528093803590811515820362001f425760209183520135918216820362001f425760200152565b80518210156200220a5760209160051b010190565b634e487b7160e01b600052603260045260246000fd5b906200222c8262001fe6565b6200223b604051918262001f09565b82815280926200224e601f199162001fe6565b0190602036910137565b9492909391938552602093602086015260408501526060840152608083015260c060a0830152600091600a54906200229082620020bc565b918260c083015260e06001916001811690816000146200230d5750600114620022bc575b505050505090565b600a60009081529496955091929160008051602062003c458339815191525b838610620022f9575050505060e092935001013880808080620022b4565b8054858701830152948701948201620022db565b93955050505060e0935060ff191683830152151560051b01013880808080620022b4565b91908110156200220a5760051b0190565b356001600160a01b038116810362001f425790565b91908082526020809201929160005b82811062002375575050505090565b909192938280600192838060a01b036200238f8962001f47565b1681520195019392910162002366565b6001805460009261ffff92918316825b620023bf575b5050505050600090565b8385168181101562002402576000908152600e60205260409020546001600160a01b03838116911614620023fa5793820183169382620023af565b505091505090565b50620023b5565b6000604051620024198162001eed565b52604051620024288162001eed565b620f4240815290565b80511515908162002457575b506200244557565b604051632b39f6cb60e01b8152600490fd5b6001600160401b039150602001511615386200243d565b919082039182116200247c57565b634e487b7160e01b600052601160045260246000fd5b91801562002528576001600160a01b03928316928315620024fb57604051926323b872dd60e01b602085015216602483015230604483015260648201526064815260a08101918183106001600160401b0384111762001ed757620024f992604052620025f5565b565b509150508034036200250a5750565b60449060405190635693fffb60e01b82526004820152346024820152fd5b505050565b3d156200255d573d90620025418262001f7d565b9162002551604051938462001f09565b82523d6000602084013e565b606090565b91801562002528576001600160a01b03928316928315620025c3576040519263a9059cbb60e01b602085015216602483015260448201526044815260808101918183106001600160401b0384111762001ed757620024f992604052620025f5565b50600080935080929181925af1620025da6200252d565b5015620025e357565b604051630c08bcb960e21b8152600490fd5b60018060a01b03169060405160408101908082106001600160401b0383111762001ed7576200266b916040526020938482527f5361666545524332303a206c6f772d6c6576656c2063616c6c206661696c6564858301526000808587829751910182855af1620026646200252d565b9162002706565b805191821591848315620026df575b505050905015620026885750565b6084906040519062461bcd60e51b82526004820152602a60248201527f5361666545524332303a204552433230206f7065726174696f6e20646964206e6044820152691bdd081cdd58d8d9595960b21b6064820152fd5b91938180945001031262000d8357820151908115158203620002085750803880846200267a565b919290156200276b57508151156200271c575090565b3b15620027265790565b60405162461bcd60e51b815260206004820152601d60248201527f416464726573733a2063616c6c20746f206e6f6e2d636f6e74726163740000006044820152606490fd5b8251909150156200277f5750805190602001fd5b60405162461bcd60e51b815260206004820152908190620027a590602483019062002062565b0390fdfe6080806040523461001657610eb4908161001c8239f35b600080fdfe6080604081815260048036101561001557600080fd5b600091823560e01c63c4b2da591461002c57600080fd5b346103345760a0366003190112610334576001600160a01b0393823585811691908290036103385760249485359567ffffffffffffffff95868816809803610334576044359187831680930361033057606435938a851680950361028c576084359587156103225750891561031257428a106103125783156103025784156102f25785156102e2578751610a6e8082019c91908b8e11828f10176102cf578c9d82919d9a9b9c9d61041183398b815260209e8f820152878d820152036060019083f080156102c55716998951908c82016323b872dd60e01b815233858401528c60448401528860648401526064835260a0830192808410838511176102a55760e0810184811084821117610293578d528e84527f5361666545524332303a206c6f772d6c6576656c2063616c6c206661696c656460c0820152518491829190828b5af1903d156102b7573d8181116102a5578c5191601f8201601f19908116603f011683019081118382101761029357918f92916101b89594928f5281528581933d92013e5b8861033c565b8051918215918d8315610268575b5050509050156102135750508551938452878401528285015260608201528391907f515cf92d69f6cb24204f2d033637fc556ff95bd7c99a08bbd4d56500cab426db90608090a351908152f35b875162461bcd60e51b81529182018a9052602a908201527f5361666545524332303a204552433230206f7065726174696f6e20646964206e6044820152691bdd081cdd58d8d9595960b21b6064820152608490fd5b91938180945001031261028f578b015190811515820361028c57508038808d6101c6565b80fd5b5080fd5b634e487b7160e01b8652604188528686fd5b634e487b7160e01b8552604187528585fd5b50906101b8916060906101b2565b8a513d84823e3d90fd5b5050634e487b7160e01b82525060418352fd5b875163162908e360e11b81528390fd5b875163c1ab6dc160e01b81528390fd5b8751637616640160e01b81528390fd5b8751632ca4094f60e21b81528390fd5b631559b7d760e21b81528390fd5b8380fd5b8280fd5b8480fd5b9192901561039e5750815115610350575090565b3b156103595790565b60405162461bcd60e51b815260206004820152601d60248201527f416464726573733a2063616c6c20746f206e6f6e2d636f6e74726163740000006044820152606490fd5b8251909150156103b15750805190602001fd5b6040519062461bcd60e51b82528160208060048301528251908160248401526000935b8285106103f7575050604492506000838284010152601f80199101168101030190fd5b84810182015186860160440152938101938593506103d456fe60e0601f610a6e38819003918201601f19168301916001600160401b03831184841017610118578084926060946040528339810103126101135780516001600160a01b038116919082810361011357610066604061005f6020850161012e565b930161012e565b92156100bb5760805260a05260c05260405161092b9081610143823960805181818161021c0152818161035c0152610411015260a0518181816101090152610738015260c051818181610579015261076d0152f35b60405162461bcd60e51b815260206004820152602a60248201527f56657374696e6757616c6c65743a2062656e6566696369617279206973207a65604482015269726f206164647265737360b01b6064820152608490fd5b600080fd5b634e487b7160e01b600052604160045260246000fd5b51906001600160401b03821682036101135756fe60406080815260049081361015610020575b5050361561001e57600080fd5b005b600091823560e01c9081630a17b06b1461059d5781630fb5a6b414610558578163191655871461038b57816338af3eed14610347578163810ec23b1461030857816386d1a69f146101a55750806396132521146101895780639852595c14610152578063a3f8eace1461012d578063be9a6555146100e95763fbccedae0361001157346100e557816003193601126100e5576100de6020926100d9479154916100d48367ffffffffffffffff4216926105f0565b610729565b6106e4565b9051908152f35b5080fd5b50346100e557816003193601126100e5576020905167ffffffffffffffff7f0000000000000000000000000000000000000000000000000000000000000000168152f35b50346100e55760203660031901126100e5576020906100de61014d6105d5565b6106f1565b50346100e55760203660031901126100e55760209181906001600160a01b036101796105d5565b1681526001845220549051908152f35b50346100e557816003193601126100e557602091549051908152f35b9190503461030457826003193601126103045782546101e06101d9826100d94267ffffffffffffffff166100d483476105f0565b80926105f0565b84557fda9d4e5f101b8b9b1c5b76d0c5a9f7923571acfc02376aa076b75a8c080c956b60208351838152a18047106102c15783908190819081907f00000000000000000000000000000000000000000000000000000000000000006001600160a01b03165af161024e6107e1565b5015610258578280f35b906020608492519162461bcd60e51b8352820152603a60248201527f416464726573733a20756e61626c6520746f2073656e642076616c75652c207260448201527f6563697069656e74206d617920686176652072657665727465640000000000006064820152fd5b815162461bcd60e51b8152602081850152601d60248201527f416464726573733a20696e73756666696369656e742062616c616e63650000006044820152606490fd5b8280fd5b5050346100e557806003193601126100e5576103226105d5565b6024359267ffffffffffffffff8416840361034457506020926100de9161064b565b80fd5b5050346100e557816003193601126100e557517f00000000000000000000000000000000000000000000000000000000000000006001600160a01b03168152602090f35b919050346103045760209081600319360112610554576103a96105d5565b6103b2816106f1565b9060018060a01b0380911690818752600185528387206103d38482546105f0565b9055817fc0e523490dd523c33b1878c9eb14ff46991e3f5b2cd33710918618f2a39cba1b868651868152a28351928584019163a9059cbb60e01b83527f0000000000000000000000000000000000000000000000000000000000000000166024850152604484015260448352608083019267ffffffffffffffff818510818611176105415760c08201908111858210176105415785528584527f5361666545524332303a206c6f772d6c6576656c2063616c6c206661696c656460a0820152516104af9392918891829182855af16104a96107e1565b91610821565b805183811591821561051d575b50509050156104c9578380f35b5162461bcd60e51b815291820152602a60248201527f5361666545524332303a204552433230206f7065726174696f6e20646964206e6044820152691bdd081cdd58d8d9595960b21b606482015260849150fd5b838092935001031261053d57820151801515810361053d578083386104bc565b8480fd5b634e487b7160e01b895260418852602489fd5b8380fd5b5050346100e557816003193601126100e5576020905167ffffffffffffffff7f0000000000000000000000000000000000000000000000000000000000000000168152f35b905034610304576020366003190112610304573567ffffffffffffffff81168103610304576100de906100d4602094479054906105f0565b600435906001600160a01b03821682036105eb57565b600080fd5b919082018092116105fd57565b634e487b7160e01b600052601160045260246000fd5b90601f8019910116810190811067ffffffffffffffff82111761063557604052565b634e487b7160e01b600052604160045260246000fd5b6040516370a0823160e01b81523060048201526001600160a01b03919091169190602081602481865afa9081156106d8576000916106a4575b506100d4906106a1936000526001602052604060002054906105f0565b90565b90506020813d6020116106d0575b816106bf60209383610613565b810103126105eb57516106a1610684565b3d91506106b2565b6040513d6000823e3d90fd5b919082039182116105fd57565b6106a19061070967ffffffffffffffff42168261064b565b6001600160a01b03909116600090815260016020526040902054906106e4565b67ffffffffffffffff918216917f00000000000000000000000000000000000000000000000000000000000000008116908184101561076b5750505050600090565b7f0000000000000000000000000000000000000000000000000000000000000000169261079884836105f0565b8111156107a6575050905090565b906107b0916106e4565b908181029181830414901517156105fd5781156107cb570490565b634e487b7160e01b600052601260045260246000fd5b3d1561081c573d9067ffffffffffffffff82116106355760405191610810601f8201601f191660200184610613565b82523d6000602084013e565b606090565b919290156108835750815115610835575090565b3b1561083e5790565b60405162461bcd60e51b815260206004820152601d60248201527f416464726573733a2063616c6c20746f206e6f6e2d636f6e74726163740000006044820152606490fd5b8251909150156108965750805190602001fd5b6040519062461bcd60e51b82528160208060048301528251908160248401526000935b8285106108dc575050604492506000838284010152601f80199101168101030190fd5b84810182015186860160440152938101938593506108b956fea2646970667358221220f6235be43f7faaf5ef42395a12abc7ae732a090157a3385a315158d316c1bd6064736f6c63430008180033a2646970667358221220b5fa9168d47ec92b437bc6882b20dd0185841b3e3ae16ed623710a66d315987264736f6c6343000818003360a03461009557601f6105cb38819003918201601f19168301916001600160401b0383118484101761009a5780849260209460405283398101031261009557516001600160a01b03811680820361009557156100835760805260405161051a90816100b18239608051818181607e0152818160e1015281816101b701526102660152f35b604051635a3f066960e01b8152600490fd5b600080fd5b634e487b7160e01b600052604160045260246000fdfe6040608081526004908136101561001557600080fd5b60009160e08335811c90816316c1973914610333578163a3de7d1714610233578163c1ac10261461011457508063e82bb126146100cc5763fb33ce811461005b57600080fd5b346100c857816003193601126100c857610073610456565b6001600160a01b03917f0000000000000000000000000000000000000000000000000000000000000000831633036100ba5750168252816020526007602435918320015580f35b8351631a27eac360e11b8152fd5b8280fd5b505034610110578160031936011261011057517f00000000000000000000000000000000000000000000000000000000000000006001600160a01b03168152602090f35b5080fd5b848385346100c8576101203660031901126100c857610131610456565b9361010036602319011261022f57610147610471565b92602435845260208401906044358252610160366104c8565b848601908152606086016084358152602060a31936011261022b576101836104a8565b9160a43583526080880192835260a088019460c435865260c089019660e435885289019761010435895260018060a01b03807f000000000000000000000000000000000000000000000000000000000000000016330361021b5760079a9b9c168c528b6020528b2099518a555160018a0155515160028901555160038801555151908601555160058501555160068401555191015580f35b8151631a27eac360e11b81528790fd5b8780fd5b8380fd5b84848492346100c85760803660031901126100c857610250610456565b9061025a366104c8565b926001600160a01b03907f000000000000000000000000000000000000000000000000000000000000000082163303610324579585966007959661029c6104a8565b526102a56104a8565b908882526102b1610471565b976024358952602089016044358152828a0191825260608a019242845260808b0194855260a08b01968c885260c08c01988d8a528c01998d8b52168c528b6020528b2099518a555160018a0155515160028901555160038801555151908601555160058501555160068401555191015580f35b51631a27eac360e11b81528690fd5b9190503461022f57602036600319011261022f578261010094610354610456565b818561035e610471565b82815282602082015261036f6104a8565b838152868201528260608201526103846104a8565b838152608082015260a0810183905260c0810183905201526001600160a01b031681526020819052206103b5610471565b9381548552600182015492602086019384526103cf6104a8565b9160028401548352808701928352600384015490606088019182526103f26104a8565b9285015483526080880192835260058501549360a08901948552600760068701549660c08b01978852015496888a01978852825199518a525160208a0152515190880152516060870152515160808601525160a08501525160c08401525190820152f35b600435906001600160a01b038216820361046c57565b600080fd5b60405190610100820182811067ffffffffffffffff82111761049257604052565b634e487b7160e01b600052604160045260246000fd5b604051906020820182811067ffffffffffffffff82111761049257604052565b602090606319011261046c576104dc6104a8565b90606435825256fea2646970667358221220f9197761eae1a8839a6606c94eed8300af1b83793252e9badea713839d2d9ea864736f6c63430008180033c65a7bb8d6351c1cf70c95a316cc6a92839c986682d98bc35f958f4883f9d2a80411b059ef29e41429d7aa233c3c43e82806856b23c24bfb1f9e4c6efa5689a1a2646970667358221220a2c860855b2342d6ab93c027cbb1608bfa9fa692077e2a98a65edf9c615a040364736f6c63430008180033",
  "devdoc": {
    "details": "Factory contract for creating and managing token streams",
    "kind": "dev",
    "methods": {
      "constructor": {
        "details": "Constructor to set the protocol admin",
        "params": {
          "protocolAdmin": "Address of the protocol admin"
        }
      },
      "createStream((address,address,address,uint256,uint256,uint256,uint256,uint256,(string),(bool,uint64),(bool,uint64),(uint256),string))": {
        "details": "Creates a new stream with the provided configuration",
        "params": {
          "createStreamMessage": "Stream creation parameters"
        }
      },
      "getAcceptedInSupplyTokens()": {
        "details": "Get all accepted input supply tokens",
        "returns": {
          "_0": "Array of accepted token addresses"
        }
      },
      "getParams()": {
        "details": "Get factory parameters",
        "returns": {
          "_0": "Factory parameters"
        }
      },
      "getStream(uint16)": {
        "details": "Get stream address by ID",
        "params": {
          "streamId": "Stream ID"
        },
        "returns": {
          "_0": "Stream address"
        }
      },
      "getStreams()": {
        "details": "Get all stream addresses",
        "returns": {
          "_0": "Array of stream addresses"
        }
      },
      "initialize((uint256,address,(uint256),uint256,uint256,uint256,address,address,string,address,address,address[]))": {
        "details": "Initializes the factory with the provided configuration",
        "params": {
          "initializeStreamMessage": "Factory initialization parameters"
        }
      },
      "isAcceptedInSupplyToken(address)": {
        "details": "Check if a token is accepted as input supply token",
        "params": {
          "token": "Token address to check"
        },
        "returns": {
          "_0": "True if the token is accepted"
        }
      },
      "isStream(address)": {
        "details": "Check if an address is a stream created by this factory",
        "params": {
          "streamAddress": "Address to check"
        },
        "returns": {
          "_0": "True if the address is a stream"
        }
      },
      "setFrozen(bool)": {
        "details": "Sets the frozen state of the factory",
        "params": {
          "isFrozen": "Whether the factory should be frozen"
        }
      },
      "updateAcceptedTokens(address[],address[])": {
        "details": "Updates the list of accepted input supply tokens",
        "params": {
          "tokensToAdd": "Array of token addresses to add",
          "tokensToRemove": "Array of token addresses to remove"
        }
      },
      "updateExitFeeRatio((uint256))": {
        "details": "Updates the exit fee ratio",
        "params": {
          "exitFeeRatio": "New exit fee ratio"
        }
      },
      "updateFeeCollector(address)": {
        "details": "Updates the fee collector address",
        "params": {
          "feeCollector": "New fee collector address"
        }
      },
      "updateMinBootstrappingDuration(uint256)": {
        "details": "Updates the minimum bootstrapping duration",
        "params": {
          "minBootstrappingDuration": "New minimum bootstrapping duration"
        }
      },
      "updateMinStreamDuration(uint256)": {
        "details": "Updates the minimum stream duration",
        "params": {
          "minStreamDuration": "New minimum stream duration"
        }
      },
      "updateMinWaitingDuration(uint256)": {
        "details": "Updates the minimum waiting duration",
        "params": {
          "minWaitingDuration": "New minimum waiting duration"
        }
      },
      "updatePoolWrapper(address)": {
        "details": "Updates the pool wrapper address",
        "params": {
          "poolWrapper": "New pool wrapper address"
        }
      },
      "updateProtocolAdmin(address)": {
        "details": "Updates the protocol admin address",
        "params": {
          "protocolAdmin": "New protocol admin address"
        }
      },
      "updateStreamCreationFee(uint256)": {
        "details": "Updates the stream creation fee",
        "params": {
          "streamCreationFee": "New creation fee amount"
        }
      },
      "updateStreamCreationFeeToken(address)": {
        "details": "Updates the stream creation fee token",
        "params": {
          "streamCreationFeeToken": "New fee token address"
        }
      },
      "updateStreamImplementation(address)": {
        "details": "Updates the stream implementation address",
        "params": {
          "implementation": "New stream implementation address"
        }
      },
      "updateTosVersion(string)": {
        "details": "Updates the TOS version",
        "params": {
          "tosVersion": "New TOS version"
        }
      }
    },
    "title": "StreamFactory",
    "version": 1
  },
  "userdoc": {
    "kind": "user",
    "methods": {
      "acceptedInSupplyTokens(address)": {
        "notice": "Mapping of accepted input supply tokens"
      },
      "createStream((address,address,address,uint256,uint256,uint256,uint256,uint256,(string),(bool,uint64),(bool,uint64),(uint256),string))": {
        "notice": "Anyone can create a stream if they provide the required tokens and fees"
      },
      "currentStreamId()": {
        "notice": "Current stream ID counter"
      },
      "frozen()": {
        "notice": "Flag to freeze stream creation"
      },
      "initialize((uint256,address,(uint256),uint256,uint256,uint256,address,address,string,address,address,address[]))": {
        "notice": "This function can only be called once by the admin"
      },
      "initialized()": {
        "notice": "Flag to ensure initialization happens only once"
      },
      "params()": {
        "notice": "Factory parameters"
      },
      "streamAddresses(uint16)": {
        "notice": "Mapping of stream ID to stream address"
      }
    },
    "notice": "Handles stream creation, parameter management, and accepted token management",
    "version": 1
  },
  "storageLayout": {
    "storage": [
      {
        "astId": 3522,
        "contract": "src/StreamFactory.sol:StreamFactory",
        "label": "acceptedInSupplyTokens",
        "offset": 0,
        "slot": "0",
        "type": "t_mapping(t_address,t_bool)"
      },
      {
        "astId": 3525,
        "contract": "src/StreamFactory.sol:StreamFactory",
        "label": "currentStreamId",
        "offset": 0,
        "slot": "1",
        "type": "t_uint16"
      },
      {
        "astId": 3529,
        "contract": "src/StreamFactory.sol:StreamFactory",
        "label": "params",
        "offset": 0,
        "slot": "2",
        "type": "t_struct(Params)6674_storage"
      },
      {
        "astId": 3534,
        "contract": "src/StreamFactory.sol:StreamFactory",
        "label": "streamAddresses",
        "offset": 0,
        "slot": "14",
        "type": "t_mapping(t_uint16,t_address)"
      },
      {
        "astId": 3537,
        "contract": "src/StreamFactory.sol:StreamFactory",
        "label": "frozen",
        "offset": 0,
        "slot": "15",
        "type": "t_bool"
      },
      {
        "astId": 3540,
        "contract": "src/StreamFactory.sol:StreamFactory",
        "label": "initialized",
        "offset": 1,
        "slot": "15",
        "type": "t_bool"
      }
    ],
    "types": {
      "t_address": {
        "encoding": "inplace",
        "label": "address",
        "numberOfBytes": "20"
      },
      "t_bool": {
        "encoding": "inplace",
        "label": "bool",
        "numberOfBytes": "1"
      },
      "t_mapping(t_address,t_bool)": {
        "encoding": "mapping",
        "key": "t_address",
        "label": "mapping(address => bool)",
        "numberOfBytes": "32",
        "value": "t_bool"
      },
      "t_mapping(t_uint16,t_address)": {
        "encoding": "mapping",
        "key": "t_uint16",
        "label": "mapping(uint16 => address)",
        "numberOfBytes": "32",
        "value": "t_address"
      },
      "t_string_storage": {
        "encoding": "bytes",
        "label": "string",
        "numberOfBytes": "32"
      },
      "t_struct(Decimal)5665_storage": {
        "encoding": "inplace",
        "label": "struct Decimal",
        "members": [
          {
            "astId": 5664,
            "contract": "src/StreamFactory.sol:StreamFactory",
            "label": "value",
            "offset": 0,
            "slot": "0",
            "type": "t_uint256"
          }
        ],
        "numberOfBytes": "32"
      },
      "t_struct(Params)6674_storage": {
        "encoding": "inplace",
        "label": "struct StreamFactoryTypes.Params",
        "members": [
          {
            "astId": 6650,
            "contract": "src/StreamFactory.sol:StreamFactory",
            "label": "streamCreationFee",
            "offset": 0,
            "slot": "0",
            "type": "t_uint256"
          },
          {
            "astId": 6652,
            "contract": "src/StreamFactory.sol:StreamFactory",
            "label": "streamCreationFeeToken",
            "offset": 0,
            "slot": "1",
            "type": "t_address"
          },
          {
            "astId": 6655,
            "contract": "src/StreamFactory.sol:StreamFactory",
            "label": "exitFeeRatio",
            "offset": 0,
            "slot": "2",
            "type": "t_struct(Decimal)5665_storage"
          },
          {
            "astId": 6657,
            "contract": "src/StreamFactory.sol:StreamFactory",
            "label": "minWaitingDuration",
            "offset": 0,
            "slot": "3",
            "type": "t_uint256"
          },
          {
            "astId": 6659,
            "contract": "src/StreamFactory.sol:StreamFactory",
            "label": "minBootstrappingDuration",
            "offset": 0,
            "slot": "4",
            "type": "t_uint256"
          },
          {
            "astId": 6661,
            "contract": "src/StreamFactory.sol:StreamFactory",
            "label": "minStreamDuration",
            "offset": 0,
            "slot": "5",
            "type": "t_uint256"
          },
          {
            "astId": 6663,
            "contract": "src/StreamFactory.sol:StreamFactory",
            "label": "feeCollector",
            "offset": 0,
            "slot": "6",
            "type": "t_address"
          },
          {
            "astId": 6665,
            "contract": "src/StreamFactory.sol:StreamFactory",
            "label": "protocolAdmin",
            "offset": 0,
            "slot": "7",
            "type": "t_address"
          },
          {
            "astId": 6667,
            "contract": "src/StreamFactory.sol:StreamFactory",
            "label": "tosVersion",
            "offset": 0,
            "slot": "8",
            "type": "t_string_storage"
          },
          {
            "astId": 6669,
            "contract": "src/StreamFactory.sol:StreamFactory",
            "label": "vestingFactoryAddress",
            "offset": 0,
            "slot": "9",
            "type": "t_address"
          },
          {
            "astId": 6671,
            "contract": "src/StreamFactory.sol:StreamFactory",
            "label": "poolWrapperAddress",
            "offset": 0,
            "slot": "10",
            "type": "t_address"
          },
          {
            "astId": 6673,
            "contract": "src/StreamFactory.sol:StreamFactory",
            "label": "streamImplementationAddress",
            "offset": 0,
            "slot": "11",
            "type": "t_address"
          }
        ],
        "numberOfBytes": "384"
      },
      "t_uint16": {
        "encoding": "inplace",
        "label": "uint16",
        "numberOfBytes": "2"
      },
      "t_uint256": {
        "encoding": "inplace",
        "label": "uint256",
        "numberOfBytes": "32"
      }
    }
  }
}