{
  "address": "0x0f58B15Ff3dEC2114cA361bdba6f1159109358Cb",
  "abi": [
    {
      "inputs": [
        {
          "internalType": "address",
          "name": "_streamFactoryAddress",
          "type": "address"
        }
      ],
      "stateMutability": "nonpayable",
      "type": "constructor"
    },
    {
      "inputs": [],
      "name": "InsufficientOutAmount",
      "type": "error"
    },
    {
      "inputs": [
        {
          "internalType": "uint256",
          "name": "requiredTokenAmount",
          "type": "uint256"
        },
        {
          "internalType": "uint256",
          "name": "tokenBalance",
          "type": "uint256"
        }
      ],
      "name": "InsufficientTokenPayment",
      "type": "error"
    },
    {
      "inputs": [],
      "name": "InvalidAmount",
      "type": "error"
    },
    {
      "inputs": [],
      "name": "InvalidExitCondition",
      "type": "error"
    },
    {
      "inputs": [],
      "name": "InvalidImplementationAddress",
      "type": "error"
    },
    {
      "inputs": [],
      "name": "InvalidInSupplyToken",
      "type": "error"
    },
    {
      "inputs": [],
      "name": "InvalidOutSupplyToken",
      "type": "error"
    },
    {
      "inputs": [],
      "name": "InvalidPosition",
      "type": "error"
    },
    {
      "inputs": [],
      "name": "InvalidStreamFactoryAddress",
      "type": "error"
    },
    {
      "inputs": [],
      "name": "InvalidVestingCliffDuration",
      "type": "error"
    },
    {
      "inputs": [],
      "name": "InvalidVestingDuration",
      "type": "error"
    },
    {
      "inputs": [],
      "name": "InvalidWithdrawAmount",
      "type": "error"
    },
    {
      "inputs": [],
      "name": "OperationNotAllowed",
      "type": "error"
    },
    {
      "inputs": [],
      "name": "PaymentFailed",
      "type": "error"
    },
    {
      "inputs": [],
      "name": "StreamFactoryAddressAlreadySet",
      "type": "error"
    },
    {
      "inputs": [],
      "name": "Unauthorized",
      "type": "error"
    },
    {
      "inputs": [
        {
          "internalType": "uint256",
          "name": "cap",
          "type": "uint256"
        }
      ],
      "name": "WithdrawAmountExceedsBalance",
      "type": "error"
    },
    {
      "anonymous": false,
      "inputs": [
        {
          "indexed": true,
          "internalType": "address",
          "name": "factory",
          "type": "address"
        },
        {
          "indexed": false,
          "internalType": "address[]",
          "name": "tokensAdded",
          "type": "address[]"
        },
        {
          "indexed": false,
          "internalType": "address[]",
          "name": "tokensRemoved",
          "type": "address[]"
        }
      ],
      "name": "AcceptedTokensUpdated",
      "type": "event"
    },
    {
      "anonymous": false,
      "inputs": [
        {
          "indexed": true,
          "internalType": "address",
          "name": "streamAddress",
          "type": "address"
        },
        {
          "indexed": true,
          "internalType": "address",
          "name": "subscriber",
          "type": "address"
        },
        {
          "indexed": false,
          "internalType": "uint256",
          "name": "refundedAmount",
          "type": "uint256"
        },
        {
          "indexed": false,
          "internalType": "uint256",
          "name": "exitTimestamp",
          "type": "uint256"
        }
      ],
      "name": "ExitRefunded",
      "type": "event"
    },
    {
      "anonymous": false,
      "inputs": [
        {
          "indexed": true,
          "internalType": "address",
          "name": "streamAddress",
          "type": "address"
        },
        {
          "indexed": true,
          "internalType": "address",
          "name": "subscriber",
          "type": "address"
        },
        {
          "indexed": false,
          "internalType": "uint256",
          "name": "purchased",
          "type": "uint256"
        },
        {
          "indexed": false,
          "internalType": "uint256",
          "name": "spentIn",
          "type": "uint256"
        },
        {
          "indexed": false,
          "internalType": "uint256",
          "name": "exitTimestamp",
          "type": "uint256"
        }
      ],
      "name": "ExitStreamed",
      "type": "event"
    },
    {
      "anonymous": false,
      "inputs": [
        {
          "indexed": true,
          "internalType": "address",
          "name": "factory",
          "type": "address"
        },
        {
          "indexed": false,
          "internalType": "address",
          "name": "newFeeCollector",
          "type": "address"
        }
      ],
      "name": "FeeCollectorUpdated",
      "type": "event"
    },
    {
      "anonymous": false,
      "inputs": [
        {
          "indexed": true,
          "internalType": "address",
          "name": "streamAddress",
          "type": "address"
        },
        {
          "indexed": true,
          "internalType": "address",
          "name": "creator",
          "type": "address"
        },
        {
          "indexed": false,
          "internalType": "uint256",
          "name": "refundedOutAmount",
          "type": "uint256"
        },
        {
          "indexed": false,
          "internalType": "enum StreamTypes.Status",
          "name": "status",
          "type": "uint8"
        }
      ],
      "name": "FinalizedRefunded",
      "type": "event"
    },
    {
      "anonymous": false,
      "inputs": [
        {
          "indexed": true,
          "internalType": "address",
          "name": "streamAddress",
          "type": "address"
        },
        {
          "indexed": true,
          "internalType": "address",
          "name": "creator",
          "type": "address"
        },
        {
          "indexed": false,
          "internalType": "uint256",
          "name": "creatorRevenue",
          "type": "uint256"
        },
        {
          "indexed": false,
          "internalType": "uint256",
          "name": "exitFeeAmount",
          "type": "uint256"
        },
        {
          "indexed": false,
          "internalType": "uint256",
          "name": "refundedOutAmount",
          "type": "uint256"
        },
        {
          "indexed": false,
          "internalType": "enum StreamTypes.Status",
          "name": "status",
          "type": "uint8"
        }
      ],
      "name": "FinalizedStreamed",
      "type": "event"
    },
    {
      "anonymous": false,
      "inputs": [
        {
          "indexed": true,
          "internalType": "address",
          "name": "factory",
          "type": "address"
        },
        {
          "indexed": false,
          "internalType": "bool",
          "name": "frozen",
          "type": "bool"
        }
      ],
      "name": "FrozenStateUpdated",
      "type": "event"
    },
    {
      "anonymous": false,
      "inputs": [
        {
          "indexed": true,
          "internalType": "address",
          "name": "factory",
          "type": "address"
        },
        {
          "indexed": false,
          "internalType": "uint256",
          "name": "streamCreationFee",
          "type": "uint256"
        },
        {
          "indexed": false,
          "internalType": "uint256",
          "name": "exitFeeRatio",
          "type": "uint256"
        },
        {
          "indexed": false,
          "internalType": "uint256",
          "name": "minWaitingDuration",
          "type": "uint256"
        },
        {
          "indexed": false,
          "internalType": "uint256",
          "name": "minBootstrappingDuration",
          "type": "uint256"
        },
        {
          "indexed": false,
          "internalType": "uint256",
          "name": "minStreamDuration",
          "type": "uint256"
        },
        {
          "indexed": false,
          "internalType": "string",
          "name": "tosVersion",
          "type": "string"
        }
      ],
      "name": "ParamsUpdated",
      "type": "event"
    },
    {
      "anonymous": false,
      "inputs": [
        {
          "indexed": true,
          "internalType": "address",
          "name": "factoryAddress",
          "type": "address"
        },
        {
          "indexed": false,
          "internalType": "address",
          "name": "poolWrapper",
          "type": "address"
        }
      ],
      "name": "PoolWrapperUpdated",
      "type": "event"
    },
    {
      "anonymous": false,
      "inputs": [
        {
          "indexed": true,
          "internalType": "address",
          "name": "streamAddress",
          "type": "address"
        },
        {
          "indexed": true,
          "internalType": "address",
          "name": "subscriber",
          "type": "address"
        },
        {
          "indexed": false,
          "internalType": "uint256",
          "name": "inBalance",
          "type": "uint256"
        },
        {
          "indexed": false,
          "internalType": "uint256",
          "name": "shares",
          "type": "uint256"
        }
      ],
      "name": "PositionSynced",
      "type": "event"
    },
    {
      "anonymous": false,
      "inputs": [
        {
          "indexed": true,
          "internalType": "address",
          "name": "factory",
          "type": "address"
        },
        {
          "indexed": false,
          "internalType": "address",
          "name": "newProtocolAdmin",
          "type": "address"
        }
      ],
      "name": "ProtocolAdminUpdated",
      "type": "event"
    },
    {
      "anonymous": false,
      "inputs": [
        {
          "indexed": true,
          "internalType": "address",
          "name": "streamAddress",
          "type": "address"
        },
        {
          "indexed": false,
          "internalType": "address",
          "name": "creator",
          "type": "address"
        },
        {
          "indexed": false,
          "internalType": "uint256",
          "name": "outSupply",
          "type": "uint256"
        },
        {
          "indexed": false,
          "internalType": "enum StreamTypes.Status",
          "name": "status",
          "type": "uint8"
        }
      ],
      "name": "StreamCancelled",
      "type": "event"
    },
    {
      "anonymous": false,
      "inputs": [
        {
          "indexed": true,
          "internalType": "address",
          "name": "streamOutToken",
          "type": "address"
        },
        {
          "indexed": true,
          "internalType": "address",
          "name": "streamInToken",
          "type": "address"
        },
        {
          "indexed": true,
          "internalType": "address",
          "name": "streamFactoryAddress",
          "type": "address"
        },
        {
          "indexed": false,
          "internalType": "uint256",
          "name": "streamOutAmount",
          "type": "uint256"
        },
        {
          "indexed": false,
          "internalType": "uint256",
          "name": "bootstrappingStartTime",
          "type": "uint256"
        },
        {
          "indexed": false,
          "internalType": "uint256",
          "name": "streamStartTime",
          "type": "uint256"
        },
        {
          "indexed": false,
          "internalType": "uint256",
          "name": "streamEndTime",
          "type": "uint256"
        },
        {
          "indexed": false,
          "internalType": "uint256",
          "name": "threshold",
          "type": "uint256"
        },
        {
          "indexed": false,
          "internalType": "string",
          "name": "streamName",
          "type": "string"
        },
        {
          "indexed": false,
          "internalType": "string",
          "name": "tosVersion",
          "type": "string"
        },
        {
          "indexed": false,
          "internalType": "address",
          "name": "streamAddress",
          "type": "address"
        },
        {
          "indexed": false,
          "internalType": "uint16",
          "name": "streamId",
          "type": "uint16"
        }
      ],
      "name": "StreamCreated",
      "type": "event"
    },
    {
      "anonymous": false,
      "inputs": [
        {
          "indexed": true,
          "internalType": "address",
          "name": "streamAddress",
          "type": "address"
        },
        {
          "indexed": false,
          "internalType": "enum StreamTypes.Status",
          "name": "mainStatus",
          "type": "uint8"
        },
        {
          "indexed": false,
          "internalType": "uint256",
          "name": "lastUpdated",
          "type": "uint256"
        }
      ],
      "name": "StreamSynced",
      "type": "event"
    },
    {
      "anonymous": false,
      "inputs": [
        {
          "indexed": true,
          "internalType": "address",
          "name": "streamAddress",
          "type": "address"
        },
        {
          "indexed": false,
          "internalType": "uint256",
          "name": "lastUpdated",
          "type": "uint256"
        },
        {
          "indexed": false,
          "internalType": "uint8",
          "name": "newStatus",
          "type": "uint8"
        },
        {
          "components": [
            {
              "internalType": "uint256",
              "name": "value",
              "type": "uint256"
            }
          ],
          "indexed": false,
          "internalType": "struct Decimal",
          "name": "distIndex",
          "type": "tuple"
        },
        {
          "indexed": false,
          "internalType": "uint256",
          "name": "outRemaining",
          "type": "uint256"
        },
        {
          "indexed": false,
          "internalType": "uint256",
          "name": "inSupply",
          "type": "uint256"
        },
        {
          "indexed": false,
          "internalType": "uint256",
          "name": "spentIn",
          "type": "uint256"
        },
        {
          "components": [
            {
              "internalType": "uint256",
              "name": "value",
              "type": "uint256"
            }
          ],
          "indexed": false,
          "internalType": "struct Decimal",
          "name": "currentStreamedPrice",
          "type": "tuple"
        }
      ],
      "name": "StreamSynced",
      "type": "event"
    },
    {
      "anonymous": false,
      "inputs": [
        {
          "indexed": true,
          "internalType": "address",
          "name": "streamAddress",
          "type": "address"
        },
        {
          "indexed": true,
          "internalType": "address",
          "name": "subscriber",
          "type": "address"
        },
        {
          "indexed": false,
          "internalType": "uint256",
          "name": "amountIn",
          "type": "uint256"
        },
        {
          "indexed": false,
          "internalType": "uint256",
          "name": "newShares",
          "type": "uint256"
        },
        {
          "indexed": false,
          "internalType": "uint256",
          "name": "totalSharesAfter",
          "type": "uint256"
        },
        {
          "indexed": false,
          "internalType": "uint256",
          "name": "totalInSupplyAfter",
          "type": "uint256"
        }
      ],
      "name": "Subscribed",
      "type": "event"
    },
    {
      "anonymous": false,
      "inputs": [
        {
          "indexed": true,
          "internalType": "address",
          "name": "factoryAddress",
          "type": "address"
        },
        {
          "indexed": false,
          "internalType": "address",
          "name": "vestingContract",
          "type": "address"
        }
      ],
      "name": "VestingContractDeployed",
      "type": "event"
    },
    {
      "anonymous": false,
      "inputs": [
        {
          "indexed": true,
          "internalType": "address",
          "name": "streamAddress",
          "type": "address"
        },
        {
          "indexed": true,
          "internalType": "address",
          "name": "subscriber",
          "type": "address"
        },
        {
          "indexed": false,
          "internalType": "uint256",
          "name": "remainingInBalance",
          "type": "uint256"
        },
        {
          "indexed": false,
          "internalType": "uint256",
          "name": "remainingShares",
          "type": "uint256"
        },
        {
          "indexed": false,
          "internalType": "uint256",
          "name": "totalInSupply",
          "type": "uint256"
        },
        {
          "indexed": false,
          "internalType": "uint256",
          "name": "totalShares",
          "type": "uint256"
        }
      ],
      "name": "Withdrawn",
      "type": "event"
    },
    {
      "inputs": [],
      "name": "cancelStream",
      "outputs": [],
      "stateMutability": "nonpayable",
      "type": "function"
    },
    {
      "inputs": [],
      "name": "cancelWithAdmin",
      "outputs": [],
      "stateMutability": "nonpayable",
      "type": "function"
    },
    {
      "inputs": [],
      "name": "creator",
      "outputs": [
        {
          "internalType": "address",
          "name": "",
          "type": "address"
        }
      ],
      "stateMutability": "view",
      "type": "function"
    },
    {
      "inputs": [],
      "name": "exitStream",
      "outputs": [],
      "stateMutability": "nonpayable",
      "type": "function"
    },
    {
      "inputs": [],
      "name": "finalizeStream",
      "outputs": [],
      "stateMutability": "nonpayable",
      "type": "function"
    },
    {
      "inputs": [
        {
          "internalType": "address",
          "name": "user",
          "type": "address"
        }
      ],
      "name": "getPosition",
      "outputs": [
        {
          "components": [
            {
              "internalType": "uint256",
              "name": "inBalance",
              "type": "uint256"
            },
            {
              "internalType": "uint256",
              "name": "shares",
              "type": "uint256"
            },
            {
              "components": [
                {
                  "internalType": "uint256",
                  "name": "value",
                  "type": "uint256"
                }
              ],
              "internalType": "struct Decimal",
              "name": "index",
              "type": "tuple"
            },
            {
              "internalType": "uint256",
              "name": "lastUpdateTime",
              "type": "uint256"
            },
            {
              "components": [
                {
                  "internalType": "uint256",
                  "name": "value",
                  "type": "uint256"
                }
              ],
              "internalType": "struct Decimal",
              "name": "pendingReward",
              "type": "tuple"
            },
            {
              "internalType": "uint256",
              "name": "spentIn",
              "type": "uint256"
            },
            {
              "internalType": "uint256",
              "name": "purchased",
              "type": "uint256"
            },
            {
              "internalType": "uint256",
              "name": "exitDate",
              "type": "uint256"
            }
          ],
          "internalType": "struct PositionTypes.Position",
          "name": "",
          "type": "tuple"
        }
      ],
      "stateMutability": "view",
      "type": "function"
    },
    {
      "inputs": [],
      "name": "getStreamState",
      "outputs": [
        {
          "components": [
            {
              "internalType": "uint256",
              "name": "outRemaining",
              "type": "uint256"
            },
            {
              "components": [
                {
                  "internalType": "uint256",
                  "name": "value",
                  "type": "uint256"
                }
              ],
              "internalType": "struct Decimal",
              "name": "distIndex",
              "type": "tuple"
            },
            {
              "internalType": "uint256",
              "name": "spentIn",
              "type": "uint256"
            },
            {
              "internalType": "uint256",
              "name": "shares",
              "type": "uint256"
            },
            {
              "components": [
                {
                  "internalType": "uint256",
                  "name": "value",
                  "type": "uint256"
                }
              ],
              "internalType": "struct Decimal",
              "name": "currentStreamedPrice",
              "type": "tuple"
            },
            {
              "internalType": "uint256",
              "name": "threshold",
              "type": "uint256"
            },
            {
              "internalType": "uint256",
              "name": "inSupply",
              "type": "uint256"
            },
            {
              "internalType": "uint256",
              "name": "outSupply",
              "type": "uint256"
            },
            {
              "internalType": "uint256",
              "name": "lastUpdated",
              "type": "uint256"
            }
          ],
          "internalType": "struct StreamTypes.StreamState",
          "name": "",
          "type": "tuple"
        }
      ],
      "stateMutability": "view",
      "type": "function"
    },
    {
      "inputs": [],
      "name": "getStreamStatus",
      "outputs": [
        {
          "internalType": "enum StreamTypes.Status",
          "name": "",
          "type": "uint8"
        }
      ],
      "stateMutability": "view",
      "type": "function"
    },
    {
      "inputs": [
        {
          "components": [
            {
              "internalType": "uint256",
              "name": "streamOutAmount",
              "type": "uint256"
            },
            {
              "internalType": "address",
              "name": "outSupplyToken",
              "type": "address"
            },
            {
              "internalType": "uint256",
              "name": "bootstrappingStartTime",
              "type": "uint256"
            },
            {
              "internalType": "uint256",
              "name": "streamStartTime",
              "type": "uint256"
            },
            {
              "internalType": "uint256",
              "name": "streamEndTime",
              "type": "uint256"
            },
            {
              "internalType": "uint256",
              "name": "threshold",
              "type": "uint256"
            },
            {
              "internalType": "string",
              "name": "name",
              "type": "string"
            },
            {
              "internalType": "address",
              "name": "inSupplyToken",
              "type": "address"
            },
            {
              "internalType": "address",
              "name": "creator",
              "type": "address"
            },
            {
              "components": [
                {
                  "internalType": "bool",
                  "name": "isVestingEnabled",
                  "type": "bool"
                },
                {
                  "internalType": "uint16",
                  "name": "vestingDuration",
                  "type": "uint16"
                },
                {
                  "internalType": "uint16",
                  "name": "cliffDuration",
                  "type": "uint16"
                }
              ],
              "internalType": "struct StreamTypes.VestingInfo",
              "name": "creatorVesting",
              "type": "tuple"
            },
            {
              "components": [
                {
                  "internalType": "bool",
                  "name": "isVestingEnabled",
                  "type": "bool"
                },
                {
                  "internalType": "uint16",
                  "name": "vestingDuration",
                  "type": "uint16"
                },
                {
                  "internalType": "uint16",
                  "name": "cliffDuration",
                  "type": "uint16"
                }
              ],
              "internalType": "struct StreamTypes.VestingInfo",
              "name": "beneficiaryVesting",
              "type": "tuple"
            },
            {
              "components": [
                {
                  "internalType": "uint256",
                  "name": "poolOutSupplyAmount",
                  "type": "uint256"
                }
              ],
              "internalType": "struct StreamTypes.PoolInfo",
              "name": "poolInfo",
              "type": "tuple"
            },
            {
              "internalType": "bytes32",
              "name": "salt",
              "type": "bytes32"
            },
            {
              "internalType": "string",
              "name": "tosVersion",
              "type": "string"
            }
          ],
          "internalType": "struct StreamTypes.createStreamMessage",
          "name": "createStreamMessage",
          "type": "tuple"
        },
        {
          "internalType": "address",
          "name": "_positionStorageAddress",
          "type": "address"
        }
      ],
      "name": "initialize",
      "outputs": [],
      "stateMutability": "nonpayable",
      "type": "function"
    },
    {
      "inputs": [],
      "name": "positionStorageAddress",
      "outputs": [
        {
          "internalType": "address",
          "name": "",
          "type": "address"
        }
      ],
      "stateMutability": "view",
      "type": "function"
    },
    {
      "inputs": [],
      "name": "postStreamActions",
      "outputs": [
        {
          "components": [
            {
              "internalType": "uint256",
              "name": "poolOutSupplyAmount",
              "type": "uint256"
            }
          ],
          "internalType": "struct StreamTypes.PoolInfo",
          "name": "poolInfo",
          "type": "tuple"
        },
        {
          "components": [
            {
              "internalType": "bool",
              "name": "isVestingEnabled",
              "type": "bool"
            },
            {
              "internalType": "uint16",
              "name": "vestingDuration",
              "type": "uint16"
            },
            {
              "internalType": "uint16",
              "name": "cliffDuration",
              "type": "uint16"
            }
          ],
          "internalType": "struct StreamTypes.VestingInfo",
          "name": "creatorVesting",
          "type": "tuple"
        },
        {
          "components": [
            {
              "internalType": "bool",
              "name": "isVestingEnabled",
              "type": "bool"
            },
            {
              "internalType": "uint16",
              "name": "vestingDuration",
              "type": "uint16"
            },
            {
              "internalType": "uint16",
              "name": "cliffDuration",
              "type": "uint16"
            }
          ],
          "internalType": "struct StreamTypes.VestingInfo",
          "name": "beneficiaryVesting",
          "type": "tuple"
        }
      ],
      "stateMutability": "view",
      "type": "function"
    },
    {
      "inputs": [],
      "name": "streamMetadata",
      "outputs": [
        {
          "internalType": "string",
          "name": "name",
          "type": "string"
        }
      ],
      "stateMutability": "view",
      "type": "function"
    },
    {
      "inputs": [],
      "name": "streamState",
      "outputs": [
        {
          "internalType": "uint256",
          "name": "outRemaining",
          "type": "uint256"
        },
        {
          "components": [
            {
              "internalType": "uint256",
              "name": "value",
              "type": "uint256"
            }
          ],
          "internalType": "struct Decimal",
          "name": "distIndex",
          "type": "tuple"
        },
        {
          "internalType": "uint256",
          "name": "spentIn",
          "type": "uint256"
        },
        {
          "internalType": "uint256",
          "name": "shares",
          "type": "uint256"
        },
        {
          "components": [
            {
              "internalType": "uint256",
              "name": "value",
              "type": "uint256"
            }
          ],
          "internalType": "struct Decimal",
          "name": "currentStreamedPrice",
          "type": "tuple"
        },
        {
          "internalType": "uint256",
          "name": "threshold",
          "type": "uint256"
        },
        {
          "internalType": "uint256",
          "name": "inSupply",
          "type": "uint256"
        },
        {
          "internalType": "uint256",
          "name": "outSupply",
          "type": "uint256"
        },
        {
          "internalType": "uint256",
          "name": "lastUpdated",
          "type": "uint256"
        }
      ],
      "stateMutability": "view",
      "type": "function"
    },
    {
      "inputs": [],
      "name": "streamStatus",
      "outputs": [
        {
          "internalType": "enum StreamTypes.Status",
          "name": "",
          "type": "uint8"
        }
      ],
      "stateMutability": "view",
      "type": "function"
    },
    {
      "inputs": [],
      "name": "streamTimes",
      "outputs": [
        {
          "internalType": "uint256",
          "name": "bootstrappingStartTime",
          "type": "uint256"
        },
        {
          "internalType": "uint256",
          "name": "streamStartTime",
          "type": "uint256"
        },
        {
          "internalType": "uint256",
          "name": "streamEndTime",
          "type": "uint256"
        }
      ],
      "stateMutability": "view",
      "type": "function"
    },
    {
      "inputs": [],
      "name": "streamTokens",
      "outputs": [
        {
          "internalType": "address",
          "name": "inSupplyToken",
          "type": "address"
        },
        {
          "internalType": "address",
          "name": "outSupplyToken",
          "type": "address"
        }
      ],
      "stateMutability": "view",
      "type": "function"
    },
    {
      "inputs": [
        {
          "internalType": "uint256",
          "name": "amountIn",
          "type": "uint256"
        }
      ],
      "name": "subscribe",
      "outputs": [],
      "stateMutability": "payable",
      "type": "function"
    },
    {
      "inputs": [
        {
          "internalType": "address",
          "name": "user",
          "type": "address"
        }
      ],
      "name": "syncPosition",
      "outputs": [],
      "stateMutability": "nonpayable",
      "type": "function"
    },
    {
      "inputs": [],
      "name": "syncStreamExternal",
      "outputs": [],
      "stateMutability": "nonpayable",
      "type": "function"
    },
    {
      "inputs": [
        {
          "internalType": "uint256",
          "name": "cap",
          "type": "uint256"
        }
      ],
      "name": "withdraw",
      "outputs": [],
      "stateMutability": "nonpayable",
      "type": "function"
    }
  ],
  "transactionHash": "0x0041554f0a654da570fbc94aae506507731455043996c5dd342409c21643e918",
  "args": [
    "0x1aA4cbF9d83726540B7F00c1e78eDDA90908eBD2"
  ],
  "numDeployments": 1,
  "solcInputHash": "6786ec1a4aefe49027e8e521d102f618",
  "bytecode": "0x60a03461008157601f62002d5338819003918201601f19168301916001600160401b038311848410176100865780849260209460405283398101031261008157516001600160a01b038116810361008157608052604051612cb690816200009d82396080518181816101e401528181610c20015281816118ec01526120fb0152f35b600080fd5b634e487b7160e01b600052604160045260246000fdfe608080604052600436101561001357600080fd5b600090813560e01c90816302d05d3f146119e6575080630390547414610a295780630bcc8eba146118be5780630e5634df146117c35780630f574ba7146114cc57806316c197391461149a5780632ae4e931146114215780632e1a7d4d1461127157806334793e05146111935780637a7c04a614610a815780638a03764f14610a4f578063af5c3ac414610a29578063bdf4a94714610970578063c0ae398c146108ee578063cbf064151461082e578063d08452c2146107fb578063e427d08c146107d2578063e9a9e1441461070e578063f69e8fba146101b05763f7c843c8146100fd57600080fd5b346101ad5760203660031901126101ad57610116611b5d565b61011f81612383565b906101696101596101406101316122af565b61013961246d565b4291611da6565b936020850151906060860151429260c088015192612b4a565b9261016484846124f4565b6124ab565b60208251920151604051928352602083015260018060a01b0316907f366709aadaf43525a76cecc1264bd3e11f30bd3a30b5d42e7fcf2b1f81f818aa60403092a380f35b80fd5b50346101ad57806003193601126101ad576101c96125b4565b604051635e615a6b60e01b8082529091906001600160a01b037f00000000000000000000000000000000000000000000000000000000000000008116918385600481865afa9485156107035784956106e7575b5060ff600e54169461027861023b61023261246d565b9788429161259c565b9661026960405161024b81611afe565b600181526020998a3681840137600361026383611d05565b52611de6565b42906102736122af565b611da6565b9361028c8560a06040820151910151111590565b1561068057906102d392916102c88560c08401511691604084015187600b54169060408a015190620f42409485916102c38461280d565b612a8b565b510497888092611d38565b948161066e575b50505082946012549283610459575b505050505060ff601354166000146104345760135461031e61ffff610313818460181c1642611cc9565b9260081c1642611cc9565b9185600b54169086610120818b54169201511691823b156104305760405162f55c9960e61b81526001600160a01b039182166004820152911660248201526044810192909252606482019290925260848101839052908690829060a490829084905af1801561042557610408575b509061016492916103eb95965b6005938651806103ee575b508854169286519160405193845283015260408201528260608201527f476ec185ebf8c5d4d3d9fe3a58370d6626d3438833a6689990b80962f25e571460803092a3611cec565b80f35b6104019082600c5416838c541690612769565b50386103a4565b906103eb9561041b610164959493611aeb565b955090919261038c565b6040513d88823e3d90fd5b8980fd5b5090816103eb9596610453859461016496600b5416868b541690612769565b50610399565b9091929395506104688461280d565b61047360095461280d565b908b60405161048181611a99565b5251908282029180830484149015171561065a576104a86104c993926104c0925190612843565b604051906104b582611a99565b81526102c38961280d565b51048096611d38565b9487600b5416928a89600c54169360046040518094819382525afa90811561064f578991610140918d9161062d575b5001511692604051608081018181106001600160401b03821117610619576040908152828252818e0185815281830185815260608085018a815293516302e2616d60e61b815294518e16600486015291518d16602485015251604484015290516064830152816084818f895af1801561060e57610593575b50839291610588959461058292612769565b50612769565b5038808080806102e9565b6060813d8211610606575b816105ab60609383611b19565b81010312610602579184610582928e60406105f3816105889b9a99988151946105d386611ad0565b6105dc82611e72565b86526105e9818301611e72565b9086015201611e72565b91015292505091929394610570565b8b80fd5b3d915061059e565b6040513d8e823e3d90fd5b634e487b7160e01b8d52604160045260248dfd5b61064991503d808f833e6106418183611b19565b810190611ea4565b386104f8565b6040513d8d823e3d90fd5b634e487b7160e01b8c52601160045260248cfd5b61067792612769565b503886816102da565b5050506103eb929361016491600491600482600c5416926106ac818a54169460e0890195865191612769565b508854169251916040519283528201527f2e83dafa2991dd7c20bc281659948e55f6f2eaa4cba2d06345f3109ec15fcaf960403092a3611cec565b6106fc9195503d8086833e6106418183611b19565b933861021c565b6040513d86823e3d90fd5b50346101ad57806003193601126101ad576107276125b4565b61076461074260ff600e541661073b61246d565b429161259c565b6040519061074f82611afe565b60018252602036818401378361026383611d05565b600c5481546009546001600160a01b0392610783928416908416612769565b50600660ff19600e541617600e558154166009546040519182526020820152600660408201527febb55ea32d517c9ec85f61357977ac73b84e65ebeaedb528ed791d7e25e30a2b60603092a280f35b50346101ad57806003193601126101ad576001546040516001600160a01b039091168152602090f35b50346101ad57806003193601126101ad57600b54600c54604080516001600160a01b039384168152919092166020820152f35b50346101ad57806003193601126101ad5761084833612383565b61085181611e3f565b156108dc576103eb906108d661088861087061086b6122af565b612550565b926020840151606085015160c0860151914293612b4a565b916101646108a560ff600e5416429061089f61246d565b9061259c565b6108cb6108bb8460a06040820151910151111590565b866108c4611c96565b9184611fd7565b4260e0860152611cec565b336124f4565b60405163673f032f60e11b8152600490fd5b50346101ad57806003193601126101ad5761012060025460405161091181611a99565b600354815260045460055460405161092881611a99565b6006548152600754906008549260095494600a54966040519889525160208901526040880152606087015251608086015260a085015260c084015260e0830152610100820152f35b50346101ad57806003193601126101ad5760e060405161098f81611a99565b6012548152610a276040516109a381611ad0565b60135460ff81161515825261ffff90818160081c16602084015260181c166040820152610a006109d1611c96565b916040519451855260208501906040908051151583528161ffff91826020820151166020860152015116910152565b805115156080840152602081015161ffff90811660a08501526040909101511660c0830152565bf35b50346101ad57806003193601126101ad57602060ff600e5416610a276040518092611a0a565b50346101ad57806003193601126101ad57600f5460105460115460408051938452602084019290925290820152606090f35b50346101ad5760031960403682011261117b576001600160401b036004351161117b5761024090600435360301126101ad57604051906101c082018281106001600160401b0382111761117f57604052600435600401358252610ae8602460043501611b78565b602083015260043560448101356040840152606481013560608401526084810135608084015260a481013560a084015260c401356001600160401b03811161117b57610b3b906004369181350101611bf4565b60c0830152610b4e60e460043501611b78565b60e0830152610b6261010460043501611b78565b610100830152610b783661012460043501611c4a565b610120830152610b8e3661018460043501611c4a565b610140830152602060043536036101e31901126101ad57604051610bb181611a99565b6101e460043501358152610160830152610204600435013561018083015261022460043501356001600160401b03811161117b57610bf6906004369181350101611bf4565b6101a08301526024356001600160a01b038116810361117b576001549060ff8260a01c1661116a577f00000000000000000000000000000000000000000000000000000000000000006001600160a01b0316330361116a576020840151610c679033906001600160a01b03166125cf565b1561115857610c96610c8185516101608701515190611cc9565b602086015130906001600160a01b03166126b8565b156111465760e0840151610cb49033906001600160a01b03166125cf565b156111345761012084015180516110b5575b506101408401518051611012575b506101608401515180610fe9575b506001600160a01b039081166001600160a01b0319928316176001556101008401518354911691161781556040518190610d1b81611a99565b52604051610d2881611a99565b81815282519082604051610d3b81611a99565b52604051610d4881611a99565b83815260a085015191855193604051610d6081611ab4565b8181528260208201528660408201528660608201528360808201528460a08201528660c08201528560e082015261010042910152600255516003558360045583600555516006556007558160085560095542600a5560018060a01b0360e08301511660018060a01b0360208401511690604051604081018181106001600160401b03821117610fd557839160209160405283815201526bffffffffffffffffffffffff60a01b600b541617600b556bffffffffffffffffffffffff60a01b600c541617600c5560c08201519182604051610e3981611a99565b5282516001600160401b038111610fc157610e55600d54611a2d565b601f8111610f5e575b506020601f8211600114610edd57839482939492610ed2575b50508160011b916000199060031b1c191617600d555b60ff19600e5416600e556040810151906080606082015191015191610eb3604051611ad0565b600f556010556011556001805460ff60a01b1916600160a01b17905580f35b015190503880610e77565b600d84527fd7b6990105719101dabeb77144f2a3385c8033acd3af97e9423a695e81ad1eb590601f198316855b818110610f4657509583600195969710610f2d575b505050811b01600d55610e8d565b015160001960f88460031b161c19169055388080610f1f565b9192602060018192868b015181550194019201610f0a565b600d84527fd7b6990105719101dabeb77144f2a3385c8033acd3af97e9423a695e81ad1eb5601f830160051c81019160208410610fb7575b601f0160051c01905b818110610fac5750610e5e565b848155600101610f9f565b9091508190610f96565b634e487b7160e01b83526041600452602483fd5b634e487b7160e01b85526041600452602485fd5b845110611000576101608401515160125538610ce2565b60405163162908e360e11b8152600490fd5b6020015161ffff16156110a35761ffff6040610140860151015116156110915761014084015161ffff60208160408401511692015116111561109157610140840151805115159060145460ff64ffff000000604062ffff00602086015160081b1694015160181b1693169064ffffffffff191617171760145538610cd4565b604051632676310d60e11b8152600490fd5b604051632b39f6cb60e01b8152600490fd5b6020015161ffff16156110a35761ffff6040610120860151015116156110915761012084015161ffff60208160408401511692015116111561109157610120840151805115159060135460ff64ffff000000604062ffff00602086015160081b1694015160181b1693169064ffffffffff191617171760135538610cc6565b604051632181b39760e01b8152600490fd5b6040516357084d7360e11b8152600490fd5b6040516372146d6160e11b8152600490fd5b6040516282b42960e81b8152600490fd5b5080fd5b634e487b7160e01b82526041600452602482fd5b50346101ad57806003193601126101ad576111ac6122af565b6111da6111c36111ba61246d565b92834291611da6565b916111cd836124ab565b429060ff600e541661259c565b6111e381611cec565b61010082015191600782101561125d576020810151815160c08301519160ff60806040860151950151956040519788521660208701525160408601526060850152608084015260a08301525160c08201527f335a3e7f39aaebd3c219ca4ebda42ee6bb0cbd2b660d4d71a0dac6f7c03d710960e03092a280f35b634e487b7160e01b84526021600452602484fd5b50346101ad5760208060031936011261117b5760043590611291826125c8565b61129a33612383565b916112a483611e3f565b156108dc576113056112b461246d565b6102696112c860ff600e541683429161259c565b6113006040516112d781611ad0565b600281526040368983013760026112ed82611d05565b5260016112f982611d28565b5282611de6565b611cec565b8281015191611324606083019384519660c08501974292895192612b4a565b9182518211611408577ffabb9e7afa4ef595f60e1ae9041b2b311b4acb27aeaed4b11b6f2abf689af10a9392916113a96113bc92845183146000146113ef5761139d88860151985b86019861137a818b51611d38565b8a52611387858851611d38565b8752611394858c51611d38565b8b528751611d38565b865261016485336124f4565b600b5433906001600160a01b0316612769565b50519251935190516040805194855260208501959095529383015260608201929092523391309180608081015b0390a380f35b61139d6114028a518a8801519086612b04565b9861136c565b6040516318928cbf60e31b815260048101839052602490fd5b50346101ad57806003193601126101ad5761012061143d6122af565b604051908051825260208101515160208301526040810151604083015260608101516060830152608081015151608083015260a081015160a083015260c081015160c083015260e081015160e08301526101008091015190820152f35b50346101ad5760203660031901126101ad576101006114bf6114ba611b5d565b612383565b610a276040518092611b8c565b5060208060031936011261117b576004356114e6816125c8565b61152b6114fa60ff600e541661073b61246d565b61130060405161150981611ad0565b6002815260403687830137600161151f82611d05565b5260026112f982611d28565b600b546040516370a0823160e01b81523360048201526001600160a01b03909116908381602481855afa9081156117b8578591611787575b5082811061176957508284916064604051809481936323b872dd60e01b83523360048401523060248401528760448401525af190811561070357849161173c575b501561172a576115b333612383565b6115be61086b6122af565b9083810151156000146116b957508061160260c07f1913e17d5784005a914657f9e879fcc261644776365f1d84aeb45afcb6da486493015160608301519085612ad7565b93808201518660405161161481611a99565b526040519061162282611a99565b878252866040519361163385611a67565b878552840152604083015242606083015260808201528560a08201528560c08201528560e0820152905b61168d60c0820191611670868451611cc9565b83526101646060820194611685898751611cc9565b8652336124f4565b5190516040805194855260208501959095529383015260608201929092523391309180608081016113e9565b928161170860c07f1913e17d5784005a914657f9e879fcc261644776365f1d84aeb45afcb6da486494018051966116f7606085019889519089612ad7565b978585015190519042935192612b4a565b91611714858451611cc9565b83528201611723868251611cc9565b905261165d565b6040516307a4ced160e51b8152600490fd5b61175c9150833d8511611762575b6117548183611b19565b810190611e5a565b386115a4565b503d61174a565b82604491604051916381ddee1b60e01b835260048301526024820152fd5b90508381813d83116117b1575b61179e8183611b19565b810103126117ad575138611563565b8480fd5b503d611794565b6040513d87823e3d90fd5b50346101ad57806003193601126101ad576040518190600d54926117e684611a2d565b8083526020809581850193600191828116908160001461189e5750600114611845575b5050505061181b826040940383611b19565b6118378351948593818552519283809286015285850190611b3a565b601f01601f19168101030190f35b92919550600d83527fd7b6990105719101dabeb77144f2a3385c8033acd3af97e9423a695e81ad1eb55b82841061188b5750505082019092019161181b84604084611809565b805486850188015292860192810161186f565b60ff1916865250505090151560051b830101925061181b84604084611809565b50346101ad57806003193601126101ad57604051635e615a6b60e01b81526001600160a01b039082816004817f000000000000000000000000000000000000000000000000000000000000000086165afa9081156119db57829160e09185916119c1575b50015116330361116a5761193d60ff600e541661073b61246d565b60405190608082018281106001600160401b03821117610fd5576040526003825260603660208401378361197083611d05565b52600161197c83611d28565b528151600210156119ad57906119989160026060830152611de6565b61078381600c54168284541660095491612769565b634e487b7160e01b84526032600452602484fd5b6119d591503d8087833e6106418183611b19565b38611922565b6040513d85823e3d90fd5b90503461117b578160031936011261117b5790546001600160a01b03168152602090f35b906007821015611a175752565b634e487b7160e01b600052602160045260246000fd5b90600182811c92168015611a5d575b6020831014611a4757565b634e487b7160e01b600052602260045260246000fd5b91607f1691611a3c565b61010081019081106001600160401b03821117611a8357604052565b634e487b7160e01b600052604160045260246000fd5b602081019081106001600160401b03821117611a8357604052565b61012081019081106001600160401b03821117611a8357604052565b606081019081106001600160401b03821117611a8357604052565b6001600160401b038111611a8357604052565b604081019081106001600160401b03821117611a8357604052565b90601f801991011681019081106001600160401b03821117611a8357604052565b60005b838110611b4d5750506000910152565b8181015183820152602001611b3d565b600435906001600160a01b0382168203611b7357565b600080fd5b35906001600160a01b0382168203611b7357565b60e080918051845260208101516020850152604081015151604085015260608101516060850152608081015151608085015260a081015160a085015260c081015160c08501520151910152565b6001600160401b038111611a8357601f01601f191660200190565b81601f82011215611b7357803590611c0b82611bd9565b92611c196040519485611b19565b82845260208383010111611b7357816000926020809301838601378301015290565b359061ffff82168203611b7357565b9190826060910312611b7357604051611c6281611ad0565b80928035908115158203611b73576040611c919181938552611c8660208201611c3b565b602086015201611c3b565b910152565b60405190611ca382611ad0565b81604060145460ff81161515835261ffff90818160081c16602085015260181c16910152565b91908201809211611cd657565b634e487b7160e01b600052601160045260246000fd5b6007811015611a175760ff8019600e5416911617600e55565b805115611d125760200190565b634e487b7160e01b600052603260045260246000fd5b805160011015611d125760400190565b91908203918211611cd657565b60405190611d5282611ab4565b81610100600091828152604051611d6881611a99565b8381526020820152826040820152826060820152604051611d8881611a99565b83815260808201528260a08201528260c08201528260e08201520152565b91611daf611d45565b50611dcd604060208401519301519261010085019384519184612863565b9152805115611de257611ddf916129cb565b90565b5090565b91909160005b8351811015611e2d5760208160051b85010151600780821015611a1757831015611a17578214611e27576000198114611cd657600101611dec565b50509050565b604051637a851da960e11b8152600490fd5b602081015115159081611e50575090565b60e0915001511590565b90816020910312611b7357518015158103611b735790565b51906001600160a01b0382168203611b7357565b9190826020910312611b7357604051611e9e81611a99565b91518252565b6020918282820312611b735781516001600160401b0392838211611b73570191610180938484840312611b735760405194850185811083821117611a835760405283518552611ef4818501611e72565b81860152611f058360408601611e86565b6040860152606084015160608601526080840151608086015260a084015160a0860152611f3460c08501611e72565b60c0860152611f4560e08501611e72565b60e08601526101009182850151908111611b7357840183601f82011215611b7357805190611f7282611bd9565b94611f806040519687611b19565b828652838383010111611b735782611f9b9386019101611b3a565b830152610120611fac818301611e72565b90830152610140611fbe818301611e72565b90830152611fd0610160809201611e72565b9082015290565b919290600783101580611a1757600384149283806122a8575b801561229a575b6120be575080611a1757600684149384156120af575b50831561208f575b50505061202e5760405163eee2192360e01b8152600490fd5b8060a061203f925191015190611cc9565b600b5461205890829033906001600160a01b0316612769565b5060405190815242602082015233907f974d269dfe471aa7c09788034bef284519056ae9769575104f22c0456456dd0960403092a3565b90919250611a1757816120a6575b50388080612015565b9050153861209d565b6004149350600090503861200d565b935050505081518061227b575b508051156122585760c0820151604051635e615a6b60e01b815290916000916001600160a01b03919083816004817f000000000000000000000000000000000000000000000000000000000000000087165afa90811561070357839161012091869161223e575b500151169061215b61215461ffff602081604086015116940151169242611cc9565b9142611cc9565b9261216b868483600c5416612769565b50600c5416823b156117ad5760405162f55c9960e61b81523360048201526001600160a01b03919091166024820152604481019190915260648101929092526084820193909352918190839060a490829084905af19081156122325750612223575b505b60a060c08201519101517f42c690944bb098e84e7a84f157acef3324928623259330b1ba03ec0495407bb46040518061221e339530954291846040919493926060820195825260208201520152565b0390a3565b61222c90611aeb565b386121cd565b604051903d90823e3d90fd5b61225291503d8088833e6106418183611b19565b38612132565b50600c5460c08201516122759133906001600160a01b0316612769565b506121cf565b600b54612293919033906001600160a01b0316612769565b50386120cb565b506000915060058514611ff7565b5082611ff0565b6122b7611d45565b506040516122c481611ab4565b60025481526040516122d581611a99565b60035481526020820152600454604082015260055460608201526040516122fb81611a99565b6006548152608082015260075460a082015260085460c082015260095460e0820152600a5461010082015290565b6040519061233682611a67565b8160e060009182815282602082015260405161235181611a99565b838152604082015282606082015260405161236b81611a99565b83815260808201528260a08201528260c08201520152565b61238b612329565b506001546040516316c1973960e01b81526001600160a01b0392831660048201529161010091829184916024918391165afa918215612461576000926123d057505090565b9091823d841161245a575b6123e58184611b19565b820192828403126101ad575060e0906124376040519361240485611a67565b825185526020830151602086015261241f8160408501611e86565b60408601526060830151606086015260808301611e86565b608084015260a081015160a084015260c081015160c0840152015160e082015290565b503d6123db565b6040513d6000823e3d90fd5b60006040805161247c81611ad0565b828152826020820152015260405161249381611ad0565b600f5481526010546020820152601154604082015290565b80516002556020810151516003556040810151600455606081015160055560808101515160065560a081015160075560c081015160085560e08101516009556101000151600a55565b6001546001600160a01b03908116803b15611b7357600092836101249261253660405197889687956360d6081360e11b87521660048601526024850190611b8c565b5af18015612461576125455750565b61254e90611aeb565b565b612558611d45565b5061256161246d565b61257e604060208301519201519161010092838501519142612863565b805161258957505090565b61259391926129cb565b80914291015290565b90611ddf928151906040602084015193015193612952565b6000546001600160a01b0316330361116a57565b1561100057565b6001600160a01b039081169190821561264257602460209260405194859384926370a0823160e01b84521660048301525afa9081612617575b5061261257600090565b600190565b602090813d811161263b575b61262d8183611b19565b81010312611b735738612608565b503d612623565b505050600090565b600060443d10611ddf57604051600319913d83016004833e81516001600160401b03918282113d6024840111176126a7578184019485519384116126af573d850101602084870101116126a75750611ddf92910160200190611b19565b949350505050565b50949350505050565b6040516370a0823160e01b81526001600160a01b0392831660048201529160209183916024918391165afa60009181612736575b50612731575050600060033d11612723575b6308c379a01461270d57600090565b61271561264a565b61271e57600090565b600090565b600481803e5160e01c6126fe565b101590565b90916020823d8211612761575b8161275060209383611b19565b810103126101ad57505190386126ec565b3d9150612743565b919091811580156127e9575b6127e15760446020926000604051958694859363a9059cbb60e01b855260018060a01b0380931660048601526024850152165af1908115612461576000916127c3575b501561172a57600190565b6127db915060203d8111611762576117548183611b19565b386127b8565b505050600190565b506001600160a01b03831615612775565b81810292918115918404141715611cd657565b600060405161281b81611a99565b52620f424090818102918183041490151715611cd6576040519061283e82611a99565b815290565b811561284d570490565b634e487b7160e01b600052601260045260246000fd5b92909192600060405161287581611a99565b52828110801561290d575b6128fb57826128a99383106128f3575b50818482116128eb575b6128a391611d38565b92611d38565b801580156128e3575b6128bf57611ddf91612917565b505060006040516128cf81611a99565b526040516128dc81611a99565b6000815290565b5081156128b2565b84915061289a565b915038612890565b5050505060006040516128cf81611a99565b5083821015612880565b90600060405161292681611a99565b52620f424091828102928184041490151715611cd65761294591612843565b6040519061283e82611a99565b92919092600781101580611a1757600682149081156129be575b81156129ae575b506129a6575082101561298857505050600090565b811015612996575050600190565b10156129a157600290565b600390565b935050505090565b9050611a17576005811438612973565b505060048114600061296c565b906129d4611d45565b5060608201908151151580612a81575b6129ed57505090565b620f42409081612a01826102c3875161280d565b510491612a1660c08601926102c3845161280d565b51049060408501612a28838251611cc9565b9052612a35828251611d38565b905281612a43575b50505090565b612a5e612a7493612a55848751611d38565b86525183612917565b612a6d60208601918251612aba565b9052612917565b6080820152388080612a3d565b50805115156129e4565b620f424091612aac916000604051612aa281611a99565b52519051906127fa565b046040519061283e82611a99565b90612945916000604051612acd81611a99565b5251905190611cc9565b9180158015612afc575b612af757611ddf92612af2916127fa565b612843565b505090565b508215612ae1565b909180158015612b42575b612b3c57612b21612b269284926127fa565b611cc9565b600019810191908211611cd657611ddf91612843565b50905090565b508115612b0f565b939291612b55612329565b50845190602086015195604091828201519760608301519660808401519160a085015195612bdd60e060c08801519701519c82519d8e9a612b958c611a67565b8b5260208b0194855260e0848c019b838d52606081019e8f526080810198895260a081019b8c5260c081019a8b52015260008351612bd281611a99565b528a51905190611d38565b93815194612bea86611a99565b855285612bff575b5050505050505050525290565b612c5996612c4f612c22612c1a612af2986102c3885161280d565b845190612aba565b60008551612c2f81611a99565b5251935193612c3d85611a99565b620f4240908181068652048251611cc9565b90525251906127fa565b90612c6f612c68838951611d38565b8251611cc9565b905285523880808080808080612bf256fea2646970667358221220277fc15100b2289922bbe442f5ceb58f5dab34ac58456072fc242238277db5cc64736f6c63430008140033",
  "devdoc": {
    "kind": "dev",
    "methods": {
      "getStreamState()": {
        "details": "Get the current stream state",
        "returns": {
          "_0": "The current stream state"
        }
      },
      "getStreamStatus()": {
        "details": "Get the current stream status",
        "returns": {
          "_0": "The current stream status"
        }
      }
    },
    "version": 1
  },
  "userdoc": {
    "kind": "user",
    "methods": {},
    "version": 1
  },
  "storageLayout": {
    "storage": [
      {
        "astId": 107,
        "contract": "contracts/Stream.sol:Stream",
        "label": "creator",
        "offset": 0,
        "slot": "0",
        "type": "t_address"
      },
      {
        "astId": 111,
        "contract": "contracts/Stream.sol:Stream",
        "label": "positionStorageAddress",
        "offset": 0,
        "slot": "1",
        "type": "t_address"
      },
      {
        "astId": 113,
        "contract": "contracts/Stream.sol:Stream",
        "label": "initialized",
        "offset": 20,
        "slot": "1",
        "type": "t_bool"
      },
      {
        "astId": 116,
        "contract": "contracts/Stream.sol:Stream",
        "label": "streamState",
        "offset": 0,
        "slot": "2",
        "type": "t_struct(StreamState)5831_storage"
      },
      {
        "astId": 119,
        "contract": "contracts/Stream.sol:Stream",
        "label": "streamTokens",
        "offset": 0,
        "slot": "11",
        "type": "t_struct(StreamTokens)5836_storage"
      },
      {
        "astId": 122,
        "contract": "contracts/Stream.sol:Stream",
        "label": "streamMetadata",
        "offset": 0,
        "slot": "13",
        "type": "t_struct(StreamMetadata)5810_storage"
      },
      {
        "astId": 125,
        "contract": "contracts/Stream.sol:Stream",
        "label": "streamStatus",
        "offset": 0,
        "slot": "14",
        "type": "t_enum(Status)5768"
      },
      {
        "astId": 128,
        "contract": "contracts/Stream.sol:Stream",
        "label": "streamTimes",
        "offset": 0,
        "slot": "15",
        "type": "t_struct(StreamTimes)5807_storage"
      },
      {
        "astId": 131,
        "contract": "contracts/Stream.sol:Stream",
        "label": "postStreamActions",
        "offset": 0,
        "slot": "18",
        "type": "t_struct(PostStreamActions)5856_storage"
      }
    ],
    "types": {
      "t_address": {
        "encoding": "inplace",
        "label": "address",
        "numberOfBytes": "20"
      },
      "t_bool": {
        "encoding": "inplace",
        "label": "bool",
        "numberOfBytes": "1"
      },
      "t_enum(Status)5768": {
        "encoding": "inplace",
        "label": "enum StreamTypes.Status",
        "numberOfBytes": "1"
      },
      "t_string_storage": {
        "encoding": "bytes",
        "label": "string",
        "numberOfBytes": "32"
      },
      "t_struct(Decimal)4510_storage": {
        "encoding": "inplace",
        "label": "struct Decimal",
        "members": [
          {
            "astId": 4509,
            "contract": "contracts/Stream.sol:Stream",
            "label": "value",
            "offset": 0,
            "slot": "0",
            "type": "t_uint256"
          }
        ],
        "numberOfBytes": "32"
      },
      "t_struct(PoolInfo)5846_storage": {
        "encoding": "inplace",
        "label": "struct StreamTypes.PoolInfo",
        "members": [
          {
            "astId": 5845,
            "contract": "contracts/Stream.sol:Stream",
            "label": "poolOutSupplyAmount",
            "offset": 0,
            "slot": "0",
            "type": "t_uint256"
          }
        ],
        "numberOfBytes": "32"
      },
      "t_struct(PostStreamActions)5856_storage": {
        "encoding": "inplace",
        "label": "struct StreamTypes.PostStreamActions",
        "members": [
          {
            "astId": 5849,
            "contract": "contracts/Stream.sol:Stream",
            "label": "poolInfo",
            "offset": 0,
            "slot": "0",
            "type": "t_struct(PoolInfo)5846_storage"
          },
          {
            "astId": 5852,
            "contract": "contracts/Stream.sol:Stream",
            "label": "creatorVesting",
            "offset": 0,
            "slot": "1",
            "type": "t_struct(VestingInfo)5843_storage"
          },
          {
            "astId": 5855,
            "contract": "contracts/Stream.sol:Stream",
            "label": "beneficiaryVesting",
            "offset": 0,
            "slot": "2",
            "type": "t_struct(VestingInfo)5843_storage"
          }
        ],
        "numberOfBytes": "96"
      },
      "t_struct(StreamMetadata)5810_storage": {
        "encoding": "inplace",
        "label": "struct StreamTypes.StreamMetadata",
        "members": [
          {
            "astId": 5809,
            "contract": "contracts/Stream.sol:Stream",
            "label": "name",
            "offset": 0,
            "slot": "0",
            "type": "t_string_storage"
          }
        ],
        "numberOfBytes": "32"
      },
      "t_struct(StreamState)5831_storage": {
        "encoding": "inplace",
        "label": "struct StreamTypes.StreamState",
        "members": [
          {
            "astId": 5812,
            "contract": "contracts/Stream.sol:Stream",
            "label": "outRemaining",
            "offset": 0,
            "slot": "0",
            "type": "t_uint256"
          },
          {
            "astId": 5815,
            "contract": "contracts/Stream.sol:Stream",
            "label": "distIndex",
            "offset": 0,
            "slot": "1",
            "type": "t_struct(Decimal)4510_storage"
          },
          {
            "astId": 5817,
            "contract": "contracts/Stream.sol:Stream",
            "label": "spentIn",
            "offset": 0,
            "slot": "2",
            "type": "t_uint256"
          },
          {
            "astId": 5819,
            "contract": "contracts/Stream.sol:Stream",
            "label": "shares",
            "offset": 0,
            "slot": "3",
            "type": "t_uint256"
          },
          {
            "astId": 5822,
            "contract": "contracts/Stream.sol:Stream",
            "label": "currentStreamedPrice",
            "offset": 0,
            "slot": "4",
            "type": "t_struct(Decimal)4510_storage"
          },
          {
            "astId": 5824,
            "contract": "contracts/Stream.sol:Stream",
            "label": "threshold",
            "offset": 0,
            "slot": "5",
            "type": "t_uint256"
          },
          {
            "astId": 5826,
            "contract": "contracts/Stream.sol:Stream",
            "label": "inSupply",
            "offset": 0,
            "slot": "6",
            "type": "t_uint256"
          },
          {
            "astId": 5828,
            "contract": "contracts/Stream.sol:Stream",
            "label": "outSupply",
            "offset": 0,
            "slot": "7",
            "type": "t_uint256"
          },
          {
            "astId": 5830,
            "contract": "contracts/Stream.sol:Stream",
            "label": "lastUpdated",
            "offset": 0,
            "slot": "8",
            "type": "t_uint256"
          }
        ],
        "numberOfBytes": "288"
      },
      "t_struct(StreamTimes)5807_storage": {
        "encoding": "inplace",
        "label": "struct StreamTypes.StreamTimes",
        "members": [
          {
            "astId": 5802,
            "contract": "contracts/Stream.sol:Stream",
            "label": "bootstrappingStartTime",
            "offset": 0,
            "slot": "0",
            "type": "t_uint256"
          },
          {
            "astId": 5804,
            "contract": "contracts/Stream.sol:Stream",
            "label": "streamStartTime",
            "offset": 0,
            "slot": "1",
            "type": "t_uint256"
          },
          {
            "astId": 5806,
            "contract": "contracts/Stream.sol:Stream",
            "label": "streamEndTime",
            "offset": 0,
            "slot": "2",
            "type": "t_uint256"
          }
        ],
        "numberOfBytes": "96"
      },
      "t_struct(StreamTokens)5836_storage": {
        "encoding": "inplace",
        "label": "struct StreamTypes.StreamTokens",
        "members": [
          {
            "astId": 5833,
            "contract": "contracts/Stream.sol:Stream",
            "label": "inSupplyToken",
            "offset": 0,
            "slot": "0",
            "type": "t_address"
          },
          {
            "astId": 5835,
            "contract": "contracts/Stream.sol:Stream",
            "label": "outSupplyToken",
            "offset": 0,
            "slot": "1",
            "type": "t_address"
          }
        ],
        "numberOfBytes": "64"
      },
      "t_struct(VestingInfo)5843_storage": {
        "encoding": "inplace",
        "label": "struct StreamTypes.VestingInfo",
        "members": [
          {
            "astId": 5838,
            "contract": "contracts/Stream.sol:Stream",
            "label": "isVestingEnabled",
            "offset": 0,
            "slot": "0",
            "type": "t_bool"
          },
          {
            "astId": 5840,
            "contract": "contracts/Stream.sol:Stream",
            "label": "vestingDuration",
            "offset": 1,
            "slot": "0",
            "type": "t_uint16"
          },
          {
            "astId": 5842,
            "contract": "contracts/Stream.sol:Stream",
            "label": "cliffDuration",
            "offset": 3,
            "slot": "0",
            "type": "t_uint16"
          }
        ],
        "numberOfBytes": "32"
      },
      "t_uint16": {
        "encoding": "inplace",
        "label": "uint16",
        "numberOfBytes": "2"
      },
      "t_uint256": {
        "encoding": "inplace",
        "label": "uint256",
        "numberOfBytes": "32"
      }
    }
  }
}