{
  "address": "0x1aA4cbF9d83726540B7F00c1e78eDDA90908eBD2",
  "abi": [
    {
      "inputs": [
        {
          "internalType": "address",
          "name": "_protocolAdmin",
          "type": "address"
        }
      ],
      "stateMutability": "nonpayable",
      "type": "constructor"
    },
    {
      "inputs": [],
      "name": "BootstrappingDurationTooShort",
      "type": "error"
    },
    {
      "inputs": [],
      "name": "ContractFrozen",
      "type": "error"
    },
    {
      "inputs": [],
      "name": "ERC1167FailedCreateClone",
      "type": "error"
    },
    {
      "inputs": [],
      "name": "FeeTransferFailed",
      "type": "error"
    },
    {
      "inputs": [],
      "name": "InsufficientNativeToken",
      "type": "error"
    },
    {
      "inputs": [],
      "name": "InvalidBootstrappingStartTime",
      "type": "error"
    },
    {
      "inputs": [],
      "name": "InvalidBootstrappingTime",
      "type": "error"
    },
    {
      "inputs": [],
      "name": "InvalidExitFeeRatio",
      "type": "error"
    },
    {
      "inputs": [],
      "name": "InvalidFeeCollector",
      "type": "error"
    },
    {
      "inputs": [],
      "name": "InvalidImplementationAddress",
      "type": "error"
    },
    {
      "inputs": [],
      "name": "InvalidPoolWrapper",
      "type": "error"
    },
    {
      "inputs": [],
      "name": "InvalidProtocolAdmin",
      "type": "error"
    },
    {
      "inputs": [],
      "name": "InvalidStreamEndTime",
      "type": "error"
    },
    {
      "inputs": [],
      "name": "InvalidStreamStartTime",
      "type": "error"
    },
    {
      "inputs": [],
      "name": "InvalidToSVersion",
      "type": "error"
    },
    {
      "inputs": [],
      "name": "NotAdmin",
      "type": "error"
    },
    {
      "inputs": [],
      "name": "StreamAddressPredictionFailed",
      "type": "error"
    },
    {
      "inputs": [],
      "name": "StreamDurationTooShort",
      "type": "error"
    },
    {
      "inputs": [],
      "name": "StreamEndMustBeAfterStart",
      "type": "error"
    },
    {
      "inputs": [],
      "name": "StreamInputTokenNotAccepted",
      "type": "error"
    },
    {
      "inputs": [],
      "name": "StreamStartMustBeAfterBootstrapping",
      "type": "error"
    },
    {
      "inputs": [],
      "name": "TokenTransferFailed",
      "type": "error"
    },
    {
      "inputs": [],
      "name": "WaitingDurationTooShort",
      "type": "error"
    },
    {
      "inputs": [],
      "name": "ZeroOutSupplyNotAllowed",
      "type": "error"
    },
    {
      "anonymous": false,
      "inputs": [
        {
          "indexed": true,
          "internalType": "address",
          "name": "factory",
          "type": "address"
        },
        {
          "indexed": false,
          "internalType": "address[]",
          "name": "tokensAdded",
          "type": "address[]"
        },
        {
          "indexed": false,
          "internalType": "address[]",
          "name": "tokensRemoved",
          "type": "address[]"
        }
      ],
      "name": "AcceptedTokensUpdated",
      "type": "event"
    },
    {
      "anonymous": false,
      "inputs": [
        {
          "indexed": true,
          "internalType": "address",
          "name": "streamAddress",
          "type": "address"
        },
        {
          "indexed": true,
          "internalType": "address",
          "name": "subscriber",
          "type": "address"
        },
        {
          "indexed": false,
          "internalType": "uint256",
          "name": "refundedAmount",
          "type": "uint256"
        },
        {
          "indexed": false,
          "internalType": "uint256",
          "name": "exitTimestamp",
          "type": "uint256"
        }
      ],
      "name": "ExitRefunded",
      "type": "event"
    },
    {
      "anonymous": false,
      "inputs": [
        {
          "indexed": true,
          "internalType": "address",
          "name": "streamAddress",
          "type": "address"
        },
        {
          "indexed": true,
          "internalType": "address",
          "name": "subscriber",
          "type": "address"
        },
        {
          "indexed": false,
          "internalType": "uint256",
          "name": "purchased",
          "type": "uint256"
        },
        {
          "indexed": false,
          "internalType": "uint256",
          "name": "spentIn",
          "type": "uint256"
        },
        {
          "indexed": false,
          "internalType": "uint256",
          "name": "exitTimestamp",
          "type": "uint256"
        }
      ],
      "name": "ExitStreamed",
      "type": "event"
    },
    {
      "anonymous": false,
      "inputs": [
        {
          "indexed": true,
          "internalType": "address",
          "name": "factory",
          "type": "address"
        },
        {
          "indexed": false,
          "internalType": "address",
          "name": "newFeeCollector",
          "type": "address"
        }
      ],
      "name": "FeeCollectorUpdated",
      "type": "event"
    },
    {
      "anonymous": false,
      "inputs": [
        {
          "indexed": true,
          "internalType": "address",
          "name": "streamAddress",
          "type": "address"
        },
        {
          "indexed": true,
          "internalType": "address",
          "name": "creator",
          "type": "address"
        },
        {
          "indexed": false,
          "internalType": "uint256",
          "name": "refundedOutAmount",
          "type": "uint256"
        },
        {
          "indexed": false,
          "internalType": "enum StreamTypes.Status",
          "name": "status",
          "type": "uint8"
        }
      ],
      "name": "FinalizedRefunded",
      "type": "event"
    },
    {
      "anonymous": false,
      "inputs": [
        {
          "indexed": true,
          "internalType": "address",
          "name": "streamAddress",
          "type": "address"
        },
        {
          "indexed": true,
          "internalType": "address",
          "name": "creator",
          "type": "address"
        },
        {
          "indexed": false,
          "internalType": "uint256",
          "name": "creatorRevenue",
          "type": "uint256"
        },
        {
          "indexed": false,
          "internalType": "uint256",
          "name": "exitFeeAmount",
          "type": "uint256"
        },
        {
          "indexed": false,
          "internalType": "uint256",
          "name": "refundedOutAmount",
          "type": "uint256"
        },
        {
          "indexed": false,
          "internalType": "enum StreamTypes.Status",
          "name": "status",
          "type": "uint8"
        }
      ],
      "name": "FinalizedStreamed",
      "type": "event"
    },
    {
      "anonymous": false,
      "inputs": [
        {
          "indexed": true,
          "internalType": "address",
          "name": "factory",
          "type": "address"
        },
        {
          "indexed": false,
          "internalType": "bool",
          "name": "frozen",
          "type": "bool"
        }
      ],
      "name": "FrozenStateUpdated",
      "type": "event"
    },
    {
      "anonymous": false,
      "inputs": [
        {
          "indexed": true,
          "internalType": "address",
          "name": "factory",
          "type": "address"
        },
        {
          "indexed": false,
          "internalType": "uint256",
          "name": "streamCreationFee",
          "type": "uint256"
        },
        {
          "indexed": false,
          "internalType": "uint256",
          "name": "exitFeeRatio",
          "type": "uint256"
        },
        {
          "indexed": false,
          "internalType": "uint256",
          "name": "minWaitingDuration",
          "type": "uint256"
        },
        {
          "indexed": false,
          "internalType": "uint256",
          "name": "minBootstrappingDuration",
          "type": "uint256"
        },
        {
          "indexed": false,
          "internalType": "uint256",
          "name": "minStreamDuration",
          "type": "uint256"
        },
        {
          "indexed": false,
          "internalType": "string",
          "name": "tosVersion",
          "type": "string"
        }
      ],
      "name": "ParamsUpdated",
      "type": "event"
    },
    {
      "anonymous": false,
      "inputs": [
        {
          "indexed": true,
          "internalType": "address",
          "name": "factoryAddress",
          "type": "address"
        },
        {
          "indexed": false,
          "internalType": "address",
          "name": "poolWrapper",
          "type": "address"
        }
      ],
      "name": "PoolWrapperUpdated",
      "type": "event"
    },
    {
      "anonymous": false,
      "inputs": [
        {
          "indexed": true,
          "internalType": "address",
          "name": "streamAddress",
          "type": "address"
        },
        {
          "indexed": true,
          "internalType": "address",
          "name": "subscriber",
          "type": "address"
        },
        {
          "indexed": false,
          "internalType": "uint256",
          "name": "inBalance",
          "type": "uint256"
        },
        {
          "indexed": false,
          "internalType": "uint256",
          "name": "shares",
          "type": "uint256"
        }
      ],
      "name": "PositionSynced",
      "type": "event"
    },
    {
      "anonymous": false,
      "inputs": [
        {
          "indexed": true,
          "internalType": "address",
          "name": "factory",
          "type": "address"
        },
        {
          "indexed": false,
          "internalType": "address",
          "name": "newProtocolAdmin",
          "type": "address"
        }
      ],
      "name": "ProtocolAdminUpdated",
      "type": "event"
    },
    {
      "anonymous": false,
      "inputs": [
        {
          "indexed": true,
          "internalType": "address",
          "name": "streamAddress",
          "type": "address"
        },
        {
          "indexed": false,
          "internalType": "address",
          "name": "creator",
          "type": "address"
        },
        {
          "indexed": false,
          "internalType": "uint256",
          "name": "outSupply",
          "type": "uint256"
        },
        {
          "indexed": false,
          "internalType": "enum StreamTypes.Status",
          "name": "status",
          "type": "uint8"
        }
      ],
      "name": "StreamCancelled",
      "type": "event"
    },
    {
      "anonymous": false,
      "inputs": [
        {
          "indexed": true,
          "internalType": "address",
          "name": "streamOutToken",
          "type": "address"
        },
        {
          "indexed": true,
          "internalType": "address",
          "name": "streamInToken",
          "type": "address"
        },
        {
          "indexed": true,
          "internalType": "address",
          "name": "streamFactoryAddress",
          "type": "address"
        },
        {
          "indexed": false,
          "internalType": "uint256",
          "name": "streamOutAmount",
          "type": "uint256"
        },
        {
          "indexed": false,
          "internalType": "uint256",
          "name": "bootstrappingStartTime",
          "type": "uint256"
        },
        {
          "indexed": false,
          "internalType": "uint256",
          "name": "streamStartTime",
          "type": "uint256"
        },
        {
          "indexed": false,
          "internalType": "uint256",
          "name": "streamEndTime",
          "type": "uint256"
        },
        {
          "indexed": false,
          "internalType": "uint256",
          "name": "threshold",
          "type": "uint256"
        },
        {
          "indexed": false,
          "internalType": "string",
          "name": "streamName",
          "type": "string"
        },
        {
          "indexed": false,
          "internalType": "string",
          "name": "tosVersion",
          "type": "string"
        },
        {
          "indexed": false,
          "internalType": "address",
          "name": "streamAddress",
          "type": "address"
        },
        {
          "indexed": false,
          "internalType": "uint16",
          "name": "streamId",
          "type": "uint16"
        }
      ],
      "name": "StreamCreated",
      "type": "event"
    },
    {
      "anonymous": false,
      "inputs": [
        {
          "indexed": true,
          "internalType": "address",
          "name": "streamAddress",
          "type": "address"
        },
        {
          "indexed": false,
          "internalType": "enum StreamTypes.Status",
          "name": "mainStatus",
          "type": "uint8"
        },
        {
          "indexed": false,
          "internalType": "uint256",
          "name": "lastUpdated",
          "type": "uint256"
        }
      ],
      "name": "StreamSynced",
      "type": "event"
    },
    {
      "anonymous": false,
      "inputs": [
        {
          "indexed": true,
          "internalType": "address",
          "name": "streamAddress",
          "type": "address"
        },
        {
          "indexed": false,
          "internalType": "uint256",
          "name": "lastUpdated",
          "type": "uint256"
        },
        {
          "indexed": false,
          "internalType": "uint8",
          "name": "newStatus",
          "type": "uint8"
        },
        {
          "components": [
            {
              "internalType": "uint256",
              "name": "value",
              "type": "uint256"
            }
          ],
          "indexed": false,
          "internalType": "struct Decimal",
          "name": "distIndex",
          "type": "tuple"
        },
        {
          "indexed": false,
          "internalType": "uint256",
          "name": "outRemaining",
          "type": "uint256"
        },
        {
          "indexed": false,
          "internalType": "uint256",
          "name": "inSupply",
          "type": "uint256"
        },
        {
          "indexed": false,
          "internalType": "uint256",
          "name": "spentIn",
          "type": "uint256"
        },
        {
          "components": [
            {
              "internalType": "uint256",
              "name": "value",
              "type": "uint256"
            }
          ],
          "indexed": false,
          "internalType": "struct Decimal",
          "name": "currentStreamedPrice",
          "type": "tuple"
        }
      ],
      "name": "StreamSynced",
      "type": "event"
    },
    {
      "anonymous": false,
      "inputs": [
        {
          "indexed": true,
          "internalType": "address",
          "name": "streamAddress",
          "type": "address"
        },
        {
          "indexed": true,
          "internalType": "address",
          "name": "subscriber",
          "type": "address"
        },
        {
          "indexed": false,
          "internalType": "uint256",
          "name": "amountIn",
          "type": "uint256"
        },
        {
          "indexed": false,
          "internalType": "uint256",
          "name": "newShares",
          "type": "uint256"
        },
        {
          "indexed": false,
          "internalType": "uint256",
          "name": "totalSharesAfter",
          "type": "uint256"
        },
        {
          "indexed": false,
          "internalType": "uint256",
          "name": "totalInSupplyAfter",
          "type": "uint256"
        }
      ],
      "name": "Subscribed",
      "type": "event"
    },
    {
      "anonymous": false,
      "inputs": [
        {
          "indexed": true,
          "internalType": "address",
          "name": "factoryAddress",
          "type": "address"
        },
        {
          "indexed": false,
          "internalType": "address",
          "name": "vestingContract",
          "type": "address"
        }
      ],
      "name": "VestingContractDeployed",
      "type": "event"
    },
    {
      "anonymous": false,
      "inputs": [
        {
          "indexed": true,
          "internalType": "address",
          "name": "streamAddress",
          "type": "address"
        },
        {
          "indexed": true,
          "internalType": "address",
          "name": "subscriber",
          "type": "address"
        },
        {
          "indexed": false,
          "internalType": "uint256",
          "name": "remainingInBalance",
          "type": "uint256"
        },
        {
          "indexed": false,
          "internalType": "uint256",
          "name": "remainingShares",
          "type": "uint256"
        },
        {
          "indexed": false,
          "internalType": "uint256",
          "name": "totalInSupply",
          "type": "uint256"
        },
        {
          "indexed": false,
          "internalType": "uint256",
          "name": "totalShares",
          "type": "uint256"
        }
      ],
      "name": "Withdrawn",
      "type": "event"
    },
    {
      "inputs": [],
      "name": "NATIVE_TOKEN",
      "outputs": [
        {
          "internalType": "address",
          "name": "",
          "type": "address"
        }
      ],
      "stateMutability": "view",
      "type": "function"
    },
    {
      "inputs": [
        {
          "internalType": "address",
          "name": "",
          "type": "address"
        }
      ],
      "name": "acceptedInSupplyTokens",
      "outputs": [
        {
          "internalType": "bool",
          "name": "",
          "type": "bool"
        }
      ],
      "stateMutability": "view",
      "type": "function"
    },
    {
      "inputs": [
        {
          "components": [
            {
              "internalType": "uint256",
              "name": "streamOutAmount",
              "type": "uint256"
            },
            {
              "internalType": "address",
              "name": "outSupplyToken",
              "type": "address"
            },
            {
              "internalType": "uint256",
              "name": "bootstrappingStartTime",
              "type": "uint256"
            },
            {
              "internalType": "uint256",
              "name": "streamStartTime",
              "type": "uint256"
            },
            {
              "internalType": "uint256",
              "name": "streamEndTime",
              "type": "uint256"
            },
            {
              "internalType": "uint256",
              "name": "threshold",
              "type": "uint256"
            },
            {
              "internalType": "string",
              "name": "name",
              "type": "string"
            },
            {
              "internalType": "address",
              "name": "inSupplyToken",
              "type": "address"
            },
            {
              "internalType": "address",
              "name": "creator",
              "type": "address"
            },
            {
              "components": [
                {
                  "internalType": "bool",
                  "name": "isVestingEnabled",
                  "type": "bool"
                },
                {
                  "internalType": "uint16",
                  "name": "vestingDuration",
                  "type": "uint16"
                },
                {
                  "internalType": "uint16",
                  "name": "cliffDuration",
                  "type": "uint16"
                }
              ],
              "internalType": "struct StreamTypes.VestingInfo",
              "name": "creatorVesting",
              "type": "tuple"
            },
            {
              "components": [
                {
                  "internalType": "bool",
                  "name": "isVestingEnabled",
                  "type": "bool"
                },
                {
                  "internalType": "uint16",
                  "name": "vestingDuration",
                  "type": "uint16"
                },
                {
                  "internalType": "uint16",
                  "name": "cliffDuration",
                  "type": "uint16"
                }
              ],
              "internalType": "struct StreamTypes.VestingInfo",
              "name": "beneficiaryVesting",
              "type": "tuple"
            },
            {
              "components": [
                {
                  "internalType": "uint256",
                  "name": "poolOutSupplyAmount",
                  "type": "uint256"
                }
              ],
              "internalType": "struct StreamTypes.PoolInfo",
              "name": "poolInfo",
              "type": "tuple"
            },
            {
              "internalType": "bytes32",
              "name": "salt",
              "type": "bytes32"
            },
            {
              "internalType": "string",
              "name": "tosVersion",
              "type": "string"
            }
          ],
          "internalType": "struct StreamTypes.createStreamMessage",
          "name": "createStreamMessage",
          "type": "tuple"
        }
      ],
      "name": "createStream",
      "outputs": [],
      "stateMutability": "payable",
      "type": "function"
    },
    {
      "inputs": [],
      "name": "currentStreamId",
      "outputs": [
        {
          "internalType": "uint16",
          "name": "",
          "type": "uint16"
        }
      ],
      "stateMutability": "view",
      "type": "function"
    },
    {
      "inputs": [],
      "name": "frozen",
      "outputs": [
        {
          "internalType": "bool",
          "name": "",
          "type": "bool"
        }
      ],
      "stateMutability": "view",
      "type": "function"
    },
    {
      "inputs": [],
      "name": "getAcceptedInSupplyTokens",
      "outputs": [
        {
          "internalType": "address[]",
          "name": "",
          "type": "address[]"
        }
      ],
      "stateMutability": "view",
      "type": "function"
    },
    {
      "inputs": [],
      "name": "getParams",
      "outputs": [
        {
          "components": [
            {
              "internalType": "uint256",
              "name": "streamCreationFee",
              "type": "uint256"
            },
            {
              "internalType": "address",
              "name": "streamCreationFeeToken",
              "type": "address"
            },
            {
              "components": [
                {
                  "internalType": "uint256",
                  "name": "value",
                  "type": "uint256"
                }
              ],
              "internalType": "struct Decimal",
              "name": "exitFeeRatio",
              "type": "tuple"
            },
            {
              "internalType": "uint256",
              "name": "minWaitingDuration",
              "type": "uint256"
            },
            {
              "internalType": "uint256",
              "name": "minBootstrappingDuration",
              "type": "uint256"
            },
            {
              "internalType": "uint256",
              "name": "minStreamDuration",
              "type": "uint256"
            },
            {
              "internalType": "address",
              "name": "feeCollector",
              "type": "address"
            },
            {
              "internalType": "address",
              "name": "protocolAdmin",
              "type": "address"
            },
            {
              "internalType": "string",
              "name": "tosVersion",
              "type": "string"
            },
            {
              "internalType": "address",
              "name": "vestingAddress",
              "type": "address"
            },
            {
              "internalType": "address",
              "name": "poolWrapperAddress",
              "type": "address"
            },
            {
              "internalType": "address",
              "name": "streamImplementationAddress",
              "type": "address"
            }
          ],
          "internalType": "struct StreamFactoryTypes.Params",
          "name": "",
          "type": "tuple"
        }
      ],
      "stateMutability": "view",
      "type": "function"
    },
    {
      "inputs": [
        {
          "internalType": "uint16",
          "name": "_streamId",
          "type": "uint16"
        }
      ],
      "name": "getStream",
      "outputs": [
        {
          "internalType": "address",
          "name": "",
          "type": "address"
        }
      ],
      "stateMutability": "view",
      "type": "function"
    },
    {
      "inputs": [],
      "name": "getStreams",
      "outputs": [
        {
          "internalType": "address[]",
          "name": "",
          "type": "address[]"
        }
      ],
      "stateMutability": "view",
      "type": "function"
    },
    {
      "inputs": [
        {
          "components": [
            {
              "internalType": "uint256",
              "name": "streamCreationFee",
              "type": "uint256"
            },
            {
              "internalType": "address",
              "name": "streamCreationFeeToken",
              "type": "address"
            },
            {
              "components": [
                {
                  "internalType": "uint256",
                  "name": "value",
                  "type": "uint256"
                }
              ],
              "internalType": "struct Decimal",
              "name": "exitFeeRatio",
              "type": "tuple"
            },
            {
              "internalType": "uint256",
              "name": "minWaitingDuration",
              "type": "uint256"
            },
            {
              "internalType": "uint256",
              "name": "minBootstrappingDuration",
              "type": "uint256"
            },
            {
              "internalType": "uint256",
              "name": "minStreamDuration",
              "type": "uint256"
            },
            {
              "internalType": "address",
              "name": "feeCollector",
              "type": "address"
            },
            {
              "internalType": "address",
              "name": "protocolAdmin",
              "type": "address"
            },
            {
              "internalType": "string",
              "name": "tosVersion",
              "type": "string"
            },
            {
              "internalType": "address",
              "name": "poolWrapperAddress",
              "type": "address"
            },
            {
              "internalType": "address[]",
              "name": "acceptedInSupplyTokens",
              "type": "address[]"
            },
            {
              "internalType": "address",
              "name": "streamImplementationAddress",
              "type": "address"
            }
          ],
          "internalType": "struct StreamFactoryTypes.initializeStreamMessage",
          "name": "initializeStreamMessage",
          "type": "tuple"
        }
      ],
      "name": "initialize",
      "outputs": [],
      "stateMutability": "nonpayable",
      "type": "function"
    },
    {
      "inputs": [],
      "name": "initialized",
      "outputs": [
        {
          "internalType": "bool",
          "name": "",
          "type": "bool"
        }
      ],
      "stateMutability": "view",
      "type": "function"
    },
    {
      "inputs": [
        {
          "internalType": "address",
          "name": "token",
          "type": "address"
        }
      ],
      "name": "isAcceptedInSupplyToken",
      "outputs": [
        {
          "internalType": "bool",
          "name": "",
          "type": "bool"
        }
      ],
      "stateMutability": "view",
      "type": "function"
    },
    {
      "inputs": [
        {
          "internalType": "address",
          "name": "_streamAddress",
          "type": "address"
        }
      ],
      "name": "isStream",
      "outputs": [
        {
          "internalType": "bool",
          "name": "",
          "type": "bool"
        }
      ],
      "stateMutability": "view",
      "type": "function"
    },
    {
      "inputs": [],
      "name": "params",
      "outputs": [
        {
          "internalType": "uint256",
          "name": "streamCreationFee",
          "type": "uint256"
        },
        {
          "internalType": "address",
          "name": "streamCreationFeeToken",
          "type": "address"
        },
        {
          "components": [
            {
              "internalType": "uint256",
              "name": "value",
              "type": "uint256"
            }
          ],
          "internalType": "struct Decimal",
          "name": "exitFeeRatio",
          "type": "tuple"
        },
        {
          "internalType": "uint256",
          "name": "minWaitingDuration",
          "type": "uint256"
        },
        {
          "internalType": "uint256",
          "name": "minBootstrappingDuration",
          "type": "uint256"
        },
        {
          "internalType": "uint256",
          "name": "minStreamDuration",
          "type": "uint256"
        },
        {
          "internalType": "address",
          "name": "feeCollector",
          "type": "address"
        },
        {
          "internalType": "address",
          "name": "protocolAdmin",
          "type": "address"
        },
        {
          "internalType": "string",
          "name": "tosVersion",
          "type": "string"
        },
        {
          "internalType": "address",
          "name": "vestingAddress",
          "type": "address"
        },
        {
          "internalType": "address",
          "name": "poolWrapperAddress",
          "type": "address"
        },
        {
          "internalType": "address",
          "name": "streamImplementationAddress",
          "type": "address"
        }
      ],
      "stateMutability": "view",
      "type": "function"
    },
    {
      "inputs": [
        {
          "components": [
            {
              "internalType": "uint256",
              "name": "value",
              "type": "uint256"
            }
          ],
          "internalType": "struct Decimal",
          "name": "_ratio",
          "type": "tuple"
        }
      ],
      "name": "setExitFeeRatio",
      "outputs": [],
      "stateMutability": "nonpayable",
      "type": "function"
    },
    {
      "inputs": [
        {
          "internalType": "bool",
          "name": "_frozen",
          "type": "bool"
        }
      ],
      "name": "setFrozen",
      "outputs": [],
      "stateMutability": "nonpayable",
      "type": "function"
    },
    {
      "inputs": [
        {
          "internalType": "address",
          "name": "_implementation",
          "type": "address"
        }
      ],
      "name": "setImplementation",
      "outputs": [],
      "stateMutability": "nonpayable",
      "type": "function"
    },
    {
      "inputs": [
        {
          "internalType": "uint256",
          "name": "_fee",
          "type": "uint256"
        }
      ],
      "name": "setStreamCreationFee",
      "outputs": [],
      "stateMutability": "nonpayable",
      "type": "function"
    },
    {
      "inputs": [
        {
          "internalType": "address",
          "name": "_token",
          "type": "address"
        }
      ],
      "name": "setStreamCreationFeeToken",
      "outputs": [],
      "stateMutability": "nonpayable",
      "type": "function"
    },
    {
      "inputs": [
        {
          "internalType": "uint16",
          "name": "",
          "type": "uint16"
        }
      ],
      "name": "streamAddresses",
      "outputs": [
        {
          "internalType": "address",
          "name": "",
          "type": "address"
        }
      ],
      "stateMutability": "view",
      "type": "function"
    },
    {
      "inputs": [
        {
          "internalType": "address[]",
          "name": "tokens_to_add",
          "type": "address[]"
        },
        {
          "internalType": "address[]",
          "name": "tokens_to_remove",
          "type": "address[]"
        }
      ],
      "name": "updateAcceptedTokens",
      "outputs": [],
      "stateMutability": "nonpayable",
      "type": "function"
    },
    {
      "inputs": [
        {
          "internalType": "address",
          "name": "_feeCollector",
          "type": "address"
        }
      ],
      "name": "updateFeeCollector",
      "outputs": [],
      "stateMutability": "nonpayable",
      "type": "function"
    },
    {
      "inputs": [
        {
          "internalType": "uint256",
          "name": "_streamCreationFee",
          "type": "uint256"
        },
        {
          "components": [
            {
              "internalType": "uint256",
              "name": "value",
              "type": "uint256"
            }
          ],
          "internalType": "struct Decimal",
          "name": "_exitFeeRatio",
          "type": "tuple"
        },
        {
          "internalType": "uint256",
          "name": "_minWaitingDuration",
          "type": "uint256"
        },
        {
          "internalType": "uint256",
          "name": "_minBootstrappingDuration",
          "type": "uint256"
        },
        {
          "internalType": "uint256",
          "name": "_minStreamDuration",
          "type": "uint256"
        },
        {
          "internalType": "string",
          "name": "_tosVersion",
          "type": "string"
        }
      ],
      "name": "updateParams",
      "outputs": [],
      "stateMutability": "nonpayable",
      "type": "function"
    },
    {
      "inputs": [
        {
          "internalType": "address",
          "name": "_poolWrapper",
          "type": "address"
        }
      ],
      "name": "updatePoolWrapper",
      "outputs": [],
      "stateMutability": "nonpayable",
      "type": "function"
    },
    {
      "inputs": [
        {
          "internalType": "address",
          "name": "_protocolAdmin",
          "type": "address"
        }
      ],
      "name": "updateProtocolAdmin",
      "outputs": [],
      "stateMutability": "nonpayable",
      "type": "function"
    }
  ],
  "transactionHash": "0x1b175e299c316fa2e8b4874f2881672e813aa0989c0cc4d956feb02815b27b8e",
  "args": [
    "0xB4eE189569597EFDB3bB48DB5ede8394d1D48e7b"
  ],
  "numDeployments": 1,
  "solcInputHash": "6786ec1a4aefe49027e8e521d102f618",
  "bytecode": "0x60803461008c57601f612ee338819003918201601f19168301916001600160401b038311848410176100915780849260209460405283398101031261008c57516001600160a01b0381169081900361008c57801561007a57600980546001600160a01b031916919091179055604051612e3b90816100a88239f35b604051632bf75bc360e21b8152600490fd5b600080fd5b634e487b7160e01b600052604160045260246000fdfe608080604052600436101561001357600080fd5b600090813560e01c908163054f7d9c14611a835750806308ebca14146111ea57806314d98de5146111c8578063158ef93e146111a25780631c2a28f714610b7c5780632654eec114610cb057806331f7d96414610c9457806333907d1e14610be75780634293845914610bba5780635a91b3b214610b7c5780635e615a6b14610983578063774ef43b146101d35780637c526bb31461084a5780637e932d32146107db578063a0f3a6a8146105a3578063b13b809b1461055d578063bfb792241461052f578063c1d3be8b146104a5578063c40635f714610446578063cff0ab961461037a578063d04fed63146102f8578063d2c35ce81461026d578063d784d4261461020f578063e899f3d7146101d35763fd7917f71461013457600080fd5b346101d05760203660031901126101d05761014d611b12565b6009546001600160a01b039190821633036101be571680156101ac57806001600160601b0360a01b600c541617600c556040519081527f0e68834ff868f2c0042bd32422f7e8ce1ebbc6341974bb698c0f89a7a29f1f6a60203092a280f35b60405163405b556360e11b8152600490fd5b604051637bfa4b9f60e01b8152600490fd5b80fd5b50346101d05760203660031901126101d05760209061ffff6101f3611b92565b168152600e8252604060018060a01b0391205416604051908152f35b50346101d05760203660031901126101d057610229611b12565b6009546001600160a01b039190821633036101be5716801561025b576001600160601b0360a01b600d541617600d5580f35b60405163325c055b60e21b8152600490fd5b50346101d05760203660031901126101d057610287611b12565b6009546001600160a01b039190821633036101be571680156102e657806001600160601b0360a01b60085416176008556040519081527f5d16ad41baeb009cd23eb8f6c7cde5c2e0cd5acf4a33926ab488875c37c37f3860203092a280f35b60405163bb0bac9960e01b8152600490fd5b50346101d057806003193601126101d05761ffff90600190828254169061031e82611eae565b9381845b610339575b604051806103358882611c43565b0390f35b8181168481101561037457908161036e928552600e60205261036860018060a01b036040872054169189611df1565b52611e9b565b84610322565b50610327565b50346101d057806003193601126101d0576002546003546040516001600160a01b039182169291906103ab81611ad6565b60045481526005549161042f6006546007548360085416846009541691604051936103e0856103d981611d39565b0386611af1565b86600b54169887600c541697600d5416986040519c8d9c8d5260208d01525160408c015260608b015260808a015260a089015260c088015260e087015261018080610100880152860190611caa565b926101208501526101408401526101608301520390f35b50346101d05760203660031901126101d05760405161046481611ad6565b60043581526009546001600160a01b031633036101be57610483611f56565b8151905110610493575160045580f35b604051632aa4e67b60e01b8152600490fd5b50346101d05760203660031901126101d0576104bf611b12565b600954906001600160a01b039081831633036101be571690811561051d576001600160a01b031916811760095560405190815230907f96c81c3f4599d5ad4b4ce465555174670819d69aa61f97cf8fdf4b80c1fbb32590602090a280f35b604051632bf75bc360e21b8152600490fd5b50346101d05760203660031901126101d057602061055361054e611b12565b611ee0565b6040519015158152f35b50346101d05760203660031901126101d057610577611b12565b6009546001600160a01b039190821633036101be57166001600160601b0360a01b600354161760035580f35b50346101d05760c03660031901126101d057602090600435366023190183136107d657604051906105d382611ad6565b60243582526044356064356084359160a435966001600160401b03978881116107d257610604903690600401611b3c565b6009549096906001600160a01b031633036101be5785600255805160045582600555836006558460075586519889116107be57610642600a54611cff565b601f811161076d575b5081601f8a116001146106dc579880899a7f0411b059ef29e41429d7aa233c3c43e82806856b23c24bfb1f9e4c6efa5689a1999a916106d1575b508160011b916000199060031b1c191617600a555b519060405195865285015260408401526060830152608082015260c060a0820152806106cb309460c0830190611caa565b0390a280f35b905089015138610685565b600a895260008051602062002de683398151915290601f198b168a5b8181106107565750918b917f0411b059ef29e41429d7aa233c3c43e82806856b23c24bfb1f9e4c6efa5689a19a9b9c6001941061073d575b5050811b01600a5561069a565b8b015160001960f88460031b161c191690553880610730565b91928560018192868e0151815501940192016106f8565b600a895260008051602062002de6833981519152601f8b0160051c810191848c106107b4575b601f0160051c01905b8181106107a9575061064b565b89815560010161079c565b9091508190610793565b634e487b7160e01b88526041600452602488fd5b8780fd5b600080fd5b50346101d05760203660031901126101d0576004358015158091036107d6576009546001600160a01b031633036101be5760ff19600f541660ff821617600f556040519081527fc08a1a38ceb2f9f45e15007131834153026896150e4400ab4000fd1b131fb1db60203092a280f35b50346101d05760403660031901126101d0576001600160401b039060043582811161097f5761087d903690600401611ccf565b909260243590811161097b57610897903690600401611ccf565b60095490949192906001600160a01b0390811633036101be57845b8281106109485750845b8681106109135750506106cb7f640a0a596c3bc7f91bc26965ed05efb8d3017a25c7b1822ba2ca3e33b2743cd5939495610903604051948594604086526040860191611e3f565b9083820360208501523096611e3f565b808261092b610926610943948b8a611e1b565b611e2b565b168752866020526040872060ff198154169055611dcc565b6108bc565b808261095b610926610976948789611e1b565b1687528660205260408720600160ff19825416179055611dcc565b6108b2565b8280fd5b5080fd5b50346101d057806003193601126101d0576101606040516109a381611aa4565b8281528260208201526040516109b881611ad6565b83815260408201528260608201528260808201528260a08201528260c08201528260e0820152606061010082015282610120820152826101408201520152604051610a0281611aa4565b60025481526003546001600160a01b03166020820152604051610a2481611ad6565b60045481526040828101919091526005546060830152600654608083015260075460a08301526008546001600160a01b0390811660c08401526009541660e083015251610a7b81610a7481611d39565b0382611af1565b61010082015260018060a01b03600b541661012082015260018060a01b03600c541661014082015260018060a01b03600d54166101608201526040518091602082528051602083015260018060a01b036020820151166040830152604081015151606083015260608101516080830152608081015160a083015260a081015160c083015260018060a01b0360c08201511660e083015260018060a01b0360e082015116610100830152610100810151610b4361018091826101208601526101a0850190611caa565b6101208301516001600160a01b039081166101408681019190915284015181166101608087019190915290930151909216908301520390f35b50346101d05760203660031901126101d05760209060ff906040906001600160a01b03610ba7611b12565b1681528084522054166040519015158152f35b50346101d05760203660031901126101d0576009546001600160a01b031633036101be5760043560025580f35b50346101d057806003193601126101d05761ffff60018181541692610c0b84611eae565b9281835b610c22575b604051806103358782611c43565b81811686811015610c8e57808452600e60208181526040808720546001600160a01b03908116885287835290872054610c699594939060ff16610c6f575b50505050611e9b565b83610c0f565b610c8492848952526040872054169188611df1565b5238808080610c60565b50610c14565b50346101d057806003193601126101d057602090604051908152f35b50346101d05760031960203682011261097f576001600160401b036004351161097f5761018090600435360301126101d057604051610cee81611aa4565b600435600401358152610d05602460043501611b28565b6020820152610d1936604460043501611c0e565b6040820152600435606481013560608301526084810135608083015260a481013560a0830152610d4b9060c401611b28565b60c0820152610d5e60e460043501611b28565b60e082015261010460043501356001600160401b03811161097b57610d8a906004369181350101611b3c565b610100820152610d9f61012460043501611b28565b61012082015261014460043501356001600160401b03811161097b57366023826004350101121561097b57610dda6004828135010135611c2c565b90610de86040519283611af1565b6004803582019081013580845260208401913660059290921b016024011161119e576024826004350101905b6004803584019081013560051b01602401821061118257505050610140820152610e4361016460043501611b28565b6101608201526009546001600160a01b031633036101be5760ff600f5460081c16611147576040810151610e75611f56565b9051905110610493576040518061087a8101106001600160401b0361087a830111176111335761087a62001f7b82398061087a8101039083f080156111285760018060a01b03166040518181527f739fe22b8edefd6ce1fe32460f9cd54bf8e66fc7447f4c8a8131ce078a1988af60203092a2815160025560018060a01b03602083015116906001600160601b0360a01b918260035416176003556040830151516004556060830151600555608083015160065560a083015160075560018060a01b0360c0840151168260085416176008556101008301518051906001600160401b038211611114578190610f6b600a54611cff565b601f81116110b7575b50602090601f831160011461104557879261103a575b50508160011b916000199060031b1c191617600a555b81600b541617600b5560018060a01b036101208301511681600c541617600c5560018060a01b036101608301511690600d541617600d55815b61014082015180518210156110275761014091611020916001600160a01b0390611004908390611df1565b511685528460205260408520600160ff19825416179055611dcc565b9050610fd9565b8361010061ff0019600f541617600f5580f35b015190503880610f8a565b600a885260008051602062002de68339815191529250601f198416885b81811061109f5750908460019594939210611086575b505050811b01600a55610fa0565b015160001960f88460031b161c19169055388080611078565b92936020600181928786015181550195019301611062565b909150600a875260008051602062002de6833981519152601f840160051c8101916020851061110a575b90601f859493920160051c01905b8181106110fc5750610f74565b8881558493506001016110ef565b90915081906110e1565b634e487b7160e01b86526041600452602486fd5b6040513d84823e3d90fd5b634e487b7160e01b83526041600452602483fd5b60405162461bcd60e51b8152602060048201526013602482015272105b1c9958591e481a5b9a5d1a585b1a5e9959606a1b6044820152606490fd5b60208060249261119185611b28565b8152019201919050610e14565b8480fd5b50346101d057806003193601126101d057602060ff600f5460081c166040519015158152f35b50346101d057806003193601126101d057602061ffff60015416604051908152f35b5060031960203682011261097f576001600160401b036004351161097f5761024090600435360301126101d0576040516101c081018181106001600160401b038211176111335760405260043560040135815261124b602460043501611b28565b602082015260043560448101356040830152606481013560608301526084810135608083015260a481013560a083015260c401356001600160401b03811161097b5761129e906004369181350101611b3c565b60c08201526112b160e460043501611b28565b60e08201526112c561010460043501611b28565b6101008201526112db3661012460043501611bb2565b6101208201526112f13661018460043501611bb2565b610140820152611307366101e460043501611c0e565b61016082015261020460043501356101808201526001600160401b0361022460043501351161097f5761134536600480356102248101350101611b3c565b6101a082015260ff600f5416611a7157805115611a5f5760e08101516001600160a01b031682526020829052604082205460ff1615611a4d57604081015160608201516080830151824211611a3b57818311611a2957808211611a1757816113ac91611f49565b60075411611a0557816113be91611f49565b600654116119f3576113d1904290611f49565b600554116119e1576101a0810151604051611409602082816113fc8183019687815193849201611c87565b8101038084520182611af1565b519020604051600a54818561141d83611cff565b92600181169081156119c35750600114611979575b611445925003601f198101835282611af1565b60208151910120036119675760025480611878575b50600d54608881901c62ffffff16763d602d80600a3d3981f3363d3d373d3d3d363d7300000017835260781b6effffffffffffffffffffffffffffff19166e5af43d82803e903d91602b57fd5bf3176020526001600160a01b036037600984f016801561186657604051806105f18101106001600160401b036105f183011117611852576105f1620027f582396105f181018281528190036020019084f080156118475760018060a01b036020840151168351610160850151518101809111611833576040516323b872dd60e01b81523360048201526001600160a01b03851660248201526044810191909152906020908290606490829089905af19081156118285785916117f9575b50156117e757813b156117e35783604051808093633d3e025360e11b8252604060048301528651604483015260018060a01b03602088015116606483015260408701516084830152606087015160a4830152608087015160c483015260a087015160e48301526116936115e960c0890151610240610104860152610284850190611caa565b60e08901516001600160a01b039081166101248601526101008a0151166101448501526101208901518051151561016486015260208082015161ffff90811661018488015260409283015181166101a48801526101408c0151805115156101c48901529182015181166101e488015291015116610204850152610160890151516102248501526101808901516102448501526101a089015184820360431901610264860152611caa565b6001600160a01b039091166024830152038183865af180156117d8576117a7575b5061179961ffff92839283600154168652600e60205260408620816001600160601b0360a01b82541617905560018060a01b0360208301511660018060a01b0360e084015116907fd82fd25f2c186bf678ec89d69b74509fb3d3043ede4957173642a7e407e232198451611781611774604088015197606081015190608081015160c060a0830151920151926001549e8f169b604051978852602088015260408701526060860152608085015261012060a0850152610120840190611caa565b82810360c0840152611d39565b9460e0820152856101008201528030950390a4611e9b565b169061ffff19161760015580f35b6001600160401b0381949294116117c457604052916117996116b4565b634e487b7160e01b82526041600452602482fd5b6040513d86823e3d90fd5b8380fd5b60405163022e258160e11b8152600490fd5b61181b915060203d602011611821575b6118138183611af1565b810190611e83565b38611564565b503d611809565b6040513d87823e3d90fd5b634e487b7160e01b86526011600452602486fd5b6040513d85823e3d90fd5b634e487b7160e01b84526041600452602484fd5b6040516330be1a3d60e21b8152600490fd5b6003546001600160a01b0316806118e757508034106118d55760085483918291829182916001600160a01b03168282156118cc575bf1156118ba575b3861145a565b604051634033e4e360e01b8152600490fd5b506108fc6118ad565b6040516332201f6960e11b8152600490fd5b6008546040516323b872dd60e01b81523360048201526001600160a01b03909116602482015260448101929092526020908290606490829087905af1908115611847578391611948575b506118b45760405163022e258160e11b8152600490fd5b611961915060203d602011611821576118138183611af1565b38611931565b604051635d0b6cc760e01b8152600490fd5b5050600a8552818560008051602062002de68339815191525b8382106119a9575050602061144592820101611432565b602091925080600191548385880101520191018391611992565b6020925061144594915060ff19168284015280151502820101611432565b604051635bdfbd0360e11b8152600490fd5b6040516372904fb160e01b8152600490fd5b6040516318861b4960e01b8152600490fd5b6040516349f8456b60e11b8152600490fd5b604051633060050d60e21b8152600490fd5b6040516341f01d5760e01b8152600490fd5b60405163cc3ca47b60e01b8152600490fd5b604051634d5bb2d560e11b8152600490fd5b604051634051e96160e01b8152600490fd5b90503461097f578160031936011261097f5760209060ff600f541615158152f35b61018081019081106001600160401b03821117611ac057604052565b634e487b7160e01b600052604160045260246000fd5b602081019081106001600160401b03821117611ac057604052565b90601f801991011681019081106001600160401b03821117611ac057604052565b600435906001600160a01b03821682036107d657565b35906001600160a01b03821682036107d657565b81601f820112156107d6578035906001600160401b038211611ac05760405192611b70601f8401601f191660200185611af1565b828452602083830101116107d657816000926020809301838601378301015290565b6004359061ffff821682036107d657565b359061ffff821682036107d657565b91908260609103126107d657604051606081018181106001600160401b03821117611ac057604052809280359081151582036107d6576040611c099181938552611bfe60208201611ba3565b602086015201611ba3565b910152565b91908260209103126107d657604051611c2681611ad6565b91358252565b6001600160401b038111611ac05760051b60200190565b6020908160408183019282815285518094520193019160005b828110611c6a575050505090565b83516001600160a01b031685529381019392810192600101611c5c565b60005b838110611c9a5750506000910152565b8181015183820152602001611c8a565b90602091611cc381518092818552858086019101611c87565b601f01601f1916010190565b9181601f840112156107d6578235916001600160401b0383116107d6576020808501948460051b0101116107d657565b90600182811c92168015611d2f575b6020831014611d1957565b634e487b7160e01b600052602260045260246000fd5b91607f1691611d0e565b600a5460009291611d4982611cff565b80825291600190818116908115611daf5750600114611d6757505050565b91929350600a60005260008051602062002de6833981519152916000925b848410611d9757505060209250010190565b80546020858501810191909152909301928101611d85565b915050602093945060ff929192191683830152151560051b010190565b6000198114611ddb5760010190565b634e487b7160e01b600052601160045260246000fd5b8051821015611e055760209160051b010190565b634e487b7160e01b600052603260045260246000fd5b9190811015611e055760051b0190565b356001600160a01b03811681036107d65790565b91908082526020809201929160005b828110611e5c575050505090565b909192938280600192838060a01b03611e7489611b28565b16815201950193929101611e4e565b908160209103126107d6575180151581036107d65790565b61ffff809116908114611ddb5760010190565b90611eb882611c2c565b611ec56040519182611af1565b8281528092611ed6601f1991611c2c565b0190602036910137565b600061ffff916001838194825416915b611eff575b5050505050600090565b8084169382851015611f43578594600052600e60205260018060a01b03806040600020541690851614611f3b57611f3590611e9b565b93611ef0565b505050505090565b50611ef5565b91908203918211611ddb57565b6000604051611f6481611ad6565b52604051611f7181611ad6565b620f424081529056fe608080604052346100165761085e908161001c8239f35b600080fdfe60806040908082526004918236101561001757600080fd5b600091823560e01c90816325394c941461053a575080633d572640146102c857806387ceff09146102ae5763c10753291461005157600080fd5b346102aa57806003193601126102aa5761006961066c565b33835260208381528284206001600160a01b039092168085529181528284208054602494853594929392909185101561026f576100a6858561074d565b509283544210610222576100b9846107a2565b9283156101d657600385019384548181018091116101c4578555815163a9059cbb60e01b815233818d0152808a0182905283816044818e895af19081156101ba5791610134600297969594927f080a49aa43b33f2f3fe14496cbedde2305f0cc484e98afb78e943cf9881adc8a948e9161018d575b50610709565b8151938a85528401523392a3549101541461014d578380f35b906101579161074d565b93909361017d575050600382828094558260018201558260028201550155803880808380f35b634e487b7160e01b835282905281fd5b6101ad9150863d88116101b3575b6101a581836106cf565b8101906106f1565b3861012e565b503d61019b565b83513d8d823e3d90fd5b634e487b7160e01b8b5260118c52898bfd5b5162461bcd60e51b8152808a01919091526021818801527f4e6f2066756e647320617661696c61626c6520666f72207769746864726177616044820152601b60fa1b6064820152608490fd5b8860238860849386519362461bcd60e51b85528401528201527f46756e647320617265207374696c6c20696e2074686520636c696666207065726044820152621a5bd960ea1b6064820152fd5b815162461bcd60e51b815280890184905260168188015275092dcecc2d8d2c840e6c6d0cac8ead8ca40d2dcc8caf60531b6044820152606490fd5b5080fd5b50346102aa57816003193601126102aa5760209051428152f35b5082346105365760a0366003190112610536576102e361066c565b916102ec610687565b6084359160643591604435904282106104f357818411156104a65784156104545782516323b872dd60e01b81523387820152306024820152604481018690526001600160a01b03918216976020929183816064818e8e5af190811561044a579061035c918c9161042d5750610709565b1695868952888252838920888a528252838920845161037a8161069d565b8481528381018781528682019189835260608101938d85528054906801000000000000000082101561041a57906103b69160018201815561074d565b95909561040857505184555160018401555160028301555160039091015582519485528401528201527f1db04dfee373564c736f0f9c7f12ba28e6378cccea075c4c1754ecb4fd5c5ee090606090a380f35b634e487b7160e01b8e528d905260248dfd5b634e487b7160e01b8f526041875260248ffd5b6104449150853d87116101b3576101a581836106cf565b8c61012e565b86513d8d823e3d90fd5b825162461bcd60e51b8152602081880152602660248201527f546f74616c20616d6f756e74206d7573742062652067726561746572207468616044820152656e207a65726f60d01b6064820152608490fd5b825162461bcd60e51b8152602081880152602160248201527f456e642074696d65206d75737420626520616674657220636c6966662074696d6044820152606560f81b6064820152608490fd5b825162461bcd60e51b8152602081880181905260248201527f436c6966662074696d65206d75737420626520696e20746865206675747572656044820152606490fd5b8280fd5b838584923461053657836003193601126105365761055661066c565b61055e610687565b6001600160a01b039182168552602085815286862091909216855281528484208054909367ffffffffffffffff8211610659576105a483836005989695981b01846106cf565b8183528583018095855286852085915b848310610613575050505050845193808501918186525180925285850193925b8281106105e15785850386f35b8351805186528083015186840152878101518887015260609081015190860152608090940193928101926001016105d4565b83896001928c9b98999b516106278161069d565b8554815284860154838201528d60028701549082015260038601546060820152815201920192019190979594976105b4565b634e487b7160e01b865260419052602485fd5b600435906001600160a01b038216820361068257565b600080fd5b602435906001600160a01b038216820361068257565b6080810190811067ffffffffffffffff8211176106b957604052565b634e487b7160e01b600052604160045260246000fd5b90601f8019910116810190811067ffffffffffffffff8211176106b957604052565b90816020910312610682575180151581036106825790565b1561071057565b60405162461bcd60e51b8152602060048201526015602482015274151bdad95b881d1c985b9cd9995c8819985a5b1959605a1b6044820152606490fd5b80548210156107695760005260206000209060021b0190600090565b634e487b7160e01b600052603260045260246000fd5b9190820391821161078c57565b634e487b7160e01b600052601160045260246000fd5b80546107ae814261077f565b9060018301546107be828261077f565b83106107de5750505080600360026107db9301549101549061077f565b90565b906107e89161077f565b60028301548115610812570481810291818304149015171561078c5760036107db9201549061077f565b634e487b7160e01b600052601260045260246000fdfea264697066735822122022a39d12bf5474e9b8a09dd44b98f8d6075709795f355ea52b615c09cf8289cd64736f6c6343000814003360a03461007e57601f6105f138819003918201601f19168301916001600160401b038311848410176100835780849260209460405283398101031261007e57516001600160a01b038116810361007e57608052604051610557908161009a82396080518181816080015281816101690152818161020e01526102dc0152f35b600080fd5b634e487b7160e01b600052604160045260246000fdfe604060808152600436101561001357600080fd5b60009060e08235811c90816316c197391461030b5781635cb0175c146102c7578163a3de7d17146101d6578163c1ac1026146100bf575063fb33ce811461005957600080fd5b346100bb57806003193601126100bb5761007161042f565b6001600160a01b03906100a7337f00000000000000000000000000000000000000000000000000000000000000008416146104bd565b168252816020526007602435918320015580f35b5080fd5b919050346101d2576101203660031901126101d2576100dc61042f565b6101003660231901126101ce576100f161044a565b9260243584526020840192604435845261010a366104a1565b93818601948552606086016084358152602060a3193601126101ca57600795610131610481565b9260a43584526080890193845260a089019460c435865260c08a019660e43588528a019761010435895260018060a01b0390610190827f00000000000000000000000000000000000000000000000000000000000000001633146104bd565b168b528a6020528a209851895551600189015551516002880155516003870155515160048601555160058501555160068401555191015580f35b8780fd5b8380fd5b8280fd5b9050346101d25760803660031901126101d2576007906101f461042f565b906101fe366104a1565b936001600160a01b0390610235337f00000000000000000000000000000000000000000000000000000000000000008416146104bd565b8661023e610481565b52610247610481565b9087825261025361044a565b966024358852602088016044358152828901918252606089019242845260808a0194855260a08a01958b875260c08b01978c89528b01988c8a52168b528a6020528a209851895551600189015551516002880155516003870155515160048601555160058501555160068401555191015580f35b5050346100bb57816003193601126100bb57517f00000000000000000000000000000000000000000000000000000000000000006001600160a01b03168152602090f35b9050346101d25760203660031901126101d257816101009361032b61042f565b818461033561044a565b828152826020820152610346610481565b8381528682015282606082015261035b610481565b838152608082015260a0810183905260c0810183905201526001600160a01b031681526020819052209161038d61044a565b9280548452600181015491602085019283526103a7610481565b90600283015482528086019182526003830154606087019081526103c9610481565b91600485015483526080880192835260058501549360a08901948552600760068701549660c08b01978852015496888a01978852825199518a525160208a0152515190880152516060870152515160808601525160a08501525160c08401525190820152f35b600435906001600160a01b038216820361044557565b600080fd5b60405190610100820182811067ffffffffffffffff82111761046b57604052565b634e487b7160e01b600052604160045260246000fd5b604051906020820182811067ffffffffffffffff82111761046b57604052565b6020906063190112610445576104b5610481565b906064358252565b156104c457565b60405162461bcd60e51b815260206004820152602f60248201527f506f736974696f6e2063616e206f6e6c7920626520736574206279207468652060448201526e1cdd1c99585b4818dbdb9d1c9858dd608a1b6064820152608490fdfea2646970667358221220965ea0f51c0f9285864401dc126ae8b55d530ca76b5e788daaf086ee2fa46a7764736f6c63430008140033c65a7bb8d6351c1cf70c95a316cc6a92839c986682d98bc35f958f4883f9d2a8a2646970667358221220eefa90326f350438de41ac67895c15ed4e71ee7777c92d45cf65ce6aee236ca464736f6c63430008140033",
  "devdoc": {
    "errors": {
      "ERC1167FailedCreateClone()": [
        {
          "details": "A clone instance deployment failed."
        }
      ]
    },
    "kind": "dev",
    "methods": {},
    "version": 1
  },
  "userdoc": {
    "kind": "user",
    "methods": {},
    "version": 1
  },
  "storageLayout": {
    "storage": [
      {
        "astId": 2544,
        "contract": "contracts/StreamFactory.sol:StreamFactory",
        "label": "acceptedInSupplyTokens",
        "offset": 0,
        "slot": "0",
        "type": "t_mapping(t_address,t_bool)"
      },
      {
        "astId": 2552,
        "contract": "contracts/StreamFactory.sol:StreamFactory",
        "label": "currentStreamId",
        "offset": 0,
        "slot": "1",
        "type": "t_uint16"
      },
      {
        "astId": 2555,
        "contract": "contracts/StreamFactory.sol:StreamFactory",
        "label": "params",
        "offset": 0,
        "slot": "2",
        "type": "t_struct(Params)5729_storage"
      },
      {
        "astId": 2559,
        "contract": "contracts/StreamFactory.sol:StreamFactory",
        "label": "streamAddresses",
        "offset": 0,
        "slot": "14",
        "type": "t_mapping(t_uint16,t_address)"
      },
      {
        "astId": 2561,
        "contract": "contracts/StreamFactory.sol:StreamFactory",
        "label": "frozen",
        "offset": 0,
        "slot": "15",
        "type": "t_bool"
      },
      {
        "astId": 2563,
        "contract": "contracts/StreamFactory.sol:StreamFactory",
        "label": "initialized",
        "offset": 1,
        "slot": "15",
        "type": "t_bool"
      }
    ],
    "types": {
      "t_address": {
        "encoding": "inplace",
        "label": "address",
        "numberOfBytes": "20"
      },
      "t_bool": {
        "encoding": "inplace",
        "label": "bool",
        "numberOfBytes": "1"
      },
      "t_mapping(t_address,t_bool)": {
        "encoding": "mapping",
        "key": "t_address",
        "label": "mapping(address => bool)",
        "numberOfBytes": "32",
        "value": "t_bool"
      },
      "t_mapping(t_uint16,t_address)": {
        "encoding": "mapping",
        "key": "t_uint16",
        "label": "mapping(uint16 => address)",
        "numberOfBytes": "32",
        "value": "t_address"
      },
      "t_string_storage": {
        "encoding": "bytes",
        "label": "string",
        "numberOfBytes": "32"
      },
      "t_struct(Decimal)4510_storage": {
        "encoding": "inplace",
        "label": "struct Decimal",
        "members": [
          {
            "astId": 4509,
            "contract": "contracts/StreamFactory.sol:StreamFactory",
            "label": "value",
            "offset": 0,
            "slot": "0",
            "type": "t_uint256"
          }
        ],
        "numberOfBytes": "32"
      },
      "t_struct(Params)5729_storage": {
        "encoding": "inplace",
        "label": "struct StreamFactoryTypes.Params",
        "members": [
          {
            "astId": 5705,
            "contract": "contracts/StreamFactory.sol:StreamFactory",
            "label": "streamCreationFee",
            "offset": 0,
            "slot": "0",
            "type": "t_uint256"
          },
          {
            "astId": 5707,
            "contract": "contracts/StreamFactory.sol:StreamFactory",
            "label": "streamCreationFeeToken",
            "offset": 0,
            "slot": "1",
            "type": "t_address"
          },
          {
            "astId": 5710,
            "contract": "contracts/StreamFactory.sol:StreamFactory",
            "label": "exitFeeRatio",
            "offset": 0,
            "slot": "2",
            "type": "t_struct(Decimal)4510_storage"
          },
          {
            "astId": 5712,
            "contract": "contracts/StreamFactory.sol:StreamFactory",
            "label": "minWaitingDuration",
            "offset": 0,
            "slot": "3",
            "type": "t_uint256"
          },
          {
            "astId": 5714,
            "contract": "contracts/StreamFactory.sol:StreamFactory",
            "label": "minBootstrappingDuration",
            "offset": 0,
            "slot": "4",
            "type": "t_uint256"
          },
          {
            "astId": 5716,
            "contract": "contracts/StreamFactory.sol:StreamFactory",
            "label": "minStreamDuration",
            "offset": 0,
            "slot": "5",
            "type": "t_uint256"
          },
          {
            "astId": 5718,
            "contract": "contracts/StreamFactory.sol:StreamFactory",
            "label": "feeCollector",
            "offset": 0,
            "slot": "6",
            "type": "t_address"
          },
          {
            "astId": 5720,
            "contract": "contracts/StreamFactory.sol:StreamFactory",
            "label": "protocolAdmin",
            "offset": 0,
            "slot": "7",
            "type": "t_address"
          },
          {
            "astId": 5722,
            "contract": "contracts/StreamFactory.sol:StreamFactory",
            "label": "tosVersion",
            "offset": 0,
            "slot": "8",
            "type": "t_string_storage"
          },
          {
            "astId": 5724,
            "contract": "contracts/StreamFactory.sol:StreamFactory",
            "label": "vestingAddress",
            "offset": 0,
            "slot": "9",
            "type": "t_address"
          },
          {
            "astId": 5726,
            "contract": "contracts/StreamFactory.sol:StreamFactory",
            "label": "poolWrapperAddress",
            "offset": 0,
            "slot": "10",
            "type": "t_address"
          },
          {
            "astId": 5728,
            "contract": "contracts/StreamFactory.sol:StreamFactory",
            "label": "streamImplementationAddress",
            "offset": 0,
            "slot": "11",
            "type": "t_address"
          }
        ],
        "numberOfBytes": "384"
      },
      "t_uint16": {
        "encoding": "inplace",
        "label": "uint16",
        "numberOfBytes": "2"
      },
      "t_uint256": {
        "encoding": "inplace",
        "label": "uint256",
        "numberOfBytes": "32"
      }
    }
  }
}