{
  "address": "0xD8090beBb4861DCf7c4BFa76F548097514EBb148",
  "abi": [
    {
      "inputs": [
        {
          "internalType": "uint256",
          "name": "expected",
          "type": "uint256"
        },
        {
          "internalType": "uint256",
          "name": "actual",
          "type": "uint256"
        }
      ],
      "name": "IncorrectNativeAmount",
      "type": "error"
    },
    {
      "inputs": [],
      "name": "InsufficientOutAmount",
      "type": "error"
    },
    {
      "inputs": [
        {
          "internalType": "uint256",
          "name": "requiredTokenAmount",
          "type": "uint256"
        },
        {
          "internalType": "uint256",
          "name": "tokenBalance",
          "type": "uint256"
        }
      ],
      "name": "InsufficientTokenPayment",
      "type": "error"
    },
    {
      "inputs": [],
      "name": "InvalidAmount",
      "type": "error"
    },
    {
      "inputs": [],
      "name": "InvalidDexType",
      "type": "error"
    },
    {
      "inputs": [],
      "name": "InvalidExitCondition",
      "type": "error"
    },
    {
      "inputs": [],
      "name": "InvalidImplementationAddress",
      "type": "error"
    },
    {
      "inputs": [],
      "name": "InvalidInSupplyToken",
      "type": "error"
    },
    {
      "inputs": [],
      "name": "InvalidInputToken",
      "type": "error"
    },
    {
      "inputs": [
        {
          "internalType": "address",
          "name": "from",
          "type": "address"
        }
      ],
      "name": "InvalidNativePayer",
      "type": "error"
    },
    {
      "inputs": [],
      "name": "InvalidOutSupplyToken",
      "type": "error"
    },
    {
      "inputs": [],
      "name": "InvalidPoolOutSupplyAmount",
      "type": "error"
    },
    {
      "inputs": [],
      "name": "InvalidPoolType",
      "type": "error"
    },
    {
      "inputs": [
        {
          "internalType": "address",
          "name": "user",
          "type": "address"
        },
        {
          "internalType": "uint256",
          "name": "shares",
          "type": "uint256"
        },
        {
          "internalType": "uint256",
          "name": "exitDate",
          "type": "uint256"
        },
        {
          "internalType": "string",
          "name": "reason",
          "type": "string"
        }
      ],
      "name": "InvalidPosition",
      "type": "error"
    },
    {
      "inputs": [],
      "name": "InvalidPositionStorageAddress",
      "type": "error"
    },
    {
      "inputs": [],
      "name": "InvalidStreamFactoryAddress",
      "type": "error"
    },
    {
      "inputs": [],
      "name": "InvalidVestingCliffDuration",
      "type": "error"
    },
    {
      "inputs": [],
      "name": "InvalidVestingDuration",
      "type": "error"
    },
    {
      "inputs": [],
      "name": "InvalidWithdrawAmount",
      "type": "error"
    },
    {
      "inputs": [],
      "name": "NativeTokenTransferFailed",
      "type": "error"
    },
    {
      "inputs": [],
      "name": "OperationNotAllowed",
      "type": "error"
    },
    {
      "inputs": [],
      "name": "PaymentFailed",
      "type": "error"
    },
    {
      "inputs": [],
      "name": "SameInputAndOutputToken",
      "type": "error"
    },
    {
      "inputs": [],
      "name": "StreamFactoryAddressAlreadySet",
      "type": "error"
    },
    {
      "inputs": [],
      "name": "Unauthorized",
      "type": "error"
    },
    {
      "inputs": [
        {
          "internalType": "uint256",
          "name": "cap",
          "type": "uint256"
        }
      ],
      "name": "WithdrawAmountExceedsBalance",
      "type": "error"
    },
    {
      "anonymous": false,
      "inputs": [
        {
          "indexed": false,
          "internalType": "address",
          "name": "previousAdmin",
          "type": "address"
        },
        {
          "indexed": false,
          "internalType": "address",
          "name": "newAdmin",
          "type": "address"
        }
      ],
      "name": "AdminChanged",
      "type": "event"
    },
    {
      "anonymous": false,
      "inputs": [
        {
          "indexed": true,
          "internalType": "address",
          "name": "beacon",
          "type": "address"
        }
      ],
      "name": "BeaconUpgraded",
      "type": "event"
    },
    {
      "anonymous": false,
      "inputs": [
        {
          "indexed": true,
          "internalType": "address",
          "name": "beneficiary",
          "type": "address"
        },
        {
          "indexed": false,
          "internalType": "address",
          "name": "vestingAddress",
          "type": "address"
        },
        {
          "indexed": false,
          "internalType": "uint64",
          "name": "vestingDuration",
          "type": "uint64"
        },
        {
          "indexed": false,
          "internalType": "address",
          "name": "token",
          "type": "address"
        },
        {
          "indexed": false,
          "internalType": "uint256",
          "name": "amount",
          "type": "uint256"
        }
      ],
      "name": "BeneficiaryVestingCreated",
      "type": "event"
    },
    {
      "anonymous": false,
      "inputs": [
        {
          "indexed": true,
          "internalType": "address",
          "name": "creator",
          "type": "address"
        },
        {
          "indexed": false,
          "internalType": "address",
          "name": "vestingAddress",
          "type": "address"
        },
        {
          "indexed": false,
          "internalType": "uint256",
          "name": "vestingDuration",
          "type": "uint256"
        },
        {
          "indexed": false,
          "internalType": "address",
          "name": "token",
          "type": "address"
        },
        {
          "indexed": false,
          "internalType": "uint256",
          "name": "amount",
          "type": "uint256"
        }
      ],
      "name": "CreatorVestingCreated",
      "type": "event"
    },
    {
      "anonymous": false,
      "inputs": [
        {
          "indexed": true,
          "internalType": "address",
          "name": "streamAddress",
          "type": "address"
        },
        {
          "indexed": true,
          "internalType": "address",
          "name": "subscriber",
          "type": "address"
        },
        {
          "indexed": false,
          "internalType": "uint256",
          "name": "inBalance",
          "type": "uint256"
        },
        {
          "indexed": false,
          "internalType": "uint256",
          "name": "spentIn",
          "type": "uint256"
        },
        {
          "indexed": false,
          "internalType": "uint256",
          "name": "exitTimestamp",
          "type": "uint256"
        }
      ],
      "name": "ExitRefunded",
      "type": "event"
    },
    {
      "anonymous": false,
      "inputs": [
        {
          "indexed": true,
          "internalType": "address",
          "name": "streamAddress",
          "type": "address"
        },
        {
          "indexed": true,
          "internalType": "address",
          "name": "subscriber",
          "type": "address"
        },
        {
          "indexed": false,
          "internalType": "uint256",
          "name": "purchased",
          "type": "uint256"
        },
        {
          "indexed": false,
          "internalType": "uint256",
          "name": "spentIn",
          "type": "uint256"
        },
        {
          "indexed": false,
          "internalType": "uint256",
          "name": "index",
          "type": "uint256"
        },
        {
          "indexed": false,
          "internalType": "uint256",
          "name": "inBalance",
          "type": "uint256"
        },
        {
          "indexed": false,
          "internalType": "uint256",
          "name": "exitTimestamp",
          "type": "uint256"
        }
      ],
      "name": "ExitStreamed",
      "type": "event"
    },
    {
      "anonymous": false,
      "inputs": [
        {
          "indexed": true,
          "internalType": "address",
          "name": "streamAddress",
          "type": "address"
        },
        {
          "indexed": true,
          "internalType": "address",
          "name": "creator",
          "type": "address"
        },
        {
          "indexed": false,
          "internalType": "uint256",
          "name": "refundedOutAmount",
          "type": "uint256"
        }
      ],
      "name": "FinalizedRefunded",
      "type": "event"
    },
    {
      "anonymous": false,
      "inputs": [
        {
          "indexed": true,
          "internalType": "address",
          "name": "streamAddress",
          "type": "address"
        },
        {
          "indexed": true,
          "internalType": "address",
          "name": "creator",
          "type": "address"
        },
        {
          "indexed": false,
          "internalType": "uint256",
          "name": "creatorRevenue",
          "type": "uint256"
        },
        {
          "indexed": false,
          "internalType": "uint256",
          "name": "exitFeeAmount",
          "type": "uint256"
        },
        {
          "indexed": false,
          "internalType": "uint256",
          "name": "refundedOutAmount",
          "type": "uint256"
        }
      ],
      "name": "FinalizedStreamed",
      "type": "event"
    },
    {
      "anonymous": false,
      "inputs": [
        {
          "indexed": true,
          "internalType": "address",
          "name": "streamAddress",
          "type": "address"
        },
        {
          "indexed": true,
          "internalType": "address",
          "name": "poolAddress",
          "type": "address"
        },
        {
          "indexed": false,
          "internalType": "address",
          "name": "token0",
          "type": "address"
        },
        {
          "indexed": false,
          "internalType": "address",
          "name": "token1",
          "type": "address"
        },
        {
          "indexed": false,
          "internalType": "uint256",
          "name": "amount0",
          "type": "uint256"
        },
        {
          "indexed": false,
          "internalType": "uint256",
          "name": "amount1",
          "type": "uint256"
        },
        {
          "indexed": false,
          "internalType": "uint256",
          "name": "refundedAmount0",
          "type": "uint256"
        },
        {
          "indexed": false,
          "internalType": "uint256",
          "name": "refundedAmount1",
          "type": "uint256"
        },
        {
          "indexed": true,
          "internalType": "address",
          "name": "creator",
          "type": "address"
        }
      ],
      "name": "PoolCreated",
      "type": "event"
    },
    {
      "anonymous": false,
      "inputs": [
        {
          "indexed": true,
          "internalType": "address",
          "name": "streamAddress",
          "type": "address"
        },
        {
          "indexed": true,
          "internalType": "address",
          "name": "subscriber",
          "type": "address"
        },
        {
          "indexed": false,
          "internalType": "uint256",
          "name": "positionInBalance",
          "type": "uint256"
        },
        {
          "indexed": false,
          "internalType": "uint256",
          "name": "positionShares",
          "type": "uint256"
        },
        {
          "indexed": false,
          "internalType": "uint256",
          "name": "positionLastUpdateTime",
          "type": "uint256"
        },
        {
          "indexed": false,
          "internalType": "uint256",
          "name": "positionSpentIn",
          "type": "uint256"
        },
        {
          "indexed": false,
          "internalType": "uint256",
          "name": "positionPurchased",
          "type": "uint256"
        },
        {
          "indexed": false,
          "internalType": "uint256",
          "name": "positionIndex",
          "type": "uint256"
        }
      ],
      "name": "PositionSynced",
      "type": "event"
    },
    {
      "anonymous": false,
      "inputs": [
        {
          "indexed": true,
          "internalType": "address",
          "name": "streamAddress",
          "type": "address"
        },
        {
          "indexed": false,
          "internalType": "address",
          "name": "creator",
          "type": "address"
        },
        {
          "indexed": false,
          "internalType": "uint256",
          "name": "outSupply",
          "type": "uint256"
        },
        {
          "indexed": false,
          "internalType": "uint8",
          "name": "status",
          "type": "uint8"
        }
      ],
      "name": "StreamCancelled",
      "type": "event"
    },
    {
      "anonymous": false,
      "inputs": [
        {
          "indexed": true,
          "internalType": "address",
          "name": "streamAddress",
          "type": "address"
        },
        {
          "indexed": false,
          "internalType": "string",
          "name": "metadataIpfsHash",
          "type": "string"
        }
      ],
      "name": "StreamMetadataUpdated",
      "type": "event"
    },
    {
      "anonymous": false,
      "inputs": [
        {
          "indexed": true,
          "internalType": "address",
          "name": "streamAddress",
          "type": "address"
        },
        {
          "indexed": false,
          "internalType": "uint256",
          "name": "lastUpdated",
          "type": "uint256"
        },
        {
          "indexed": false,
          "internalType": "uint256",
          "name": "distIndex",
          "type": "uint256"
        },
        {
          "indexed": false,
          "internalType": "uint256",
          "name": "outRemaining",
          "type": "uint256"
        },
        {
          "indexed": false,
          "internalType": "uint256",
          "name": "inSupply",
          "type": "uint256"
        },
        {
          "indexed": false,
          "internalType": "uint256",
          "name": "spentIn",
          "type": "uint256"
        },
        {
          "indexed": false,
          "internalType": "uint256",
          "name": "currentStreamedPrice",
          "type": "uint256"
        }
      ],
      "name": "StreamStateUpdated",
      "type": "event"
    },
    {
      "anonymous": false,
      "inputs": [
        {
          "indexed": true,
          "internalType": "address",
          "name": "streamAddress",
          "type": "address"
        },
        {
          "indexed": false,
          "internalType": "uint256",
          "name": "lastUpdated",
          "type": "uint256"
        },
        {
          "indexed": false,
          "internalType": "uint8",
          "name": "newStatus",
          "type": "uint8"
        },
        {
          "indexed": false,
          "internalType": "uint256",
          "name": "distIndex",
          "type": "uint256"
        },
        {
          "indexed": false,
          "internalType": "uint256",
          "name": "outRemaining",
          "type": "uint256"
        },
        {
          "indexed": false,
          "internalType": "uint256",
          "name": "inSupply",
          "type": "uint256"
        },
        {
          "indexed": false,
          "internalType": "uint256",
          "name": "spentIn",
          "type": "uint256"
        },
        {
          "indexed": false,
          "internalType": "uint256",
          "name": "currentStreamedPrice",
          "type": "uint256"
        }
      ],
      "name": "StreamSynced",
      "type": "event"
    },
    {
      "anonymous": false,
      "inputs": [
        {
          "indexed": true,
          "internalType": "address",
          "name": "streamAddress",
          "type": "address"
        },
        {
          "indexed": true,
          "internalType": "address",
          "name": "subscriber",
          "type": "address"
        },
        {
          "indexed": false,
          "internalType": "uint256",
          "name": "positionInBalance",
          "type": "uint256"
        },
        {
          "indexed": false,
          "internalType": "uint256",
          "name": "positionShares",
          "type": "uint256"
        },
        {
          "indexed": false,
          "internalType": "uint256",
          "name": "positionLastUpdateTime",
          "type": "uint256"
        },
        {
          "indexed": false,
          "internalType": "uint256",
          "name": "positionSpentIn",
          "type": "uint256"
        },
        {
          "indexed": false,
          "internalType": "uint256",
          "name": "positionPurchased",
          "type": "uint256"
        },
        {
          "indexed": false,
          "internalType": "uint256",
          "name": "positionIndex",
          "type": "uint256"
        },
        {
          "indexed": false,
          "internalType": "uint256",
          "name": "streamInSupply",
          "type": "uint256"
        },
        {
          "indexed": false,
          "internalType": "uint256",
          "name": "streamShares",
          "type": "uint256"
        }
      ],
      "name": "Subscribed",
      "type": "event"
    },
    {
      "anonymous": false,
      "inputs": [
        {
          "indexed": true,
          "internalType": "address",
          "name": "implementation",
          "type": "address"
        }
      ],
      "name": "Upgraded",
      "type": "event"
    },
    {
      "anonymous": false,
      "inputs": [
        {
          "indexed": true,
          "internalType": "address",
          "name": "streamAddress",
          "type": "address"
        },
        {
          "indexed": true,
          "internalType": "address",
          "name": "subscriber",
          "type": "address"
        },
        {
          "indexed": false,
          "internalType": "uint256",
          "name": "positionInBalance",
          "type": "uint256"
        },
        {
          "indexed": false,
          "internalType": "uint256",
          "name": "positionShares",
          "type": "uint256"
        },
        {
          "indexed": false,
          "internalType": "uint256",
          "name": "positionLastUpdateTime",
          "type": "uint256"
        },
        {
          "indexed": false,
          "internalType": "uint256",
          "name": "positionSpentIn",
          "type": "uint256"
        },
        {
          "indexed": false,
          "internalType": "uint256",
          "name": "positionPurchased",
          "type": "uint256"
        },
        {
          "indexed": false,
          "internalType": "uint256",
          "name": "positionIndex",
          "type": "uint256"
        },
        {
          "indexed": false,
          "internalType": "uint256",
          "name": "streamInSupply",
          "type": "uint256"
        },
        {
          "indexed": false,
          "internalType": "uint256",
          "name": "streamShares",
          "type": "uint256"
        }
      ],
      "name": "Withdrawn",
      "type": "event"
    },
    {
      "inputs": [],
      "name": "PERMIT2",
      "outputs": [
        {
          "internalType": "address",
          "name": "",
          "type": "address"
        }
      ],
      "stateMutability": "view",
      "type": "function"
    },
    {
      "inputs": [],
      "name": "STREAM_FACTORY_ADDRESS",
      "outputs": [
        {
          "internalType": "address",
          "name": "",
          "type": "address"
        }
      ],
      "stateMutability": "view",
      "type": "function"
    },
    {
      "inputs": [],
      "name": "VARIANT",
      "outputs": [
        {
          "internalType": "string",
          "name": "",
          "type": "string"
        }
      ],
      "stateMutability": "view",
      "type": "function"
    },
    {
      "inputs": [],
      "name": "VERSION",
      "outputs": [
        {
          "internalType": "string",
          "name": "",
          "type": "string"
        }
      ],
      "stateMutability": "view",
      "type": "function"
    },
    {
      "inputs": [],
      "name": "cancelStream",
      "outputs": [],
      "stateMutability": "nonpayable",
      "type": "function"
    },
    {
      "inputs": [],
      "name": "cancelWithAdmin",
      "outputs": [],
      "stateMutability": "nonpayable",
      "type": "function"
    },
    {
      "inputs": [],
      "name": "creator",
      "outputs": [
        {
          "internalType": "address",
          "name": "",
          "type": "address"
        }
      ],
      "stateMutability": "view",
      "type": "function"
    },
    {
      "inputs": [],
      "name": "exitStream",
      "outputs": [],
      "stateMutability": "nonpayable",
      "type": "function"
    },
    {
      "inputs": [],
      "name": "finalizeStream",
      "outputs": [],
      "stateMutability": "nonpayable",
      "type": "function"
    },
    {
      "inputs": [
        {
          "internalType": "address",
          "name": "user",
          "type": "address"
        }
      ],
      "name": "getPosition",
      "outputs": [
        {
          "components": [
            {
              "internalType": "uint256",
              "name": "inBalance",
              "type": "uint256"
            },
            {
              "internalType": "uint256",
              "name": "shares",
              "type": "uint256"
            },
            {
              "components": [
                {
                  "internalType": "uint256",
                  "name": "value",
                  "type": "uint256"
                }
              ],
              "internalType": "struct Decimal",
              "name": "index",
              "type": "tuple"
            },
            {
              "internalType": "uint256",
              "name": "lastUpdateTime",
              "type": "uint256"
            },
            {
              "components": [
                {
                  "internalType": "uint256",
                  "name": "value",
                  "type": "uint256"
                }
              ],
              "internalType": "struct Decimal",
              "name": "pendingReward",
              "type": "tuple"
            },
            {
              "internalType": "uint256",
              "name": "spentIn",
              "type": "uint256"
            },
            {
              "internalType": "uint256",
              "name": "purchased",
              "type": "uint256"
            },
            {
              "internalType": "uint256",
              "name": "exitDate",
              "type": "uint256"
            }
          ],
          "internalType": "struct PositionTypes.Position",
          "name": "",
          "type": "tuple"
        }
      ],
      "stateMutability": "view",
      "type": "function"
    },
    {
      "inputs": [],
      "name": "getPostStreamActions",
      "outputs": [
        {
          "components": [
            {
              "components": [
                {
                  "internalType": "uint256",
                  "name": "poolOutSupplyAmount",
                  "type": "uint256"
                },
                {
                  "internalType": "enum StreamTypes.DexType",
                  "name": "dexType",
                  "type": "uint8"
                },
                {
                  "internalType": "bytes",
                  "name": "extra",
                  "type": "bytes"
                }
              ],
              "internalType": "struct StreamTypes.PoolInfo",
              "name": "poolInfo",
              "type": "tuple"
            },
            {
              "components": [
                {
                  "internalType": "bool",
                  "name": "isVestingEnabled",
                  "type": "bool"
                },
                {
                  "internalType": "uint64",
                  "name": "vestingDuration",
                  "type": "uint64"
                }
              ],
              "internalType": "struct StreamTypes.VestingInfo",
              "name": "creatorVesting",
              "type": "tuple"
            },
            {
              "components": [
                {
                  "internalType": "bool",
                  "name": "isVestingEnabled",
                  "type": "bool"
                },
                {
                  "internalType": "uint64",
                  "name": "vestingDuration",
                  "type": "uint64"
                }
              ],
              "internalType": "struct StreamTypes.VestingInfo",
              "name": "beneficiaryVesting",
              "type": "tuple"
            }
          ],
          "internalType": "struct StreamTypes.PostStreamActions",
          "name": "",
          "type": "tuple"
        }
      ],
      "stateMutability": "view",
      "type": "function"
    },
    {
      "inputs": [],
      "name": "getStreamMetadata",
      "outputs": [
        {
          "components": [
            {
              "internalType": "string",
              "name": "ipfsHash",
              "type": "string"
            }
          ],
          "internalType": "struct StreamTypes.StreamMetadata",
          "name": "",
          "type": "tuple"
        }
      ],
      "stateMutability": "view",
      "type": "function"
    },
    {
      "inputs": [],
      "name": "getStreamState",
      "outputs": [
        {
          "components": [
            {
              "internalType": "uint256",
              "name": "outRemaining",
              "type": "uint256"
            },
            {
              "components": [
                {
                  "internalType": "uint256",
                  "name": "value",
                  "type": "uint256"
                }
              ],
              "internalType": "struct Decimal",
              "name": "distIndex",
              "type": "tuple"
            },
            {
              "internalType": "uint256",
              "name": "spentIn",
              "type": "uint256"
            },
            {
              "internalType": "uint256",
              "name": "shares",
              "type": "uint256"
            },
            {
              "components": [
                {
                  "internalType": "uint256",
                  "name": "value",
                  "type": "uint256"
                }
              ],
              "internalType": "struct Decimal",
              "name": "currentStreamedPrice",
              "type": "tuple"
            },
            {
              "internalType": "uint256",
              "name": "threshold",
              "type": "uint256"
            },
            {
              "internalType": "uint256",
              "name": "inSupply",
              "type": "uint256"
            },
            {
              "internalType": "uint256",
              "name": "outSupply",
              "type": "uint256"
            },
            {
              "internalType": "uint256",
              "name": "lastUpdated",
              "type": "uint256"
            }
          ],
          "internalType": "struct StreamTypes.StreamState",
          "name": "",
          "type": "tuple"
        }
      ],
      "stateMutability": "view",
      "type": "function"
    },
    {
      "inputs": [],
      "name": "getStreamStatus",
      "outputs": [
        {
          "internalType": "enum StreamTypes.Status",
          "name": "",
          "type": "uint8"
        }
      ],
      "stateMutability": "view",
      "type": "function"
    },
    {
      "inputs": [],
      "name": "implementation",
      "outputs": [
        {
          "internalType": "string",
          "name": "",
          "type": "string"
        }
      ],
      "stateMutability": "pure",
      "type": "function"
    },
    {
      "inputs": [
        {
          "components": [
            {
              "internalType": "address",
              "name": "creator",
              "type": "address"
            },
            {
              "internalType": "address",
              "name": "inSupplyToken",
              "type": "address"
            },
            {
              "internalType": "address",
              "name": "outSupplyToken",
              "type": "address"
            },
            {
              "internalType": "uint256",
              "name": "streamOutAmount",
              "type": "uint256"
            },
            {
              "internalType": "uint256",
              "name": "threshold",
              "type": "uint256"
            },
            {
              "internalType": "uint256",
              "name": "bootstrappingStartTime",
              "type": "uint256"
            },
            {
              "internalType": "uint256",
              "name": "streamStartTime",
              "type": "uint256"
            },
            {
              "internalType": "uint256",
              "name": "streamEndTime",
              "type": "uint256"
            },
            {
              "components": [
                {
                  "internalType": "string",
                  "name": "ipfsHash",
                  "type": "string"
                }
              ],
              "internalType": "struct StreamTypes.StreamMetadata",
              "name": "metadata",
              "type": "tuple"
            },
            {
              "components": [
                {
                  "internalType": "bool",
                  "name": "isVestingEnabled",
                  "type": "bool"
                },
                {
                  "internalType": "uint64",
                  "name": "vestingDuration",
                  "type": "uint64"
                }
              ],
              "internalType": "struct StreamTypes.VestingInfo",
              "name": "creatorVesting",
              "type": "tuple"
            },
            {
              "components": [
                {
                  "internalType": "bool",
                  "name": "isVestingEnabled",
                  "type": "bool"
                },
                {
                  "internalType": "uint64",
                  "name": "vestingDuration",
                  "type": "uint64"
                }
              ],
              "internalType": "struct StreamTypes.VestingInfo",
              "name": "beneficiaryVesting",
              "type": "tuple"
            },
            {
              "components": [
                {
                  "internalType": "uint256",
                  "name": "poolOutSupplyAmount",
                  "type": "uint256"
                },
                {
                  "internalType": "enum StreamTypes.DexType",
                  "name": "dexType",
                  "type": "uint8"
                },
                {
                  "internalType": "bytes",
                  "name": "extra",
                  "type": "bytes"
                }
              ],
              "internalType": "struct StreamTypes.PoolInfo",
              "name": "poolInfo",
              "type": "tuple"
            },
            {
              "internalType": "string",
              "name": "tosVersion",
              "type": "string"
            }
          ],
          "internalType": "struct StreamTypes.CreateStreamMessage",
          "name": "createStreamMessage",
          "type": "tuple"
        },
        {
          "internalType": "address",
          "name": "storageAddress",
          "type": "address"
        }
      ],
      "name": "initialize",
      "outputs": [],
      "stateMutability": "nonpayable",
      "type": "function"
    },
    {
      "inputs": [],
      "name": "positionStorageAddress",
      "outputs": [
        {
          "internalType": "address",
          "name": "",
          "type": "address"
        }
      ],
      "stateMutability": "view",
      "type": "function"
    },
    {
      "inputs": [],
      "name": "proxiableUUID",
      "outputs": [
        {
          "internalType": "bytes32",
          "name": "",
          "type": "bytes32"
        }
      ],
      "stateMutability": "view",
      "type": "function"
    },
    {
      "inputs": [],
      "name": "streamMetadata",
      "outputs": [
        {
          "internalType": "string",
          "name": "ipfsHash",
          "type": "string"
        }
      ],
      "stateMutability": "view",
      "type": "function"
    },
    {
      "inputs": [],
      "name": "streamState",
      "outputs": [
        {
          "internalType": "uint256",
          "name": "outRemaining",
          "type": "uint256"
        },
        {
          "components": [
            {
              "internalType": "uint256",
              "name": "value",
              "type": "uint256"
            }
          ],
          "internalType": "struct Decimal",
          "name": "distIndex",
          "type": "tuple"
        },
        {
          "internalType": "uint256",
          "name": "spentIn",
          "type": "uint256"
        },
        {
          "internalType": "uint256",
          "name": "shares",
          "type": "uint256"
        },
        {
          "components": [
            {
              "internalType": "uint256",
              "name": "value",
              "type": "uint256"
            }
          ],
          "internalType": "struct Decimal",
          "name": "currentStreamedPrice",
          "type": "tuple"
        },
        {
          "internalType": "uint256",
          "name": "threshold",
          "type": "uint256"
        },
        {
          "internalType": "uint256",
          "name": "inSupply",
          "type": "uint256"
        },
        {
          "internalType": "uint256",
          "name": "outSupply",
          "type": "uint256"
        },
        {
          "internalType": "uint256",
          "name": "lastUpdated",
          "type": "uint256"
        }
      ],
      "stateMutability": "view",
      "type": "function"
    },
    {
      "inputs": [],
      "name": "streamStatus",
      "outputs": [
        {
          "internalType": "enum StreamTypes.Status",
          "name": "",
          "type": "uint8"
        }
      ],
      "stateMutability": "view",
      "type": "function"
    },
    {
      "inputs": [],
      "name": "streamTimes",
      "outputs": [
        {
          "internalType": "uint256",
          "name": "bootstrappingStartTime",
          "type": "uint256"
        },
        {
          "internalType": "uint256",
          "name": "streamStartTime",
          "type": "uint256"
        },
        {
          "internalType": "uint256",
          "name": "streamEndTime",
          "type": "uint256"
        }
      ],
      "stateMutability": "view",
      "type": "function"
    },
    {
      "inputs": [],
      "name": "streamTokens",
      "outputs": [
        {
          "internalType": "address",
          "name": "inSupplyToken",
          "type": "address"
        },
        {
          "internalType": "address",
          "name": "outSupplyToken",
          "type": "address"
        }
      ],
      "stateMutability": "view",
      "type": "function"
    },
    {
      "inputs": [
        {
          "internalType": "uint256",
          "name": "amountIn",
          "type": "uint256"
        }
      ],
      "name": "subscribe",
      "outputs": [],
      "stateMutability": "nonpayable",
      "type": "function"
    },
    {
      "inputs": [
        {
          "internalType": "uint256",
          "name": "amountIn",
          "type": "uint256"
        }
      ],
      "name": "subscribeWithNativeToken",
      "outputs": [],
      "stateMutability": "payable",
      "type": "function"
    },
    {
      "inputs": [
        {
          "internalType": "uint256",
          "name": "amountIn",
          "type": "uint256"
        },
        {
          "internalType": "address",
          "name": "owner",
          "type": "address"
        },
        {
          "components": [
            {
              "components": [
                {
                  "internalType": "address",
                  "name": "token",
                  "type": "address"
                },
                {
                  "internalType": "uint160",
                  "name": "amount",
                  "type": "uint160"
                },
                {
                  "internalType": "uint48",
                  "name": "expiration",
                  "type": "uint48"
                },
                {
                  "internalType": "uint48",
                  "name": "nonce",
                  "type": "uint48"
                }
              ],
              "internalType": "struct IPermit2.PermitDetails",
              "name": "details",
              "type": "tuple"
            },
            {
              "internalType": "address",
              "name": "spender",
              "type": "address"
            },
            {
              "internalType": "uint256",
              "name": "sigDeadline",
              "type": "uint256"
            }
          ],
          "internalType": "struct IPermit2.PermitSingle",
          "name": "permitSingle",
          "type": "tuple"
        },
        {
          "internalType": "bytes",
          "name": "signature",
          "type": "bytes"
        }
      ],
      "name": "subscribeWithPermit",
      "outputs": [],
      "stateMutability": "nonpayable",
      "type": "function"
    },
    {
      "inputs": [
        {
          "internalType": "address",
          "name": "user",
          "type": "address"
        }
      ],
      "name": "syncPositionExternal",
      "outputs": [],
      "stateMutability": "nonpayable",
      "type": "function"
    },
    {
      "inputs": [],
      "name": "syncStreamExternal",
      "outputs": [],
      "stateMutability": "nonpayable",
      "type": "function"
    },
    {
      "inputs": [
        {
          "internalType": "string",
          "name": "metadataIpfsHash",
          "type": "string"
        }
      ],
      "name": "updateStreamMetadata",
      "outputs": [],
      "stateMutability": "nonpayable",
      "type": "function"
    },
    {
      "inputs": [
        {
          "internalType": "address",
          "name": "newImplementation",
          "type": "address"
        }
      ],
      "name": "upgradeTo",
      "outputs": [],
      "stateMutability": "nonpayable",
      "type": "function"
    },
    {
      "inputs": [
        {
          "internalType": "address",
          "name": "newImplementation",
          "type": "address"
        },
        {
          "internalType": "bytes",
          "name": "data",
          "type": "bytes"
        }
      ],
      "name": "upgradeToAndCall",
      "outputs": [],
      "stateMutability": "payable",
      "type": "function"
    },
    {
      "inputs": [
        {
          "internalType": "uint256",
          "name": "cap",
          "type": "uint256"
        }
      ],
      "name": "withdraw",
      "outputs": [],
      "stateMutability": "nonpayable",
      "type": "function"
    }
  ],
  "transactionHash": "0xf1288ca1e4f2fff0a392a50e34e5cf865f03eea10757318c86761adc977ead8d",
  "args": [],
  "numDeployments": 1,
  "solcInputHash": "400a443a7aa923b681afc2912c17994c",
  "bytecode": "0x60a08060405234610031573060805261350e908161003782396080518181816112a801528181611397015261166b0152f35b600080fdfe608080604052600436101561001357600080fd5b600090813560e01c90816302d05d3f14611fed575080630390547414610b025780630bcc8eba14611ecc5780630e5634df14611eb05780630f574ba714611e7857806316c1973914611e4457806321194bd714611c745780632641895314611c2e5780632ae4e93114611bb55780632e1a7d4d146119e5578063315e17051461191a57806334793e05146118525780633659cfe6146116465780634f1ef2861461135957806352d1902d146112955780635929814e146112605780635c60da1b1461120157806360d388d8146111d85780636afdd850146111ae5780636b330b79146110cb5780638a03764f14611099578063a941a14f14610b7c578063aa5703ad14610b28578063af5c3ac414610b02578063c0ae398c14610a80578063cbf06415146107f3578063d08452c2146107c0578063d1477dd9146104f3578063e427d08c146104ca578063e9a9e144146103fa578063f69e8fba146101b75763ffa1ad741461018157600080fd5b346101b457806003193601126101b4576101b061019c61237b565b60405191829160208352602083019061221e565b0390f35b80fd5b50346101b457806003193601126101b45780546001600160a01b0390811633036103e957600482826001541660405192838092635e615a6b60e01b82525afa9081156103de5783916103bc575b50600f549161021f6102146128dd565b429060ff861661291b565b60078110156103a8576003036103965761023f61023a6126a6565b612cf2565b9160408301519060a084015182101584519560e08601519160001461033a575050916102d96102ba9592846102cd620f42406102af60408760c07f16d1e1ee4b51bbfbf5d46884cac3a98f673074103d40dfae8a99e5b51457b7d29b0151169401516102aa86613096565b6131f9565b510498898094612720565b97600560ff19600f541617600f5561304d565b83600c54163090612a15565b6102ee8482600c541683895416903090612a15565b81610320575b8554169361031a6040519283923096846040919493926060820195825260208201520152565b0390a380f35b6103358282600d541683895416903090612a15565b6102f4565b60ff1916600417600f556103939550936103569250905061304d565b8084541690816040518481527f3f3e233ce59fa3e5f0b479b323538988fd213fa8f3007a95ff330489bf5d40a660203092a33090600d5416612a15565b80f35b604051637a851da960e11b8152600490fd5b634e487b7160e01b85526021600452602485fd5b6103d891503d8085833e6103d08183612126565b8101906123ce565b38610204565b6040513d85823e3d90fd5b6040516282b42960e81b8152600490fd5b50346101b457806003193601126101b45780546001600160a01b0390811633036103e957600f5461043761042c6128dd565b429060ff841661291b565b60078110156104b65761039657610393916006600a549260ff191617600f5580845416906040517febb55ea32d517c9ec85f61357977ac73b84e65ebeaedb528ed791d7e25e30a2b3091806104a88787836040906006929493606082019560018060a01b0316825260208201520152565b0390a23090600d5416612a15565b634e487b7160e01b84526021600452602484fd5b50346101b457806003193601126101b4576002546040516001600160a01b039091168152602090f35b50346101b4576101203660031901126101b45761050e61225e565b9060c03660431901126101b4576001600160401b038061010435116107bc57366023610104350112156107bc576101043560040135116101b4573660246101043560040135610104350101116101b457600c546001600160a01b03169182156107aa57604435926001600160a01b03841684036107a6576001600160a01b03841603610794576064356001600160a01b03811681036107a6576001600160a01b036004358116908216106107945760c435906001600160a01b038216820361078c57306001600160a01b03831603610794574260e43510610794576e22d473030f116ddee9f6b43ac78ba33b1561078c576040516302b67b5760e41b81526001600160a01b039384166004820181905295841660248201529216604483015265ffffffffffff6084358181169081900361079057606484015260a43590811680910361078c5760848301526001600160a01b031660a482015260e4803560c483015261010090820152600461010480359182013590830181905283918391610124916024018284013760046101043501358281018201849052601f01601f191682018290030181836e22d473030f116ddee9f6b43ac78ba35af1801561076e5761077d575b50600c54909182916001600160a01b03166e22d473030f116ddee9f6b43ac78ba33b1561077957604051631b63c28b60e11b815260048082019390935230602482015291356001600160a01b0316604483015260648201528181608481836e22d473030f116ddee9f6b43ac78ba35af1801561076e5761075a575b50610393600435612afd565b610763906120f7565b6101b457803861074e565b6040513d84823e3d90fd5b5050fd5b610786906120f7565b386106d3565b8380fd5b8480fd5b60405163162908e360e11b8152600490fd5b8280fd5b604051632df9739b60e01b8152600490fd5b5080fd5b50346101b457806003193601126101b457600c54600d54604080516001600160a01b039384168152919092166020820152f35b50346101b457806003193601126101b45761080d3361255b565b60e081015180610a5a575061083e61082661023a6126a6565b916020830151606084015160c0850151914293612e97565b61085760ff600f541642906108516128dd565b9061291b565b9181519160c0810180519460a08301908151944260e086015261087982612866565b6108828161304d565b61088c8533612ff3565b60a06040820151910151119060078110159182610a065760058214918215610a3b575b83610a275760048114938415610a1a575b84156109e1575b505050600014610954575050506040015151604051918483526020830152604082015281606082015242608082015233907f1d86502e4a4586da05506402e9e717090c0ce0ac1a71ad60b9312ae8ab044abf60a03092a3600d546001600160a01b039261093991339030908616612a15565b8061094357505080f35b6103939133903090600c5416612a15565b9093919495506000146103965761096f8691610393966128d0565b93528482528281526109818133612ff3565b5190517f387c4a97ea999c71f2b33e24b2c4406f4a5100fc4e8deceb0bb6f4c5e5bbbe10604051806109c9339530954291846040919493926060820195825260208201520152565b0390a3600c54339030906001600160a01b0316612a15565b9091929350610a065760031490816109fe575b50903880806108c7565b9050386109f4565b634e487b7160e01b8a52602160045260248afd5b506006811493508a6108c0565b634e487b7160e01b8b52602160045260248bfd5b8a93508392506003811480610a52575b92506108af565b508115610a4b565b6020820151610a7c604051928392631175404360e11b8452336004850161287f565b0390fd5b50346101b457806003193601126101b457610120600354604051610aa381612074565b6004548152600554600654604051610aba81612074565b60075481526008549060095492600a5494600b54966040519889525160208901526040880152606087015251608086015260a085015260c084015260e0830152610100820152f35b50346101b457806003193601126101b4576101b060ff600f541660405191829182612011565b50346101b457806003193601126101b4576060604051610b4781612074565b526101b0604051610b5781612074565b610b5f612147565b81526040519182916020835251602080840152604083019061221e565b50346101b45760403660031901126101b4576001600160401b03600435116101b4576101e0600435360360031901126101b457604051906101a082018281106001600160401b0382111761108557604052610bdb600435600401612274565b8252610beb602460043501612274565b6020830152610bfe604460043501612274565b6040830152600435606481013560608401526084810135608084015260a481013560a084015260c481013560c084015260e481013560e084015261010401356001600160401b0381116107bc5760206004358201360360031901126107bc5760405190610c6a82612074565b6001600160401b036004828135010135116107a657610c97903690600480359091018082013501016122f0565b8152610100830152610caf3661012460043501612337565b610120830152610cc53661016460043501612337565b6101408301526101a460043501356001600160401b0381116107bc5760606004358201360360031901126107bc5760405190610d00826120a5565b60048181350101358252600360248260043501013510156107a6576004358101602481013560208401526001600160401b03604490910135116107a657610d5690369060048035909101604481013501016122f0565b60408201526101608301526101c460043501356001600160401b0381116107bc57610d889060043691813501016122f0565b610180830152610d9661225e565b6002549060ff8260a01c166103e9576001600160a01b0381161561107357600180546001600160a01b031990811633179091559182166001600160a01b03918216176002558351835490921691161781556040518190610df581612074565b52604051610e0281612074565b81815260608301519082604051610e1881612074565b52604051610e2581612074565b838152608085015191606086015193604051610e40816120c0565b8181528260208201528660408201528660608201528360808201528460a08201528660c08201528560e0820152610100429101526003555160045583600555836006555160075560085581600955600a5542600b5560018060a01b0360208301511660018060a01b0360408401511690816020604051610ebf816120dc565b83815201526bffffffffffffffffffffffff60a01b600c541617600c556bffffffffffffffffffffffff60a01b600d541617600d55610100820151519182516001600160401b03811161105f57610f17600e5461203a565b601f811161100e575b506020601f8211600114610f9f57839482939492610f94575b50508160011b916000199060031b1c191617600e555b60ff19600f5416600f5560a08101519060e060c082015191015191610f756040516120a5565b6010556011556012556002805460ff60a01b1916600160a01b17905580f35b015190503880610f39565b600e845260008051602061349983398151915290601f198316855b818110610ff657509583600195969710610fdd575b505050811b01600e55610f4f565b015160001960f88460031b161c19169055388080610fcf565b9192602060018192868b015181550194019201610fba565b600e8452600080516020613499833981519152601f830160051c81019160208410611055575b601f0160051c01905b81811061104a5750610f20565b84815560010161103d565b9091508190611034565b634e487b7160e01b83526041600452602483fd5b60405163d2d441ff60e01b8152600490fd5b634e487b7160e01b82526041600452602482fd5b50346101b457806003193601126101b45760105460115460125460408051938452602084019290925290820152606090f35b50346101b45760203660031901126101b4576110e5612243565b6110ee8161255b565b6110f88282612c52565b61113161112161110961023a6126a6565b926020840151606085015160c0860151914293612e97565b9161112c8385612ff3565b61304d565b805160208083015160608085015160a08087015160c0808901516040998a0151518a51998a5297890196909652978701929092529185015260808401919091528201526001600160a01b039092169130917f776f4c645ad4c2525f2c0862f3c0e3841c03f4fc680c1ceb4ab41b9eadccc4d191908190810161031a565b50346101b457806003193601126101b45760206040516e22d473030f116ddee9f6b43ac78ba38152f35b50346101b457806003193601126101b4576001546040516001600160a01b039091168152602090f35b50346101b457806003193601126101b4576101b061121d61237b565b61019c602d60405180936c29ba3932b0b6a130b9b4b1903b60991b602083015261125081518092602086860191016121fb565b810103600d810184520182612126565b5060203660031901126101b457600c54600435906001600160a01b03166107aa5780611290610393923033612966565b612afd565b50346101b457806003193601126101b4577f00000000000000000000000000000000000000000000000000000000000000006001600160a01b031630036112ee5760206040516000805160206134b98339815191528152f35b60405162461bcd60e51b815260206004820152603860248201527f555550535570677261646561626c653a206d757374206e6f742062652063616c60448201527f6c6564207468726f7567682064656c656761746563616c6c00000000000000006064820152608490fd5b5060403660031901126101b45761136e612243565b6024356001600160401b0381116107a65761138d9036906004016122f0565b6001600160a01b037f000000000000000000000000000000000000000000000000000000000000000081169291906113c7308514156127a4565b6113e46000805160206134b9833981519152948286541614612805565b600485826001541660405192838092635e615a6b60e01b82525afa90811561163b57829160e0918891611621575b5001511633036103e9577f4910fdfa16fed3260ed0e7147f7cc6da11a60208b5b9406d12a635614ffd91435460ff16156114525750506103939150613252565b82919216604051936352d1902d60e01b85526020948581600481865afa8791816115ee575b506114d85760405162461bcd60e51b815260048101879052602e60248201527f45524331393637557067726164653a206e657720696d706c656d656e7461746960448201526d6f6e206973206e6f74205555505360901b6064820152608490fd5b94939403611597576114e982613252565b7fbc7cd75a20ee27fd9adebab32041f755214dbc6bffa90cc0225b39da2e5c2d3b8580a28383511580159061158f575b611525575b5050505080f35b806115859460405194611537866120a5565b602786527f416464726573733a206c6f772d6c6576656c2064656c65676174652063616c6c81870152660819985a5b195960ca1b604087015281519101845af461157f612936565b916133ff565b503880808361151e565b506001611519565b60405162461bcd60e51b815260048101849052602960248201527f45524331393637557067726164653a20756e737570706f727465642070726f786044820152681a58589b195555525160ba1b6064820152608490fd5b9091508681813d831161161a575b6116068183612126565b8101031261161657519038611477565b8780fd5b503d6115fc565b61163591503d808a833e6103d08183612126565b38611412565b6040513d88823e3d90fd5b50346101b4576020806003193601126107bc57611661612243565b6001600160a01b037f00000000000000000000000000000000000000000000000000000000000000008116611698308214156127a4565b6116b56000805160206134b9833981519152918383541614612805565b600485836001541660405192838092635e615a6b60e01b82525afa90811561163b57839160e0918891611838575b5001511633036103e957604051916116fa83612074565b8583527f4910fdfa16fed3260ed0e7147f7cc6da11a60208b5b9406d12a635614ffd91435460ff1615611734575050506103939150613252565b83929316906040516352d1902d60e01b81528581600481865afa879181611809575b506117b75760405162461bcd60e51b815260048101879052602e60248201527f45524331393637557067726164653a206e657720696d706c656d656e7461746960448201526d6f6e206973206e6f74205555505360901b6064820152608490fd5b94939403611597576117c882613252565b7fbc7cd75a20ee27fd9adebab32041f755214dbc6bffa90cc0225b39da2e5c2d3b8580a28383511580159061180257611525575050505080f35b5080611519565b9091508681813d8311611831575b6118218183612126565b8101031261161657519038611756565b503d611817565b61184c91503d808a833e6103d08183612126565b386116e3565b50346101b457806003193601126101b45761186b6126a6565b61189761187f6118796128dd565b92612cf2565b916118898361304d565b60ff600f541690429161291b565b6118a081612866565b6101008201519160078210156104b657602081015151815160c08301519160ff60806040860151950151519560405197885216602087015260408601526060850152608084015260a083015260c08201527f9a6ce334816e7b4b0cea88e41f3c652ec2e8064e2663e98f6d94d5ed90bc569060e03092a280f35b50346101b457806003193601126101b457611933612743565b5061193c612743565b604051906020825280519260a06020840152835160c084015260208401519060038210156119d15750604061198b8185966101b09460e08801520151606061010087015261012086019061221e565b926119b26020820151838701906001600160401b0360208092805115158552015116910152565b0151805115156080850152602001516001600160401b031660a0840152565b634e487b7160e01b81526021600452602490fd5b50346101b45760203660031901126101b45760043590611a043361255b565b91611a0f3384612c52565b611a1a6118896128dd565b906007821015611ba157600282141580611b96575b61039657611a3e61023a6126a6565b916020830151611a5e606085019182519760c087019842928a5192612e97565b9280611b9057508251935b83518511611b7757957fca17ddd98e8725ab2aa1c70d19c5d777d10bd61a64e2525cf7ead7fe7f1ec20791611afa8798610393985086518814600014611b6057611af06020880151965b611ae960208a0198611ac6818b51612720565b8a52611ad38c8c51612720565b8b52611ae08c8951612720565b88528651612720565b8552612866565b61112c8733612ff3565b6109c9855194519560608101519260a082015194604060c0840151930151519051915192604051968796339b309b8994919260e0969399989794919961010087019a8752602087015260408601526060850152608084015260a083015260c08201520152565b611af0611b7185518551908b612f85565b96611ab3565b6040516318928cbf60e31b815260048101869052602490fd5b93611a69565b506001821415611a2f565b634e487b7160e01b83526021600452602483fd5b50346101b457806003193601126101b457610120611bd16126a6565b604051908051825260208101515160208301526040810151604083015260608101516060830152608081015151608083015260a081015160a083015260c081015160c083015260e081015160e08301526101008091015190820152f35b50346101b457806003193601126101b4576101b0604051611c4e816120dc565b6005815264426173696360d81b602082015260405191829160208352602083019061221e565b50346101b4576020806003193601126107bc576001600160401b0360043581811161078c57611ca79036906004016122f0565b83549091906001600160a01b031633036103e9578151908111611e3057611ccf600e5461203a565b601f8111611de0575b5082601f8211600114611d4d579181611d3c927ffa52982561798522f5e44b012104c1a4b09148533ab665caa1c1f28539f9a053948791611d42575b508160011b916000199060031b1c191617600e555b604051918291858352309583019061221e565b0390a280f35b905082015138611d14565b600e855260008051602061349983398151915290601f198316865b86828210611dca575050927ffa52982561798522f5e44b012104c1a4b09148533ab665caa1c1f28539f9a053949260019282611d3c9610611db1575b5050811b01600e55611d29565b84015160001960f88460031b161c191690553880611da4565b6001849582939589015181550194019201611d68565b600e8552600080516020613499833981519152601f830160051c810191858410611e26575b601f0160051c01905b818110611e1b5750611cd8565b858155600101611e0e565b9091508190611e05565b634e487b7160e01b84526041600452602484fd5b50346101b45760203660031901126101b457610100611e69611e64612243565b61255b565b611e766040518092612288565bf35b50346101b45760203660031901126101b457600c546001600160a01b031660043581156107aa57611290816103939330903390612a15565b50346101b457806003193601126101b4576101b061019c612147565b50346101b457806003193601126101b457600154604051635e615a6b60e01b81526001600160a01b039183908290600490829086165afa9081156103de57829160e0918591611fd3575b5001511633036103e957600f54611f2e61042c6128dd565b600781101590816103a8578015159182611fc5575b82611fb3575b505061039657610393916006600a549260ff191617600f5580845416906040517febb55ea32d517c9ec85f61357977ac73b84e65ebeaedb528ed791d7e25e30a2b3091806104a88787836040906006929493606082019560018060a01b0316825260208201520152565b9091506104b657600214153880611f49565b506001811415915084611f43565b611fe791503d8087833e6103d08183612126565b38611f16565b9050346107bc57816003193601126107bc5790546001600160a01b03168152602090f35b9190602083019260078210156120245752565b634e487b7160e01b600052602160045260246000fd5b90600182811c9216801561206a575b602083101461205457565b634e487b7160e01b600052602260045260246000fd5b91607f1691612049565b602081019081106001600160401b0382111761208f57604052565b634e487b7160e01b600052604160045260246000fd5b606081019081106001600160401b0382111761208f57604052565b61012081019081106001600160401b0382111761208f57604052565b604081019081106001600160401b0382111761208f57604052565b6001600160401b03811161208f57604052565b61010081019081106001600160401b0382111761208f57604052565b90601f801991011681019081106001600160401b0382111761208f57604052565b60405190600082600e549161215b8361203a565b808352926020906001908181169081156121d75750600114612188575b505061218692500383612126565b565b915092600e600052600080516020613499833981519152936000925b8284106121bf57506121869450505081016020013880612178565b855488850183015294850194879450928101926121a4565b9150506020925061218694915060ff191682840152151560051b8201013880612178565b60005b83811061220e5750506000910152565b81810151838201526020016121fe565b90602091612237815180928185528580860191016121fb565b601f01601f1916010190565b600435906001600160a01b038216820361225957565b600080fd5b602435906001600160a01b038216820361225957565b35906001600160a01b038216820361225957565b60e080918051845260208101516020850152604081015151604085015260608101516060850152608081015151608085015260a081015160a085015260c081015160c08501520151910152565b6001600160401b03811161208f57601f01601f191660200190565b81601f8201121561225957803590612307826122d5565b926123156040519485612126565b8284526020838301011161225957816000926020809301838601378301015290565b91908260409103126122595760405161234f816120dc565b809280359081151582036122595760209183520135906001600160401b03821682036122595760200152565b60405190612388826120dc565b60058252640312e302e360dc1b6020830152565b51906001600160a01b038216820361225957565b9190826020910312612259576040516123c881612074565b91518252565b60209182828203126122595781516001600160401b0392838211612259570191610180938484840312612259576040519485018581108382111761208f576040528351855261241e81850161239c565b8186015261242f83604086016123b0565b6040860152606084015160608601526080840151608086015260a084015160a086015261245e60c0850161239c565b60c086015261246f60e0850161239c565b60e0860152610100918285015190811161225957840183601f820112156122595780519061249c826122d5565b946124aa6040519687612126565b82865283838301011161225957826124c593860191016121fb565b8301526101206124d681830161239c565b908301526101406124e881830161239c565b908301526124fa61016080920161239c565b9082015290565b6040519061250e8261210a565b8160e060009182815282602082015260405161252981612074565b838152604082015282606082015260405161254381612074565b83815260808201528260a08201528260c08201520152565b612563612501565b506002546040516316c1973960e01b81526001600160a01b0392831660048201529161010091829184916024918391165afa918215612639576000926125a857505090565b908092503d8311612632575b6125be8183612126565b810191818303126122595760e09061260f604051936125dc8561210a565b82518552602083015160208601526125f781604085016123b0565b604086015260608301516060860152608083016123b0565b608084015260a081015160a084015260c081015160c0840152015160e082015290565b503d6125b4565b6040513d6000823e3d90fd5b60405190612652826120c0565b8161010060009182815260405161266881612074565b838152602082015282604082015282606082015260405161268881612074565b83815260808201528260a08201528260c08201528260e08201520152565b6126ae612645565b506040516126bb816120c0565b60035481526040516126cc81612074565b60045481526020820152600554604082015260065460608201526040516126f281612074565b6007548152608082015260085460a082015260095460c0820152600a5460e0820152600b5461010082015290565b9190820391821161272d57565b634e487b7160e01b600052601160045260246000fd5b6040908151612751816120a5565b809280519161275f836120a5565b6000928381528360208201526060838201528152815161277e816120dc565b8381528360208201526020820152815192612798846120dc565b80845260208401520152565b156127ab57565b60405162461bcd60e51b815260206004820152602c60248201527f46756e6374696f6e206d7573742062652063616c6c6564207468726f7567682060448201526b19195b1959d85d1958d85b1b60a21b6064820152608490fd5b1561280c57565b60405162461bcd60e51b815260206004820152602c60248201527f46756e6374696f6e206d7573742062652063616c6c6564207468726f7567682060448201526b6163746976652070726f787960a01b6064820152608490fd5b60078110156120245760ff8019600f5416911617600f55565b9160c0939160018060a01b031683526020830152604082015260806060820152601b60808201527f506f736974696f6e2068617320616c726561647920657869746564000000000060a08201520190565b9190820180921161272d57565b6000604080516128ec816120a5565b8281528260208201520152604051612903816120a5565b60105481526011546020820152601254604082015290565b906129339281519060406020840151930151936130cc565b90565b3d15612961573d90612947826122d5565b916129556040519384612126565b82523d6000602084013e565b606090565b908215612a10576001600160a01b039182163381036129dd57508234036129be57163081146129ba57600080809381935af16129a0612936565b50156129a857565b604051630c08bcb960e21b8152600490fd5b5050565b604051635693fffb60e01b815260048101849052346024820152604490fd5b3081036129f857506000809381938293165af16129a0612936565b6024906040519063463de9db60e01b82526004820152fd5b505050565b9290928115612af7576001600160a01b03908116938415612ac6578116308103612a7d57506040519263a9059cbb60e01b602085015216602483015260448201526044815260808101918183106001600160401b0384111761208f57612186926040526132e2565b92604051936323b872dd60e01b6020860152602485015216604483015260648201526064815260a08101918183106001600160401b0384111761208f57612186926040526132e2565b8193929450163381146000146129dd57508234036129be57163081146129ba57600080809381935af16129a0612936565b50505050565b801561079457612b1b60ff600f5416612b146128dd565b429161291b565b600781101561202457600181141580612c47575b610396577fac20383bc611fb24ecfa942ed37ae8648074130276759a168535c23c5cf026c3612b5f61023a6126a6565b612b683361255b565b90612bde602082015191612bd4612b8f606083019485519660c08501974292895192612e97565b96612bc7612ba187518751908c612fcb565b99612bad818b516128d0565b8a5260208a01612bbe8c82516128d0565b905287516128d0565b8652611ae98986516128d0565b61112c8633612ff3565b612c4284519460608101519260a082015194604060c0840151930151519051915192604051968796339b309b8994919260e0969399989794919961010087019a8752602087015260408601526060850152608084015260a083015260c08201520152565b0390a3565b506002811415612b2f565b90602082019182518015612c8f575060e001519182612c7057505050565b51604051631175404360e11b8152928392610a7c92906004850161287f565b60e09190910151604051631175404360e11b81526001600160a01b03909316600484015260248301919091526044820152608060648201526016608482015275506f736974696f6e20686173206e6f2073686172657360501b60a482015260c490fd5b612cfa612645565b50612d036128dd565b612d20604060208301519201519161010084019283519142613145565b805115612e5d57612d2f612645565b5060608301908151151580612e53575b612dbf575b50504290526020810151517ff7f050a5e163dbe15fb695b5b2e83ef129fc3565263dc8fc74049d3739e62fde825160c084015190612db9604086015160808701515190604051948594309842879260a094919796959260c0850198855260208501526040840152606083015260808201520152565b0390a290565b620f42409081612dd3826102aa8851613096565b510491612de860c08701926102aa8451613096565b51049060408601612dfa8382516128d0565b9052612e07828251612720565b905281612e15575b50612d44565b612e30612e4693612e27848851612720565b875251836133d1565b612e3f60208701918251613228565b90526133d1565b6080830152388080612e0f565b5080511515612d3f565b5042905290565b8181029291811591840414171561272d57565b8115612e81570490565b634e487b7160e01b600052601260045260246000fd5b9392919091612ea4612501565b506040850191612ec883516000604051612ebd81612074565b528551905190612720565b60405190612ed582612074565b815260208701928351938885612ef5575b50505050505052606082015290565b612f08612f57946102aa612f5c98613096565b612f186080830191825190613228565b6000604051612f2681612074565b5251612f4d620f424060c060405195612f3e87612074565b828506875201920482516128d0565b9052525190612e64565b612e77565b612f67818651612720565b612f7660a087019182516128d0565b90528452388080808088612ee6565b909180158015612fc3575b612fbd57612fa2612fa7928492612e64565b6128d0565b60001981019190821161272d5761293391612e77565b50905090565b508115612f90565b9180158015612feb575b612fe65761293392612f5791612e64565b505090565b508215612fd5565b6002546001600160a01b03908116803b1561225957600092836101249261303560405197889687956360d6081360e11b87521660048601526024850190612288565b5af18015612639576130445750565b612186906120f7565b80516003556020810151516004556040810151600555606081015160065560808101515160075560a081015160085560c081015160095560e0810151600a556101000151600b55565b60006040516130a481612074565b52620f42409081810291818304149015171561272d57604051906130c782612074565b815290565b929190926007811015806120245760068214908115613138575b8115613128575b50613120575082101561310257505050600090565b811015613110575050600190565b101561311b57600290565b600390565b935050505090565b90506120245760058114386130ed565b50506004811460006130e6565b92909192600060405161315781612074565b5282811080156131ef575b6131dd578261318b9383106131d5575b50818482116131cd575b61318591612720565b92612720565b801580156131c5575b6131a157612933916133d1565b505060006040516131b181612074565b526040516131be81612074565b6000815290565b508115613194565b84915061317c565b915038613172565b5050505060006040516131b181612074565b5083821015613162565b620f42409161321a91600060405161321081612074565b5251905190612e64565b04604051906130c782612074565b9061324591600060405161323b81612074565b52519051906128d0565b604051906130c782612074565b803b15613287576000805160206134b983398151915280546001600160a01b0319166001600160a01b03909216919091179055565b60405162461bcd60e51b815260206004820152602d60248201527f455243313936373a206e657720696d706c656d656e746174696f6e206973206e60448201526c1bdd08184818dbdb9d1c9858dd609a1b6064820152608490fd5b60018060a01b03169061333b6040516132fa816120dc565b6020938482527f5361666545524332303a206c6f772d6c6576656c2063616c6c206661696c6564858301526000808587829751910182855af161157f612936565b8051918215918483156133ad575b5050509050156133565750565b6084906040519062461bcd60e51b82526004820152602a60248201527f5361666545524332303a204552433230206f7065726174696f6e20646964206e6044820152691bdd081cdd58d8d9595960b21b6064820152fd5b9193818094500103126107bc578201519081151582036101b4575080388084613349565b9060006040516133e081612074565b52620f42409182810292818404149015171561272d5761324591612e77565b919290156134615750815115613413575090565b3b1561341c5790565b60405162461bcd60e51b815260206004820152601d60248201527f416464726573733a2063616c6c20746f206e6f6e2d636f6e74726163740000006044820152606490fd5b8251909150156134745750805190602001fd5b60405162461bcd60e51b815260206004820152908190610a7c90602483019061221e56febb7b4a454dc3493923482f07822329ed19e8244eff582cc204f8554c3620c3fd360894a13ba1a3210667c828492db98dca3e2076cc3735a920a3ca505d382bbca2646970667358221220e40fb6b7c37bb2dec6a8e6e75244d72a719f83927163c180d08a5a13f3804c1464736f6c63430008180033",
  "devdoc": {
    "events": {
      "AdminChanged(address,address)": {
        "details": "Emitted when the admin account has changed."
      },
      "BeaconUpgraded(address)": {
        "details": "Emitted when the beacon is changed."
      },
      "Upgraded(address)": {
        "details": "Emitted when the implementation is upgraded."
      }
    },
    "kind": "dev",
    "methods": {
      "cancelStream()": {
        "details": "Allows the creator to cancel the stream during the Waiting phase"
      },
      "cancelWithAdmin()": {
        "details": "Allows the protocol admin to cancel the stream"
      },
      "exitStream()": {
        "details": "Allows users to exit the stream and receive their tokens based on stream outcome"
      },
      "finalizeStream()": {
        "details": "Allows the creator to finalize the stream after it has ended"
      },
      "implementation()": {
        "details": "Returns the implementation name for identification",
        "returns": {
          "_0": "Implementation name and version"
        }
      },
      "initialize((address,address,address,uint256,uint256,uint256,uint256,uint256,(string),(bool,uint64),(bool,uint64),(uint256,uint8,bytes),string),address)": {
        "details": "Initializes the stream with the provided configuration",
        "params": {
          "createStreamMessage": "Stream creation parameters",
          "storageAddress": "Address of the position storage contract"
        }
      },
      "proxiableUUID()": {
        "details": "Implementation of the ERC1822 {proxiableUUID} function. This returns the storage slot used by the implementation. It is used to validate the implementation's compatibility when performing an upgrade. IMPORTANT: A proxy pointing at a proxiable contract should not be considered proxiable itself, because this risks bricking a proxy that upgrades to it, by delegating to itself until out of gas. Thus it is critical that this function revert if invoked through a proxy. This is guaranteed by the `notDelegated` modifier."
      },
      "subscribe(uint256)": {
        "details": "Allows users to subscribe to the stream by providing input tokens",
        "params": {
          "amountIn": "Amount of input tokens to subscribe with"
        }
      },
      "subscribeWithNativeToken(uint256)": {
        "details": "Allows users to subscribe with native tokens",
        "params": {
          "amountIn": "Amount of native tokens to subscribe with"
        }
      },
      "subscribeWithPermit(uint256,address,((address,uint160,uint48,uint48),address,uint256),bytes)": {
        "details": "Allows users to subscribe using Uniswap Permit2 for ERC20 approvals",
        "params": {
          "amountIn": "Amount of input tokens to subscribe with",
          "owner": "Owner of tokens and signer",
          "permitSingle": "Permit2 Single permit data",
          "signature": "EIP-712 signature"
        }
      },
      "syncPositionExternal(address)": {
        "details": "External function to sync a specific user's position",
        "params": {
          "user": "Address of the user whose position should be synced"
        }
      },
      "syncStreamExternal()": {
        "details": "External function to sync the stream state and status"
      },
      "updateStreamMetadata(string)": {
        "details": "Allows the creator to update the stream metadata"
      },
      "upgradeTo(address)": {
        "custom:oz-upgrades-unsafe-allow-reachable": "delegatecall",
        "details": "Upgrade the implementation of the proxy to `newImplementation`. Calls {_authorizeUpgrade}. Emits an {Upgraded} event."
      },
      "upgradeToAndCall(address,bytes)": {
        "custom:oz-upgrades-unsafe-allow-reachable": "delegatecall",
        "details": "Upgrade the implementation of the proxy to `newImplementation`, and subsequently execute the function call encoded in `data`. Calls {_authorizeUpgrade}. Emits an {Upgraded} event."
      },
      "withdraw(uint256)": {
        "details": "Allows users to withdraw their input tokens from the stream",
        "params": {
          "cap": "Amount of input tokens to withdraw"
        }
      }
    },
    "version": 1
  },
  "userdoc": {
    "kind": "user",
    "methods": {
      "PERMIT2()": {
        "notice": "Address of the Permit2 contract"
      },
      "STREAM_FACTORY_ADDRESS()": {
        "notice": "Address of the stream factory that deployed this stream"
      },
      "VARIANT()": {
        "notice": "Contract variant identifier"
      },
      "VERSION()": {
        "notice": "Contract version for tracking upgrades"
      },
      "creator()": {
        "notice": "Address of the stream creator"
      },
      "initialize((address,address,address,uint256,uint256,uint256,uint256,uint256,(string),(bool,uint64),(bool,uint64),(uint256,uint8,bytes),string),address)": {
        "notice": "This function can only be called once and must be invoked by the factory"
      },
      "positionStorageAddress()": {
        "notice": "Address of the position storage contract"
      },
      "streamMetadata()": {
        "notice": "Metadata associated with the stream"
      },
      "streamState()": {
        "notice": "Current state of the stream (distribution index, remaining tokens, etc.)"
      },
      "streamStatus()": {
        "notice": "Current status of the stream (Waiting, Bootstrapping, Active, etc.)"
      },
      "streamTimes()": {
        "notice": "Timing information for the stream phases"
      },
      "streamTokens()": {
        "notice": "Token addresses for input and output tokens"
      }
    },
    "version": 1
  },
  "storageLayout": {
    "storage": [
      {
        "astId": 9982,
        "contract": "src/StreamBasic.sol:StreamBasic",
        "label": "creator",
        "offset": 0,
        "slot": "0",
        "type": "t_address"
      },
      {
        "astId": 9985,
        "contract": "src/StreamBasic.sol:StreamBasic",
        "label": "STREAM_FACTORY_ADDRESS",
        "offset": 0,
        "slot": "1",
        "type": "t_address"
      },
      {
        "astId": 9988,
        "contract": "src/StreamBasic.sol:StreamBasic",
        "label": "positionStorageAddress",
        "offset": 0,
        "slot": "2",
        "type": "t_address"
      },
      {
        "astId": 9991,
        "contract": "src/StreamBasic.sol:StreamBasic",
        "label": "initialized",
        "offset": 20,
        "slot": "2",
        "type": "t_bool"
      },
      {
        "astId": 9995,
        "contract": "src/StreamBasic.sol:StreamBasic",
        "label": "streamState",
        "offset": 0,
        "slot": "3",
        "type": "t_struct(StreamState)16633_storage"
      },
      {
        "astId": 9999,
        "contract": "src/StreamBasic.sol:StreamBasic",
        "label": "streamTokens",
        "offset": 0,
        "slot": "12",
        "type": "t_struct(StreamTokens)16638_storage"
      },
      {
        "astId": 10003,
        "contract": "src/StreamBasic.sol:StreamBasic",
        "label": "streamMetadata",
        "offset": 0,
        "slot": "14",
        "type": "t_struct(StreamMetadata)16612_storage"
      },
      {
        "astId": 10007,
        "contract": "src/StreamBasic.sol:StreamBasic",
        "label": "streamStatus",
        "offset": 0,
        "slot": "15",
        "type": "t_enum(Status)16567"
      },
      {
        "astId": 10011,
        "contract": "src/StreamBasic.sol:StreamBasic",
        "label": "streamTimes",
        "offset": 0,
        "slot": "16",
        "type": "t_struct(StreamTimes)16609_storage"
      },
      {
        "astId": 10020,
        "contract": "src/StreamBasic.sol:StreamBasic",
        "label": "__gap",
        "offset": 0,
        "slot": "19",
        "type": "t_array(t_uint256)40_storage"
      }
    ],
    "types": {
      "t_address": {
        "encoding": "inplace",
        "label": "address",
        "numberOfBytes": "20"
      },
      "t_array(t_uint256)40_storage": {
        "base": "t_uint256",
        "encoding": "inplace",
        "label": "uint256[40]",
        "numberOfBytes": "1280"
      },
      "t_bool": {
        "encoding": "inplace",
        "label": "bool",
        "numberOfBytes": "1"
      },
      "t_enum(Status)16567": {
        "encoding": "inplace",
        "label": "enum StreamTypes.Status",
        "numberOfBytes": "1"
      },
      "t_string_storage": {
        "encoding": "bytes",
        "label": "string",
        "numberOfBytes": "32"
      },
      "t_struct(Decimal)15473_storage": {
        "encoding": "inplace",
        "label": "struct Decimal",
        "members": [
          {
            "astId": 15472,
            "contract": "src/StreamBasic.sol:StreamBasic",
            "label": "value",
            "offset": 0,
            "slot": "0",
            "type": "t_uint256"
          }
        ],
        "numberOfBytes": "32"
      },
      "t_struct(StreamMetadata)16612_storage": {
        "encoding": "inplace",
        "label": "struct StreamTypes.StreamMetadata",
        "members": [
          {
            "astId": 16611,
            "contract": "src/StreamBasic.sol:StreamBasic",
            "label": "ipfsHash",
            "offset": 0,
            "slot": "0",
            "type": "t_string_storage"
          }
        ],
        "numberOfBytes": "32"
      },
      "t_struct(StreamState)16633_storage": {
        "encoding": "inplace",
        "label": "struct StreamTypes.StreamState",
        "members": [
          {
            "astId": 16614,
            "contract": "src/StreamBasic.sol:StreamBasic",
            "label": "outRemaining",
            "offset": 0,
            "slot": "0",
            "type": "t_uint256"
          },
          {
            "astId": 16617,
            "contract": "src/StreamBasic.sol:StreamBasic",
            "label": "distIndex",
            "offset": 0,
            "slot": "1",
            "type": "t_struct(Decimal)15473_storage"
          },
          {
            "astId": 16619,
            "contract": "src/StreamBasic.sol:StreamBasic",
            "label": "spentIn",
            "offset": 0,
            "slot": "2",
            "type": "t_uint256"
          },
          {
            "astId": 16621,
            "contract": "src/StreamBasic.sol:StreamBasic",
            "label": "shares",
            "offset": 0,
            "slot": "3",
            "type": "t_uint256"
          },
          {
            "astId": 16624,
            "contract": "src/StreamBasic.sol:StreamBasic",
            "label": "currentStreamedPrice",
            "offset": 0,
            "slot": "4",
            "type": "t_struct(Decimal)15473_storage"
          },
          {
            "astId": 16626,
            "contract": "src/StreamBasic.sol:StreamBasic",
            "label": "threshold",
            "offset": 0,
            "slot": "5",
            "type": "t_uint256"
          },
          {
            "astId": 16628,
            "contract": "src/StreamBasic.sol:StreamBasic",
            "label": "inSupply",
            "offset": 0,
            "slot": "6",
            "type": "t_uint256"
          },
          {
            "astId": 16630,
            "contract": "src/StreamBasic.sol:StreamBasic",
            "label": "outSupply",
            "offset": 0,
            "slot": "7",
            "type": "t_uint256"
          },
          {
            "astId": 16632,
            "contract": "src/StreamBasic.sol:StreamBasic",
            "label": "lastUpdated",
            "offset": 0,
            "slot": "8",
            "type": "t_uint256"
          }
        ],
        "numberOfBytes": "288"
      },
      "t_struct(StreamTimes)16609_storage": {
        "encoding": "inplace",
        "label": "struct StreamTypes.StreamTimes",
        "members": [
          {
            "astId": 16604,
            "contract": "src/StreamBasic.sol:StreamBasic",
            "label": "bootstrappingStartTime",
            "offset": 0,
            "slot": "0",
            "type": "t_uint256"
          },
          {
            "astId": 16606,
            "contract": "src/StreamBasic.sol:StreamBasic",
            "label": "streamStartTime",
            "offset": 0,
            "slot": "1",
            "type": "t_uint256"
          },
          {
            "astId": 16608,
            "contract": "src/StreamBasic.sol:StreamBasic",
            "label": "streamEndTime",
            "offset": 0,
            "slot": "2",
            "type": "t_uint256"
          }
        ],
        "numberOfBytes": "96"
      },
      "t_struct(StreamTokens)16638_storage": {
        "encoding": "inplace",
        "label": "struct StreamTypes.StreamTokens",
        "members": [
          {
            "astId": 16635,
            "contract": "src/StreamBasic.sol:StreamBasic",
            "label": "inSupplyToken",
            "offset": 0,
            "slot": "0",
            "type": "t_address"
          },
          {
            "astId": 16637,
            "contract": "src/StreamBasic.sol:StreamBasic",
            "label": "outSupplyToken",
            "offset": 0,
            "slot": "1",
            "type": "t_address"
          }
        ],
        "numberOfBytes": "64"
      },
      "t_uint256": {
        "encoding": "inplace",
        "label": "uint256",
        "numberOfBytes": "32"
      }
    }
  }
}