{
  "address": "0xc8d83D6C34eddbBE30Cd3d5DB0660C6325BC9b3C",
  "abi": [
    {
      "inputs": [
        {
          "internalType": "address",
          "name": "factory",
          "type": "address"
        },
        {
          "internalType": "address",
          "name": "router",
          "type": "address"
        }
      ],
      "stateMutability": "nonpayable",
      "type": "constructor"
    },
    {
      "inputs": [],
      "name": "DifferentTokensRequired",
      "type": "error"
    },
    {
      "inputs": [
        {
          "internalType": "uint256",
          "name": "expected",
          "type": "uint256"
        },
        {
          "internalType": "uint256",
          "name": "actual",
          "type": "uint256"
        }
      ],
      "name": "IncorrectNativeAmount",
      "type": "error"
    },
    {
      "inputs": [],
      "name": "InsufficientBalance",
      "type": "error"
    },
    {
      "inputs": [],
      "name": "InvalidAddress",
      "type": "error"
    },
    {
      "inputs": [],
      "name": "InvalidAmount",
      "type": "error"
    },
    {
      "inputs": [
        {
          "internalType": "address",
          "name": "from",
          "type": "address"
        }
      ],
      "name": "InvalidNativePayer",
      "type": "error"
    },
    {
      "inputs": [],
      "name": "NativeTokenTransferFailed",
      "type": "error"
    },
    {
      "inputs": [],
      "name": "PoolCreationFailed",
      "type": "error"
    },
    {
      "anonymous": false,
      "inputs": [
        {
          "indexed": true,
          "internalType": "address",
          "name": "previousOwner",
          "type": "address"
        },
        {
          "indexed": true,
          "internalType": "address",
          "name": "newOwner",
          "type": "address"
        }
      ],
      "name": "OwnershipTransferred",
      "type": "event"
    },
    {
      "inputs": [],
      "name": "V2_FACTORY",
      "outputs": [
        {
          "internalType": "address",
          "name": "",
          "type": "address"
        }
      ],
      "stateMutability": "view",
      "type": "function"
    },
    {
      "inputs": [],
      "name": "V2_ROUTER",
      "outputs": [
        {
          "internalType": "address",
          "name": "",
          "type": "address"
        }
      ],
      "stateMutability": "view",
      "type": "function"
    },
    {
      "inputs": [
        {
          "components": [
            {
              "internalType": "address",
              "name": "token0",
              "type": "address"
            },
            {
              "internalType": "address",
              "name": "token1",
              "type": "address"
            },
            {
              "internalType": "uint256",
              "name": "amount0Desired",
              "type": "uint256"
            },
            {
              "internalType": "uint256",
              "name": "amount1Desired",
              "type": "uint256"
            },
            {
              "internalType": "address",
              "name": "creator",
              "type": "address"
            },
            {
              "internalType": "bytes",
              "name": "extra",
              "type": "bytes"
            }
          ],
          "internalType": "struct PoolWrapperTypes.CreatePoolMsg",
          "name": "createPoolMsg",
          "type": "tuple"
        }
      ],
      "name": "createPool",
      "outputs": [
        {
          "components": [
            {
              "internalType": "address",
              "name": "poolAddress",
              "type": "address"
            },
            {
              "internalType": "address",
              "name": "token0",
              "type": "address"
            },
            {
              "internalType": "address",
              "name": "token1",
              "type": "address"
            },
            {
              "internalType": "uint256",
              "name": "amount0",
              "type": "uint256"
            },
            {
              "internalType": "uint256",
              "name": "amount1",
              "type": "uint256"
            },
            {
              "internalType": "address",
              "name": "creator",
              "type": "address"
            },
            {
              "internalType": "uint256",
              "name": "refundedAmount0",
              "type": "uint256"
            },
            {
              "internalType": "uint256",
              "name": "refundedAmount1",
              "type": "uint256"
            }
          ],
          "internalType": "struct PoolWrapperTypes.CreatedPoolInfo",
          "name": "",
          "type": "tuple"
        }
      ],
      "stateMutability": "nonpayable",
      "type": "function"
    },
    {
      "inputs": [
        {
          "internalType": "address",
          "name": "stream",
          "type": "address"
        }
      ],
      "name": "getPoolInfo",
      "outputs": [
        {
          "components": [
            {
              "internalType": "address",
              "name": "poolAddress",
              "type": "address"
            },
            {
              "internalType": "address",
              "name": "token0",
              "type": "address"
            },
            {
              "internalType": "address",
              "name": "token1",
              "type": "address"
            },
            {
              "internalType": "uint256",
              "name": "amount0",
              "type": "uint256"
            },
            {
              "internalType": "uint256",
              "name": "amount1",
              "type": "uint256"
            },
            {
              "internalType": "address",
              "name": "creator",
              "type": "address"
            },
            {
              "internalType": "uint256",
              "name": "refundedAmount0",
              "type": "uint256"
            },
            {
              "internalType": "uint256",
              "name": "refundedAmount1",
              "type": "uint256"
            }
          ],
          "internalType": "struct PoolWrapperTypes.CreatedPoolInfo",
          "name": "",
          "type": "tuple"
        }
      ],
      "stateMutability": "view",
      "type": "function"
    },
    {
      "inputs": [],
      "name": "owner",
      "outputs": [
        {
          "internalType": "address",
          "name": "",
          "type": "address"
        }
      ],
      "stateMutability": "view",
      "type": "function"
    },
    {
      "inputs": [],
      "name": "renounceOwnership",
      "outputs": [],
      "stateMutability": "nonpayable",
      "type": "function"
    },
    {
      "inputs": [
        {
          "internalType": "address",
          "name": "",
          "type": "address"
        }
      ],
      "name": "streamPools",
      "outputs": [
        {
          "internalType": "address",
          "name": "poolAddress",
          "type": "address"
        },
        {
          "internalType": "address",
          "name": "token0",
          "type": "address"
        },
        {
          "internalType": "address",
          "name": "token1",
          "type": "address"
        },
        {
          "internalType": "uint256",
          "name": "amount0",
          "type": "uint256"
        },
        {
          "internalType": "uint256",
          "name": "amount1",
          "type": "uint256"
        },
        {
          "internalType": "address",
          "name": "creator",
          "type": "address"
        },
        {
          "internalType": "uint256",
          "name": "refundedAmount0",
          "type": "uint256"
        },
        {
          "internalType": "uint256",
          "name": "refundedAmount1",
          "type": "uint256"
        }
      ],
      "stateMutability": "view",
      "type": "function"
    },
    {
      "inputs": [
        {
          "internalType": "address",
          "name": "newOwner",
          "type": "address"
        }
      ],
      "name": "transferOwnership",
      "outputs": [],
      "stateMutability": "nonpayable",
      "type": "function"
    }
  ],
  "transactionHash": "0xbe3b781b15f74d3f46d903118eed54f056cfa9423fd29ee5d05a329dcdae87d5",
  "args": [
    "0x82438CE666d9403e488bA720c7424434e8Aa47CD",
    "0x3a3eBAe0Eec80852FBC7B9E824C6756969cc8dc1"
  ],
  "numDeployments": 1,
  "solcInputHash": "1a9060ea1889d13789fa9ae9790a4308",
  "bytecode": "0x60c03461010457601f61118738819003918201601f19168301916001600160401b0383118484101761010957808492604094855283398101031261010457610052602061004b8361011f565b920161011f565b60008054336001600160a01b03198216811783556040519394936001600160a01b039390928416907f8be0079c531659141344cd1fd0a4f28419497f9722a3daafe3b4186f6b6457e09080a3818316156100f557508216156100e35760805260a0526040516110539081610134823960805181818161036701526109a6015260a051818181610183015261049f0152f35b60405163e6c4247b60e01b8152600490fd5b63e6c4247b60e01b8152600490fd5b600080fd5b634e487b7160e01b600052604160045260246000fd5b51906001600160a01b03821682036101045756fe6080604052600436101561001257600080fd5b60003560e01c806306bfa93814610a6b57806312b46822146109d55780633fcc3cff1461099057806348c468b41461020b578063715018a6146101b25780638ada032e1461016d5780638da5cb5b146101445763f2fde38b1461007457600080fd5b3461013f57602036600319011261013f576004356001600160a01b038181169182900361013f576100a3610df9565b81156100eb57600054826bffffffffffffffffffffffff60a01b821617600055167f8be0079c531659141344cd1fd0a4f28419497f9722a3daafe3b4186f6b6457e0600080a3005b60405162461bcd60e51b815260206004820152602660248201527f4f776e61626c653a206e6577206f776e657220697320746865207a65726f206160448201526564647265737360d01b6064820152608490fd5b600080fd5b3461013f57600036600319011261013f576000546040516001600160a01b039091168152602090f35b3461013f57600036600319011261013f576040517f00000000000000000000000000000000000000000000000000000000000000006001600160a01b03168152602090f35b3461013f57600036600319011261013f576101cb610df9565b600080546001600160a01b0319811682556001600160a01b03167f8be0079c531659141344cd1fd0a4f28419497f9722a3daafe3b4186f6b6457e08280a3005b3461013f5760031960203682011261013f576004359067ffffffffffffffff821161013f5760c090823603011261013f57610244610bc6565b506001600160a01b0361025960048301610c04565b161561095a576001600160a01b0361027360248301610c04565b161561095a5761028581600401610c04565b6001600160a01b0361029960248401610c04565b6001600160a01b0390921691161461097e57604481013590811561096c576064810135801561096c576001600160a01b036102d660848401610c04565b161561095a576001600160a01b036102f060048401610c04565b166040516020816024816370a0823160e01b958682523060048301525afa8015610804578591600091610925575b50106108de5760206001600160a01b0361033a60248601610c04565b169160246040518094819382523060048301525afa80156108045782916000916108f0575b50106108de577f00000000000000000000000000000000000000000000000000000000000000006001600160a01b03166103dc60206103a060048601610c04565b6103ac60248701610c04565b60405163e6a4390560e01b81526001600160a01b0392831660048201529116602482015291829081906044820190565b0381855afa908115610804576000916108bf575b506001600160a01b0381166108b757509160206104579361041383600401610c04565b9061042060248501610c04565b6040516364e329cb60e11b81526001600160a01b039384166004820152921660248301529094859190829060009082906044820190565b03925af192831561080457600093610886575b506001600160a01b03831615610874575b6001600160a01b0361048f60048301610c04565b60405163095ea7b360e01b8082527f00000000000000000000000000000000000000000000000000000000000000006001600160a01b0381166004840152602483018990529593909260209183916044918391600091165af1801561080457610855575b5060206001600160a01b0361050a60248601610c04565b6040519384526001600160a01b03871660048501526024840185905283916044918391600091165af1801561080457610826575b5061054b82600401610c04565b61055760248401610c04565b61056360848501610c04565b9461012c420142116108105760405162e8e33760e81b81526001600160a01b0393841660048201529183166024830152604482018890526064820184905260006084830181905260a4830181905295831660c48301524261012c0160e4830152909460609286926101049284929091165af1928315610804576000906000946107c3575b50839291816106096106b69661060361069e956107bf9b610c4f565b93610c4f565b9461061685600401610c04565b9161062360248701610c04565b61062f60848801610c04565b936040519a61063d8c610b71565b6001600160a01b039081168c5290811660208c015290811660408b015260608a019190915260808901919091521660a087015260c0860181905260e0860184905261068a60048401610c04565b61069660848501610c04565b903090610c9c565b61069660846106af60248401610c04565b9201610c04565b336000526001602052604060002060018060a01b038251166bffffffffffffffffffffffff60a01b90818354161782556001820160018060a01b03602085015116828254161790556002820160018060a01b03604085015116828254161790556060830151600383015560808301516004830155600582019060018060a01b0360a0850151169082541617905560c08201516006820155600760e08301519101556040519182918291909160e08061010083019460018060a01b03808251168552806020830151166020860152806040830151166040860152606082015160608601526080820151608086015260a08201511660a085015260c081015160c08501520151910152565b0390f35b92919350506060823d6060116107fc575b816107e160609383610ba4565b8101031261013f57815160209092015192909161069e6105e7565b3d91506107d4565b6040513d6000823e3d90fd5b634e487b7160e01b600052601160045260246000fd5b6108479060203d60201161084e575b61083f8183610ba4565b810190610c37565b508561053e565b503d610835565b61086d9060203d60201161084e5761083f8183610ba4565b50866104f3565b6040516337200b1d60e21b8152600490fd5b6108a991935060203d6020116108b0575b6108a18183610ba4565b810190610c18565b918461046a565b503d610897565b90509161047b565b6108d8915060203d6020116108b0576108a18183610ba4565b856103f0565b604051631e9acf1760e31b8152600490fd5b9150506020813d60201161091d575b8161090c60209383610ba4565b8101031261013f578190518561035f565b3d91506108ff565b9150506020813d602011610952575b8161094160209383610ba4565b8101031261013f578490518661031e565b3d9150610934565b60405163e6c4247b60e01b8152600490fd5b60405163162908e360e11b8152600490fd5b6040516351734ced60e01b8152600490fd5b3461013f57600036600319011261013f576040517f00000000000000000000000000000000000000000000000000000000000000006001600160a01b03168152602090f35b3461013f57602036600319011261013f576004356001600160a01b038181169182900361013f576101009160005260016020526040600020908082541691816001820154169180600283015416906003830154600484015491600585015416926007600686015495015495604051978852602088015260408701526060860152608085015260a084015260c083015260e0820152f35b3461013f57602036600319011261013f576004356001600160a01b038181169182900361013f576107bf91610a9e610bc6565b5060005260016020526007604060002060405192610abb84610b71565b808254168452806001830154166020850152806002830154166040850152600382015460608501526004820154608085015260058201541660a0840152600681015460c0840152015460e08201526040519182918291909160e08061010083019460018060a01b03808251168552806020830151166020860152806040830151166040860152606082015160608601526080820151608086015260a08201511660a085015260c081015160c08501520151910152565b610100810190811067ffffffffffffffff821117610b8e57604052565b634e487b7160e01b600052604160045260246000fd5b90601f8019910116810190811067ffffffffffffffff821117610b8e57604052565b60405190610bd382610b71565b8160e06000918281528260208201528260408201528260608201528260808201528260a08201528260c08201520152565b356001600160a01b038116810361013f5790565b9081602091031261013f57516001600160a01b038116810361013f5790565b9081602091031261013f5751801515810361013f5790565b9190820391821161081057565b3d15610c97573d9067ffffffffffffffff8211610b8e5760405191610c8b601f8201601f191660200184610ba4565b82523d6000602084013e565b606090565b929190928215610df3576001600160a01b03908116938415610d5357811690308203610d0757505060405163a9059cbb60e01b60208201526001600160a01b03919091166024820152604480820192909252908152610d0591610d00606483610ba4565b610e51565b565b909291604051936323b872dd60e01b6020860152602485015216604483015260648201526064815260a081019181831067ffffffffffffffff841117610b8e57610d0592604052610e51565b8193945016338114600014610dc05750823403610da15716308114610d9d57600080809381935af1610d83610c5c565b5015610d8b57565b604051630c08bcb960e21b8152600490fd5b5050565b604051635693fffb60e01b815260048101849052346024820152604490fd5b308103610ddb57506000809381938293165af1610d83610c5c565b6024906040519063463de9db60e01b82526004820152fd5b50505050565b6000546001600160a01b03163303610e0d57565b606460405162461bcd60e51b815260206004820152602060248201527f4f776e61626c653a2063616c6c6572206973206e6f7420746865206f776e65726044820152fd5b60408051908101916001600160a01b031667ffffffffffffffff831182841017610b8e57610ec1926040526000806020958685527f5361666545524332303a206c6f772d6c6576656c2063616c6c206661696c656487860152868151910182855af1610ebb610c5c565b91610f49565b805190828215928315610f31575b50505015610eda5750565b6084906040519062461bcd60e51b82526004820152602a60248201527f5361666545524332303a204552433230206f7065726174696f6e20646964206e6044820152691bdd081cdd58d8d9595960b21b6064820152fd5b610f419350820181019101610c37565b388281610ecf565b91929015610fab5750815115610f5d575090565b3b15610f665790565b60405162461bcd60e51b815260206004820152601d60248201527f416464726573733a2063616c6c20746f206e6f6e2d636f6e74726163740000006044820152606490fd5b825190915015610fbe5750805190602001fd5b6040519062461bcd60e51b82528160208060048301528251908160248401526000935b828510611004575050604492506000838284010152601f80199101168101030190fd5b8481018201518686016044015293810193859350610fe156fea2646970667358221220a653203e0eec96dd53b72ea362bc930700dd46a3c89142cb53e7c984a572d3f664736f6c63430008180033",
  "devdoc": {
    "kind": "dev",
    "methods": {
      "createPool((address,address,uint256,uint256,address,bytes))": {
        "params": {
          "createPoolMsg": "The parameters for pool creation and liquidity addition Callable by anyone"
        }
      },
      "getPoolInfo(address)": {
        "params": {
          "stream": "The stream address"
        }
      },
      "owner()": {
        "details": "Returns the address of the current owner."
      },
      "renounceOwnership()": {
        "details": "Leaves the contract without owner. It will not be possible to call `onlyOwner` functions. Can only be called by the current owner. NOTE: Renouncing ownership will leave the contract without an owner, thereby disabling any functionality that is only available to the owner."
      },
      "transferOwnership(address)": {
        "details": "Transfers ownership of the contract to a new account (`newOwner`). Can only be called by the current owner."
      }
    },
    "title": "V2PoolWrapper",
    "version": 1
  },
  "userdoc": {
    "kind": "user",
    "methods": {
      "createPool((address,address,uint256,uint256,address,bytes))": {
        "notice": "Creates a pool and adds liquidity"
      },
      "getPoolInfo(address)": {
        "notice": "Gets pool info for a stream"
      }
    },
    "notice": "Generic wrapper for V2-like AMMs (UniswapV2-compatible and PancakeSwap)",
    "version": 1
  },
  "storageLayout": {
    "storage": [
      {
        "astId": 11,
        "contract": "src/V2PoolWrapper.sol:V2PoolWrapper",
        "label": "_owner",
        "offset": 0,
        "slot": "0",
        "type": "t_address"
      },
      {
        "astId": 10870,
        "contract": "src/V2PoolWrapper.sol:V2PoolWrapper",
        "label": "streamPools",
        "offset": 0,
        "slot": "1",
        "type": "t_mapping(t_address,t_struct(CreatedPoolInfo)20150_storage)"
      }
    ],
    "types": {
      "t_address": {
        "encoding": "inplace",
        "label": "address",
        "numberOfBytes": "20"
      },
      "t_mapping(t_address,t_struct(CreatedPoolInfo)20150_storage)": {
        "encoding": "mapping",
        "key": "t_address",
        "label": "mapping(address => struct PoolWrapperTypes.CreatedPoolInfo)",
        "numberOfBytes": "32",
        "value": "t_struct(CreatedPoolInfo)20150_storage"
      },
      "t_struct(CreatedPoolInfo)20150_storage": {
        "encoding": "inplace",
        "label": "struct PoolWrapperTypes.CreatedPoolInfo",
        "members": [
          {
            "astId": 20135,
            "contract": "src/V2PoolWrapper.sol:V2PoolWrapper",
            "label": "poolAddress",
            "offset": 0,
            "slot": "0",
            "type": "t_address"
          },
          {
            "astId": 20137,
            "contract": "src/V2PoolWrapper.sol:V2PoolWrapper",
            "label": "token0",
            "offset": 0,
            "slot": "1",
            "type": "t_address"
          },
          {
            "astId": 20139,
            "contract": "src/V2PoolWrapper.sol:V2PoolWrapper",
            "label": "token1",
            "offset": 0,
            "slot": "2",
            "type": "t_address"
          },
          {
            "astId": 20141,
            "contract": "src/V2PoolWrapper.sol:V2PoolWrapper",
            "label": "amount0",
            "offset": 0,
            "slot": "3",
            "type": "t_uint256"
          },
          {
            "astId": 20143,
            "contract": "src/V2PoolWrapper.sol:V2PoolWrapper",
            "label": "amount1",
            "offset": 0,
            "slot": "4",
            "type": "t_uint256"
          },
          {
            "astId": 20145,
            "contract": "src/V2PoolWrapper.sol:V2PoolWrapper",
            "label": "creator",
            "offset": 0,
            "slot": "5",
            "type": "t_address"
          },
          {
            "astId": 20147,
            "contract": "src/V2PoolWrapper.sol:V2PoolWrapper",
            "label": "refundedAmount0",
            "offset": 0,
            "slot": "6",
            "type": "t_uint256"
          },
          {
            "astId": 20149,
            "contract": "src/V2PoolWrapper.sol:V2PoolWrapper",
            "label": "refundedAmount1",
            "offset": 0,
            "slot": "7",
            "type": "t_uint256"
          }
        ],
        "numberOfBytes": "256"
      },
      "t_uint256": {
        "encoding": "inplace",
        "label": "uint256",
        "numberOfBytes": "32"
      }
    }
  }
}