{
  "address": "0xa80FEf11F0eb53Db3c2e8998dcFc2d0d3665cE26",
  "abi": [
    {
      "inputs": [
        {
          "components": [
            {
              "internalType": "uint256",
              "name": "streamCreationFee",
              "type": "uint256"
            },
            {
              "internalType": "address",
              "name": "streamCreationFeeToken",
              "type": "address"
            },
            {
              "components": [
                {
                  "internalType": "uint256",
                  "name": "value",
                  "type": "uint256"
                }
              ],
              "internalType": "struct Decimal",
              "name": "exitFeeRatio",
              "type": "tuple"
            },
            {
              "internalType": "uint256",
              "name": "minWaitingDuration",
              "type": "uint256"
            },
            {
              "internalType": "uint256",
              "name": "minBootstrappingDuration",
              "type": "uint256"
            },
            {
              "internalType": "uint256",
              "name": "minStreamDuration",
              "type": "uint256"
            },
            {
              "internalType": "address",
              "name": "feeCollector",
              "type": "address"
            },
            {
              "internalType": "address",
              "name": "protocolAdmin",
              "type": "address"
            },
            {
              "internalType": "string",
              "name": "tosVersion",
              "type": "string"
            },
            {
              "internalType": "address",
              "name": "poolWrapperAddress",
              "type": "address"
            },
            {
              "internalType": "address[]",
              "name": "acceptedInSupplyTokens",
              "type": "address[]"
            }
          ],
          "internalType": "struct StreamFactoryTypes.constructFactoryMessage",
          "name": "constructFactoryMessage",
          "type": "tuple"
        }
      ],
      "stateMutability": "nonpayable",
      "type": "constructor"
    },
    {
      "inputs": [],
      "name": "BootstrappingDurationTooShort",
      "type": "error"
    },
    {
      "inputs": [],
      "name": "ContractFrozen",
      "type": "error"
    },
    {
      "inputs": [],
      "name": "FeeTransferFailed",
      "type": "error"
    },
    {
      "inputs": [],
      "name": "InsufficientNativeToken",
      "type": "error"
    },
    {
      "inputs": [],
      "name": "InvalidBootstrappingStartTime",
      "type": "error"
    },
    {
      "inputs": [],
      "name": "InvalidBootstrappingTime",
      "type": "error"
    },
    {
      "inputs": [],
      "name": "InvalidExitFeeRatio",
      "type": "error"
    },
    {
      "inputs": [],
      "name": "InvalidFeeCollector",
      "type": "error"
    },
    {
      "inputs": [],
      "name": "InvalidPoolWrapper",
      "type": "error"
    },
    {
      "inputs": [],
      "name": "InvalidProtocolAdmin",
      "type": "error"
    },
    {
      "inputs": [],
      "name": "InvalidStreamEndTime",
      "type": "error"
    },
    {
      "inputs": [],
      "name": "InvalidStreamStartTime",
      "type": "error"
    },
    {
      "inputs": [],
      "name": "InvalidToSVersion",
      "type": "error"
    },
    {
      "inputs": [],
      "name": "NotAdmin",
      "type": "error"
    },
    {
      "inputs": [],
      "name": "StreamAddressPredictionFailed",
      "type": "error"
    },
    {
      "inputs": [],
      "name": "StreamDurationTooShort",
      "type": "error"
    },
    {
      "inputs": [],
      "name": "StreamEndMustBeAfterStart",
      "type": "error"
    },
    {
      "inputs": [],
      "name": "StreamInputTokenNotAccepted",
      "type": "error"
    },
    {
      "inputs": [],
      "name": "StreamStartMustBeAfterBootstrapping",
      "type": "error"
    },
    {
      "inputs": [],
      "name": "TokenTransferFailed",
      "type": "error"
    },
    {
      "inputs": [],
      "name": "WaitingDurationTooShort",
      "type": "error"
    },
    {
      "inputs": [],
      "name": "ZeroOutSupplyNotAllowed",
      "type": "error"
    },
    {
      "anonymous": false,
      "inputs": [
        {
          "indexed": true,
          "internalType": "address",
          "name": "factory",
          "type": "address"
        },
        {
          "indexed": false,
          "internalType": "address[]",
          "name": "tokensAdded",
          "type": "address[]"
        },
        {
          "indexed": false,
          "internalType": "address[]",
          "name": "tokensRemoved",
          "type": "address[]"
        }
      ],
      "name": "AcceptedTokensUpdated",
      "type": "event"
    },
    {
      "anonymous": false,
      "inputs": [
        {
          "indexed": true,
          "internalType": "address",
          "name": "streamAddress",
          "type": "address"
        },
        {
          "indexed": true,
          "internalType": "address",
          "name": "subscriber",
          "type": "address"
        },
        {
          "indexed": false,
          "internalType": "uint256",
          "name": "refundedAmount",
          "type": "uint256"
        },
        {
          "indexed": false,
          "internalType": "uint256",
          "name": "exitTimestamp",
          "type": "uint256"
        }
      ],
      "name": "ExitRefunded",
      "type": "event"
    },
    {
      "anonymous": false,
      "inputs": [
        {
          "indexed": true,
          "internalType": "address",
          "name": "streamAddress",
          "type": "address"
        },
        {
          "indexed": true,
          "internalType": "address",
          "name": "subscriber",
          "type": "address"
        },
        {
          "indexed": false,
          "internalType": "uint256",
          "name": "purchased",
          "type": "uint256"
        },
        {
          "indexed": false,
          "internalType": "uint256",
          "name": "spentIn",
          "type": "uint256"
        },
        {
          "indexed": false,
          "internalType": "uint256",
          "name": "exitTimestamp",
          "type": "uint256"
        }
      ],
      "name": "ExitStreamed",
      "type": "event"
    },
    {
      "anonymous": false,
      "inputs": [
        {
          "indexed": true,
          "internalType": "address",
          "name": "factory",
          "type": "address"
        },
        {
          "indexed": false,
          "internalType": "address",
          "name": "newFeeCollector",
          "type": "address"
        }
      ],
      "name": "FeeCollectorUpdated",
      "type": "event"
    },
    {
      "anonymous": false,
      "inputs": [
        {
          "indexed": true,
          "internalType": "address",
          "name": "streamAddress",
          "type": "address"
        },
        {
          "indexed": true,
          "internalType": "address",
          "name": "creator",
          "type": "address"
        },
        {
          "indexed": false,
          "internalType": "uint256",
          "name": "refundedOutAmount",
          "type": "uint256"
        },
        {
          "indexed": false,
          "internalType": "enum StreamTypes.Status",
          "name": "status",
          "type": "uint8"
        }
      ],
      "name": "FinalizedRefunded",
      "type": "event"
    },
    {
      "anonymous": false,
      "inputs": [
        {
          "indexed": true,
          "internalType": "address",
          "name": "streamAddress",
          "type": "address"
        },
        {
          "indexed": true,
          "internalType": "address",
          "name": "creator",
          "type": "address"
        },
        {
          "indexed": false,
          "internalType": "uint256",
          "name": "creatorRevenue",
          "type": "uint256"
        },
        {
          "indexed": false,
          "internalType": "uint256",
          "name": "exitFeeAmount",
          "type": "uint256"
        },
        {
          "indexed": false,
          "internalType": "uint256",
          "name": "refundedOutAmount",
          "type": "uint256"
        },
        {
          "indexed": false,
          "internalType": "enum StreamTypes.Status",
          "name": "status",
          "type": "uint8"
        }
      ],
      "name": "FinalizedStreamed",
      "type": "event"
    },
    {
      "anonymous": false,
      "inputs": [
        {
          "indexed": true,
          "internalType": "address",
          "name": "factory",
          "type": "address"
        },
        {
          "indexed": false,
          "internalType": "bool",
          "name": "frozen",
          "type": "bool"
        }
      ],
      "name": "FrozenStateUpdated",
      "type": "event"
    },
    {
      "anonymous": false,
      "inputs": [
        {
          "indexed": true,
          "internalType": "address",
          "name": "factory",
          "type": "address"
        },
        {
          "indexed": false,
          "internalType": "uint256",
          "name": "streamCreationFee",
          "type": "uint256"
        },
        {
          "indexed": false,
          "internalType": "uint256",
          "name": "exitFeeRatio",
          "type": "uint256"
        },
        {
          "indexed": false,
          "internalType": "uint256",
          "name": "minWaitingDuration",
          "type": "uint256"
        },
        {
          "indexed": false,
          "internalType": "uint256",
          "name": "minBootstrappingDuration",
          "type": "uint256"
        },
        {
          "indexed": false,
          "internalType": "uint256",
          "name": "minStreamDuration",
          "type": "uint256"
        },
        {
          "indexed": false,
          "internalType": "string",
          "name": "tosVersion",
          "type": "string"
        }
      ],
      "name": "ParamsUpdated",
      "type": "event"
    },
    {
      "anonymous": false,
      "inputs": [
        {
          "indexed": true,
          "internalType": "address",
          "name": "factoryAddress",
          "type": "address"
        },
        {
          "indexed": false,
          "internalType": "address",
          "name": "poolWrapper",
          "type": "address"
        }
      ],
      "name": "PoolWrapperUpdated",
      "type": "event"
    },
    {
      "anonymous": false,
      "inputs": [
        {
          "indexed": true,
          "internalType": "address",
          "name": "streamAddress",
          "type": "address"
        },
        {
          "indexed": true,
          "internalType": "address",
          "name": "subscriber",
          "type": "address"
        },
        {
          "indexed": false,
          "internalType": "uint256",
          "name": "inBalance",
          "type": "uint256"
        },
        {
          "indexed": false,
          "internalType": "uint256",
          "name": "shares",
          "type": "uint256"
        }
      ],
      "name": "PositionSynced",
      "type": "event"
    },
    {
      "anonymous": false,
      "inputs": [
        {
          "indexed": true,
          "internalType": "address",
          "name": "factory",
          "type": "address"
        },
        {
          "indexed": false,
          "internalType": "address",
          "name": "newProtocolAdmin",
          "type": "address"
        }
      ],
      "name": "ProtocolAdminUpdated",
      "type": "event"
    },
    {
      "anonymous": false,
      "inputs": [
        {
          "indexed": true,
          "internalType": "address",
          "name": "streamAddress",
          "type": "address"
        },
        {
          "indexed": false,
          "internalType": "address",
          "name": "creator",
          "type": "address"
        },
        {
          "indexed": false,
          "internalType": "uint256",
          "name": "outSupply",
          "type": "uint256"
        },
        {
          "indexed": false,
          "internalType": "enum StreamTypes.Status",
          "name": "status",
          "type": "uint8"
        }
      ],
      "name": "StreamCancelled",
      "type": "event"
    },
    {
      "anonymous": false,
      "inputs": [
        {
          "indexed": true,
          "internalType": "address",
          "name": "streamOutToken",
          "type": "address"
        },
        {
          "indexed": true,
          "internalType": "address",
          "name": "streamInToken",
          "type": "address"
        },
        {
          "indexed": true,
          "internalType": "address",
          "name": "streamFactoryAddress",
          "type": "address"
        },
        {
          "indexed": false,
          "internalType": "uint256",
          "name": "streamOutAmount",
          "type": "uint256"
        },
        {
          "indexed": false,
          "internalType": "uint256",
          "name": "bootstrappingStartTime",
          "type": "uint256"
        },
        {
          "indexed": false,
          "internalType": "uint256",
          "name": "streamStartTime",
          "type": "uint256"
        },
        {
          "indexed": false,
          "internalType": "uint256",
          "name": "streamEndTime",
          "type": "uint256"
        },
        {
          "indexed": false,
          "internalType": "uint256",
          "name": "threshold",
          "type": "uint256"
        },
        {
          "indexed": false,
          "internalType": "string",
          "name": "streamName",
          "type": "string"
        },
        {
          "indexed": false,
          "internalType": "string",
          "name": "tosVersion",
          "type": "string"
        },
        {
          "indexed": false,
          "internalType": "address",
          "name": "streamAddress",
          "type": "address"
        },
        {
          "indexed": false,
          "internalType": "uint16",
          "name": "streamId",
          "type": "uint16"
        }
      ],
      "name": "StreamCreated",
      "type": "event"
    },
    {
      "anonymous": false,
      "inputs": [
        {
          "indexed": true,
          "internalType": "address",
          "name": "streamAddress",
          "type": "address"
        },
        {
          "indexed": false,
          "internalType": "enum StreamTypes.Status",
          "name": "mainStatus",
          "type": "uint8"
        },
        {
          "indexed": false,
          "internalType": "uint256",
          "name": "lastUpdated",
          "type": "uint256"
        }
      ],
      "name": "StreamSynced",
      "type": "event"
    },
    {
      "anonymous": false,
      "inputs": [
        {
          "indexed": true,
          "internalType": "address",
          "name": "streamAddress",
          "type": "address"
        },
        {
          "indexed": false,
          "internalType": "uint256",
          "name": "lastUpdated",
          "type": "uint256"
        },
        {
          "indexed": false,
          "internalType": "uint8",
          "name": "newStatus",
          "type": "uint8"
        },
        {
          "components": [
            {
              "internalType": "uint256",
              "name": "value",
              "type": "uint256"
            }
          ],
          "indexed": false,
          "internalType": "struct Decimal",
          "name": "distIndex",
          "type": "tuple"
        },
        {
          "indexed": false,
          "internalType": "uint256",
          "name": "outRemaining",
          "type": "uint256"
        },
        {
          "indexed": false,
          "internalType": "uint256",
          "name": "inSupply",
          "type": "uint256"
        },
        {
          "indexed": false,
          "internalType": "uint256",
          "name": "spentIn",
          "type": "uint256"
        },
        {
          "components": [
            {
              "internalType": "uint256",
              "name": "value",
              "type": "uint256"
            }
          ],
          "indexed": false,
          "internalType": "struct Decimal",
          "name": "currentStreamedPrice",
          "type": "tuple"
        }
      ],
      "name": "StreamSynced",
      "type": "event"
    },
    {
      "anonymous": false,
      "inputs": [
        {
          "indexed": true,
          "internalType": "address",
          "name": "streamAddress",
          "type": "address"
        },
        {
          "indexed": true,
          "internalType": "address",
          "name": "subscriber",
          "type": "address"
        },
        {
          "indexed": false,
          "internalType": "uint256",
          "name": "amountIn",
          "type": "uint256"
        },
        {
          "indexed": false,
          "internalType": "uint256",
          "name": "newShares",
          "type": "uint256"
        },
        {
          "indexed": false,
          "internalType": "uint256",
          "name": "totalSharesAfter",
          "type": "uint256"
        },
        {
          "indexed": false,
          "internalType": "uint256",
          "name": "totalInSupplyAfter",
          "type": "uint256"
        }
      ],
      "name": "Subscribed",
      "type": "event"
    },
    {
      "anonymous": false,
      "inputs": [
        {
          "indexed": true,
          "internalType": "address",
          "name": "factoryAddress",
          "type": "address"
        },
        {
          "indexed": false,
          "internalType": "address",
          "name": "vestingContract",
          "type": "address"
        }
      ],
      "name": "VestingContractDeployed",
      "type": "event"
    },
    {
      "anonymous": false,
      "inputs": [
        {
          "indexed": true,
          "internalType": "address",
          "name": "streamAddress",
          "type": "address"
        },
        {
          "indexed": true,
          "internalType": "address",
          "name": "subscriber",
          "type": "address"
        },
        {
          "indexed": false,
          "internalType": "uint256",
          "name": "remainingInBalance",
          "type": "uint256"
        },
        {
          "indexed": false,
          "internalType": "uint256",
          "name": "remainingShares",
          "type": "uint256"
        },
        {
          "indexed": false,
          "internalType": "uint256",
          "name": "totalInSupply",
          "type": "uint256"
        },
        {
          "indexed": false,
          "internalType": "uint256",
          "name": "totalShares",
          "type": "uint256"
        }
      ],
      "name": "Withdrawn",
      "type": "event"
    },
    {
      "inputs": [],
      "name": "NATIVE_TOKEN",
      "outputs": [
        {
          "internalType": "address",
          "name": "",
          "type": "address"
        }
      ],
      "stateMutability": "view",
      "type": "function"
    },
    {
      "inputs": [
        {
          "internalType": "address",
          "name": "",
          "type": "address"
        }
      ],
      "name": "acceptedInSupplyTokens",
      "outputs": [
        {
          "internalType": "bool",
          "name": "",
          "type": "bool"
        }
      ],
      "stateMutability": "view",
      "type": "function"
    },
    {
      "inputs": [
        {
          "components": [
            {
              "internalType": "uint256",
              "name": "streamOutAmount",
              "type": "uint256"
            },
            {
              "internalType": "address",
              "name": "outSupplyToken",
              "type": "address"
            },
            {
              "internalType": "uint256",
              "name": "bootstrappingStartTime",
              "type": "uint256"
            },
            {
              "internalType": "uint256",
              "name": "streamStartTime",
              "type": "uint256"
            },
            {
              "internalType": "uint256",
              "name": "streamEndTime",
              "type": "uint256"
            },
            {
              "internalType": "uint256",
              "name": "threshold",
              "type": "uint256"
            },
            {
              "internalType": "string",
              "name": "name",
              "type": "string"
            },
            {
              "internalType": "address",
              "name": "inSupplyToken",
              "type": "address"
            },
            {
              "internalType": "address",
              "name": "creator",
              "type": "address"
            },
            {
              "components": [
                {
                  "internalType": "bool",
                  "name": "isVestingEnabled",
                  "type": "bool"
                },
                {
                  "internalType": "uint16",
                  "name": "vestingDuration",
                  "type": "uint16"
                },
                {
                  "internalType": "uint16",
                  "name": "cliffDuration",
                  "type": "uint16"
                }
              ],
              "internalType": "struct StreamTypes.VestingInfo",
              "name": "creatorVesting",
              "type": "tuple"
            },
            {
              "components": [
                {
                  "internalType": "bool",
                  "name": "isVestingEnabled",
                  "type": "bool"
                },
                {
                  "internalType": "uint16",
                  "name": "vestingDuration",
                  "type": "uint16"
                },
                {
                  "internalType": "uint16",
                  "name": "cliffDuration",
                  "type": "uint16"
                }
              ],
              "internalType": "struct StreamTypes.VestingInfo",
              "name": "beneficiaryVesting",
              "type": "tuple"
            },
            {
              "components": [
                {
                  "internalType": "uint256",
                  "name": "poolOutSupplyAmount",
                  "type": "uint256"
                }
              ],
              "internalType": "struct StreamTypes.PoolInfo",
              "name": "poolInfo",
              "type": "tuple"
            },
            {
              "internalType": "bytes32",
              "name": "salt",
              "type": "bytes32"
            },
            {
              "internalType": "string",
              "name": "tosVersion",
              "type": "string"
            }
          ],
          "internalType": "struct StreamTypes.createStreamMessage",
          "name": "createStreamMessage",
          "type": "tuple"
        }
      ],
      "name": "createStream",
      "outputs": [],
      "stateMutability": "payable",
      "type": "function"
    },
    {
      "inputs": [],
      "name": "currentStreamId",
      "outputs": [
        {
          "internalType": "uint16",
          "name": "",
          "type": "uint16"
        }
      ],
      "stateMutability": "view",
      "type": "function"
    },
    {
      "inputs": [],
      "name": "frozen",
      "outputs": [
        {
          "internalType": "bool",
          "name": "",
          "type": "bool"
        }
      ],
      "stateMutability": "view",
      "type": "function"
    },
    {
      "inputs": [],
      "name": "getParams",
      "outputs": [
        {
          "components": [
            {
              "internalType": "uint256",
              "name": "streamCreationFee",
              "type": "uint256"
            },
            {
              "internalType": "address",
              "name": "streamCreationFeeToken",
              "type": "address"
            },
            {
              "components": [
                {
                  "internalType": "uint256",
                  "name": "value",
                  "type": "uint256"
                }
              ],
              "internalType": "struct Decimal",
              "name": "exitFeeRatio",
              "type": "tuple"
            },
            {
              "internalType": "uint256",
              "name": "minWaitingDuration",
              "type": "uint256"
            },
            {
              "internalType": "uint256",
              "name": "minBootstrappingDuration",
              "type": "uint256"
            },
            {
              "internalType": "uint256",
              "name": "minStreamDuration",
              "type": "uint256"
            },
            {
              "internalType": "address",
              "name": "feeCollector",
              "type": "address"
            },
            {
              "internalType": "address",
              "name": "protocolAdmin",
              "type": "address"
            },
            {
              "internalType": "string",
              "name": "tosVersion",
              "type": "string"
            },
            {
              "internalType": "address",
              "name": "vestingAddress",
              "type": "address"
            },
            {
              "internalType": "address",
              "name": "poolWrapperAddress",
              "type": "address"
            }
          ],
          "internalType": "struct StreamFactoryTypes.Params",
          "name": "",
          "type": "tuple"
        }
      ],
      "stateMutability": "view",
      "type": "function"
    },
    {
      "inputs": [],
      "name": "params",
      "outputs": [
        {
          "internalType": "uint256",
          "name": "streamCreationFee",
          "type": "uint256"
        },
        {
          "internalType": "address",
          "name": "streamCreationFeeToken",
          "type": "address"
        },
        {
          "components": [
            {
              "internalType": "uint256",
              "name": "value",
              "type": "uint256"
            }
          ],
          "internalType": "struct Decimal",
          "name": "exitFeeRatio",
          "type": "tuple"
        },
        {
          "internalType": "uint256",
          "name": "minWaitingDuration",
          "type": "uint256"
        },
        {
          "internalType": "uint256",
          "name": "minBootstrappingDuration",
          "type": "uint256"
        },
        {
          "internalType": "uint256",
          "name": "minStreamDuration",
          "type": "uint256"
        },
        {
          "internalType": "address",
          "name": "feeCollector",
          "type": "address"
        },
        {
          "internalType": "address",
          "name": "protocolAdmin",
          "type": "address"
        },
        {
          "internalType": "string",
          "name": "tosVersion",
          "type": "string"
        },
        {
          "internalType": "address",
          "name": "vestingAddress",
          "type": "address"
        },
        {
          "internalType": "address",
          "name": "poolWrapperAddress",
          "type": "address"
        }
      ],
      "stateMutability": "view",
      "type": "function"
    },
    {
      "inputs": [
        {
          "internalType": "address",
          "name": "creator",
          "type": "address"
        },
        {
          "internalType": "bytes32",
          "name": "_salt",
          "type": "bytes32"
        },
        {
          "internalType": "bytes32",
          "name": "bytecodeHash",
          "type": "bytes32"
        }
      ],
      "name": "predictAddress",
      "outputs": [
        {
          "internalType": "address",
          "name": "",
          "type": "address"
        }
      ],
      "stateMutability": "pure",
      "type": "function"
    },
    {
      "inputs": [
        {
          "internalType": "uint16",
          "name": "",
          "type": "uint16"
        }
      ],
      "name": "streamAddresses",
      "outputs": [
        {
          "internalType": "address",
          "name": "",
          "type": "address"
        }
      ],
      "stateMutability": "view",
      "type": "function"
    },
    {
      "inputs": [
        {
          "internalType": "address[]",
          "name": "tokens_to_add",
          "type": "address[]"
        },
        {
          "internalType": "address[]",
          "name": "tokens_to_remove",
          "type": "address[]"
        }
      ],
      "name": "updateAcceptedTokens",
      "outputs": [],
      "stateMutability": "nonpayable",
      "type": "function"
    },
    {
      "inputs": [
        {
          "internalType": "address",
          "name": "_feeCollector",
          "type": "address"
        }
      ],
      "name": "updateFeeCollector",
      "outputs": [],
      "stateMutability": "nonpayable",
      "type": "function"
    },
    {
      "inputs": [
        {
          "internalType": "uint256",
          "name": "_streamCreationFee",
          "type": "uint256"
        },
        {
          "components": [
            {
              "internalType": "uint256",
              "name": "value",
              "type": "uint256"
            }
          ],
          "internalType": "struct Decimal",
          "name": "_exitFeeRatio",
          "type": "tuple"
        },
        {
          "internalType": "uint256",
          "name": "_minWaitingDuration",
          "type": "uint256"
        },
        {
          "internalType": "uint256",
          "name": "_minBootstrappingDuration",
          "type": "uint256"
        },
        {
          "internalType": "uint256",
          "name": "_minStreamDuration",
          "type": "uint256"
        },
        {
          "internalType": "string",
          "name": "_tosVersion",
          "type": "string"
        }
      ],
      "name": "updateParams",
      "outputs": [],
      "stateMutability": "nonpayable",
      "type": "function"
    },
    {
      "inputs": [
        {
          "internalType": "address",
          "name": "_poolWrapper",
          "type": "address"
        }
      ],
      "name": "updatePoolWrapper",
      "outputs": [],
      "stateMutability": "nonpayable",
      "type": "function"
    },
    {
      "inputs": [
        {
          "internalType": "address",
          "name": "_protocolAdmin",
          "type": "address"
        }
      ],
      "name": "updateProtocolAdmin",
      "outputs": [],
      "stateMutability": "nonpayable",
      "type": "function"
    }
  ],
  "transactionHash": "0x9b0cdffdfe61d9d4edff2d89c0f96fba5683401f283828cc9551b30882f4b135",
  "args": [
    {
      "streamCreationFee": 0,
      "streamCreationFeeToken": "0x0000000000000000000000000000000000000000",
      "exitFeeRatio": {
        "value": 100000
      },
      "minWaitingDuration": 5,
      "minBootstrappingDuration": 1,
      "minStreamDuration": 1,
      "feeCollector": "0xB4eE189569597EFDB3bB48DB5ede8394d1D48e7b",
      "protocolAdmin": "0xB4eE189569597EFDB3bB48DB5ede8394d1D48e7b",
      "tosVersion": "1.0.0",
      "acceptedInSupplyTokens": [
        "0x5FF192811166b3C4Ca441392F5854daB1fB44027"
      ],
      "poolWrapperAddress": "0x4CC44bD9eF15F34BE37668db1364eD77fa105b1F"
    }
  ],
  "numDeployments": 1,
  "solcInputHash": "154964115c87f9e9cd27bb83cbf14259",
  "bytecode": "0x608060405234620005f757620018ec80380390816200001e816200066d565b9182396020818381010312620005f7578051906001600160401b038211620005f75781810183820103926101608412620005f75760206200005e6200062c565b9484840151865262000074828686010162000693565b86830152603f190112620005f7576200008c6200064d565b8284016040818101518352860191909152606080820151908601526080808201519086015260a08082015190860152620000c99060c00162000693565b60c0850152620000de60e08484010162000693565b60e085015281830161010001516001600160401b038111620005f757818301601f8286860101011215620005f7578284018101516001600160401b038111620005fc5762000136601f8201601f19166020016200066d565b918183528385016020838389890101010111620005f75760005b828110620006125750506020600091830101526101008501526200017a6101208484010162000693565b6101208501528183016101400151926001600160401b038411620005f757818301601f8583860101011215620005f757828101840151926001600160401b038411620005fc57620001d160208560051b016200066d565b946020868681520193820160208660051b8386860101010111620005f757818301810160200193925b60208660051b838386010101018510620005d957610140880187905260c088015188906001600160a01b031615620005c75760e08101516001600160a01b031615620005b55760408101516000620002516200064d565b52620f42409081620002626200064d565b525111620005a357604051600081527f739fe22b8edefd6ce1fe32460f9cd54bf8e66fc7447f4c8a8131ce078a1988af60203092a28051602082015160408301516060840151608085015160a086015160c087015160e08801516101008901516101208a01519099959795966001600160a01b0396871696918216959282169493909116929190620002f36200062c565b99808b528760208c01528160408c01528960608c01528260808c01528360a08c01528460c08c01528560e08c01528b6101008c01526101406101208c019b60008d520196875260025560018060a01b0319968760035416176003555197600498895560055560065560075583600854161760085582600954161760095585519460018060401b0386116200058e57600a54956001968781811c9116801562000583575b60208210146200056e57601f811162000512575b506020601f82116001146200049a57819088996000926200048e575b5050600019600383901b1c191690871b17600a555b51600b805484166001600160a01b039283161790559051600c805490931691161790556000935b62000421575b825461ffff191683556040516112239081620006a98239f35b61014081015180518510156200048757600585901b016020908101516001600160a01b031660009081529081905260409020805460ff19168417905560001984146200047257828094019362000402565b601182634e487b7160e01b6000525260246000fd5b5062000408565b015190508980620003c6565b600a6000908152600080516020620018cc8339815191529990601f198416905b818110620004fb575091899a91848b959410620004e1575b505050811b01600a55620003db565b015160001960f88460031b161c19169055898080620004d2565b838301518c559a8a019a60209384019301620004ba565b600a600052600080516020620018cc833981519152601f830160051c8101916020841062000563575b601f0160051c019088905b82811062000556575050620003aa565b6000815501889062000546565b90915081906200053b565b602287634e487b7160e01b6000525260246000fd5b90607f169062000396565b604185634e487b7160e01b6000525260246000fd5b604051632aa4e67b60e01b8152600490fd5b604051632bf75bc360e21b8152600490fd5b60405163bb0bac9960e01b8152600490fd5b6020808095620005e98862000693565b8152019501949350620001fa565b600080fd5b634e487b7160e01b600052604160045260246000fd5b8060208092848a8a01010101518282870101520162000150565b6040519061016082016001600160401b03811183821017620005fc57604052565b60405190602082016001600160401b03811183821017620005fc57604052565b6040519190601f01601f191682016001600160401b03811183821017620005fc57604052565b51906001600160a01b0382168203620005f75756fe60808060405260048036101561001457600080fd5b600091823560e01c908163054f7d9c14610e3a5750806308ebca14146109ba57806314d98de5146109985780631c2a28f71461095a57806331f7d9641461093e57806342d6b34b146108a65780635e615a6b146106e4578063774ef43b146106a65780637c526bb314610573578063a0f3a6a81461032f578063c1d3be8b14610296578063cff0ab96146101e4578063d2c35ce81461015a5763fd7917f7146100bc57600080fd5b34610156576020366003190112610156576100d5610ecc565b6009546001600160a01b0391908216330361014557169081156101365750806001600160601b0360a01b600c541617600c556040519081527f0e68834ff868f2c0042bd32422f7e8ce1ebbc6341974bb698c0f89a7a29f1f6a60203092a280f35b60405163405b556360e11b8152fd5b604051637bfa4b9f60e01b81528390fd5b5080fd5b503461015657602036600319011261015657610174610ecc565b6009546001600160a01b0391908216330361014557169081156101d55750806001600160601b0360a01b60085416176008556040519081527f5d16ad41baeb009cd23eb8f6c7cde5c2e0cd5acf4a33926ab488875c37c37f3860203092a280f35b60405163bb0bac9960e01b8152fd5b509034610293578060031936011261029357506002546003546040516001600160a01b039182169361021582610e8e565b548152610282600554600654600754856008541690866009541692610238611071565b9488600b541698600c5416976040519b8c9b8c5260208c01525160408b015260608a0152608089015260a088015260c087015260e086015261016080610100870152850190610fe1565b916101208401526101408301520390f35b80fd5b5034610156576020366003190112610156576102b0610ecc565b600954906001600160a01b0390818316330361031e571691821561030f57506001600160a01b031916811760095560405190815230907f96c81c3f4599d5ad4b4ce465555174670819d69aa61f97cf8fdf4b80c1fbb32590602090a280f35b604051632bf75bc360e21b8152fd5b604051637bfa4b9f60e01b81528490fd5b5090346102935760c03660031901126102935760209180353660231901841361056f576040519361035f85610e8e565b6024358552604435606435906084359260a4359767ffffffffffffffff9889811161056b576103919036908901610efb565b6009549097906001600160a01b0316330361055c5786600255815181558360055584600655856007558751998a1161054957506103cf600a54611037565b601f81116104f9575b5081601f8a11600114610469579880899a7f0411b059ef29e41429d7aa233c3c43e82806856b23c24bfb1f9e4c6efa5689a1999a9161045e575b508160011b916000199060031b1c191617600a555b519060405195865285015260408401526060830152608082015260c060a082015280610458309460c0830190610fe1565b0390a280f35b905089015138610412565b600a89526000805160206111ce83398151915290601f198b168a5b8181106104e25750918b917f0411b059ef29e41429d7aa233c3c43e82806856b23c24bfb1f9e4c6efa5689a19a9b9c600194106104c9575b5050811b01600a55610427565b8b015160001960f88460031b161c1916905538806104bc565b91928560018192868e015181550194019201610484565b600a89526000805160206111ce833981519152601f8b0160051c810191848c1061053f575b601f0160051c01905b81811061053457506103d8565b898155600101610527565b909150819061051e565b634e487b7160e01b895260419052602488fd5b604051637bfa4b9f60e01b8152fd5b8880fd5b8280fd5b5090346102935760403660031901126102935767ffffffffffffffff91803583811161056f576105a69036908301611006565b936024359081116106a2576105be9036908401611006565b600954909591936001600160a01b03918216330361055c5750845b82811061066f5750845b86811061063a5750506104587f640a0a596c3bc7f91bc26965ed05efb8d3017a25c7b1822ba2ca3e33b2743cd593949561062a60405194859460408652604086019161117c565b908382036020850152309661117c565b808261065261064d61066a948b8a611142565b611168565b168752866020526040872060ff19815416905561111d565b6105e3565b808261068261064d61069d948789611142565b1687528660205260408720600160ff1982541617905561111d565b6105d9565b8380fd5b5034610156576020366003190112610156573561ffff811680910361015657906020918152600d8252604060018060a01b0391205416604051908152f35b50903461029357806003193601126102935761014060405161070581610e5b565b82815282602082015260405161071a81610e8e565b83815260408201528260608201528260808201528260a08201528260c08201528260e082015260606101008201528261012082015201526040519061075e82610e5b565b60025482526003546001600160a01b031660208301526040519061078182610e8e565b54815260408201526005546060820152600654608082015260075460a08201526008546001600160a01b0390811660c08301526009541660e08201526107c5611071565b61010082015260018060a01b03600b541661012082015260018060a01b03600c54166101408201526040518091602082528051602083015260018060a01b036020820151166040830152604081015151606083015260608101516080830152608081015160a083015260a081015160c083015260018060a01b0360c08201511660e083015260018060a01b0360e08201511661010083015261010081015161087c6101609182610120860152610180850190610fe1565b6101208301516001600160a01b039081166101408681019190915290930151909216908301520390f35b509034610293576060366003190112610293576108c1610ecc565b60405190602082019060ff60f81b82526001600160601b03199060601b1660218301526024356035830152604435605583015260558252608082019282841067ffffffffffffffff85111761092b57506040839052905190206001600160a01b0316815260209150f35b634e487b7160e01b815260418552602490fd5b8234610293578060031936011261029357602090604051908152f35b82346102935760203660031901126102935760209060ff906040906001600160a01b03610985610ecc565b1681528084522054166040519015158152f35b8234610293578060031936011261029357602061ffff60015416604051908152f35b50600319602036820181136106a257823567ffffffffffffffff808211610e365761024082360394850112610e3657604051916101c0830183811083821117610e2357604052808601358352610a1260248201610ee7565b84840152604083016044820135815260608401926064830135845260808501926084810135845260a481013560a087015260c4810135828111610e1f57610a5e908a3691840101610efb565b60c087015286610a7060e48301610ee7565b9860e08801998a52610a856101048401610ee7565b610100890152610a99366101248501610f61565b610120890152610aad366101848501610f61565b6101408901526101e3190112610e1b57604051610ac981610e8e565b6101e48201358152610160870152610204810135610180870152610224810135918211610e1b5788610afe9236920101610efb565b936101a0810194855260ff600e5416610e0a575115610df95760018060a01b0380965116885287855260ff60408920541615610de8575191519051824211610dd757818311610dc657808211610db55781610b58916111c0565b60075411610da45781610b6a916111c0565b60065411610d9357610b7d9042906111c0565b60055411610d825751604051610baf838281610ba28183019687815193849201610fbe565b8101038084520182610eaa565b519020604051828101908681600a5491610bc883611037565b92600190888282169182600014610d65575050600114610d1c575b50610bf7925003601f198101835282610eaa565b51902003610d0b57600254918215918215610c10578580f35b600354821680610c70575050823410610c5f578480938193829360085416908390610c56575bf115610c4757505b38808080808580f35b604051634033e4e360e01b8152fd5b506108fc610c36565b6040516332201f6960e11b81528490fd5b92509260648492600854168760405195869485936323b872dd60e01b8552338b860152602485015260448401525af1918215610d00578492610cc9575b505015610cba5750610c3e565b60405163022e258160e11b8152fd5b90809250813d8311610cf9575b610ce08183610eaa565b8101031261056f5751801515810361056f573880610cad565b503d610cd6565b6040513d86823e3d90fd5b604051635d0b6cc760e01b81528390fd5b600a8b528791508a906000805160206111ce8339815191525b858310610d4c57505050610bf79282010138610be3565b8193929450805483868901015201920187918593610d35565b60ff19168852610bf795801515028501019250389150610be39050565b604051635bdfbd0360e11b81528490fd5b6040516372904fb160e01b81528590fd5b6040516318861b4960e01b81528690fd5b6040516349f8456b60e11b81528790fd5b604051633060050d60e21b81528790fd5b6040516341f01d5760e01b81528790fd5b60405163cc3ca47b60e01b81528790fd5b604051634d5bb2d560e11b81528790fd5b604051634051e96160e01b81528890fd5b8980fd5b8a80fd5b634e487b7160e01b885260418752602488fd5b8580fd5b83903461015657816003193601126101565760209060ff600e541615158152f35b610160810190811067ffffffffffffffff821117610e7857604052565b634e487b7160e01b600052604160045260246000fd5b6020810190811067ffffffffffffffff821117610e7857604052565b90601f8019910116810190811067ffffffffffffffff821117610e7857604052565b600435906001600160a01b0382168203610ee257565b600080fd5b35906001600160a01b0382168203610ee257565b81601f82011215610ee25780359067ffffffffffffffff8211610e785760405192610f30601f8401601f191660200185610eaa565b82845260208383010111610ee257816000926020809301838601378301015290565b359061ffff82168203610ee257565b9190826060910312610ee2576040516060810181811067ffffffffffffffff821117610e785760405280928035908115158203610ee2576040610fb99181938552610fae60208201610f52565b602086015201610f52565b910152565b60005b838110610fd15750506000910152565b8181015183820152602001610fc1565b90602091610ffa81518092818552858086019101610fbe565b601f01601f1916010190565b9181601f84011215610ee25782359167ffffffffffffffff8311610ee2576020808501948460051b010111610ee257565b90600182811c92168015611067575b602083101461105157565b634e487b7160e01b600052602260045260246000fd5b91607f1691611046565b60405190600082600a549161108583611037565b808352926001908181169081156110fb57506001146110ae575b506110ac92500383610eaa565b565b600a600090815291506000805160206111ce8339815191525b8483106110e057506110ac93505081016020013861109f565b81935090816020925483858a010152019101909185926110c7565b9050602092506110ac94915060ff191682840152151560051b8201013861109f565b600019811461112c5760010190565b634e487b7160e01b600052601160045260246000fd5b91908110156111525760051b0190565b634e487b7160e01b600052603260045260246000fd5b356001600160a01b0381168103610ee25790565b91908082526020809201929160005b828110611199575050505090565b909192938280600192838060a01b036111b189610ee7565b1681520195019392910161118b565b9190820391821161112c5756fec65a7bb8d6351c1cf70c95a316cc6a92839c986682d98bc35f958f4883f9d2a8a26469706673582212201e732debbc9584ee95c1329c93ed291ec520c7ae45411b0f8328663843ee98da64736f6c63430008140033c65a7bb8d6351c1cf70c95a316cc6a92839c986682d98bc35f958f4883f9d2a8",
  "devdoc": {
    "kind": "dev",
    "methods": {},
    "version": 1
  },
  "userdoc": {
    "kind": "user",
    "methods": {},
    "version": 1
  },
  "storageLayout": {
    "storage": [
      {
        "astId": 2403,
        "contract": "contracts/StreamFactory.sol:StreamFactory",
        "label": "acceptedInSupplyTokens",
        "offset": 0,
        "slot": "0",
        "type": "t_mapping(t_address,t_bool)"
      },
      {
        "astId": 2411,
        "contract": "contracts/StreamFactory.sol:StreamFactory",
        "label": "currentStreamId",
        "offset": 0,
        "slot": "1",
        "type": "t_uint16"
      },
      {
        "astId": 2414,
        "contract": "contracts/StreamFactory.sol:StreamFactory",
        "label": "params",
        "offset": 0,
        "slot": "2",
        "type": "t_struct(Params)4972_storage"
      },
      {
        "astId": 2418,
        "contract": "contracts/StreamFactory.sol:StreamFactory",
        "label": "streamAddresses",
        "offset": 0,
        "slot": "13",
        "type": "t_mapping(t_uint16,t_address)"
      },
      {
        "astId": 2420,
        "contract": "contracts/StreamFactory.sol:StreamFactory",
        "label": "frozen",
        "offset": 0,
        "slot": "14",
        "type": "t_bool"
      }
    ],
    "types": {
      "t_address": {
        "encoding": "inplace",
        "label": "address",
        "numberOfBytes": "20"
      },
      "t_bool": {
        "encoding": "inplace",
        "label": "bool",
        "numberOfBytes": "1"
      },
      "t_mapping(t_address,t_bool)": {
        "encoding": "mapping",
        "key": "t_address",
        "label": "mapping(address => bool)",
        "numberOfBytes": "32",
        "value": "t_bool"
      },
      "t_mapping(t_uint16,t_address)": {
        "encoding": "mapping",
        "key": "t_uint16",
        "label": "mapping(uint16 => address)",
        "numberOfBytes": "32",
        "value": "t_address"
      },
      "t_string_storage": {
        "encoding": "bytes",
        "label": "string",
        "numberOfBytes": "32"
      },
      "t_struct(Decimal)3901_storage": {
        "encoding": "inplace",
        "label": "struct Decimal",
        "members": [
          {
            "astId": 3900,
            "contract": "contracts/StreamFactory.sol:StreamFactory",
            "label": "value",
            "offset": 0,
            "slot": "0",
            "type": "t_uint256"
          }
        ],
        "numberOfBytes": "32"
      },
      "t_struct(Params)4972_storage": {
        "encoding": "inplace",
        "label": "struct StreamFactoryTypes.Params",
        "members": [
          {
            "astId": 4950,
            "contract": "contracts/StreamFactory.sol:StreamFactory",
            "label": "streamCreationFee",
            "offset": 0,
            "slot": "0",
            "type": "t_uint256"
          },
          {
            "astId": 4952,
            "contract": "contracts/StreamFactory.sol:StreamFactory",
            "label": "streamCreationFeeToken",
            "offset": 0,
            "slot": "1",
            "type": "t_address"
          },
          {
            "astId": 4955,
            "contract": "contracts/StreamFactory.sol:StreamFactory",
            "label": "exitFeeRatio",
            "offset": 0,
            "slot": "2",
            "type": "t_struct(Decimal)3901_storage"
          },
          {
            "astId": 4957,
            "contract": "contracts/StreamFactory.sol:StreamFactory",
            "label": "minWaitingDuration",
            "offset": 0,
            "slot": "3",
            "type": "t_uint256"
          },
          {
            "astId": 4959,
            "contract": "contracts/StreamFactory.sol:StreamFactory",
            "label": "minBootstrappingDuration",
            "offset": 0,
            "slot": "4",
            "type": "t_uint256"
          },
          {
            "astId": 4961,
            "contract": "contracts/StreamFactory.sol:StreamFactory",
            "label": "minStreamDuration",
            "offset": 0,
            "slot": "5",
            "type": "t_uint256"
          },
          {
            "astId": 4963,
            "contract": "contracts/StreamFactory.sol:StreamFactory",
            "label": "feeCollector",
            "offset": 0,
            "slot": "6",
            "type": "t_address"
          },
          {
            "astId": 4965,
            "contract": "contracts/StreamFactory.sol:StreamFactory",
            "label": "protocolAdmin",
            "offset": 0,
            "slot": "7",
            "type": "t_address"
          },
          {
            "astId": 4967,
            "contract": "contracts/StreamFactory.sol:StreamFactory",
            "label": "tosVersion",
            "offset": 0,
            "slot": "8",
            "type": "t_string_storage"
          },
          {
            "astId": 4969,
            "contract": "contracts/StreamFactory.sol:StreamFactory",
            "label": "vestingAddress",
            "offset": 0,
            "slot": "9",
            "type": "t_address"
          },
          {
            "astId": 4971,
            "contract": "contracts/StreamFactory.sol:StreamFactory",
            "label": "poolWrapperAddress",
            "offset": 0,
            "slot": "10",
            "type": "t_address"
          }
        ],
        "numberOfBytes": "352"
      },
      "t_uint16": {
        "encoding": "inplace",
        "label": "uint16",
        "numberOfBytes": "2"
      },
      "t_uint256": {
        "encoding": "inplace",
        "label": "uint256",
        "numberOfBytes": "32"
      }
    }
  }
}