{
  "address": "0x6111D0a8E71cc27a2Af70A41965409ceDf11d960",
  "abi": [
    {
      "inputs": [
        {
          "internalType": "address",
          "name": "protocolAdmin",
          "type": "address"
        }
      ],
      "stateMutability": "nonpayable",
      "type": "constructor"
    },
    {
      "inputs": [],
      "name": "AlreadyInitialized",
      "type": "error"
    },
    {
      "inputs": [],
      "name": "BootstrappingDurationTooShort",
      "type": "error"
    },
    {
      "inputs": [],
      "name": "ContractFrozen",
      "type": "error"
    },
    {
      "inputs": [
        {
          "internalType": "uint8",
          "name": "kind",
          "type": "uint8"
        }
      ],
      "name": "ImplementationNotSet",
      "type": "error"
    },
    {
      "inputs": [
        {
          "internalType": "uint256",
          "name": "expected",
          "type": "uint256"
        },
        {
          "internalType": "uint256",
          "name": "actual",
          "type": "uint256"
        }
      ],
      "name": "IncorrectNativeAmount",
      "type": "error"
    },
    {
      "inputs": [],
      "name": "InvalidAcceptedInSupplyTokens",
      "type": "error"
    },
    {
      "inputs": [],
      "name": "InvalidBootstrappingStartTime",
      "type": "error"
    },
    {
      "inputs": [],
      "name": "InvalidBootstrappingTime",
      "type": "error"
    },
    {
      "inputs": [],
      "name": "InvalidCreator",
      "type": "error"
    },
    {
      "inputs": [],
      "name": "InvalidDexType",
      "type": "error"
    },
    {
      "inputs": [],
      "name": "InvalidExitFeeRatio",
      "type": "error"
    },
    {
      "inputs": [],
      "name": "InvalidFeeCollector",
      "type": "error"
    },
    {
      "inputs": [],
      "name": "InvalidImplementationAddress",
      "type": "error"
    },
    {
      "inputs": [
        {
          "internalType": "address",
          "name": "from",
          "type": "address"
        }
      ],
      "name": "InvalidNativePayer",
      "type": "error"
    },
    {
      "inputs": [],
      "name": "InvalidOutSupplyToken",
      "type": "error"
    },
    {
      "inputs": [],
      "name": "InvalidProtocolAdmin",
      "type": "error"
    },
    {
      "inputs": [],
      "name": "InvalidStreamCreationFeeToken",
      "type": "error"
    },
    {
      "inputs": [],
      "name": "InvalidStreamEndTime",
      "type": "error"
    },
    {
      "inputs": [],
      "name": "InvalidStreamImplementationAddress",
      "type": "error"
    },
    {
      "inputs": [],
      "name": "InvalidStreamStartTime",
      "type": "error"
    },
    {
      "inputs": [],
      "name": "InvalidSubscriptionFeeRatio",
      "type": "error"
    },
    {
      "inputs": [],
      "name": "InvalidToSVersion",
      "type": "error"
    },
    {
      "inputs": [],
      "name": "InvalidTokenDecimals",
      "type": "error"
    },
    {
      "inputs": [],
      "name": "InvalidTokenName",
      "type": "error"
    },
    {
      "inputs": [],
      "name": "InvalidTokenSupply",
      "type": "error"
    },
    {
      "inputs": [],
      "name": "InvalidTokenSymbol",
      "type": "error"
    },
    {
      "inputs": [],
      "name": "InvalidTokenTotalSupply",
      "type": "error"
    },
    {
      "inputs": [],
      "name": "InvalidVestingDuration",
      "type": "error"
    },
    {
      "inputs": [],
      "name": "NativeTokenTransferFailed",
      "type": "error"
    },
    {
      "inputs": [],
      "name": "NotAdmin",
      "type": "error"
    },
    {
      "inputs": [],
      "name": "PoolRouterNotSet",
      "type": "error"
    },
    {
      "inputs": [],
      "name": "SameInputAndOutputToken",
      "type": "error"
    },
    {
      "inputs": [],
      "name": "StreamAddressPredictionFailed",
      "type": "error"
    },
    {
      "inputs": [],
      "name": "StreamDurationTooShort",
      "type": "error"
    },
    {
      "inputs": [],
      "name": "StreamEndMustBeAfterStart",
      "type": "error"
    },
    {
      "inputs": [],
      "name": "StreamInputTokenNotAccepted",
      "type": "error"
    },
    {
      "inputs": [],
      "name": "StreamStartMustBeAfterBootstrapping",
      "type": "error"
    },
    {
      "inputs": [],
      "name": "TokenTransferFailed",
      "type": "error"
    },
    {
      "inputs": [],
      "name": "VestingFactoryNotSet",
      "type": "error"
    },
    {
      "inputs": [],
      "name": "WaitingDurationTooShort",
      "type": "error"
    },
    {
      "inputs": [],
      "name": "ZeroOutSupplyNotAllowed",
      "type": "error"
    },
    {
      "anonymous": false,
      "inputs": [
        {
          "indexed": true,
          "internalType": "address",
          "name": "factory",
          "type": "address"
        },
        {
          "indexed": false,
          "internalType": "address[]",
          "name": "tokensAdded",
          "type": "address[]"
        },
        {
          "indexed": false,
          "internalType": "address[]",
          "name": "tokensRemoved",
          "type": "address[]"
        }
      ],
      "name": "AcceptedTokensUpdated",
      "type": "event"
    },
    {
      "anonymous": false,
      "inputs": [
        {
          "indexed": true,
          "internalType": "address",
          "name": "factory",
          "type": "address"
        },
        {
          "indexed": false,
          "internalType": "uint256",
          "name": "oldRatio",
          "type": "uint256"
        },
        {
          "indexed": false,
          "internalType": "uint256",
          "name": "newRatio",
          "type": "uint256"
        }
      ],
      "name": "ExitFeeRatioUpdated",
      "type": "event"
    },
    {
      "anonymous": false,
      "inputs": [
        {
          "indexed": true,
          "internalType": "address",
          "name": "factory",
          "type": "address"
        },
        {
          "indexed": false,
          "internalType": "address",
          "name": "basicImplementationAddress",
          "type": "address"
        },
        {
          "indexed": false,
          "internalType": "address",
          "name": "postActionsImplementationAddress",
          "type": "address"
        },
        {
          "indexed": false,
          "internalType": "address",
          "name": "poolRouterAddress",
          "type": "address"
        },
        {
          "indexed": false,
          "internalType": "address",
          "name": "feeCollector",
          "type": "address"
        },
        {
          "indexed": false,
          "internalType": "address",
          "name": "protocolAdmin",
          "type": "address"
        },
        {
          "indexed": false,
          "internalType": "address",
          "name": "streamCreationFeeToken",
          "type": "address"
        },
        {
          "indexed": false,
          "internalType": "address[]",
          "name": "acceptedInSupplyTokens",
          "type": "address[]"
        },
        {
          "indexed": false,
          "internalType": "uint256",
          "name": "streamCreationFee",
          "type": "uint256"
        },
        {
          "indexed": false,
          "internalType": "uint256",
          "name": "exitFeeRatio",
          "type": "uint256"
        },
        {
          "indexed": false,
          "internalType": "uint256",
          "name": "subscriptionFeeRatio",
          "type": "uint256"
        },
        {
          "indexed": false,
          "internalType": "uint256",
          "name": "minWaitingDuration",
          "type": "uint256"
        },
        {
          "indexed": false,
          "internalType": "uint256",
          "name": "minBootstrappingDuration",
          "type": "uint256"
        },
        {
          "indexed": false,
          "internalType": "uint256",
          "name": "minStreamDuration",
          "type": "uint256"
        },
        {
          "indexed": false,
          "internalType": "string",
          "name": "tosVersion",
          "type": "string"
        },
        {
          "indexed": false,
          "internalType": "address",
          "name": "vestingAddress",
          "type": "address"
        }
      ],
      "name": "FactoryInitialized",
      "type": "event"
    },
    {
      "anonymous": false,
      "inputs": [
        {
          "indexed": true,
          "internalType": "address",
          "name": "factory",
          "type": "address"
        },
        {
          "indexed": false,
          "internalType": "address",
          "name": "oldFeeCollector",
          "type": "address"
        },
        {
          "indexed": false,
          "internalType": "address",
          "name": "newFeeCollector",
          "type": "address"
        }
      ],
      "name": "FeeCollectorUpdated",
      "type": "event"
    },
    {
      "anonymous": false,
      "inputs": [
        {
          "indexed": true,
          "internalType": "address",
          "name": "factory",
          "type": "address"
        },
        {
          "indexed": false,
          "internalType": "bool",
          "name": "frozen",
          "type": "bool"
        }
      ],
      "name": "FrozenStateUpdated",
      "type": "event"
    },
    {
      "anonymous": false,
      "inputs": [
        {
          "indexed": true,
          "internalType": "address",
          "name": "factory",
          "type": "address"
        },
        {
          "indexed": false,
          "internalType": "address",
          "name": "oldBasic",
          "type": "address"
        },
        {
          "indexed": false,
          "internalType": "address",
          "name": "newBasic",
          "type": "address"
        },
        {
          "indexed": false,
          "internalType": "address",
          "name": "oldPostActions",
          "type": "address"
        },
        {
          "indexed": false,
          "internalType": "address",
          "name": "newPostActions",
          "type": "address"
        }
      ],
      "name": "ImplementationParametersUpdated",
      "type": "event"
    },
    {
      "anonymous": false,
      "inputs": [
        {
          "indexed": true,
          "internalType": "address",
          "name": "factory",
          "type": "address"
        },
        {
          "indexed": false,
          "internalType": "address",
          "name": "oldPoolRouter",
          "type": "address"
        },
        {
          "indexed": false,
          "internalType": "address",
          "name": "newPoolRouter",
          "type": "address"
        }
      ],
      "name": "PoolRouterUpdated",
      "type": "event"
    },
    {
      "anonymous": false,
      "inputs": [
        {
          "indexed": true,
          "internalType": "address",
          "name": "factory",
          "type": "address"
        },
        {
          "indexed": false,
          "internalType": "address",
          "name": "oldProtocolAdmin",
          "type": "address"
        },
        {
          "indexed": false,
          "internalType": "address",
          "name": "newProtocolAdmin",
          "type": "address"
        }
      ],
      "name": "ProtocolAdminUpdated",
      "type": "event"
    },
    {
      "anonymous": false,
      "inputs": [
        {
          "indexed": true,
          "internalType": "address",
          "name": "streamFactoryAddress",
          "type": "address"
        },
        {
          "indexed": false,
          "internalType": "address",
          "name": "streamOutToken",
          "type": "address"
        },
        {
          "indexed": false,
          "internalType": "address",
          "name": "streamInToken",
          "type": "address"
        },
        {
          "indexed": false,
          "internalType": "uint8",
          "name": "inTokenDecimals",
          "type": "uint8"
        },
        {
          "indexed": false,
          "internalType": "uint8",
          "name": "outTokenDecimals",
          "type": "uint8"
        },
        {
          "indexed": false,
          "internalType": "address",
          "name": "streamAddress",
          "type": "address"
        },
        {
          "indexed": false,
          "internalType": "address",
          "name": "creator",
          "type": "address"
        },
        {
          "indexed": false,
          "internalType": "address",
          "name": "positionStorageAddress",
          "type": "address"
        },
        {
          "indexed": false,
          "internalType": "uint256",
          "name": "streamOutAmount",
          "type": "uint256"
        },
        {
          "indexed": false,
          "internalType": "uint256",
          "name": "poolOutSupplyAmount",
          "type": "uint256"
        },
        {
          "indexed": false,
          "internalType": "string",
          "name": "dexType",
          "type": "string"
        },
        {
          "indexed": false,
          "internalType": "bool",
          "name": "isCreatorVestingEnabled",
          "type": "bool"
        },
        {
          "indexed": false,
          "internalType": "bool",
          "name": "isBeneficiaryVestingEnabled",
          "type": "bool"
        },
        {
          "indexed": false,
          "internalType": "uint64",
          "name": "creatorVestingDuration",
          "type": "uint64"
        },
        {
          "indexed": false,
          "internalType": "uint64",
          "name": "beneficiaryVestingDuration",
          "type": "uint64"
        },
        {
          "indexed": false,
          "internalType": "uint256",
          "name": "bootstrappingStartTime",
          "type": "uint256"
        },
        {
          "indexed": false,
          "internalType": "uint256",
          "name": "streamStartTime",
          "type": "uint256"
        },
        {
          "indexed": false,
          "internalType": "uint256",
          "name": "streamEndTime",
          "type": "uint256"
        },
        {
          "indexed": false,
          "internalType": "uint256",
          "name": "threshold",
          "type": "uint256"
        },
        {
          "indexed": false,
          "internalType": "string",
          "name": "metadataIpfsHash",
          "type": "string"
        },
        {
          "indexed": false,
          "internalType": "string",
          "name": "tosVersion",
          "type": "string"
        },
        {
          "indexed": false,
          "internalType": "bytes32",
          "name": "whitelistRoot",
          "type": "bytes32"
        },
        {
          "indexed": false,
          "internalType": "uint16",
          "name": "streamId",
          "type": "uint16"
        }
      ],
      "name": "StreamCreated",
      "type": "event"
    },
    {
      "anonymous": false,
      "inputs": [
        {
          "indexed": true,
          "internalType": "address",
          "name": "factory",
          "type": "address"
        },
        {
          "indexed": false,
          "internalType": "uint256",
          "name": "oldFee",
          "type": "uint256"
        },
        {
          "indexed": false,
          "internalType": "uint256",
          "name": "newFee",
          "type": "uint256"
        },
        {
          "indexed": false,
          "internalType": "address",
          "name": "oldFeeToken",
          "type": "address"
        },
        {
          "indexed": false,
          "internalType": "address",
          "name": "newFeeToken",
          "type": "address"
        }
      ],
      "name": "StreamFeeParametersUpdated",
      "type": "event"
    },
    {
      "anonymous": false,
      "inputs": [
        {
          "indexed": true,
          "internalType": "address",
          "name": "factory",
          "type": "address"
        },
        {
          "indexed": false,
          "internalType": "uint256",
          "name": "oldRatio",
          "type": "uint256"
        },
        {
          "indexed": false,
          "internalType": "uint256",
          "name": "newRatio",
          "type": "uint256"
        }
      ],
      "name": "SubscriptionFeeRatioUpdated",
      "type": "event"
    },
    {
      "anonymous": false,
      "inputs": [
        {
          "indexed": true,
          "internalType": "address",
          "name": "factory",
          "type": "address"
        },
        {
          "indexed": false,
          "internalType": "uint256",
          "name": "oldMinWaitingDuration",
          "type": "uint256"
        },
        {
          "indexed": false,
          "internalType": "uint256",
          "name": "newMinWaitingDuration",
          "type": "uint256"
        },
        {
          "indexed": false,
          "internalType": "uint256",
          "name": "oldMinBootstrappingDuration",
          "type": "uint256"
        },
        {
          "indexed": false,
          "internalType": "uint256",
          "name": "newMinBootstrappingDuration",
          "type": "uint256"
        },
        {
          "indexed": false,
          "internalType": "uint256",
          "name": "oldMinStreamDuration",
          "type": "uint256"
        },
        {
          "indexed": false,
          "internalType": "uint256",
          "name": "newMinStreamDuration",
          "type": "uint256"
        }
      ],
      "name": "TimingParametersUpdated",
      "type": "event"
    },
    {
      "anonymous": false,
      "inputs": [
        {
          "indexed": true,
          "internalType": "address",
          "name": "token",
          "type": "address"
        },
        {
          "indexed": false,
          "internalType": "string",
          "name": "name",
          "type": "string"
        },
        {
          "indexed": false,
          "internalType": "string",
          "name": "symbol",
          "type": "string"
        },
        {
          "indexed": false,
          "internalType": "uint8",
          "name": "decimals",
          "type": "uint8"
        },
        {
          "indexed": false,
          "internalType": "uint256",
          "name": "totalSupply",
          "type": "uint256"
        }
      ],
      "name": "TokenCreated",
      "type": "event"
    },
    {
      "anonymous": false,
      "inputs": [
        {
          "indexed": true,
          "internalType": "address",
          "name": "factory",
          "type": "address"
        },
        {
          "indexed": false,
          "internalType": "string",
          "name": "oldVersion",
          "type": "string"
        },
        {
          "indexed": false,
          "internalType": "string",
          "name": "newVersion",
          "type": "string"
        }
      ],
      "name": "TosVersionUpdated",
      "type": "event"
    },
    {
      "anonymous": false,
      "inputs": [
        {
          "indexed": true,
          "internalType": "address",
          "name": "factory",
          "type": "address"
        },
        {
          "indexed": false,
          "internalType": "address",
          "name": "oldVestingFactory",
          "type": "address"
        },
        {
          "indexed": false,
          "internalType": "address",
          "name": "newVestingFactory",
          "type": "address"
        }
      ],
      "name": "VestingFactoryUpdated",
      "type": "event"
    },
    {
      "inputs": [
        {
          "internalType": "uint256",
          "name": "",
          "type": "uint256"
        }
      ],
      "name": "acceptedInSupplyTokens",
      "outputs": [
        {
          "internalType": "address",
          "name": "",
          "type": "address"
        }
      ],
      "stateMutability": "view",
      "type": "function"
    },
    {
      "inputs": [
        {
          "components": [
            {
              "internalType": "address",
              "name": "creator",
              "type": "address"
            },
            {
              "internalType": "address",
              "name": "inSupplyToken",
              "type": "address"
            },
            {
              "internalType": "address",
              "name": "outSupplyToken",
              "type": "address"
            },
            {
              "internalType": "uint256",
              "name": "streamOutAmount",
              "type": "uint256"
            },
            {
              "internalType": "uint256",
              "name": "threshold",
              "type": "uint256"
            },
            {
              "internalType": "uint256",
              "name": "bootstrappingStartTime",
              "type": "uint256"
            },
            {
              "internalType": "uint256",
              "name": "streamStartTime",
              "type": "uint256"
            },
            {
              "internalType": "uint256",
              "name": "streamEndTime",
              "type": "uint256"
            },
            {
              "components": [
                {
                  "internalType": "string",
                  "name": "ipfsHash",
                  "type": "string"
                }
              ],
              "internalType": "struct StreamTypes.StreamMetadata",
              "name": "metadata",
              "type": "tuple"
            },
            {
              "components": [
                {
                  "internalType": "bool",
                  "name": "isVestingEnabled",
                  "type": "bool"
                },
                {
                  "internalType": "uint64",
                  "name": "vestingDuration",
                  "type": "uint64"
                }
              ],
              "internalType": "struct StreamTypes.VestingInfo",
              "name": "creatorVesting",
              "type": "tuple"
            },
            {
              "components": [
                {
                  "internalType": "bool",
                  "name": "isVestingEnabled",
                  "type": "bool"
                },
                {
                  "internalType": "uint64",
                  "name": "vestingDuration",
                  "type": "uint64"
                }
              ],
              "internalType": "struct StreamTypes.VestingInfo",
              "name": "beneficiaryVesting",
              "type": "tuple"
            },
            {
              "components": [
                {
                  "internalType": "uint256",
                  "name": "poolOutSupplyAmount",
                  "type": "uint256"
                },
                {
                  "internalType": "enum StreamTypes.DexType",
                  "name": "dexType",
                  "type": "uint8"
                },
                {
                  "internalType": "bytes",
                  "name": "extra",
                  "type": "bytes"
                }
              ],
              "internalType": "struct StreamTypes.PoolInfo",
              "name": "poolInfo",
              "type": "tuple"
            },
            {
              "internalType": "string",
              "name": "tosVersion",
              "type": "string"
            },
            {
              "internalType": "bytes32",
              "name": "whitelistRoot",
              "type": "bytes32"
            }
          ],
          "internalType": "struct StreamTypes.CreateStreamMessage",
          "name": "createStreamMessage",
          "type": "tuple"
        }
      ],
      "name": "createStream",
      "outputs": [],
      "stateMutability": "payable",
      "type": "function"
    },
    {
      "inputs": [
        {
          "components": [
            {
              "internalType": "address",
              "name": "creator",
              "type": "address"
            },
            {
              "internalType": "address",
              "name": "inSupplyToken",
              "type": "address"
            },
            {
              "internalType": "address",
              "name": "outSupplyToken",
              "type": "address"
            },
            {
              "internalType": "uint256",
              "name": "streamOutAmount",
              "type": "uint256"
            },
            {
              "internalType": "uint256",
              "name": "threshold",
              "type": "uint256"
            },
            {
              "internalType": "uint256",
              "name": "bootstrappingStartTime",
              "type": "uint256"
            },
            {
              "internalType": "uint256",
              "name": "streamStartTime",
              "type": "uint256"
            },
            {
              "internalType": "uint256",
              "name": "streamEndTime",
              "type": "uint256"
            },
            {
              "components": [
                {
                  "internalType": "string",
                  "name": "ipfsHash",
                  "type": "string"
                }
              ],
              "internalType": "struct StreamTypes.StreamMetadata",
              "name": "metadata",
              "type": "tuple"
            },
            {
              "components": [
                {
                  "internalType": "bool",
                  "name": "isVestingEnabled",
                  "type": "bool"
                },
                {
                  "internalType": "uint64",
                  "name": "vestingDuration",
                  "type": "uint64"
                }
              ],
              "internalType": "struct StreamTypes.VestingInfo",
              "name": "creatorVesting",
              "type": "tuple"
            },
            {
              "components": [
                {
                  "internalType": "bool",
                  "name": "isVestingEnabled",
                  "type": "bool"
                },
                {
                  "internalType": "uint64",
                  "name": "vestingDuration",
                  "type": "uint64"
                }
              ],
              "internalType": "struct StreamTypes.VestingInfo",
              "name": "beneficiaryVesting",
              "type": "tuple"
            },
            {
              "components": [
                {
                  "internalType": "uint256",
                  "name": "poolOutSupplyAmount",
                  "type": "uint256"
                },
                {
                  "internalType": "enum StreamTypes.DexType",
                  "name": "dexType",
                  "type": "uint8"
                },
                {
                  "internalType": "bytes",
                  "name": "extra",
                  "type": "bytes"
                }
              ],
              "internalType": "struct StreamTypes.PoolInfo",
              "name": "poolInfo",
              "type": "tuple"
            },
            {
              "internalType": "string",
              "name": "tosVersion",
              "type": "string"
            },
            {
              "internalType": "bytes32",
              "name": "whitelistRoot",
              "type": "bytes32"
            }
          ],
          "internalType": "struct StreamTypes.CreateStreamMessage",
          "name": "createStreamMessage",
          "type": "tuple"
        },
        {
          "components": [
            {
              "internalType": "string",
              "name": "name",
              "type": "string"
            },
            {
              "internalType": "string",
              "name": "symbol",
              "type": "string"
            },
            {
              "internalType": "uint8",
              "name": "decimals",
              "type": "uint8"
            },
            {
              "internalType": "uint256",
              "name": "totalSupply",
              "type": "uint256"
            }
          ],
          "internalType": "struct StreamTypes.TokenCreationInfo",
          "name": "tokenCreationInfo",
          "type": "tuple"
        }
      ],
      "name": "createStreamWithTokenCreation",
      "outputs": [],
      "stateMutability": "payable",
      "type": "function"
    },
    {
      "inputs": [],
      "name": "currentStreamId",
      "outputs": [
        {
          "internalType": "uint16",
          "name": "",
          "type": "uint16"
        }
      ],
      "stateMutability": "view",
      "type": "function"
    },
    {
      "inputs": [],
      "name": "frozen",
      "outputs": [
        {
          "internalType": "bool",
          "name": "",
          "type": "bool"
        }
      ],
      "stateMutability": "view",
      "type": "function"
    },
    {
      "inputs": [],
      "name": "getAcceptedInSupplyTokens",
      "outputs": [
        {
          "internalType": "address[]",
          "name": "",
          "type": "address[]"
        }
      ],
      "stateMutability": "view",
      "type": "function"
    },
    {
      "inputs": [
        {
          "internalType": "enum StreamFactory.StreamImplKind",
          "name": "kind",
          "type": "uint8"
        }
      ],
      "name": "getImplementation",
      "outputs": [
        {
          "internalType": "address",
          "name": "",
          "type": "address"
        }
      ],
      "stateMutability": "view",
      "type": "function"
    },
    {
      "inputs": [],
      "name": "getParams",
      "outputs": [
        {
          "components": [
            {
              "internalType": "uint256",
              "name": "streamCreationFee",
              "type": "uint256"
            },
            {
              "internalType": "address",
              "name": "streamCreationFeeToken",
              "type": "address"
            },
            {
              "components": [
                {
                  "internalType": "uint256",
                  "name": "value",
                  "type": "uint256"
                }
              ],
              "internalType": "struct Decimal",
              "name": "exitFeeRatio",
              "type": "tuple"
            },
            {
              "components": [
                {
                  "internalType": "uint256",
                  "name": "value",
                  "type": "uint256"
                }
              ],
              "internalType": "struct Decimal",
              "name": "subscriptionFeeRatio",
              "type": "tuple"
            },
            {
              "internalType": "uint256",
              "name": "minWaitingDuration",
              "type": "uint256"
            },
            {
              "internalType": "uint256",
              "name": "minBootstrappingDuration",
              "type": "uint256"
            },
            {
              "internalType": "uint256",
              "name": "minStreamDuration",
              "type": "uint256"
            },
            {
              "internalType": "address",
              "name": "feeCollector",
              "type": "address"
            },
            {
              "internalType": "address",
              "name": "protocolAdmin",
              "type": "address"
            },
            {
              "internalType": "string",
              "name": "tosVersion",
              "type": "string"
            },
            {
              "internalType": "address",
              "name": "vestingFactoryAddress",
              "type": "address"
            },
            {
              "internalType": "address",
              "name": "poolRouterAddress",
              "type": "address"
            },
            {
              "internalType": "address",
              "name": "tokenFactoryAddress",
              "type": "address"
            }
          ],
          "internalType": "struct StreamFactoryTypes.Params",
          "name": "",
          "type": "tuple"
        }
      ],
      "stateMutability": "view",
      "type": "function"
    },
    {
      "inputs": [
        {
          "internalType": "uint16",
          "name": "streamId",
          "type": "uint16"
        }
      ],
      "name": "getStream",
      "outputs": [
        {
          "internalType": "address",
          "name": "",
          "type": "address"
        }
      ],
      "stateMutability": "view",
      "type": "function"
    },
    {
      "inputs": [],
      "name": "getStreams",
      "outputs": [
        {
          "internalType": "address[]",
          "name": "",
          "type": "address[]"
        }
      ],
      "stateMutability": "view",
      "type": "function"
    },
    {
      "inputs": [
        {
          "internalType": "enum StreamFactory.StreamImplKind",
          "name": "",
          "type": "uint8"
        }
      ],
      "name": "implementations",
      "outputs": [
        {
          "internalType": "address",
          "name": "",
          "type": "address"
        }
      ],
      "stateMutability": "view",
      "type": "function"
    },
    {
      "inputs": [
        {
          "components": [
            {
              "internalType": "uint256",
              "name": "streamCreationFee",
              "type": "uint256"
            },
            {
              "internalType": "address",
              "name": "streamCreationFeeToken",
              "type": "address"
            },
            {
              "components": [
                {
                  "internalType": "uint256",
                  "name": "value",
                  "type": "uint256"
                }
              ],
              "internalType": "struct Decimal",
              "name": "exitFeeRatio",
              "type": "tuple"
            },
            {
              "components": [
                {
                  "internalType": "uint256",
                  "name": "value",
                  "type": "uint256"
                }
              ],
              "internalType": "struct Decimal",
              "name": "subscriptionFeeRatio",
              "type": "tuple"
            },
            {
              "internalType": "uint256",
              "name": "minWaitingDuration",
              "type": "uint256"
            },
            {
              "internalType": "uint256",
              "name": "minBootstrappingDuration",
              "type": "uint256"
            },
            {
              "internalType": "uint256",
              "name": "minStreamDuration",
              "type": "uint256"
            },
            {
              "internalType": "address",
              "name": "feeCollector",
              "type": "address"
            },
            {
              "internalType": "address",
              "name": "protocolAdmin",
              "type": "address"
            },
            {
              "internalType": "string",
              "name": "tosVersion",
              "type": "string"
            },
            {
              "internalType": "address",
              "name": "poolRouterAddress",
              "type": "address"
            },
            {
              "internalType": "address",
              "name": "basicImplementationAddress",
              "type": "address"
            },
            {
              "internalType": "address",
              "name": "postActionsImplementationAddress",
              "type": "address"
            },
            {
              "internalType": "address[]",
              "name": "acceptedInSupplyTokens",
              "type": "address[]"
            },
            {
              "internalType": "address",
              "name": "tokenFactoryAddress",
              "type": "address"
            },
            {
              "internalType": "address",
              "name": "vestingFactoryAddress",
              "type": "address"
            }
          ],
          "internalType": "struct StreamFactoryTypes.InitializeStreamFactoryMessage",
          "name": "initializeStreamFactoryMessage",
          "type": "tuple"
        }
      ],
      "name": "initialize",
      "outputs": [],
      "stateMutability": "nonpayable",
      "type": "function"
    },
    {
      "inputs": [],
      "name": "initialized",
      "outputs": [
        {
          "internalType": "bool",
          "name": "",
          "type": "bool"
        }
      ],
      "stateMutability": "view",
      "type": "function"
    },
    {
      "inputs": [
        {
          "internalType": "address",
          "name": "token",
          "type": "address"
        }
      ],
      "name": "isAcceptedInSupplyToken",
      "outputs": [
        {
          "internalType": "bool",
          "name": "",
          "type": "bool"
        }
      ],
      "stateMutability": "view",
      "type": "function"
    },
    {
      "inputs": [
        {
          "internalType": "address",
          "name": "streamAddress",
          "type": "address"
        }
      ],
      "name": "isStream",
      "outputs": [
        {
          "internalType": "bool",
          "name": "",
          "type": "bool"
        }
      ],
      "stateMutability": "view",
      "type": "function"
    },
    {
      "inputs": [],
      "name": "params",
      "outputs": [
        {
          "internalType": "uint256",
          "name": "streamCreationFee",
          "type": "uint256"
        },
        {
          "internalType": "address",
          "name": "streamCreationFeeToken",
          "type": "address"
        },
        {
          "components": [
            {
              "internalType": "uint256",
              "name": "value",
              "type": "uint256"
            }
          ],
          "internalType": "struct Decimal",
          "name": "exitFeeRatio",
          "type": "tuple"
        },
        {
          "components": [
            {
              "internalType": "uint256",
              "name": "value",
              "type": "uint256"
            }
          ],
          "internalType": "struct Decimal",
          "name": "subscriptionFeeRatio",
          "type": "tuple"
        },
        {
          "internalType": "uint256",
          "name": "minWaitingDuration",
          "type": "uint256"
        },
        {
          "internalType": "uint256",
          "name": "minBootstrappingDuration",
          "type": "uint256"
        },
        {
          "internalType": "uint256",
          "name": "minStreamDuration",
          "type": "uint256"
        },
        {
          "internalType": "address",
          "name": "feeCollector",
          "type": "address"
        },
        {
          "internalType": "address",
          "name": "protocolAdmin",
          "type": "address"
        },
        {
          "internalType": "string",
          "name": "tosVersion",
          "type": "string"
        },
        {
          "internalType": "address",
          "name": "vestingFactoryAddress",
          "type": "address"
        },
        {
          "internalType": "address",
          "name": "poolRouterAddress",
          "type": "address"
        },
        {
          "internalType": "address",
          "name": "tokenFactoryAddress",
          "type": "address"
        }
      ],
      "stateMutability": "view",
      "type": "function"
    },
    {
      "inputs": [
        {
          "internalType": "bool",
          "name": "isFrozen",
          "type": "bool"
        }
      ],
      "name": "setFrozen",
      "outputs": [],
      "stateMutability": "nonpayable",
      "type": "function"
    },
    {
      "inputs": [
        {
          "internalType": "uint16",
          "name": "",
          "type": "uint16"
        }
      ],
      "name": "streamAddresses",
      "outputs": [
        {
          "internalType": "address",
          "name": "",
          "type": "address"
        }
      ],
      "stateMutability": "view",
      "type": "function"
    },
    {
      "inputs": [
        {
          "internalType": "address[]",
          "name": "tokensToAdd",
          "type": "address[]"
        },
        {
          "internalType": "address[]",
          "name": "tokensToRemove",
          "type": "address[]"
        }
      ],
      "name": "updateAcceptedTokens",
      "outputs": [],
      "stateMutability": "nonpayable",
      "type": "function"
    },
    {
      "inputs": [
        {
          "components": [
            {
              "internalType": "uint256",
              "name": "value",
              "type": "uint256"
            }
          ],
          "internalType": "struct Decimal",
          "name": "exitFeeRatio",
          "type": "tuple"
        }
      ],
      "name": "updateExitFeeRatio",
      "outputs": [],
      "stateMutability": "nonpayable",
      "type": "function"
    },
    {
      "inputs": [
        {
          "internalType": "address",
          "name": "feeCollector",
          "type": "address"
        }
      ],
      "name": "updateFeeCollector",
      "outputs": [],
      "stateMutability": "nonpayable",
      "type": "function"
    },
    {
      "inputs": [
        {
          "internalType": "address",
          "name": "basicImplementation",
          "type": "address"
        },
        {
          "internalType": "address",
          "name": "postActionsImplementation",
          "type": "address"
        }
      ],
      "name": "updateImplementationParameters",
      "outputs": [],
      "stateMutability": "nonpayable",
      "type": "function"
    },
    {
      "inputs": [
        {
          "internalType": "address",
          "name": "newPoolRouter",
          "type": "address"
        }
      ],
      "name": "updatePoolRouterAddress",
      "outputs": [],
      "stateMutability": "nonpayable",
      "type": "function"
    },
    {
      "inputs": [
        {
          "internalType": "address",
          "name": "protocolAdmin",
          "type": "address"
        }
      ],
      "name": "updateProtocolAdmin",
      "outputs": [],
      "stateMutability": "nonpayable",
      "type": "function"
    },
    {
      "inputs": [
        {
          "internalType": "uint256",
          "name": "streamCreationFee",
          "type": "uint256"
        },
        {
          "internalType": "address",
          "name": "streamCreationFeeToken",
          "type": "address"
        }
      ],
      "name": "updateStreamFeeParameters",
      "outputs": [],
      "stateMutability": "nonpayable",
      "type": "function"
    },
    {
      "inputs": [
        {
          "components": [
            {
              "internalType": "uint256",
              "name": "value",
              "type": "uint256"
            }
          ],
          "internalType": "struct Decimal",
          "name": "subscriptionFeeRatio",
          "type": "tuple"
        }
      ],
      "name": "updateSubscriptionFeeRatio",
      "outputs": [],
      "stateMutability": "nonpayable",
      "type": "function"
    },
    {
      "inputs": [
        {
          "internalType": "uint256",
          "name": "minWaitingDuration",
          "type": "uint256"
        },
        {
          "internalType": "uint256",
          "name": "minBootstrappingDuration",
          "type": "uint256"
        },
        {
          "internalType": "uint256",
          "name": "minStreamDuration",
          "type": "uint256"
        }
      ],
      "name": "updateTimingParameters",
      "outputs": [],
      "stateMutability": "nonpayable",
      "type": "function"
    },
    {
      "inputs": [
        {
          "internalType": "string",
          "name": "tosVersion",
          "type": "string"
        }
      ],
      "name": "updateTosVersion",
      "outputs": [],
      "stateMutability": "nonpayable",
      "type": "function"
    },
    {
      "inputs": [
        {
          "internalType": "address",
          "name": "newVestingFactory",
          "type": "address"
        }
      ],
      "name": "updateVestingFactoryAddress",
      "outputs": [],
      "stateMutability": "nonpayable",
      "type": "function"
    }
  ],
  "transactionHash": "0x02ebd004263bb5d75f4ad3f4718d0ccb7a88cc27001f6cc8d8f14d5e7a6fa5c5",
  "args": [
    "0xB4eE189569597EFDB3bB48DB5ede8394d1D48e7b"
  ],
  "numDeployments": 1,
  "solcInputHash": "10db5f8dbc868760b181f9ce41cf1d78",
  "bytecode": "0x6080346200009357601f62003ef638819003918201601f19168301916001600160401b0383118484101762000098578084926020946040528339810103126200009357516001600160a01b03811690819003620000935780156200008157600a80546001600160a01b031916919091179055604051613e479081620000af8239f35b604051632bf75bc360e21b8152600490fd5b600080fd5b634e487b7160e01b600052604160045260246000fdfe6101808060405260043610156200001557600080fd5b60003560e01c908163054f7d9c1462001c665750806314d98de51462001c42578063158ef93e1462001c1a57806333907d1e1462001b8f5780633f87606b1462001afb57806343b3a7551462001a645780635429caa014620010005780635a91b3b21462001a3b5780635e615a6b14620017f55780636c71696f1462001774578063774ef43b1462000b3e5780637c526bb314620015e35780637df43e6b14620014e85780637e932d32146200147757806390f2205314620013ce57806397de9a0f14620010885780639a5934db1462001041578063a76164191462001000578063aff28a501462000f70578063bfb792241462000f3d578063c1d3be8b1462000e90578063cff0ab961462000da2578063d04fed631462000cc2578063d2c35ce81462000c15578063d7ad9fb21462000b81578063e899f3d71462000b3e578063ee31072f1462000445578063f21e200614620002275763fd05bcc2146200017d57600080fd5b346200022257602036600319011262000222576200019b3662001e2d565b600a546001600160a01b031633036200021057620001b8620023ea565b8151905110620001fe5760045490518060045560405191825260208201527f326958908570a55d99765cc1010988df2265655c7a936bce8d1fe32c15104cde60403092a2005b604051632aa4e67b60e01b8152600490fd5b604051637bfa4b9f60e01b8152600490fd5b600080fd5b34620002225760208060031936011262000222576001600160401b0360043581811162000222576200025e90369060040162001efc565b600a549092906001600160a01b031633036200021057604051916200029083620002888162002194565b038462001e0b565b83519081116200042f57620002a7600b5462002157565b601f8111620003e2575b5081601f821160011462000341576200032092827fba76badb4a7b68ae64606b0dd84000b21f0b2e70c206e63dce6f39be5fe6bc219593620003309360009162000335575b508160011b916000199060031b1c191617600b555b60405193849360408552604085019062001d5f565b9083820390840152309562001d5f565b0390a2005b905087015188620002f6565b601f19821690600b60005260008051602062003df28339815191529160005b818110620003ca57508362000330936200032096937fba76badb4a7b68ae64606b0dd84000b21f0b2e70c206e63dce6f39be5fe6bc21989660019410620003b0575b5050811b01600b556200030b565b89015160001960f88460031b161c191690558880620003a2565b91928560018192868b01518155019401920162000360565b6200041d90600b60005260008051602062003df2833981519152601f840160051c81019185851062000424575b601f0160051c019062002380565b84620002b1565b90915081906200040f565b634e487b7160e01b600052604160045260246000fd5b34620002225760031960203682011262000222576001600160401b0360043511620002225761020080916004353603011262000222576040519081018181106001600160401b038211176200042f57604052600435600401358152620004b060246004350162001cf5565b6020820152620004c63660446004350162001e50565b6040820152620004dc3660646004350162001e50565b60608201526004356084810135608083015260a481013560a083015260c481013560c0830152620005109060e40162001cf5565b60e0820152620005266101046004350162001cf5565b6101008201526001600160401b036101246004350135116200022257620005593660048035610124810135010162001efc565b610120820152620005706101446004350162001cf5565b610140820152620005876101646004350162001cf5565b6101608201526200059e6101846004350162001cf5565b6101808201526101a460043501356001600160401b0381116200022257366023826004350101121562000222576004818135010135620005de816200223f565b91620005ee604051938462001e0b565b81835260208301903660248460051b83600435010101116200022257906024826004350101915b60248460051b82600435010101831062000b1f5785856101a0820152620006426101c46004350162001cf5565b6101c0820152620006596101e46004350162001cf5565b6101e0820152600a546001600160a01b03163303620002105760ff60105460081c1662000b0e5760408101516200068f620023ea565b9051905110620001fe576060810151620006a8620023ea565b905190511062000afc576101a0810151511562000aea5780516002556020810151600380546001600160a01b039283166001600160a01b031991821617909155604083015151600455606083015151600555608083015160065560a083015160075560c083015160085560e0830151600980549190931691161790556101208101518051906001600160401b0382116200042f5781906200074b600b5462002157565b601f811162000aa8575b50602090601f831160011462000a2a5760009262000a1e575b50508160011b916000199060031b1c191617600b555b6101e0810151600c80546001600160a01b039283166001600160a01b031991821617909155610140830151600d80549184169183169190911790556101c0830151600e80549190931691161790556101a08101518051906001600160401b0382116200042f57600160401b82116200042f5760209060005483600055808410620009f6575b50016000805260005b828110620009c95783600160a01b600190036101608201511660116020526040600020906001600160601b0360a01b825416179055600160a01b600190036101808201511660016000526040600020906001600160601b0360a01b825416179055600160a01b6001900361016082015116600160a01b600190036101808301511691600160a01b6001900361014082015116600160a01b6001900360e08301511690600160a01b600190036101008401511691600160a01b60019003602085015116926101a085015193855194604087015151906060880151519260808901519460a08a01519660c08b0151986101208c01519b600160a01b60019003906101e00151169d604051809e81526020015260408d015260608c015260808b015260a08a015260c089016101e090526101e089016200094f9162001c88565b9560e08901526101008801526101208701526101408601526101608501526101808401528281036101a0840152620009879162001d5f565b916101c0820152803092037fde4eedf0edbdb4cd906b3f144ddc0a3ac003bc03268b4921196deb94336a93b291a261ff00196010541661010017601055600080f35b81516001600160a01b031660008051602062003dd283398151915282015560209091019060010162000812565b62000a17908460008051602062003dd2833981519152918201910162002380565b8462000809565b0151905083806200076e565b9250600b60005260008051602062003df2833981519152906000935b601f198416851062000a8c576001945083601f1981161062000a72575b505050811b01600b5562000784565b015160001960f88460031b161c1916905583808062000a63565b8181015183556020948501946001909301929091019062000a46565b62000ae390600b60005260008051602062003df2833981519152601f850160051c810191602086106200042457601f0160051c019062002380565b8462000755565b60405163042ea06160e41b8152600490fd5b604051632c34bfd760e01b8152600490fd5b60405162dc149f60e41b8152600490fd5b60208060249362000b308662001cf5565b815201930192915062000615565b3462000222576020366003190112620002225760043561ffff81168091036200022257600052600f602052602060018060a01b0360406000205416604051908152f35b3462000222576020366003190112620002225762000b9e62001cc7565b600a546001600160a01b039190821633036200021057600c80548284166001600160a01b031982161790915560408051939091166001600160a01b039081168452909116602083015230917f74cbcae24ac10f22f24abd8fd578ecda5af867f37f9ff962aa548f9b035e44bd918190810162000330565b3462000222576020366003190112620002225762000c3262001cc7565b600a546001600160a01b039081163303620002105780821691821562000cb057600980546001600160a01b031981169094179055604080516001600160a01b0394909316841683529216602082015230917f9dfcadd14a1ddfb19c51e84b87452ca32a43c5559e9750d1575c77105cdeac1e91908190810162000330565b60405163bb0bac9960e01b8152600490fd5b3462000222576000366003190112620002225761ffff60018160015416908062000cec836200223f565b9262000cfc604051948562001e0b565b80845262000d0a816200223f565b602090601f190136868301376000925b62000d3c575b6040516020808252819062000d389082018862001c88565b0390f35b858316928284101562000d9b5783600052600f825260018060a01b0360406000205416938651111562000d85578481819584621fffe08b9560051b168a01015201169262000d1a565b634e487b7160e01b600052603260045260246000fd5b5062000d20565b34620002225760003660031901126200022257604060025460018060a01b0390816003541683519262000dd58462001da3565b600454845262000e7985519362000dec8562001da3565b60055485526006549060075460085485600954169086600a5416928b519562000e228762000e1a8162002194565b038862001e0b565b88600c54169a89600d541699600e54169a8e519e8f9e8f926101a09a84526020840152519101525160608d015260808c015260a08b015260c08a015260e08901526101008801528061012088015286019062001d5f565b926101408501526101608401526101808301520390f35b3462000222576020366003190112620002225762000ead62001cc7565b600a546001600160a01b03808216929190338490036200021057821691821562000f2b576001600160a01b0319909116909117600a55604080516001600160a01b03938416815292909116602083015230917ffa3a80ca0b89cc0c5a4222b7c3ccb90b6c27c41caf7160fbbdfff6af383509be918190810162000330565b604051632bf75bc360e21b8152600490fd5b34620002225760203660031901126200022257602062000f6662000f6062001cc7565b62002316565b6040519015158152f35b34620002225760603660031901126200022257600a546024359060443590600435906001600160a01b0316330362000210576006549260075460085492806006558260075584600855604051958652602086015260408501526060840152608083015260a08201527f3da82de6c2bc5f129738ac25c05bb8cfc545e7d1eee3532e4d627fa11a79d7d360c03092a2005b34620002225760203660031901126200022257600435600281101562000222576020906001600160a01b0390620010379062001d0a565b5416604051908152f35b3462000222576020366003190112620002225760043560005481101562000222576200106f6020916200211d565b905460405160039290921b1c6001600160a01b03168152f35b60031960403682011262000222576001600160401b036004358181116200022257620010b990369060040162001f6e565b906024358181116200022257608084823603011262000222576040519160808301838110828211176200042f576040528160040135818111620002225762001108906004369185010162001efc565b83526024820135908111620002225762001129906004369184010162001efc565b93602080840195865260448301359160ff8316830362000222576040850192835260646060860194013584526200116c60608701516101608801515190620022c5565b9081855110620013bc57908286899289600160a01b6001900395866003541687600954166002549033620011a09362002505565b84838b5190620011b091620022e9565b60405194620011bf8662001dd3565b600286526040368488013760405191620011d98362001dd3565b600283528a848401963660409089375116620011f588620022f7565b526200120183620022f7565b52306200120e8762002305565b526200121a8262002305565b5288600e54169460405198899763370377c160e21b8952600489016060905251606489016080905260e48901620012519162001d5f565b90518882036063190160848a01526200126b919062001d5f565b8c5160ff1660a48901528d5160c489015284888203016024890152620012919162001c88565b92868403016044870152519182815201919060005b818110620013a257505050600083809203925af190811562001396576000916200134b575b50926200133562001349989360ff7f0b0bcdebd2813328a89a9ed5971e5863201ed78fc4e0e2b271cceddb9ce905109794620013279716988960408c015251955193511693519260405196879660808852608088019062001d5f565b918683039087015262001d5f565b91604084015260608301520390a2620026a0565b005b9050828181969399943d83116200138e575b62001369818362001e0b565b81010312620002225751928784168403620002225791969093919262001335620012cb565b503d6200135d565b6040513d6000823e3d90fd5b8251845289968896509384019390920191600101620012a6565b604051634f1f06eb60e11b8152600490fd5b602036600319011262000222576004356001600160401b0381116200022257620013fd90369060040162001f6e565b6040810180519091906001600160a01b039081161562001465576200134992816200143b6200145f9360035416826009541660025491339062002505565b6200145260608501516101608601515190620022c5565b9151163090339062002505565b620026a0565b6040516372146d6160e11b8152600490fd5b346200022257602036600319011262000222576004358015158091036200022257600a546001600160a01b03163303620002105760ff196010541660ff8216176010556040519081527fc08a1a38ceb2f9f45e15007131834153026896150e4400ab4000fd1b131fb1db60203092a2005b346200022257604036600319011262000222576200150562001cc7565b6200150f62001cde565b600a546001600160a01b03929190831633036200021057601160209081527f4ad3b33220dddc71b994a52d72c06b10862965f7d926534c05c00fb7e819e7b780547f17bc176d2408558f6e4111feebc3cab4e16b63e967be91cde721f4c8a488b55280549587166001600160a01b03198084168217909455600160005294871692861683179055604080519187168252928101939093529390921691810191909152606081019190915230907f496176475a2dae00bd3d276d1cc42e4a5584939544162e0b565de2c060ab046090608090a2005b346200022257604036600319011262000222576001600160401b0360043581811162000222576200161990369060040162001e71565b60249260243590811162000222576200163790369060040162001e71565b600a54919490916001600160a01b03163303620002105760005b838110620016e457505060005b818110620016b9575090620003307f640a0a596c3bc7f91bc26965ed05efb8d3017a25c7b1822ba2ca3e33b2743cd59392620016a86040519485946040865260408601916200227d565b90838203602085015230966200227d565b80620016dd620016d7620016d1600194868a62002257565b62002268565b62002412565b016200165e565b620016f5620016d182868862002257565b620017008162002399565b1562001711575b5060010162001651565b600054600160401b8110156200175f57600192916200173a82856200175894016000556200211d565b90919060018060a01b038084549260031b9316831b921b1916179055565b9062001707565b83634e487b7160e01b60005260416004526000fd5b34620002225760203660031901126200022257620017923662001e2d565b600a546001600160a01b031633036200021057620017af620023ea565b815190511062000afc5760055490518060055560405191825260208201527f1eb339d4b7f258e715e94a0a76b96ca31f9b79f24f2359c1fdb3a17eac6b93c960403092a2005b3462000222576000366003190112620002225760006101806040516200181b8162001d86565b828152826020820152604051620018328162001da3565b8381526040820152604051620018488162001da3565b83815260608201528260808201528260a08201528260c08201528260e082015282610100820152606061012082015282610140820152826101608201520152604051620018958162001d86565b60025481526003546001600160a01b03166020820152604051620018b98162001da3565b60045481526040820152604051620018d18162001da3565b60055481526060820152600654608082015260075460a082015260085460c08201526009546001600160a01b0390811660e0830152600a54166101008201526040516200192b81620019238162002194565b038262001e0b565b61012082015260018060a01b03600c541661014082015260018060a01b03600d541661016082015260018060a01b03600e54166101808201526040518091602082528051602083015260018060a01b03602082015116604083015260408101515160608301526060810151516080830152608081015160a083015260a081015160c083015260c081015160e083015260018060a01b0360e08201511661010083015260018060a01b036101008201511661012083015261012081015162001a026101a091826101408601526101c085019062001d5f565b6101408301516001600160a01b039081166101608681019190915284015181166101808087019190915290930151909216908301520390f35b34620002225760203660031901126200022257602062000f6662001a5e62001cc7565b62002399565b3462000222576040366003190112620002225760043562001a8462001cde565b600a549091906001600160a01b0390811633036200021057600254928160035491846002551692836001600160601b0360a01b831617600355604051948552602085015216604083015260608201527fe5e3a43374ffcb72d6c8bc5de7a34497ccb69d5c9a0aabb8f385a6cdadb41b7660803092a2005b3462000222576020366003190112620002225762001b1862001cc7565b600a546001600160a01b039190821633036200021057600d80548284166001600160a01b031982161790915560408051939091166001600160a01b039081168452909116602083015230917f091b3f94cfd0941ea363b9d775394718a0ce0fc4db3a645b78f2edc60df99d8b918190810162000330565b34620002225760003660031901126200022257604051600080548083528180526020808401939260008051602062003dd283398151915292915b82821062001bf95762000d388562001be48189038262001e0b565b60405191829160208352602083019062001c88565b83546001600160a01b03168652948501946001938401939091019062001bc9565b34620002225760003660031901126200022257602060ff60105460081c166040519015158152f35b34620002225760003660031901126200022257602061ffff60015416604051908152f35b3462000222576000366003190112620002225760209060ff6010541615158152f35b90815180825260208080930193019160005b82811062001ca9575050505090565b83516001600160a01b03168552938101939281019260010162001c9a565b600435906001600160a01b03821682036200022257565b602435906001600160a01b03821682036200022257565b35906001600160a01b03821682036200022257565b600281101562001d24576000526011602052604060002090565b634e487b7160e01b600052602160045260246000fd5b60005b83811062001d4e5750506000910152565b818101518382015260200162001d3d565b9060209162001d7a8151809281855285808601910162001d3a565b601f01601f1916010190565b6101a081019081106001600160401b038211176200042f57604052565b602081019081106001600160401b038211176200042f57604052565b6001600160401b0381116200042f57604052565b606081019081106001600160401b038211176200042f57604052565b604081019081106001600160401b038211176200042f57604052565b90601f801991011681019081106001600160401b038211176200042f57604052565b602090600319011262000222576040519062001e498262001da3565b6004358252565b9190826020910312620002225760405162001e6b8162001da3565b91358252565b9181601f8401121562000222578235916001600160401b03831162000222576020808501948460051b0101116200022257565b6001600160401b0381116200042f57601f01601f191660200190565b92919262001ece8262001ea4565b9162001ede604051938462001e0b565b82948184528183011162000222578281602093846000960137010152565b9080601f83011215620002225781602062001f1a9335910162001ec0565b90565b91908260409103126200022257604080516001600160401b03918101828111828210176200042f57604052809380359081151582036200022257602091835201359182168203620002225760200152565b919061020083820312620002225760408051916101c0948584016001600160401b0390858110828211176200042f578452849662001fac8362001cf5565b8652602062001fbd81850162001cf5565b8188015262001fce86850162001cf5565b86880152606084013560608801526080840135608088015260a084013560a088015260c084013560c088015260e084013560e0880152610100808501358481116200022257850190828288031262000222578751916200202e8362001da3565b8035908682116200022257620020479189910162001efc565b82528801526101206200205d8682870162001f1d565b90880152610160620020728682870162001f1d565b6101408901526101a096878601358581116200022257860192606084890312620002225781519360608501858110888211176200042f5783528035855281810135600381101562000222578286015282810135908782116200022257019088601f830112156200022257818991620020ed9335910162001ec0565b9083015287015282013590811162000222576101e0926200211091830162001efc565b6101808501520135910152565b906000918254811015620021435782805260008051602062003dd2833981519152019190565b634e487b7160e01b83526032600452602483fd5b90600182811c9216801562002189575b60208310146200217357565b634e487b7160e01b600052602260045260246000fd5b91607f169162002167565b600b5460009291620021a68262002157565b80825291602090600190818116908115620022195750600114620021cb575b50505050565b92939450600b60005260008051602062003df2833981519152926000935b85851062002205575050506020925001019038808080620021c5565b8054858501840152938201938101620021e9565b92505050602093945060ff929192191683830152151560051b01019038808080620021c5565b6001600160401b0381116200042f5760051b60200190565b919081101562000d855760051b0190565b356001600160a01b0381168103620002225790565b91908082526020809201929160005b8281106200229b575050505090565b909192938280600192838060a01b03620022b58962001cf5565b168152019501939291016200228c565b91908201809211620022d357565b634e487b7160e01b600052601160045260246000fd5b91908203918211620022d357565b80511562000d855760200190565b80516001101562000d855760400190565b6001805460009261ffff92918316825b62002336575b5050505050600090565b8385168181101562002379576000908152600f60205260409020546001600160a01b0383811691161462002371579382018316938262002326565b505091505090565b506200232c565b8181106200238c575050565b6000815560010162002380565b600090600054915b828110620023b157505050600090565b620023bc816200211d565b905460039190911b1c6001600160a01b0390811690831614620023e257600101620023a1565b505050600190565b6000604051620023fa8162001da3565b52604051620024098162001da3565b620f4240815290565b6000905b6000549182811015620024cb576200242e816200211d565b90546003946001600160a01b0392909190861b1c8216848316146200245a575050600101915062002416565b90925060001991828201918211620022d3576200173a84620024806200248e946200211d565b905490881b1c16916200211d565b6000548015620024b5570191620024a5836200211d565b81939154921b1b19169055600055565b634e487b7160e01b600052603160045260246000fd5b505050565b3d1562002500573d90620024e48262001ea4565b91620024f4604051938462001e0b565b82523d6000602084013e565b606090565b9290928115620021c5576001600160a01b03908116938415620025c15781163081036200257557506040519263a9059cbb60e01b602085015216602483015260448201526044815260808101918183106001600160401b038411176200042f5762002573926040526200324d565b565b92604051936323b872dd60e01b6020860152602485015216604483015260648201526064815260a08101918183106001600160401b038411176200042f5762002573926040526200324d565b8193929450163381146000146200263557508234036200261657163081146200261257600080809381935af1620025f7620024d0565b50156200260057565b604051630c08bcb960e21b8152600490fd5b5050565b604051635693fffb60e01b815260048101849052346024820152604490fd5b3081036200265357506000809381938293165af1620025f7620024d0565b6024906040519063463de9db60e01b82526004820152fd5b9081518152602082015191600383101562001d2457604060609162001f1a946020850152015191816040820152019062001d5f565b6101605260105460ff600091166200311f576060610160510151156200310d5761016051516001600160a01b031615620030fb576101605160200151620026f0906001600160a01b031662002399565b15620030e9576101605160208101516040909101516001600160a01b03908116911614620030d7576101806101605101516040516200274f6020828162002741818301968781519384920162001d3a565b810103808452018262001e0b565b519020604051600b548184620027658362002157565b9260018116908115620030b7575060011462003069575b62002791925003601f19810183528262001e0b565b60208151910120036200305757610160805101515162002fbe575b610120610160510151511580159062002fab575b62002f5b575b60a061016051015160c061016051015160e061016051015182421162002f495781831162002f375780821162002f2557816200280291620022e9565b6008541162002f1357816200281791620022e9565b6007541162002f01576200282d904290620022e9565b6006541162002eef5762002844610160516200316e565b6001600160a01b03620028578262001d0a565b541690811562002eb5575060405190816104168101106001600160401b036104168401111762002ea157610416620033f18339610416820190815260406020820181905281018390528190036060019082f061014052610140511562002e8157604051806105cb8101106001600160401b036105cb8301111762002e8d576105cb620038078239610140516001600160a01b03166105cb82019081528190036020019082f090811562002e8157610160516020015162002920906001600160a01b0316620031ba565b61016051604001516200293c906001600160a01b0316620031ba565b61012052610140516001600160a01b03163b1562002e725760405163ea9d970760e01b81526080600482015260018060a01b03610160515116608482015260018060a01b0360206101605101511660a482015260018060a01b0360406101605101511660c4820152606061016051015160e4820152608061016051015161010482015260a061016051015161012482015260c061016051015161014482015260e061016051015161016482015282818062002aa362002a1b6101006101605101516102006101848501525160206102848501526102a484019062001d5f565b610160516101200151805115156101a4850152602001516001600160401b03166101c4840152610160516101400151805115156101e4850152602001516001600160401b031661020484015262002a8861016080510151916083199283868303016102248701526200266b565b90610180610160510151908483030161024485015262001d5f565b610160516101a001516102648301526001600160a01b03888116602484015260ff87811660448501526101205116606484015261014051929091039183918591165af1801562002e765790839162002e5a575b505062002b3862002b176060610160510151610160805101515190620022c5565b6101605160400151610140516001600160a01b039081169130911662002505565b6001546101005261ffff8061010051161462002e46576101005161ffff19811661ffff9182166001818101909316919091179091558252600f602090815260408084206101405181546001600160a01b0319166001600160a01b039182161790915561016080519283015183850151845160608601519590930151805196015190841698918416979290931694909392909190600381101562002e325762002db7575060405162002be98162001def565b60028152612b1960f11b60208201525b610160516101200151968751151560c052610160516101400151928351151598602001516001600160401b031693602001516001600160401b0316946101605160a00151966101605160c00151986101605160e001519a61016051608001516080526101605161010001515160e052610160516101a001519d60405160a0526102c09660a0515260a0516020015260ff1660a051604001526101205160ff1660a05160600152600160a01b60019003610140511660a0516080015260a05160a00152600160a01b600190031660a05160c0015260a05160e0015260a05161010001528060a051610120015260a0510162002cf39162001d5f565b9560c05160a051610140015260a051610160015260a051610180015260a0516101a0015260a0516101c0015260a0516101e0015260a051610200015260805160a051610220015260a051810360a051610240015260e0519062002d569162001d5f565b60a051810360a051610260015262002d6e9062002194565b9060a05161028001526101005161ffff1660a0516102a00152309060a051900360a051907f5c795ef111b1f6ac8c78b36f033a42622166789f108816d5cebb2903915cacff91a2565b602061016080510151015190600382101562002e1e575060010362002df95760405162002de48162001def565b6002815261563360f01b602082015262002bf9565b60405162002e078162001def565b60048152634145524f60e01b602082015262002bf9565b634e487b7160e01b81526021600452602490fd5b634e487b7160e01b82526021600452602482fd5b634e487b7160e01b82526011600452602482fd5b62002e659062001dbf565b62002e7257813862002af6565b5080fd5b6040513d85823e3d90fd5b604051903d90823e3d90fd5b634e487b7160e01b82526041600452602482fd5b634e487b7160e01b83526041600452602483fd5b80836002602493101562002edc575060ff6040519163f001182560e01b8352166004820152fd5b634e487b7160e01b815260216004529050fd5b604051635bdfbd0360e11b8152600490fd5b6040516372904fb160e01b8152600490fd5b6040516318861b4960e01b8152600490fd5b6040516349f8456b60e11b8152600490fd5b604051633060050d60e21b8152600490fd5b6040516341f01d5760e01b8152600490fd5b600c546001600160a01b03161562002f995762002f8061012061016051015162003131565b62002f9361014061016051015162003131565b620027c6565b6040516326d845c560e21b8152600490fd5b50610140610160510151511515620027c0565b600d546001600160a01b0316801562003045576101608051015190803b1562003041576200300c91839160405180809581946302ff2b9b60e01b83526020600484015260248301906200266b565b03915afa8015620030365762003024575b50620027ac565b6200302f9062001dbf565b386200301d565b6040513d84823e3d90fd5b8280fd5b60405163d2b2a44160e01b8152600490fd5b604051635d0b6cc760e01b8152600490fd5b5050600b8452818460008051602062003df28339815191525b8382106200309c575050602062002791928201016200277c565b60209192508060019154838588010152019101839162003082565b602092506200279194915060ff191682840152801515028201016200277c565b604051638b1202a160e01b8152600490fd5b60405163cc3ca47b60e01b8152600490fd5b6040516332db94d160e21b8152600490fd5b604051634d5bb2d560e11b8152600490fd5b604051634051e96160e01b8152600490fd5b80511515908162003157575b506200314557565b604051632b39f6cb60e01b8152600490fd5b6001600160401b039150602001511615386200313d565b610120810151511590811591620031a9575b61016001515115158115620031a0575b506200319b57600090565b600190565b90503862003190565b610140810151511515915062003180565b6001600160a01b03811615620032475760405163313ce56760e01b602082019081526004825290620031ec8162001def565b6000928392839251915afa62003201620024d0565b90806200323a575b62003215575050601290565b60208180518101031262002e7257602001519060ff8216820362003237575090565b80fd5b5060208151101562003209565b50601290565b60018060a01b031690620032b2604051620032688162001def565b6020938482527f5361666545524332303a206c6f772d6c6576656c2063616c6c206661696c6564858301526000808587829751910182855af1620032ab620024d0565b916200334d565b80519182159184831562003326575b505050905015620032cf5750565b6084906040519062461bcd60e51b82526004820152602a60248201527f5361666545524332303a204552433230206f7065726174696f6e20646964206e6044820152691bdd081cdd58d8d9595960b21b6064820152fd5b91938180945001031262002e725782015190811515820362003237575080388084620032c1565b91929015620033b2575081511562003363575090565b3b156200336d5790565b60405162461bcd60e51b815260206004820152601d60248201527f416464726573733a2063616c6c20746f206e6f6e2d636f6e74726163740000006044820152606490fd5b825190915015620033c65750805190602001fd5b60405162461bcd60e51b815260206004820152908190620033ec90602483019062001d5f565b0390fdfe604060808152610416908138038061001681610218565b93843982019181818403126102135780516001600160a01b038116808203610213576020838101516001600160401b0394919391858211610213570186601f820112156102135780519061007161006c83610253565b610218565b918083528583019886828401011161021357888661008f930161026e565b813b156101b9577f360894a13ba1a3210667c828492db98dca3e2076cc3735a920a3ca505d382bbc80546001600160a01b031916841790556000927fbc7cd75a20ee27fd9adebab32041f755214dbc6bffa90cc0225b39da2e5c2d3b8480a28051158015906101b2575b61010b575b855160d190816103458239f35b855194606086019081118682101761019e578697849283926101889952602788527f416464726573733a206c6f772d6c6576656c2064656c65676174652063616c6c87890152660819985a5b195960ca1b8a8901525190845af4913d15610194573d9061017a61006c83610253565b91825281943d92013e610291565b508038808080806100fe565b5060609250610291565b634e487b7160e01b84526041600452602484fd5b50826100f9565b855162461bcd60e51b815260048101859052602d60248201527f455243313936373a206e657720696d706c656d656e746174696f6e206973206e60448201526c1bdd08184818dbdb9d1c9858dd609a1b6064820152608490fd5b600080fd5b6040519190601f01601f191682016001600160401b0381118382101761023d57604052565b634e487b7160e01b600052604160045260246000fd5b6001600160401b03811161023d57601f01601f191660200190565b60005b8381106102815750506000910152565b8181015183820152602001610271565b919290156102f357508151156102a5575090565b3b156102ae5790565b60405162461bcd60e51b815260206004820152601d60248201527f416464726573733a2063616c6c20746f206e6f6e2d636f6e74726163740000006044820152606490fd5b8251909150156103065750805190602001fd5b6044604051809262461bcd60e51b825260206004830152610336815180928160248601526020868601910161026e565b601f01601f19168101030190fdfe608060405236156054577f360894a13ba1a3210667c828492db98dca3e2076cc3735a920a3ca505d382bbc54600090819081906001600160a01b0316368280378136915af43d82803e156050573d90f35b3d90fd5b7f360894a13ba1a3210667c828492db98dca3e2076cc3735a920a3ca505d382bbc54600090819081906001600160a01b0316368280378136915af43d82803e156050573d90f3fea26469706673582212207cca0a2ce4ae598423b90e213c43ff2272c2bf23338114cc8f5012f3499248e764736f6c6343000818003360a03461009557601f6105cb38819003918201601f19168301916001600160401b0383118484101761009a5780849260209460405283398101031261009557516001600160a01b03811680820361009557156100835760805260405161051a90816100b18239608051818181607e0152818160e1015281816101b701526102660152f35b604051635a3f066960e01b8152600490fd5b600080fd5b634e487b7160e01b600052604160045260246000fdfe6040608081526004908136101561001557600080fd5b60009160e08335811c90816316c1973914610333578163a3de7d1714610233578163c1ac10261461011457508063e82bb126146100cc5763fb33ce811461005b57600080fd5b346100c857816003193601126100c857610073610456565b6001600160a01b03917f0000000000000000000000000000000000000000000000000000000000000000831633036100ba5750168252816020526007602435918320015580f35b8351631a27eac360e11b8152fd5b8280fd5b505034610110578160031936011261011057517f00000000000000000000000000000000000000000000000000000000000000006001600160a01b03168152602090f35b5080fd5b848385346100c8576101203660031901126100c857610131610456565b9361010036602319011261022f57610147610471565b92602435845260208401906044358252610160366104c8565b848601908152606086016084358152602060a31936011261022b576101836104a8565b9160a43583526080880192835260a088019460c435865260c089019660e435885289019761010435895260018060a01b03807f000000000000000000000000000000000000000000000000000000000000000016330361021b5760079a9b9c168c528b6020528b2099518a555160018a0155515160028901555160038801555151908601555160058501555160068401555191015580f35b8151631a27eac360e11b81528790fd5b8780fd5b8380fd5b84848492346100c85760803660031901126100c857610250610456565b9061025a366104c8565b926001600160a01b03907f000000000000000000000000000000000000000000000000000000000000000082163303610324579585966007959661029c6104a8565b526102a56104a8565b908882526102b1610471565b976024358952602089016044358152828a0191825260608a019242845260808b0194855260a08b01968c885260c08c01988d8a528c01998d8b52168c528b6020528b2099518a555160018a0155515160028901555160038801555151908601555160058501555160068401555191015580f35b51631a27eac360e11b81528690fd5b9190503461022f57602036600319011261022f578261010094610354610456565b818561035e610471565b82815282602082015261036f6104a8565b838152868201528260608201526103846104a8565b838152608082015260a0810183905260c0810183905201526001600160a01b031681526020819052206103b5610471565b9381548552600182015492602086019384526103cf6104a8565b9160028401548352808701928352600384015490606088019182526103f26104a8565b9285015483526080880192835260058501549360a08901948552600760068701549660c08b01978852015496888a01978852825199518a525160208a0152515190880152516060870152515160808601525160a08501525160c08401525190820152f35b600435906001600160a01b038216820361046c57565b600080fd5b60405190610100820182811067ffffffffffffffff82111761049257604052565b634e487b7160e01b600052604160045260246000fd5b604051906020820182811067ffffffffffffffff82111761049257604052565b602090606319011261046c576104dc6104a8565b90606435825256fea2646970667358221220f9197761eae1a8839a6606c94eed8300af1b83793252e9badea713839d2d9ea864736f6c63430008180033290decd9548b62a8d60345a988386fc84ba6bc95484008f6362f93160ef3e5630175b7a638427703f0dbe7bb9bbf987a2551717b34e79f33b5b1008d1fa01db9a2646970667358221220f46a2cbddbc720cb43e01bf562e9c998f831157b6ee61d05ae59760fade390cc64736f6c63430008180033",
  "devdoc": {
    "kind": "dev",
    "methods": {},
    "version": 1
  },
  "userdoc": {
    "kind": "user",
    "methods": {},
    "version": 1
  },
  "storageLayout": {
    "storage": [
      {
        "astId": 14487,
        "contract": "src/StreamFactory.sol:StreamFactory",
        "label": "acceptedInSupplyTokens",
        "offset": 0,
        "slot": "0",
        "type": "t_array(t_address)dyn_storage"
      },
      {
        "astId": 14489,
        "contract": "src/StreamFactory.sol:StreamFactory",
        "label": "currentStreamId",
        "offset": 0,
        "slot": "1",
        "type": "t_uint16"
      },
      {
        "astId": 14492,
        "contract": "src/StreamFactory.sol:StreamFactory",
        "label": "params",
        "offset": 0,
        "slot": "2",
        "type": "t_struct(Params)21650_storage"
      },
      {
        "astId": 14496,
        "contract": "src/StreamFactory.sol:StreamFactory",
        "label": "streamAddresses",
        "offset": 0,
        "slot": "15",
        "type": "t_mapping(t_uint16,t_address)"
      },
      {
        "astId": 14498,
        "contract": "src/StreamFactory.sol:StreamFactory",
        "label": "frozen",
        "offset": 0,
        "slot": "16",
        "type": "t_bool"
      },
      {
        "astId": 14500,
        "contract": "src/StreamFactory.sol:StreamFactory",
        "label": "initialized",
        "offset": 1,
        "slot": "16",
        "type": "t_bool"
      },
      {
        "astId": 14505,
        "contract": "src/StreamFactory.sol:StreamFactory",
        "label": "implementations",
        "offset": 0,
        "slot": "17",
        "type": "t_mapping(t_enum(StreamImplKind)14484,t_address)"
      }
    ],
    "types": {
      "t_address": {
        "encoding": "inplace",
        "label": "address",
        "numberOfBytes": "20"
      },
      "t_array(t_address)dyn_storage": {
        "base": "t_address",
        "encoding": "dynamic_array",
        "label": "address[]",
        "numberOfBytes": "32"
      },
      "t_bool": {
        "encoding": "inplace",
        "label": "bool",
        "numberOfBytes": "1"
      },
      "t_enum(StreamImplKind)14484": {
        "encoding": "inplace",
        "label": "enum StreamFactory.StreamImplKind",
        "numberOfBytes": "1"
      },
      "t_mapping(t_enum(StreamImplKind)14484,t_address)": {
        "encoding": "mapping",
        "key": "t_enum(StreamImplKind)14484",
        "label": "mapping(enum StreamFactory.StreamImplKind => address)",
        "numberOfBytes": "32",
        "value": "t_address"
      },
      "t_mapping(t_uint16,t_address)": {
        "encoding": "mapping",
        "key": "t_uint16",
        "label": "mapping(uint16 => address)",
        "numberOfBytes": "32",
        "value": "t_address"
      },
      "t_string_storage": {
        "encoding": "bytes",
        "label": "string",
        "numberOfBytes": "32"
      },
      "t_struct(Decimal)19456_storage": {
        "encoding": "inplace",
        "label": "struct Decimal",
        "members": [
          {
            "astId": 19455,
            "contract": "src/StreamFactory.sol:StreamFactory",
            "label": "value",
            "offset": 0,
            "slot": "0",
            "type": "t_uint256"
          }
        ],
        "numberOfBytes": "32"
      },
      "t_struct(Params)21650_storage": {
        "encoding": "inplace",
        "label": "struct StreamFactoryTypes.Params",
        "members": [
          {
            "astId": 21623,
            "contract": "src/StreamFactory.sol:StreamFactory",
            "label": "streamCreationFee",
            "offset": 0,
            "slot": "0",
            "type": "t_uint256"
          },
          {
            "astId": 21625,
            "contract": "src/StreamFactory.sol:StreamFactory",
            "label": "streamCreationFeeToken",
            "offset": 0,
            "slot": "1",
            "type": "t_address"
          },
          {
            "astId": 21628,
            "contract": "src/StreamFactory.sol:StreamFactory",
            "label": "exitFeeRatio",
            "offset": 0,
            "slot": "2",
            "type": "t_struct(Decimal)19456_storage"
          },
          {
            "astId": 21631,
            "contract": "src/StreamFactory.sol:StreamFactory",
            "label": "subscriptionFeeRatio",
            "offset": 0,
            "slot": "3",
            "type": "t_struct(Decimal)19456_storage"
          },
          {
            "astId": 21633,
            "contract": "src/StreamFactory.sol:StreamFactory",
            "label": "minWaitingDuration",
            "offset": 0,
            "slot": "4",
            "type": "t_uint256"
          },
          {
            "astId": 21635,
            "contract": "src/StreamFactory.sol:StreamFactory",
            "label": "minBootstrappingDuration",
            "offset": 0,
            "slot": "5",
            "type": "t_uint256"
          },
          {
            "astId": 21637,
            "contract": "src/StreamFactory.sol:StreamFactory",
            "label": "minStreamDuration",
            "offset": 0,
            "slot": "6",
            "type": "t_uint256"
          },
          {
            "astId": 21639,
            "contract": "src/StreamFactory.sol:StreamFactory",
            "label": "feeCollector",
            "offset": 0,
            "slot": "7",
            "type": "t_address"
          },
          {
            "astId": 21641,
            "contract": "src/StreamFactory.sol:StreamFactory",
            "label": "protocolAdmin",
            "offset": 0,
            "slot": "8",
            "type": "t_address"
          },
          {
            "astId": 21643,
            "contract": "src/StreamFactory.sol:StreamFactory",
            "label": "tosVersion",
            "offset": 0,
            "slot": "9",
            "type": "t_string_storage"
          },
          {
            "astId": 21645,
            "contract": "src/StreamFactory.sol:StreamFactory",
            "label": "vestingFactoryAddress",
            "offset": 0,
            "slot": "10",
            "type": "t_address"
          },
          {
            "astId": 21647,
            "contract": "src/StreamFactory.sol:StreamFactory",
            "label": "poolRouterAddress",
            "offset": 0,
            "slot": "11",
            "type": "t_address"
          },
          {
            "astId": 21649,
            "contract": "src/StreamFactory.sol:StreamFactory",
            "label": "tokenFactoryAddress",
            "offset": 0,
            "slot": "12",
            "type": "t_address"
          }
        ],
        "numberOfBytes": "416"
      },
      "t_uint16": {
        "encoding": "inplace",
        "label": "uint16",
        "numberOfBytes": "2"
      },
      "t_uint256": {
        "encoding": "inplace",
        "label": "uint256",
        "numberOfBytes": "32"
      }
    }
  }
}