{
  "address": "0xe157D036fF139187ee40b4843E0D96c10df22338",
  "abi": [
    {
      "inputs": [
        {
          "internalType": "address",
          "name": "factory",
          "type": "address"
        },
        {
          "internalType": "address",
          "name": "positionManager",
          "type": "address"
        },
        {
          "internalType": "uint24",
          "name": "feeTier",
          "type": "uint24"
        }
      ],
      "stateMutability": "nonpayable",
      "type": "constructor"
    },
    {
      "inputs": [],
      "name": "DifferentTokensRequired",
      "type": "error"
    },
    {
      "inputs": [
        {
          "internalType": "uint256",
          "name": "expected",
          "type": "uint256"
        },
        {
          "internalType": "uint256",
          "name": "actual",
          "type": "uint256"
        }
      ],
      "name": "IncorrectNativeAmount",
      "type": "error"
    },
    {
      "inputs": [],
      "name": "InsufficientBalance",
      "type": "error"
    },
    {
      "inputs": [],
      "name": "InvalidAddress",
      "type": "error"
    },
    {
      "inputs": [],
      "name": "InvalidAmount",
      "type": "error"
    },
    {
      "inputs": [
        {
          "internalType": "address",
          "name": "from",
          "type": "address"
        }
      ],
      "name": "InvalidNativePayer",
      "type": "error"
    },
    {
      "inputs": [],
      "name": "NativeTokenTransferFailed",
      "type": "error"
    },
    {
      "inputs": [],
      "name": "PoolCreationFailed",
      "type": "error"
    },
    {
      "inputs": [],
      "name": "R",
      "type": "error"
    },
    {
      "inputs": [],
      "name": "T",
      "type": "error"
    },
    {
      "anonymous": false,
      "inputs": [
        {
          "indexed": true,
          "internalType": "address",
          "name": "previousOwner",
          "type": "address"
        },
        {
          "indexed": true,
          "internalType": "address",
          "name": "newOwner",
          "type": "address"
        }
      ],
      "name": "OwnershipTransferred",
      "type": "event"
    },
    {
      "inputs": [],
      "name": "FEE_TIER",
      "outputs": [
        {
          "internalType": "uint24",
          "name": "",
          "type": "uint24"
        }
      ],
      "stateMutability": "view",
      "type": "function"
    },
    {
      "inputs": [],
      "name": "NONFUNGIBLE_POSITION_MANAGER",
      "outputs": [
        {
          "internalType": "address",
          "name": "",
          "type": "address"
        }
      ],
      "stateMutability": "view",
      "type": "function"
    },
    {
      "inputs": [],
      "name": "UNISWAP_V3_FACTORY",
      "outputs": [
        {
          "internalType": "address",
          "name": "",
          "type": "address"
        }
      ],
      "stateMutability": "view",
      "type": "function"
    },
    {
      "inputs": [
        {
          "components": [
            {
              "internalType": "address",
              "name": "token0",
              "type": "address"
            },
            {
              "internalType": "address",
              "name": "token1",
              "type": "address"
            },
            {
              "internalType": "uint256",
              "name": "amount0Desired",
              "type": "uint256"
            },
            {
              "internalType": "uint256",
              "name": "amount1Desired",
              "type": "uint256"
            },
            {
              "internalType": "address",
              "name": "creator",
              "type": "address"
            },
            {
              "internalType": "bytes",
              "name": "extra",
              "type": "bytes"
            }
          ],
          "internalType": "struct PoolWrapperTypes.CreatePoolMsg",
          "name": "createPoolMsg",
          "type": "tuple"
        }
      ],
      "name": "createPool",
      "outputs": [
        {
          "components": [
            {
              "internalType": "address",
              "name": "poolAddress",
              "type": "address"
            },
            {
              "internalType": "address",
              "name": "token0",
              "type": "address"
            },
            {
              "internalType": "address",
              "name": "token1",
              "type": "address"
            },
            {
              "internalType": "uint256",
              "name": "amount0",
              "type": "uint256"
            },
            {
              "internalType": "uint256",
              "name": "amount1",
              "type": "uint256"
            },
            {
              "internalType": "address",
              "name": "creator",
              "type": "address"
            },
            {
              "internalType": "uint256",
              "name": "refundedAmount0",
              "type": "uint256"
            },
            {
              "internalType": "uint256",
              "name": "refundedAmount1",
              "type": "uint256"
            }
          ],
          "internalType": "struct PoolWrapperTypes.CreatedPoolInfo",
          "name": "",
          "type": "tuple"
        }
      ],
      "stateMutability": "nonpayable",
      "type": "function"
    },
    {
      "inputs": [
        {
          "internalType": "address",
          "name": "stream",
          "type": "address"
        }
      ],
      "name": "getPoolInfo",
      "outputs": [
        {
          "components": [
            {
              "internalType": "address",
              "name": "poolAddress",
              "type": "address"
            },
            {
              "internalType": "address",
              "name": "token0",
              "type": "address"
            },
            {
              "internalType": "address",
              "name": "token1",
              "type": "address"
            },
            {
              "internalType": "uint256",
              "name": "amount0",
              "type": "uint256"
            },
            {
              "internalType": "uint256",
              "name": "amount1",
              "type": "uint256"
            },
            {
              "internalType": "address",
              "name": "creator",
              "type": "address"
            },
            {
              "internalType": "uint256",
              "name": "refundedAmount0",
              "type": "uint256"
            },
            {
              "internalType": "uint256",
              "name": "refundedAmount1",
              "type": "uint256"
            }
          ],
          "internalType": "struct PoolWrapperTypes.CreatedPoolInfo",
          "name": "",
          "type": "tuple"
        }
      ],
      "stateMutability": "view",
      "type": "function"
    },
    {
      "inputs": [],
      "name": "owner",
      "outputs": [
        {
          "internalType": "address",
          "name": "",
          "type": "address"
        }
      ],
      "stateMutability": "view",
      "type": "function"
    },
    {
      "inputs": [],
      "name": "renounceOwnership",
      "outputs": [],
      "stateMutability": "nonpayable",
      "type": "function"
    },
    {
      "inputs": [
        {
          "internalType": "address",
          "name": "",
          "type": "address"
        }
      ],
      "name": "streamPools",
      "outputs": [
        {
          "internalType": "address",
          "name": "poolAddress",
          "type": "address"
        },
        {
          "internalType": "address",
          "name": "token0",
          "type": "address"
        },
        {
          "internalType": "address",
          "name": "token1",
          "type": "address"
        },
        {
          "internalType": "uint256",
          "name": "amount0",
          "type": "uint256"
        },
        {
          "internalType": "uint256",
          "name": "amount1",
          "type": "uint256"
        },
        {
          "internalType": "address",
          "name": "creator",
          "type": "address"
        },
        {
          "internalType": "uint256",
          "name": "refundedAmount0",
          "type": "uint256"
        },
        {
          "internalType": "uint256",
          "name": "refundedAmount1",
          "type": "uint256"
        }
      ],
      "stateMutability": "view",
      "type": "function"
    },
    {
      "inputs": [
        {
          "internalType": "address",
          "name": "newOwner",
          "type": "address"
        }
      ],
      "name": "transferOwnership",
      "outputs": [],
      "stateMutability": "nonpayable",
      "type": "function"
    }
  ],
  "transactionHash": "0xe302b6248d7197cd75771d1571c9beec5f991f3aaec3ca06317eca6b7b1f2a11",
  "args": [
    "0x0227628f3F023bb0B980b67D528571c95c6DaC1c",
    "0x1238536071E1c677A632429e3655c799b22cDA52",
    3000
  ],
  "numDeployments": 1,
  "solcInputHash": "10db5f8dbc868760b181f9ce41cf1d78",
  "bytecode": "0x60e0346200015f57601f62001eb638819003918201601f191683019291906001600160401b03841183851017620001645781606092849260409687528339810103126200015f5762000051816200017a565b908262000061602083016200017a565b9101519162ffffff83168084036200015f5760008054336001600160a01b031982168117835587516001600160a01b039390928416907f8be0079c531659141344cd1fd0a4f28419497f9722a3daafe3b4186f6b6457e09080a3818416156200015057508316156200013f57156200012e5760805260a05260c05251611d26908162000190823960805181818160950152818161048c0152611309015260a05181818161022f015281816104ed0152818161054b0152610a5b015260c05181818161027a01526104180152f35b835163162908e360e11b8152600490fd5b845163e6c4247b60e01b8152600490fd5b63e6c4247b60e01b8152600490fd5b600080fd5b634e487b7160e01b600052604160045260246000fd5b51906001600160a01b03821682036200015f5756fe6080604052600436101561001257600080fd5b6000803560e01c806306bfa938146115cd57806312b468221461153857806348c468b41461029e5780634c69a6c91461025e5780634e967fef14610219578063715018a6146101bf5780638da5cb5b14610198578063f2fde38b146100c75763f73e5aab1461008057600080fd5b346100c457806003193601126100c4576040517f00000000000000000000000000000000000000000000000000000000000000006001600160a01b03168152602090f35b80fd5b50346100c45760203660031901126100c4576004356001600160a01b0381811691829003610194576100f76119f7565b811561014057600054826bffffffffffffffffffffffff60a01b821617600055167f8be0079c531659141344cd1fd0a4f28419497f9722a3daafe3b4186f6b6457e0600080a380f35b60405162461bcd60e51b815260206004820152602660248201527f4f776e61626c653a206e6577206f776e657220697320746865207a65726f206160448201526564647265737360d01b6064820152608490fd5b8280fd5b50346100c457806003193601126100c457546040516001600160a01b039091168152602090f35b50346100c457806003193601126100c4576101d86119f7565b600080546001600160a01b0319811682556001600160a01b03167f8be0079c531659141344cd1fd0a4f28419497f9722a3daafe3b4186f6b6457e08280a380f35b50346100c457806003193601126100c4576040517f00000000000000000000000000000000000000000000000000000000000000006001600160a01b03168152602090f35b50346100c457806003193601126100c457602060405162ffffff7f0000000000000000000000000000000000000000000000000000000000000000168152f35b50346100c457600319602036820112611534576004359067ffffffffffffffff82116101945760c0908236030112611534576102d8611711565b506001600160a01b036102ed6004830161174f565b1615611510576001600160a01b036103076024830161174f565b1615611510576103198160040161174f565b6001600160a01b0361032d6024840161174f565b6001600160a01b039092169116146115225760448101351561147557606481013515611475576001600160a01b036103676084830161174f565b1615611510576001600160a01b036103816004830161174f565b166040516020816024816370a0823160e01b958682523060048301525afa908115610cc65784916114de575b5060448301351161148f5760206001600160a01b036103ce6024850161174f565b169160246040518094819382523060048301525afa9081156114d35783916114a1575b5060648201351161148f576104088160040161174f565b906104156024820161174f565b917f000000000000000000000000000000000000000000000000000000000000000060a483016104488185600401611768565b905061143f575b50604051630b4c774160e11b81526001600160a01b0380841660048301528516602482015262ffffff8216604482015291602083806064810103817f00000000000000000000000000000000000000000000000000000000000000006001600160a01b03165afa928315611434578693611413575b506001600160a01b038316156112b6575b60405163095ea7b360e01b8082526001600160a01b037f000000000000000000000000000000000000000000000000000000000000000081166004840152604487810135602485015291929160209183919082908c9088165af180156112ab5761128c575b506040519081526001600160a01b037f000000000000000000000000000000000000000000000000000000000000000016600482015260648501356024820152602081806044810103818a6001600160a01b038b165af1801561128157611252575b5062ffffff821660640361120c5760015b6105bf60648601356044870135611a59565b6401000276a36001600160a01b0382161015806111e6575b156111d4576001640100000000600160c01b03602083901b166001600160801b03811160071b81811c67ffffffffffffffff811160061b90811c63ffffffff811160051b81811c61ffff811160041b81811c60ff8111600390811b91821c600f811160021b90811c9182118b1b91821c9a909a1196909717939093171791909117959095178317919091179383929091608086106111675750505050607e1982011c5b808002607f1c81800260ff1c1c808002607f1c81800260ff1c1c808002607f1c81800260ff1c1c808002607f1c81800260ff1c1c808002607f1c81800260ff1c1c808002607f1c81800260ff1c1c90818002607f1c82800260ff1c1c92838002607f1c84800260ff1c1c94858002607f1c86800260ff1c1c96878002607f1c88800260ff1c1c98898002607f1c8a800260ff1c1c9a8b8002607f1c8c800260ff1c1c9c8d808002607f1c90800260ff1c1c800260cd1c6604000000000000169d800260cc1c6608000000000000169c800260cb1c6610000000000000169b800260ca1c6620000000000000169a800260c91c66400000000000001699800260c81c66800000000000001698800260c71c6701000000000000001697800260c61c6702000000000000001696800260c51c6704000000000000001695800260c41c6708000000000000001694800260c31c6710000000000000001693800260c21c6720000000000000001692800260c11c6740000000000000001691800260c01c6780000000000000001690607f190160401b1717171717171717171717171717693627a301d71055774c8502906fdb2df09e81959a81455e260799a0632f820160801d60020b6f028f6481ab7f045a5af012a19d003aa919830160801d60020b14600014610d3557506f028f6481ab7f045a5af012a19d003aa9190160801d60020b905b610887816117d2565b627fffff19600282810b9085900b03908112627fffff90911317610ce757816108bb816108c09360020b8660020b03611814565b6117fd565b916108ca826117d2565b60020b9060020b01627fffff198112627fffff821317610ce757906108bb816108f293611814565b60020b91828260020b1215610cfb5761090d6084870161174f565b9361012c42014211610ce757604051978861016081011067ffffffffffffffff6101608b011117610cd15762ffffff926101608a0160405260018060a01b0316895260018060a01b0316602089015216604087015260020b60608601526080850152604483013560a0850152606483013560c08501528460e08501528461010085015260018060a01b031661012084015261012c420161014084015261014060405193634418b22b60e11b855260018060a01b03815116600486015260018060a01b03602082015116602486015262ffffff6040820151166044860152606081015160020b6064860152608081015160020b608486015260a081015160a486015260c081015160c486015260e081015160e486015261010081015161010486015260018060a01b03610120820151166101248601520151610144840152608083610164818760018060a01b037f0000000000000000000000000000000000000000000000000000000000000000165af1908115610cc65784938592610c6d575b610c69610aed604088610b658989610b4d8a8a610aae85604486013561184d565b91610abd81606487013561184d565b95610aca8660040161174f565b610ad66024880161174f565b90610ae36084890161174f565b948c519d8e6116d2565b6001600160a01b039081168e5290811660208e01529081168b8d015260608c019190915260808b01919091521660a089015260c0880181905260e08801849052610b396004840161174f565b610b456084850161174f565b90309061189a565b610b456084610b5e6024840161174f565b920161174f565b33815260016020522060018060a01b038251166bffffffffffffffffffffffff60a01b90818354161782556001820160018060a01b03602085015116828254161790556002820160018060a01b03604085015116828254161790556060830151600383015560808301516004830155600582019060018060a01b0360a0850151169082541617905560c08201516006820155600760e08301519101556040519182918291909160e08061010083019460018060a01b03808251168552806020830151166020860152806040830151166040860152606082015160608601526080820151608086015260a08201511660a085015260c081015160c08501520151910152565b0390f35b935090506080833d608011610cbe575b81610c8a608093836116ef565b81010312610cba5760208301516001600160801b03811603610cba57604083015160609093015190610aed610a8d565b8380fd5b3d9150610c7d565b6040513d86823e3d90fd5b634e487b7160e01b600052604160045260246000fd5b634e487b7160e01b89526011600452602489fd5b60405162461bcd60e51b8152602060048201526012602482015271496e76616c6964207469636b2072616e676560701b6044820152606490fd5b886fdb2df09e81959a81455e260799a0632f830160801d60020b12600014611148576fdb2df09e81959a81455e260799a0632f820160801d60020b8903905b620d89e88211611136576001821615611124576001600160881b036ffffcb933bd6fad37aa2d162d1a5940015b169160028116611108575b600481166110ec575b600881166110d0575b601081166110b4575b60208116611098575b6040811661107c575b60808116611060575b6101008116611044575b6102008116611028575b610400811661100c575b6108008116610ff0575b6110008116610fd4575b6120008116610fb8575b6140008116610f9c575b6180008116610f80575b620100008116610f64575b620200008116610f49575b620400008116610f2e575b6208000016610f16575b896fdb2df09e81959a81455e260799a0632f840160801d60020b13610ef1575b63ffffffff8216610ee95789905b6001600160a01b0390811660209390931c60ff92909216919091011611610ecb576fdb2df09e81959a81455e260799a0632f0160801d60020b5b9061087e565b6f028f6481ab7f045a5af012a19d003aa9190160801d60020b610ec5565b600190610e8b565b908015610f02576000190490610e7d565b634e487b7160e01b8a52601260045260248afd5b906b048a170391f7dc42444e8fa20260801c90610e5d565b6d2216e584f5fa1ea926041bedfe9890920260801c91610e53565b916e5d6af8dedb81196699c329225ee6040260801c91610e48565b916f09aa508b5b7a84e1c677de54f3e99bc90260801c91610e3d565b916f31be135f97d08fd981231505542fcfa60260801c91610e32565b916f70d869a156d2a1b890bb3df62baf32f70260801c91610e28565b916fa9f746462d870fdf8a65dc1f90e061e50260801c91610e1e565b916fd097f3bdfd2022b8845ad8f792aa58250260801c91610e14565b916fe7159475a2c29b7443b29c7fa6e889d90260801c91610e0a565b916ff3392b0822b70005940c7a398e4b70f30260801c91610e00565b916ff987a7253ac413176f2b074cf7815e540260801c91610df6565b916ffcbe86c7900a88aedcffc83b479aa3a40260801c91610dec565b916ffe5dee046a99a2a811c461f1969c30530260801c91610de2565b916fff2ea16466c96a3843ec78b326b528610260801c91610dd9565b916fff973b41fa98c081472e6896dfb254c00260801c91610dd0565b916fffcb9843d60f6159c9db58835c9266440260801c91610dc7565b916fffe5caca7e10e4e61c3624eaa0941cd00260801c91610dbe565b916ffff2e50f5f656932ef12357cf3c7fdcc0260801c91610db5565b916ffff97272373d413259a46990580e213a0260801c91610dac565b6001600160881b03600160801b610da1565b6040516315e4079d60e11b8152600490fd5b6fdb2df09e81959a81455e260799a0632f820160801d60020b90610d74565b600161ffff841160041b93841c60ff811160031b90811c600f811160021b90811c851c9290921163ffffffff90931160051b67ffffffffffffffff6001600160801b03881160071b88811c9190911160061b17179490941793909317929092171717607f031b905061067a565b6040516324c070df60e11b8152600490fd5b5073fffd8963efd1fc6a506488495d951d5263988d266001600160a01b038216106105d7565b62ffffff82166101f40361122157600a6105ad565b62ffffff8216610bb80361123657603c6105ad565b62ffffff82166127100361124b5760c86105ad565b603c6105ad565b6112739060203d60201161127a575b61126b81836116ef565b8101906117ba565b503861059c565b503d611261565b6040513d89823e3d90fd5b6112a49060203d60201161127a5761126b81836116ef565b503861053a565b6040513d8a823e3d90fd5b91506112ca60648401356044850135611a59565b60405163a167129560e01b81526001600160a01b0380851660048301528616602482015262ffffff83166044820152909290602081806064810103818a7f00000000000000000000000000000000000000000000000000000000000000006001600160a01b03165af19081156112815787916113e4575b509283906001600160a01b038216156113d25787916001600160a01b0381163b156101945760405163f637731d60e01b81526001600160a01b0392831660048201529291839160249183918591165af18015611281576113a2575b506104d5565b67ffffffffffffffff81979297116113be57604052943861139c565b634e487b7160e01b82526041600452602482fd5b6040516337200b1d60e21b8152600490fd5b611406915060203d60201161140c575b6113fe81836116ef565b81019061179b565b38611341565b503d6113f4565b61142d91935060203d60201161140c576113fe81836116ef565b91386104c4565b6040513d88823e3d90fd5b602091506114509084600401611768565b908092918101031261148b573562ffffff81168082036114875715611475573861044f565b60405163162908e360e11b8152600490fd5b8580fd5b8480fd5b604051631e9acf1760e31b8152600490fd5b90506020813d6020116114cb575b816114bc602093836116ef565b810103126101945751386103f1565b3d91506114af565b6040513d85823e3d90fd5b90506020813d602011611508575b816114f9602093836116ef565b81010312610cba5751386103ad565b3d91506114ec565b60405163e6c4247b60e01b8152600490fd5b6040516351734ced60e01b8152600490fd5b5080fd5b50346100c45760203660031901126100c4576001600160a01b036004358181169081900361019457826040916101009452600160205220908082541691816001820154169180600283015416906003830154600484015491600585015416926007600686015495015495604051978852602088015260408701526060860152608085015260a084015260c083015260e0820152f35b50346100c45760203660031901126100c4576001600160a01b0360043581811690819003610194576040610c6993600792611606611711565b5081526001602052206040519261161c846116d2565b808254168452806001830154166020850152806002830154166040850152600382015460608501526004820154608085015260058201541660a0840152600681015460c0840152015460e08201526040519182918291909160e08061010083019460018060a01b03808251168552806020830151166020860152806040830151166040860152606082015160608601526080820151608086015260a08201511660a085015260c081015160c08501520151910152565b610100810190811067ffffffffffffffff821117610cd157604052565b90601f8019910116810190811067ffffffffffffffff821117610cd157604052565b6040519061171e826116d2565b8160e06000918281528260208201528260408201528260608201528260808201528260a08201528260c08201520152565b356001600160a01b03811681036117635790565b600080fd5b903590601e1981360301821215611763570180359067ffffffffffffffff82116117635760200191813603831361176357565b9081602091031261176357516001600160a01b03811681036117635790565b90816020910312611763575180151581036117635790565b600a9060020b02908160020b9182036117e757565b634e487b7160e01b600052601160045260246000fd5b9060020b9060020b02908160020b9182036117e757565b60020b9060020b90811561183757627fffff1981146000198314166117e7570590565b634e487b7160e01b600052601260045260246000fd5b919082039182116117e757565b3d15611895573d9067ffffffffffffffff8211610cd15760405191611889601f8201601f1916602001846116ef565b82523d6000602084013e565b606090565b9291909282156119f1576001600160a01b039081169384156119515781169030820361190557505060405163a9059cbb60e01b60208201526001600160a01b03919091166024820152604480820192909252908152611903916118fe6064836116ef565b611b24565b565b909291604051936323b872dd60e01b6020860152602485015216604483015260648201526064815260a081019181831067ffffffffffffffff841117610cd15761190392604052611b24565b81939450163381146000146119be575082340361199f571630811461199b57600080809381935af161198161185a565b501561198957565b604051630c08bcb960e21b8152600490fd5b5050565b604051635693fffb60e01b815260048101849052346024820152604490fd5b3081036119d957506000809381938293165af161198161185a565b6024906040519063463de9db60e01b82526004820152fd5b50505050565b6000546001600160a01b03163303611a0b57565b606460405162461bcd60e51b815260206004820152602060248201527f4f776e61626c653a2063616c6c6572206973206e6f7420746865206f776e65726044820152fd5b8115611837570490565b8115611475578015611aba57611a7a91611a759160801b611a4f565b611ac1565b6001600160a01b039060201b818111611a91571690565b60405162461bcd60e51b81526020600482015260016024820152602960f91b6044820152606490fd5b5050600090565b8015611b1e5760018082018083116117e75760011c9082905b838310611ae75750505090565b9192509082611af68184611a4f565b908101809111611b0957811c9190611ada565b60246000634e487b7160e01b81526011600452fd5b50600090565b60408051908101916001600160a01b031667ffffffffffffffff831182841017610cd157611b94926040526000806020958685527f5361666545524332303a206c6f772d6c6576656c2063616c6c206661696c656487860152868151910182855af1611b8e61185a565b91611c1c565b805190828215928315611c04575b50505015611bad5750565b6084906040519062461bcd60e51b82526004820152602a60248201527f5361666545524332303a204552433230206f7065726174696f6e20646964206e6044820152691bdd081cdd58d8d9595960b21b6064820152fd5b611c1493508201810191016117ba565b388281611ba2565b91929015611c7e5750815115611c30575090565b3b15611c395790565b60405162461bcd60e51b815260206004820152601d60248201527f416464726573733a2063616c6c20746f206e6f6e2d636f6e74726163740000006044820152606490fd5b825190915015611c915750805190602001fd5b6040519062461bcd60e51b82528160208060048301528251908160248401526000935b828510611cd7575050604492506000838284010152601f80199101168101030190fd5b8481018201518686016044015293810193859350611cb456fea26469706673582212200ce387b26a4a49603a98c379e1545994118a67a594bad16a7f74d994ab81a20f64736f6c63430008180033",
  "devdoc": {
    "kind": "dev",
    "methods": {
      "createPool((address,address,uint256,uint256,address,bytes))": {
        "params": {
          "createPoolMsg": "The parameters for pool creation and liquidity addition Callable by anyone"
        }
      },
      "getPoolInfo(address)": {
        "params": {
          "stream": "The stream address"
        }
      },
      "owner()": {
        "details": "Returns the address of the current owner."
      },
      "renounceOwnership()": {
        "details": "Leaves the contract without owner. It will not be possible to call `onlyOwner` functions. Can only be called by the current owner. NOTE: Renouncing ownership will leave the contract without an owner, thereby disabling any functionality that is only available to the owner."
      },
      "transferOwnership(address)": {
        "details": "Transfers ownership of the contract to a new account (`newOwner`). Can only be called by the current owner."
      }
    },
    "title": "V3PoolWrapper",
    "version": 1
  },
  "userdoc": {
    "kind": "user",
    "methods": {
      "createPool((address,address,uint256,uint256,address,bytes))": {
        "notice": "Creates a pool and adds liquidity"
      },
      "getPoolInfo(address)": {
        "notice": "Gets pool info for a stream"
      }
    },
    "notice": "Wrapper for creating v3 pools and adding liquidity within a price range",
    "version": 1
  },
  "storageLayout": {
    "storage": [
      {
        "astId": 11,
        "contract": "src/V3PoolWrapper.sol:V3PoolWrapper",
        "label": "_owner",
        "offset": 0,
        "slot": "0",
        "type": "t_address"
      },
      {
        "astId": 11958,
        "contract": "src/V3PoolWrapper.sol:V3PoolWrapper",
        "label": "streamPools",
        "offset": 0,
        "slot": "1",
        "type": "t_mapping(t_address,t_struct(CreatedPoolInfo)21592_storage)"
      }
    ],
    "types": {
      "t_address": {
        "encoding": "inplace",
        "label": "address",
        "numberOfBytes": "20"
      },
      "t_mapping(t_address,t_struct(CreatedPoolInfo)21592_storage)": {
        "encoding": "mapping",
        "key": "t_address",
        "label": "mapping(address => struct PoolWrapperTypes.CreatedPoolInfo)",
        "numberOfBytes": "32",
        "value": "t_struct(CreatedPoolInfo)21592_storage"
      },
      "t_struct(CreatedPoolInfo)21592_storage": {
        "encoding": "inplace",
        "label": "struct PoolWrapperTypes.CreatedPoolInfo",
        "members": [
          {
            "astId": 21577,
            "contract": "src/V3PoolWrapper.sol:V3PoolWrapper",
            "label": "poolAddress",
            "offset": 0,
            "slot": "0",
            "type": "t_address"
          },
          {
            "astId": 21579,
            "contract": "src/V3PoolWrapper.sol:V3PoolWrapper",
            "label": "token0",
            "offset": 0,
            "slot": "1",
            "type": "t_address"
          },
          {
            "astId": 21581,
            "contract": "src/V3PoolWrapper.sol:V3PoolWrapper",
            "label": "token1",
            "offset": 0,
            "slot": "2",
            "type": "t_address"
          },
          {
            "astId": 21583,
            "contract": "src/V3PoolWrapper.sol:V3PoolWrapper",
            "label": "amount0",
            "offset": 0,
            "slot": "3",
            "type": "t_uint256"
          },
          {
            "astId": 21585,
            "contract": "src/V3PoolWrapper.sol:V3PoolWrapper",
            "label": "amount1",
            "offset": 0,
            "slot": "4",
            "type": "t_uint256"
          },
          {
            "astId": 21587,
            "contract": "src/V3PoolWrapper.sol:V3PoolWrapper",
            "label": "creator",
            "offset": 0,
            "slot": "5",
            "type": "t_address"
          },
          {
            "astId": 21589,
            "contract": "src/V3PoolWrapper.sol:V3PoolWrapper",
            "label": "refundedAmount0",
            "offset": 0,
            "slot": "6",
            "type": "t_uint256"
          },
          {
            "astId": 21591,
            "contract": "src/V3PoolWrapper.sol:V3PoolWrapper",
            "label": "refundedAmount1",
            "offset": 0,
            "slot": "7",
            "type": "t_uint256"
          }
        ],
        "numberOfBytes": "256"
      },
      "t_uint256": {
        "encoding": "inplace",
        "label": "uint256",
        "numberOfBytes": "32"
      }
    }
  }
}