{
  "address": "0x640AFF79ca621873348A67D697Be2190409cb49E",
  "abi": [
    {
      "inputs": [
        {
          "internalType": "uint256",
          "name": "expected",
          "type": "uint256"
        },
        {
          "internalType": "uint256",
          "name": "actual",
          "type": "uint256"
        }
      ],
      "name": "IncorrectNativeAmount",
      "type": "error"
    },
    {
      "inputs": [],
      "name": "InvalidAmount",
      "type": "error"
    },
    {
      "inputs": [],
      "name": "InvalidBeneficiary",
      "type": "error"
    },
    {
      "inputs": [],
      "name": "InvalidDuration",
      "type": "error"
    },
    {
      "inputs": [
        {
          "internalType": "address",
          "name": "from",
          "type": "address"
        }
      ],
      "name": "InvalidNativePayer",
      "type": "error"
    },
    {
      "inputs": [],
      "name": "InvalidStartTime",
      "type": "error"
    },
    {
      "inputs": [],
      "name": "NativeTokenTransferFailed",
      "type": "error"
    },
    {
      "inputs": [],
      "name": "TokenTransferFailed",
      "type": "error"
    },
    {
      "anonymous": false,
      "inputs": [
        {
          "indexed": true,
          "internalType": "address",
          "name": "beneficiary",
          "type": "address"
        },
        {
          "indexed": true,
          "internalType": "address",
          "name": "vestingWallet",
          "type": "address"
        },
        {
          "indexed": false,
          "internalType": "uint64",
          "name": "startTime",
          "type": "uint64"
        },
        {
          "indexed": false,
          "internalType": "uint64",
          "name": "duration",
          "type": "uint64"
        },
        {
          "indexed": false,
          "internalType": "address",
          "name": "token",
          "type": "address"
        },
        {
          "indexed": false,
          "internalType": "uint256",
          "name": "amount",
          "type": "uint256"
        }
      ],
      "name": "VestingWalletCreated",
      "type": "event"
    },
    {
      "inputs": [
        {
          "internalType": "address",
          "name": "beneficiary",
          "type": "address"
        },
        {
          "internalType": "uint64",
          "name": "startTime",
          "type": "uint64"
        },
        {
          "internalType": "uint64",
          "name": "duration",
          "type": "uint64"
        },
        {
          "internalType": "address",
          "name": "token",
          "type": "address"
        },
        {
          "internalType": "uint256",
          "name": "amount",
          "type": "uint256"
        }
      ],
      "name": "createVestingWalletWithTokens",
      "outputs": [
        {
          "internalType": "address",
          "name": "vestingWallet",
          "type": "address"
        }
      ],
      "stateMutability": "payable",
      "type": "function"
    }
  ],
  "transactionHash": "0x2f22f96793517acbe6f33e6d972d83694825488daed5a54419f129004e37a28b",
  "args": [],
  "numDeployments": 1,
  "solcInputHash": "10db5f8dbc868760b181f9ce41cf1d78",
  "bytecode": "0x6080806040523461001657610fe0908161001c8239f35b600080fdfe60806040908082526004918236101561001757600080fd5b600092833560e01c63c4b2da591461002e57600080fd5b60a036600319011261019f5780356001600160a01b038181169182900361019b576024359567ffffffffffffffff9182881680980361019757604435918383168093036101945760643595828716948588036101905760843599871561018257508a1561017357428b1061017357841561016457891561015557885191610a6e9081840192848410908411176101425750606091839161053d83398881528c6020820152868b82015203019082f090811561013757507f515cf92d69f6cb24204f2d033637fc556ff95bd7c99a08bbd4d56500cab426db9360809361011e60209b948b94169a8b809a3390610204565b88519384528a840152878301526060820152a351908152f35b8751903d90823e3d90fd5b634e487b7160e01b855260419052602484fd5b50875163162908e360e11b8152fd5b508751637616640160e01b8152fd5b508751632ca4094f60e21b8152fd5b631559b7d760e21b81529050fd5b8280fd5b80fd5b5080fd5b8580fd5b8380fd5b3d156101ff5767ffffffffffffffff903d8281116101e95760405192601f8201601f19908116603f01168401908111848210176101e95760405282523d6000602084013e565b634e487b7160e01b600052604160045260246000fd5b606090565b929092811561035a576001600160a01b039081169384156102b957811630810361026f57506040519263a9059cbb60e01b6020850152166024830152604482015260448152608081019181831067ffffffffffffffff8411176101e95761026d92604052610360565b565b92604051936323b872dd60e01b6020860152602485015216604483015260648201526064815260a081019181831067ffffffffffffffff8411176101e95761026d92604052610360565b8193929450163381146000146103275750823403610308571630811461030457600080809381935af16102ea6101a3565b50156102f257565b604051630c08bcb960e21b8152600490fd5b5050565b604051635693fffb60e01b815260048101849052346024820152604490fd5b30810361034257506000809381938293165af16102ea6101a3565b6024906040519063463de9db60e01b82526004820152fd5b50505050565b60018060a01b031690604051604081019080821067ffffffffffffffff8311176101e9576103d2916040526020938482527f5361666545524332303a206c6f772d6c6576656c2063616c6c206661696c6564858301526000808587829751910182855af16103cc6101a3565b91610468565b805191821591848315610444575b5050509050156103ed5750565b6084906040519062461bcd60e51b82526004820152602a60248201527f5361666545524332303a204552433230206f7065726174696f6e20646964206e6044820152691bdd081cdd58d8d9595960b21b6064820152fd5b919381809450010312610197578201519081151582036101945750803880846103e0565b919290156104ca575081511561047c575090565b3b156104855790565b60405162461bcd60e51b815260206004820152601d60248201527f416464726573733a2063616c6c20746f206e6f6e2d636f6e74726163740000006044820152606490fd5b8251909150156104dd5750805190602001fd5b6040519062461bcd60e51b82528160208060048301528251908160248401526000935b828510610523575050604492506000838284010152601f80199101168101030190fd5b848101820151868601604401529381019385935061050056fe60e0601f610a6e38819003918201601f19168301916001600160401b03831184841017610118578084926060946040528339810103126101135780516001600160a01b038116919082810361011357610066604061005f6020850161012e565b930161012e565b92156100bb5760805260a05260c05260405161092b9081610143823960805181818161021c0152818161035c0152610411015260a0518181816101090152610738015260c051818181610579015261076d0152f35b60405162461bcd60e51b815260206004820152602a60248201527f56657374696e6757616c6c65743a2062656e6566696369617279206973207a65604482015269726f206164647265737360b01b6064820152608490fd5b600080fd5b634e487b7160e01b600052604160045260246000fd5b51906001600160401b03821682036101135756fe60406080815260049081361015610020575b5050361561001e57600080fd5b005b600091823560e01c9081630a17b06b1461059d5781630fb5a6b414610558578163191655871461038b57816338af3eed14610347578163810ec23b1461030857816386d1a69f146101a55750806396132521146101895780639852595c14610152578063a3f8eace1461012d578063be9a6555146100e95763fbccedae0361001157346100e557816003193601126100e5576100de6020926100d9479154916100d48367ffffffffffffffff4216926105f0565b610729565b6106e4565b9051908152f35b5080fd5b50346100e557816003193601126100e5576020905167ffffffffffffffff7f0000000000000000000000000000000000000000000000000000000000000000168152f35b50346100e55760203660031901126100e5576020906100de61014d6105d5565b6106f1565b50346100e55760203660031901126100e55760209181906001600160a01b036101796105d5565b1681526001845220549051908152f35b50346100e557816003193601126100e557602091549051908152f35b9190503461030457826003193601126103045782546101e06101d9826100d94267ffffffffffffffff166100d483476105f0565b80926105f0565b84557fda9d4e5f101b8b9b1c5b76d0c5a9f7923571acfc02376aa076b75a8c080c956b60208351838152a18047106102c15783908190819081907f00000000000000000000000000000000000000000000000000000000000000006001600160a01b03165af161024e6107e1565b5015610258578280f35b906020608492519162461bcd60e51b8352820152603a60248201527f416464726573733a20756e61626c6520746f2073656e642076616c75652c207260448201527f6563697069656e74206d617920686176652072657665727465640000000000006064820152fd5b815162461bcd60e51b8152602081850152601d60248201527f416464726573733a20696e73756666696369656e742062616c616e63650000006044820152606490fd5b8280fd5b5050346100e557806003193601126100e5576103226105d5565b6024359267ffffffffffffffff8416840361034457506020926100de9161064b565b80fd5b5050346100e557816003193601126100e557517f00000000000000000000000000000000000000000000000000000000000000006001600160a01b03168152602090f35b919050346103045760209081600319360112610554576103a96105d5565b6103b2816106f1565b9060018060a01b0380911690818752600185528387206103d38482546105f0565b9055817fc0e523490dd523c33b1878c9eb14ff46991e3f5b2cd33710918618f2a39cba1b868651868152a28351928584019163a9059cbb60e01b83527f0000000000000000000000000000000000000000000000000000000000000000166024850152604484015260448352608083019267ffffffffffffffff818510818611176105415760c08201908111858210176105415785528584527f5361666545524332303a206c6f772d6c6576656c2063616c6c206661696c656460a0820152516104af9392918891829182855af16104a96107e1565b91610821565b805183811591821561051d575b50509050156104c9578380f35b5162461bcd60e51b815291820152602a60248201527f5361666545524332303a204552433230206f7065726174696f6e20646964206e6044820152691bdd081cdd58d8d9595960b21b606482015260849150fd5b838092935001031261053d57820151801515810361053d578083386104bc565b8480fd5b634e487b7160e01b895260418852602489fd5b8380fd5b5050346100e557816003193601126100e5576020905167ffffffffffffffff7f0000000000000000000000000000000000000000000000000000000000000000168152f35b905034610304576020366003190112610304573567ffffffffffffffff81168103610304576100de906100d4602094479054906105f0565b600435906001600160a01b03821682036105eb57565b600080fd5b919082018092116105fd57565b634e487b7160e01b600052601160045260246000fd5b90601f8019910116810190811067ffffffffffffffff82111761063557604052565b634e487b7160e01b600052604160045260246000fd5b6040516370a0823160e01b81523060048201526001600160a01b03919091169190602081602481865afa9081156106d8576000916106a4575b506100d4906106a1936000526001602052604060002054906105f0565b90565b90506020813d6020116106d0575b816106bf60209383610613565b810103126105eb57516106a1610684565b3d91506106b2565b6040513d6000823e3d90fd5b919082039182116105fd57565b6106a19061070967ffffffffffffffff42168261064b565b6001600160a01b03909116600090815260016020526040902054906106e4565b67ffffffffffffffff918216917f00000000000000000000000000000000000000000000000000000000000000008116908184101561076b5750505050600090565b7f0000000000000000000000000000000000000000000000000000000000000000169261079884836105f0565b8111156107a6575050905090565b906107b0916106e4565b908181029181830414901517156105fd5781156107cb570490565b634e487b7160e01b600052601260045260246000fd5b3d1561081c573d9067ffffffffffffffff82116106355760405191610810601f8201601f191660200184610613565b82523d6000602084013e565b606090565b919290156108835750815115610835575090565b3b1561083e5790565b60405162461bcd60e51b815260206004820152601d60248201527f416464726573733a2063616c6c20746f206e6f6e2d636f6e74726163740000006044820152606490fd5b8251909150156108965750805190602001fd5b6040519062461bcd60e51b82528160208060048301528251908160248401526000935b8285106108dc575050604492506000838284010152601f80199101168101030190fd5b84810182015186860160440152938101938593506108b956fea2646970667358221220f6235be43f7faaf5ef42395a12abc7ae732a090157a3385a315158d316c1bd6064736f6c63430008180033a26469706673582212207b8d770c1278f96ee3f5cd2685af0bc798eda1aaa202d82bddea5ebe1b350f2664736f6c63430008180033",
  "devdoc": {
    "details": "Factory contract for creating OpenZeppelin VestingWallet instances",
    "kind": "dev",
    "methods": {
      "createVestingWalletWithTokens(address,uint64,uint64,address,uint256)": {
        "details": "Creates a VestingWallet and transfers tokens to it in one transaction",
        "params": {
          "amount": "the amount of tokens to transfer",
          "beneficiary": "address of the beneficiary",
          "duration": "duration in seconds of the period in which the tokens will vest",
          "startTime": "the time (as Unix time) at which point vesting begins",
          "token": "the token to transfer to the vesting wallet (zero address for native token)"
        },
        "returns": {
          "vestingWallet": "the address of the created VestingWallet"
        }
      }
    },
    "title": "VestingFactory",
    "version": 1
  },
  "userdoc": {
    "kind": "user",
    "methods": {
      "createVestingWalletWithTokens(address,uint64,uint64,address,uint256)": {
        "notice": "When token is address(0), native tokens are sent via msg.value. For ERC20 tokens,          the caller must approve this contract first."
      }
    },
    "version": 1
  },
  "storageLayout": {
    "storage": [],
    "types": null
  }
}